{
  "_format": "hh-sol-artifact-1",
  "contractName": "CollectionFactory",
  "sourceName": "contracts/CollectionFactory.sol",
  "abi": [
    {
      "anonymous": false,
      "inputs": [
        {
          "indexed": true,
          "internalType": "address",
          "name": "collectionAddress",
          "type": "address"
        },
        {
          "indexed": false,
          "internalType": "string",
          "name": "collectionName",
          "type": "string"
        },
        {
          "indexed": false,
          "internalType": "address",
          "name": "creator",
          "type": "address"
        }
      ],
      "name": "CollectionDeployed",
      "type": "event"
    },
    {
      "inputs": [
        {
          "internalType": "string",
          "name": "_name",
          "type": "string"
        },
        {
          "internalType": "string",
          "name": "_description",
          "type": "string"
        },
        {
          "internalType": "uint256",
          "name": "totalShares",
          "type": "uint256"
        },
        {
          "internalType": "uint256",
          "name": "sharePrice",
          "type": "uint256"
        },
        {
          "internalType": "address",
          "name": "nftCollection",
          "type": "address"
        },
        {
          "internalType": "uint256",
          "name": "nftTokenId",
          "type": "uint256"
        },
        {
          "internalType": "string",
          "name": "nftMetadataURI",
          "type": "string"
        }
      ],
      "name": "createCollection",
      "outputs": [
        {
          "internalType": "address",
          "name": "",
          "type": "address"
        }
      ],
      "stateMutability": "nonpayable",
      "type": "function"
    }
  ],
  "bytecode": "0x6080806040523461001657612566908161001c8239f35b600080fdfe6040608081526004908136101561001557600080fd5b6000803560e01c63245a1e681461002b57600080fd5b346101a45760e03660031901126101a45767ffffffffffffffff9083358281116101a05761005c90369086016101a7565b9360243583811161019c5761007490369083016101a7565b6001600160a01b03939060843585811691908290036101985760c435838111610194576100a490369086016101a7565b908751946122cb9081870195878710908711176101815750916100ed86959492610117946200026688396100df61010080885287018d610225565b908682036020880152610225565b916044358a8601526064356060860152608085015260a43560a085015283820360c0850152610225565b9060e033910152039082f090811561017657602061016885877f738f8f24bbc8650ff781c51735129987785b223d15ab5371dfa433bae38f7a4e878716938492845191829186835286830190610225565b33888301520390a251908152f35b8351903d90823e3d90fd5b634e487b7160e01b885260419052602487fd5b8580fd5b8480fd5b8280fd5b5080fd5b80fd5b81601f8201121561020a5780359067ffffffffffffffff9283831161020f5760405193601f8401601f19908116603f011685019081118582101761020f576040528284526020838301011161020a57816000926020809301838601378301015290565b600080fd5b634e487b7160e01b600052604160045260246000fd5b919082519283825260005b848110610251575050826000602080949584010152601f8019910116010190565b60208183018101518483018201520161023056fe604060808152346200068657620022cb803803806200001e816200068b565b928339810161010082820312620006865781516001600160401b03929083811162000686578262000051918301620006b1565b90602092838201518581116200068657816200006f918401620006b1565b908683015190606084015190620000896080860162000723565b9760a08601519160c0870151908282116200068657620000b260e091620000ba938a01620006b1565b970162000723565b92875196828811620005705760039182549860019a8b8b811c9b1680156200067b575b8d8c101462000665578c9a8291601f9e8f9283811162000602575b50508c918311600114620005925760009262000586575b505060001982861b1c1916908b1b1783555b8751848111620005705760049889548c81811c9116801562000565575b8c821014620005505782918c8f92838111620004ed575b50508c9183116001146200047d5760009262000471575b505060001982861b1c1916908b1b1788555b620001893362000738565b8960065560018060a01b03948560018060a01b03199d168d600754161760075560085560095580519283116200045c57600a548981811c9116801562000451575b898210146200043c5790818b85949311620003e3575b5088908b841160011462000376576000936200036a575b505082891b92600019911b1c191617600a555b42600b558116958688600c541617600c5582600f55670de0b6b3a76400009081840291848304148415171562000314578715620003295750600254818101809111620003145760007fddf252ad1be2c89b69c2b068fc378daa952ba7f163c4a11628f55a4df523b3ef876200029a95948b946002558484528382528d84208181540190558d51908152a362000738565b84600052600d83528660002055600e549268010000000000000000841015620002ff57830180600e55831015620002ea5750600e600052600020019182541617905551611b499081620007828239f35b603290634e487b7160e01b6000525260246000fd5b604182634e487b7160e01b6000525260246000fd5b601185634e487b7160e01b6000525260246000fd5b84606491878c519262461bcd60e51b845283015260248201527f45524332303a206d696e7420746f20746865207a65726f2061646472657373006044820152fd5b015191503880620001f7565b91908a9450601f19841692600a6000528a6000209360005b8c828210620003cc5750508511620003b1575b50505050811b01600a556200020a565b01519060f884600019921b161c1916905538808080620003a1565b8385015187558e989096019593840193016200038e565b90919250600a600052886000208b80860160051c8201928b871062000432575b918c9187969594930160051c01915b82811062000422575050620001e0565b600081558695508c910162000412565b9250819262000403565b602288634e487b7160e01b6000525260246000fd5b90607f1690620001ca565b604187634e487b7160e01b6000525260246000fd5b0151905038806200016c565b60008c81528d81208f9550929190601f198516908f5b828210620004cc5750508411620004b3575b505050811b0188556200017e565b015160001983881b60f8161c19169055388080620004a5565b91929395968291958786015181550195019301908f95949392918f62000493565b919350918c600052826000209181860160051c830193861062000546575b8f9092828796949593950160051c01915b8281106200052e57508e915062000155565b600091939550809294505501918e918e85946200051c565b925081926200050b565b60228b634e487b7160e01b6000525260246000fd5b90607f16906200013e565b634e487b7160e01b600052604160045260246000fd5b0151905038806200010f565b60008781528d81208f9550929190601f198516908f5b828210620005e15750508411620005c8575b505050811b01835562000121565b015160001983881b60f8161c19169055388080620005ba565b91929395968291958786015181550195019301908f95949392918f620005a8565b9193509187600052826000209181860160051c83019386106200065b575b8f9092828796949593950160051c01915b8281106200064357508e9150620000f8565b600091939550809294505501918e918e859462000631565b9250819262000620565b634e487b7160e01b600052602260045260246000fd5b9a607f169a620000dd565b600080fd5b6040519190601f01601f191682016001600160401b038111838210176200057057604052565b919080601f84011215620006865782516001600160401b0381116200057057602090620006e7601f8201601f191683016200068b565b92818452828287010111620006865760005b8181106200070f57508260009394955001015290565b8581018301518482018401528201620006f9565b51906001600160a01b03821682036200068657565b600580546001600160a01b039283166001600160a01b0319821681179092559091167f8be0079c531659141344cd1fd0a4f28419497f9722a3daafe3b4186f6b6457e0600080a356fe6080604081815260048036101561001557600080fd5b600092833560e01c90816302d05d3f146111585750806306fdde0314611063578063095ea7b3146110395780630ee2cb101461101057806316b6024914610fc357806318160ddd14610fa457806323b872dd14610eda578063313ce56714610ebe57806338ea2fc714610e875780633950935114610e375780634d21e01914610dc2578063589f348114610d8f5780635ede788f14610d705780636588103b14610d4757806370a0823114610d10578063715018a614610cb35780637427a40c14610c7357806375cbf75d14610c465780637b85b13214610c155780637e83057414610bf6578063817bc0cb146102dc5780638477d9f314610a6d5780638726972914610a4e5780638da5cb5b14610a255780638fcb4e5b1461092e578063944e6c96146108f457806395d89b41146107d9578063a457c2d714610732578063a9059cbb14610701578063d1a93d18146102e1578063d5002f2e146102dc578063d8270dce146102bd578063dd62ed3e14610274578063de69b3aa146102385763f2fde38b146101a457600080fd5b34610234576020366003190112610234576101bd6111bd565b916101c66113b0565b6001600160a01b038316156101e257836101df84611408565b80f35b906020608492519162461bcd60e51b8352820152602660248201527f4f776e61626c653a206e6577206f776e657220697320746865207a65726f206160448201526564647265737360d01b6064820152fd5b8280fd5b5050346102705760203660031901126102705760209181906001600160a01b036102606111bd565b168152600d845220549051908152f35b5080fd5b505034610270578060031936011261027057806020926102926111bd565b61029a6111d8565b6001600160a01b0391821683526001865283832091168252845220549051908152f35b505034610270578160031936011261027057602090600b549051908152f35b61135e565b50906020806003193601126106fd578235926002600654146106bc57600260065560098054908115610683576103238680159361031e85156116e4565b61173c565b340361064957670de0b6b3a7640000808702928784048214171561063657600f54870361048f5750506005546001600160a01b0316808752600d845284872054600f549193910361044c5782875286845281858820541061040957508580809361038f82943383611474565b61039a88338361176b565b6103a33361196a565b819034156103ff575b3491f1156103f557907f630b54f21d1c5ae41c4633ad96e8c15ce15665365eded6a38476ffa71c8ace6c915b815193845234908401523392a26103ed6118fc565b600160065580f35b81513d85823e3d90fd5b6108fc91506103ac565b845162461bcd60e51b8152908101849052601d60248201527f4f776e65722068617320696e73756666696369656e74207368617265730000006044820152606490fd5b845162461bcd60e51b8152908101849052601d60248201527f4f776e657220646f65736e2774206861766520616c6c207368617265730000006044820152606490fd5b92969150929385928295835b600e5481108061062d575b156105b7576104b4816111ee565b905460039190911b1c6001600160a01b031633811415806105a4575b6104e4575b506104df9061174f565b61049b565b808652600d83528486205480881161059e575086905b811590811561050b575b50506104d5565b8583949b999302918483048714171561058b5787808086959481946105358f9961053f9a5461173c565b9889923383611474565b61054a88338361176b565b828215610582575bf115610578579161056961056f926104df9461175e565b97611451565b97903880610504565b85513d88823e3d90fd5b506108fc610552565b634e487b7160e01b885260118d52602488fd5b906104fa565b50808652600d83528486205415156104d0565b50945050935094906105ec5750907f630b54f21d1c5ae41c4633ad96e8c15ce15665365eded6a38476ffa71c8ace6c916103d8565b915162461bcd60e51b815291820152601b60248201527f4e6f7420656e6f7567682073686172657320617661696c61626c6500000000006044820152606490fd5b508515156104a6565b634e487b7160e01b885260118452602488fd5b845162461bcd60e51b81528084018590526014602482015273125b98dbdc9c9958dd0811551208185b5bdd5b9d60621b6044820152606490fd5b845162461bcd60e51b8152808401859052601360248201527214da185c99481c1c9a58d9481b9bdd081cd95d606a1b6044820152606490fd5b915162461bcd60e51b815291820152601f60248201527f5265656e7472616e637947756172643a207265656e7472616e742063616c6c006044820152606490fd5b8380fd5b50503461027057806003193601126102705760209061072b6107216111bd565b6024359033611474565b5160018152f35b5082346107d657826003193601126107d65761074c6111bd565b918360243592338152600160205281812060018060a01b03861682526020522054908282106107855760208561072b85850387336115e2565b608490602086519162461bcd60e51b8352820152602560248201527f45524332303a2064656372656173656420616c6c6f77616e63652062656c6f77604482015264207a65726f60d81b6064820152fd5b80fd5b5091346107d657806003193601126107d65781519181845492600184811c918186169586156108ea575b60209687851081146108d7579087899a92868b999a9b5291826000146108ad575050600114610852575b858861084e8961083f848a038561123b565b5192828493845283019061117d565b0390f35b815286935091907f8a35acfbc15ff81a39ae7d344fd709f28e8600b4aa8c65c6b64bfe7fe36bd19b5b828410610895575050508201018161083f61084e3861082d565b8054848a01860152889550879490930192810161087b565b60ff19168882015294151560051b8701909401945085935061083f925061084e915038905061082d565b634e487b7160e01b835260228a52602483fd5b92607f1692610803565b5050346102705760203660031901126102705760209181906001600160a01b0361091c6111bd565b168152600d8452205415159051908152f35b5090346102345780600319360112610234576109486111bd565b906024359283159061095a82156116e4565b338652600d6020528483872054106109ec57670de0b6b3a764000091828602928684041417156109d95750610990908333611474565b61099b83833361176b565b519182526001600160a01b03169033907f99c01cd4f8275976ef33d24514b1694c8a9d5730d92e26996834343e09778e9990602090a36101df6118fc565b634e487b7160e01b865260119052602485fd5b606490602084519162461bcd60e51b83528201526013602482015272496e73756666696369656e742073686172657360681b6044820152fd5b50503461027057816003193601126102705760055490516001600160a01b039091168152602090f35b5050346102705781600319360112610270576020906009549051908152f35b509190346102705781600319360112610270578290600e54610a8e81611a4e565b92610a9b8351948561123b565b818452610aa782611a4e565b6020858101969091601f1901368837610abf84611a66565b92610ac985611a66565b9482600f5490811515905b838110610b40575050505050845195606087019060608852518091526080870197915b818110610b235787890384890152878061084e8989610b168e8b61137c565b918483039085015261137c565b82516001600160a01b031689529783019791830191600101610af7565b610b4c819b969b6111ee565b90546001600160a01b039160039190821b1c8216610b6a848a611a98565b52610b74836111ee565b9054911b1c168b52600d8752898b2054610b8e828a611a98565b528115610bec57610b9f8189611a98565b51606490818102918183041490151715610bd95790610bc184610bd193611aac565b610bcb828c611a98565b5261174f565b999499610ad4565b634e487b7160e01b8c526011865260248cfd5b610bd1908b610bc1565b5050346102705781600319360112610270576020906008549051908152f35b50503461027057816003193601126102705761084e90610c33611273565b905191829160208352602083019061117d565b50503461027057602036600319011261027057602090610c6c610c676111bd565b611acc565b9051908152f35b5034610234576020366003190112610234573591600e548310156107d65750610c9d6020926111ee565b905491519160018060a01b039160031b1c168152f35b83346107d657806003193601126107d657610ccc6113b0565b600580546001600160a01b0319811690915581906001600160a01b03167f8be0079c531659141344cd1fd0a4f28419497f9722a3daafe3b4186f6b6457e08280a380f35b5050346102705760203660031901126102705760209181906001600160a01b03610d386111bd565b16815280845220549051908152f35b50503461027057816003193601126102705760075490516001600160a01b039091168152602090f35b505034610270578160031936011261027057602090600f549051908152f35b5050346102705781600319360112610270576005546001600160a01b03168252600d602090815291819020549051908152f35b8284346107d657806003193601126107d6575060018060a01b038060075416906008549260095491600f54906005541690610e1e600b549360e0610e04611273565b918051998a998a5260208a015288015260e087019061117d565b936060860152608085015260a084015260c08301520390f35b50503461027057806003193601126102705761072b602092610e80610e5a6111bd565b338352600186528483206001600160a01b03821684528652918490205460243590611451565b90336115e2565b5050346102705781600319360112610270576005546001600160a01b03168252600d60209081529181902054600f54915191148152f35b5050346102705781600319360112610270576020905160128152f35b5082903461027057606036600319011261027057610ef66111bd565b610efe6111d8565b91846044359460018060a01b038416815260016020528181203382526020522054906000198203610f38575b60208661072b878787611474565b848210610f615750918391610f566020969561072b950333836115e2565b919394819350610f2a565b606490602087519162461bcd60e51b8352820152601d60248201527f45524332303a20696e73756666696369656e7420616c6c6f77616e63650000006044820152fd5b5050346102705781600319360112610270576020906002549051908152f35b5034610234576020366003190112610234577fce44720b7462058f31ddecab3daa427921e5975d9acb555f043682dada8665699160209135906110046113b0565b8160095551908152a180f35b505034610270578160031936011261027057600c5490516001600160a01b039091168152602090f35b50503461027057806003193601126102705760209061072b6110596111bd565b60243590336115e2565b5091346107d657806003193601126107d6578151918160035492600184811c9181861695861561114e575b60209687851081146108d7578899509688969785829a5291826000146111275750506001146110cb575b50505061084e929161083f91038561123b565b9190869350600383527fc2575a0e9e593c00f959f8c92f12db2869c3395a3b0502d05e2516446f71f85b5b82841061110f575050508201018161083f61084e6110b8565b8054848a0186015288955087949093019281016110f6565b60ff19168782015293151560051b8601909301935084925061083f915061084e90506110b8565b92607f169261108e565b849034610270578160031936011261027057600c546001600160a01b03168152602090f35b919082519283825260005b8481106111a9575050826000602080949584010152601f8019910116010190565b602081830181015184830182015201611188565b600435906001600160a01b03821682036111d357565b600080fd5b602435906001600160a01b03821682036111d357565b600e5481101561122557600e6000527fbb7b4a454dc3493923482f07822329ed19e8244eff582cc204f8554c3620c3fd0190600090565b634e487b7160e01b600052603260045260246000fd5b90601f8019910116810190811067ffffffffffffffff82111761125d57604052565b634e487b7160e01b600052604160045260246000fd5b604051906000600a5490600182811c90808416938415611354575b6020948584108114611340578388528794939291811561132057506001146112c1575b50506112bf9250038361123b565b565b90939150600a6000527fc65a7bb8d6351c1cf70c95a316cc6a92839c986682d98bc35f958f4883f9d2a8936000915b8183106113085750506112bf935082010138806112b1565b855488840185015294850194879450918301916112f0565b9150506112bf94925060ff191682840152151560051b82010138806112b1565b634e487b7160e01b85526022600452602485fd5b91607f169161128e565b346111d35760003660031901126111d3576020600f54604051908152f35b90815180825260208080930193019160005b82811061139c575050505090565b83518552938101939281019260010161138e565b6005546001600160a01b031633036113c457565b606460405162461bcd60e51b815260206004820152602060248201527f4f776e61626c653a2063616c6c6572206973206e6f7420746865206f776e65726044820152fd5b600580546001600160a01b039283166001600160a01b0319821681179092559091167f8be0079c531659141344cd1fd0a4f28419497f9722a3daafe3b4186f6b6457e0600080a3565b9190820180921161145e57565b634e487b7160e01b600052601160045260246000fd5b6001600160a01b0390811691821561158f571691821561153e576000828152806020526040812054918083106114ea57604082827fddf252ad1be2c89b69c2b068fc378daa952ba7f163c4a11628f55a4df523b3ef958760209652828652038282205586815220818154019055604051908152a3565b60405162461bcd60e51b815260206004820152602660248201527f45524332303a207472616e7366657220616d6f756e7420657863656564732062604482015265616c616e636560d01b6064820152608490fd5b60405162461bcd60e51b815260206004820152602360248201527f45524332303a207472616e7366657220746f20746865207a65726f206164647260448201526265737360e81b6064820152608490fd5b60405162461bcd60e51b815260206004820152602560248201527f45524332303a207472616e736665722066726f6d20746865207a65726f206164604482015264647265737360d81b6064820152608490fd5b6001600160a01b0390811691821561169357169182156116435760207f8c5be1e5ebec7d5bd14f71427d1e84f3dd0314c0f7b2291e5b200ac8c7c3b925918360005260018252604060002085600052825280604060002055604051908152a3565b60405162461bcd60e51b815260206004820152602260248201527f45524332303a20617070726f766520746f20746865207a65726f206164647265604482015261737360f01b6064820152608490fd5b60405162461bcd60e51b8152602060048201526024808201527f45524332303a20617070726f76652066726f6d20746865207a65726f206164646044820152637265737360e01b6064820152608490fd5b156116eb57565b60405162461bcd60e51b815260206004820152602360248201527f536861726520616d6f756e74206d75737420626520677265617465722074686160448201526206e20360ec1b6064820152608490fd5b8181029291811591840414171561145e57565b600019811461145e5760010190565b9190820391821161145e57565b9060018060a01b0380921692600091848352600d6020526040832061179183825461175e565b905583811690818452600d6020526040842054156118ba575b508252600d6020526117c160408320918254611451565b9055828152600d6020526040812054156117da57505050565b805b600e805490818310156118b2578491866117f5856111ee565b949054600395861b1c1614611815575050506118109061174f565b6117dc565b919550939260001992909183810190811161189e57906118488561183b611867946111ee565b9054908a1b1c16916111ee565b90919082549060031b9160018060a01b03809116831b921b1916179055565b835490811561188a5750019261187c846111ee565b81939154921b1b1916905555565b634e487b7160e01b81526031600452602490fd5b634e487b7160e01b83526011600452602483fd5b505050505050565b600e54680100000000000000008110156118e857906118488260016118e29401600e556111ee565b386117aa565b634e487b7160e01b85526041600452602485fd5b6005546001600160a01b039081166000805b600e548110156119645783611922826111ee565b90549060031b1c16838103611941575b5061193c9061174f565b61190e565b808352600d6020526040832054600f540361193257925050506112bf915061196a565b50505050565b60055490600061197982611408565b600754600854936001600160a01b03918216803b156106fd57829184606492819560405198899687956323b872dd60e01b8752166004860152169889602485015260448401525af19182611a22575b50906119fc57507ffc8f2d6996e2b706fa4cfb81cb10a53534b07f2010b2488488508f8751f55375602060405160648152a2565b807f71500f809d5718ccb8db09812c9cbd5fdb2c555bac0fd93d9f80b1f9eae4580191a2565b67ffffffffffffffff8111611a3a57604052386119c8565b634e487b7160e01b82526041600452602482fd5b67ffffffffffffffff811161125d5760051b60200190565b90611a7082611a4e565b611a7d604051918261123b565b8281528092611a8e601f1991611a4e565b0190602036910137565b80518210156112255760209160051b010190565b8115611ab6570490565b634e487b7160e01b600052601260045260246000fd5b600f54908115611b0c5760018060a01b0316600052600d6020526040600020549060648202918083046064149015171561145e57611b0991611aac565b90565b505060009056fea264697066735822122005ea8769e155d628c4e53225bfa4094078977e482e07b8fe62fa34e82173632d64736f6c63430008140033a2646970667358221220b5fbe258c29b1147500f706810a1e29602976a8798fd25764065c6984c2bd31d64736f6c63430008140033",
  "linkReferences": {},
  "deployedLinkReferences": {}
}