{
  "_format": "hh-sol-artifact-1",
  "contractName": "XnftyNFT",
  "sourceName": "contracts/XnftyNFT.sol",
  "abi": [
    {
      "inputs": [
        {
          "internalType": "string",
          "name": "initialBaseURI",
          "type": "string"
        },
        {
          "internalType": "string",
          "name": "_collectionDescription",
          "type": "string"
        }
      ],
      "stateMutability": "nonpayable",
      "type": "constructor"
    },
    {
      "anonymous": false,
      "inputs": [
        {
          "indexed": true,
          "internalType": "address",
          "name": "owner",
          "type": "address"
        },
        {
          "indexed": true,
          "internalType": "address",
          "name": "approved",
          "type": "address"
        },
        {
          "indexed": true,
          "internalType": "uint256",
          "name": "tokenId",
          "type": "uint256"
        }
      ],
      "name": "Approval",
      "type": "event"
    },
    {
      "anonymous": false,
      "inputs": [
        {
          "indexed": true,
          "internalType": "address",
          "name": "owner",
          "type": "address"
        },
        {
          "indexed": true,
          "internalType": "address",
          "name": "operator",
          "type": "address"
        },
        {
          "indexed": false,
          "internalType": "bool",
          "name": "approved",
          "type": "bool"
        }
      ],
      "name": "ApprovalForAll",
      "type": "event"
    },
    {
      "anonymous": false,
      "inputs": [
        {
          "indexed": false,
          "internalType": "uint256",
          "name": "_fromTokenId",
          "type": "uint256"
        },
        {
          "indexed": false,
          "internalType": "uint256",
          "name": "_toTokenId",
          "type": "uint256"
        }
      ],
      "name": "BatchMetadataUpdate",
      "type": "event"
    },
    {
      "anonymous": false,
      "inputs": [
        {
          "indexed": false,
          "internalType": "uint256",
          "name": "_tokenId",
          "type": "uint256"
        }
      ],
      "name": "MetadataUpdate",
      "type": "event"
    },
    {
      "anonymous": false,
      "inputs": [
        {
          "indexed": true,
          "internalType": "address",
          "name": "from",
          "type": "address"
        },
        {
          "indexed": true,
          "internalType": "address",
          "name": "to",
          "type": "address"
        },
        {
          "indexed": true,
          "internalType": "uint256",
          "name": "tokenId",
          "type": "uint256"
        }
      ],
      "name": "Transfer",
      "type": "event"
    },
    {
      "inputs": [],
      "name": "admin",
      "outputs": [
        {
          "internalType": "address",
          "name": "",
          "type": "address"
        }
      ],
      "stateMutability": "view",
      "type": "function"
    },
    {
      "inputs": [
        {
          "internalType": "address",
          "name": "to",
          "type": "address"
        },
        {
          "internalType": "uint256",
          "name": "tokenId",
          "type": "uint256"
        }
      ],
      "name": "approve",
      "outputs": [],
      "stateMutability": "nonpayable",
      "type": "function"
    },
    {
      "inputs": [
        {
          "internalType": "address",
          "name": "owner",
          "type": "address"
        }
      ],
      "name": "balanceOf",
      "outputs": [
        {
          "internalType": "uint256",
          "name": "",
          "type": "uint256"
        }
      ],
      "stateMutability": "view",
      "type": "function"
    },
    {
      "inputs": [],
      "name": "baseURI",
      "outputs": [
        {
          "internalType": "string",
          "name": "",
          "type": "string"
        }
      ],
      "stateMutability": "view",
      "type": "function"
    },
    {
      "inputs": [],
      "name": "collectionDescription",
      "outputs": [
        {
          "internalType": "string",
          "name": "",
          "type": "string"
        }
      ],
      "stateMutability": "view",
      "type": "function"
    },
    {
      "inputs": [
        {
          "internalType": "uint256",
          "name": "tokenId",
          "type": "uint256"
        }
      ],
      "name": "getApproved",
      "outputs": [
        {
          "internalType": "address",
          "name": "",
          "type": "address"
        }
      ],
      "stateMutability": "view",
      "type": "function"
    },
    {
      "inputs": [
        {
          "internalType": "address",
          "name": "owner",
          "type": "address"
        },
        {
          "internalType": "address",
          "name": "operator",
          "type": "address"
        }
      ],
      "name": "isApprovedForAll",
      "outputs": [
        {
          "internalType": "bool",
          "name": "",
          "type": "bool"
        }
      ],
      "stateMutability": "view",
      "type": "function"
    },
    {
      "inputs": [
        {
          "internalType": "address",
          "name": "to",
          "type": "address"
        }
      ],
      "name": "mint",
      "outputs": [],
      "stateMutability": "nonpayable",
      "type": "function"
    },
    {
      "inputs": [],
      "name": "name",
      "outputs": [
        {
          "internalType": "string",
          "name": "",
          "type": "string"
        }
      ],
      "stateMutability": "view",
      "type": "function"
    },
    {
      "inputs": [],
      "name": "nextTokenId",
      "outputs": [
        {
          "internalType": "uint256",
          "name": "",
          "type": "uint256"
        }
      ],
      "stateMutability": "view",
      "type": "function"
    },
    {
      "inputs": [
        {
          "internalType": "uint256",
          "name": "tokenId",
          "type": "uint256"
        }
      ],
      "name": "ownerOf",
      "outputs": [
        {
          "internalType": "address",
          "name": "",
          "type": "address"
        }
      ],
      "stateMutability": "view",
      "type": "function"
    },
    {
      "inputs": [
        {
          "internalType": "address",
          "name": "from",
          "type": "address"
        },
        {
          "internalType": "address",
          "name": "to",
          "type": "address"
        },
        {
          "internalType": "uint256",
          "name": "tokenId",
          "type": "uint256"
        }
      ],
      "name": "safeTransferFrom",
      "outputs": [],
      "stateMutability": "nonpayable",
      "type": "function"
    },
    {
      "inputs": [
        {
          "internalType": "address",
          "name": "from",
          "type": "address"
        },
        {
          "internalType": "address",
          "name": "to",
          "type": "address"
        },
        {
          "internalType": "uint256",
          "name": "tokenId",
          "type": "uint256"
        },
        {
          "internalType": "bytes",
          "name": "data",
          "type": "bytes"
        }
      ],
      "name": "safeTransferFrom",
      "outputs": [],
      "stateMutability": "nonpayable",
      "type": "function"
    },
    {
      "inputs": [
        {
          "internalType": "address",
          "name": "operator",
          "type": "address"
        },
        {
          "internalType": "bool",
          "name": "approved",
          "type": "bool"
        }
      ],
      "name": "setApprovalForAll",
      "outputs": [],
      "stateMutability": "nonpayable",
      "type": "function"
    },
    {
      "inputs": [
        {
          "internalType": "bytes4",
          "name": "interfaceId",
          "type": "bytes4"
        }
      ],
      "name": "supportsInterface",
      "outputs": [
        {
          "internalType": "bool",
          "name": "",
          "type": "bool"
        }
      ],
      "stateMutability": "view",
      "type": "function"
    },
    {
      "inputs": [],
      "name": "symbol",
      "outputs": [
        {
          "internalType": "string",
          "name": "",
          "type": "string"
        }
      ],
      "stateMutability": "view",
      "type": "function"
    },
    {
      "inputs": [
        {
          "internalType": "uint256",
          "name": "tokenId",
          "type": "uint256"
        }
      ],
      "name": "tokenURI",
      "outputs": [
        {
          "internalType": "string",
          "name": "",
          "type": "string"
        }
      ],
      "stateMutability": "view",
      "type": "function"
    },
    {
      "inputs": [
        {
          "internalType": "address",
          "name": "from",
          "type": "address"
        },
        {
          "internalType": "address",
          "name": "to",
          "type": "address"
        },
        {
          "internalType": "uint256",
          "name": "tokenId",
          "type": "uint256"
        }
      ],
      "name": "transferFrom",
      "outputs": [],
      "stateMutability": "nonpayable",
      "type": "function"
    }
  ],
  "bytecode": "0x6080604052346200061a5762001d52803803806200001d8162000655565b9283398101906040818303126200061a5780516001600160401b0391908281116200061a5783620000509183016200067b565b90602093848201518481116200061a576200006c92016200067b565b90620000776200061f565b91601783527f586e6674792046757475726520436f6c6c656374696f6e00000000000000000085840152620000ab6200061f565b6004808252631613919560e21b8783015284519386851162000605576000928354956001978888811c98168015620005fa575b8b891014620005005781908b601f998a8111620005a4575b50508b908983116001146200053d57879262000531575b5050600019600383901b1c191690881b1784555b8051908882116200051e5787548881811c9116801562000513575b8b8210146200050057908188849311620004ad575b508a90888311600114620004485786926200043c575b5050600019600383901b1c191690871b1786555b600880546001600160a01b0319163317905580519087821162000429576009548781811c911680156200041e575b8a8210146200040b57908187849311620003b7575b5089908783116001146200035157859262000345575b5050600019600383901b1c191690861b176009555b82519586116200033257600a54908582811c9216801562000327575b88831014620003145750838111620002cb575b50859285116001146200026257939450849291908362000256575b50501b916000199060031b1c191617600a555b6040516116649081620006ee8239f35b01519250388062000233565b600a815285812093958591601f198316915b88838310620002b0575050501062000296575b505050811b01600a5562000246565b015160001960f88460031b161c1916905538808062000287565b85870151885590960195948501948793509081019062000274565b600a82528682208480880160051c8201928989106200030a575b0160051c019085905b828110620002fe57505062000218565b838155018590620002ee565b92508192620002e5565b634e487b7160e01b835260229052602482fd5b91607f169162000205565b634e487b7160e01b825260419052602490fd5b015190503880620001d4565b600986528a86208994509190601f198416875b8d828210620003a0575050841162000386575b505050811b01600955620001e9565b015160001960f88460031b161c1916905538808062000377565b8385015186558c9790950194938401930162000364565b909150600985528985208780850160051c8201928c861062000401575b918a91869594930160051c01915b828110620003f2575050620001be565b8781558594508a9101620003e2565b92508192620003d4565b634e487b7160e01b855260228452602485fd5b90607f1690620001a9565b634e487b7160e01b845260418352602484fd5b01519050388062000167565b8987528b87208a94509190601f198416888e5b8282106200049557505084116200047b575b505050811b0186556200017b565b015160001960f88460031b161c191690553880806200046d565b8385015186558d979095019493840193018e6200045b565b9091508886528a86208880850160051c8201928d8610620004f6575b918b91869594930160051c01915b828110620004e757505062000151565b8881558594508b9101620004d7565b92508192620004c9565b634e487b7160e01b865260228552602486fd5b90607f16906200013c565b634e487b7160e01b855260418452602485fd5b0151905038806200010d565b8780528c88208b94509190601f198416898f5b8282106200058a575050841162000570575b505050811b01845562000121565b015160001960f88460031b161c1916905538808062000562565b8484015186558e9790950194938401939081019062000550565b90919250878052898289209181860160051c8301938610620005f0575b918c91869594930160051c01915b828110620005e157508d9150620000f6565b8981558594508c9101620005cf565b92508192620005c1565b97607f1697620000de565b604182634e487b7160e01b6000525260246000fd5b600080fd5b60408051919082016001600160401b038111838210176200063f57604052565b634e487b7160e01b600052604160045260246000fd5b6040519190601f01601f191682016001600160401b038111838210176200063f57604052565b919080601f840112156200061a5782516001600160401b0381116200063f57602090620006b1601f8201601f1916830162000655565b928184528282870101116200061a5760005b818110620006d957508260009394955001015290565b8581018301518482018401528201620006c356fe608060408181526004918236101561001657600080fd5b600092833560e01c91826301ffc9a714610dec5750816306fdde0314610d44578163081812fc14610d24578163095ea7b314610bb657816323b872dd14610b9157816342842e0e14610b5d5781636352211e14610b2c5781636a627842146106e85781636c0360eb1461063e57816370a08231146105a857816375794a3c1461058957816395d89b41146104e1578163a22cb46514610411578163b88d4fde1461035a578163c87b56dd1461024b57508063e2c6875c14610163578063e985e9c5146101165763f851a440146100eb57600080fd5b3461011257816003193601126101125760085490516001600160a01b039091168152602090f35b5080fd5b503461011257806003193601126101125760ff81602093610135610eb9565b61013d610ed4565b6001600160a01b0391821683526005875283832091168252855220549151911615158152f35b503461011257816003193601126101125780519082600a5461018481610f1f565b8085529160019180831690811561022357506001146101c6575b5050506101b0826101c2940383610f8b565b51918291602083526020830190610e94565b0390f35b9450600a85527fc65a7bb8d6351c1cf70c95a316cc6a92839c986682d98bc35f958f4883f9d2a85b82861061020b575050506101b08260206101c2958201019461019e565b805460208787018101919091529095019481016101ee565b6101c29750869350602092506101b094915060ff191682840152151560051b8201019461019e565b9190503461035657602091826003193601126103525735600081815260026020526040902054610285906001600160a01b03161515610fc9565b8352600682528083209281518094829080546102a081610f1f565b9182855260019188838216918260001461032b5750506001146102ed575b5050506101c29392916102d2910386610f8b565b81516102dd81610f59565b5251928284938452830190610e94565b8552868520879350859291905b82841061031357505050820101816102d26101c26102be565b8054848b0186015289955088949093019281016102fa565b60ff19168782015293151560051b860190930193508492506102d291506101c290506102be565b8380fd5b8280fd5b9190503461035657608036600319011261035657610376610eb9565b9061037f610ed4565b604435906064359467ffffffffffffffff861161040d573660238701121561040d57850135936103ba6103b186610fad565b94519485610f8b565b84845286366024878901011161040a576020866104029760246104079a0183890137860101526103f26103ed8433611152565b611079565b6103fd83838361121a565b61144a565b61112e565b80f35b80fd5b8680fd5b9190503461035657806003193601126103565761042c610eb9565b90602435918215158093036104dd576001600160a01b03169233841461049b5750338452600560205280842083855260205280842060ff1981541660ff8416179055519081527f17307eab39ab6107e8899845ad3d59bd9653f200f220920489ca2b5937696c3160203392a380f35b6020606492519162461bcd60e51b8352820152601960248201527f4552433732313a20617070726f766520746f2063616c6c6572000000000000006044820152fd5b8480fd5b50503461011257816003193601126101125780519082600180549161050583610f1f565b80865292828116908115610223575060011461052d575050506101b0826101c2940383610f8b565b94508085527fb10e2d527612073b26eecdfd717e6a320cf44b4afac2b0732d9fcbe2b7fa0cf65b828610610571575050506101b08260206101c2958201019461019e565b80546020878701810191909152909501948101610554565b5050346101125781600319360112610112576020906007549051908152f35b83915034610112576020366003190112610112576001600160a01b036105cc610eb9565b169081156105e95760208480858581526003845220549051908152f35b608490602085519162461bcd60e51b8352820152602960248201527f4552433732313a2061646472657373207a65726f206973206e6f7420612076616044820152683634b21037bbb732b960b91b6064820152fd5b5050346101125781600319360112610112578051908260095461066081610f1f565b80855291600191808316908115610223575060011461068b575050506101b0826101c2940383610f8b565b9450600985527f6e1540171b6c0c960b71a7020d9f60077f6af931a8bbf590da0223dacf75c7af5b8286106106d0575050506101b08260206101c2958201019461019e565b805460208787018101919091529095019481016106b3565b838334610112576020908160031936011261035657610705610eb9565b6008546001600160a01b0392919083163303610af3576007549282519061072b82610f59565b8682528216918215610ab2576107eb91856104029261076861076283600052600260205260018060a01b0360406000205416151590565b156114f6565b60008281526002602052604090205461078b906001600160a01b03161515610762565b858a526003895281878b2096600197888154019055818c5260028b52888c20816bffffffffffffffffffffffff60a01b8254161790558b7fddf252ad1be2c89b69c2b068fc378daa952ba7f163c4a11628f55a4df523b3ef8180a4611330565b6107f483611542565b9082519182868860095461080781610f1f565b90868116908115610a975750600114610a3e575b509081610834856005959461084f975194859201610e71565b0164173539b7b760d91b815203601a19810185520183610f8b565b6000848152600260205260409020546001600160a01b0316156109e457838652600685528286209180519767ffffffffffffffff89116109d157506108948354610f1f565b601f811161098b575b508590601f891160011461090d579780928192899a7ff8e1a15aba9398e019f0b49df1a4fde98ee17ae345cb5f6b5e2c27f5033e8ce79a94610902575b50501b916000199060031b1c19161790555b51908152a16108fc6007546114d1565b60075580f35b015192508a806108da565b838852868820909891601f198316895b818110610976575099837ff8e1a15aba9398e019f0b49df1a4fde98ee17ae345cb5f6b5e2c27f5033e8ce79a9b1061095d575b505050811b0190556108ec565b015160001960f88460031b161c19169055888080610950565b8b83015184559285019291890191890161091d565b838852868820601f8a0160051c810191888b106109c7575b601f0160051c019083905b8281106109bc57505061089d565b8981550183906109ae565b90915081906109a3565b634e487b7160e01b885260419052602487fd5b825162461bcd60e51b8152808801869052602e60248201527f45524337323155524953746f726167653a2055524920736574206f66206e6f6e60448201526d32bc34b9ba32b73a103a37b5b2b760911b6064820152608490fd5b60098b52905089857f6e1540171b6c0c960b71a7020d9f60077f6af931a8bbf590da0223dacf75c7af5b838310610a7e575050508201810161084f61081b565b80548984018601528895508b9490920191879101610a68565b60ff191685850152508015150283018201905061084f61081b565b606488878087519262461bcd60e51b845283015260248201527f4552433732313a206d696e7420746f20746865207a65726f20616464726573736044820152fd5b815162461bcd60e51b815280870185905260136024820152721bdb9b1e4818591b5a5b8818d85b881b5a5b9d606a1b6044820152606490fd5b82843461040a57602036600319011261040a5750610b4c60209235611015565b90516001600160a01b039091168152f35b5050346101125761040261040791610b7436610eea565b91925192610b8184610f59565b8684526103f26103ed8433611152565b833461040a57610407610ba336610eea565b91610bb16103ed8433611152565b61121a565b905034610356578160031936011261035657610bd0610eb9565b6024359290916001600160a01b0391908280610beb87611015565b16941693808514610cd757803314908115610cb8575b5015610c5057848652602052842080546001600160a01b03191683179055610c2883611015565b167f8c5be1e5ebec7d5bd14f71427d1e84f3dd0314c0f7b2291e5b200ac8c7c3b9258480a480f35b6020608492519162461bcd60e51b8352820152603d60248201527f4552433732313a20617070726f76652063616c6c6572206973206e6f7420746f60448201527f6b656e206f776e6572206f7220617070726f76656420666f7220616c6c0000006064820152fd5b90508652600560205281862033875260205260ff828720541638610c01565b506020608492519162461bcd60e51b8352820152602160248201527f4552433732313a20617070726f76616c20746f2063757272656e74206f776e656044820152603960f91b6064820152fd5b82843461040a57602036600319011261040a5750610b4c6020923561103b565b505034610112578160031936011261011257805190828054610d6581610f1f565b808552916001918083169081156102235750600114610d90575050506101b0826101c2940383610f8b565b80809650527f290decd9548b62a8d60345a988386fc84ba6bc95484008f6362f93160ef3e5635b828610610dd4575050506101b08260206101c2958201019461019e565b80546020878701810191909152909501948101610db7565b849134610356576020366003190112610356573563ffffffff60e01b81168091036103565760209250632483248360e11b8114908115610e2e575b5015158152f35b6380ac58cd60e01b811491508115610e60575b8115610e4f575b5083610e27565b6301ffc9a760e01b14905083610e48565b635b5e139f60e01b81149150610e41565b60005b838110610e845750506000910152565b8181015183820152602001610e74565b90602091610ead81518092818552858086019101610e71565b601f01601f1916010190565b600435906001600160a01b0382168203610ecf57565b600080fd5b602435906001600160a01b0382168203610ecf57565b6060906003190112610ecf576001600160a01b03906004358281168103610ecf57916024359081168103610ecf579060443590565b90600182811c92168015610f4f575b6020831014610f3957565b634e487b7160e01b600052602260045260246000fd5b91607f1691610f2e565b6020810190811067ffffffffffffffff821117610f7557604052565b634e487b7160e01b600052604160045260246000fd5b90601f8019910116810190811067ffffffffffffffff821117610f7557604052565b67ffffffffffffffff8111610f7557601f01601f191660200190565b15610fd057565b60405162461bcd60e51b815260206004820152601860248201527f4552433732313a20696e76616c696420746f6b656e20494400000000000000006044820152606490fd5b6000908152600260205260409020546001600160a01b0316611038811515610fc9565b90565b60008181526002602052604090205461105e906001600160a01b03161515610fc9565b6000908152600460205260409020546001600160a01b031690565b1561108057565b60405162461bcd60e51b815260206004820152602d60248201527f4552433732313a2063616c6c6572206973206e6f7420746f6b656e206f776e6560448201526c1c881bdc88185c1c1c9bdd9959609a1b6064820152608490fd5b60809060208152603260208201527f4552433732313a207472616e7366657220746f206e6f6e20455243373231526560408201527131b2b4bb32b91034b6b83632b6b2b73a32b960711b60608201520190565b1561113557565b60405162461bcd60e51b81528061114e600482016110db565b0390fd5b906001600160a01b03808061116684611015565b16931691838314938415611199575b508315611183575b50505090565b61118f9192935061103b565b161438808061117d565b909350600052600560205260406000208260005260205260ff604060002054169238611175565b156111c757565b60405162461bcd60e51b815260206004820152602560248201527f4552433732313a207472616e736665722066726f6d20696e636f72726563742060448201526437bbb732b960d91b6064820152608490fd5b906112429161122884611015565b6001600160a01b03939184169284929091831684146111c0565b169182156112df578161125f9161125886611015565b16146111c0565b7fddf252ad1be2c89b69c2b068fc378daa952ba7f163c4a11628f55a4df523b3ef60008481526004602052604081206bffffffffffffffffffffffff60a01b9081815416905583825260036020526040822060001981540190558482526040822060018154019055858252600260205284604083209182541617905580a4565b60405162461bcd60e51b8152602060048201526024808201527f4552433732313a207472616e7366657220746f20746865207a65726f206164646044820152637265737360e01b6064820152608490fd5b91929091803b156114415761137d936040519081630a85bd0160e11b9384825233600483015260009687602484015260448301526080606483015281878160209a8b966084830190610e94565b03926001600160a01b03165af1849181611401575b506113f0575050503d6000146113e8573d6113ac81610fad565b906113ba6040519283610f8b565b81528091833d92013e5b805191826113e55760405162461bcd60e51b81528061114e600482016110db565b01fd5b5060606113c4565b6001600160e01b0319161492509050565b9091508581813d831161143a575b6114198183610f8b565b810103126104dd57516001600160e01b0319811681036104dd579038611392565b503d61140f565b50915050600190565b92939190803b156114c75761149c946040518092630a85bd0160e11b9485835233600484015260018060a01b03809816602484015260448301526080606483015281806020998a956084830190610e94565b03916000988991165af184918161140157506113f0575050503d6000146113e8573d6113ac81610fad565b5050915050600190565b60001981146114e05760010190565b634e487b7160e01b600052601160045260246000fd5b156114fd57565b60405162461bcd60e51b815260206004820152601c60248201527f4552433732313a20746f6b656e20616c7265616479206d696e746564000000006044820152606490fd5b80156115ff57600081805b6115eb575061155b81610fad565b906115696040519283610f8b565b808252601f1961157882610fad565b013660208401375b809280156115e45760001982019182116114e0578193600a9260309084840682018092116114e057855111156115ce5760f81b6001600160f81b03191660001a908401601f01530491611580565b634e487b7160e01b600052603260045260246000fd5b5050905090565b906115f7600a916114d1565b91048061154d565b506040516040810181811067ffffffffffffffff821117610f755760405260018152600360fc1b60208201529056fea2646970667358221220a44bfc8d8bc44007875b0aaf4dafb5c964ca430c21c0afff3e6da9e3d48b01ad64736f6c63430008140033",
  "linkReferences": {},
  "deployedLinkReferences": {}
}