{
  "_format": "hh-sol-artifact-1",
  "contractName": "FractionalNFT",
  "sourceName": "contracts/FractionalNFT.sol",
  "abi": [
    {
      "inputs": [],
      "stateMutability": "nonpayable",
      "type": "constructor"
    },
    {
      "inputs": [
        {
          "internalType": "address",
          "name": "sender",
          "type": "address"
        },
        {
          "internalType": "uint256",
          "name": "balance",
          "type": "uint256"
        },
        {
          "internalType": "uint256",
          "name": "needed",
          "type": "uint256"
        },
        {
          "internalType": "uint256",
          "name": "tokenId",
          "type": "uint256"
        }
      ],
      "name": "ERC1155InsufficientBalance",
      "type": "error"
    },
    {
      "inputs": [
        {
          "internalType": "address",
          "name": "approver",
          "type": "address"
        }
      ],
      "name": "ERC1155InvalidApprover",
      "type": "error"
    },
    {
      "inputs": [
        {
          "internalType": "uint256",
          "name": "idsLength",
          "type": "uint256"
        },
        {
          "internalType": "uint256",
          "name": "valuesLength",
          "type": "uint256"
        }
      ],
      "name": "ERC1155InvalidArrayLength",
      "type": "error"
    },
    {
      "inputs": [
        {
          "internalType": "address",
          "name": "operator",
          "type": "address"
        }
      ],
      "name": "ERC1155InvalidOperator",
      "type": "error"
    },
    {
      "inputs": [
        {
          "internalType": "address",
          "name": "receiver",
          "type": "address"
        }
      ],
      "name": "ERC1155InvalidReceiver",
      "type": "error"
    },
    {
      "inputs": [
        {
          "internalType": "address",
          "name": "sender",
          "type": "address"
        }
      ],
      "name": "ERC1155InvalidSender",
      "type": "error"
    },
    {
      "inputs": [
        {
          "internalType": "address",
          "name": "operator",
          "type": "address"
        },
        {
          "internalType": "address",
          "name": "owner",
          "type": "address"
        }
      ],
      "name": "ERC1155MissingApprovalForAll",
      "type": "error"
    },
    {
      "inputs": [],
      "name": "ReentrancyGuardReentrantCall",
      "type": "error"
    },
    {
      "anonymous": false,
      "inputs": [
        {
          "indexed": true,
          "internalType": "address",
          "name": "account",
          "type": "address"
        },
        {
          "indexed": true,
          "internalType": "address",
          "name": "operator",
          "type": "address"
        },
        {
          "indexed": false,
          "internalType": "bool",
          "name": "approved",
          "type": "bool"
        }
      ],
      "name": "ApprovalForAll",
      "type": "event"
    },
    {
      "anonymous": false,
      "inputs": [
        {
          "indexed": true,
          "internalType": "address",
          "name": "operator",
          "type": "address"
        },
        {
          "indexed": true,
          "internalType": "address",
          "name": "from",
          "type": "address"
        },
        {
          "indexed": true,
          "internalType": "address",
          "name": "to",
          "type": "address"
        },
        {
          "indexed": false,
          "internalType": "uint256[]",
          "name": "ids",
          "type": "uint256[]"
        },
        {
          "indexed": false,
          "internalType": "uint256[]",
          "name": "values",
          "type": "uint256[]"
        }
      ],
      "name": "TransferBatch",
      "type": "event"
    },
    {
      "anonymous": false,
      "inputs": [
        {
          "indexed": true,
          "internalType": "address",
          "name": "operator",
          "type": "address"
        },
        {
          "indexed": true,
          "internalType": "address",
          "name": "from",
          "type": "address"
        },
        {
          "indexed": true,
          "internalType": "address",
          "name": "to",
          "type": "address"
        },
        {
          "indexed": false,
          "internalType": "uint256",
          "name": "id",
          "type": "uint256"
        },
        {
          "indexed": false,
          "internalType": "uint256",
          "name": "value",
          "type": "uint256"
        }
      ],
      "name": "TransferSingle",
      "type": "event"
    },
    {
      "anonymous": false,
      "inputs": [
        {
          "indexed": false,
          "internalType": "string",
          "name": "value",
          "type": "string"
        },
        {
          "indexed": true,
          "internalType": "uint256",
          "name": "id",
          "type": "uint256"
        }
      ],
      "name": "URI",
      "type": "event"
    },
    {
      "inputs": [
        {
          "internalType": "address",
          "name": "account",
          "type": "address"
        },
        {
          "internalType": "uint256",
          "name": "id",
          "type": "uint256"
        }
      ],
      "name": "balanceOf",
      "outputs": [
        {
          "internalType": "uint256",
          "name": "",
          "type": "uint256"
        }
      ],
      "stateMutability": "view",
      "type": "function"
    },
    {
      "inputs": [
        {
          "internalType": "address[]",
          "name": "accounts",
          "type": "address[]"
        },
        {
          "internalType": "uint256[]",
          "name": "ids",
          "type": "uint256[]"
        }
      ],
      "name": "balanceOfBatch",
      "outputs": [
        {
          "internalType": "uint256[]",
          "name": "",
          "type": "uint256[]"
        }
      ],
      "stateMutability": "view",
      "type": "function"
    },
    {
      "inputs": [
        {
          "internalType": "uint256",
          "name": "tokenId",
          "type": "uint256"
        },
        {
          "internalType": "uint256",
          "name": "amount",
          "type": "uint256"
        }
      ],
      "name": "buyShares",
      "outputs": [],
      "stateMutability": "payable",
      "type": "function"
    },
    {
      "inputs": [
        {
          "internalType": "uint256",
          "name": "totalShares",
          "type": "uint256"
        },
        {
          "internalType": "uint256",
          "name": "pricePerShare",
          "type": "uint256"
        },
        {
          "internalType": "string",
          "name": "metadataURI",
          "type": "string"
        }
      ],
      "name": "createFractionalNFT",
      "outputs": [
        {
          "internalType": "uint256",
          "name": "tokenId",
          "type": "uint256"
        }
      ],
      "stateMutability": "nonpayable",
      "type": "function"
    },
    {
      "inputs": [
        {
          "internalType": "uint256",
          "name": "",
          "type": "uint256"
        }
      ],
      "name": "fractionalTokens",
      "outputs": [
        {
          "internalType": "uint256",
          "name": "totalShares",
          "type": "uint256"
        },
        {
          "internalType": "uint256",
          "name": "availableShares",
          "type": "uint256"
        },
        {
          "internalType": "uint256",
          "name": "pricePerShare",
          "type": "uint256"
        },
        {
          "internalType": "address",
          "name": "creator",
          "type": "address"
        }
      ],
      "stateMutability": "view",
      "type": "function"
    },
    {
      "inputs": [
        {
          "internalType": "address",
          "name": "account",
          "type": "address"
        },
        {
          "internalType": "address",
          "name": "operator",
          "type": "address"
        }
      ],
      "name": "isApprovedForAll",
      "outputs": [
        {
          "internalType": "bool",
          "name": "",
          "type": "bool"
        }
      ],
      "stateMutability": "view",
      "type": "function"
    },
    {
      "inputs": [],
      "name": "nextTokenId",
      "outputs": [
        {
          "internalType": "uint256",
          "name": "",
          "type": "uint256"
        }
      ],
      "stateMutability": "view",
      "type": "function"
    },
    {
      "inputs": [
        {
          "internalType": "address",
          "name": "from",
          "type": "address"
        },
        {
          "internalType": "address",
          "name": "to",
          "type": "address"
        },
        {
          "internalType": "uint256[]",
          "name": "ids",
          "type": "uint256[]"
        },
        {
          "internalType": "uint256[]",
          "name": "values",
          "type": "uint256[]"
        },
        {
          "internalType": "bytes",
          "name": "data",
          "type": "bytes"
        }
      ],
      "name": "safeBatchTransferFrom",
      "outputs": [],
      "stateMutability": "nonpayable",
      "type": "function"
    },
    {
      "inputs": [
        {
          "internalType": "address",
          "name": "from",
          "type": "address"
        },
        {
          "internalType": "address",
          "name": "to",
          "type": "address"
        },
        {
          "internalType": "uint256",
          "name": "id",
          "type": "uint256"
        },
        {
          "internalType": "uint256",
          "name": "value",
          "type": "uint256"
        },
        {
          "internalType": "bytes",
          "name": "data",
          "type": "bytes"
        }
      ],
      "name": "safeTransferFrom",
      "outputs": [],
      "stateMutability": "nonpayable",
      "type": "function"
    },
    {
      "inputs": [
        {
          "internalType": "address",
          "name": "operator",
          "type": "address"
        },
        {
          "internalType": "bool",
          "name": "approved",
          "type": "bool"
        }
      ],
      "name": "setApprovalForAll",
      "outputs": [],
      "stateMutability": "nonpayable",
      "type": "function"
    },
    {
      "inputs": [
        {
          "internalType": "bytes4",
          "name": "interfaceId",
          "type": "bytes4"
        }
      ],
      "name": "supportsInterface",
      "outputs": [
        {
          "internalType": "bool",
          "name": "",
          "type": "bool"
        }
      ],
      "stateMutability": "view",
      "type": "function"
    },
    {
      "inputs": [
        {
          "internalType": "uint256",
          "name": "tokenId",
          "type": "uint256"
        },
        {
          "internalType": "uint256",
          "name": "newPrice",
          "type": "uint256"
        }
      ],
      "name": "updatePrice",
      "outputs": [],
      "stateMutability": "nonpayable",
      "type": "function"
    },
    {
      "inputs": [
        {
          "internalType": "uint256",
          "name": "id",
          "type": "uint256"
        }
      ],
      "name": "uri",
      "outputs": [
        {
          "internalType": "string",
          "name": "",
          "type": "string"
        }
      ],
      "stateMutability": "view",
      "type": "function"
    }
  ],
  "bytecode": "0x6080604052600060045534801561001557600080fd5b50604051806020016040528060008152506100358161004360201b60201c565b506001600381905550610378565b806002908161005291906102a6565b5050565b600081519050919050565b7f4e487b7100000000000000000000000000000000000000000000000000000000600052604160045260246000fd5b7f4e487b7100000000000000000000000000000000000000000000000000000000600052602260045260246000fd5b600060028204905060018216806100d757607f821691505b6020821081036100ea576100e9610090565b5b50919050565b60008190508160005260206000209050919050565b60006020601f8301049050919050565b600082821b905092915050565b6000600883026101527fffffffffffffffffffffffffffffffffffffffffffffffffffffffffffffffff82610115565b61015c8683610115565b95508019841693508086168417925050509392505050565b6000819050919050565b6000819050919050565b60006101a361019e61019984610174565b61017e565b610174565b9050919050565b6000819050919050565b6101bd83610188565b6101d16101c9826101aa565b848454610122565b825550505050565b600090565b6101e66101d9565b6101f18184846101b4565b505050565b5b818110156102155761020a6000826101de565b6001810190506101f7565b5050565b601f82111561025a5761022b816100f0565b61023484610105565b81016020851015610243578190505b61025761024f85610105565b8301826101f6565b50505b505050565b600082821c905092915050565b600061027d6000198460080261025f565b1980831691505092915050565b6000610296838361026c565b9150826002028217905092915050565b6102af82610056565b67ffffffffffffffff8111156102c8576102c7610061565b5b6102d282546100bf565b6102dd828285610219565b600060209050601f83116001811461031057600084156102fe578287015190505b610308858261028a565b865550610370565b601f19841661031e866100f0565b60005b8281101561034657848901518255600182019150602085019450602081019050610321565b86831015610363578489015161035f601f89168261026c565b8355505b6001600288020188555050505b505050505050565b612d19806103876000396000f3fe6080604052600436106100c15760003560e01c806375794a3c1161007f578063beebc5da11610059578063beebc5da1461029d578063e985e9c5146102b9578063f242432a146102f6578063f78f1f7c1461031f576100c1565b806375794a3c1461022057806382367b2d1461024b578063a22cb46514610274576100c1565b8062fdd58e146100c657806301ffc9a7146101035780630e89341c146101405780632eb2c2d61461017d5780634e1273f4146101a6578063627c830d146101e3575b600080fd5b3480156100d257600080fd5b506100ed60048036038101906100e89190611a85565b61035f565b6040516100fa9190611ad4565b60405180910390f35b34801561010f57600080fd5b5061012a60048036038101906101259190611b47565b6103b9565b6040516101379190611b8f565b60405180910390f35b34801561014c57600080fd5b5061016760048036038101906101629190611baa565b61049b565b6040516101749190611c67565b60405180910390f35b34801561018957600080fd5b506101a4600480360381019061019f9190611e86565b610540565b005b3480156101b257600080fd5b506101cd60048036038101906101c89190612018565b6105e8565b6040516101da919061214e565b60405180910390f35b3480156101ef57600080fd5b5061020a60048036038101906102059190612211565b6106f1565b6040516102179190611ad4565b60405180910390f35b34801561022c57600080fd5b5061023561087b565b6040516102429190611ad4565b60405180910390f35b34801561025757600080fd5b50610272600480360381019061026d9190612280565b610881565b005b34801561028057600080fd5b5061029b600480360381019061029691906122ec565b61097f565b005b6102b760048036038101906102b29190612280565b610995565b005b3480156102c557600080fd5b506102e060048036038101906102db919061232c565b610b69565b6040516102ed9190611b8f565b60405180910390f35b34801561030257600080fd5b5061031d6004803603810190610318919061236c565b610bfd565b005b34801561032b57600080fd5b5061034660048036038101906103419190611baa565b610ca5565b6040516103569493929190612412565b60405180910390f35b600080600083815260200190815260200160002060008473ffffffffffffffffffffffffffffffffffffffff1673ffffffffffffffffffffffffffffffffffffffff16815260200190815260200160002054905092915050565b60007fd9b67a26000000000000000000000000000000000000000000000000000000007bffffffffffffffffffffffffffffffffffffffffffffffffffffffff1916827bffffffffffffffffffffffffffffffffffffffffffffffffffffffff1916148061048457507f0e89341c000000000000000000000000000000000000000000000000000000007bffffffffffffffffffffffffffffffffffffffffffffffffffffffff1916827bffffffffffffffffffffffffffffffffffffffffffffffffffffffff1916145b80610494575061049382610cf5565b5b9050919050565b60606006600083815260200190815260200160002080546104bb90612486565b80601f01602080910402602001604051908101604052809291908181526020018280546104e790612486565b80156105345780601f1061050957610100808354040283529160200191610534565b820191906000526020600020905b81548152906001019060200180831161051757829003601f168201915b50505050509050919050565b600061054a610d5f565b90508073ffffffffffffffffffffffffffffffffffffffff168673ffffffffffffffffffffffffffffffffffffffff161415801561058f575061058d8682610b69565b155b156105d35780866040517fe237d9220000000000000000000000000000000000000000000000000000000081526004016105ca9291906124b7565b60405180910390fd5b6105e08686868686610d67565b505050505050565b6060815183511461063457815183516040517f5b05999100000000000000000000000000000000000000000000000000000000815260040161062b9291906124e0565b60405180910390fd5b6000835167ffffffffffffffff81111561065157610650611c8e565b5b60405190808252806020026020018201604052801561067f5781602001602082028036833780820191505090505b50905060005b84518110156106e6576106bc6106a48287610e5f90919063ffffffff16565b6106b78387610e7390919063ffffffff16565b61035f565b8282815181106106cf576106ce612509565b5b602002602001018181525050806001019050610685565b508091505092915050565b6000808411610735576040517f08c379a000000000000000000000000000000000000000000000000000000000815260040161072c90612584565b60405180910390fd5b60046000815480929190610748906125d3565b91905055905060405180608001604052808581526020018581526020018481526020013373ffffffffffffffffffffffffffffffffffffffff168152506005600083815260200190815260200160002060008201518160000155602082015181600101556040820151816002015560608201518160030160006101000a81548173ffffffffffffffffffffffffffffffffffffffff021916908373ffffffffffffffffffffffffffffffffffffffff1602179055509050508160066000838152602001908152602001600020908161082091906127c7565b50807f6bb7ff708619ba0610cba295a58592e0451dee2622938c8755667688daf3529b836040516108519190611c67565b60405180910390a261087430828660405180602001604052806000815250610e87565b9392505050565b60045481565b60006005600084815260200190815260200160002090508060030160009054906101000a900473ffffffffffffffffffffffffffffffffffffffff1673ffffffffffffffffffffffffffffffffffffffff163373ffffffffffffffffffffffffffffffffffffffff161461092a576040517f08c379a0000000000000000000000000000000000000000000000000000000008152600401610921906128e5565b60405180910390fd5b6000816001015411610971576040517f08c379a000000000000000000000000000000000000000000000000000000000815260040161096890612951565b60405180910390fd5b818160020181905550505050565b61099161098a610d5f565b8383610f20565b5050565b61099d611090565b60006005600084815260200190815260200160002090506000821180156109c8575080600101548211155b610a07576040517f08c379a00000000000000000000000000000000000000000000000000000000081526004016109fe906129bd565b60405180910390fd5b6000828260020154610a1991906129dd565b905080341015610a5e576040517f08c379a0000000000000000000000000000000000000000000000000000000008152600401610a5590612a6b565b60405180910390fd5b82826001016000828254610a729190612a8b565b92505081905550610a9530338686604051806020016040528060008152506110d6565b8160030160009054906101000a900473ffffffffffffffffffffffffffffffffffffffff1673ffffffffffffffffffffffffffffffffffffffff166108fc829081150290604051600060405180830381858888f19350505050158015610aff573d6000803e3d6000fd5b5080341115610b5b573373ffffffffffffffffffffffffffffffffffffffff166108fc8234610b2e9190612a8b565b9081150290604051600060405180830381858888f19350505050158015610b59573d6000803e3d6000fd5b505b5050610b656111e1565b5050565b6000600160008473ffffffffffffffffffffffffffffffffffffffff1673ffffffffffffffffffffffffffffffffffffffff16815260200190815260200160002060008373ffffffffffffffffffffffffffffffffffffffff1673ffffffffffffffffffffffffffffffffffffffff16815260200190815260200160002060009054906101000a900460ff16905092915050565b6000610c07610d5f565b90508073ffffffffffffffffffffffffffffffffffffffff168673ffffffffffffffffffffffffffffffffffffffff1614158015610c4c5750610c4a8682610b69565b155b15610c905780866040517fe237d922000000000000000000000000000000000000000000000000000000008152600401610c879291906124b7565b60405180910390fd5b610c9d86868686866110d6565b505050505050565b60056020528060005260406000206000915090508060000154908060010154908060020154908060030160009054906101000a900473ffffffffffffffffffffffffffffffffffffffff16905084565b60007f01ffc9a7000000000000000000000000000000000000000000000000000000007bffffffffffffffffffffffffffffffffffffffffffffffffffffffff1916827bffffffffffffffffffffffffffffffffffffffffffffffffffffffff1916149050919050565b600033905090565b600073ffffffffffffffffffffffffffffffffffffffff168473ffffffffffffffffffffffffffffffffffffffff1603610dd95760006040517f57f447ce000000000000000000000000000000000000000000000000000000008152600401610dd09190612abf565b60405180910390fd5b600073ffffffffffffffffffffffffffffffffffffffff168573ffffffffffffffffffffffffffffffffffffffff1603610e4b5760006040517f01a83514000000000000000000000000000000000000000000000000000000008152600401610e429190612abf565b60405180910390fd5b610e5885858585856111eb565b5050505050565b600060208202602084010151905092915050565b600060208202602084010151905092915050565b600073ffffffffffffffffffffffffffffffffffffffff168473ffffffffffffffffffffffffffffffffffffffff1603610ef95760006040517f57f447ce000000000000000000000000000000000000000000000000000000008152600401610ef09190612abf565b60405180910390fd5b600080610f06858561129d565b91509150610f186000878484876111eb565b505050505050565b600073ffffffffffffffffffffffffffffffffffffffff168273ffffffffffffffffffffffffffffffffffffffff1603610f925760006040517fced3e100000000000000000000000000000000000000000000000000000000008152600401610f899190612abf565b60405180910390fd5b80600160008573ffffffffffffffffffffffffffffffffffffffff1673ffffffffffffffffffffffffffffffffffffffff16815260200190815260200160002060008473ffffffffffffffffffffffffffffffffffffffff1673ffffffffffffffffffffffffffffffffffffffff16815260200190815260200160002060006101000a81548160ff0219169083151502179055508173ffffffffffffffffffffffffffffffffffffffff168373ffffffffffffffffffffffffffffffffffffffff167f17307eab39ab6107e8899845ad3d59bd9653f200f220920489ca2b5937696c31836040516110839190611b8f565b60405180910390a3505050565b6002600354036110cc576040517f3ee5aeb500000000000000000000000000000000000000000000000000000000815260040160405180910390fd5b6002600381905550565b600073ffffffffffffffffffffffffffffffffffffffff168473ffffffffffffffffffffffffffffffffffffffff16036111485760006040517f57f447ce00000000000000000000000000000000000000000000000000000000815260040161113f9190612abf565b60405180910390fd5b600073ffffffffffffffffffffffffffffffffffffffff168573ffffffffffffffffffffffffffffffffffffffff16036111ba5760006040517f01a835140000000000000000000000000000000000000000000000000000000081526004016111b19190612abf565b60405180910390fd5b6000806111c7858561129d565b915091506111d887878484876111eb565b50505050505050565b6001600381905550565b6111f7858585856112cd565b600073ffffffffffffffffffffffffffffffffffffffff168473ffffffffffffffffffffffffffffffffffffffff1614611296576000611235610d5f565b90506001845103611285576000611256600086610e7390919063ffffffff16565b9050600061126e600086610e7390919063ffffffff16565b905061127e838989858589611675565b5050611294565b611293818787878787611829565b5b505b5050505050565b60608060405191506001825283602083015260408201905060018152826020820152604081016040529250929050565b805182511461131757815181516040517f5b05999100000000000000000000000000000000000000000000000000000000815260040161130e9291906124e0565b60405180910390fd5b6000611321610d5f565b905060005b83518110156115305760006113448286610e7390919063ffffffff16565b9050600061135b8386610e7390919063ffffffff16565b9050600073ffffffffffffffffffffffffffffffffffffffff168873ffffffffffffffffffffffffffffffffffffffff161461148857600080600084815260200190815260200160002060008a73ffffffffffffffffffffffffffffffffffffffff1673ffffffffffffffffffffffffffffffffffffffff1681526020019081526020016000205490508181101561143057888183856040517f03dee4c50000000000000000000000000000000000000000000000000000000081526004016114279493929190612ada565b60405180910390fd5b81810360008085815260200190815260200160002060008b73ffffffffffffffffffffffffffffffffffffffff1673ffffffffffffffffffffffffffffffffffffffff16815260200190815260200160002081905550505b600073ffffffffffffffffffffffffffffffffffffffff168773ffffffffffffffffffffffffffffffffffffffff1614611523578060008084815260200190815260200160002060008973ffffffffffffffffffffffffffffffffffffffff1673ffffffffffffffffffffffffffffffffffffffff168152602001908152602001600020600082825461151b9190612b1f565b925050819055505b5050806001019050611326565b5060018351036115ef576000611550600085610e7390919063ffffffff16565b90506000611568600085610e7390919063ffffffff16565b90508573ffffffffffffffffffffffffffffffffffffffff168773ffffffffffffffffffffffffffffffffffffffff168473ffffffffffffffffffffffffffffffffffffffff167fc3d58168c5ae7397731d063d5bbf3d657854427343f4c083240f7aacaa2d0f6285856040516115e09291906124e0565b60405180910390a4505061166e565b8373ffffffffffffffffffffffffffffffffffffffff168573ffffffffffffffffffffffffffffffffffffffff168273ffffffffffffffffffffffffffffffffffffffff167f4a39dc06d4c0dbc64b70af90fd698a233a518aa5d07e595d983b8c0526c8f7fb8686604051611665929190612b53565b60405180910390a45b5050505050565b60008473ffffffffffffffffffffffffffffffffffffffff163b1115611821578373ffffffffffffffffffffffffffffffffffffffff1663f23a6e6187878686866040518663ffffffff1660e01b81526004016116d6959493929190612bdf565b6020604051808303816000875af192505050801561171257506040513d601f19601f8201168201806040525081019061170f9190612c4e565b60015b611796573d8060008114611742576040519150601f19603f3d011682016040523d82523d6000602084013e611747565b606091505b50600081510361178e57846040517f57f447ce0000000000000000000000000000000000000000000000000000000081526004016117859190612abf565b60405180910390fd5b805181602001fd5b63f23a6e6160e01b7bffffffffffffffffffffffffffffffffffffffffffffffffffffffff1916817bffffffffffffffffffffffffffffffffffffffffffffffffffffffff19161461181f57846040517f57f447ce0000000000000000000000000000000000000000000000000000000081526004016118169190612abf565b60405180910390fd5b505b505050505050565b60008473ffffffffffffffffffffffffffffffffffffffff163b11156119d5578373ffffffffffffffffffffffffffffffffffffffff1663bc197c8187878686866040518663ffffffff1660e01b815260040161188a959493929190612c7b565b6020604051808303816000875af19250505080156118c657506040513d601f19601f820116820180604052508101906118c39190612c4e565b60015b61194a573d80600081146118f6576040519150601f19603f3d011682016040523d82523d6000602084013e6118fb565b606091505b50600081510361194257846040517f57f447ce0000000000000000000000000000000000000000000000000000000081526004016119399190612abf565b60405180910390fd5b805181602001fd5b63bc197c8160e01b7bffffffffffffffffffffffffffffffffffffffffffffffffffffffff1916817bffffffffffffffffffffffffffffffffffffffffffffffffffffffff1916146119d357846040517f57f447ce0000000000000000000000000000000000000000000000000000000081526004016119ca9190612abf565b60405180910390fd5b505b505050505050565b6000604051905090565b600080fd5b600080fd5b600073ffffffffffffffffffffffffffffffffffffffff82169050919050565b6000611a1c826119f1565b9050919050565b611a2c81611a11565b8114611a3757600080fd5b50565b600081359050611a4981611a23565b92915050565b6000819050919050565b611a6281611a4f565b8114611a6d57600080fd5b50565b600081359050611a7f81611a59565b92915050565b60008060408385031215611a9c57611a9b6119e7565b5b6000611aaa85828601611a3a565b9250506020611abb85828601611a70565b9150509250929050565b611ace81611a4f565b82525050565b6000602082019050611ae96000830184611ac5565b92915050565b60007fffffffff0000000000000000000000000000000000000000000000000000000082169050919050565b611b2481611aef565b8114611b2f57600080fd5b50565b600081359050611b4181611b1b565b92915050565b600060208284031215611b5d57611b5c6119e7565b5b6000611b6b84828501611b32565b91505092915050565b60008115159050919050565b611b8981611b74565b82525050565b6000602082019050611ba46000830184611b80565b92915050565b600060208284031215611bc057611bbf6119e7565b5b6000611bce84828501611a70565b91505092915050565b600081519050919050565b600082825260208201905092915050565b60005b83811015611c11578082015181840152602081019050611bf6565b60008484015250505050565b6000601f19601f8301169050919050565b6000611c3982611bd7565b611c438185611be2565b9350611c53818560208601611bf3565b611c5c81611c1d565b840191505092915050565b60006020820190508181036000830152611c818184611c2e565b905092915050565b600080fd5b7f4e487b7100000000000000000000000000000000000000000000000000000000600052604160045260246000fd5b611cc682611c1d565b810181811067ffffffffffffffff82111715611ce557611ce4611c8e565b5b80604052505050565b6000611cf86119dd565b9050611d048282611cbd565b919050565b600067ffffffffffffffff821115611d2457611d23611c8e565b5b602082029050602081019050919050565b600080fd5b6000611d4d611d4884611d09565b611cee565b90508083825260208201905060208402830185811115611d7057611d6f611d35565b5b835b81811015611d995780611d858882611a70565b845260208401935050602081019050611d72565b5050509392505050565b600082601f830112611db857611db7611c89565b5b8135611dc8848260208601611d3a565b91505092915050565b600080fd5b600067ffffffffffffffff821115611df157611df0611c8e565b5b611dfa82611c1d565b9050602081019050919050565b82818337600083830152505050565b6000611e29611e2484611dd6565b611cee565b905082815260208101848484011115611e4557611e44611dd1565b5b611e50848285611e07565b509392505050565b600082601f830112611e6d57611e6c611c89565b5b8135611e7d848260208601611e16565b91505092915050565b600080600080600060a08688031215611ea257611ea16119e7565b5b6000611eb088828901611a3a565b9550506020611ec188828901611a3a565b945050604086013567ffffffffffffffff811115611ee257611ee16119ec565b5b611eee88828901611da3565b935050606086013567ffffffffffffffff811115611f0f57611f0e6119ec565b5b611f1b88828901611da3565b925050608086013567ffffffffffffffff811115611f3c57611f3b6119ec565b5b611f4888828901611e58565b9150509295509295909350565b600067ffffffffffffffff821115611f7057611f6f611c8e565b5b602082029050602081019050919050565b6000611f94611f8f84611f55565b611cee565b90508083825260208201905060208402830185811115611fb757611fb6611d35565b5b835b81811015611fe05780611fcc8882611a3a565b845260208401935050602081019050611fb9565b5050509392505050565b600082601f830112611fff57611ffe611c89565b5b813561200f848260208601611f81565b91505092915050565b6000806040838503121561202f5761202e6119e7565b5b600083013567ffffffffffffffff81111561204d5761204c6119ec565b5b61205985828601611fea565b925050602083013567ffffffffffffffff81111561207a576120796119ec565b5b61208685828601611da3565b9150509250929050565b600081519050919050565b600082825260208201905092915050565b6000819050602082019050919050565b6120c581611a4f565b82525050565b60006120d783836120bc565b60208301905092915050565b6000602082019050919050565b60006120fb82612090565b612105818561209b565b9350612110836120ac565b8060005b8381101561214157815161212888826120cb565b9750612133836120e3565b925050600181019050612114565b5085935050505092915050565b6000602082019050818103600083015261216881846120f0565b905092915050565b600067ffffffffffffffff82111561218b5761218a611c8e565b5b61219482611c1d565b9050602081019050919050565b60006121b46121af84612170565b611cee565b9050828152602081018484840111156121d0576121cf611dd1565b5b6121db848285611e07565b509392505050565b600082601f8301126121f8576121f7611c89565b5b81356122088482602086016121a1565b91505092915050565b60008060006060848603121561222a576122296119e7565b5b600061223886828701611a70565b935050602061224986828701611a70565b925050604084013567ffffffffffffffff81111561226a576122696119ec565b5b612276868287016121e3565b9150509250925092565b60008060408385031215612297576122966119e7565b5b60006122a585828601611a70565b92505060206122b685828601611a70565b9150509250929050565b6122c981611b74565b81146122d457600080fd5b50565b6000813590506122e6816122c0565b92915050565b60008060408385031215612303576123026119e7565b5b600061231185828601611a3a565b9250506020612322858286016122d7565b9150509250929050565b60008060408385031215612343576123426119e7565b5b600061235185828601611a3a565b925050602061236285828601611a3a565b9150509250929050565b600080600080600060a08688031215612388576123876119e7565b5b600061239688828901611a3a565b95505060206123a788828901611a3a565b94505060406123b888828901611a70565b93505060606123c988828901611a70565b925050608086013567ffffffffffffffff8111156123ea576123e96119ec565b5b6123f688828901611e58565b9150509295509295909350565b61240c81611a11565b82525050565b60006080820190506124276000830187611ac5565b6124346020830186611ac5565b6124416040830185611ac5565b61244e6060830184612403565b95945050505050565b7f4e487b7100000000000000000000000000000000000000000000000000000000600052602260045260246000fd5b6000600282049050600182168061249e57607f821691505b6020821081036124b1576124b0612457565b5b50919050565b60006040820190506124cc6000830185612403565b6124d96020830184612403565b9392505050565b60006040820190506124f56000830185611ac5565b6125026020830184611ac5565b9392505050565b7f4e487b7100000000000000000000000000000000000000000000000000000000600052603260045260246000fd5b7f536861726573206d75737420626520706f736974697665000000000000000000600082015250565b600061256e601783611be2565b915061257982612538565b602082019050919050565b6000602082019050818103600083015261259d81612561565b9050919050565b7f4e487b7100000000000000000000000000000000000000000000000000000000600052601160045260246000fd5b60006125de82611a4f565b91507fffffffffffffffffffffffffffffffffffffffffffffffffffffffffffffffff82036126105761260f6125a4565b5b600182019050919050565b60008190508160005260206000209050919050565b60006020601f8301049050919050565b600082821b905092915050565b60006008830261267d7fffffffffffffffffffffffffffffffffffffffffffffffffffffffffffffffff82612640565b6126878683612640565b95508019841693508086168417925050509392505050565b6000819050919050565b60006126c46126bf6126ba84611a4f565b61269f565b611a4f565b9050919050565b6000819050919050565b6126de836126a9565b6126f26126ea826126cb565b84845461264d565b825550505050565b600090565b6127076126fa565b6127128184846126d5565b505050565b5b818110156127365761272b6000826126ff565b600181019050612718565b5050565b601f82111561277b5761274c8161261b565b61275584612630565b81016020851015612764578190505b61277861277085612630565b830182612717565b50505b505050565b600082821c905092915050565b600061279e60001984600802612780565b1980831691505092915050565b60006127b7838361278d565b9150826002028217905092915050565b6127d082611bd7565b67ffffffffffffffff8111156127e9576127e8611c8e565b5b6127f38254612486565b6127fe82828561273a565b600060209050601f831160018114612831576000841561281f578287015190505b61282985826127ab565b865550612891565b601f19841661283f8661261b565b60005b8281101561286757848901518255600182019150602085019450602081019050612842565b868310156128845784890151612880601f89168261278d565b8355505b6001600288020188555050505b505050505050565b7f4e6f74207468652063726561746f720000000000000000000000000000000000600082015250565b60006128cf600f83611be2565b91506128da82612899565b602082019050919050565b600060208201905081810360008301526128fe816128c2565b9050919050565b7f4e6f20756e736f6c64207368617265732072656d61696e000000000000000000600082015250565b600061293b601783611be2565b915061294682612905565b602082019050919050565b6000602082019050818103600083015261296a8161292e565b9050919050565b7f4e6f7420656e6f7567682073686172657320617661696c61626c650000000000600082015250565b60006129a7601b83611be2565b91506129b282612971565b602082019050919050565b600060208201905081810360008301526129d68161299a565b9050919050565b60006129e882611a4f565b91506129f383611a4f565b9250828202612a0181611a4f565b91508282048414831517612a1857612a176125a4565b5b5092915050565b7f496e73756666696369656e742045746865722073656e74000000000000000000600082015250565b6000612a55601783611be2565b9150612a6082612a1f565b602082019050919050565b60006020820190508181036000830152612a8481612a48565b9050919050565b6000612a9682611a4f565b9150612aa183611a4f565b9250828203905081811115612ab957612ab86125a4565b5b92915050565b6000602082019050612ad46000830184612403565b92915050565b6000608082019050612aef6000830187612403565b612afc6020830186611ac5565b612b096040830185611ac5565b612b166060830184611ac5565b95945050505050565b6000612b2a82611a4f565b9150612b3583611a4f565b9250828201905080821115612b4d57612b4c6125a4565b5b92915050565b60006040820190508181036000830152612b6d81856120f0565b90508181036020830152612b8181846120f0565b90509392505050565b600081519050919050565b600082825260208201905092915050565b6000612bb182612b8a565b612bbb8185612b95565b9350612bcb818560208601611bf3565b612bd481611c1d565b840191505092915050565b600060a082019050612bf46000830188612403565b612c016020830187612403565b612c0e6040830186611ac5565b612c1b6060830185611ac5565b8181036080830152612c2d8184612ba6565b90509695505050505050565b600081519050612c4881611b1b565b92915050565b600060208284031215612c6457612c636119e7565b5b6000612c7284828501612c39565b91505092915050565b600060a082019050612c906000830188612403565b612c9d6020830187612403565b8181036040830152612caf81866120f0565b90508181036060830152612cc381856120f0565b90508181036080830152612cd78184612ba6565b9050969550505050505056fea264697066735822122063851ab9fec79bc7d2db0011556b122f138a3d106ebe043cf0630eec0e3f163764736f6c634300081c0033",
  "linkReferences": {},
  "deployedLinkReferences": {}
}