{"contracts/NFTFactory.sol":{"NFTFactory":{"abi":[{"anonymous":false,"inputs":[{"indexed":true,"internalType":"uint256","name":"collectionId","type":"uint256"},{"indexed":true,"internalType":"address","name":"collectionAddress","type":"address"},{"indexed":false,"internalType":"address","name":"owner","type":"address"},{"indexed":false,"internalType":"string","name":"metadataURI","type":"string"}],"name":"CollectionCreated","type":"event"},{"inputs":[{"internalType":"uint256","name":"","type":"uint256"}],"name":"collectionAddresses","outputs":[{"internalType":"address","name":"","type":"address"}],"stateMutability":"view","type":"function"},{"inputs":[{"internalType":"uint256","name":"","type":"uint256"}],"name":"collections","outputs":[{"internalType":"uint256","name":"collectionId","type":"uint256"},{"internalType":"string","name":"metadataURI","type":"string"},{"internalType":"address","name":"collectionAddress","type":"address"},{"internalType":"address","name":"owner","type":"address"},{"internalType":"uint256","name":"creationTime","type":"uint256"}],"stateMutability":"view","type":"function"},{"inputs":[{"internalType":"string","name":"name","type":"string"},{"internalType":"string","name":"symbol","type":"string"},{"internalType":"string","name":"metadataURI","type":"string"}],"name":"createCollection","outputs":[{"internalType":"uint256","name":"","type":"uint256"}],"stateMutability":"nonpayable","type":"function"},{"inputs":[],"name":"getAllCollectionAddresses","outputs":[{"internalType":"address[]","name":"","type":"address[]"}],"stateMutability":"view","type":"function"},{"inputs":[],"name":"getAllCollections","outputs":[{"components":[{"internalType":"uint256","name":"collectionId","type":"uint256"},{"internalType":"string","name":"metadataURI","type":"string"},{"internalType":"address","name":"collectionAddress","type":"address"},{"internalType":"address","name":"owner","type":"address"},{"internalType":"uint256","name":"creationTime","type":"uint256"}],"internalType":"struct NFTFactory.CollectionInfo[]","name":"","type":"tuple[]"}],"stateMutability":"view","type":"function"},{"inputs":[{"internalType":"uint256","name":"collectionId","type":"uint256"}],"name":"getCollection","outputs":[{"components":[{"internalType":"uint256","name":"collectionId","type":"uint256"},{"internalType":"string","name":"metadataURI","type":"string"},{"internalType":"address","name":"collectionAddress","type":"address"},{"internalType":"address","name":"owner","type":"address"},{"internalType":"uint256","name":"creationTime","type":"uint256"}],"internalType":"struct NFTFactory.CollectionInfo","name":"","type":"tuple"}],"stateMutability":"view","type":"function"},{"inputs":[],"name":"getCollectionCount","outputs":[{"internalType":"uint256","name":"","type":"uint256"}],"stateMutability":"view","type":"function"},{"inputs":[{"internalType":"address","name":"user","type":"address"}],"name":"getUserCollections","outputs":[{"internalType":"uint256[]","name":"","type":"uint256[]"}],"stateMutability":"view","type":"function"},{"inputs":[{"internalType":"address","name":"user","type":"address"}],"name":"getUserNFTShares","outputs":[{"components":[{"internalType":"uint256","name":"collectionId","type":"uint256"},{"internalType":"address","name":"collectionAddress","type":"address"},{"internalType":"uint256","name":"tokenId","type":"uint256"},{"internalType":"address","name":"fractionalContract","type":"address"},{"internalType":"uint256","name":"userShares","type":"uint256"},{"internalType":"string","name":"metadataURI","type":"string"}],"internalType":"struct NFTFactory.UserNFTInfo[]","name":"","type":"tuple[]"}],"stateMutability":"view","type":"function"},{"inputs":[{"internalType":"address","name":"user","type":"address"}],"name":"getUserOwnedCollections","outputs":[{"components":[{"internalType":"uint256","name":"collectionId","type":"uint256"},{"internalType":"string","name":"metadataURI","type":"string"},{"internalType":"address","name":"collectionAddress","type":"address"},{"internalType":"address","name":"owner","type":"address"},{"internalType":"uint256","name":"creationTime","type":"uint256"}],"internalType":"struct NFTFactory.CollectionInfo[]","name":"","type":"tuple[]"}],"stateMutability":"view","type":"function"},{"inputs":[{"internalType":"address","name":"","type":"address"},{"internalType":"uint256","name":"","type":"uint256"}],"name":"userCollections","outputs":[{"internalType":"uint256","name":"","type":"uint256"}],"stateMutability":"view","type":"function"}],"devdoc":{"details":"Factory contract to create NFT collections Fractional ownership is handled per NFT, not per collection","kind":"dev","methods":{"getUserNFTShares(address)":{"details":"Get simplified list of NFTs where a user has shares","params":{"user":"Address of the user"},"returns":{"_0":"UserNFTInfo[] Array of NFTs where the user has shares"}},"getUserOwnedCollections(address)":{"details":"Get all collections owned by a specific user","params":{"user":"Address of the user"},"returns":{"_0":"CollectionInfo[] Array of collections owned by the user"}}},"title":"NFTFactory","version":1},"evm":{"bytecode":{"linkReferences":{},"object":"6080806040523461001b576001600055615eeb90816100218239f35b600080fdfe60808060405260043610156200001457600080fd5b60003560e01c9081631c10106f1462000f6757508063428a61711462000f075780634765f4ea14620009395780635a1f3c2814620008a55780636804a95814620007e65780637014935e14620007165780639aa5ad8c1462000658578063abae977f1462000611578063b124dbc414620004d8578063ece86c21146200012b5763fdbda0ec14620000a457600080fd5b34620001265760203660031901126200012657600435600052600260205260406000208054620000d76001830162001202565b9160018060a01b0390600482600283015416926003830154169101549062000112604051958695865260a0602087015260a086019062001027565b926040850152606084015260808301520390f35b600080fd5b3462000126576060366003190112620001265767ffffffffffffffff60043581811162000126576200016290369060040162001178565b60243582811162000126576200017d90369060040162001178565b9060443583811162000126576200019990369060040162001178565b906001549260018401600155604051916149d28084019184831088841117620003e6578493620001e1620001f092620001ff94620014e4883960a0865260a086019062001027565b90848203602086015262001027565b82810360408401528562001027565b9033606082015260803091015203906000f0928315620004cc5760405162000227816200111b565b838152602081019183835260018060a01b038616604083015233606083015242608083015284600052600260205260406000209282518455518051918211620003e657620002796001850154620011c5565b601f811162000480575b50602090601f83116001146200040857918060049492608094600092620003fc575b50508160011b916000199060031b1c19161760018501555b6002840160018060a01b03604083015116906bffffffffffffffffffffffff60a01b9182825416179055600385019060018060a01b036060840151169082541617905501519101553360005260036020526040600020805490680100000000000000009182811015620003e6576200033b9160018201815562000fe9565b81549060031b9085821b91600019901b191617905560045490811015620003e6577f302eb65a1fbff180da0f4fa83befd29ff62c2bff6765fcc04e6a5c2ffade88cd620003db6020956200039784600188960160045562000f9b565b81549060031b9060018060a01b038416821b9160018060a01b03901b191617905560405191829133835260408984015260018060a01b031695604083019062001027565b0390a3604051908152f35b634e487b7160e01b600052604160045260246000fd5b015190508980620002a5565b90601f198316916001860160005260206000209260005b81811062000467575092600192859260809660049896106200044d575b505050811b016001850155620002bd565b015160001960f88460031b161c191690558980806200043c565b929360206001819287860151815501950193016200041f565b600185016000526020600020601f840160051c810160208510620004c4575b601f830160051c82018110620004b757505062000283565b600081556001016200049f565b50806200049f565b6040513d6000823e3d90fd5b34620001265760208060031936011262000126576001600160a01b0390816200050062000f84565b16600052600390818152604060002091604051808484829654938481520190600052846000209260005b86828210620005fa57505050620005449250038462001138565b620005508351620012fb565b9360005b8451811015620005e657806200056f620005e092876200137b565b5160005260028086526004604060002085604051936200058f856200111b565b82548552620005a16001840162001202565b8a860152820154166040840152858782015416606084015201546080820152620005cc82896200137b565b52620005d981886200137b565b5062001355565b62000554565b60405180620005f6888262001098565b0390f35b85548452600195860195899550930192016200052a565b3462000126576020366003190112620001265760043560045481101562000126576200063f60209162000f9b565b905460405160039290921b1c6001600160a01b03168152f35b34620001265760208060031936011262000126576001600160a01b036200067e62000f84565b1660005260038152604060002060405190818382549182815201908192600052846000209060005b8682821062000701578686620006bf8288038362001138565b604051928392818401908285525180915260408401929160005b828110620006e957505050500390f35b835185528695509381019392810192600101620006d9565b835485529093019260019283019201620006a6565b34620001265760003660031901126200012657604051806004548083526020809301809160046000527f8a35acfbc15ff81a39ae7d344fd709f28e8600b4aa8c65c6b64bfe7fe36bd19b9060005b86828210620007c85786866200077d8288038362001138565b604051928392818401908285525180915260408401929160005b828110620007a757505050500390f35b83516001600160a01b03168552869550938101939281019260010162000797565b83546001600160a01b03168552909301926001928301920162000764565b34620001265760003660031901126200012657600180546200080881620012fb565b9160005b828110620008245760405180620005f6868262001098565b806200089f9160005260026004602091808352604060002090604051936200084c856200111b565b825485526200085d88840162001202565b908501528101546001600160a01b0390811660408501526003820154166060840152015460808201526200089282876200137b565b52620005d981866200137b565b6200080c565b34620001265760203660031901126200012657620008c2620012b4565b506004356000526002602052620005f66040600020600460405191620008e8836200111b565b80548352620008fa6001820162001202565b602084015260018060a01b038060028301541660408501526003820154166060840152015460808201526040519182916020835260208301906200104e565b346200012657602036600319011262000126576200095662000f84565b6004546000805b82811062000d7357506200097181620012e2565b62000980604051918262001138565b818152601f196200099183620012e2565b0160005b81811062000d30575050600080600154905b8581108062000d26575b1562000c7657620009c28162000f9b565b905460009060005b85811062000c23575b5060405163e0391b0960e01b8152926000918491600491839160031b1c6001600160a01b03165afa6000928162000bf9575b5062000a1f575b505062000a199062001355565b620009a7565b9394919290959660005b875181108062000bef575b1562000bdb57608062000a48828a6200137b565b51015115158062000bb8575b62000a6b575b62000a659062001355565b62000a29565b6001600160a01b03606062000a81838b6200137b565b510151604051636f34d9d560e11b81526001600160a01b038d1660048201529160209183916024918391165afa6000918162000b7e575b5062000ac6575b5062000a5a565b801562000abf57819762000b769162000a659362000ae48962000f9b565b905460039190911b1c6001600160a01b0316918c602062000b2e62000b0a85846200137b565b5151946001600160a01b03606062000b2383876200137b565b51015116936200137b565b510151926040519462000b4186620010fe565b8d8652602086015260408501526060840152608083015260a082015262000b6982886200137b565b52620005d981876200137b565b969062000abf565b9091506020813d60201162000baf575b8162000b9d6020938362001138565b81010312620001265751908c62000ab8565b3d915062000b8e565b506001600160a01b03606062000bcf838b6200137b565b51015116151562000a54565b50969550909392509062000a198862000a0c565b5088871062000a34565b62000c1b9193503d806000833e62000c12818362001138565b81019062001390565b918a62000a05565b600081815260026020819052604090912001546001600160a01b039081169062000c4d8762000f9b565b90549060031b1c161462000c6c5762000c669062001355565b620009ca565b91506000620009d3565b836040518091602082016020835281518091526040830190602060408260051b8601019301916000905b82821062000cb057505050500390f35b9193600191939550602062000d158192603f198a8203018652885180518252858060a01b0380858301511685840152604082015160408401526060908183015116908301526080808201519083015260a0809101519160c08092820152019062001027565b960192019201859493919262000ca0565b50848310620009b1565b60209060405162000d4181620010fe565b600081526000838201526000604082015260606000818301526000608083015260a08201528282860101520162000995565b6000600462000d828362000f9b565b905460405163e0391b0960e01b81526001600160a01b0394909390928492839160031b1c86165afa6000918162000ee6575b5062000dce575b505062000dc89062001355565b6200095d565b90919360005b825181101562000ed557608062000dec82856200137b565b51015115158062000eb9575b62000e0f575b62000e099062001355565b62000dd4565b6024602085606062000e2285886200137b565b5101511660405192838092636f34d9d560e11b8252898d1660048301525afa6000918162000e7f575b5062000e59575b5062000dfe565b62000e66575b8762000e52565b9362000e7662000e099162001355565b94905062000e5f565b9091506020813d60201162000eb0575b8162000e9e6020938362001138565b81010312620001265751908962000e4b565b3d915062000e8f565b5083606062000ec983866200137b565b51015116151562000df8565b5093915062000dc890508562000dbb565b62000eff9192503d806000833e62000c12818362001138565b908762000db4565b3462000126576040366003190112620001265762000f2462000f84565b6001600160a01b0316600090815260036020526040902080546024359190821015620001265760209162000f589162000fe9565b90549060031b1c604051908152f35b346200012657600036600319011262000126576020906001548152f35b600435906001600160a01b03821682036200012657565b60045481101562000fd35760046000527f8a35acfbc15ff81a39ae7d344fd709f28e8600b4aa8c65c6b64bfe7fe36bd19b0190600090565b634e487b7160e01b600052603260045260246000fd5b805482101562000fd35760005260206000200190600090565b60005b838110620010165750506000910152565b818101518382015260200162001005565b90602091620010428151809281855285808601910162001002565b601f01601f1916010190565b908151815260808062001071602085015160a0602086015260a085019062001027565b9360018060a01b038060408301511660408601526060820151166060850152015191015290565b602080820190808352835180925260408301928160408460051b8301019501936000915b848310620010cd5750505050505090565b9091929394958480620010ed600193603f198682030187528a516200104e565b9801930193019194939290620010bc565b60c0810190811067ffffffffffffffff821117620003e657604052565b60a0810190811067ffffffffffffffff821117620003e657604052565b90601f8019910116810190811067ffffffffffffffff821117620003e657604052565b67ffffffffffffffff8111620003e657601f01601f191660200190565b81601f82011215620001265780359062001192826200115b565b92620011a2604051948562001138565b828452602083830101116200012657816000926020809301838601378301015290565b90600182811c92168015620011f7575b6020831014620011e157565b634e487b7160e01b600052602260045260246000fd5b91607f1691620011d5565b90604051918260008254926200121884620011c5565b9081845260019485811690816000146200128f575060011462001248575b5050620012469250038362001138565b565b9093915060005260209081600020936000915b81831062001276575050620012469350820101388062001236565b855488840185015294850194879450918301916200125b565b9150506200124694506020925060ff191682840152151560051b820101388062001236565b60405190620012c3826200111b565b6000608083828152606060208201528260408201528260608201520152565b67ffffffffffffffff8111620003e65760051b60200190565b906200130782620012e2565b62001316604051918262001138565b828152809262001329601f1991620012e2565b019060005b8281106200133b57505050565b60209062001348620012b4565b828285010152016200132e565b6000198114620013655760010190565b634e487b7160e01b600052601160045260246000fd5b805182101562000fd35760209160051b010190565b9060209081838203126200012657825167ffffffffffffffff938482116200012657019080601f8301121562000126578151620013cd81620012e2565b94604092620013df8451978862001138565b828752858088019360051b860101948186116200012657868101935b8685106200140e57505050505050505090565b84518481116200012657820160a09182601f198387030112620001265787519262001439846200111b565b8a8301518452888301518781116200012657830186603f8201121562000126578b8101519062001469826200115b565b91620014788c51938462001138565b808352888c8284010111620001265762001498918c8f8501910162001002565b848c01526060838101518a8601526080808501519094916001600160a01b03821682036200012657860152015192831515840362000126578a938493820152815201940193620013fb56fe608060405234620004de57620049d2803803806200001d81620004e3565b92833981019060a081830312620004de5780516001600160401b039290838111620004de57816200005091840162000509565b92602080840151828111620004de57836200006d91860162000509565b92604085015190838211620004de576200008991860162000509565b620000a560806200009d606088016200057b565b96016200057b565b93865192848411620004c8576000918254946001998a87811c97168015620004bd575b84881014620003be578190601f978881116200046a575b508490888311600114620003fd578692620003f1575b5050600019600383901b1c1916908a1b1783555b805190868211620003dd5789548a81811c91168015620003d2575b84821014620003be579081878493116200036b575b50839087831160011462000307578592620002fb575b5050600019600383901b1c191690891b1788555b6200016e3362000590565b876008558251948511620002e757600a548881811c91168015620002dc575b82821014620002c8578481116200027f575b5080938511600114620002125750620001f696909284928362000206575b50501b916000199060031b1c191617600a555b600b80546001600160a01b0319166001600160a01b039290921691909117905562000590565b6040516143f89081620005da8239f35b015192503880620001bd565b9693929091601f19841697600a845280842093905b8982106200026757505083620001f698106200024d575b505050811b01600a55620001d0565b015160001960f88460031b161c191690553880806200023e565b80878596829496860151815501950193019062000227565b600a83528183208580880160051c820192848910620002be575b0160051c019089905b828110620002b25750506200019f565b848155018990620002a2565b9250819262000299565b634e487b7160e01b83526022600452602483fd5b90607f16906200018d565b634e487b7160e01b82526041600452602482fd5b0151905038806200014f565b8b86528486208c94509190601f198416875b878282106200035457505084116200033a575b505050811b01885562000163565b015160001960f88460031b161c191690553880806200032c565b8385015186558f9790950194938401930162000319565b9091508a85528385208780850160051c820192868610620003b4575b918d91869594930160051c01915b828110620003a557505062000139565b8781558594508d910162000395565b9250819262000387565b634e487b7160e01b85526022600452602485fd5b90607f169062000124565b634e487b7160e01b84526041600452602484fd5b015190503880620000f5565b8680528587208d94509190601f198416885b888282106200044a575050841162000430575b505050811b01835562000109565b015160001960f88460031b161c1916905538808062000422565b91929395968291958786015181550195019301908e95949392916200040f565b9091508580528486208880850160051c820192878610620004b3575b918e91869594930160051c01915b828110620004a4575050620000df565b8881558594508e910162000494565b9250819262000486565b96607f1696620000c8565b634e487b7160e01b600052604160045260246000fd5b600080fd5b6040519190601f01601f191682016001600160401b03811183821017620004c857604052565b919080601f84011215620004de5782516001600160401b038111620004c8576020906200053f601f8201601f19168301620004e3565b92818452828287010111620004de5760005b8181106200056757508260009394955001015290565b858101830151848201840152820162000551565b51906001600160a01b0382168203620004de57565b600780546001600160a01b039283166001600160a01b0319821681179092559091167f8be0079c531659141344cd1fd0a4f28419497f9722a3daafe3b4186f6b6457e0600080a356fe60808060405260043610156200001457600080fd5b60003560e01c90816301ffc9a7146200170e5750806306fdde03146200165e578063081812fc146200163c578063095ea7b314620014b65780630af2c6ca14620013a057806323b872dd1462001484578063265aa62114620013ef57806342842e0e14620013c05780635427963714620013a0578063576f7ea714620012dd5780635894bd51146200124d5780635ba809651462000f2b5780636352211e1462000ef75780636d6a18f11462000dbb57806370a082311462000d1f578063715018a61462000cbe5780637400deab1462000c0b5780638da5cb5b1462000be057806395d89b411462000af1578063a22cb4651462000a19578063b88d4fde14620009ab578063c87b56dd146200091c578063d63843cd14620008f1578063e0391b0914620007d2578063e985e9c51462000776578063f2fde38b14620006ab5763fb37e883146200016457600080fd5b34620006a6576020366003190112620006a65760043567ffffffffffffffff8111620006a6576200019a90369060040162001a20565b620001a462001aa7565b60098054600181019091556007546001600160a01b031680156200066257600082815260026020526040902054829190620001ec906001600160a01b031615155b1562002001565b60008281526002602052604090205462000211906001600160a01b03161515620001e5565b8060005260036020526040600020600181540190558160005260026020526040600020816001600160601b0360a01b82541617905560007fddf252ad1be2c89b69c2b068fc378daa952ba7f163c4a11628f55a4df523b3ef8180a46000818152600260205260409020546001600160a01b03161562000606578060005260066020526040600020825167ffffffffffffffff81116200052b57620002b6825462001844565b601f8111620005b9575b50806020601f82116001146200054d5760009162000541575b508160011b916000199060031b1c19161790555b7ff8e1a15aba9398e019f0b49df1a4fde98ee17ae345cb5f6b5e2c27f5033e8ce76020604051838152a16040519162000326836200191f565b8183526020830192818452426040820152600060608201526000608082015282600052600c602052604060002093815185555193845167ffffffffffffffff81116200052b576200037b600183015462001844565b95601f8711620004df575b602096508690601f83116001146200046a576003939291600091836200045e575b505060001982851b1c1916600191821b17908201555b60408301516002820155019060018060a01b03606082015116825491608060ff60a01b910151151560a01b16916affffffffffffffffffffff60a81b16171790556200040b600d5462001fdb565b600d55817f411b345259a1495602cee098e5f501eb3412e0701c10b173ecd8ba7b585974a96200045360018060a01b036007541693604051918291888352888301906200179c565b0390a3604051908152f35b015190503880620003a7565b9060018401600052876000209160005b601f1985168110620004c7575091839160019360039695601f19811610620004ae575b505050811b016001820155620003bd565b015160001983871b60f8161c191690553880806200049d565b9192896001819286850151815501940192016200047a565b600183016000526020600020601f830160051c81016020841062000523575b601f890160051c820181106200051657505062000386565b60008155600101620004fe565b5080620004fe565b634e487b7160e01b600052604160045260246000fd5b905084015138620002d9565b91508260005260206000206000925b601f1983168410620005a0576001935082601f1981161062000586575b5050811b019055620002ed565b86015160001960f88460031b161c19169055388062000579565b868101518255602093840193600190920191016200055c565b826000526020600020601f830160051c81019160208410620005fb575b601f0160051c01905b818110620005ee5750620002c0565b60008155600101620005df565b9091508190620005d6565b60405162461bcd60e51b815260206004820152602e60248201527f45524337323155524953746f726167653a2055524920736574206f66206e6f6e60448201526d32bc34b9ba32b73a103a37b5b2b760911b6064820152608490fd5b606460405162461bcd60e51b815260206004820152602060248201527f4552433732313a206d696e7420746f20746865207a65726f20616464726573736044820152fd5b600080fd5b34620006a6576020366003190112620006a657620006c8620017de565b620006d262001aa7565b6001600160a01b039081169081156200072257600754826001600160601b0360a01b821617600755167f8be0079c531659141344cd1fd0a4f28419497f9722a3daafe3b4186f6b6457e0600080a3005b60405162461bcd60e51b815260206004820152602660248201527f4f776e61626c653a206e6577206f776e657220697320746865207a65726f206160448201526564647265737360d01b6064820152608490fd5b34620006a6576040366003190112620006a65762000793620017de565b6200079d620017f5565b9060018060a01b03809116600052600560205260406000209116600052602052602060ff604060002054166040519015158152f35b34620006a6576000366003190112620006a657620007f2600d54620020d7565b6009546000805b82811062000815576040518062000811868262001a41565b0390f35b80600052600c602081815260019162000835836040600020015462001844565b6200084f575b505050620008499062001fdb565b620007f9565b9160ff6003859693620008e79562000849976000528152620008966040600020916200089e6040519662000883886200191f565b8454885260405193848092870162001881565b038362001959565b8501526002810154604085015201546001600160a01b038116606084015260a01c1615156080820152620008d3828862002131565b52620008e0818762002131565b5062001fdb565b919085806200083b565b34620006a6576000366003190112620006a657600b546040516001600160a01b039091168152602090f35b34620006a6576020366003190112620006a65760043560008181526002602052604090205462000957906001600160a01b0316151562001b00565b6000526006602052620008116200097d6200098560406000206040519283809262001881565b038262001959565b600060405162000995816200193c565b526040519182916020835260208301906200179c565b34620006a6576080366003190112620006a657620009c8620017de565b620009d2620017f5565b6064359167ffffffffffffffff8311620006a65736602384011215620006a65762000a0c62000a17933690602481600401359101620019e4565b916044359162001c15565b005b34620006a6576040366003190112620006a65762000a36620017de565b60243590811515809203620006a6576001600160a01b03169033821462000aac57336000526005602052604060002082600052602052604060002060ff1981541660ff83161790556040519081527f17307eab39ab6107e8899845ad3d59bd9653f200f220920489ca2b5937696c3160203392a3005b60405162461bcd60e51b815260206004820152601960248201527f4552433732313a20617070726f766520746f2063616c6c6572000000000000006044820152606490fd5b34620006a6576000366003190112620006a6576040516000600180549062000b198262001844565b8085529181811690811562000bb7575060011462000b5a575b620008118462000b458186038262001959565b6040519182916020835260208301906200179c565b600081815292507fb10e2d527612073b26eecdfd717e6a320cf44b4afac2b0732d9fcbe2b7fa0cf65b82841062000b9e57505050810160200162000b458262000b32565b8054602085870181019190915290930192810162000b83565b60ff191660208087019190915292151560051b8501909201925062000b45915083905062000b32565b34620006a6576000366003190112620006a6576007546040516001600160a01b039091168152602090f35b34620006a6576000366003190112620006a6576040516000600a5462000c318162001844565b8084529060019081811690811562000bb7575060011462000c5f57620008118462000b458186038262001959565b600a600090815292507fc65a7bb8d6351c1cf70c95a316cc6a92839c986682d98bc35f958f4883f9d2a85b82841062000ca557505050810160200162000b458262000b32565b8054602085870181019190915290930192810162000c8a565b34620006a6576000366003190112620006a65762000cdb62001aa7565b600780546001600160a01b031981169091556000906001600160a01b03167f8be0079c531659141344cd1fd0a4f28419497f9722a3daafe3b4186f6b6457e08280a3005b34620006a6576020366003190112620006a6576001600160a01b0362000d44620017de565b16801562000d645760005260036020526020604060002054604051908152f35b60405162461bcd60e51b815260206004820152602960248201527f4552433732313a2061646472657373207a65726f206973206e6f7420612076616044820152683634b21037bbb732b960b91b6064820152608490fd5b34620006a6576000366003190112620006a6576009546000805b82811062000eaf575062000de990620020d7565b906000805b82811062000e06576040518062000811868262001a41565b806000526020600c81526040600020600381015460ff8160a01c16918262000e3e575b5050505062000e389062001fdb565b62000dee565b9162000ea49391600262000e389697946040519462000e5d866200191f565b815486526040519062000e798262000896816001870162001881565b860152015460408401526001600160a01b0316606083015215156080820152620008d3828862002131565b919085808062000e29565b80600052600c60205260ff60036040600020015460a01c1662000ede575b62000ed89062001fdb565b62000dd5565b9062000eee62000ed89162001fdb565b91905062000ecd565b34620006a6576020366003190112620006a657602062000f1960043562001b4d565b6040516001600160a01b039091168152f35b34620006a65760a0366003190112620006a65767ffffffffffffffff60248035906044359060043590606435858111620006a65762000f6f90369060040162001a20565b90608435868111620006a65762000f8b90369060040162001a20565b9562000f9662001aa7565b60008481526002602052604090205462000fbb906001600160a01b031615156200204e565b62000fc68462001b4d565b6001600160a01b0393903390851603620012095784600052602097600c895260ff60036040600020015460a01c16620011c557871562001175578615620011265785600052600c8952600160406000200191604051946122669081870195878710908711176200111257506200108d92620010588796959362001066936200215d89396101008088528701906200179c565b908582038d8701526200179c565b908960408501528860608501523060808501528760a085015283820360c085015262001881565b9060e03391015203906000f0801562001106577ffe60b756980476874d2f8cdfca824f0d687e2cc6d4c7735f696cba055eee6d66916040911694859484600052600c885260038360002001600160a01b876affffffffffffffffffffff60a81b83541617179055825191825287820152a3604051908152f35b6040513d6000823e3d90fd5b634e487b7160e01b60009081526041600452fd5b60405162461bcd60e51b8152600481018a90526022818601527f5368617265207072696365206d7573742062652067726561746572207468616e604482015261020360f41b6064820152608490fd5b60405162461bcd60e51b8152600481018a90526023818601527f546f74616c20736861726573206d75737420626520677265617465722074686160448201526206e20360ec1b6064820152608490fd5b60405162461bcd60e51b8152600481018a9052601a818601527f4e465420616c7265616479206672616374696f6e616c697a65640000000000006044820152606490fd5b60405162461bcd60e51b8152602060048201526019818501527f4e6f7420746865206f776e6572206f662074686973204e4654000000000000006044820152606490fd5b34620006a6576000366003190112620006a657600080600954905b8181106200129557606083600d549060018060a01b03600754169060405192835260208301526040820152f35b80600052600c60205260ff60036040600020015460a01c16620012c4575b620012be9062001fdb565b62001268565b91620012d4620012be9162001fdb565b929050620012b3565b34620006a657602080600319360112620006a657600435620012fe620020a9565b5080600052600c8252620013266200131e60016040600020015462001844565b15156200204e565b600052600c815260406000209060ff60036040519362001346856200191f565b8054855260405162001361816200097d816001860162001881565b8486015260028101546040860152015460018060a01b038116606085015260a01c1615156080830152620008116040519282849384528301906200197c565b34620006a6576000366003190112620006a6576020600d54604051908152f35b34620006a65762000a17620013d5366200180c565b9060405192620013e5846200193c565b6000845262001c15565b34620006a6576020366003190112620006a657600435600052600c602052604060002080546040519162001434836200142c816001850162001881565b038462001959565b60ff600360028301549201546200145e604051958695865260a0602087015260a08601906200179c565b60408501939093526001600160a01b038116606085015260a01c16151560808301520390f35b34620006a65762000a1762001499366200180c565b91620014b0620014aa843362001cba565b62001bb2565b62001d8b565b34620006a6576040366003190112620006a657620014d3620017de565b602435906001600160a01b038080620014ec8562001b4d565b16921691808314620015ed57803314908115620015c7575b50156200155c57600083815260046020526040902080546001600160a01b03191683179055620015348362001b4d565b167f8c5be1e5ebec7d5bd14f71427d1e84f3dd0314c0f7b2291e5b200ac8c7c3b925600080a4005b60405162461bcd60e51b815260206004820152603d60248201527f4552433732313a20617070726f76652063616c6c6572206973206e6f7420746f60448201527f6b656e206f776e6572206f7220617070726f76656420666f7220616c6c0000006064820152608490fd5b9050600052600560205260406000203360005260205260ff604060002054168462001504565b60405162461bcd60e51b815260206004820152602160248201527f4552433732313a20617070726f76616c20746f2063757272656e74206f776e656044820152603960f91b6064820152608490fd5b34620006a6576020366003190112620006a657602062000f1960043562001b72565b34620006a6576000366003190112620006a65760405160008054620016838162001844565b8084529060019081811690811562000bb75750600114620016b157620008118462000b458186038262001959565b600080805292507f290decd9548b62a8d60345a988386fc84ba6bc95484008f6362f93160ef3e5635b828410620016f557505050810160200162000b458262000b32565b80546020858701810191909152909301928101620016da565b34620006a6576020366003190112620006a6576004359063ffffffff60e01b8216809203620006a657602091632483248360e11b811490811562001754575b5015158152f35b6380ac58cd60e01b8114915081156200178a575b811562001778575b50836200174d565b6301ffc9a760e01b1490508362001770565b635b5e139f60e01b8114915062001768565b919082519283825260005b848110620017c9575050826000602080949584010152601f8019910116010190565b602081830181015184830182015201620017a7565b600435906001600160a01b0382168203620006a657565b602435906001600160a01b0382168203620006a657565b6060906003190112620006a6576001600160a01b03906004358281168103620006a657916024359081168103620006a6579060443590565b90600182811c9216801562001876575b60208310146200186057565b634e487b7160e01b600052602260045260246000fd5b91607f169162001854565b9060009291805491620018948362001844565b918282526001938481169081600014620018fb5750600114620018b8575b50505050565b90919394506000526020928360002092846000945b838610620018e6575050505001019038808080620018b2565b805485870183015294019385908201620018cd565b9294505050602093945060ff191683830152151560051b01019038808080620018b2565b60a0810190811067ffffffffffffffff8211176200052b57604052565b6020810190811067ffffffffffffffff8211176200052b57604052565b90601f8019910116810190811067ffffffffffffffff8211176200052b57604052565b90815181526080806200199f602085015160a0602086015260a08501906200179c565b604080860151908501526060808601516001600160a01b031690850152930151151591015290565b67ffffffffffffffff81116200052b57601f01601f191660200190565b929192620019f282620019c7565b9162001a02604051938462001959565b829481845281830111620006a6578281602093846000960137010152565b9080601f83011215620006a65781602062001a3e93359101620019e4565b90565b602080820190808352835180925260408301928160408460051b8301019501936000915b84831062001a765750505050505090565b909192939495848062001a96600193603f198682030187528a516200197c565b980193019301919493929062001a65565b6007546001600160a01b0316330362001abc57565b606460405162461bcd60e51b815260206004820152602060248201527f4f776e61626c653a2063616c6c6572206973206e6f7420746865206f776e65726044820152fd5b1562001b0857565b60405162461bcd60e51b815260206004820152601860248201527f4552433732313a20696e76616c696420746f6b656e20494400000000000000006044820152606490fd5b6000908152600260205260409020546001600160a01b031662001a3e81151562001b00565b60008181526002602052604090205462001b97906001600160a01b0316151562001b00565b6000908152600460205260409020546001600160a01b031690565b1562001bba57565b60405162461bcd60e51b815260206004820152602d60248201527f4552433732313a2063616c6c6572206973206e6f7420746f6b656e206f776e6560448201526c1c881bdc88185c1c1c9bdd9959609a1b6064820152608490fd5b9062001c4093929162001c2d620014aa843362001cba565b62001c3a83838362001d8b565b62001ea5565b1562001c4857565b60405162461bcd60e51b81528062001c636004820162001c67565b0390fd5b60809060208152603260208201527f4552433732313a207472616e7366657220746f206e6f6e20455243373231526560408201527131b2b4bb32b91034b6b83632b6b2b73a32b960711b60608201520190565b906001600160a01b03808062001cd08462001b4d565b1693169183831493841562001d08575b50831562001cef575b50505090565b62001cfd9192935062001b72565b161438808062001ce9565b909350600052600560205260406000208260005260205260ff60406000205416923862001ce0565b1562001d3857565b60405162461bcd60e51b815260206004820152602560248201527f4552433732313a207472616e736665722066726f6d20696e636f72726563742060448201526437bbb732b960d91b6064820152608490fd5b9062001db79162001d9c8462001b4d565b6001600160a01b039391841692849290918316841462001d30565b1691821562001e54578162001dd99162001dd18662001b4d565b161462001d30565b7fddf252ad1be2c89b69c2b068fc378daa952ba7f163c4a11628f55a4df523b3ef60008481526004602052604081206001600160601b0360a01b9081815416905583825260036020526040822060001981540190558482526040822060018154019055858252600260205284604083209182541617905580a4565b60405162461bcd60e51b8152602060048201526024808201527f4552433732313a207472616e7366657220746f20746865207a65726f206164646044820152637265737360e01b6064820152608490fd5b92939190803b1562001fd15762001efa946040518092630a85bd0160e11b9485835233600484015260018060a01b03809816602484015260448301526080606483015281806020998a9560848301906200179c565b03916000988991165af184918162001f86575b5062001f75575050503d60001462001f6c573d62001f2b81620019c7565b9062001f3b604051928362001959565b81528091833d92013e5b8051918262001f695760405162461bcd60e51b81528062001c636004820162001c67565b01fd5b50606062001f45565b6001600160e01b0319161492509050565b9091508581813d831162001fc9575b62001fa1818362001959565b8101031262001fc557516001600160e01b03198116810362001fc557903862001f0d565b8480fd5b503d62001f95565b5050915050600190565b600019811462001feb5760010190565b634e487b7160e01b600052601160045260246000fd5b156200200957565b60405162461bcd60e51b815260206004820152601c60248201527f4552433732313a20746f6b656e20616c7265616479206d696e746564000000006044820152606490fd5b156200205657565b60405162461bcd60e51b815260206004820152601260248201527113919508191bd95cc81b9bdd08195e1a5cdd60721b6044820152606490fd5b67ffffffffffffffff81116200052b5760051b60200190565b60405190620020b8826200191f565b6000608083828152606060208201528260408201528260608201520152565b90620020e38262002090565b620020f2604051918262001959565b828152809262002105601f199162002090565b019060005b8281106200211757505050565b60209062002124620020a9565b828285010152016200210a565b8051821015620021465760209160051b010190565b634e487b7160e01b600052603260045260246000fdfe60406080815234620006785762002266803803806200001e816200067d565b928339810161010082820312620006785781516001600160401b03929083811162000678578262000051918301620006a3565b90602092838201518581116200067857816200006f918401620006a3565b908683015190606084015190620000896080860162000715565b9760a08601519160c0870151908282116200067857620000b260e091620000ba938a01620006a3565b970162000715565b92875196828811620005625760039182549860019a8b8b811c9b1680156200066d575b8d8c101462000657578c9a8291601f9e8f92838111620005f4575b50508c918311600114620005845760009262000578575b505060001982861b1c1916908b1b1783555b8751848111620005625760049889548c81811c9116801562000557575b8c821014620005425782918c8f92838111620004df575b50508c9183116001146200046f5760009262000463575b505060001982861b1c1916908b1b1788555b62000189336200072a565b8960065560018060a01b03948560018060a01b03199d168d600754161760075560085560095580519283116200044e57600a548981811c9116801562000443575b898210146200042e5790818b85949311620003d5575b5088908b841160011462000368576000936200035c575b505082891b92600019911b1c191617600a555b42600b55670de0b6b3a764000090818402918483041484151715620003065782169687156200031b5750600254818101809111620003065760007fddf252ad1be2c89b69c2b068fc378daa952ba7f163c4a11628f55a4df523b3ef876200028c95948b946002558484528382528d84208181540190558d51908152a36200072a565b84600052600c83528660002055600d549268010000000000000000841015620002f157830180600d55831015620002dc5750600d600052600020019182541617905551611af29081620007748239f35b603290634e487b7160e01b6000525260246000fd5b604182634e487b7160e01b6000525260246000fd5b601185634e487b7160e01b6000525260246000fd5b84606491878c519262461bcd60e51b845283015260248201527f45524332303a206d696e7420746f20746865207a65726f2061646472657373006044820152fd5b015191503880620001f7565b91908a9450601f19841692600a6000528a6000209360005b8c828210620003be5750508511620003a3575b50505050811b01600a556200020a565b01519060f884600019921b161c191690553880808062000393565b8385015187558e9890960195938401930162000380565b90919250600a600052886000208b80860160051c8201928b871062000424575b918c9187969594930160051c01915b82811062000414575050620001e0565b600081558695508c910162000404565b92508192620003f5565b602288634e487b7160e01b6000525260246000fd5b90607f1690620001ca565b604187634e487b7160e01b6000525260246000fd5b0151905038806200016c565b60008c81528d81208f9550929190601f198516908f5b828210620004be5750508411620004a5575b505050811b0188556200017e565b015160001983881b60f8161c1916905538808062000497565b91929395968291958786015181550195019301908f95949392918f62000485565b919350918c600052826000209181860160051c830193861062000538575b8f9092828796949593950160051c01915b8281106200052057508e915062000155565b600091939550809294505501918e918e85946200050e565b92508192620004fd565b60228b634e487b7160e01b6000525260246000fd5b90607f16906200013e565b634e487b7160e01b600052604160045260246000fd5b0151905038806200010f565b60008781528d81208f9550929190601f198516908f5b828210620005d35750508411620005ba575b505050811b01835562000121565b015160001983881b60f8161c19169055388080620005ac565b91929395968291958786015181550195019301908f95949392918f6200059a565b9193509187600052826000209181860160051c83019386106200064d575b8f9092828796949593950160051c01915b8281106200063557508e9150620000f8565b600091939550809294505501918e918e859462000623565b9250819262000612565b634e487b7160e01b600052602260045260246000fd5b9a607f169a620000dd565b600080fd5b6040519190601f01601f191682016001600160401b038111838210176200056257604052565b919080601f84011215620006785782516001600160401b0381116200056257602090620006d9601f8201601f191683016200067d565b92818452828287010111620006785760005b8181106200070157508260009394955001015290565b8581018301518482018401528201620006eb565b51906001600160a01b03821682036200067857565b600580546001600160a01b039283166001600160a01b0319821681179092559091167f8be0079c531659141344cd1fd0a4f28419497f9722a3daafe3b4186f6b6457e0600080a356fe6080604081815260048036101561001557600080fd5b600092833560e01c90816306fdde0314610f1357508063095ea7b314610ee957806316b6024914610e9c57806318160ddd14610e7d5780632279a97014610d2457806323b872dd14610c5a578063313ce56714610c3e5780633950935114610bee5780634d21e01914610b6f5780636588103b14610b4657806370a0823114610b0f578063715018a614610ab25780637427a40c14610a7257806375cbf75d14610a455780637b85b13214610a145780637e830574146109f5578063817bc0cb146109685780638477d9f3146107d657806387269729146107b75780638da5cb5b1461078e5780638fcb4e5b146106cb57806395d89b41146105b0578063a457c2d714610509578063a9059cbb146104d8578063d1a93d18146102ce578063d5002f2e146102a5578063d8270dce14610286578063dd62ed3e1461023d578063de69b3aa146102015763f2fde38b1461016d57600080fd5b346101fd5760203660031901126101fd57610186611047565b9161018f61121c565b6001600160a01b038316156101ab57836101a884611274565b80f35b906020608492519162461bcd60e51b8352820152602660248201527f4f776e61626c653a206e6577206f776e657220697320746865207a65726f206160448201526564647265737360d01b6064820152fd5b8280fd5b5050346102395760203660031901126102395760209181906001600160a01b03610229611047565b168152600c845220549051908152f35b5080fd5b5050346102395780600319360112610239578060209261025b611047565b610263611062565b6001600160a01b0391821683526001865283832091168252845220549051908152f35b505034610239578160031936011261023957602090600b549051908152f35b505034610239578160031936011261023957602090670de0b6b3a7640000600254049051908152f35b50906020806003193601126104d4578235926102e861144d565b600954801561049c576103078580159261030284156113e2565b61143a565b340361046357670de0b6b3a764000090818602918683041417156104505761032e85611501565b6001600160a01b038116929091908315610417578388528785528186892054106103d4575086809361036f8883956103688596338361183f565b33906115ba565b819034156103ca575b3491f1156103c057907f630b54f21d1c5ae41c4633ad96e8c15ce15665365eded6a38476ffa71c8ace6c91815193845234908401523392a26103b8611773565b600160065580f35b81513d85823e3d90fd5b6108fc9150610378565b855162461bcd60e51b8152908101859052601e60248201527f53656c6c65722068617320696e73756666696369656e742073686172657300006044820152606490fd5b855162461bcd60e51b815290810185905260136024820152724e6f2073686172657320617661696c61626c6560681b6044820152606490fd5b634e487b7160e01b865260118252602486fd5b50915162461bcd60e51b8152918201526014602482015273125b98dbdc9c9958dd0811551208185b5bdd5b9d60621b6044820152606490fd5b50915162461bcd60e51b815291820152601360248201527214da185c99481c1c9a58d9481b9bdd081cd95d606a1b6044820152606490fd5b8380fd5b5050346102395780600319360112610239576020906105026104f8611047565b602435903361183f565b5160018152f35b5082346105ad57826003193601126105ad57610523611047565b918360243592338152600160205281812060018060a01b038616825260205220549082821061055c5760208561050285850387336112e0565b608490602086519162461bcd60e51b8352820152602560248201527f45524332303a2064656372656173656420616c6c6f77616e63652062656c6f77604482015264207a65726f60d81b6064820152fd5b80fd5b5091346105ad57806003193601126105ad5781519181845492600184811c918186169586156106c1575b60209687851081146106ae579087899a92868b999a9b529182600014610684575050600114610629575b858861062589610616848a03856110c5565b51928284938452830190611007565b0390f35b815286935091907f8a35acfbc15ff81a39ae7d344fd709f28e8600b4aa8c65c6b64bfe7fe36bd19b5b82841061066c575050508201018161061661062538610604565b8054848a018601528895508794909301928101610652565b60ff19168882015294151560051b8701909401945085935061061692506106259150389050610604565b634e487b7160e01b835260228a52602483fd5b92607f16926105da565b5090346101fd57806003193601126101fd576106e5611047565b90602435928315906106f782156113e2565b338652600c60205261070e858488205410156114a3565b670de0b6b3a7640000918286029286840414171561077b575061073290833361183f565b61073d8383336115ba565b519182526001600160a01b03169033907f99c01cd4f8275976ef33d24514b1694c8a9d5730d92e26996834343e09778e9990602090a36101a8611773565b634e487b7160e01b865260119052602485fd5b50503461023957816003193601126102395760055490516001600160a01b039091168152602090f35b5050346102395781600319360112610239576020906009549051908152f35b509190346102395781600319360112610239578290600d546107f781611a0d565b92610804835194856110c5565b81845261081082611a0d565b6020858101969091601f190136883761082884611a25565b9261083285611a25565b94670de0b6b3a76400006002540483811515905b8381106108b2575050505050845195606087019060608852518091526080870197915b8181106108955787890384890152878061062589896108888e8b6111e8565b91848303908501526111e8565b82516001600160a01b031689529783019791830191600101610869565b6108be819b969b611078565b90546001600160a01b039160039190821b1c82166108dc848a611a57565b526108e683611078565b9054911b1c168b52600c8752898b2054610900828a611a57565b52811561095e576109118189611a57565b5160649081810291818304149015171561094b57906109338461094393611753565b61093d828c611a57565b526114f2565b999499610846565b634e487b7160e01b8c526011865260248cfd5b610943908b610933565b8284346105ad57806003193601126105ad57600d5481805b828110610991576020848651908152f35b61099a81611078565b90546001600160a01b039160039190821b1c82166109c3575b50506109be906114f2565b610980565b946109ed9183966109d66109be95611078565b9054911b1c168452600c60205286842054906112bd565b9390866109b3565b5050346102395781600319360112610239576020906008549051908152f35b50503461023957816003193601126102395761062590610a326110fd565b9051918291602083526020830190611007565b50503461023957602036600319011261023957602090610a6b610a66611047565b611a6b565b9051908152f35b50346101fd5760203660031901126101fd573591600d548310156105ad5750610a9c602092611078565b905491519160018060a01b039160031b1c168152f35b83346105ad57806003193601126105ad57610acb61121c565b600580546001600160a01b0319811690915581906001600160a01b03167f8be0079c531659141344cd1fd0a4f28419497f9722a3daafe3b4186f6b6457e08280a380f35b5050346102395760203660031901126102395760209181906001600160a01b03610b37611047565b16815280845220549051908152f35b50503461023957816003193601126102395760075490516001600160a01b039091168152602090f35b8284346105ad57806003193601126105ad575060018060a01b038060075416906008549260095491670de0b6b3a764000060025404906005541690610bd5600b549360e0610bbb6110fd565b918051998a998a5260208a015288015260e0870190611007565b936060860152608085015260a084015260c08301520390f35b505034610239578060031936011261023957610502602092610c37610c11611047565b338352600186528483206001600160a01b038216845286529184902054602435906112bd565b90336112e0565b5050346102395781600319360112610239576020905160128152f35b5082903461023957606036600319011261023957610c76611047565b610c7e611062565b91846044359460018060a01b038416815260016020528181203382526020522054906000198203610cb8575b60208661050287878761183f565b848210610ce15750918391610cd660209695610502950333836112e0565b919394819350610caa565b606490602087519162461bcd60e51b8352820152601d60248201527f45524332303a20696e73756666696369656e7420616c6c6f77616e63650000006044820152fd5b509190346102395780600319360112610239578235602435610d4461144d565b811591610d5183156113e2565b338552600c602052610d68818587205410156114a3565b8115610e2b57670de0b6b3a76400009283820293828504141715610e18579081610d9f610d978388969561143a565b93303361183f565b338452600c602052610db58585209182546114e5565b9055338352600c6020528383205415610e0a575b6009541015610ddc575b50600160065580f35b81808092818115610e01575b3390f115610df7578181610dd3565b51903d90823e3d90fd5b506108fc610de8565b610e1333611699565b610dc9565b634e487b7160e01b855260118652602485fd5b835162461bcd60e51b8152602081880152602660248201527f507269636520706572207368617265206d75737420626520677265617465722060448201526507468616e20360d41b6064820152608490fd5b5050346102395781600319360112610239576020906002549051908152f35b50346101fd5760203660031901126101fd577fce44720b7462058f31ddecab3daa427921e5975d9acb555f043682dada866569916020913590610edd61121c565b8160095551908152a180f35b505034610239578060031936011261023957602090610502610f09611047565b60243590336112e0565b90508383346102395781600319360112610239578160035492600184811c91818616958615610ffd575b60209687851081146106ae578899509688969785829a529182600014610fd6575050600114610f7a575b50505061062592916106169103856110c5565b9190869350600383527fc2575a0e9e593c00f959f8c92f12db2869c3395a3b0502d05e2516446f71f85b5b828410610fbe5750505082010181610616610625610f67565b8054848a018601528895508794909301928101610fa5565b60ff19168782015293151560051b8601909301935084925061061691506106259050610f67565b92607f1692610f3d565b919082519283825260005b848110611033575050826000602080949584010152601f8019910116010190565b602081830181015184830182015201611012565b600435906001600160a01b038216820361105d57565b600080fd5b602435906001600160a01b038216820361105d57565b600d548110156110af57600d6000527fd7b6990105719101dabeb77144f2a3385c8033acd3af97e9423a695e81ad1eb50190600090565b634e487b7160e01b600052603260045260246000fd5b90601f8019910116810190811067ffffffffffffffff8211176110e757604052565b634e487b7160e01b600052604160045260246000fd5b604051906000600a5490600182811c908084169384156111de575b60209485841081146111ca57838852879493929181156111aa575060011461114b575b5050611149925003836110c5565b565b90939150600a6000527fc65a7bb8d6351c1cf70c95a316cc6a92839c986682d98bc35f958f4883f9d2a8936000915b8183106111925750506111499350820101388061113b565b8554888401850152948501948794509183019161117a565b91505061114994925060ff191682840152151560051b820101388061113b565b634e487b7160e01b85526022600452602485fd5b91607f1691611118565b90815180825260208080930193019160005b828110611208575050505090565b8351855293810193928101926001016111fa565b6005546001600160a01b0316330361123057565b606460405162461bcd60e51b815260206004820152602060248201527f4f776e61626c653a2063616c6c6572206973206e6f7420746865206f776e65726044820152fd5b600580546001600160a01b039283166001600160a01b0319821681179092559091167f8be0079c531659141344cd1fd0a4f28419497f9722a3daafe3b4186f6b6457e0600080a3565b919082018092116112ca57565b634e487b7160e01b600052601160045260246000fd5b6001600160a01b0390811691821561139157169182156113415760207f8c5be1e5ebec7d5bd14f71427d1e84f3dd0314c0f7b2291e5b200ac8c7c3b925918360005260018252604060002085600052825280604060002055604051908152a3565b60405162461bcd60e51b815260206004820152602260248201527f45524332303a20617070726f766520746f20746865207a65726f206164647265604482015261737360f01b6064820152608490fd5b60405162461bcd60e51b8152602060048201526024808201527f45524332303a20617070726f76652066726f6d20746865207a65726f206164646044820152637265737360e01b6064820152608490fd5b156113e957565b60405162461bcd60e51b815260206004820152602360248201527f536861726520616d6f756e74206d75737420626520677265617465722074686160448201526206e20360ec1b6064820152608490fd5b818102929181159184041417156112ca57565b60026006541461145e576002600655565b60405162461bcd60e51b815260206004820152601f60248201527f5265656e7472616e637947756172643a207265656e7472616e742063616c6c006044820152606490fd5b156114aa57565b60405162461bcd60e51b8152602060048201526013602482015272496e73756666696369656e742073686172657360681b6044820152606490fd5b919082039182116112ca57565b60001981146112ca5760010190565b60018060a01b03806005541690600092828452600c90602090828252604094818688205410156115b05750600d5494865b868110611543575050505050505090565b61154c81611078565b9054600391821b1c87163314158061158d575b611572575061156d906114f2565b611532565b96509350505050611584919350611078565b9054911b1c1690565b508661159883611078565b905490831b1c16895285855283838a2054101561155f565b9550505050505090565b90929160018060a01b039081831690600092828452600c602052604084206115e38382546114e5565b90558616808452600c602052604084205415611631575b6040949596508352600c6020526116158484209182546112bd565b90558152600c6020522054156116285750565b61114990611699565b600d546801000000000000000081101561168557604095969761165d82600161167c9401600d55611078565b90919082549060031b9160018060a01b03809116831b921b1916179055565b869594506115fa565b634e487b7160e01b85526041600452602485fd5b6000905b600d918254928382101561174d576116b482611078565b90546003956001600160a01b0392909190871b1c8216858316146116e6575050506116e09192506114f2565b9061169d565b9193509160001991828101919082116112ca5761165d8461170961171694611078565b905490891b1c1691611078565b8254801561173757019261172984611078565b81939154921b1b1916905555565b634e487b7160e01b600052603160045260246000fd5b50505050565b811561175d570490565b634e487b7160e01b600052601260045260246000fd5b6005546002546001600160a01b0391821690670de0b6b3a7640000900460005b600d5481101561174d57836117a782611078565b90549060031b1c168381036117c6575b506117c1906114f2565b611793565b806000526020600c8152604080600020546064908181029181830414901517156112ca57856117f491611753565b9060328211611805575050506117b7565b929650925092507ffc8f2d6996e2b706fa4cfb81cb10a53534b07f2010b2488488508f8751f55375935061183885611274565b51908152a2565b916001600160a01b038084168015801592906119ba5784169081156119695760008181528060205260408120549085821061191557856040928483528260205203828220558381522084815401905581817fddf252ad1be2c89b69c2b068fc378daa952ba7f163c4a11628f55a4df523b3ef6020604051888152a38261190c575b82611901575b50816118f6575b506118d757505050565b670de0b6b3a7640000900490816118ed57505050565b611149926115ba565b9050301415386118cd565b3014159150386118c6565b600192506118c0565b60405162461bcd60e51b815260206004820152602660248201527f45524332303a207472616e7366657220616d6f756e7420657863656564732062604482015265616c616e636560d01b6064820152608490fd5b60405162461bcd60e51b815260206004820152602360248201527f45524332303a207472616e7366657220746f20746865207a65726f206164647260448201526265737360e81b6064820152608490fd5b60405162461bcd60e51b815260206004820152602560248201527f45524332303a207472616e736665722066726f6d20746865207a65726f206164604482015264647265737360d81b6064820152608490fd5b67ffffffffffffffff81116110e75760051b60200190565b90611a2f82611a0d565b611a3c60405191826110c5565b8281528092611a4d601f1991611a0d565b0190602036910137565b80518210156110af5760209160051b010190565b670de0b6b3a764000060025404908115611ab55760018060a01b0316600052600c602052604060002054906064820291808304606414901517156112ca57611ab291611753565b90565b505060009056fea264697066735822122020a6b15a40491db268cc82debb6e69be6bed83babd5c8f0806037ce6d909281264736f6c63430008140033a2646970667358221220cd21815a13d3f9b03fa078aeadddc70a43c1c89a29c8db16743278ff90111f0e64736f6c63430008140033a2646970667358221220410744bbebe16310f146161cbd92c348c61682ea3250923ab8eac182bc3c778364736f6c63430008140033","opcodes":"PUSH1 0x80 DUP1 PUSH1 0x40 MSTORE CALLVALUE PUSH2 0x1B JUMPI PUSH1 0x1 PUSH1 0x0 SSTORE PUSH2 0x5EEB SWAP1 DUP2 PUSH2 0x21 DUP3 CODECOPY RETURN JUMPDEST PUSH1 0x0 DUP1 REVERT INVALID PUSH1 0x80 DUP1 PUSH1 0x40 MSTORE PUSH1 0x4 CALLDATASIZE LT ISZERO PUSH3 0x14 JUMPI PUSH1 0x0 DUP1 REVERT JUMPDEST PUSH1 0x0 CALLDATALOAD PUSH1 0xE0 SHR SWAP1 DUP2 PUSH4 0x1C10106F EQ PUSH3 0xF67 JUMPI POP DUP1 PUSH4 0x428A6171 EQ PUSH3 0xF07 JUMPI DUP1 PUSH4 0x4765F4EA EQ PUSH3 0x939 JUMPI DUP1 PUSH4 0x5A1F3C28 EQ PUSH3 0x8A5 JUMPI DUP1 PUSH4 0x6804A958 EQ PUSH3 0x7E6 JUMPI DUP1 PUSH4 0x7014935E EQ PUSH3 0x716 JUMPI DUP1 PUSH4 0x9AA5AD8C EQ PUSH3 0x658 JUMPI DUP1 PUSH4 0xABAE977F EQ PUSH3 0x611 JUMPI DUP1 PUSH4 0xB124DBC4 EQ PUSH3 0x4D8 JUMPI DUP1 PUSH4 0xECE86C21 EQ PUSH3 0x12B JUMPI PUSH4 0xFDBDA0EC EQ PUSH3 0xA4 JUMPI PUSH1 0x0 DUP1 REVERT JUMPDEST CALLVALUE PUSH3 0x126 JUMPI PUSH1 0x20 CALLDATASIZE PUSH1 0x3 NOT ADD SLT PUSH3 0x126 JUMPI PUSH1 0x4 CALLDATALOAD PUSH1 0x0 MSTORE PUSH1 0x2 PUSH1 0x20 MSTORE PUSH1 0x40 PUSH1 0x0 KECCAK256 DUP1 SLOAD PUSH3 0xD7 PUSH1 0x1 DUP4 ADD PUSH3 0x1202 JUMP JUMPDEST SWAP2 PUSH1 0x1 DUP1 PUSH1 0xA0 SHL SUB SWAP1 PUSH1 0x4 DUP3 PUSH1 0x2 DUP4 ADD SLOAD AND SWAP3 PUSH1 0x3 DUP4 ADD SLOAD AND SWAP2 ADD SLOAD SWAP1 PUSH3 0x112 PUSH1 0x40 MLOAD SWAP6 DUP7 SWAP6 DUP7 MSTORE PUSH1 0xA0 PUSH1 0x20 DUP8 ADD MSTORE PUSH1 0xA0 DUP7 ADD SWAP1 PUSH3 0x1027 JUMP JUMPDEST SWAP3 PUSH1 0x40 DUP6 ADD MSTORE PUSH1 0x60 DUP5 ADD MSTORE PUSH1 0x80 DUP4 ADD MSTORE SUB SWAP1 RETURN JUMPDEST PUSH1 0x0 DUP1 REVERT JUMPDEST CALLVALUE PUSH3 0x126 JUMPI PUSH1 0x60 CALLDATASIZE PUSH1 0x3 NOT ADD SLT PUSH3 0x126 JUMPI PUSH8 0xFFFFFFFFFFFFFFFF PUSH1 0x4 CALLDATALOAD DUP2 DUP2 GT PUSH3 0x126 JUMPI PUSH3 0x162 SWAP1 CALLDATASIZE SWAP1 PUSH1 0x4 ADD PUSH3 0x1178 JUMP JUMPDEST PUSH1 0x24 CALLDATALOAD DUP3 DUP2 GT PUSH3 0x126 JUMPI PUSH3 0x17D SWAP1 CALLDATASIZE SWAP1 PUSH1 0x4 ADD PUSH3 0x1178 JUMP JUMPDEST SWAP1 PUSH1 0x44 CALLDATALOAD DUP4 DUP2 GT PUSH3 0x126 JUMPI PUSH3 0x199 SWAP1 CALLDATASIZE SWAP1 PUSH1 0x4 ADD PUSH3 0x1178 JUMP JUMPDEST SWAP1 PUSH1 0x1 SLOAD SWAP3 PUSH1 0x1 DUP5 ADD PUSH1 0x1 SSTORE PUSH1 0x40 MLOAD SWAP2 PUSH2 0x49D2 DUP1 DUP5 ADD SWAP2 DUP5 DUP4 LT DUP9 DUP5 GT OR PUSH3 0x3E6 JUMPI DUP5 SWAP4 PUSH3 0x1E1 PUSH3 0x1F0 SWAP3 PUSH3 0x1FF SWAP5 PUSH3 0x14E4 DUP9 CODECOPY PUSH1 0xA0 DUP7 MSTORE PUSH1 0xA0 DUP7 ADD SWAP1 PUSH3 0x1027 JUMP JUMPDEST SWAP1 DUP5 DUP3 SUB PUSH1 0x20 DUP7 ADD MSTORE PUSH3 0x1027 JUMP JUMPDEST DUP3 DUP2 SUB PUSH1 0x40 DUP5 ADD MSTORE DUP6 PUSH3 0x1027 JUMP JUMPDEST SWAP1 CALLER PUSH1 0x60 DUP3 ADD MSTORE PUSH1 0x80 ADDRESS SWAP2 ADD MSTORE SUB SWAP1 PUSH1 0x0 CREATE SWAP3 DUP4 ISZERO PUSH3 0x4CC JUMPI PUSH1 0x40 MLOAD PUSH3 0x227 DUP2 PUSH3 0x111B JUMP JUMPDEST DUP4 DUP2 MSTORE PUSH1 0x20 DUP2 ADD SWAP2 DUP4 DUP4 MSTORE PUSH1 0x1 DUP1 PUSH1 0xA0 SHL SUB DUP7 AND PUSH1 0x40 DUP4 ADD MSTORE CALLER PUSH1 0x60 DUP4 ADD MSTORE TIMESTAMP PUSH1 0x80 DUP4 ADD MSTORE DUP5 PUSH1 0x0 MSTORE PUSH1 0x2 PUSH1 0x20 MSTORE PUSH1 0x40 PUSH1 0x0 KECCAK256 SWAP3 DUP3 MLOAD DUP5 SSTORE MLOAD DUP1 MLOAD SWAP2 DUP3 GT PUSH3 0x3E6 JUMPI PUSH3 0x279 PUSH1 0x1 DUP6 ADD SLOAD PUSH3 0x11C5 JUMP JUMPDEST PUSH1 0x1F DUP2 GT PUSH3 0x480 JUMPI JUMPDEST POP PUSH1 0x20 SWAP1 PUSH1 0x1F DUP4 GT PUSH1 0x1 EQ PUSH3 0x408 JUMPI SWAP2 DUP1 PUSH1 0x4 SWAP5 SWAP3 PUSH1 0x80 SWAP5 PUSH1 0x0 SWAP3 PUSH3 0x3FC JUMPI JUMPDEST POP POP DUP2 PUSH1 0x1 SHL SWAP2 PUSH1 0x0 NOT SWAP1 PUSH1 0x3 SHL SHR NOT AND OR PUSH1 0x1 DUP6 ADD SSTORE JUMPDEST PUSH1 0x2 DUP5 ADD PUSH1 0x1 DUP1 PUSH1 0xA0 SHL SUB PUSH1 0x40 DUP4 ADD MLOAD AND SWAP1 PUSH12 0xFFFFFFFFFFFFFFFFFFFFFFFF PUSH1 0xA0 SHL SWAP2 DUP3 DUP3 SLOAD AND OR SWAP1 SSTORE PUSH1 0x3 DUP6 ADD SWAP1 PUSH1 0x1 DUP1 PUSH1 0xA0 SHL SUB PUSH1 0x60 DUP5 ADD MLOAD AND SWAP1 DUP3 SLOAD AND OR SWAP1 SSTORE ADD MLOAD SWAP2 ADD SSTORE CALLER PUSH1 0x0 MSTORE PUSH1 0x3 PUSH1 0x20 MSTORE PUSH1 0x40 PUSH1 0x0 KECCAK256 DUP1 SLOAD SWAP1 PUSH9 0x10000000000000000 SWAP2 DUP3 DUP2 LT ISZERO PUSH3 0x3E6 JUMPI PUSH3 0x33B SWAP2 PUSH1 0x1 DUP3 ADD DUP2 SSTORE PUSH3 0xFE9 JUMP JUMPDEST DUP2 SLOAD SWAP1 PUSH1 0x3 SHL SWAP1 DUP6 DUP3 SHL SWAP2 PUSH1 0x0 NOT SWAP1 SHL NOT AND OR SWAP1 SSTORE PUSH1 0x4 SLOAD SWAP1 DUP2 LT ISZERO PUSH3 0x3E6 JUMPI PUSH32 0x302EB65A1FBFF180DA0F4FA83BEFD29FF62C2BFF6765FCC04E6A5C2FFADE88CD PUSH3 0x3DB PUSH1 0x20 SWAP6 PUSH3 0x397 DUP5 PUSH1 0x1 DUP9 SWAP7 ADD PUSH1 0x4 SSTORE PUSH3 0xF9B JUMP JUMPDEST DUP2 SLOAD SWAP1 PUSH1 0x3 SHL SWAP1 PUSH1 0x1 DUP1 PUSH1 0xA0 SHL SUB DUP5 AND DUP3 SHL SWAP2 PUSH1 0x1 DUP1 PUSH1 0xA0 SHL SUB SWAP1 SHL NOT AND OR SWAP1 SSTORE PUSH1 0x40 MLOAD SWAP2 DUP3 SWAP2 CALLER DUP4 MSTORE PUSH1 0x40 DUP10 DUP5 ADD MSTORE PUSH1 0x1 DUP1 PUSH1 0xA0 SHL SUB AND SWAP6 PUSH1 0x40 DUP4 ADD SWAP1 PUSH3 0x1027 JUMP JUMPDEST SUB SWAP1 LOG3 PUSH1 0x40 MLOAD SWAP1 DUP2 MSTORE RETURN JUMPDEST PUSH4 0x4E487B71 PUSH1 0xE0 SHL PUSH1 0x0 MSTORE PUSH1 0x41 PUSH1 0x4 MSTORE PUSH1 0x24 PUSH1 0x0 REVERT JUMPDEST ADD MLOAD SWAP1 POP DUP10 DUP1 PUSH3 0x2A5 JUMP JUMPDEST SWAP1 PUSH1 0x1F NOT DUP4 AND SWAP2 PUSH1 0x1 DUP7 ADD PUSH1 0x0 MSTORE PUSH1 0x20 PUSH1 0x0 KECCAK256 SWAP3 PUSH1 0x0 JUMPDEST DUP2 DUP2 LT PUSH3 0x467 JUMPI POP SWAP3 PUSH1 0x1 SWAP3 DUP6 SWAP3 PUSH1 0x80 SWAP7 PUSH1 0x4 SWAP9 SWAP7 LT PUSH3 0x44D JUMPI JUMPDEST POP POP POP DUP2 SHL ADD PUSH1 0x1 DUP6 ADD SSTORE PUSH3 0x2BD JUMP JUMPDEST ADD MLOAD PUSH1 0x0 NOT PUSH1 0xF8 DUP5 PUSH1 0x3 SHL AND SHR NOT AND SWAP1 SSTORE DUP10 DUP1 DUP1 PUSH3 0x43C JUMP JUMPDEST SWAP3 SWAP4 PUSH1 0x20 PUSH1 0x1 DUP2 SWAP3 DUP8 DUP7 ADD MLOAD DUP2 SSTORE ADD SWAP6 ADD SWAP4 ADD PUSH3 0x41F JUMP JUMPDEST PUSH1 0x1 DUP6 ADD PUSH1 0x0 MSTORE PUSH1 0x20 PUSH1 0x0 KECCAK256 PUSH1 0x1F DUP5 ADD PUSH1 0x5 SHR DUP2 ADD PUSH1 0x20 DUP6 LT PUSH3 0x4C4 JUMPI JUMPDEST PUSH1 0x1F DUP4 ADD PUSH1 0x5 SHR DUP3 ADD DUP2 LT PUSH3 0x4B7 JUMPI POP POP PUSH3 0x283 JUMP JUMPDEST PUSH1 0x0 DUP2 SSTORE PUSH1 0x1 ADD PUSH3 0x49F JUMP JUMPDEST POP DUP1 PUSH3 0x49F JUMP JUMPDEST PUSH1 0x40 MLOAD RETURNDATASIZE PUSH1 0x0 DUP3 RETURNDATACOPY RETURNDATASIZE SWAP1 REVERT JUMPDEST CALLVALUE PUSH3 0x126 JUMPI PUSH1 0x20 DUP1 PUSH1 0x3 NOT CALLDATASIZE ADD SLT PUSH3 0x126 JUMPI PUSH1 0x1 PUSH1 0x1 PUSH1 0xA0 SHL SUB SWAP1 DUP2 PUSH3 0x500 PUSH3 0xF84 JUMP JUMPDEST AND PUSH1 0x0 MSTORE PUSH1 0x3 SWAP1 DUP2 DUP2 MSTORE PUSH1 0x40 PUSH1 0x0 KECCAK256 SWAP2 PUSH1 0x40 MLOAD DUP1 DUP5 DUP5 DUP3 SWAP7 SLOAD SWAP4 DUP5 DUP2 MSTORE ADD SWAP1 PUSH1 0x0 MSTORE DUP5 PUSH1 0x0 KECCAK256 SWAP3 PUSH1 0x0 JUMPDEST DUP7 DUP3 DUP3 LT PUSH3 0x5FA JUMPI POP POP POP PUSH3 0x544 SWAP3 POP SUB DUP5 PUSH3 0x1138 JUMP JUMPDEST PUSH3 0x550 DUP4 MLOAD PUSH3 0x12FB JUMP JUMPDEST SWAP4 PUSH1 0x0 JUMPDEST DUP5 MLOAD DUP2 LT ISZERO PUSH3 0x5E6 JUMPI DUP1 PUSH3 0x56F PUSH3 0x5E0 SWAP3 DUP8 PUSH3 0x137B JUMP JUMPDEST MLOAD PUSH1 0x0 MSTORE PUSH1 0x2 DUP1 DUP7 MSTORE PUSH1 0x4 PUSH1 0x40 PUSH1 0x0 KECCAK256 DUP6 PUSH1 0x40 MLOAD SWAP4 PUSH3 0x58F DUP6 PUSH3 0x111B JUMP JUMPDEST DUP3 SLOAD DUP6 MSTORE PUSH3 0x5A1 PUSH1 0x1 DUP5 ADD PUSH3 0x1202 JUMP JUMPDEST DUP11 DUP7 ADD MSTORE DUP3 ADD SLOAD AND PUSH1 0x40 DUP5 ADD MSTORE DUP6 DUP8 DUP3 ADD SLOAD AND PUSH1 0x60 DUP5 ADD MSTORE ADD SLOAD PUSH1 0x80 DUP3 ADD MSTORE PUSH3 0x5CC DUP3 DUP10 PUSH3 0x137B JUMP JUMPDEST MSTORE PUSH3 0x5D9 DUP2 DUP9 PUSH3 0x137B JUMP JUMPDEST POP PUSH3 0x1355 JUMP JUMPDEST PUSH3 0x554 JUMP JUMPDEST PUSH1 0x40 MLOAD DUP1 PUSH3 0x5F6 DUP9 DUP3 PUSH3 0x1098 JUMP JUMPDEST SUB SWAP1 RETURN JUMPDEST DUP6 SLOAD DUP5 MSTORE PUSH1 0x1 SWAP6 DUP7 ADD SWAP6 DUP10 SWAP6 POP SWAP4 ADD SWAP3 ADD PUSH3 0x52A JUMP JUMPDEST CALLVALUE PUSH3 0x126 JUMPI PUSH1 0x20 CALLDATASIZE PUSH1 0x3 NOT ADD SLT PUSH3 0x126 JUMPI PUSH1 0x4 CALLDATALOAD PUSH1 0x4 SLOAD DUP2 LT ISZERO PUSH3 0x126 JUMPI PUSH3 0x63F PUSH1 0x20 SWAP2 PUSH3 0xF9B JUMP JUMPDEST SWAP1 SLOAD PUSH1 0x40 MLOAD PUSH1 0x3 SWAP3 SWAP1 SWAP3 SHL SHR PUSH1 0x1 PUSH1 0x1 PUSH1 0xA0 SHL SUB AND DUP2 MSTORE RETURN JUMPDEST CALLVALUE PUSH3 0x126 JUMPI PUSH1 0x20 DUP1 PUSH1 0x3 NOT CALLDATASIZE ADD SLT PUSH3 0x126 JUMPI PUSH1 0x1 PUSH1 0x1 PUSH1 0xA0 SHL SUB PUSH3 0x67E PUSH3 0xF84 JUMP JUMPDEST AND PUSH1 0x0 MSTORE PUSH1 0x3 DUP2 MSTORE PUSH1 0x40 PUSH1 0x0 KECCAK256 PUSH1 0x40 MLOAD SWAP1 DUP2 DUP4 DUP3 SLOAD SWAP2 DUP3 DUP2 MSTORE ADD SWAP1 DUP2 SWAP3 PUSH1 0x0 MSTORE DUP5 PUSH1 0x0 KECCAK256 SWAP1 PUSH1 0x0 JUMPDEST DUP7 DUP3 DUP3 LT PUSH3 0x701 JUMPI DUP7 DUP7 PUSH3 0x6BF DUP3 DUP9 SUB DUP4 PUSH3 0x1138 JUMP JUMPDEST PUSH1 0x40 MLOAD SWAP3 DUP4 SWAP3 DUP2 DUP5 ADD SWAP1 DUP3 DUP6 MSTORE MLOAD DUP1 SWAP2 MSTORE PUSH1 0x40 DUP5 ADD SWAP3 SWAP2 PUSH1 0x0 JUMPDEST DUP3 DUP2 LT PUSH3 0x6E9 JUMPI POP POP POP POP SUB SWAP1 RETURN JUMPDEST DUP4 MLOAD DUP6 MSTORE DUP7 SWAP6 POP SWAP4 DUP2 ADD SWAP4 SWAP3 DUP2 ADD SWAP3 PUSH1 0x1 ADD PUSH3 0x6D9 JUMP JUMPDEST DUP4 SLOAD DUP6 MSTORE SWAP1 SWAP4 ADD SWAP3 PUSH1 0x1 SWAP3 DUP4 ADD SWAP3 ADD PUSH3 0x6A6 JUMP JUMPDEST CALLVALUE PUSH3 0x126 JUMPI PUSH1 0x0 CALLDATASIZE PUSH1 0x3 NOT ADD SLT PUSH3 0x126 JUMPI PUSH1 0x40 MLOAD DUP1 PUSH1 0x4 SLOAD DUP1 DUP4 MSTORE PUSH1 0x20 DUP1 SWAP4 ADD DUP1 SWAP2 PUSH1 0x4 PUSH1 0x0 MSTORE PUSH32 0x8A35ACFBC15FF81A39AE7D344FD709F28E8600B4AA8C65C6B64BFE7FE36BD19B SWAP1 PUSH1 0x0 JUMPDEST DUP7 DUP3 DUP3 LT PUSH3 0x7C8 JUMPI DUP7 DUP7 PUSH3 0x77D DUP3 DUP9 SUB DUP4 PUSH3 0x1138 JUMP JUMPDEST PUSH1 0x40 MLOAD SWAP3 DUP4 SWAP3 DUP2 DUP5 ADD SWAP1 DUP3 DUP6 MSTORE MLOAD DUP1 SWAP2 MSTORE PUSH1 0x40 DUP5 ADD SWAP3 SWAP2 PUSH1 0x0 JUMPDEST DUP3 DUP2 LT PUSH3 0x7A7 JUMPI POP POP POP POP SUB SWAP1 RETURN JUMPDEST DUP4 MLOAD PUSH1 0x1 PUSH1 0x1 PUSH1 0xA0 SHL SUB AND DUP6 MSTORE DUP7 SWAP6 POP SWAP4 DUP2 ADD SWAP4 SWAP3 DUP2 ADD SWAP3 PUSH1 0x1 ADD PUSH3 0x797 JUMP JUMPDEST DUP4 SLOAD PUSH1 0x1 PUSH1 0x1 PUSH1 0xA0 SHL SUB AND DUP6 MSTORE SWAP1 SWAP4 ADD SWAP3 PUSH1 0x1 SWAP3 DUP4 ADD SWAP3 ADD PUSH3 0x764 JUMP JUMPDEST CALLVALUE PUSH3 0x126 JUMPI PUSH1 0x0 CALLDATASIZE PUSH1 0x3 NOT ADD SLT PUSH3 0x126 JUMPI PUSH1 0x1 DUP1 SLOAD PUSH3 0x808 DUP2 PUSH3 0x12FB JUMP JUMPDEST SWAP2 PUSH1 0x0 JUMPDEST DUP3 DUP2 LT PUSH3 0x824 JUMPI PUSH1 0x40 MLOAD DUP1 PUSH3 0x5F6 DUP7 DUP3 PUSH3 0x1098 JUMP JUMPDEST DUP1 PUSH3 0x89F SWAP2 PUSH1 0x0 MSTORE PUSH1 0x2 PUSH1 0x4 PUSH1 0x20 SWAP2 DUP1 DUP4 MSTORE PUSH1 0x40 PUSH1 0x0 KECCAK256 SWAP1 PUSH1 0x40 MLOAD SWAP4 PUSH3 0x84C DUP6 PUSH3 0x111B JUMP JUMPDEST DUP3 SLOAD DUP6 MSTORE PUSH3 0x85D DUP9 DUP5 ADD PUSH3 0x1202 JUMP JUMPDEST SWAP1 DUP6 ADD MSTORE DUP2 ADD SLOAD PUSH1 0x1 PUSH1 0x1 PUSH1 0xA0 SHL SUB SWAP1 DUP2 AND PUSH1 0x40 DUP6 ADD MSTORE PUSH1 0x3 DUP3 ADD SLOAD AND PUSH1 0x60 DUP5 ADD MSTORE ADD SLOAD PUSH1 0x80 DUP3 ADD MSTORE PUSH3 0x892 DUP3 DUP8 PUSH3 0x137B JUMP JUMPDEST MSTORE PUSH3 0x5D9 DUP2 DUP7 PUSH3 0x137B JUMP JUMPDEST PUSH3 0x80C JUMP JUMPDEST CALLVALUE PUSH3 0x126 JUMPI PUSH1 0x20 CALLDATASIZE PUSH1 0x3 NOT ADD SLT PUSH3 0x126 JUMPI PUSH3 0x8C2 PUSH3 0x12B4 JUMP JUMPDEST POP PUSH1 0x4 CALLDATALOAD PUSH1 0x0 MSTORE PUSH1 0x2 PUSH1 0x20 MSTORE PUSH3 0x5F6 PUSH1 0x40 PUSH1 0x0 KECCAK256 PUSH1 0x4 PUSH1 0x40 MLOAD SWAP2 PUSH3 0x8E8 DUP4 PUSH3 0x111B JUMP JUMPDEST DUP1 SLOAD DUP4 MSTORE PUSH3 0x8FA PUSH1 0x1 DUP3 ADD PUSH3 0x1202 JUMP JUMPDEST PUSH1 0x20 DUP5 ADD MSTORE PUSH1 0x1 DUP1 PUSH1 0xA0 SHL SUB DUP1 PUSH1 0x2 DUP4 ADD SLOAD AND PUSH1 0x40 DUP6 ADD MSTORE PUSH1 0x3 DUP3 ADD SLOAD AND PUSH1 0x60 DUP5 ADD MSTORE ADD SLOAD PUSH1 0x80 DUP3 ADD MSTORE PUSH1 0x40 MLOAD SWAP2 DUP3 SWAP2 PUSH1 0x20 DUP4 MSTORE PUSH1 0x20 DUP4 ADD SWAP1 PUSH3 0x104E JUMP JUMPDEST CALLVALUE PUSH3 0x126 JUMPI PUSH1 0x20 CALLDATASIZE PUSH1 0x3 NOT ADD SLT PUSH3 0x126 JUMPI PUSH3 0x956 PUSH3 0xF84 JUMP JUMPDEST PUSH1 0x4 SLOAD PUSH1 0x0 DUP1 JUMPDEST DUP3 DUP2 LT PUSH3 0xD73 JUMPI POP PUSH3 0x971 DUP2 PUSH3 0x12E2 JUMP JUMPDEST PUSH3 0x980 PUSH1 0x40 MLOAD SWAP2 DUP3 PUSH3 0x1138 JUMP JUMPDEST DUP2 DUP2 MSTORE PUSH1 0x1F NOT PUSH3 0x991 DUP4 PUSH3 0x12E2 JUMP JUMPDEST ADD PUSH1 0x0 JUMPDEST DUP2 DUP2 LT PUSH3 0xD30 JUMPI POP POP PUSH1 0x0 DUP1 PUSH1 0x1 SLOAD SWAP1 JUMPDEST DUP6 DUP2 LT DUP1 PUSH3 0xD26 JUMPI JUMPDEST ISZERO PUSH3 0xC76 JUMPI PUSH3 0x9C2 DUP2 PUSH3 0xF9B JUMP JUMPDEST SWAP1 SLOAD PUSH1 0x0 SWAP1 PUSH1 0x0 JUMPDEST DUP6 DUP2 LT PUSH3 0xC23 JUMPI JUMPDEST POP PUSH1 0x40 MLOAD PUSH4 0xE0391B09 PUSH1 0xE0 SHL DUP2 MSTORE SWAP3 PUSH1 0x0 SWAP2 DUP5 SWAP2 PUSH1 0x4 SWAP2 DUP4 SWAP2 PUSH1 0x3 SHL SHR PUSH1 0x1 PUSH1 0x1 PUSH1 0xA0 SHL SUB AND GAS STATICCALL PUSH1 0x0 SWAP3 DUP2 PUSH3 0xBF9 JUMPI JUMPDEST POP PUSH3 0xA1F JUMPI JUMPDEST POP POP PUSH3 0xA19 SWAP1 PUSH3 0x1355 JUMP JUMPDEST PUSH3 0x9A7 JUMP JUMPDEST SWAP4 SWAP5 SWAP2 SWAP3 SWAP1 SWAP6 SWAP7 PUSH1 0x0 JUMPDEST DUP8 MLOAD DUP2 LT DUP1 PUSH3 0xBEF JUMPI JUMPDEST ISZERO PUSH3 0xBDB JUMPI PUSH1 0x80 PUSH3 0xA48 DUP3 DUP11 PUSH3 0x137B JUMP JUMPDEST MLOAD ADD MLOAD ISZERO ISZERO DUP1 PUSH3 0xBB8 JUMPI JUMPDEST PUSH3 0xA6B JUMPI JUMPDEST PUSH3 0xA65 SWAP1 PUSH3 0x1355 JUMP JUMPDEST PUSH3 0xA29 JUMP JUMPDEST PUSH1 0x1 PUSH1 0x1 PUSH1 0xA0 SHL SUB PUSH1 0x60 PUSH3 0xA81 DUP4 DUP12 PUSH3 0x137B JUMP JUMPDEST MLOAD ADD MLOAD PUSH1 0x40 MLOAD PUSH4 0x6F34D9D5 PUSH1 0xE1 SHL DUP2 MSTORE PUSH1 0x1 PUSH1 0x1 PUSH1 0xA0 SHL SUB DUP14 AND PUSH1 0x4 DUP3 ADD MSTORE SWAP2 PUSH1 0x20 SWAP2 DUP4 SWAP2 PUSH1 0x24 SWAP2 DUP4 SWAP2 AND GAS STATICCALL PUSH1 0x0 SWAP2 DUP2 PUSH3 0xB7E JUMPI JUMPDEST POP PUSH3 0xAC6 JUMPI JUMPDEST POP PUSH3 0xA5A JUMP JUMPDEST DUP1 ISZERO PUSH3 0xABF JUMPI DUP2 SWAP8 PUSH3 0xB76 SWAP2 PUSH3 0xA65 SWAP4 PUSH3 0xAE4 DUP10 PUSH3 0xF9B JUMP JUMPDEST SWAP1 SLOAD PUSH1 0x3 SWAP2 SWAP1 SWAP2 SHL SHR PUSH1 0x1 PUSH1 0x1 PUSH1 0xA0 SHL SUB AND SWAP2 DUP13 PUSH1 0x20 PUSH3 0xB2E PUSH3 0xB0A DUP6 DUP5 PUSH3 0x137B JUMP JUMPDEST MLOAD MLOAD SWAP5 PUSH1 0x1 PUSH1 0x1 PUSH1 0xA0 SHL SUB PUSH1 0x60 PUSH3 0xB23 DUP4 DUP8 PUSH3 0x137B JUMP JUMPDEST MLOAD ADD MLOAD AND SWAP4 PUSH3 0x137B JUMP JUMPDEST MLOAD ADD MLOAD SWAP3 PUSH1 0x40 MLOAD SWAP5 PUSH3 0xB41 DUP7 PUSH3 0x10FE JUMP JUMPDEST DUP14 DUP7 MSTORE PUSH1 0x20 DUP7 ADD MSTORE PUSH1 0x40 DUP6 ADD MSTORE PUSH1 0x60 DUP5 ADD MSTORE PUSH1 0x80 DUP4 ADD MSTORE PUSH1 0xA0 DUP3 ADD MSTORE PUSH3 0xB69 DUP3 DUP9 PUSH3 0x137B JUMP JUMPDEST MSTORE PUSH3 0x5D9 DUP2 DUP8 PUSH3 0x137B JUMP JUMPDEST SWAP7 SWAP1 PUSH3 0xABF JUMP JUMPDEST SWAP1 SWAP2 POP PUSH1 0x20 DUP2 RETURNDATASIZE PUSH1 0x20 GT PUSH3 0xBAF JUMPI JUMPDEST DUP2 PUSH3 0xB9D PUSH1 0x20 SWAP4 DUP4 PUSH3 0x1138 JUMP JUMPDEST DUP2 ADD SUB SLT PUSH3 0x126 JUMPI MLOAD SWAP1 DUP13 PUSH3 0xAB8 JUMP JUMPDEST RETURNDATASIZE SWAP2 POP PUSH3 0xB8E JUMP JUMPDEST POP PUSH1 0x1 PUSH1 0x1 PUSH1 0xA0 SHL SUB PUSH1 0x60 PUSH3 0xBCF DUP4 DUP12 PUSH3 0x137B JUMP JUMPDEST MLOAD ADD MLOAD AND ISZERO ISZERO PUSH3 0xA54 JUMP JUMPDEST POP SWAP7 SWAP6 POP SWAP1 SWAP4 SWAP3 POP SWAP1 PUSH3 0xA19 DUP9 PUSH3 0xA0C JUMP JUMPDEST POP DUP9 DUP8 LT PUSH3 0xA34 JUMP JUMPDEST PUSH3 0xC1B SWAP2 SWAP4 POP RETURNDATASIZE DUP1 PUSH1 0x0 DUP4 RETURNDATACOPY PUSH3 0xC12 DUP2 DUP4 PUSH3 0x1138 JUMP JUMPDEST DUP2 ADD SWAP1 PUSH3 0x1390 JUMP JUMPDEST SWAP2 DUP11 PUSH3 0xA05 JUMP JUMPDEST PUSH1 0x0 DUP2 DUP2 MSTORE PUSH1 0x2 PUSH1 0x20 DUP2 SWAP1 MSTORE PUSH1 0x40 SWAP1 SWAP2 KECCAK256 ADD SLOAD PUSH1 0x1 PUSH1 0x1 PUSH1 0xA0 SHL SUB SWAP1 DUP2 AND SWAP1 PUSH3 0xC4D DUP8 PUSH3 0xF9B JUMP JUMPDEST SWAP1 SLOAD SWAP1 PUSH1 0x3 SHL SHR AND EQ PUSH3 0xC6C JUMPI PUSH3 0xC66 SWAP1 PUSH3 0x1355 JUMP JUMPDEST PUSH3 0x9CA JUMP JUMPDEST SWAP2 POP PUSH1 0x0 PUSH3 0x9D3 JUMP JUMPDEST DUP4 PUSH1 0x40 MLOAD DUP1 SWAP2 PUSH1 0x20 DUP3 ADD PUSH1 0x20 DUP4 MSTORE DUP2 MLOAD DUP1 SWAP2 MSTORE PUSH1 0x40 DUP4 ADD SWAP1 PUSH1 0x20 PUSH1 0x40 DUP3 PUSH1 0x5 SHL DUP7 ADD ADD SWAP4 ADD SWAP2 PUSH1 0x0 SWAP1 JUMPDEST DUP3 DUP3 LT PUSH3 0xCB0 JUMPI POP POP POP POP SUB SWAP1 RETURN JUMPDEST SWAP2 SWAP4 PUSH1 0x1 SWAP2 SWAP4 SWAP6 POP PUSH1 0x20 PUSH3 0xD15 DUP2 SWAP3 PUSH1 0x3F NOT DUP11 DUP3 SUB ADD DUP7 MSTORE DUP9 MLOAD DUP1 MLOAD DUP3 MSTORE DUP6 DUP1 PUSH1 0xA0 SHL SUB DUP1 DUP6 DUP4 ADD MLOAD AND DUP6 DUP5 ADD MSTORE PUSH1 0x40 DUP3 ADD MLOAD PUSH1 0x40 DUP5 ADD MSTORE PUSH1 0x60 SWAP1 DUP2 DUP4 ADD MLOAD AND SWAP1 DUP4 ADD MSTORE PUSH1 0x80 DUP1 DUP3 ADD MLOAD SWAP1 DUP4 ADD MSTORE PUSH1 0xA0 DUP1 SWAP2 ADD MLOAD SWAP2 PUSH1 0xC0 DUP1 SWAP3 DUP3 ADD MSTORE ADD SWAP1 PUSH3 0x1027 JUMP JUMPDEST SWAP7 ADD SWAP3 ADD SWAP3 ADD DUP6 SWAP5 SWAP4 SWAP2 SWAP3 PUSH3 0xCA0 JUMP JUMPDEST POP DUP5 DUP4 LT PUSH3 0x9B1 JUMP JUMPDEST PUSH1 0x20 SWAP1 PUSH1 0x40 MLOAD PUSH3 0xD41 DUP2 PUSH3 0x10FE JUMP JUMPDEST PUSH1 0x0 DUP2 MSTORE PUSH1 0x0 DUP4 DUP3 ADD MSTORE PUSH1 0x0 PUSH1 0x40 DUP3 ADD MSTORE PUSH1 0x60 PUSH1 0x0 DUP2 DUP4 ADD MSTORE PUSH1 0x0 PUSH1 0x80 DUP4 ADD MSTORE PUSH1 0xA0 DUP3 ADD MSTORE DUP3 DUP3 DUP7 ADD ADD MSTORE ADD PUSH3 0x995 JUMP JUMPDEST PUSH1 0x0 PUSH1 0x4 PUSH3 0xD82 DUP4 PUSH3 0xF9B JUMP JUMPDEST SWAP1 SLOAD PUSH1 0x40 MLOAD PUSH4 0xE0391B09 PUSH1 0xE0 SHL DUP2 MSTORE PUSH1 0x1 PUSH1 0x1 PUSH1 0xA0 SHL SUB SWAP5 SWAP1 SWAP4 SWAP1 SWAP3 DUP5 SWAP3 DUP4 SWAP2 PUSH1 0x3 SHL SHR DUP7 AND GAS STATICCALL PUSH1 0x0 SWAP2 DUP2 PUSH3 0xEE6 JUMPI JUMPDEST POP PUSH3 0xDCE JUMPI JUMPDEST POP POP PUSH3 0xDC8 SWAP1 PUSH3 0x1355 JUMP JUMPDEST PUSH3 0x95D JUMP JUMPDEST SWAP1 SWAP2 SWAP4 PUSH1 0x0 JUMPDEST DUP3 MLOAD DUP2 LT ISZERO PUSH3 0xED5 JUMPI PUSH1 0x80 PUSH3 0xDEC DUP3 DUP6 PUSH3 0x137B JUMP JUMPDEST MLOAD ADD MLOAD ISZERO ISZERO DUP1 PUSH3 0xEB9 JUMPI JUMPDEST PUSH3 0xE0F JUMPI JUMPDEST PUSH3 0xE09 SWAP1 PUSH3 0x1355 JUMP JUMPDEST PUSH3 0xDD4 JUMP JUMPDEST PUSH1 0x24 PUSH1 0x20 DUP6 PUSH1 0x60 PUSH3 0xE22 DUP6 DUP9 PUSH3 0x137B JUMP JUMPDEST MLOAD ADD MLOAD AND PUSH1 0x40 MLOAD SWAP3 DUP4 DUP1 SWAP3 PUSH4 0x6F34D9D5 PUSH1 0xE1 SHL DUP3 MSTORE DUP10 DUP14 AND PUSH1 0x4 DUP4 ADD MSTORE GAS STATICCALL PUSH1 0x0 SWAP2 DUP2 PUSH3 0xE7F JUMPI JUMPDEST POP PUSH3 0xE59 JUMPI JUMPDEST POP PUSH3 0xDFE JUMP JUMPDEST PUSH3 0xE66 JUMPI JUMPDEST DUP8 PUSH3 0xE52 JUMP JUMPDEST SWAP4 PUSH3 0xE76 PUSH3 0xE09 SWAP2 PUSH3 0x1355 JUMP JUMPDEST SWAP5 SWAP1 POP PUSH3 0xE5F JUMP JUMPDEST SWAP1 SWAP2 POP PUSH1 0x20 DUP2 RETURNDATASIZE PUSH1 0x20 GT PUSH3 0xEB0 JUMPI JUMPDEST DUP2 PUSH3 0xE9E PUSH1 0x20 SWAP4 DUP4 PUSH3 0x1138 JUMP JUMPDEST DUP2 ADD SUB SLT PUSH3 0x126 JUMPI MLOAD SWAP1 DUP10 PUSH3 0xE4B JUMP JUMPDEST RETURNDATASIZE SWAP2 POP PUSH3 0xE8F JUMP JUMPDEST POP DUP4 PUSH1 0x60 PUSH3 0xEC9 DUP4 DUP7 PUSH3 0x137B JUMP JUMPDEST MLOAD ADD MLOAD AND ISZERO ISZERO PUSH3 0xDF8 JUMP JUMPDEST POP SWAP4 SWAP2 POP PUSH3 0xDC8 SWAP1 POP DUP6 PUSH3 0xDBB JUMP JUMPDEST PUSH3 0xEFF SWAP2 SWAP3 POP RETURNDATASIZE DUP1 PUSH1 0x0 DUP4 RETURNDATACOPY PUSH3 0xC12 DUP2 DUP4 PUSH3 0x1138 JUMP JUMPDEST SWAP1 DUP8 PUSH3 0xDB4 JUMP JUMPDEST CALLVALUE PUSH3 0x126 JUMPI PUSH1 0x40 CALLDATASIZE PUSH1 0x3 NOT ADD SLT PUSH3 0x126 JUMPI PUSH3 0xF24 PUSH3 0xF84 JUMP JUMPDEST PUSH1 0x1 PUSH1 0x1 PUSH1 0xA0 SHL SUB AND PUSH1 0x0 SWAP1 DUP2 MSTORE PUSH1 0x3 PUSH1 0x20 MSTORE PUSH1 0x40 SWAP1 KECCAK256 DUP1 SLOAD PUSH1 0x24 CALLDATALOAD SWAP2 SWAP1 DUP3 LT ISZERO PUSH3 0x126 JUMPI PUSH1 0x20 SWAP2 PUSH3 0xF58 SWAP2 PUSH3 0xFE9 JUMP JUMPDEST SWAP1 SLOAD SWAP1 PUSH1 0x3 SHL SHR PUSH1 0x40 MLOAD SWAP1 DUP2 MSTORE RETURN JUMPDEST CALLVALUE PUSH3 0x126 JUMPI PUSH1 0x0 CALLDATASIZE PUSH1 0x3 NOT ADD SLT PUSH3 0x126 JUMPI PUSH1 0x20 SWAP1 PUSH1 0x1 SLOAD DUP2 MSTORE RETURN JUMPDEST PUSH1 0x4 CALLDATALOAD SWAP1 PUSH1 0x1 PUSH1 0x1 PUSH1 0xA0 SHL SUB DUP3 AND DUP3 SUB PUSH3 0x126 JUMPI JUMP JUMPDEST PUSH1 0x4 SLOAD DUP2 LT ISZERO PUSH3 0xFD3 JUMPI PUSH1 0x4 PUSH1 0x0 MSTORE PUSH32 0x8A35ACFBC15FF81A39AE7D344FD709F28E8600B4AA8C65C6B64BFE7FE36BD19B ADD SWAP1 PUSH1 0x0 SWAP1 JUMP JUMPDEST PUSH4 0x4E487B71 PUSH1 0xE0 SHL PUSH1 0x0 MSTORE PUSH1 0x32 PUSH1 0x4 MSTORE PUSH1 0x24 PUSH1 0x0 REVERT JUMPDEST DUP1 SLOAD DUP3 LT ISZERO PUSH3 0xFD3 JUMPI PUSH1 0x0 MSTORE PUSH1 0x20 PUSH1 0x0 KECCAK256 ADD SWAP1 PUSH1 0x0 SWAP1 JUMP JUMPDEST PUSH1 0x0 JUMPDEST DUP4 DUP2 LT PUSH3 0x1016 JUMPI POP POP PUSH1 0x0 SWAP2 ADD MSTORE JUMP JUMPDEST DUP2 DUP2 ADD MLOAD DUP4 DUP3 ADD MSTORE PUSH1 0x20 ADD PUSH3 0x1005 JUMP JUMPDEST SWAP1 PUSH1 0x20 SWAP2 PUSH3 0x1042 DUP2 MLOAD DUP1 SWAP3 DUP2 DUP6 MSTORE DUP6 DUP1 DUP7 ADD SWAP2 ADD PUSH3 0x1002 JUMP JUMPDEST PUSH1 0x1F ADD PUSH1 0x1F NOT AND ADD ADD SWAP1 JUMP JUMPDEST SWAP1 DUP2 MLOAD DUP2 MSTORE PUSH1 0x80 DUP1 PUSH3 0x1071 PUSH1 0x20 DUP6 ADD MLOAD PUSH1 0xA0 PUSH1 0x20 DUP7 ADD MSTORE PUSH1 0xA0 DUP6 ADD SWAP1 PUSH3 0x1027 JUMP JUMPDEST SWAP4 PUSH1 0x1 DUP1 PUSH1 0xA0 SHL SUB DUP1 PUSH1 0x40 DUP4 ADD MLOAD AND PUSH1 0x40 DUP7 ADD MSTORE PUSH1 0x60 DUP3 ADD MLOAD AND PUSH1 0x60 DUP6 ADD MSTORE ADD MLOAD SWAP2 ADD MSTORE SWAP1 JUMP JUMPDEST PUSH1 0x20 DUP1 DUP3 ADD SWAP1 DUP1 DUP4 MSTORE DUP4 MLOAD DUP1 SWAP3 MSTORE PUSH1 0x40 DUP4 ADD SWAP3 DUP2 PUSH1 0x40 DUP5 PUSH1 0x5 SHL DUP4 ADD ADD SWAP6 ADD SWAP4 PUSH1 0x0 SWAP2 JUMPDEST DUP5 DUP4 LT PUSH3 0x10CD JUMPI POP POP POP POP POP POP SWAP1 JUMP JUMPDEST SWAP1 SWAP2 SWAP3 SWAP4 SWAP5 SWAP6 DUP5 DUP1 PUSH3 0x10ED PUSH1 0x1 SWAP4 PUSH1 0x3F NOT DUP7 DUP3 SUB ADD DUP8 MSTORE DUP11 MLOAD PUSH3 0x104E JUMP JUMPDEST SWAP9 ADD SWAP4 ADD SWAP4 ADD SWAP2 SWAP5 SWAP4 SWAP3 SWAP1 PUSH3 0x10BC JUMP JUMPDEST PUSH1 0xC0 DUP2 ADD SWAP1 DUP2 LT PUSH8 0xFFFFFFFFFFFFFFFF DUP3 GT OR PUSH3 0x3E6 JUMPI PUSH1 0x40 MSTORE JUMP JUMPDEST PUSH1 0xA0 DUP2 ADD SWAP1 DUP2 LT PUSH8 0xFFFFFFFFFFFFFFFF DUP3 GT OR PUSH3 0x3E6 JUMPI PUSH1 0x40 MSTORE JUMP JUMPDEST SWAP1 PUSH1 0x1F DUP1 NOT SWAP2 ADD AND DUP2 ADD SWAP1 DUP2 LT PUSH8 0xFFFFFFFFFFFFFFFF DUP3 GT OR PUSH3 0x3E6 JUMPI PUSH1 0x40 MSTORE JUMP JUMPDEST PUSH8 0xFFFFFFFFFFFFFFFF DUP2 GT PUSH3 0x3E6 JUMPI PUSH1 0x1F ADD PUSH1 0x1F NOT AND PUSH1 0x20 ADD SWAP1 JUMP JUMPDEST DUP2 PUSH1 0x1F DUP3 ADD SLT ISZERO PUSH3 0x126 JUMPI DUP1 CALLDATALOAD SWAP1 PUSH3 0x1192 DUP3 PUSH3 0x115B JUMP JUMPDEST SWAP3 PUSH3 0x11A2 PUSH1 0x40 MLOAD SWAP5 DUP6 PUSH3 0x1138 JUMP JUMPDEST DUP3 DUP5 MSTORE PUSH1 0x20 DUP4 DUP4 ADD ADD GT PUSH3 0x126 JUMPI DUP2 PUSH1 0x0 SWAP3 PUSH1 0x20 DUP1 SWAP4 ADD DUP4 DUP7 ADD CALLDATACOPY DUP4 ADD ADD MSTORE SWAP1 JUMP JUMPDEST SWAP1 PUSH1 0x1 DUP3 DUP2 SHR SWAP3 AND DUP1 ISZERO PUSH3 0x11F7 JUMPI JUMPDEST PUSH1 0x20 DUP4 LT EQ PUSH3 0x11E1 JUMPI JUMP JUMPDEST PUSH4 0x4E487B71 PUSH1 0xE0 SHL PUSH1 0x0 MSTORE PUSH1 0x22 PUSH1 0x4 MSTORE PUSH1 0x24 PUSH1 0x0 REVERT JUMPDEST SWAP2 PUSH1 0x7F AND SWAP2 PUSH3 0x11D5 JUMP JUMPDEST SWAP1 PUSH1 0x40 MLOAD SWAP2 DUP3 PUSH1 0x0 DUP3 SLOAD SWAP3 PUSH3 0x1218 DUP5 PUSH3 0x11C5 JUMP JUMPDEST SWAP1 DUP2 DUP5 MSTORE PUSH1 0x1 SWAP5 DUP6 DUP2 AND SWAP1 DUP2 PUSH1 0x0 EQ PUSH3 0x128F JUMPI POP PUSH1 0x1 EQ PUSH3 0x1248 JUMPI JUMPDEST POP POP PUSH3 0x1246 SWAP3 POP SUB DUP4 PUSH3 0x1138 JUMP JUMPDEST JUMP JUMPDEST SWAP1 SWAP4 SWAP2 POP PUSH1 0x0 MSTORE PUSH1 0x20 SWAP1 DUP2 PUSH1 0x0 KECCAK256 SWAP4 PUSH1 0x0 SWAP2 JUMPDEST DUP2 DUP4 LT PUSH3 0x1276 JUMPI POP POP PUSH3 0x1246 SWAP4 POP DUP3 ADD ADD CODESIZE DUP1 PUSH3 0x1236 JUMP JUMPDEST DUP6 SLOAD DUP9 DUP5 ADD DUP6 ADD MSTORE SWAP5 DUP6 ADD SWAP5 DUP8 SWAP5 POP SWAP2 DUP4 ADD SWAP2 PUSH3 0x125B JUMP JUMPDEST SWAP2 POP POP PUSH3 0x1246 SWAP5 POP PUSH1 0x20 SWAP3 POP PUSH1 0xFF NOT AND DUP3 DUP5 ADD MSTORE ISZERO ISZERO PUSH1 0x5 SHL DUP3 ADD ADD CODESIZE DUP1 PUSH3 0x1236 JUMP JUMPDEST PUSH1 0x40 MLOAD SWAP1 PUSH3 0x12C3 DUP3 PUSH3 0x111B JUMP JUMPDEST PUSH1 0x0 PUSH1 0x80 DUP4 DUP3 DUP2 MSTORE PUSH1 0x60 PUSH1 0x20 DUP3 ADD MSTORE DUP3 PUSH1 0x40 DUP3 ADD MSTORE DUP3 PUSH1 0x60 DUP3 ADD MSTORE ADD MSTORE JUMP JUMPDEST PUSH8 0xFFFFFFFFFFFFFFFF DUP2 GT PUSH3 0x3E6 JUMPI PUSH1 0x5 SHL PUSH1 0x20 ADD SWAP1 JUMP JUMPDEST SWAP1 PUSH3 0x1307 DUP3 PUSH3 0x12E2 JUMP JUMPDEST PUSH3 0x1316 PUSH1 0x40 MLOAD SWAP2 DUP3 PUSH3 0x1138 JUMP JUMPDEST DUP3 DUP2 MSTORE DUP1 SWAP3 PUSH3 0x1329 PUSH1 0x1F NOT SWAP2 PUSH3 0x12E2 JUMP JUMPDEST ADD SWAP1 PUSH1 0x0 JUMPDEST DUP3 DUP2 LT PUSH3 0x133B JUMPI POP POP POP JUMP JUMPDEST PUSH1 0x20 SWAP1 PUSH3 0x1348 PUSH3 0x12B4 JUMP JUMPDEST DUP3 DUP3 DUP6 ADD ADD MSTORE ADD PUSH3 0x132E JUMP JUMPDEST PUSH1 0x0 NOT DUP2 EQ PUSH3 0x1365 JUMPI PUSH1 0x1 ADD SWAP1 JUMP JUMPDEST PUSH4 0x4E487B71 PUSH1 0xE0 SHL PUSH1 0x0 MSTORE PUSH1 0x11 PUSH1 0x4 MSTORE PUSH1 0x24 PUSH1 0x0 REVERT JUMPDEST DUP1 MLOAD DUP3 LT ISZERO PUSH3 0xFD3 JUMPI PUSH1 0x20 SWAP2 PUSH1 0x5 SHL ADD ADD SWAP1 JUMP JUMPDEST SWAP1 PUSH1 0x20 SWAP1 DUP2 DUP4 DUP3 SUB SLT PUSH3 0x126 JUMPI DUP3 MLOAD PUSH8 0xFFFFFFFFFFFFFFFF SWAP4 DUP5 DUP3 GT PUSH3 0x126 JUMPI ADD SWAP1 DUP1 PUSH1 0x1F DUP4 ADD SLT ISZERO PUSH3 0x126 JUMPI DUP2 MLOAD PUSH3 0x13CD DUP2 PUSH3 0x12E2 JUMP JUMPDEST SWAP5 PUSH1 0x40 SWAP3 PUSH3 0x13DF DUP5 MLOAD SWAP8 DUP9 PUSH3 0x1138 JUMP JUMPDEST DUP3 DUP8 MSTORE DUP6 DUP1 DUP9 ADD SWAP4 PUSH1 0x5 SHL DUP7 ADD ADD SWAP5 DUP2 DUP7 GT PUSH3 0x126 JUMPI DUP7 DUP2 ADD SWAP4 JUMPDEST DUP7 DUP6 LT PUSH3 0x140E JUMPI POP POP POP POP POP POP POP POP SWAP1 JUMP JUMPDEST DUP5 MLOAD DUP5 DUP2 GT PUSH3 0x126 JUMPI DUP3 ADD PUSH1 0xA0 SWAP2 DUP3 PUSH1 0x1F NOT DUP4 DUP8 SUB ADD SLT PUSH3 0x126 JUMPI DUP8 MLOAD SWAP3 PUSH3 0x1439 DUP5 PUSH3 0x111B JUMP JUMPDEST DUP11 DUP4 ADD MLOAD DUP5 MSTORE DUP9 DUP4 ADD MLOAD DUP8 DUP2 GT PUSH3 0x126 JUMPI DUP4 ADD DUP7 PUSH1 0x3F DUP3 ADD SLT ISZERO PUSH3 0x126 JUMPI DUP12 DUP2 ADD MLOAD SWAP1 PUSH3 0x1469 DUP3 PUSH3 0x115B JUMP JUMPDEST SWAP2 PUSH3 0x1478 DUP13 MLOAD SWAP4 DUP5 PUSH3 0x1138 JUMP JUMPDEST DUP1 DUP4 MSTORE DUP9 DUP13 DUP3 DUP5 ADD ADD GT PUSH3 0x126 JUMPI PUSH3 0x1498 SWAP2 DUP13 DUP16 DUP6 ADD SWAP2 ADD PUSH3 0x1002 JUMP JUMPDEST DUP5 DUP13 ADD MSTORE PUSH1 0x60 DUP4 DUP2 ADD MLOAD DUP11 DUP7 ADD MSTORE PUSH1 0x80 DUP1 DUP6 ADD MLOAD SWAP1 SWAP5 SWAP2 PUSH1 0x1 PUSH1 0x1 PUSH1 0xA0 SHL SUB DUP3 AND DUP3 SUB PUSH3 0x126 JUMPI DUP7 ADD MSTORE ADD MLOAD SWAP3 DUP4 ISZERO ISZERO DUP5 SUB PUSH3 0x126 JUMPI DUP11 SWAP4 DUP5 SWAP4 DUP3 ADD MSTORE DUP2 MSTORE ADD SWAP5 ADD SWAP4 PUSH3 0x13FB JUMP INVALID PUSH1 0x80 PUSH1 0x40 MSTORE CALLVALUE PUSH3 0x4DE JUMPI PUSH3 0x49D2 DUP1 CODESIZE SUB DUP1 PUSH3 0x1D DUP2 PUSH3 0x4E3 JUMP JUMPDEST SWAP3 DUP4 CODECOPY DUP2 ADD SWAP1 PUSH1 0xA0 DUP2 DUP4 SUB SLT PUSH3 0x4DE JUMPI DUP1 MLOAD PUSH1 0x1 PUSH1 0x1 PUSH1 0x40 SHL SUB SWAP3 SWAP1 DUP4 DUP2 GT PUSH3 0x4DE JUMPI DUP2 PUSH3 0x50 SWAP2 DUP5 ADD PUSH3 0x509 JUMP JUMPDEST SWAP3 PUSH1 0x20 DUP1 DUP5 ADD MLOAD DUP3 DUP2 GT PUSH3 0x4DE JUMPI DUP4 PUSH3 0x6D SWAP2 DUP7 ADD PUSH3 0x509 JUMP JUMPDEST SWAP3 PUSH1 0x40 DUP6 ADD MLOAD SWAP1 DUP4 DUP3 GT PUSH3 0x4DE JUMPI PUSH3 0x89 SWAP2 DUP7 ADD PUSH3 0x509 JUMP JUMPDEST PUSH3 0xA5 PUSH1 0x80 PUSH3 0x9D PUSH1 0x60 DUP9 ADD PUSH3 0x57B JUMP JUMPDEST SWAP7 ADD PUSH3 0x57B JUMP JUMPDEST SWAP4 DUP7 MLOAD SWAP3 DUP5 DUP5 GT PUSH3 0x4C8 JUMPI PUSH1 0x0 SWAP2 DUP3 SLOAD SWAP5 PUSH1 0x1 SWAP10 DUP11 DUP8 DUP2 SHR SWAP8 AND DUP1 ISZERO PUSH3 0x4BD JUMPI JUMPDEST DUP5 DUP9 LT EQ PUSH3 0x3BE JUMPI DUP2 SWAP1 PUSH1 0x1F SWAP8 DUP9 DUP2 GT PUSH3 0x46A JUMPI JUMPDEST POP DUP5 SWAP1 DUP9 DUP4 GT PUSH1 0x1 EQ PUSH3 0x3FD JUMPI DUP7 SWAP3 PUSH3 0x3F1 JUMPI JUMPDEST POP POP PUSH1 0x0 NOT PUSH1 0x3 DUP4 SWAP1 SHL SHR NOT AND SWAP1 DUP11 SHL OR DUP4 SSTORE JUMPDEST DUP1 MLOAD SWAP1 DUP7 DUP3 GT PUSH3 0x3DD JUMPI DUP10 SLOAD DUP11 DUP2 DUP2 SHR SWAP2 AND DUP1 ISZERO PUSH3 0x3D2 JUMPI JUMPDEST DUP5 DUP3 LT EQ PUSH3 0x3BE JUMPI SWAP1 DUP2 DUP8 DUP5 SWAP4 GT PUSH3 0x36B JUMPI JUMPDEST POP DUP4 SWAP1 DUP8 DUP4 GT PUSH1 0x1 EQ PUSH3 0x307 JUMPI DUP6 SWAP3 PUSH3 0x2FB JUMPI JUMPDEST POP POP PUSH1 0x0 NOT PUSH1 0x3 DUP4 SWAP1 SHL SHR NOT AND SWAP1 DUP10 SHL OR DUP9 SSTORE JUMPDEST PUSH3 0x16E CALLER PUSH3 0x590 JUMP JUMPDEST DUP8 PUSH1 0x8 SSTORE DUP3 MLOAD SWAP5 DUP6 GT PUSH3 0x2E7 JUMPI PUSH1 0xA SLOAD DUP9 DUP2 DUP2 SHR SWAP2 AND DUP1 ISZERO PUSH3 0x2DC JUMPI JUMPDEST DUP3 DUP3 LT EQ PUSH3 0x2C8 JUMPI DUP5 DUP2 GT PUSH3 0x27F JUMPI JUMPDEST POP DUP1 SWAP4 DUP6 GT PUSH1 0x1 EQ PUSH3 0x212 JUMPI POP PUSH3 0x1F6 SWAP7 SWAP1 SWAP3 DUP5 SWAP3 DUP4 PUSH3 0x206 JUMPI JUMPDEST POP POP SHL SWAP2 PUSH1 0x0 NOT SWAP1 PUSH1 0x3 SHL SHR NOT AND OR PUSH1 0xA SSTORE JUMPDEST PUSH1 0xB DUP1 SLOAD PUSH1 0x1 PUSH1 0x1 PUSH1 0xA0 SHL SUB NOT AND PUSH1 0x1 PUSH1 0x1 PUSH1 0xA0 SHL SUB SWAP3 SWAP1 SWAP3 AND SWAP2 SWAP1 SWAP2 OR SWAP1 SSTORE PUSH3 0x590 JUMP JUMPDEST PUSH1 0x40 MLOAD PUSH2 0x43F8 SWAP1 DUP2 PUSH3 0x5DA DUP3 CODECOPY RETURN JUMPDEST ADD MLOAD SWAP3 POP CODESIZE DUP1 PUSH3 0x1BD JUMP JUMPDEST SWAP7 SWAP4 SWAP3 SWAP1 SWAP2 PUSH1 0x1F NOT DUP5 AND SWAP8 PUSH1 0xA DUP5 MSTORE DUP1 DUP5 KECCAK256 SWAP4 SWAP1 JUMPDEST DUP10 DUP3 LT PUSH3 0x267 JUMPI POP POP DUP4 PUSH3 0x1F6 SWAP9 LT PUSH3 0x24D JUMPI JUMPDEST POP POP POP DUP2 SHL ADD PUSH1 0xA SSTORE PUSH3 0x1D0 JUMP JUMPDEST ADD MLOAD PUSH1 0x0 NOT PUSH1 0xF8 DUP5 PUSH1 0x3 SHL AND SHR NOT AND SWAP1 SSTORE CODESIZE DUP1 DUP1 PUSH3 0x23E JUMP JUMPDEST DUP1 DUP8 DUP6 SWAP7 DUP3 SWAP5 SWAP7 DUP7 ADD MLOAD DUP2 SSTORE ADD SWAP6 ADD SWAP4 ADD SWAP1 PUSH3 0x227 JUMP JUMPDEST PUSH1 0xA DUP4 MSTORE DUP2 DUP4 KECCAK256 DUP6 DUP1 DUP9 ADD PUSH1 0x5 SHR DUP3 ADD SWAP3 DUP5 DUP10 LT PUSH3 0x2BE JUMPI JUMPDEST ADD PUSH1 0x5 SHR ADD SWAP1 DUP10 SWAP1 JUMPDEST DUP3 DUP2 LT PUSH3 0x2B2 JUMPI POP POP PUSH3 0x19F JUMP JUMPDEST DUP5 DUP2 SSTORE ADD DUP10 SWAP1 PUSH3 0x2A2 JUMP JUMPDEST SWAP3 POP DUP2 SWAP3 PUSH3 0x299 JUMP JUMPDEST PUSH4 0x4E487B71 PUSH1 0xE0 SHL DUP4 MSTORE PUSH1 0x22 PUSH1 0x4 MSTORE PUSH1 0x24 DUP4 REVERT JUMPDEST SWAP1 PUSH1 0x7F AND SWAP1 PUSH3 0x18D JUMP JUMPDEST PUSH4 0x4E487B71 PUSH1 0xE0 SHL DUP3 MSTORE PUSH1 0x41 PUSH1 0x4 MSTORE PUSH1 0x24 DUP3 REVERT JUMPDEST ADD MLOAD SWAP1 POP CODESIZE DUP1 PUSH3 0x14F JUMP JUMPDEST DUP12 DUP7 MSTORE DUP5 DUP7 KECCAK256 DUP13 SWAP5 POP SWAP2 SWAP1 PUSH1 0x1F NOT DUP5 AND DUP8 JUMPDEST DUP8 DUP3 DUP3 LT PUSH3 0x354 JUMPI POP POP DUP5 GT PUSH3 0x33A JUMPI JUMPDEST POP POP POP DUP2 SHL ADD DUP9 SSTORE PUSH3 0x163 JUMP JUMPDEST ADD MLOAD PUSH1 0x0 NOT PUSH1 0xF8 DUP5 PUSH1 0x3 SHL AND SHR NOT AND SWAP1 SSTORE CODESIZE DUP1 DUP1 PUSH3 0x32C JUMP JUMPDEST DUP4 DUP6 ADD MLOAD DUP7 SSTORE DUP16 SWAP8 SWAP1 SWAP6 ADD SWAP5 SWAP4 DUP5 ADD SWAP4 ADD PUSH3 0x319 JUMP JUMPDEST SWAP1 SWAP2 POP DUP11 DUP6 MSTORE DUP4 DUP6 KECCAK256 DUP8 DUP1 DUP6 ADD PUSH1 0x5 SHR DUP3 ADD SWAP3 DUP7 DUP7 LT PUSH3 0x3B4 JUMPI JUMPDEST SWAP2 DUP14 SWAP2 DUP7 SWAP6 SWAP5 SWAP4 ADD PUSH1 0x5 SHR ADD SWAP2 JUMPDEST DUP3 DUP2 LT PUSH3 0x3A5 JUMPI POP POP PUSH3 0x139 JUMP JUMPDEST DUP8 DUP2 SSTORE DUP6 SWAP5 POP DUP14 SWAP2 ADD PUSH3 0x395 JUMP JUMPDEST SWAP3 POP DUP2 SWAP3 PUSH3 0x387 JUMP JUMPDEST PUSH4 0x4E487B71 PUSH1 0xE0 SHL DUP6 MSTORE PUSH1 0x22 PUSH1 0x4 MSTORE PUSH1 0x24 DUP6 REVERT JUMPDEST SWAP1 PUSH1 0x7F AND SWAP1 PUSH3 0x124 JUMP JUMPDEST PUSH4 0x4E487B71 PUSH1 0xE0 SHL DUP5 MSTORE PUSH1 0x41 PUSH1 0x4 MSTORE PUSH1 0x24 DUP5 REVERT JUMPDEST ADD MLOAD SWAP1 POP CODESIZE DUP1 PUSH3 0xF5 JUMP JUMPDEST DUP7 DUP1 MSTORE DUP6 DUP8 KECCAK256 DUP14 SWAP5 POP SWAP2 SWAP1 PUSH1 0x1F NOT DUP5 AND DUP9 JUMPDEST DUP9 DUP3 DUP3 LT PUSH3 0x44A JUMPI POP POP DUP5 GT PUSH3 0x430 JUMPI JUMPDEST POP POP POP DUP2 SHL ADD DUP4 SSTORE PUSH3 0x109 JUMP JUMPDEST ADD MLOAD PUSH1 0x0 NOT PUSH1 0xF8 DUP5 PUSH1 0x3 SHL AND SHR NOT AND SWAP1 SSTORE CODESIZE DUP1 DUP1 PUSH3 0x422 JUMP JUMPDEST SWAP2 SWAP3 SWAP4 SWAP6 SWAP7 DUP3 SWAP2 SWAP6 DUP8 DUP7 ADD MLOAD DUP2 SSTORE ADD SWAP6 ADD SWAP4 ADD SWAP1 DUP15 SWAP6 SWAP5 SWAP4 SWAP3 SWAP2 PUSH3 0x40F JUMP JUMPDEST SWAP1 SWAP2 POP DUP6 DUP1 MSTORE DUP5 DUP7 KECCAK256 DUP9 DUP1 DUP6 ADD PUSH1 0x5 SHR DUP3 ADD SWAP3 DUP8 DUP7 LT PUSH3 0x4B3 JUMPI JUMPDEST SWAP2 DUP15 SWAP2 DUP7 SWAP6 SWAP5 SWAP4 ADD PUSH1 0x5 SHR ADD SWAP2 JUMPDEST DUP3 DUP2 LT PUSH3 0x4A4 JUMPI POP POP PUSH3 0xDF JUMP JUMPDEST DUP9 DUP2 SSTORE DUP6 SWAP5 POP DUP15 SWAP2 ADD PUSH3 0x494 JUMP JUMPDEST SWAP3 POP DUP2 SWAP3 PUSH3 0x486 JUMP JUMPDEST SWAP7 PUSH1 0x7F AND SWAP7 PUSH3 0xC8 JUMP JUMPDEST PUSH4 0x4E487B71 PUSH1 0xE0 SHL PUSH1 0x0 MSTORE PUSH1 0x41 PUSH1 0x4 MSTORE PUSH1 0x24 PUSH1 0x0 REVERT JUMPDEST PUSH1 0x0 DUP1 REVERT JUMPDEST PUSH1 0x40 MLOAD SWAP2 SWAP1 PUSH1 0x1F ADD PUSH1 0x1F NOT AND DUP3 ADD PUSH1 0x1 PUSH1 0x1 PUSH1 0x40 SHL SUB DUP2 GT DUP4 DUP3 LT OR PUSH3 0x4C8 JUMPI PUSH1 0x40 MSTORE JUMP JUMPDEST SWAP2 SWAP1 DUP1 PUSH1 0x1F DUP5 ADD SLT ISZERO PUSH3 0x4DE JUMPI DUP3 MLOAD PUSH1 0x1 PUSH1 0x1 PUSH1 0x40 SHL SUB DUP2 GT PUSH3 0x4C8 JUMPI PUSH1 0x20 SWAP1 PUSH3 0x53F PUSH1 0x1F DUP3 ADD PUSH1 0x1F NOT AND DUP4 ADD PUSH3 0x4E3 JUMP JUMPDEST SWAP3 DUP2 DUP5 MSTORE DUP3 DUP3 DUP8 ADD ADD GT PUSH3 0x4DE JUMPI PUSH1 0x0 JUMPDEST DUP2 DUP2 LT PUSH3 0x567 JUMPI POP DUP3 PUSH1 0x0 SWAP4 SWAP5 SWAP6 POP ADD ADD MSTORE SWAP1 JUMP JUMPDEST DUP6 DUP2 ADD DUP4 ADD MLOAD DUP5 DUP3 ADD DUP5 ADD MSTORE DUP3 ADD PUSH3 0x551 JUMP JUMPDEST MLOAD SWAP1 PUSH1 0x1 PUSH1 0x1 PUSH1 0xA0 SHL SUB DUP3 AND DUP3 SUB PUSH3 0x4DE JUMPI JUMP JUMPDEST PUSH1 0x7 DUP1 SLOAD PUSH1 0x1 PUSH1 0x1 PUSH1 0xA0 SHL SUB SWAP3 DUP4 AND PUSH1 0x1 PUSH1 0x1 PUSH1 0xA0 SHL SUB NOT DUP3 AND DUP2 OR SWAP1 SWAP3 SSTORE SWAP1 SWAP2 AND PUSH32 0x8BE0079C531659141344CD1FD0A4F28419497F9722A3DAAFE3B4186F6B6457E0 PUSH1 0x0 DUP1 LOG3 JUMP INVALID PUSH1 0x80 DUP1 PUSH1 0x40 MSTORE PUSH1 0x4 CALLDATASIZE LT ISZERO PUSH3 0x14 JUMPI PUSH1 0x0 DUP1 REVERT JUMPDEST PUSH1 0x0 CALLDATALOAD PUSH1 0xE0 SHR SWAP1 DUP2 PUSH4 0x1FFC9A7 EQ PUSH3 0x170E JUMPI POP DUP1 PUSH4 0x6FDDE03 EQ PUSH3 0x165E JUMPI DUP1 PUSH4 0x81812FC EQ PUSH3 0x163C JUMPI DUP1 PUSH4 0x95EA7B3 EQ PUSH3 0x14B6 JUMPI DUP1 PUSH4 0xAF2C6CA EQ PUSH3 0x13A0 JUMPI DUP1 PUSH4 0x23B872DD EQ PUSH3 0x1484 JUMPI DUP1 PUSH4 0x265AA621 EQ PUSH3 0x13EF JUMPI DUP1 PUSH4 0x42842E0E EQ PUSH3 0x13C0 JUMPI DUP1 PUSH4 0x54279637 EQ PUSH3 0x13A0 JUMPI DUP1 PUSH4 0x576F7EA7 EQ PUSH3 0x12DD JUMPI DUP1 PUSH4 0x5894BD51 EQ PUSH3 0x124D JUMPI DUP1 PUSH4 0x5BA80965 EQ PUSH3 0xF2B JUMPI DUP1 PUSH4 0x6352211E EQ PUSH3 0xEF7 JUMPI DUP1 PUSH4 0x6D6A18F1 EQ PUSH3 0xDBB JUMPI DUP1 PUSH4 0x70A08231 EQ PUSH3 0xD1F JUMPI DUP1 PUSH4 0x715018A6 EQ PUSH3 0xCBE JUMPI DUP1 PUSH4 0x7400DEAB EQ PUSH3 0xC0B JUMPI DUP1 PUSH4 0x8DA5CB5B EQ PUSH3 0xBE0 JUMPI DUP1 PUSH4 0x95D89B41 EQ PUSH3 0xAF1 JUMPI DUP1 PUSH4 0xA22CB465 EQ PUSH3 0xA19 JUMPI DUP1 PUSH4 0xB88D4FDE EQ PUSH3 0x9AB JUMPI DUP1 PUSH4 0xC87B56DD EQ PUSH3 0x91C JUMPI DUP1 PUSH4 0xD63843CD EQ PUSH3 0x8F1 JUMPI DUP1 PUSH4 0xE0391B09 EQ PUSH3 0x7D2 JUMPI DUP1 PUSH4 0xE985E9C5 EQ PUSH3 0x776 JUMPI DUP1 PUSH4 0xF2FDE38B EQ PUSH3 0x6AB JUMPI PUSH4 0xFB37E883 EQ PUSH3 0x164 JUMPI PUSH1 0x0 DUP1 REVERT JUMPDEST CALLVALUE PUSH3 0x6A6 JUMPI PUSH1 0x20 CALLDATASIZE PUSH1 0x3 NOT ADD SLT PUSH3 0x6A6 JUMPI PUSH1 0x4 CALLDATALOAD PUSH8 0xFFFFFFFFFFFFFFFF DUP2 GT PUSH3 0x6A6 JUMPI PUSH3 0x19A SWAP1 CALLDATASIZE SWAP1 PUSH1 0x4 ADD PUSH3 0x1A20 JUMP JUMPDEST PUSH3 0x1A4 PUSH3 0x1AA7 JUMP JUMPDEST PUSH1 0x9 DUP1 SLOAD PUSH1 0x1 DUP2 ADD SWAP1 SWAP2 SSTORE PUSH1 0x7 SLOAD PUSH1 0x1 PUSH1 0x1 PUSH1 0xA0 SHL SUB AND DUP1 ISZERO PUSH3 0x662 JUMPI PUSH1 0x0 DUP3 DUP2 MSTORE PUSH1 0x2 PUSH1 0x20 MSTORE PUSH1 0x40 SWAP1 KECCAK256 SLOAD DUP3 SWAP2 SWAP1 PUSH3 0x1EC SWAP1 PUSH1 0x1 PUSH1 0x1 PUSH1 0xA0 SHL SUB AND ISZERO ISZERO JUMPDEST ISZERO PUSH3 0x2001 JUMP JUMPDEST PUSH1 0x0 DUP3 DUP2 MSTORE PUSH1 0x2 PUSH1 0x20 MSTORE PUSH1 0x40 SWAP1 KECCAK256 SLOAD PUSH3 0x211 SWAP1 PUSH1 0x1 PUSH1 0x1 PUSH1 0xA0 SHL SUB AND ISZERO ISZERO PUSH3 0x1E5 JUMP JUMPDEST DUP1 PUSH1 0x0 MSTORE PUSH1 0x3 PUSH1 0x20 MSTORE PUSH1 0x40 PUSH1 0x0 KECCAK256 PUSH1 0x1 DUP2 SLOAD ADD SWAP1 SSTORE DUP2 PUSH1 0x0 MSTORE PUSH1 0x2 PUSH1 0x20 MSTORE PUSH1 0x40 PUSH1 0x0 KECCAK256 DUP2 PUSH1 0x1 PUSH1 0x1 PUSH1 0x60 SHL SUB PUSH1 0xA0 SHL DUP3 SLOAD AND OR SWAP1 SSTORE PUSH1 0x0 PUSH32 0xDDF252AD1BE2C89B69C2B068FC378DAA952BA7F163C4A11628F55A4DF523B3EF DUP2 DUP1 LOG4 PUSH1 0x0 DUP2 DUP2 MSTORE PUSH1 0x2 PUSH1 0x20 MSTORE PUSH1 0x40 SWAP1 KECCAK256 SLOAD PUSH1 0x1 PUSH1 0x1 PUSH1 0xA0 SHL SUB AND ISZERO PUSH3 0x606 JUMPI DUP1 PUSH1 0x0 MSTORE PUSH1 0x6 PUSH1 0x20 MSTORE PUSH1 0x40 PUSH1 0x0 KECCAK256 DUP3 MLOAD PUSH8 0xFFFFFFFFFFFFFFFF DUP2 GT PUSH3 0x52B JUMPI PUSH3 0x2B6 DUP3 SLOAD PUSH3 0x1844 JUMP JUMPDEST PUSH1 0x1F DUP2 GT PUSH3 0x5B9 JUMPI JUMPDEST POP DUP1 PUSH1 0x20 PUSH1 0x1F DUP3 GT PUSH1 0x1 EQ PUSH3 0x54D JUMPI PUSH1 0x0 SWAP2 PUSH3 0x541 JUMPI JUMPDEST POP DUP2 PUSH1 0x1 SHL SWAP2 PUSH1 0x0 NOT SWAP1 PUSH1 0x3 SHL SHR NOT AND OR SWAP1 SSTORE JUMPDEST PUSH32 0xF8E1A15ABA9398E019F0B49DF1A4FDE98EE17AE345CB5F6B5E2C27F5033E8CE7 PUSH1 0x20 PUSH1 0x40 MLOAD DUP4 DUP2 MSTORE LOG1 PUSH1 0x40 MLOAD SWAP2 PUSH3 0x326 DUP4 PUSH3 0x191F JUMP JUMPDEST DUP2 DUP4 MSTORE PUSH1 0x20 DUP4 ADD SWAP3 DUP2 DUP5 MSTORE TIMESTAMP PUSH1 0x40 DUP3 ADD MSTORE PUSH1 0x0 PUSH1 0x60 DUP3 ADD MSTORE PUSH1 0x0 PUSH1 0x80 DUP3 ADD MSTORE DUP3 PUSH1 0x0 MSTORE PUSH1 0xC PUSH1 0x20 MSTORE PUSH1 0x40 PUSH1 0x0 KECCAK256 SWAP4 DUP2 MLOAD DUP6 SSTORE MLOAD SWAP4 DUP5 MLOAD PUSH8 0xFFFFFFFFFFFFFFFF DUP2 GT PUSH3 0x52B JUMPI PUSH3 0x37B PUSH1 0x1 DUP4 ADD SLOAD PUSH3 0x1844 JUMP JUMPDEST SWAP6 PUSH1 0x1F DUP8 GT PUSH3 0x4DF JUMPI JUMPDEST PUSH1 0x20 SWAP7 POP DUP7 SWAP1 PUSH1 0x1F DUP4 GT PUSH1 0x1 EQ PUSH3 0x46A JUMPI PUSH1 0x3 SWAP4 SWAP3 SWAP2 PUSH1 0x0 SWAP2 DUP4 PUSH3 0x45E JUMPI JUMPDEST POP POP PUSH1 0x0 NOT DUP3 DUP6 SHL SHR NOT AND PUSH1 0x1 SWAP2 DUP3 SHL OR SWAP1 DUP3 ADD SSTORE JUMPDEST PUSH1 0x40 DUP4 ADD MLOAD PUSH1 0x2 DUP3 ADD SSTORE ADD SWAP1 PUSH1 0x1 DUP1 PUSH1 0xA0 SHL SUB PUSH1 0x60 DUP3 ADD MLOAD AND DUP3 SLOAD SWAP2 PUSH1 0x80 PUSH1 0xFF PUSH1 0xA0 SHL SWAP2 ADD MLOAD ISZERO ISZERO PUSH1 0xA0 SHL AND SWAP2 PUSH11 0xFFFFFFFFFFFFFFFFFFFFFF PUSH1 0xA8 SHL AND OR OR SWAP1 SSTORE PUSH3 0x40B PUSH1 0xD SLOAD PUSH3 0x1FDB JUMP JUMPDEST PUSH1 0xD SSTORE DUP2 PUSH32 0x411B345259A1495602CEE098E5F501EB3412E0701C10B173ECD8BA7B585974A9 PUSH3 0x453 PUSH1 0x1 DUP1 PUSH1 0xA0 SHL SUB PUSH1 0x7 SLOAD AND SWAP4 PUSH1 0x40 MLOAD SWAP2 DUP3 SWAP2 DUP9 DUP4 MSTORE DUP9 DUP4 ADD SWAP1 PUSH3 0x179C JUMP JUMPDEST SUB SWAP1 LOG3 PUSH1 0x40 MLOAD SWAP1 DUP2 MSTORE RETURN JUMPDEST ADD MLOAD SWAP1 POP CODESIZE DUP1 PUSH3 0x3A7 JUMP JUMPDEST SWAP1 PUSH1 0x1 DUP5 ADD PUSH1 0x0 MSTORE DUP8 PUSH1 0x0 KECCAK256 SWAP2 PUSH1 0x0 JUMPDEST PUSH1 0x1F NOT DUP6 AND DUP2 LT PUSH3 0x4C7 JUMPI POP SWAP2 DUP4 SWAP2 PUSH1 0x1 SWAP4 PUSH1 0x3 SWAP7 SWAP6 PUSH1 0x1F NOT DUP2 AND LT PUSH3 0x4AE JUMPI JUMPDEST POP POP POP DUP2 SHL ADD PUSH1 0x1 DUP3 ADD SSTORE PUSH3 0x3BD JUMP JUMPDEST ADD MLOAD PUSH1 0x0 NOT DUP4 DUP8 SHL PUSH1 0xF8 AND SHR NOT AND SWAP1 SSTORE CODESIZE DUP1 DUP1 PUSH3 0x49D JUMP JUMPDEST SWAP2 SWAP3 DUP10 PUSH1 0x1 DUP2 SWAP3 DUP7 DUP6 ADD MLOAD DUP2 SSTORE ADD SWAP5 ADD SWAP3 ADD PUSH3 0x47A JUMP JUMPDEST PUSH1 0x1 DUP4 ADD PUSH1 0x0 MSTORE PUSH1 0x20 PUSH1 0x0 KECCAK256 PUSH1 0x1F DUP4 ADD PUSH1 0x5 SHR DUP2 ADD PUSH1 0x20 DUP5 LT PUSH3 0x523 JUMPI JUMPDEST PUSH1 0x1F DUP10 ADD PUSH1 0x5 SHR DUP3 ADD DUP2 LT PUSH3 0x516 JUMPI POP POP PUSH3 0x386 JUMP JUMPDEST PUSH1 0x0 DUP2 SSTORE PUSH1 0x1 ADD PUSH3 0x4FE JUMP JUMPDEST POP DUP1 PUSH3 0x4FE JUMP JUMPDEST PUSH4 0x4E487B71 PUSH1 0xE0 SHL PUSH1 0x0 MSTORE PUSH1 0x41 PUSH1 0x4 MSTORE PUSH1 0x24 PUSH1 0x0 REVERT JUMPDEST SWAP1 POP DUP5 ADD MLOAD CODESIZE PUSH3 0x2D9 JUMP JUMPDEST SWAP2 POP DUP3 PUSH1 0x0 MSTORE PUSH1 0x20 PUSH1 0x0 KECCAK256 PUSH1 0x0 SWAP3 JUMPDEST PUSH1 0x1F NOT DUP4 AND DUP5 LT PUSH3 0x5A0 JUMPI PUSH1 0x1 SWAP4 POP DUP3 PUSH1 0x1F NOT DUP2 AND LT PUSH3 0x586 JUMPI JUMPDEST POP POP DUP2 SHL ADD SWAP1 SSTORE PUSH3 0x2ED JUMP JUMPDEST DUP7 ADD MLOAD PUSH1 0x0 NOT PUSH1 0xF8 DUP5 PUSH1 0x3 SHL AND SHR NOT AND SWAP1 SSTORE CODESIZE DUP1 PUSH3 0x579 JUMP JUMPDEST DUP7 DUP2 ADD MLOAD DUP3 SSTORE PUSH1 0x20 SWAP4 DUP5 ADD SWAP4 PUSH1 0x1 SWAP1 SWAP3 ADD SWAP2 ADD PUSH3 0x55C JUMP JUMPDEST DUP3 PUSH1 0x0 MSTORE PUSH1 0x20 PUSH1 0x0 KECCAK256 PUSH1 0x1F DUP4 ADD PUSH1 0x5 SHR DUP2 ADD SWAP2 PUSH1 0x20 DUP5 LT PUSH3 0x5FB JUMPI JUMPDEST PUSH1 0x1F ADD PUSH1 0x5 SHR ADD SWAP1 JUMPDEST DUP2 DUP2 LT PUSH3 0x5EE JUMPI POP PUSH3 0x2C0 JUMP JUMPDEST PUSH1 0x0 DUP2 SSTORE PUSH1 0x1 ADD PUSH3 0x5DF JUMP JUMPDEST SWAP1 SWAP2 POP DUP2 SWAP1 PUSH3 0x5D6 JUMP JUMPDEST PUSH1 0x40 MLOAD PUSH3 0x461BCD PUSH1 0xE5 SHL DUP2 MSTORE PUSH1 0x20 PUSH1 0x4 DUP3 ADD MSTORE PUSH1 0x2E PUSH1 0x24 DUP3 ADD MSTORE PUSH32 0x45524337323155524953746F726167653A2055524920736574206F66206E6F6E PUSH1 0x44 DUP3 ADD MSTORE PUSH14 0x32BC34B9BA32B73A103A37B5B2B7 PUSH1 0x91 SHL PUSH1 0x64 DUP3 ADD MSTORE PUSH1 0x84 SWAP1 REVERT JUMPDEST PUSH1 0x64 PUSH1 0x40 MLOAD PUSH3 0x461BCD PUSH1 0xE5 SHL DUP2 MSTORE PUSH1 0x20 PUSH1 0x4 DUP3 ADD MSTORE PUSH1 0x20 PUSH1 0x24 DUP3 ADD MSTORE PUSH32 0x4552433732313A206D696E7420746F20746865207A65726F2061646472657373 PUSH1 0x44 DUP3 ADD MSTORE REVERT JUMPDEST PUSH1 0x0 DUP1 REVERT JUMPDEST CALLVALUE PUSH3 0x6A6 JUMPI PUSH1 0x20 CALLDATASIZE PUSH1 0x3 NOT ADD SLT PUSH3 0x6A6 JUMPI PUSH3 0x6C8 PUSH3 0x17DE JUMP JUMPDEST PUSH3 0x6D2 PUSH3 0x1AA7 JUMP JUMPDEST PUSH1 0x1 PUSH1 0x1 PUSH1 0xA0 SHL SUB SWAP1 DUP2 AND SWAP1 DUP2 ISZERO PUSH3 0x722 JUMPI PUSH1 0x7 SLOAD DUP3 PUSH1 0x1 PUSH1 0x1 PUSH1 0x60 SHL SUB PUSH1 0xA0 SHL DUP3 AND OR PUSH1 0x7 SSTORE AND PUSH32 0x8BE0079C531659141344CD1FD0A4F28419497F9722A3DAAFE3B4186F6B6457E0 PUSH1 0x0 DUP1 LOG3 STOP JUMPDEST PUSH1 0x40 MLOAD PUSH3 0x461BCD PUSH1 0xE5 SHL DUP2 MSTORE PUSH1 0x20 PUSH1 0x4 DUP3 ADD MSTORE PUSH1 0x26 PUSH1 0x24 DUP3 ADD MSTORE PUSH32 0x4F776E61626C653A206E6577206F776E657220697320746865207A65726F2061 PUSH1 0x44 DUP3 ADD MSTORE PUSH6 0x646472657373 PUSH1 0xD0 SHL PUSH1 0x64 DUP3 ADD MSTORE PUSH1 0x84 SWAP1 REVERT JUMPDEST CALLVALUE PUSH3 0x6A6 JUMPI PUSH1 0x40 CALLDATASIZE PUSH1 0x3 NOT ADD SLT PUSH3 0x6A6 JUMPI PUSH3 0x793 PUSH3 0x17DE JUMP JUMPDEST PUSH3 0x79D PUSH3 0x17F5 JUMP JUMPDEST SWAP1 PUSH1 0x1 DUP1 PUSH1 0xA0 SHL SUB DUP1 SWAP2 AND PUSH1 0x0 MSTORE PUSH1 0x5 PUSH1 0x20 MSTORE PUSH1 0x40 PUSH1 0x0 KECCAK256 SWAP2 AND PUSH1 0x0 MSTORE PUSH1 0x20 MSTORE PUSH1 0x20 PUSH1 0xFF PUSH1 0x40 PUSH1 0x0 KECCAK256 SLOAD AND PUSH1 0x40 MLOAD SWAP1 ISZERO ISZERO DUP2 MSTORE RETURN JUMPDEST CALLVALUE PUSH3 0x6A6 JUMPI PUSH1 0x0 CALLDATASIZE PUSH1 0x3 NOT ADD SLT PUSH3 0x6A6 JUMPI PUSH3 0x7F2 PUSH1 0xD SLOAD PUSH3 0x20D7 JUMP JUMPDEST PUSH1 0x9 SLOAD PUSH1 0x0 DUP1 JUMPDEST DUP3 DUP2 LT PUSH3 0x815 JUMPI PUSH1 0x40 MLOAD DUP1 PUSH3 0x811 DUP7 DUP3 PUSH3 0x1A41 JUMP JUMPDEST SUB SWAP1 RETURN JUMPDEST DUP1 PUSH1 0x0 MSTORE PUSH1 0xC PUSH1 0x20 DUP2 DUP2 MSTORE PUSH1 0x1 SWAP2 PUSH3 0x835 DUP4 PUSH1 0x40 PUSH1 0x0 KECCAK256 ADD SLOAD PUSH3 0x1844 JUMP JUMPDEST PUSH3 0x84F JUMPI JUMPDEST POP POP POP PUSH3 0x849 SWAP1 PUSH3 0x1FDB JUMP JUMPDEST PUSH3 0x7F9 JUMP JUMPDEST SWAP2 PUSH1 0xFF PUSH1 0x3 DUP6 SWAP7 SWAP4 PUSH3 0x8E7 SWAP6 PUSH3 0x849 SWAP8 PUSH1 0x0 MSTORE DUP2 MSTORE PUSH3 0x896 PUSH1 0x40 PUSH1 0x0 KECCAK256 SWAP2 PUSH3 0x89E PUSH1 0x40 MLOAD SWAP7 PUSH3 0x883 DUP9 PUSH3 0x191F JUMP JUMPDEST DUP5 SLOAD DUP9 MSTORE PUSH1 0x40 MLOAD SWAP4 DUP5 DUP1 SWAP3 DUP8 ADD PUSH3 0x1881 JUMP JUMPDEST SUB DUP4 PUSH3 0x1959 JUMP JUMPDEST DUP6 ADD MSTORE PUSH1 0x2 DUP2 ADD SLOAD PUSH1 0x40 DUP6 ADD MSTORE ADD SLOAD PUSH1 0x1 PUSH1 0x1 PUSH1 0xA0 SHL SUB DUP2 AND PUSH1 0x60 DUP5 ADD MSTORE PUSH1 0xA0 SHR AND ISZERO ISZERO PUSH1 0x80 DUP3 ADD MSTORE PUSH3 0x8D3 DUP3 DUP9 PUSH3 0x2131 JUMP JUMPDEST MSTORE PUSH3 0x8E0 DUP2 DUP8 PUSH3 0x2131 JUMP JUMPDEST POP PUSH3 0x1FDB JUMP JUMPDEST SWAP2 SWAP1 DUP6 DUP1 PUSH3 0x83B JUMP JUMPDEST CALLVALUE PUSH3 0x6A6 JUMPI PUSH1 0x0 CALLDATASIZE PUSH1 0x3 NOT ADD SLT PUSH3 0x6A6 JUMPI PUSH1 0xB SLOAD PUSH1 0x40 MLOAD PUSH1 0x1 PUSH1 0x1 PUSH1 0xA0 SHL SUB SWAP1 SWAP2 AND DUP2 MSTORE PUSH1 0x20 SWAP1 RETURN JUMPDEST CALLVALUE PUSH3 0x6A6 JUMPI PUSH1 0x20 CALLDATASIZE PUSH1 0x3 NOT ADD SLT PUSH3 0x6A6 JUMPI PUSH1 0x4 CALLDATALOAD PUSH1 0x0 DUP2 DUP2 MSTORE PUSH1 0x2 PUSH1 0x20 MSTORE PUSH1 0x40 SWAP1 KECCAK256 SLOAD PUSH3 0x957 SWAP1 PUSH1 0x1 PUSH1 0x1 PUSH1 0xA0 SHL SUB AND ISZERO ISZERO PUSH3 0x1B00 JUMP JUMPDEST PUSH1 0x0 MSTORE PUSH1 0x6 PUSH1 0x20 MSTORE PUSH3 0x811 PUSH3 0x97D PUSH3 0x985 PUSH1 0x40 PUSH1 0x0 KECCAK256 PUSH1 0x40 MLOAD SWAP3 DUP4 DUP1 SWAP3 PUSH3 0x1881 JUMP JUMPDEST SUB DUP3 PUSH3 0x1959 JUMP JUMPDEST PUSH1 0x0 PUSH1 0x40 MLOAD PUSH3 0x995 DUP2 PUSH3 0x193C JUMP JUMPDEST MSTORE PUSH1 0x40 MLOAD SWAP2 DUP3 SWAP2 PUSH1 0x20 DUP4 MSTORE PUSH1 0x20 DUP4 ADD SWAP1 PUSH3 0x179C JUMP JUMPDEST CALLVALUE PUSH3 0x6A6 JUMPI PUSH1 0x80 CALLDATASIZE PUSH1 0x3 NOT ADD SLT PUSH3 0x6A6 JUMPI PUSH3 0x9C8 PUSH3 0x17DE JUMP JUMPDEST PUSH3 0x9D2 PUSH3 0x17F5 JUMP JUMPDEST PUSH1 0x64 CALLDATALOAD SWAP2 PUSH8 0xFFFFFFFFFFFFFFFF DUP4 GT PUSH3 0x6A6 JUMPI CALLDATASIZE PUSH1 0x23 DUP5 ADD SLT ISZERO PUSH3 0x6A6 JUMPI PUSH3 0xA0C PUSH3 0xA17 SWAP4 CALLDATASIZE SWAP1 PUSH1 0x24 DUP2 PUSH1 0x4 ADD CALLDATALOAD SWAP2 ADD PUSH3 0x19E4 JUMP JUMPDEST SWAP2 PUSH1 0x44 CALLDATALOAD SWAP2 PUSH3 0x1C15 JUMP JUMPDEST STOP JUMPDEST CALLVALUE PUSH3 0x6A6 JUMPI PUSH1 0x40 CALLDATASIZE PUSH1 0x3 NOT ADD SLT PUSH3 0x6A6 JUMPI PUSH3 0xA36 PUSH3 0x17DE JUMP JUMPDEST PUSH1 0x24 CALLDATALOAD SWAP1 DUP2 ISZERO ISZERO DUP1 SWAP3 SUB PUSH3 0x6A6 JUMPI PUSH1 0x1 PUSH1 0x1 PUSH1 0xA0 SHL SUB AND SWAP1 CALLER DUP3 EQ PUSH3 0xAAC JUMPI CALLER PUSH1 0x0 MSTORE PUSH1 0x5 PUSH1 0x20 MSTORE PUSH1 0x40 PUSH1 0x0 KECCAK256 DUP3 PUSH1 0x0 MSTORE PUSH1 0x20 MSTORE PUSH1 0x40 PUSH1 0x0 KECCAK256 PUSH1 0xFF NOT DUP2 SLOAD AND PUSH1 0xFF DUP4 AND OR SWAP1 SSTORE PUSH1 0x40 MLOAD SWAP1 DUP2 MSTORE PUSH32 0x17307EAB39AB6107E8899845AD3D59BD9653F200F220920489CA2B5937696C31 PUSH1 0x20 CALLER SWAP3 LOG3 STOP JUMPDEST PUSH1 0x40 MLOAD PUSH3 0x461BCD PUSH1 0xE5 SHL DUP2 MSTORE PUSH1 0x20 PUSH1 0x4 DUP3 ADD MSTORE PUSH1 0x19 PUSH1 0x24 DUP3 ADD MSTORE PUSH32 0x4552433732313A20617070726F766520746F2063616C6C657200000000000000 PUSH1 0x44 DUP3 ADD MSTORE PUSH1 0x64 SWAP1 REVERT JUMPDEST CALLVALUE PUSH3 0x6A6 JUMPI PUSH1 0x0 CALLDATASIZE PUSH1 0x3 NOT ADD SLT PUSH3 0x6A6 JUMPI PUSH1 0x40 MLOAD PUSH1 0x0 PUSH1 0x1 DUP1 SLOAD SWAP1 PUSH3 0xB19 DUP3 PUSH3 0x1844 JUMP JUMPDEST DUP1 DUP6 MSTORE SWAP2 DUP2 DUP2 AND SWAP1 DUP2 ISZERO PUSH3 0xBB7 JUMPI POP PUSH1 0x1 EQ PUSH3 0xB5A JUMPI JUMPDEST PUSH3 0x811 DUP5 PUSH3 0xB45 DUP2 DUP7 SUB DUP3 PUSH3 0x1959 JUMP JUMPDEST PUSH1 0x40 MLOAD SWAP2 DUP3 SWAP2 PUSH1 0x20 DUP4 MSTORE PUSH1 0x20 DUP4 ADD SWAP1 PUSH3 0x179C JUMP JUMPDEST PUSH1 0x0 DUP2 DUP2 MSTORE SWAP3 POP PUSH32 0xB10E2D527612073B26EECDFD717E6A320CF44B4AFAC2B0732D9FCBE2B7FA0CF6 JUMPDEST DUP3 DUP5 LT PUSH3 0xB9E JUMPI POP POP POP DUP2 ADD PUSH1 0x20 ADD PUSH3 0xB45 DUP3 PUSH3 0xB32 JUMP JUMPDEST DUP1 SLOAD PUSH1 0x20 DUP6 DUP8 ADD DUP2 ADD SWAP2 SWAP1 SWAP2 MSTORE SWAP1 SWAP4 ADD SWAP3 DUP2 ADD PUSH3 0xB83 JUMP JUMPDEST PUSH1 0xFF NOT AND PUSH1 0x20 DUP1 DUP8 ADD SWAP2 SWAP1 SWAP2 MSTORE SWAP3 ISZERO ISZERO PUSH1 0x5 SHL DUP6 ADD SWAP1 SWAP3 ADD SWAP3 POP PUSH3 0xB45 SWAP2 POP DUP4 SWAP1 POP PUSH3 0xB32 JUMP JUMPDEST CALLVALUE PUSH3 0x6A6 JUMPI PUSH1 0x0 CALLDATASIZE PUSH1 0x3 NOT ADD SLT PUSH3 0x6A6 JUMPI PUSH1 0x7 SLOAD PUSH1 0x40 MLOAD PUSH1 0x1 PUSH1 0x1 PUSH1 0xA0 SHL SUB SWAP1 SWAP2 AND DUP2 MSTORE PUSH1 0x20 SWAP1 RETURN JUMPDEST CALLVALUE PUSH3 0x6A6 JUMPI PUSH1 0x0 CALLDATASIZE PUSH1 0x3 NOT ADD SLT PUSH3 0x6A6 JUMPI PUSH1 0x40 MLOAD PUSH1 0x0 PUSH1 0xA SLOAD PUSH3 0xC31 DUP2 PUSH3 0x1844 JUMP JUMPDEST DUP1 DUP5 MSTORE SWAP1 PUSH1 0x1 SWAP1 DUP2 DUP2 AND SWAP1 DUP2 ISZERO PUSH3 0xBB7 JUMPI POP PUSH1 0x1 EQ PUSH3 0xC5F JUMPI PUSH3 0x811 DUP5 PUSH3 0xB45 DUP2 DUP7 SUB DUP3 PUSH3 0x1959 JUMP JUMPDEST PUSH1 0xA PUSH1 0x0 SWAP1 DUP2 MSTORE SWAP3 POP PUSH32 0xC65A7BB8D6351C1CF70C95A316CC6A92839C986682D98BC35F958F4883F9D2A8 JUMPDEST DUP3 DUP5 LT PUSH3 0xCA5 JUMPI POP POP POP DUP2 ADD PUSH1 0x20 ADD PUSH3 0xB45 DUP3 PUSH3 0xB32 JUMP JUMPDEST DUP1 SLOAD PUSH1 0x20 DUP6 DUP8 ADD DUP2 ADD SWAP2 SWAP1 SWAP2 MSTORE SWAP1 SWAP4 ADD SWAP3 DUP2 ADD PUSH3 0xC8A JUMP JUMPDEST CALLVALUE PUSH3 0x6A6 JUMPI PUSH1 0x0 CALLDATASIZE PUSH1 0x3 NOT ADD SLT PUSH3 0x6A6 JUMPI PUSH3 0xCDB PUSH3 0x1AA7 JUMP JUMPDEST PUSH1 0x7 DUP1 SLOAD PUSH1 0x1 PUSH1 0x1 PUSH1 0xA0 SHL SUB NOT DUP2 AND SWAP1 SWAP2 SSTORE PUSH1 0x0 SWAP1 PUSH1 0x1 PUSH1 0x1 PUSH1 0xA0 SHL SUB AND PUSH32 0x8BE0079C531659141344CD1FD0A4F28419497F9722A3DAAFE3B4186F6B6457E0 DUP3 DUP1 LOG3 STOP JUMPDEST CALLVALUE PUSH3 0x6A6 JUMPI PUSH1 0x20 CALLDATASIZE PUSH1 0x3 NOT ADD SLT PUSH3 0x6A6 JUMPI PUSH1 0x1 PUSH1 0x1 PUSH1 0xA0 SHL SUB PUSH3 0xD44 PUSH3 0x17DE JUMP JUMPDEST AND DUP1 ISZERO PUSH3 0xD64 JUMPI PUSH1 0x0 MSTORE PUSH1 0x3 PUSH1 0x20 MSTORE PUSH1 0x20 PUSH1 0x40 PUSH1 0x0 KECCAK256 SLOAD PUSH1 0x40 MLOAD SWAP1 DUP2 MSTORE RETURN JUMPDEST PUSH1 0x40 MLOAD PUSH3 0x461BCD PUSH1 0xE5 SHL DUP2 MSTORE PUSH1 0x20 PUSH1 0x4 DUP3 ADD MSTORE PUSH1 0x29 PUSH1 0x24 DUP3 ADD MSTORE PUSH32 0x4552433732313A2061646472657373207A65726F206973206E6F742061207661 PUSH1 0x44 DUP3 ADD MSTORE PUSH9 0x3634B21037BBB732B9 PUSH1 0xB9 SHL PUSH1 0x64 DUP3 ADD MSTORE PUSH1 0x84 SWAP1 REVERT JUMPDEST CALLVALUE PUSH3 0x6A6 JUMPI PUSH1 0x0 CALLDATASIZE PUSH1 0x3 NOT ADD SLT PUSH3 0x6A6 JUMPI PUSH1 0x9 SLOAD PUSH1 0x0 DUP1 JUMPDEST DUP3 DUP2 LT PUSH3 0xEAF JUMPI POP PUSH3 0xDE9 SWAP1 PUSH3 0x20D7 JUMP JUMPDEST SWAP1 PUSH1 0x0 DUP1 JUMPDEST DUP3 DUP2 LT PUSH3 0xE06 JUMPI PUSH1 0x40 MLOAD DUP1 PUSH3 0x811 DUP7 DUP3 PUSH3 0x1A41 JUMP JUMPDEST DUP1 PUSH1 0x0 MSTORE PUSH1 0x20 PUSH1 0xC DUP2 MSTORE PUSH1 0x40 PUSH1 0x0 KECCAK256 PUSH1 0x3 DUP2 ADD SLOAD PUSH1 0xFF DUP2 PUSH1 0xA0 SHR AND SWAP2 DUP3 PUSH3 0xE3E JUMPI JUMPDEST POP POP POP POP PUSH3 0xE38 SWAP1 PUSH3 0x1FDB JUMP JUMPDEST PUSH3 0xDEE JUMP JUMPDEST SWAP2 PUSH3 0xEA4 SWAP4 SWAP2 PUSH1 0x2 PUSH3 0xE38 SWAP7 SWAP8 SWAP5 PUSH1 0x40 MLOAD SWAP5 PUSH3 0xE5D DUP7 PUSH3 0x191F JUMP JUMPDEST DUP2 SLOAD DUP7 MSTORE PUSH1 0x40 MLOAD SWAP1 PUSH3 0xE79 DUP3 PUSH3 0x896 DUP2 PUSH1 0x1 DUP8 ADD PUSH3 0x1881 JUMP JUMPDEST DUP7 ADD MSTORE ADD SLOAD PUSH1 0x40 DUP5 ADD MSTORE PUSH1 0x1 PUSH1 0x1 PUSH1 0xA0 SHL SUB AND PUSH1 0x60 DUP4 ADD MSTORE ISZERO ISZERO PUSH1 0x80 DUP3 ADD MSTORE PUSH3 0x8D3 DUP3 DUP9 PUSH3 0x2131 JUMP JUMPDEST SWAP2 SWAP1 DUP6 DUP1 DUP1 PUSH3 0xE29 JUMP JUMPDEST DUP1 PUSH1 0x0 MSTORE PUSH1 0xC PUSH1 0x20 MSTORE PUSH1 0xFF PUSH1 0x3 PUSH1 0x40 PUSH1 0x0 KECCAK256 ADD SLOAD PUSH1 0xA0 SHR AND PUSH3 0xEDE JUMPI JUMPDEST PUSH3 0xED8 SWAP1 PUSH3 0x1FDB JUMP JUMPDEST PUSH3 0xDD5 JUMP JUMPDEST SWAP1 PUSH3 0xEEE PUSH3 0xED8 SWAP2 PUSH3 0x1FDB JUMP JUMPDEST SWAP2 SWAP1 POP PUSH3 0xECD JUMP JUMPDEST CALLVALUE PUSH3 0x6A6 JUMPI PUSH1 0x20 CALLDATASIZE PUSH1 0x3 NOT ADD SLT PUSH3 0x6A6 JUMPI PUSH1 0x20 PUSH3 0xF19 PUSH1 0x4 CALLDATALOAD PUSH3 0x1B4D JUMP JUMPDEST PUSH1 0x40 MLOAD PUSH1 0x1 PUSH1 0x1 PUSH1 0xA0 SHL SUB SWAP1 SWAP2 AND DUP2 MSTORE RETURN JUMPDEST CALLVALUE PUSH3 0x6A6 JUMPI PUSH1 0xA0 CALLDATASIZE PUSH1 0x3 NOT ADD SLT PUSH3 0x6A6 JUMPI PUSH8 0xFFFFFFFFFFFFFFFF PUSH1 0x24 DUP1 CALLDATALOAD SWAP1 PUSH1 0x44 CALLDATALOAD SWAP1 PUSH1 0x4 CALLDATALOAD SWAP1 PUSH1 0x64 CALLDATALOAD DUP6 DUP2 GT PUSH3 0x6A6 JUMPI PUSH3 0xF6F SWAP1 CALLDATASIZE SWAP1 PUSH1 0x4 ADD PUSH3 0x1A20 JUMP JUMPDEST SWAP1 PUSH1 0x84 CALLDATALOAD DUP7 DUP2 GT PUSH3 0x6A6 JUMPI PUSH3 0xF8B SWAP1 CALLDATASIZE SWAP1 PUSH1 0x4 ADD PUSH3 0x1A20 JUMP JUMPDEST SWAP6 PUSH3 0xF96 PUSH3 0x1AA7 JUMP JUMPDEST PUSH1 0x0 DUP5 DUP2 MSTORE PUSH1 0x2 PUSH1 0x20 MSTORE PUSH1 0x40 SWAP1 KECCAK256 SLOAD PUSH3 0xFBB SWAP1 PUSH1 0x1 PUSH1 0x1 PUSH1 0xA0 SHL SUB AND ISZERO ISZERO PUSH3 0x204E JUMP JUMPDEST PUSH3 0xFC6 DUP5 PUSH3 0x1B4D JUMP JUMPDEST PUSH1 0x1 PUSH1 0x1 PUSH1 0xA0 SHL SUB SWAP4 SWAP1 CALLER SWAP1 DUP6 AND SUB PUSH3 0x1209 JUMPI DUP5 PUSH1 0x0 MSTORE PUSH1 0x20 SWAP8 PUSH1 0xC DUP10 MSTORE PUSH1 0xFF PUSH1 0x3 PUSH1 0x40 PUSH1 0x0 KECCAK256 ADD SLOAD PUSH1 0xA0 SHR AND PUSH3 0x11C5 JUMPI DUP8 ISZERO PUSH3 0x1175 JUMPI DUP7 ISZERO PUSH3 0x1126 JUMPI DUP6 PUSH1 0x0 MSTORE PUSH1 0xC DUP10 MSTORE PUSH1 0x1 PUSH1 0x40 PUSH1 0x0 KECCAK256 ADD SWAP2 PUSH1 0x40 MLOAD SWAP5 PUSH2 0x2266 SWAP1 DUP2 DUP8 ADD SWAP6 DUP8 DUP8 LT SWAP1 DUP8 GT OR PUSH3 0x1112 JUMPI POP PUSH3 0x108D SWAP3 PUSH3 0x1058 DUP8 SWAP7 SWAP6 SWAP4 PUSH3 0x1066 SWAP4 PUSH3 0x215D DUP10 CODECOPY PUSH2 0x100 DUP1 DUP9 MSTORE DUP8 ADD SWAP1 PUSH3 0x179C JUMP JUMPDEST SWAP1 DUP6 DUP3 SUB DUP14 DUP8 ADD MSTORE PUSH3 0x179C JUMP JUMPDEST SWAP1 DUP10 PUSH1 0x40 DUP6 ADD MSTORE DUP9 PUSH1 0x60 DUP6 ADD MSTORE ADDRESS PUSH1 0x80 DUP6 ADD MSTORE DUP8 PUSH1 0xA0 DUP6 ADD MSTORE DUP4 DUP3 SUB PUSH1 0xC0 DUP6 ADD MSTORE PUSH3 0x1881 JUMP JUMPDEST SWAP1 PUSH1 0xE0 CALLER SWAP2 ADD MSTORE SUB SWAP1 PUSH1 0x0 CREATE DUP1 ISZERO PUSH3 0x1106 JUMPI PUSH32 0xFE60B756980476874D2F8CDFCA824F0D687E2CC6D4C7735F696CBA055EEE6D66 SWAP2 PUSH1 0x40 SWAP2 AND SWAP5 DUP6 SWAP5 DUP5 PUSH1 0x0 MSTORE PUSH1 0xC DUP9 MSTORE PUSH1 0x3 DUP4 PUSH1 0x0 KECCAK256 ADD PUSH1 0x1 PUSH1 0xA0 SHL DUP8 PUSH11 0xFFFFFFFFFFFFFFFFFFFFFF PUSH1 0xA8 SHL DUP4 SLOAD AND OR OR SWAP1 SSTORE DUP3 MLOAD SWAP2 DUP3 MSTORE DUP8 DUP3 ADD MSTORE LOG3 PUSH1 0x40 MLOAD SWAP1 DUP2 MSTORE RETURN JUMPDEST PUSH1 0x40 MLOAD RETURNDATASIZE PUSH1 0x0 DUP3 RETURNDATACOPY RETURNDATASIZE SWAP1 REVERT JUMPDEST PUSH4 0x4E487B71 PUSH1 0xE0 SHL PUSH1 0x0 SWAP1 DUP2 MSTORE PUSH1 0x41 PUSH1 0x4 MSTORE REVERT JUMPDEST PUSH1 0x40 MLOAD PUSH3 0x461BCD PUSH1 0xE5 SHL DUP2 MSTORE PUSH1 0x4 DUP2 ADD DUP11 SWAP1 MSTORE PUSH1 0x22 DUP2 DUP7 ADD MSTORE PUSH32 0x5368617265207072696365206D7573742062652067726561746572207468616E PUSH1 0x44 DUP3 ADD MSTORE PUSH2 0x203 PUSH1 0xF4 SHL PUSH1 0x64 DUP3 ADD MSTORE PUSH1 0x84 SWAP1 REVERT JUMPDEST PUSH1 0x40 MLOAD PUSH3 0x461BCD PUSH1 0xE5 SHL DUP2 MSTORE PUSH1 0x4 DUP2 ADD DUP11 SWAP1 MSTORE PUSH1 0x23 DUP2 DUP7 ADD MSTORE PUSH32 0x546F74616C20736861726573206D757374206265206772656174657220746861 PUSH1 0x44 DUP3 ADD MSTORE PUSH3 0x6E203 PUSH1 0xEC SHL PUSH1 0x64 DUP3 ADD MSTORE PUSH1 0x84 SWAP1 REVERT JUMPDEST PUSH1 0x40 MLOAD PUSH3 0x461BCD PUSH1 0xE5 SHL DUP2 MSTORE PUSH1 0x4 DUP2 ADD DUP11 SWAP1 MSTORE PUSH1 0x1A DUP2 DUP7 ADD MSTORE PUSH32 0x4E465420616C7265616479206672616374696F6E616C697A6564000000000000 PUSH1 0x44 DUP3 ADD MSTORE PUSH1 0x64 SWAP1 REVERT JUMPDEST PUSH1 0x40 MLOAD PUSH3 0x461BCD PUSH1 0xE5 SHL DUP2 MSTORE PUSH1 0x20 PUSH1 0x4 DUP3 ADD MSTORE PUSH1 0x19 DUP2 DUP6 ADD MSTORE PUSH32 0x4E6F7420746865206F776E6572206F662074686973204E465400000000000000 PUSH1 0x44 DUP3 ADD MSTORE PUSH1 0x64 SWAP1 REVERT JUMPDEST CALLVALUE PUSH3 0x6A6 JUMPI PUSH1 0x0 CALLDATASIZE PUSH1 0x3 NOT ADD SLT PUSH3 0x6A6 JUMPI PUSH1 0x0 DUP1 PUSH1 0x9 SLOAD SWAP1 JUMPDEST DUP2 DUP2 LT PUSH3 0x1295 JUMPI PUSH1 0x60 DUP4 PUSH1 0xD SLOAD SWAP1 PUSH1 0x1 DUP1 PUSH1 0xA0 SHL SUB PUSH1 0x7 SLOAD AND SWAP1 PUSH1 0x40 MLOAD SWAP3 DUP4 MSTORE PUSH1 0x20 DUP4 ADD MSTORE PUSH1 0x40 DUP3 ADD MSTORE RETURN JUMPDEST DUP1 PUSH1 0x0 MSTORE PUSH1 0xC PUSH1 0x20 MSTORE PUSH1 0xFF PUSH1 0x3 PUSH1 0x40 PUSH1 0x0 KECCAK256 ADD SLOAD PUSH1 0xA0 SHR AND PUSH3 0x12C4 JUMPI JUMPDEST PUSH3 0x12BE SWAP1 PUSH3 0x1FDB JUMP JUMPDEST PUSH3 0x1268 JUMP JUMPDEST SWAP2 PUSH3 0x12D4 PUSH3 0x12BE SWAP2 PUSH3 0x1FDB JUMP JUMPDEST SWAP3 SWAP1 POP PUSH3 0x12B3 JUMP JUMPDEST CALLVALUE PUSH3 0x6A6 JUMPI PUSH1 0x20 DUP1 PUSH1 0x3 NOT CALLDATASIZE ADD SLT PUSH3 0x6A6 JUMPI PUSH1 0x4 CALLDATALOAD PUSH3 0x12FE PUSH3 0x20A9 JUMP JUMPDEST POP DUP1 PUSH1 0x0 MSTORE PUSH1 0xC DUP3 MSTORE PUSH3 0x1326 PUSH3 0x131E PUSH1 0x1 PUSH1 0x40 PUSH1 0x0 KECCAK256 ADD SLOAD PUSH3 0x1844 JUMP JUMPDEST ISZERO ISZERO PUSH3 0x204E JUMP JUMPDEST PUSH1 0x0 MSTORE PUSH1 0xC DUP2 MSTORE PUSH1 0x40 PUSH1 0x0 KECCAK256 SWAP1 PUSH1 0xFF PUSH1 0x3 PUSH1 0x40 MLOAD SWAP4 PUSH3 0x1346 DUP6 PUSH3 0x191F JUMP JUMPDEST DUP1 SLOAD DUP6 MSTORE PUSH1 0x40 MLOAD PUSH3 0x1361 DUP2 PUSH3 0x97D DUP2 PUSH1 0x1 DUP7 ADD PUSH3 0x1881 JUMP JUMPDEST DUP5 DUP7 ADD MSTORE PUSH1 0x2 DUP2 ADD SLOAD PUSH1 0x40 DUP7 ADD MSTORE ADD SLOAD PUSH1 0x1 DUP1 PUSH1 0xA0 SHL SUB DUP2 AND PUSH1 0x60 DUP6 ADD MSTORE PUSH1 0xA0 SHR AND ISZERO ISZERO PUSH1 0x80 DUP4 ADD MSTORE PUSH3 0x811 PUSH1 0x40 MLOAD SWAP3 DUP3 DUP5 SWAP4 DUP5 MSTORE DUP4 ADD SWAP1 PUSH3 0x197C JUMP JUMPDEST CALLVALUE PUSH3 0x6A6 JUMPI PUSH1 0x0 CALLDATASIZE PUSH1 0x3 NOT ADD SLT PUSH3 0x6A6 JUMPI PUSH1 0x20 PUSH1 0xD SLOAD PUSH1 0x40 MLOAD SWAP1 DUP2 MSTORE RETURN JUMPDEST CALLVALUE PUSH3 0x6A6 JUMPI PUSH3 0xA17 PUSH3 0x13D5 CALLDATASIZE PUSH3 0x180C JUMP JUMPDEST SWAP1 PUSH1 0x40 MLOAD SWAP3 PUSH3 0x13E5 DUP5 PUSH3 0x193C JUMP JUMPDEST PUSH1 0x0 DUP5 MSTORE PUSH3 0x1C15 JUMP JUMPDEST CALLVALUE PUSH3 0x6A6 JUMPI PUSH1 0x20 CALLDATASIZE PUSH1 0x3 NOT ADD SLT PUSH3 0x6A6 JUMPI PUSH1 0x4 CALLDATALOAD PUSH1 0x0 MSTORE PUSH1 0xC PUSH1 0x20 MSTORE PUSH1 0x40 PUSH1 0x0 KECCAK256 DUP1 SLOAD PUSH1 0x40 MLOAD SWAP2 PUSH3 0x1434 DUP4 PUSH3 0x142C DUP2 PUSH1 0x1 DUP6 ADD PUSH3 0x1881 JUMP JUMPDEST SUB DUP5 PUSH3 0x1959 JUMP JUMPDEST PUSH1 0xFF PUSH1 0x3 PUSH1 0x2 DUP4 ADD SLOAD SWAP3 ADD SLOAD PUSH3 0x145E PUSH1 0x40 MLOAD SWAP6 DUP7 SWAP6 DUP7 MSTORE PUSH1 0xA0 PUSH1 0x20 DUP8 ADD MSTORE PUSH1 0xA0 DUP7 ADD SWAP1 PUSH3 0x179C JUMP JUMPDEST PUSH1 0x40 DUP6 ADD SWAP4 SWAP1 SWAP4 MSTORE PUSH1 0x1 PUSH1 0x1 PUSH1 0xA0 SHL SUB DUP2 AND PUSH1 0x60 DUP6 ADD MSTORE PUSH1 0xA0 SHR AND ISZERO ISZERO PUSH1 0x80 DUP4 ADD MSTORE SUB SWAP1 RETURN JUMPDEST CALLVALUE PUSH3 0x6A6 JUMPI PUSH3 0xA17 PUSH3 0x1499 CALLDATASIZE PUSH3 0x180C JUMP JUMPDEST SWAP2 PUSH3 0x14B0 PUSH3 0x14AA DUP5 CALLER PUSH3 0x1CBA JUMP JUMPDEST PUSH3 0x1BB2 JUMP JUMPDEST PUSH3 0x1D8B JUMP JUMPDEST CALLVALUE PUSH3 0x6A6 JUMPI PUSH1 0x40 CALLDATASIZE PUSH1 0x3 NOT ADD SLT PUSH3 0x6A6 JUMPI PUSH3 0x14D3 PUSH3 0x17DE JUMP JUMPDEST PUSH1 0x24 CALLDATALOAD SWAP1 PUSH1 0x1 PUSH1 0x1 PUSH1 0xA0 SHL SUB DUP1 DUP1 PUSH3 0x14EC DUP6 PUSH3 0x1B4D JUMP JUMPDEST AND SWAP3 AND SWAP2 DUP1 DUP4 EQ PUSH3 0x15ED JUMPI DUP1 CALLER EQ SWAP1 DUP2 ISZERO PUSH3 0x15C7 JUMPI JUMPDEST POP ISZERO PUSH3 0x155C JUMPI PUSH1 0x0 DUP4 DUP2 MSTORE PUSH1 0x4 PUSH1 0x20 MSTORE PUSH1 0x40 SWAP1 KECCAK256 DUP1 SLOAD PUSH1 0x1 PUSH1 0x1 PUSH1 0xA0 SHL SUB NOT AND DUP4 OR SWAP1 SSTORE PUSH3 0x1534 DUP4 PUSH3 0x1B4D JUMP JUMPDEST AND PUSH32 0x8C5BE1E5EBEC7D5BD14F71427D1E84F3DD0314C0F7B2291E5B200AC8C7C3B925 PUSH1 0x0 DUP1 LOG4 STOP JUMPDEST PUSH1 0x40 MLOAD PUSH3 0x461BCD PUSH1 0xE5 SHL DUP2 MSTORE PUSH1 0x20 PUSH1 0x4 DUP3 ADD MSTORE PUSH1 0x3D PUSH1 0x24 DUP3 ADD MSTORE PUSH32 0x4552433732313A20617070726F76652063616C6C6572206973206E6F7420746F PUSH1 0x44 DUP3 ADD MSTORE PUSH32 0x6B656E206F776E6572206F7220617070726F76656420666F7220616C6C000000 PUSH1 0x64 DUP3 ADD MSTORE PUSH1 0x84 SWAP1 REVERT JUMPDEST SWAP1 POP PUSH1 0x0 MSTORE PUSH1 0x5 PUSH1 0x20 MSTORE PUSH1 0x40 PUSH1 0x0 KECCAK256 CALLER PUSH1 0x0 MSTORE PUSH1 0x20 MSTORE PUSH1 0xFF PUSH1 0x40 PUSH1 0x0 KECCAK256 SLOAD AND DUP5 PUSH3 0x1504 JUMP JUMPDEST PUSH1 0x40 MLOAD PUSH3 0x461BCD PUSH1 0xE5 SHL DUP2 MSTORE PUSH1 0x20 PUSH1 0x4 DUP3 ADD MSTORE PUSH1 0x21 PUSH1 0x24 DUP3 ADD MSTORE PUSH32 0x4552433732313A20617070726F76616C20746F2063757272656E74206F776E65 PUSH1 0x44 DUP3 ADD MSTORE PUSH1 0x39 PUSH1 0xF9 SHL PUSH1 0x64 DUP3 ADD MSTORE PUSH1 0x84 SWAP1 REVERT JUMPDEST CALLVALUE PUSH3 0x6A6 JUMPI PUSH1 0x20 CALLDATASIZE PUSH1 0x3 NOT ADD SLT PUSH3 0x6A6 JUMPI PUSH1 0x20 PUSH3 0xF19 PUSH1 0x4 CALLDATALOAD PUSH3 0x1B72 JUMP JUMPDEST CALLVALUE PUSH3 0x6A6 JUMPI PUSH1 0x0 CALLDATASIZE PUSH1 0x3 NOT ADD SLT PUSH3 0x6A6 JUMPI PUSH1 0x40 MLOAD PUSH1 0x0 DUP1 SLOAD PUSH3 0x1683 DUP2 PUSH3 0x1844 JUMP JUMPDEST DUP1 DUP5 MSTORE SWAP1 PUSH1 0x1 SWAP1 DUP2 DUP2 AND SWAP1 DUP2 ISZERO PUSH3 0xBB7 JUMPI POP PUSH1 0x1 EQ PUSH3 0x16B1 JUMPI PUSH3 0x811 DUP5 PUSH3 0xB45 DUP2 DUP7 SUB DUP3 PUSH3 0x1959 JUMP JUMPDEST PUSH1 0x0 DUP1 DUP1 MSTORE SWAP3 POP PUSH32 0x290DECD9548B62A8D60345A988386FC84BA6BC95484008F6362F93160EF3E563 JUMPDEST DUP3 DUP5 LT PUSH3 0x16F5 JUMPI POP POP POP DUP2 ADD PUSH1 0x20 ADD PUSH3 0xB45 DUP3 PUSH3 0xB32 JUMP JUMPDEST DUP1 SLOAD PUSH1 0x20 DUP6 DUP8 ADD DUP2 ADD SWAP2 SWAP1 SWAP2 MSTORE SWAP1 SWAP4 ADD SWAP3 DUP2 ADD PUSH3 0x16DA JUMP JUMPDEST CALLVALUE PUSH3 0x6A6 JUMPI PUSH1 0x20 CALLDATASIZE PUSH1 0x3 NOT ADD SLT PUSH3 0x6A6 JUMPI PUSH1 0x4 CALLDATALOAD SWAP1 PUSH4 0xFFFFFFFF PUSH1 0xE0 SHL DUP3 AND DUP1 SWAP3 SUB PUSH3 0x6A6 JUMPI PUSH1 0x20 SWAP2 PUSH4 0x24832483 PUSH1 0xE1 SHL DUP2 EQ SWAP1 DUP2 ISZERO PUSH3 0x1754 JUMPI JUMPDEST POP ISZERO ISZERO DUP2 MSTORE RETURN JUMPDEST PUSH4 0x80AC58CD PUSH1 0xE0 SHL DUP2 EQ SWAP2 POP DUP2 ISZERO PUSH3 0x178A JUMPI JUMPDEST DUP2 ISZERO PUSH3 0x1778 JUMPI JUMPDEST POP DUP4 PUSH3 0x174D JUMP JUMPDEST PUSH4 0x1FFC9A7 PUSH1 0xE0 SHL EQ SWAP1 POP DUP4 PUSH3 0x1770 JUMP JUMPDEST PUSH4 0x5B5E139F PUSH1 0xE0 SHL DUP2 EQ SWAP2 POP PUSH3 0x1768 JUMP JUMPDEST SWAP2 SWAP1 DUP3 MLOAD SWAP3 DUP4 DUP3 MSTORE PUSH1 0x0 JUMPDEST DUP5 DUP2 LT PUSH3 0x17C9 JUMPI POP POP DUP3 PUSH1 0x0 PUSH1 0x20 DUP1 SWAP5 SWAP6 DUP5 ADD ADD MSTORE PUSH1 0x1F DUP1 NOT SWAP2 ADD AND ADD ADD SWAP1 JUMP JUMPDEST PUSH1 0x20 DUP2 DUP4 ADD DUP2 ADD MLOAD DUP5 DUP4 ADD DUP3 ADD MSTORE ADD PUSH3 0x17A7 JUMP JUMPDEST PUSH1 0x4 CALLDATALOAD SWAP1 PUSH1 0x1 PUSH1 0x1 PUSH1 0xA0 SHL SUB DUP3 AND DUP3 SUB PUSH3 0x6A6 JUMPI JUMP JUMPDEST PUSH1 0x24 CALLDATALOAD SWAP1 PUSH1 0x1 PUSH1 0x1 PUSH1 0xA0 SHL SUB DUP3 AND DUP3 SUB PUSH3 0x6A6 JUMPI JUMP JUMPDEST PUSH1 0x60 SWAP1 PUSH1 0x3 NOT ADD SLT PUSH3 0x6A6 JUMPI PUSH1 0x1 PUSH1 0x1 PUSH1 0xA0 SHL SUB SWAP1 PUSH1 0x4 CALLDATALOAD DUP3 DUP2 AND DUP2 SUB PUSH3 0x6A6 JUMPI SWAP2 PUSH1 0x24 CALLDATALOAD SWAP1 DUP2 AND DUP2 SUB PUSH3 0x6A6 JUMPI SWAP1 PUSH1 0x44 CALLDATALOAD SWAP1 JUMP JUMPDEST SWAP1 PUSH1 0x1 DUP3 DUP2 SHR SWAP3 AND DUP1 ISZERO PUSH3 0x1876 JUMPI JUMPDEST PUSH1 0x20 DUP4 LT EQ PUSH3 0x1860 JUMPI JUMP JUMPDEST PUSH4 0x4E487B71 PUSH1 0xE0 SHL PUSH1 0x0 MSTORE PUSH1 0x22 PUSH1 0x4 MSTORE PUSH1 0x24 PUSH1 0x0 REVERT JUMPDEST SWAP2 PUSH1 0x7F AND SWAP2 PUSH3 0x1854 JUMP JUMPDEST SWAP1 PUSH1 0x0 SWAP3 SWAP2 DUP1 SLOAD SWAP2 PUSH3 0x1894 DUP4 PUSH3 0x1844 JUMP JUMPDEST SWAP2 DUP3 DUP3 MSTORE PUSH1 0x1 SWAP4 DUP5 DUP2 AND SWAP1 DUP2 PUSH1 0x0 EQ PUSH3 0x18FB JUMPI POP PUSH1 0x1 EQ PUSH3 0x18B8 JUMPI JUMPDEST POP POP POP POP JUMP JUMPDEST SWAP1 SWAP2 SWAP4 SWAP5 POP PUSH1 0x0 MSTORE PUSH1 0x20 SWAP3 DUP4 PUSH1 0x0 KECCAK256 SWAP3 DUP5 PUSH1 0x0 SWAP5 JUMPDEST DUP4 DUP7 LT PUSH3 0x18E6 JUMPI POP POP POP POP ADD ADD SWAP1 CODESIZE DUP1 DUP1 DUP1 PUSH3 0x18B2 JUMP JUMPDEST DUP1 SLOAD DUP6 DUP8 ADD DUP4 ADD MSTORE SWAP5 ADD SWAP4 DUP6 SWAP1 DUP3 ADD PUSH3 0x18CD JUMP JUMPDEST SWAP3 SWAP5 POP POP POP PUSH1 0x20 SWAP4 SWAP5 POP PUSH1 0xFF NOT AND DUP4 DUP4 ADD MSTORE ISZERO ISZERO PUSH1 0x5 SHL ADD ADD SWAP1 CODESIZE DUP1 DUP1 DUP1 PUSH3 0x18B2 JUMP JUMPDEST PUSH1 0xA0 DUP2 ADD SWAP1 DUP2 LT PUSH8 0xFFFFFFFFFFFFFFFF DUP3 GT OR PUSH3 0x52B JUMPI PUSH1 0x40 MSTORE JUMP JUMPDEST PUSH1 0x20 DUP2 ADD SWAP1 DUP2 LT PUSH8 0xFFFFFFFFFFFFFFFF DUP3 GT OR PUSH3 0x52B JUMPI PUSH1 0x40 MSTORE JUMP JUMPDEST SWAP1 PUSH1 0x1F DUP1 NOT SWAP2 ADD AND DUP2 ADD SWAP1 DUP2 LT PUSH8 0xFFFFFFFFFFFFFFFF DUP3 GT OR PUSH3 0x52B JUMPI PUSH1 0x40 MSTORE JUMP JUMPDEST SWAP1 DUP2 MLOAD DUP2 MSTORE PUSH1 0x80 DUP1 PUSH3 0x199F PUSH1 0x20 DUP6 ADD MLOAD PUSH1 0xA0 PUSH1 0x20 DUP7 ADD MSTORE PUSH1 0xA0 DUP6 ADD SWAP1 PUSH3 0x179C JUMP JUMPDEST PUSH1 0x40 DUP1 DUP7 ADD MLOAD SWAP1 DUP6 ADD MSTORE PUSH1 0x60 DUP1 DUP7 ADD MLOAD PUSH1 0x1 PUSH1 0x1 PUSH1 0xA0 SHL SUB AND SWAP1 DUP6 ADD MSTORE SWAP4 ADD MLOAD ISZERO ISZERO SWAP2 ADD MSTORE SWAP1 JUMP JUMPDEST PUSH8 0xFFFFFFFFFFFFFFFF DUP2 GT PUSH3 0x52B JUMPI PUSH1 0x1F ADD PUSH1 0x1F NOT AND PUSH1 0x20 ADD SWAP1 JUMP JUMPDEST SWAP3 SWAP2 SWAP3 PUSH3 0x19F2 DUP3 PUSH3 0x19C7 JUMP JUMPDEST SWAP2 PUSH3 0x1A02 PUSH1 0x40 MLOAD SWAP4 DUP5 PUSH3 0x1959 JUMP JUMPDEST DUP3 SWAP5 DUP2 DUP5 MSTORE DUP2 DUP4 ADD GT PUSH3 0x6A6 JUMPI DUP3 DUP2 PUSH1 0x20 SWAP4 DUP5 PUSH1 0x0 SWAP7 ADD CALLDATACOPY ADD ADD MSTORE JUMP JUMPDEST SWAP1 DUP1 PUSH1 0x1F DUP4 ADD SLT ISZERO PUSH3 0x6A6 JUMPI DUP2 PUSH1 0x20 PUSH3 0x1A3E SWAP4 CALLDATALOAD SWAP2 ADD PUSH3 0x19E4 JUMP JUMPDEST SWAP1 JUMP JUMPDEST PUSH1 0x20 DUP1 DUP3 ADD SWAP1 DUP1 DUP4 MSTORE DUP4 MLOAD DUP1 SWAP3 MSTORE PUSH1 0x40 DUP4 ADD SWAP3 DUP2 PUSH1 0x40 DUP5 PUSH1 0x5 SHL DUP4 ADD ADD SWAP6 ADD SWAP4 PUSH1 0x0 SWAP2 JUMPDEST DUP5 DUP4 LT PUSH3 0x1A76 JUMPI POP POP POP POP POP POP SWAP1 JUMP JUMPDEST SWAP1 SWAP2 SWAP3 SWAP4 SWAP5 SWAP6 DUP5 DUP1 PUSH3 0x1A96 PUSH1 0x1 SWAP4 PUSH1 0x3F NOT DUP7 DUP3 SUB ADD DUP8 MSTORE DUP11 MLOAD PUSH3 0x197C JUMP JUMPDEST SWAP9 ADD SWAP4 ADD SWAP4 ADD SWAP2 SWAP5 SWAP4 SWAP3 SWAP1 PUSH3 0x1A65 JUMP JUMPDEST PUSH1 0x7 SLOAD PUSH1 0x1 PUSH1 0x1 PUSH1 0xA0 SHL SUB AND CALLER SUB PUSH3 0x1ABC JUMPI JUMP JUMPDEST PUSH1 0x64 PUSH1 0x40 MLOAD PUSH3 0x461BCD PUSH1 0xE5 SHL DUP2 MSTORE PUSH1 0x20 PUSH1 0x4 DUP3 ADD MSTORE PUSH1 0x20 PUSH1 0x24 DUP3 ADD MSTORE PUSH32 0x4F776E61626C653A2063616C6C6572206973206E6F7420746865206F776E6572 PUSH1 0x44 DUP3 ADD MSTORE REVERT JUMPDEST ISZERO PUSH3 0x1B08 JUMPI JUMP JUMPDEST PUSH1 0x40 MLOAD PUSH3 0x461BCD PUSH1 0xE5 SHL DUP2 MSTORE PUSH1 0x20 PUSH1 0x4 DUP3 ADD MSTORE PUSH1 0x18 PUSH1 0x24 DUP3 ADD MSTORE PUSH32 0x4552433732313A20696E76616C696420746F6B656E2049440000000000000000 PUSH1 0x44 DUP3 ADD MSTORE PUSH1 0x64 SWAP1 REVERT JUMPDEST PUSH1 0x0 SWAP1 DUP2 MSTORE PUSH1 0x2 PUSH1 0x20 MSTORE PUSH1 0x40 SWAP1 KECCAK256 SLOAD PUSH1 0x1 PUSH1 0x1 PUSH1 0xA0 SHL SUB AND PUSH3 0x1A3E DUP2 ISZERO ISZERO PUSH3 0x1B00 JUMP JUMPDEST PUSH1 0x0 DUP2 DUP2 MSTORE PUSH1 0x2 PUSH1 0x20 MSTORE PUSH1 0x40 SWAP1 KECCAK256 SLOAD PUSH3 0x1B97 SWAP1 PUSH1 0x1 PUSH1 0x1 PUSH1 0xA0 SHL SUB AND ISZERO ISZERO PUSH3 0x1B00 JUMP JUMPDEST PUSH1 0x0 SWAP1 DUP2 MSTORE PUSH1 0x4 PUSH1 0x20 MSTORE PUSH1 0x40 SWAP1 KECCAK256 SLOAD PUSH1 0x1 PUSH1 0x1 PUSH1 0xA0 SHL SUB AND SWAP1 JUMP JUMPDEST ISZERO PUSH3 0x1BBA JUMPI JUMP JUMPDEST PUSH1 0x40 MLOAD PUSH3 0x461BCD PUSH1 0xE5 SHL DUP2 MSTORE PUSH1 0x20 PUSH1 0x4 DUP3 ADD MSTORE PUSH1 0x2D PUSH1 0x24 DUP3 ADD MSTORE PUSH32 0x4552433732313A2063616C6C6572206973206E6F7420746F6B656E206F776E65 PUSH1 0x44 DUP3 ADD MSTORE PUSH13 0x1C881BDC88185C1C1C9BDD9959 PUSH1 0x9A SHL PUSH1 0x64 DUP3 ADD MSTORE PUSH1 0x84 SWAP1 REVERT JUMPDEST SWAP1 PUSH3 0x1C40 SWAP4 SWAP3 SWAP2 PUSH3 0x1C2D PUSH3 0x14AA DUP5 CALLER PUSH3 0x1CBA JUMP JUMPDEST PUSH3 0x1C3A DUP4 DUP4 DUP4 PUSH3 0x1D8B JUMP JUMPDEST PUSH3 0x1EA5 JUMP JUMPDEST ISZERO PUSH3 0x1C48 JUMPI JUMP JUMPDEST PUSH1 0x40 MLOAD PUSH3 0x461BCD PUSH1 0xE5 SHL DUP2 MSTORE DUP1 PUSH3 0x1C63 PUSH1 0x4 DUP3 ADD PUSH3 0x1C67 JUMP JUMPDEST SUB SWAP1 REVERT JUMPDEST PUSH1 0x80 SWAP1 PUSH1 0x20 DUP2 MSTORE PUSH1 0x32 PUSH1 0x20 DUP3 ADD MSTORE PUSH32 0x4552433732313A207472616E7366657220746F206E6F6E204552433732315265 PUSH1 0x40 DUP3 ADD MSTORE PUSH18 0x31B2B4BB32B91034B6B83632B6B2B73A32B9 PUSH1 0x71 SHL PUSH1 0x60 DUP3 ADD MSTORE ADD SWAP1 JUMP JUMPDEST SWAP1 PUSH1 0x1 PUSH1 0x1 PUSH1 0xA0 SHL SUB DUP1 DUP1 PUSH3 0x1CD0 DUP5 PUSH3 0x1B4D JUMP JUMPDEST AND SWAP4 AND SWAP2 DUP4 DUP4 EQ SWAP4 DUP5 ISZERO PUSH3 0x1D08 JUMPI JUMPDEST POP DUP4 ISZERO PUSH3 0x1CEF JUMPI JUMPDEST POP POP POP SWAP1 JUMP JUMPDEST PUSH3 0x1CFD SWAP2 SWAP3 SWAP4 POP PUSH3 0x1B72 JUMP JUMPDEST AND EQ CODESIZE DUP1 DUP1 PUSH3 0x1CE9 JUMP JUMPDEST SWAP1 SWAP4 POP PUSH1 0x0 MSTORE PUSH1 0x5 PUSH1 0x20 MSTORE PUSH1 0x40 PUSH1 0x0 KECCAK256 DUP3 PUSH1 0x0 MSTORE PUSH1 0x20 MSTORE PUSH1 0xFF PUSH1 0x40 PUSH1 0x0 KECCAK256 SLOAD AND SWAP3 CODESIZE PUSH3 0x1CE0 JUMP JUMPDEST ISZERO PUSH3 0x1D38 JUMPI JUMP JUMPDEST PUSH1 0x40 MLOAD PUSH3 0x461BCD PUSH1 0xE5 SHL DUP2 MSTORE PUSH1 0x20 PUSH1 0x4 DUP3 ADD MSTORE PUSH1 0x25 PUSH1 0x24 DUP3 ADD MSTORE PUSH32 0x4552433732313A207472616E736665722066726F6D20696E636F727265637420 PUSH1 0x44 DUP3 ADD MSTORE PUSH5 0x37BBB732B9 PUSH1 0xD9 SHL PUSH1 0x64 DUP3 ADD MSTORE PUSH1 0x84 SWAP1 REVERT JUMPDEST SWAP1 PUSH3 0x1DB7 SWAP2 PUSH3 0x1D9C DUP5 PUSH3 0x1B4D JUMP JUMPDEST PUSH1 0x1 PUSH1 0x1 PUSH1 0xA0 SHL SUB SWAP4 SWAP2 DUP5 AND SWAP3 DUP5 SWAP3 SWAP1 SWAP2 DUP4 AND DUP5 EQ PUSH3 0x1D30 JUMP JUMPDEST AND SWAP2 DUP3 ISZERO PUSH3 0x1E54 JUMPI DUP2 PUSH3 0x1DD9 SWAP2 PUSH3 0x1DD1 DUP7 PUSH3 0x1B4D JUMP JUMPDEST AND EQ PUSH3 0x1D30 JUMP JUMPDEST PUSH32 0xDDF252AD1BE2C89B69C2B068FC378DAA952BA7F163C4A11628F55A4DF523B3EF PUSH1 0x0 DUP5 DUP2 MSTORE PUSH1 0x4 PUSH1 0x20 MSTORE PUSH1 0x40 DUP2 KECCAK256 PUSH1 0x1 PUSH1 0x1 PUSH1 0x60 SHL SUB PUSH1 0xA0 SHL SWAP1 DUP2 DUP2 SLOAD AND SWAP1 SSTORE DUP4 DUP3 MSTORE PUSH1 0x3 PUSH1 0x20 MSTORE PUSH1 0x40 DUP3 KECCAK256 PUSH1 0x0 NOT DUP2 SLOAD ADD SWAP1 SSTORE DUP5 DUP3 MSTORE PUSH1 0x40 DUP3 KECCAK256 PUSH1 0x1 DUP2 SLOAD ADD SWAP1 SSTORE DUP6 DUP3 MSTORE PUSH1 0x2 PUSH1 0x20 MSTORE DUP5 PUSH1 0x40 DUP4 KECCAK256 SWAP2 DUP3 SLOAD AND OR SWAP1 SSTORE DUP1 LOG4 JUMP JUMPDEST PUSH1 0x40 MLOAD PUSH3 0x461BCD PUSH1 0xE5 SHL DUP2 MSTORE PUSH1 0x20 PUSH1 0x4 DUP3 ADD MSTORE PUSH1 0x24 DUP1 DUP3 ADD MSTORE PUSH32 0x4552433732313A207472616E7366657220746F20746865207A65726F20616464 PUSH1 0x44 DUP3 ADD MSTORE PUSH4 0x72657373 PUSH1 0xE0 SHL PUSH1 0x64 DUP3 ADD MSTORE PUSH1 0x84 SWAP1 REVERT JUMPDEST SWAP3 SWAP4 SWAP2 SWAP1 DUP1 EXTCODESIZE ISZERO PUSH3 0x1FD1 JUMPI PUSH3 0x1EFA SWAP5 PUSH1 0x40 MLOAD DUP1 SWAP3 PUSH4 0xA85BD01 PUSH1 0xE1 SHL SWAP5 DUP6 DUP4 MSTORE CALLER PUSH1 0x4 DUP5 ADD MSTORE PUSH1 0x1 DUP1 PUSH1 0xA0 SHL SUB DUP1 SWAP9 AND PUSH1 0x24 DUP5 ADD MSTORE PUSH1 0x44 DUP4 ADD MSTORE PUSH1 0x80 PUSH1 0x64 DUP4 ADD MSTORE DUP2 DUP1 PUSH1 0x20 SWAP10 DUP11 SWAP6 PUSH1 0x84 DUP4 ADD SWAP1 PUSH3 0x179C JUMP JUMPDEST SUB SWAP2 PUSH1 0x0 SWAP9 DUP10 SWAP2 AND GAS CALL DUP5 SWAP2 DUP2 PUSH3 0x1F86 JUMPI JUMPDEST POP PUSH3 0x1F75 JUMPI POP POP POP RETURNDATASIZE PUSH1 0x0 EQ PUSH3 0x1F6C JUMPI RETURNDATASIZE PUSH3 0x1F2B DUP2 PUSH3 0x19C7 JUMP JUMPDEST SWAP1 PUSH3 0x1F3B PUSH1 0x40 MLOAD SWAP3 DUP4 PUSH3 0x1959 JUMP JUMPDEST DUP2 MSTORE DUP1 SWAP2 DUP4 RETURNDATASIZE SWAP3 ADD RETURNDATACOPY JUMPDEST DUP1 MLOAD SWAP2 DUP3 PUSH3 0x1F69 JUMPI PUSH1 0x40 MLOAD PUSH3 0x461BCD PUSH1 0xE5 SHL DUP2 MSTORE DUP1 PUSH3 0x1C63 PUSH1 0x4 DUP3 ADD PUSH3 0x1C67 JUMP JUMPDEST ADD REVERT JUMPDEST POP PUSH1 0x60 PUSH3 0x1F45 JUMP JUMPDEST PUSH1 0x1 PUSH1 0x1 PUSH1 0xE0 SHL SUB NOT AND EQ SWAP3 POP SWAP1 POP JUMP JUMPDEST SWAP1 SWAP2 POP DUP6 DUP2 DUP2 RETURNDATASIZE DUP4 GT PUSH3 0x1FC9 JUMPI JUMPDEST PUSH3 0x1FA1 DUP2 DUP4 PUSH3 0x1959 JUMP JUMPDEST DUP2 ADD SUB SLT PUSH3 0x1FC5 JUMPI MLOAD PUSH1 0x1 PUSH1 0x1 PUSH1 0xE0 SHL SUB NOT DUP2 AND DUP2 SUB PUSH3 0x1FC5 JUMPI SWAP1 CODESIZE PUSH3 0x1F0D JUMP JUMPDEST DUP5 DUP1 REVERT JUMPDEST POP RETURNDATASIZE PUSH3 0x1F95 JUMP JUMPDEST POP POP SWAP2 POP POP PUSH1 0x1 SWAP1 JUMP JUMPDEST PUSH1 0x0 NOT DUP2 EQ PUSH3 0x1FEB JUMPI PUSH1 0x1 ADD SWAP1 JUMP JUMPDEST PUSH4 0x4E487B71 PUSH1 0xE0 SHL PUSH1 0x0 MSTORE PUSH1 0x11 PUSH1 0x4 MSTORE PUSH1 0x24 PUSH1 0x0 REVERT JUMPDEST ISZERO PUSH3 0x2009 JUMPI JUMP JUMPDEST PUSH1 0x40 MLOAD PUSH3 0x461BCD PUSH1 0xE5 SHL DUP2 MSTORE PUSH1 0x20 PUSH1 0x4 DUP3 ADD MSTORE PUSH1 0x1C PUSH1 0x24 DUP3 ADD MSTORE PUSH32 0x4552433732313A20746F6B656E20616C7265616479206D696E74656400000000 PUSH1 0x44 DUP3 ADD MSTORE PUSH1 0x64 SWAP1 REVERT JUMPDEST ISZERO PUSH3 0x2056 JUMPI JUMP JUMPDEST PUSH1 0x40 MLOAD PUSH3 0x461BCD PUSH1 0xE5 SHL DUP2 MSTORE PUSH1 0x20 PUSH1 0x4 DUP3 ADD MSTORE PUSH1 0x12 PUSH1 0x24 DUP3 ADD MSTORE PUSH18 0x13919508191BD95CC81B9BDD08195E1A5CDD PUSH1 0x72 SHL PUSH1 0x44 DUP3 ADD MSTORE PUSH1 0x64 SWAP1 REVERT JUMPDEST PUSH8 0xFFFFFFFFFFFFFFFF DUP2 GT PUSH3 0x52B JUMPI PUSH1 0x5 SHL PUSH1 0x20 ADD SWAP1 JUMP JUMPDEST PUSH1 0x40 MLOAD SWAP1 PUSH3 0x20B8 DUP3 PUSH3 0x191F JUMP JUMPDEST PUSH1 0x0 PUSH1 0x80 DUP4 DUP3 DUP2 MSTORE PUSH1 0x60 PUSH1 0x20 DUP3 ADD MSTORE DUP3 PUSH1 0x40 DUP3 ADD MSTORE DUP3 PUSH1 0x60 DUP3 ADD MSTORE ADD MSTORE JUMP JUMPDEST SWAP1 PUSH3 0x20E3 DUP3 PUSH3 0x2090 JUMP JUMPDEST PUSH3 0x20F2 PUSH1 0x40 MLOAD SWAP2 DUP3 PUSH3 0x1959 JUMP JUMPDEST DUP3 DUP2 MSTORE DUP1 SWAP3 PUSH3 0x2105 PUSH1 0x1F NOT SWAP2 PUSH3 0x2090 JUMP JUMPDEST ADD SWAP1 PUSH1 0x0 JUMPDEST DUP3 DUP2 LT PUSH3 0x2117 JUMPI POP POP POP JUMP JUMPDEST PUSH1 0x20 SWAP1 PUSH3 0x2124 PUSH3 0x20A9 JUMP JUMPDEST DUP3 DUP3 DUP6 ADD ADD MSTORE ADD PUSH3 0x210A JUMP JUMPDEST DUP1 MLOAD DUP3 LT ISZERO PUSH3 0x2146 JUMPI PUSH1 0x20 SWAP2 PUSH1 0x5 SHL ADD ADD SWAP1 JUMP JUMPDEST PUSH4 0x4E487B71 PUSH1 0xE0 SHL PUSH1 0x0 MSTORE PUSH1 0x32 PUSH1 0x4 MSTORE PUSH1 0x24 PUSH1 0x0 REVERT INVALID PUSH1 0x40 PUSH1 0x80 DUP2 MSTORE CALLVALUE PUSH3 0x678 JUMPI PUSH3 0x2266 DUP1 CODESIZE SUB DUP1 PUSH3 0x1E DUP2 PUSH3 0x67D JUMP JUMPDEST SWAP3 DUP4 CODECOPY DUP2 ADD PUSH2 0x100 DUP3 DUP3 SUB SLT PUSH3 0x678 JUMPI DUP2 MLOAD PUSH1 0x1 PUSH1 0x1 PUSH1 0x40 SHL SUB SWAP3 SWAP1 DUP4 DUP2 GT PUSH3 0x678 JUMPI DUP3 PUSH3 0x51 SWAP2 DUP4 ADD PUSH3 0x6A3 JUMP JUMPDEST SWAP1 PUSH1 0x20 SWAP3 DUP4 DUP3 ADD MLOAD DUP6 DUP2 GT PUSH3 0x678 JUMPI DUP2 PUSH3 0x6F SWAP2 DUP5 ADD PUSH3 0x6A3 JUMP JUMPDEST SWAP1 DUP7 DUP4 ADD MLOAD SWAP1 PUSH1 0x60 DUP5 ADD MLOAD SWAP1 PUSH3 0x89 PUSH1 0x80 DUP7 ADD PUSH3 0x715 JUMP JUMPDEST SWAP8 PUSH1 0xA0 DUP7 ADD MLOAD SWAP2 PUSH1 0xC0 DUP8 ADD MLOAD SWAP1 DUP3 DUP3 GT PUSH3 0x678 JUMPI PUSH3 0xB2 PUSH1 0xE0 SWAP2 PUSH3 0xBA SWAP4 DUP11 ADD PUSH3 0x6A3 JUMP JUMPDEST SWAP8 ADD PUSH3 0x715 JUMP JUMPDEST SWAP3 DUP8 MLOAD SWAP7 DUP3 DUP9 GT PUSH3 0x562 JUMPI PUSH1 0x3 SWAP2 DUP3 SLOAD SWAP9 PUSH1 0x1 SWAP11 DUP12 DUP12 DUP2 SHR SWAP12 AND DUP1 ISZERO PUSH3 0x66D JUMPI JUMPDEST DUP14 DUP13 LT EQ PUSH3 0x657 JUMPI DUP13 SWAP11 DUP3 SWAP2 PUSH1 0x1F SWAP15 DUP16 SWAP3 DUP4 DUP2 GT PUSH3 0x5F4 JUMPI JUMPDEST POP POP DUP13 SWAP2 DUP4 GT PUSH1 0x1 EQ PUSH3 0x584 JUMPI PUSH1 0x0 SWAP3 PUSH3 0x578 JUMPI JUMPDEST POP POP PUSH1 0x0 NOT DUP3 DUP7 SHL SHR NOT AND SWAP1 DUP12 SHL OR DUP4 SSTORE JUMPDEST DUP8 MLOAD DUP5 DUP2 GT PUSH3 0x562 JUMPI PUSH1 0x4 SWAP9 DUP10 SLOAD DUP13 DUP2 DUP2 SHR SWAP2 AND DUP1 ISZERO PUSH3 0x557 JUMPI JUMPDEST DUP13 DUP3 LT EQ PUSH3 0x542 JUMPI DUP3 SWAP2 DUP13 DUP16 SWAP3 DUP4 DUP2 GT PUSH3 0x4DF JUMPI JUMPDEST POP POP DUP13 SWAP2 DUP4 GT PUSH1 0x1 EQ PUSH3 0x46F JUMPI PUSH1 0x0 SWAP3 PUSH3 0x463 JUMPI JUMPDEST POP POP PUSH1 0x0 NOT DUP3 DUP7 SHL SHR NOT AND SWAP1 DUP12 SHL OR DUP9 SSTORE JUMPDEST PUSH3 0x189 CALLER PUSH3 0x72A JUMP JUMPDEST DUP10 PUSH1 0x6 SSTORE PUSH1 0x1 DUP1 PUSH1 0xA0 SHL SUB SWAP5 DUP6 PUSH1 0x1 DUP1 PUSH1 0xA0 SHL SUB NOT SWAP14 AND DUP14 PUSH1 0x7 SLOAD AND OR PUSH1 0x7 SSTORE PUSH1 0x8 SSTORE PUSH1 0x9 SSTORE DUP1 MLOAD SWAP3 DUP4 GT PUSH3 0x44E JUMPI PUSH1 0xA SLOAD DUP10 DUP2 DUP2 SHR SWAP2 AND DUP1 ISZERO PUSH3 0x443 JUMPI JUMPDEST DUP10 DUP3 LT EQ PUSH3 0x42E JUMPI SWAP1 DUP2 DUP12 DUP6 SWAP5 SWAP4 GT PUSH3 0x3D5 JUMPI JUMPDEST POP DUP9 SWAP1 DUP12 DUP5 GT PUSH1 0x1 EQ PUSH3 0x368 JUMPI PUSH1 0x0 SWAP4 PUSH3 0x35C JUMPI JUMPDEST POP POP DUP3 DUP10 SHL SWAP3 PUSH1 0x0 NOT SWAP2 SHL SHR NOT AND OR PUSH1 0xA SSTORE JUMPDEST TIMESTAMP PUSH1 0xB SSTORE PUSH8 0xDE0B6B3A7640000 SWAP1 DUP2 DUP5 MUL SWAP2 DUP5 DUP4 DIV EQ DUP5 ISZERO OR ISZERO PUSH3 0x306 JUMPI DUP3 AND SWAP7 DUP8 ISZERO PUSH3 0x31B JUMPI POP PUSH1 0x2 SLOAD DUP2 DUP2 ADD DUP1 SWAP2 GT PUSH3 0x306 JUMPI PUSH1 0x0 PUSH32 0xDDF252AD1BE2C89B69C2B068FC378DAA952BA7F163C4A11628F55A4DF523B3EF DUP8 PUSH3 0x28C SWAP6 SWAP5 DUP12 SWAP5 PUSH1 0x2 SSTORE DUP5 DUP5 MSTORE DUP4 DUP3 MSTORE DUP14 DUP5 KECCAK256 DUP2 DUP2 SLOAD ADD SWAP1 SSTORE DUP14 MLOAD SWAP1 DUP2 MSTORE LOG3 PUSH3 0x72A JUMP JUMPDEST DUP5 PUSH1 0x0 MSTORE PUSH1 0xC DUP4 MSTORE DUP7 PUSH1 0x0 KECCAK256 SSTORE PUSH1 0xD SLOAD SWAP3 PUSH9 0x10000000000000000 DUP5 LT ISZERO PUSH3 0x2F1 JUMPI DUP4 ADD DUP1 PUSH1 0xD SSTORE DUP4 LT ISZERO PUSH3 0x2DC JUMPI POP PUSH1 0xD PUSH1 0x0 MSTORE PUSH1 0x0 KECCAK256 ADD SWAP2 DUP3 SLOAD AND OR SWAP1 SSTORE MLOAD PUSH2 0x1AF2 SWAP1 DUP2 PUSH3 0x774 DUP3 CODECOPY RETURN JUMPDEST PUSH1 0x32 SWAP1 PUSH4 0x4E487B71 PUSH1 0xE0 SHL PUSH1 0x0 MSTORE MSTORE PUSH1 0x24 PUSH1 0x0 REVERT JUMPDEST PUSH1 0x41 DUP3 PUSH4 0x4E487B71 PUSH1 0xE0 SHL PUSH1 0x0 MSTORE MSTORE PUSH1 0x24 PUSH1 0x0 REVERT JUMPDEST PUSH1 0x11 DUP6 PUSH4 0x4E487B71 PUSH1 0xE0 SHL PUSH1 0x0 MSTORE MSTORE PUSH1 0x24 PUSH1 0x0 REVERT JUMPDEST DUP5 PUSH1 0x64 SWAP2 DUP8 DUP13 MLOAD SWAP3 PUSH3 0x461BCD PUSH1 0xE5 SHL DUP5 MSTORE DUP4 ADD MSTORE PUSH1 0x24 DUP3 ADD MSTORE PUSH32 0x45524332303A206D696E7420746F20746865207A65726F206164647265737300 PUSH1 0x44 DUP3 ADD MSTORE REVERT JUMPDEST ADD MLOAD SWAP2 POP CODESIZE DUP1 PUSH3 0x1F7 JUMP JUMPDEST SWAP2 SWAP1 DUP11 SWAP5 POP PUSH1 0x1F NOT DUP5 AND SWAP3 PUSH1 0xA PUSH1 0x0 MSTORE DUP11 PUSH1 0x0 KECCAK256 SWAP4 PUSH1 0x0 JUMPDEST DUP13 DUP3 DUP3 LT PUSH3 0x3BE JUMPI POP POP DUP6 GT PUSH3 0x3A3 JUMPI JUMPDEST POP POP POP POP DUP2 SHL ADD PUSH1 0xA SSTORE PUSH3 0x20A JUMP JUMPDEST ADD MLOAD SWAP1 PUSH1 0xF8 DUP5 PUSH1 0x0 NOT SWAP3 SHL AND SHR NOT AND SWAP1 SSTORE CODESIZE DUP1 DUP1 DUP1 PUSH3 0x393 JUMP JUMPDEST DUP4 DUP6 ADD MLOAD DUP8 SSTORE DUP15 SWAP9 SWAP1 SWAP7 ADD SWAP6 SWAP4 DUP5 ADD SWAP4 ADD PUSH3 0x380 JUMP JUMPDEST SWAP1 SWAP2 SWAP3 POP PUSH1 0xA PUSH1 0x0 MSTORE DUP9 PUSH1 0x0 KECCAK256 DUP12 DUP1 DUP7 ADD PUSH1 0x5 SHR DUP3 ADD SWAP3 DUP12 DUP8 LT PUSH3 0x424 JUMPI JUMPDEST SWAP2 DUP13 SWAP2 DUP8 SWAP7 SWAP6 SWAP5 SWAP4 ADD PUSH1 0x5 SHR ADD SWAP2 JUMPDEST DUP3 DUP2 LT PUSH3 0x414 JUMPI POP POP PUSH3 0x1E0 JUMP JUMPDEST PUSH1 0x0 DUP2 SSTORE DUP7 SWAP6 POP DUP13 SWAP2 ADD PUSH3 0x404 JUMP JUMPDEST SWAP3 POP DUP2 SWAP3 PUSH3 0x3F5 JUMP JUMPDEST PUSH1 0x22 DUP9 PUSH4 0x4E487B71 PUSH1 0xE0 SHL PUSH1 0x0 MSTORE MSTORE PUSH1 0x24 PUSH1 0x0 REVERT JUMPDEST SWAP1 PUSH1 0x7F AND SWAP1 PUSH3 0x1CA JUMP JUMPDEST PUSH1 0x41 DUP8 PUSH4 0x4E487B71 PUSH1 0xE0 SHL PUSH1 0x0 MSTORE MSTORE PUSH1 0x24 PUSH1 0x0 REVERT JUMPDEST ADD MLOAD SWAP1 POP CODESIZE DUP1 PUSH3 0x16C JUMP JUMPDEST PUSH1 0x0 DUP13 DUP2 MSTORE DUP14 DUP2 KECCAK256 DUP16 SWAP6 POP SWAP3 SWAP2 SWAP1 PUSH1 0x1F NOT DUP6 AND SWAP1 DUP16 JUMPDEST DUP3 DUP3 LT PUSH3 0x4BE JUMPI POP POP DUP5 GT PUSH3 0x4A5 JUMPI JUMPDEST POP POP POP DUP2 SHL ADD DUP9 SSTORE PUSH3 0x17E JUMP JUMPDEST ADD MLOAD PUSH1 0x0 NOT DUP4 DUP9 SHL PUSH1 0xF8 AND SHR NOT AND SWAP1 SSTORE CODESIZE DUP1 DUP1 PUSH3 0x497 JUMP JUMPDEST SWAP2 SWAP3 SWAP4 SWAP6 SWAP7 DUP3 SWAP2 SWAP6 DUP8 DUP7 ADD MLOAD DUP2 SSTORE ADD SWAP6 ADD SWAP4 ADD SWAP1 DUP16 SWAP6 SWAP5 SWAP4 SWAP3 SWAP2 DUP16 PUSH3 0x485 JUMP JUMPDEST SWAP2 SWAP4 POP SWAP2 DUP13 PUSH1 0x0 MSTORE DUP3 PUSH1 0x0 KECCAK256 SWAP2 DUP2 DUP7 ADD PUSH1 0x5 SHR DUP4 ADD SWAP4 DUP7 LT PUSH3 0x538 JUMPI JUMPDEST DUP16 SWAP1 SWAP3 DUP3 DUP8 SWAP7 SWAP5 SWAP6 SWAP4 SWAP6 ADD PUSH1 0x5 SHR ADD SWAP2 JUMPDEST DUP3 DUP2 LT PUSH3 0x520 JUMPI POP DUP15 SWAP2 POP PUSH3 0x155 JUMP JUMPDEST PUSH1 0x0 SWAP2 SWAP4 SWAP6 POP DUP1 SWAP3 SWAP5 POP SSTORE ADD SWAP2 DUP15 SWAP2 DUP15 DUP6 SWAP5 PUSH3 0x50E JUMP JUMPDEST SWAP3 POP DUP2 SWAP3 PUSH3 0x4FD JUMP JUMPDEST PUSH1 0x22 DUP12 PUSH4 0x4E487B71 PUSH1 0xE0 SHL PUSH1 0x0 MSTORE MSTORE PUSH1 0x24 PUSH1 0x0 REVERT JUMPDEST SWAP1 PUSH1 0x7F AND SWAP1 PUSH3 0x13E JUMP JUMPDEST PUSH4 0x4E487B71 PUSH1 0xE0 SHL PUSH1 0x0 MSTORE PUSH1 0x41 PUSH1 0x4 MSTORE PUSH1 0x24 PUSH1 0x0 REVERT JUMPDEST ADD MLOAD SWAP1 POP CODESIZE DUP1 PUSH3 0x10F JUMP JUMPDEST PUSH1 0x0 DUP8 DUP2 MSTORE DUP14 DUP2 KECCAK256 DUP16 SWAP6 POP SWAP3 SWAP2 SWAP1 PUSH1 0x1F NOT DUP6 AND SWAP1 DUP16 JUMPDEST DUP3 DUP3 LT PUSH3 0x5D3 JUMPI POP POP DUP5 GT PUSH3 0x5BA JUMPI JUMPDEST POP POP POP DUP2 SHL ADD DUP4 SSTORE PUSH3 0x121 JUMP JUMPDEST ADD MLOAD PUSH1 0x0 NOT DUP4 DUP9 SHL PUSH1 0xF8 AND SHR NOT AND SWAP1 SSTORE CODESIZE DUP1 DUP1 PUSH3 0x5AC JUMP JUMPDEST SWAP2 SWAP3 SWAP4 SWAP6 SWAP7 DUP3 SWAP2 SWAP6 DUP8 DUP7 ADD MLOAD DUP2 SSTORE ADD SWAP6 ADD SWAP4 ADD SWAP1 DUP16 SWAP6 SWAP5 SWAP4 SWAP3 SWAP2 DUP16 PUSH3 0x59A JUMP JUMPDEST SWAP2 SWAP4 POP SWAP2 DUP8 PUSH1 0x0 MSTORE DUP3 PUSH1 0x0 KECCAK256 SWAP2 DUP2 DUP7 ADD PUSH1 0x5 SHR DUP4 ADD SWAP4 DUP7 LT PUSH3 0x64D JUMPI JUMPDEST DUP16 SWAP1 SWAP3 DUP3 DUP8 SWAP7 SWAP5 SWAP6 SWAP4 SWAP6 ADD PUSH1 0x5 SHR ADD SWAP2 JUMPDEST DUP3 DUP2 LT PUSH3 0x635 JUMPI POP DUP15 SWAP2 POP PUSH3 0xF8 JUMP JUMPDEST PUSH1 0x0 SWAP2 SWAP4 SWAP6 POP DUP1 SWAP3 SWAP5 POP SSTORE ADD SWAP2 DUP15 SWAP2 DUP15 DUP6 SWAP5 PUSH3 0x623 JUMP JUMPDEST SWAP3 POP DUP2 SWAP3 PUSH3 0x612 JUMP JUMPDEST PUSH4 0x4E487B71 PUSH1 0xE0 SHL PUSH1 0x0 MSTORE PUSH1 0x22 PUSH1 0x4 MSTORE PUSH1 0x24 PUSH1 0x0 REVERT JUMPDEST SWAP11 PUSH1 0x7F AND SWAP11 PUSH3 0xDD JUMP JUMPDEST PUSH1 0x0 DUP1 REVERT JUMPDEST PUSH1 0x40 MLOAD SWAP2 SWAP1 PUSH1 0x1F ADD PUSH1 0x1F NOT AND DUP3 ADD PUSH1 0x1 PUSH1 0x1 PUSH1 0x40 SHL SUB DUP2 GT DUP4 DUP3 LT OR PUSH3 0x562 JUMPI PUSH1 0x40 MSTORE JUMP JUMPDEST SWAP2 SWAP1 DUP1 PUSH1 0x1F DUP5 ADD SLT ISZERO PUSH3 0x678 JUMPI DUP3 MLOAD PUSH1 0x1 PUSH1 0x1 PUSH1 0x40 SHL SUB DUP2 GT PUSH3 0x562 JUMPI PUSH1 0x20 SWAP1 PUSH3 0x6D9 PUSH1 0x1F DUP3 ADD PUSH1 0x1F NOT AND DUP4 ADD PUSH3 0x67D JUMP JUMPDEST SWAP3 DUP2 DUP5 MSTORE DUP3 DUP3 DUP8 ADD ADD GT PUSH3 0x678 JUMPI PUSH1 0x0 JUMPDEST DUP2 DUP2 LT PUSH3 0x701 JUMPI POP DUP3 PUSH1 0x0 SWAP4 SWAP5 SWAP6 POP ADD ADD MSTORE SWAP1 JUMP JUMPDEST DUP6 DUP2 ADD DUP4 ADD MLOAD DUP5 DUP3 ADD DUP5 ADD MSTORE DUP3 ADD PUSH3 0x6EB JUMP JUMPDEST MLOAD SWAP1 PUSH1 0x1 PUSH1 0x1 PUSH1 0xA0 SHL SUB DUP3 AND DUP3 SUB PUSH3 0x678 JUMPI JUMP JUMPDEST PUSH1 0x5 DUP1 SLOAD PUSH1 0x1 PUSH1 0x1 PUSH1 0xA0 SHL SUB SWAP3 DUP4 AND PUSH1 0x1 PUSH1 0x1 PUSH1 0xA0 SHL SUB NOT DUP3 AND DUP2 OR SWAP1 SWAP3 SSTORE SWAP1 SWAP2 AND PUSH32 0x8BE0079C531659141344CD1FD0A4F28419497F9722A3DAAFE3B4186F6B6457E0 PUSH1 0x0 DUP1 LOG3 JUMP INVALID PUSH1 0x80 PUSH1 0x40 DUP2 DUP2 MSTORE PUSH1 0x4 DUP1 CALLDATASIZE LT ISZERO PUSH2 0x15 JUMPI PUSH1 0x0 DUP1 REVERT JUMPDEST PUSH1 0x0 SWAP3 DUP4 CALLDATALOAD PUSH1 0xE0 SHR SWAP1 DUP2 PUSH4 0x6FDDE03 EQ PUSH2 0xF13 JUMPI POP DUP1 PUSH4 0x95EA7B3 EQ PUSH2 0xEE9 JUMPI DUP1 PUSH4 0x16B60249 EQ PUSH2 0xE9C JUMPI DUP1 PUSH4 0x18160DDD EQ PUSH2 0xE7D JUMPI DUP1 PUSH4 0x2279A970 EQ PUSH2 0xD24 JUMPI DUP1 PUSH4 0x23B872DD EQ PUSH2 0xC5A JUMPI DUP1 PUSH4 0x313CE567 EQ PUSH2 0xC3E JUMPI DUP1 PUSH4 0x39509351 EQ PUSH2 0xBEE JUMPI DUP1 PUSH4 0x4D21E019 EQ PUSH2 0xB6F JUMPI DUP1 PUSH4 0x6588103B EQ PUSH2 0xB46 JUMPI DUP1 PUSH4 0x70A08231 EQ PUSH2 0xB0F JUMPI DUP1 PUSH4 0x715018A6 EQ PUSH2 0xAB2 JUMPI DUP1 PUSH4 0x7427A40C EQ PUSH2 0xA72 JUMPI DUP1 PUSH4 0x75CBF75D EQ PUSH2 0xA45 JUMPI DUP1 PUSH4 0x7B85B132 EQ PUSH2 0xA14 JUMPI DUP1 PUSH4 0x7E830574 EQ PUSH2 0x9F5 JUMPI DUP1 PUSH4 0x817BC0CB EQ PUSH2 0x968 JUMPI DUP1 PUSH4 0x8477D9F3 EQ PUSH2 0x7D6 JUMPI DUP1 PUSH4 0x87269729 EQ PUSH2 0x7B7 JUMPI DUP1 PUSH4 0x8DA5CB5B EQ PUSH2 0x78E JUMPI DUP1 PUSH4 0x8FCB4E5B EQ PUSH2 0x6CB JUMPI DUP1 PUSH4 0x95D89B41 EQ PUSH2 0x5B0 JUMPI DUP1 PUSH4 0xA457C2D7 EQ PUSH2 0x509 JUMPI DUP1 PUSH4 0xA9059CBB EQ PUSH2 0x4D8 JUMPI DUP1 PUSH4 0xD1A93D18 EQ PUSH2 0x2CE JUMPI DUP1 PUSH4 0xD5002F2E EQ PUSH2 0x2A5 JUMPI DUP1 PUSH4 0xD8270DCE EQ PUSH2 0x286 JUMPI DUP1 PUSH4 0xDD62ED3E EQ PUSH2 0x23D JUMPI DUP1 PUSH4 0xDE69B3AA EQ PUSH2 0x201 JUMPI PUSH4 0xF2FDE38B EQ PUSH2 0x16D JUMPI PUSH1 0x0 DUP1 REVERT JUMPDEST CALLVALUE PUSH2 0x1FD JUMPI PUSH1 0x20 CALLDATASIZE PUSH1 0x3 NOT ADD SLT PUSH2 0x1FD JUMPI PUSH2 0x186 PUSH2 0x1047 JUMP JUMPDEST SWAP2 PUSH2 0x18F PUSH2 0x121C JUMP JUMPDEST PUSH1 0x1 PUSH1 0x1 PUSH1 0xA0 SHL SUB DUP4 AND ISZERO PUSH2 0x1AB JUMPI DUP4 PUSH2 0x1A8 DUP5 PUSH2 0x1274 JUMP JUMPDEST DUP1 RETURN JUMPDEST SWAP1 PUSH1 0x20 PUSH1 0x84 SWAP3 MLOAD SWAP2 PUSH3 0x461BCD PUSH1 0xE5 SHL DUP4 MSTORE DUP3 ADD MSTORE PUSH1 0x26 PUSH1 0x24 DUP3 ADD MSTORE PUSH32 0x4F776E61626C653A206E6577206F776E657220697320746865207A65726F2061 PUSH1 0x44 DUP3 ADD MSTORE PUSH6 0x646472657373 PUSH1 0xD0 SHL PUSH1 0x64 DUP3 ADD MSTORE REVERT JUMPDEST DUP3 DUP1 REVERT JUMPDEST POP POP CALLVALUE PUSH2 0x239 JUMPI PUSH1 0x20 CALLDATASIZE PUSH1 0x3 NOT ADD SLT PUSH2 0x239 JUMPI PUSH1 0x20 SWAP2 DUP2 SWAP1 PUSH1 0x1 PUSH1 0x1 PUSH1 0xA0 SHL SUB PUSH2 0x229 PUSH2 0x1047 JUMP JUMPDEST AND DUP2 MSTORE PUSH1 0xC DUP5 MSTORE KECCAK256 SLOAD SWAP1 MLOAD SWAP1 DUP2 MSTORE RETURN JUMPDEST POP DUP1 REVERT JUMPDEST POP POP CALLVALUE PUSH2 0x239 JUMPI DUP1 PUSH1 0x3 NOT CALLDATASIZE ADD SLT PUSH2 0x239 JUMPI DUP1 PUSH1 0x20 SWAP3 PUSH2 0x25B PUSH2 0x1047 JUMP JUMPDEST PUSH2 0x263 PUSH2 0x1062 JUMP JUMPDEST PUSH1 0x1 PUSH1 0x1 PUSH1 0xA0 SHL SUB SWAP2 DUP3 AND DUP4 MSTORE PUSH1 0x1 DUP7 MSTORE DUP4 DUP4 KECCAK256 SWAP2 AND DUP3 MSTORE DUP5 MSTORE KECCAK256 SLOAD SWAP1 MLOAD SWAP1 DUP2 MSTORE RETURN JUMPDEST POP POP CALLVALUE PUSH2 0x239 JUMPI DUP2 PUSH1 0x3 NOT CALLDATASIZE ADD SLT PUSH2 0x239 JUMPI PUSH1 0x20 SWAP1 PUSH1 0xB SLOAD SWAP1 MLOAD SWAP1 DUP2 MSTORE RETURN JUMPDEST POP POP CALLVALUE PUSH2 0x239 JUMPI DUP2 PUSH1 0x3 NOT CALLDATASIZE ADD SLT PUSH2 0x239 JUMPI PUSH1 0x20 SWAP1 PUSH8 0xDE0B6B3A7640000 PUSH1 0x2 SLOAD DIV SWAP1 MLOAD SWAP1 DUP2 MSTORE RETURN JUMPDEST POP SWAP1 PUSH1 0x20 DUP1 PUSH1 0x3 NOT CALLDATASIZE ADD SLT PUSH2 0x4D4 JUMPI DUP3 CALLDATALOAD SWAP3 PUSH2 0x2E8 PUSH2 0x144D JUMP JUMPDEST PUSH1 0x9 SLOAD DUP1 ISZERO PUSH2 0x49C JUMPI PUSH2 0x307 DUP6 DUP1 ISZERO SWAP3 PUSH2 0x302 DUP5 ISZERO PUSH2 0x13E2 JUMP JUMPDEST PUSH2 0x143A JUMP JUMPDEST CALLVALUE SUB PUSH2 0x463 JUMPI PUSH8 0xDE0B6B3A7640000 SWAP1 DUP2 DUP7 MUL SWAP2 DUP7 DUP4 DIV EQ OR ISZERO PUSH2 0x450 JUMPI PUSH2 0x32E DUP6 PUSH2 0x1501 JUMP JUMPDEST PUSH1 0x1 PUSH1 0x1 PUSH1 0xA0 SHL SUB DUP2 AND SWAP3 SWAP1 SWAP2 SWAP1 DUP4 ISZERO PUSH2 0x417 JUMPI DUP4 DUP9 MSTORE DUP8 DUP6 MSTORE DUP2 DUP7 DUP10 KECCAK256 SLOAD LT PUSH2 0x3D4 JUMPI POP DUP7 DUP1 SWAP4 PUSH2 0x36F DUP9 DUP4 SWAP6 PUSH2 0x368 DUP6 SWAP7 CALLER DUP4 PUSH2 0x183F JUMP JUMPDEST CALLER SWAP1 PUSH2 0x15BA JUMP JUMPDEST DUP2 SWAP1 CALLVALUE ISZERO PUSH2 0x3CA JUMPI JUMPDEST CALLVALUE SWAP2 CALL ISZERO PUSH2 0x3C0 JUMPI SWAP1 PUSH32 0x630B54F21D1C5AE41C4633AD96E8C15CE15665365EDED6A38476FFA71C8ACE6C SWAP2 DUP2 MLOAD SWAP4 DUP5 MSTORE CALLVALUE SWAP1 DUP5 ADD MSTORE CALLER SWAP3 LOG2 PUSH2 0x3B8 PUSH2 0x1773 JUMP JUMPDEST PUSH1 0x1 PUSH1 0x6 SSTORE DUP1 RETURN JUMPDEST DUP2 MLOAD RETURNDATASIZE DUP6 DUP3 RETURNDATACOPY RETURNDATASIZE SWAP1 REVERT JUMPDEST PUSH2 0x8FC SWAP2 POP PUSH2 0x378 JUMP JUMPDEST DUP6 MLOAD PUSH3 0x461BCD PUSH1 0xE5 SHL DUP2 MSTORE SWAP1 DUP2 ADD DUP6 SWAP1 MSTORE PUSH1 0x1E PUSH1 0x24 DUP3 ADD MSTORE PUSH32 0x53656C6C65722068617320696E73756666696369656E74207368617265730000 PUSH1 0x44 DUP3 ADD MSTORE PUSH1 0x64 SWAP1 REVERT JUMPDEST DUP6 MLOAD PUSH3 0x461BCD PUSH1 0xE5 SHL DUP2 MSTORE SWAP1 DUP2 ADD DUP6 SWAP1 MSTORE PUSH1 0x13 PUSH1 0x24 DUP3 ADD MSTORE PUSH19 0x4E6F2073686172657320617661696C61626C65 PUSH1 0x68 SHL PUSH1 0x44 DUP3 ADD MSTORE PUSH1 0x64 SWAP1 REVERT JUMPDEST PUSH4 0x4E487B71 PUSH1 0xE0 SHL DUP7 MSTORE PUSH1 0x11 DUP3 MSTORE PUSH1 0x24 DUP7 REVERT JUMPDEST POP SWAP2 MLOAD PUSH3 0x461BCD PUSH1 0xE5 SHL DUP2 MSTORE SWAP2 DUP3 ADD MSTORE PUSH1 0x14 PUSH1 0x24 DUP3 ADD MSTORE PUSH20 0x125B98DBDC9C9958DD0811551208185B5BDD5B9D PUSH1 0x62 SHL PUSH1 0x44 DUP3 ADD MSTORE PUSH1 0x64 SWAP1 REVERT JUMPDEST POP SWAP2 MLOAD PUSH3 0x461BCD PUSH1 0xE5 SHL DUP2 MSTORE SWAP2 DUP3 ADD MSTORE PUSH1 0x13 PUSH1 0x24 DUP3 ADD MSTORE PUSH19 0x14DA185C99481C1C9A58D9481B9BDD081CD95D PUSH1 0x6A SHL PUSH1 0x44 DUP3 ADD MSTORE PUSH1 0x64 SWAP1 REVERT JUMPDEST DUP4 DUP1 REVERT JUMPDEST POP POP CALLVALUE PUSH2 0x239 JUMPI DUP1 PUSH1 0x3 NOT CALLDATASIZE ADD SLT PUSH2 0x239 JUMPI PUSH1 0x20 SWAP1 PUSH2 0x502 PUSH2 0x4F8 PUSH2 0x1047 JUMP JUMPDEST PUSH1 0x24 CALLDATALOAD SWAP1 CALLER PUSH2 0x183F JUMP JUMPDEST MLOAD PUSH1 0x1 DUP2 MSTORE RETURN JUMPDEST POP DUP3 CALLVALUE PUSH2 0x5AD JUMPI DUP3 PUSH1 0x3 NOT CALLDATASIZE ADD SLT PUSH2 0x5AD JUMPI PUSH2 0x523 PUSH2 0x1047 JUMP JUMPDEST SWAP2 DUP4 PUSH1 0x24 CALLDATALOAD SWAP3 CALLER DUP2 MSTORE PUSH1 0x1 PUSH1 0x20 MSTORE DUP2 DUP2 KECCAK256 PUSH1 0x1 DUP1 PUSH1 0xA0 SHL SUB DUP7 AND DUP3 MSTORE PUSH1 0x20 MSTORE KECCAK256 SLOAD SWAP1 DUP3 DUP3 LT PUSH2 0x55C JUMPI PUSH1 0x20 DUP6 PUSH2 0x502 DUP6 DUP6 SUB DUP8 CALLER PUSH2 0x12E0 JUMP JUMPDEST PUSH1 0x84 SWAP1 PUSH1 0x20 DUP7 MLOAD SWAP2 PUSH3 0x461BCD PUSH1 0xE5 SHL DUP4 MSTORE DUP3 ADD MSTORE PUSH1 0x25 PUSH1 0x24 DUP3 ADD MSTORE PUSH32 0x45524332303A2064656372656173656420616C6C6F77616E63652062656C6F77 PUSH1 0x44 DUP3 ADD MSTORE PUSH5 0x207A65726F PUSH1 0xD8 SHL PUSH1 0x64 DUP3 ADD MSTORE REVERT JUMPDEST DUP1 REVERT JUMPDEST POP SWAP2 CALLVALUE PUSH2 0x5AD JUMPI DUP1 PUSH1 0x3 NOT CALLDATASIZE ADD SLT PUSH2 0x5AD JUMPI DUP2 MLOAD SWAP2 DUP2 DUP5 SLOAD SWAP3 PUSH1 0x1 DUP5 DUP2 SHR SWAP2 DUP2 DUP7 AND SWAP6 DUP7 ISZERO PUSH2 0x6C1 JUMPI JUMPDEST PUSH1 0x20 SWAP7 DUP8 DUP6 LT DUP2 EQ PUSH2 0x6AE JUMPI SWAP1 DUP8 DUP10 SWAP11 SWAP3 DUP7 DUP12 SWAP10 SWAP11 SWAP12 MSTORE SWAP2 DUP3 PUSH1 0x0 EQ PUSH2 0x684 JUMPI POP POP PUSH1 0x1 EQ PUSH2 0x629 JUMPI JUMPDEST DUP6 DUP9 PUSH2 0x625 DUP10 PUSH2 0x616 DUP5 DUP11 SUB DUP6 PUSH2 0x10C5 JUMP JUMPDEST MLOAD SWAP3 DUP3 DUP5 SWAP4 DUP5 MSTORE DUP4 ADD SWAP1 PUSH2 0x1007 JUMP JUMPDEST SUB SWAP1 RETURN JUMPDEST DUP2 MSTORE DUP7 SWAP4 POP SWAP2 SWAP1 PUSH32 0x8A35ACFBC15FF81A39AE7D344FD709F28E8600B4AA8C65C6B64BFE7FE36BD19B JUMPDEST DUP3 DUP5 LT PUSH2 0x66C JUMPI POP POP POP DUP3 ADD ADD DUP2 PUSH2 0x616 PUSH2 0x625 CODESIZE PUSH2 0x604 JUMP JUMPDEST DUP1 SLOAD DUP5 DUP11 ADD DUP7 ADD MSTORE DUP9 SWAP6 POP DUP8 SWAP5 SWAP1 SWAP4 ADD SWAP3 DUP2 ADD PUSH2 0x652 JUMP JUMPDEST PUSH1 0xFF NOT AND DUP9 DUP3 ADD MSTORE SWAP5 ISZERO ISZERO PUSH1 0x5 SHL DUP8 ADD SWAP1 SWAP5 ADD SWAP5 POP DUP6 SWAP4 POP PUSH2 0x616 SWAP3 POP PUSH2 0x625 SWAP2 POP CODESIZE SWAP1 POP PUSH2 0x604 JUMP JUMPDEST PUSH4 0x4E487B71 PUSH1 0xE0 SHL DUP4 MSTORE PUSH1 0x22 DUP11 MSTORE PUSH1 0x24 DUP4 REVERT JUMPDEST SWAP3 PUSH1 0x7F AND SWAP3 PUSH2 0x5DA JUMP JUMPDEST POP SWAP1 CALLVALUE PUSH2 0x1FD JUMPI DUP1 PUSH1 0x3 NOT CALLDATASIZE ADD SLT PUSH2 0x1FD JUMPI PUSH2 0x6E5 PUSH2 0x1047 JUMP JUMPDEST SWAP1 PUSH1 0x24 CALLDATALOAD SWAP3 DUP4 ISZERO SWAP1 PUSH2 0x6F7 DUP3 ISZERO PUSH2 0x13E2 JUMP JUMPDEST CALLER DUP7 MSTORE PUSH1 0xC PUSH1 0x20 MSTORE PUSH2 0x70E DUP6 DUP5 DUP9 KECCAK256 SLOAD LT ISZERO PUSH2 0x14A3 JUMP JUMPDEST PUSH8 0xDE0B6B3A7640000 SWAP2 DUP3 DUP7 MUL SWAP3 DUP7 DUP5 DIV EQ OR ISZERO PUSH2 0x77B JUMPI POP PUSH2 0x732 SWAP1 DUP4 CALLER PUSH2 0x183F JUMP JUMPDEST PUSH2 0x73D DUP4 DUP4 CALLER PUSH2 0x15BA JUMP JUMPDEST MLOAD SWAP2 DUP3 MSTORE PUSH1 0x1 PUSH1 0x1 PUSH1 0xA0 SHL SUB AND SWAP1 CALLER SWAP1 PUSH32 0x99C01CD4F8275976EF33D24514B1694C8A9D5730D92E26996834343E09778E99 SWAP1 PUSH1 0x20 SWAP1 LOG3 PUSH2 0x1A8 PUSH2 0x1773 JUMP JUMPDEST PUSH4 0x4E487B71 PUSH1 0xE0 SHL DUP7 MSTORE PUSH1 0x11 SWAP1 MSTORE PUSH1 0x24 DUP6 REVERT JUMPDEST POP POP CALLVALUE PUSH2 0x239 JUMPI DUP2 PUSH1 0x3 NOT CALLDATASIZE ADD SLT PUSH2 0x239 JUMPI PUSH1 0x5 SLOAD SWAP1 MLOAD PUSH1 0x1 PUSH1 0x1 PUSH1 0xA0 SHL SUB SWAP1 SWAP2 AND DUP2 MSTORE PUSH1 0x20 SWAP1 RETURN JUMPDEST POP POP CALLVALUE PUSH2 0x239 JUMPI DUP2 PUSH1 0x3 NOT CALLDATASIZE ADD SLT PUSH2 0x239 JUMPI PUSH1 0x20 SWAP1 PUSH1 0x9 SLOAD SWAP1 MLOAD SWAP1 DUP2 MSTORE RETURN JUMPDEST POP SWAP2 SWAP1 CALLVALUE PUSH2 0x239 JUMPI DUP2 PUSH1 0x3 NOT CALLDATASIZE ADD SLT PUSH2 0x239 JUMPI DUP3 SWAP1 PUSH1 0xD SLOAD PUSH2 0x7F7 DUP2 PUSH2 0x1A0D JUMP JUMPDEST SWAP3 PUSH2 0x804 DUP4 MLOAD SWAP5 DUP6 PUSH2 0x10C5 JUMP JUMPDEST DUP2 DUP5 MSTORE PUSH2 0x810 DUP3 PUSH2 0x1A0D JUMP JUMPDEST PUSH1 0x20 DUP6 DUP2 ADD SWAP7 SWAP1 SWAP2 PUSH1 0x1F NOT ADD CALLDATASIZE DUP9 CALLDATACOPY PUSH2 0x828 DUP5 PUSH2 0x1A25 JUMP JUMPDEST SWAP3 PUSH2 0x832 DUP6 PUSH2 0x1A25 JUMP JUMPDEST SWAP5 PUSH8 0xDE0B6B3A7640000 PUSH1 0x2 SLOAD DIV DUP4 DUP2 ISZERO ISZERO SWAP1 JUMPDEST DUP4 DUP2 LT PUSH2 0x8B2 JUMPI POP POP POP POP POP DUP5 MLOAD SWAP6 PUSH1 0x60 DUP8 ADD SWAP1 PUSH1 0x60 DUP9 MSTORE MLOAD DUP1 SWAP2 MSTORE PUSH1 0x80 DUP8 ADD SWAP8 SWAP2 JUMPDEST DUP2 DUP2 LT PUSH2 0x895 JUMPI DUP8 DUP10 SUB DUP5 DUP10 ADD MSTORE DUP8 DUP1 PUSH2 0x625 DUP10 DUP10 PUSH2 0x888 DUP15 DUP12 PUSH2 0x11E8 JUMP JUMPDEST SWAP2 DUP5 DUP4 SUB SWAP1 DUP6 ADD MSTORE PUSH2 0x11E8 JUMP JUMPDEST DUP3 MLOAD PUSH1 0x1 PUSH1 0x1 PUSH1 0xA0 SHL SUB AND DUP10 MSTORE SWAP8 DUP4 ADD SWAP8 SWAP2 DUP4 ADD SWAP2 PUSH1 0x1 ADD PUSH2 0x869 JUMP JUMPDEST PUSH2 0x8BE DUP2 SWAP12 SWAP7 SWAP12 PUSH2 0x1078 JUMP JUMPDEST SWAP1 SLOAD PUSH1 0x1 PUSH1 0x1 PUSH1 0xA0 SHL SUB SWAP2 PUSH1 0x3 SWAP2 SWAP1 DUP3 SHL SHR DUP3 AND PUSH2 0x8DC DUP5 DUP11 PUSH2 0x1A57 JUMP JUMPDEST MSTORE PUSH2 0x8E6 DUP4 PUSH2 0x1078 JUMP JUMPDEST SWAP1 SLOAD SWAP2 SHL SHR AND DUP12 MSTORE PUSH1 0xC DUP8 MSTORE DUP10 DUP12 KECCAK256 SLOAD PUSH2 0x900 DUP3 DUP11 PUSH2 0x1A57 JUMP JUMPDEST MSTORE DUP2 ISZERO PUSH2 0x95E JUMPI PUSH2 0x911 DUP2 DUP10 PUSH2 0x1A57 JUMP JUMPDEST MLOAD PUSH1 0x64 SWAP1 DUP2 DUP2 MUL SWAP2 DUP2 DUP4 DIV EQ SWAP1 ISZERO OR ISZERO PUSH2 0x94B JUMPI SWAP1 PUSH2 0x933 DUP5 PUSH2 0x943 SWAP4 PUSH2 0x1753 JUMP JUMPDEST PUSH2 0x93D DUP3 DUP13 PUSH2 0x1A57 JUMP JUMPDEST MSTORE PUSH2 0x14F2 JUMP JUMPDEST SWAP10 SWAP5 SWAP10 PUSH2 0x846 JUMP JUMPDEST PUSH4 0x4E487B71 PUSH1 0xE0 SHL DUP13 MSTORE PUSH1 0x11 DUP7 MSTORE PUSH1 0x24 DUP13 REVERT JUMPDEST PUSH2 0x943 SWAP1 DUP12 PUSH2 0x933 JUMP JUMPDEST DUP3 DUP5 CALLVALUE PUSH2 0x5AD JUMPI DUP1 PUSH1 0x3 NOT CALLDATASIZE ADD SLT PUSH2 0x5AD JUMPI PUSH1 0xD SLOAD DUP2 DUP1 JUMPDEST DUP3 DUP2 LT PUSH2 0x991 JUMPI PUSH1 0x20 DUP5 DUP7 MLOAD SWAP1 DUP2 MSTORE RETURN JUMPDEST PUSH2 0x99A DUP2 PUSH2 0x1078 JUMP JUMPDEST SWAP1 SLOAD PUSH1 0x1 PUSH1 0x1 PUSH1 0xA0 SHL SUB SWAP2 PUSH1 0x3 SWAP2 SWAP1 DUP3 SHL SHR DUP3 AND PUSH2 0x9C3 JUMPI JUMPDEST POP POP PUSH2 0x9BE SWAP1 PUSH2 0x14F2 JUMP JUMPDEST PUSH2 0x980 JUMP JUMPDEST SWAP5 PUSH2 0x9ED SWAP2 DUP4 SWAP7 PUSH2 0x9D6 PUSH2 0x9BE SWAP6 PUSH2 0x1078 JUMP JUMPDEST SWAP1 SLOAD SWAP2 SHL SHR AND DUP5 MSTORE PUSH1 0xC PUSH1 0x20 MSTORE DUP7 DUP5 KECCAK256 SLOAD SWAP1 PUSH2 0x12BD JUMP JUMPDEST SWAP4 SWAP1 DUP7 PUSH2 0x9B3 JUMP JUMPDEST POP POP CALLVALUE PUSH2 0x239 JUMPI DUP2 PUSH1 0x3 NOT CALLDATASIZE ADD SLT PUSH2 0x239 JUMPI PUSH1 0x20 SWAP1 PUSH1 0x8 SLOAD SWAP1 MLOAD SWAP1 DUP2 MSTORE RETURN JUMPDEST POP POP CALLVALUE PUSH2 0x239 JUMPI DUP2 PUSH1 0x3 NOT CALLDATASIZE ADD SLT PUSH2 0x239 JUMPI PUSH2 0x625 SWAP1 PUSH2 0xA32 PUSH2 0x10FD JUMP JUMPDEST SWAP1 MLOAD SWAP2 DUP3 SWAP2 PUSH1 0x20 DUP4 MSTORE PUSH1 0x20 DUP4 ADD SWAP1 PUSH2 0x1007 JUMP JUMPDEST POP POP CALLVALUE PUSH2 0x239 JUMPI PUSH1 0x20 CALLDATASIZE PUSH1 0x3 NOT ADD SLT PUSH2 0x239 JUMPI PUSH1 0x20 SWAP1 PUSH2 0xA6B PUSH2 0xA66 PUSH2 0x1047 JUMP JUMPDEST PUSH2 0x1A6B JUMP JUMPDEST SWAP1 MLOAD SWAP1 DUP2 MSTORE RETURN JUMPDEST POP CALLVALUE PUSH2 0x1FD JUMPI PUSH1 0x20 CALLDATASIZE PUSH1 0x3 NOT ADD SLT PUSH2 0x1FD JUMPI CALLDATALOAD SWAP2 PUSH1 0xD SLOAD DUP4 LT ISZERO PUSH2 0x5AD JUMPI POP PUSH2 0xA9C PUSH1 0x20 SWAP3 PUSH2 0x1078 JUMP JUMPDEST SWAP1 SLOAD SWAP2 MLOAD SWAP2 PUSH1 0x1 DUP1 PUSH1 0xA0 SHL SUB SWAP2 PUSH1 0x3 SHL SHR AND DUP2 MSTORE RETURN JUMPDEST DUP4 CALLVALUE PUSH2 0x5AD JUMPI DUP1 PUSH1 0x3 NOT CALLDATASIZE ADD SLT PUSH2 0x5AD JUMPI PUSH2 0xACB PUSH2 0x121C JUMP JUMPDEST PUSH1 0x5 DUP1 SLOAD PUSH1 0x1 PUSH1 0x1 PUSH1 0xA0 SHL SUB NOT DUP2 AND SWAP1 SWAP2 SSTORE DUP2 SWAP1 PUSH1 0x1 PUSH1 0x1 PUSH1 0xA0 SHL SUB AND PUSH32 0x8BE0079C531659141344CD1FD0A4F28419497F9722A3DAAFE3B4186F6B6457E0 DUP3 DUP1 LOG3 DUP1 RETURN JUMPDEST POP POP CALLVALUE PUSH2 0x239 JUMPI PUSH1 0x20 CALLDATASIZE PUSH1 0x3 NOT ADD SLT PUSH2 0x239 JUMPI PUSH1 0x20 SWAP2 DUP2 SWAP1 PUSH1 0x1 PUSH1 0x1 PUSH1 0xA0 SHL SUB PUSH2 0xB37 PUSH2 0x1047 JUMP JUMPDEST AND DUP2 MSTORE DUP1 DUP5 MSTORE KECCAK256 SLOAD SWAP1 MLOAD SWAP1 DUP2 MSTORE RETURN JUMPDEST POP POP CALLVALUE PUSH2 0x239 JUMPI DUP2 PUSH1 0x3 NOT CALLDATASIZE ADD SLT PUSH2 0x239 JUMPI PUSH1 0x7 SLOAD SWAP1 MLOAD PUSH1 0x1 PUSH1 0x1 PUSH1 0xA0 SHL SUB SWAP1 SWAP2 AND DUP2 MSTORE PUSH1 0x20 SWAP1 RETURN JUMPDEST DUP3 DUP5 CALLVALUE PUSH2 0x5AD JUMPI DUP1 PUSH1 0x3 NOT CALLDATASIZE ADD SLT PUSH2 0x5AD JUMPI POP PUSH1 0x1 DUP1 PUSH1 0xA0 SHL SUB DUP1 PUSH1 0x7 SLOAD AND SWAP1 PUSH1 0x8 SLOAD SWAP3 PUSH1 0x9 SLOAD SWAP2 PUSH8 0xDE0B6B3A7640000 PUSH1 0x2 SLOAD DIV SWAP1 PUSH1 0x5 SLOAD AND SWAP1 PUSH2 0xBD5 PUSH1 0xB SLOAD SWAP4 PUSH1 0xE0 PUSH2 0xBBB PUSH2 0x10FD JUMP JUMPDEST SWAP2 DUP1 MLOAD SWAP10 DUP11 SWAP10 DUP11 MSTORE PUSH1 0x20 DUP11 ADD MSTORE DUP9 ADD MSTORE PUSH1 0xE0 DUP8 ADD SWAP1 PUSH2 0x1007 JUMP JUMPDEST SWAP4 PUSH1 0x60 DUP7 ADD MSTORE PUSH1 0x80 DUP6 ADD MSTORE PUSH1 0xA0 DUP5 ADD MSTORE PUSH1 0xC0 DUP4 ADD MSTORE SUB SWAP1 RETURN JUMPDEST POP POP CALLVALUE PUSH2 0x239 JUMPI DUP1 PUSH1 0x3 NOT CALLDATASIZE ADD SLT PUSH2 0x239 JUMPI PUSH2 0x502 PUSH1 0x20 SWAP3 PUSH2 0xC37 PUSH2 0xC11 PUSH2 0x1047 JUMP JUMPDEST CALLER DUP4 MSTORE PUSH1 0x1 DUP7 MSTORE DUP5 DUP4 KECCAK256 PUSH1 0x1 PUSH1 0x1 PUSH1 0xA0 SHL SUB DUP3 AND DUP5 MSTORE DUP7 MSTORE SWAP2 DUP5 SWAP1 KECCAK256 SLOAD PUSH1 0x24 CALLDATALOAD SWAP1 PUSH2 0x12BD JUMP JUMPDEST SWAP1 CALLER PUSH2 0x12E0 JUMP JUMPDEST POP POP CALLVALUE PUSH2 0x239 JUMPI DUP2 PUSH1 0x3 NOT CALLDATASIZE ADD SLT PUSH2 0x239 JUMPI PUSH1 0x20 SWAP1 MLOAD PUSH1 0x12 DUP2 MSTORE RETURN JUMPDEST POP DUP3 SWAP1 CALLVALUE PUSH2 0x239 JUMPI PUSH1 0x60 CALLDATASIZE PUSH1 0x3 NOT ADD SLT PUSH2 0x239 JUMPI PUSH2 0xC76 PUSH2 0x1047 JUMP JUMPDEST PUSH2 0xC7E PUSH2 0x1062 JUMP JUMPDEST SWAP2 DUP5 PUSH1 0x44 CALLDATALOAD SWAP5 PUSH1 0x1 DUP1 PUSH1 0xA0 SHL SUB DUP5 AND DUP2 MSTORE PUSH1 0x1 PUSH1 0x20 MSTORE DUP2 DUP2 KECCAK256 CALLER DUP3 MSTORE PUSH1 0x20 MSTORE KECCAK256 SLOAD SWAP1 PUSH1 0x0 NOT DUP3 SUB PUSH2 0xCB8 JUMPI JUMPDEST PUSH1 0x20 DUP7 PUSH2 0x502 DUP8 DUP8 DUP8 PUSH2 0x183F JUMP JUMPDEST DUP5 DUP3 LT PUSH2 0xCE1 JUMPI POP SWAP2 DUP4 SWAP2 PUSH2 0xCD6 PUSH1 0x20 SWAP7 SWAP6 PUSH2 0x502 SWAP6 SUB CALLER DUP4 PUSH2 0x12E0 JUMP JUMPDEST SWAP2 SWAP4 SWAP5 DUP2 SWAP4 POP PUSH2 0xCAA JUMP JUMPDEST PUSH1 0x64 SWAP1 PUSH1 0x20 DUP8 MLOAD SWAP2 PUSH3 0x461BCD PUSH1 0xE5 SHL DUP4 MSTORE DUP3 ADD MSTORE PUSH1 0x1D PUSH1 0x24 DUP3 ADD MSTORE PUSH32 0x45524332303A20696E73756666696369656E7420616C6C6F77616E6365000000 PUSH1 0x44 DUP3 ADD MSTORE REVERT JUMPDEST POP SWAP2 SWAP1 CALLVALUE PUSH2 0x239 JUMPI DUP1 PUSH1 0x3 NOT CALLDATASIZE ADD SLT PUSH2 0x239 JUMPI DUP3 CALLDATALOAD PUSH1 0x24 CALLDATALOAD PUSH2 0xD44 PUSH2 0x144D JUMP JUMPDEST DUP2 ISZERO SWAP2 PUSH2 0xD51 DUP4 ISZERO PUSH2 0x13E2 JUMP JUMPDEST CALLER DUP6 MSTORE PUSH1 0xC PUSH1 0x20 MSTORE PUSH2 0xD68 DUP2 DUP6 DUP8 KECCAK256 SLOAD LT ISZERO PUSH2 0x14A3 JUMP JUMPDEST DUP2 ISZERO PUSH2 0xE2B JUMPI PUSH8 0xDE0B6B3A7640000 SWAP3 DUP4 DUP3 MUL SWAP4 DUP3 DUP6 DIV EQ OR ISZERO PUSH2 0xE18 JUMPI SWAP1 DUP2 PUSH2 0xD9F PUSH2 0xD97 DUP4 DUP9 SWAP7 SWAP6 PUSH2 0x143A JUMP JUMPDEST SWAP4 ADDRESS CALLER PUSH2 0x183F JUMP JUMPDEST CALLER DUP5 MSTORE PUSH1 0xC PUSH1 0x20 MSTORE PUSH2 0xDB5 DUP6 DUP6 KECCAK256 SWAP2 DUP3 SLOAD PUSH2 0x14E5 JUMP JUMPDEST SWAP1 SSTORE CALLER DUP4 MSTORE PUSH1 0xC PUSH1 0x20 MSTORE DUP4 DUP4 KECCAK256 SLOAD ISZERO PUSH2 0xE0A JUMPI JUMPDEST PUSH1 0x9 SLOAD LT ISZERO PUSH2 0xDDC JUMPI JUMPDEST POP PUSH1 0x1 PUSH1 0x6 SSTORE DUP1 RETURN JUMPDEST DUP2 DUP1 DUP1 SWAP3 DUP2 DUP2 ISZERO PUSH2 0xE01 JUMPI JUMPDEST CALLER SWAP1 CALL ISZERO PUSH2 0xDF7 JUMPI DUP2 DUP2 PUSH2 0xDD3 JUMP JUMPDEST MLOAD SWAP1 RETURNDATASIZE SWAP1 DUP3 RETURNDATACOPY RETURNDATASIZE SWAP1 REVERT JUMPDEST POP PUSH2 0x8FC PUSH2 0xDE8 JUMP JUMPDEST PUSH2 0xE13 CALLER PUSH2 0x1699 JUMP JUMPDEST PUSH2 0xDC9 JUMP JUMPDEST PUSH4 0x4E487B71 PUSH1 0xE0 SHL DUP6 MSTORE PUSH1 0x11 DUP7 MSTORE PUSH1 0x24 DUP6 REVERT JUMPDEST DUP4 MLOAD PUSH3 0x461BCD PUSH1 0xE5 SHL DUP2 MSTORE PUSH1 0x20 DUP2 DUP9 ADD MSTORE PUSH1 0x26 PUSH1 0x24 DUP3 ADD MSTORE PUSH32 0x507269636520706572207368617265206D757374206265206772656174657220 PUSH1 0x44 DUP3 ADD MSTORE PUSH6 0x7468616E203 PUSH1 0xD4 SHL PUSH1 0x64 DUP3 ADD MSTORE PUSH1 0x84 SWAP1 REVERT JUMPDEST POP POP CALLVALUE PUSH2 0x239 JUMPI DUP2 PUSH1 0x3 NOT CALLDATASIZE ADD SLT PUSH2 0x239 JUMPI PUSH1 0x20 SWAP1 PUSH1 0x2 SLOAD SWAP1 MLOAD SWAP1 DUP2 MSTORE RETURN JUMPDEST POP CALLVALUE PUSH2 0x1FD JUMPI PUSH1 0x20 CALLDATASIZE PUSH1 0x3 NOT ADD SLT PUSH2 0x1FD JUMPI PUSH32 0xCE44720B7462058F31DDECAB3DAA427921E5975D9ACB555F043682DADA866569 SWAP2 PUSH1 0x20 SWAP2 CALLDATALOAD SWAP1 PUSH2 0xEDD PUSH2 0x121C JUMP JUMPDEST DUP2 PUSH1 0x9 SSTORE MLOAD SWAP1 DUP2 MSTORE LOG1 DUP1 RETURN JUMPDEST POP POP CALLVALUE PUSH2 0x239 JUMPI DUP1 PUSH1 0x3 NOT CALLDATASIZE ADD SLT PUSH2 0x239 JUMPI PUSH1 0x20 SWAP1 PUSH2 0x502 PUSH2 0xF09 PUSH2 0x1047 JUMP JUMPDEST PUSH1 0x24 CALLDATALOAD SWAP1 CALLER PUSH2 0x12E0 JUMP JUMPDEST SWAP1 POP DUP4 DUP4 CALLVALUE PUSH2 0x239 JUMPI DUP2 PUSH1 0x3 NOT CALLDATASIZE ADD SLT PUSH2 0x239 JUMPI DUP2 PUSH1 0x3 SLOAD SWAP3 PUSH1 0x1 DUP5 DUP2 SHR SWAP2 DUP2 DUP7 AND SWAP6 DUP7 ISZERO PUSH2 0xFFD JUMPI JUMPDEST PUSH1 0x20 SWAP7 DUP8 DUP6 LT DUP2 EQ PUSH2 0x6AE JUMPI DUP9 SWAP10 POP SWAP7 DUP9 SWAP7 SWAP8 DUP6 DUP3 SWAP11 MSTORE SWAP2 DUP3 PUSH1 0x0 EQ PUSH2 0xFD6 JUMPI POP POP PUSH1 0x1 EQ PUSH2 0xF7A JUMPI JUMPDEST POP POP POP PUSH2 0x625 SWAP3 SWAP2 PUSH2 0x616 SWAP2 SUB DUP6 PUSH2 0x10C5 JUMP JUMPDEST SWAP2 SWAP1 DUP7 SWAP4 POP PUSH1 0x3 DUP4 MSTORE PUSH32 0xC2575A0E9E593C00F959F8C92F12DB2869C3395A3B0502D05E2516446F71F85B JUMPDEST DUP3 DUP5 LT PUSH2 0xFBE JUMPI POP POP POP DUP3 ADD ADD DUP2 PUSH2 0x616 PUSH2 0x625 PUSH2 0xF67 JUMP JUMPDEST DUP1 SLOAD DUP5 DUP11 ADD DUP7 ADD MSTORE DUP9 SWAP6 POP DUP8 SWAP5 SWAP1 SWAP4 ADD SWAP3 DUP2 ADD PUSH2 0xFA5 JUMP JUMPDEST PUSH1 0xFF NOT AND DUP8 DUP3 ADD MSTORE SWAP4 ISZERO ISZERO PUSH1 0x5 SHL DUP7 ADD SWAP1 SWAP4 ADD SWAP4 POP DUP5 SWAP3 POP PUSH2 0x616 SWAP2 POP PUSH2 0x625 SWAP1 POP PUSH2 0xF67 JUMP JUMPDEST SWAP3 PUSH1 0x7F AND SWAP3 PUSH2 0xF3D JUMP JUMPDEST SWAP2 SWAP1 DUP3 MLOAD SWAP3 DUP4 DUP3 MSTORE PUSH1 0x0 JUMPDEST DUP5 DUP2 LT PUSH2 0x1033 JUMPI POP POP DUP3 PUSH1 0x0 PUSH1 0x20 DUP1 SWAP5 SWAP6 DUP5 ADD ADD MSTORE PUSH1 0x1F DUP1 NOT SWAP2 ADD AND ADD ADD SWAP1 JUMP JUMPDEST PUSH1 0x20 DUP2 DUP4 ADD DUP2 ADD MLOAD DUP5 DUP4 ADD DUP3 ADD MSTORE ADD PUSH2 0x1012 JUMP JUMPDEST PUSH1 0x4 CALLDATALOAD SWAP1 PUSH1 0x1 PUSH1 0x1 PUSH1 0xA0 SHL SUB DUP3 AND DUP3 SUB PUSH2 0x105D JUMPI JUMP JUMPDEST PUSH1 0x0 DUP1 REVERT JUMPDEST PUSH1 0x24 CALLDATALOAD SWAP1 PUSH1 0x1 PUSH1 0x1 PUSH1 0xA0 SHL SUB DUP3 AND DUP3 SUB PUSH2 0x105D JUMPI JUMP JUMPDEST PUSH1 0xD SLOAD DUP2 LT ISZERO PUSH2 0x10AF JUMPI PUSH1 0xD PUSH1 0x0 MSTORE PUSH32 0xD7B6990105719101DABEB77144F2A3385C8033ACD3AF97E9423A695E81AD1EB5 ADD SWAP1 PUSH1 0x0 SWAP1 JUMP JUMPDEST PUSH4 0x4E487B71 PUSH1 0xE0 SHL PUSH1 0x0 MSTORE PUSH1 0x32 PUSH1 0x4 MSTORE PUSH1 0x24 PUSH1 0x0 REVERT JUMPDEST SWAP1 PUSH1 0x1F DUP1 NOT SWAP2 ADD AND DUP2 ADD SWAP1 DUP2 LT PUSH8 0xFFFFFFFFFFFFFFFF DUP3 GT OR PUSH2 0x10E7 JUMPI PUSH1 0x40 MSTORE JUMP JUMPDEST PUSH4 0x4E487B71 PUSH1 0xE0 SHL PUSH1 0x0 MSTORE PUSH1 0x41 PUSH1 0x4 MSTORE PUSH1 0x24 PUSH1 0x0 REVERT JUMPDEST PUSH1 0x40 MLOAD SWAP1 PUSH1 0x0 PUSH1 0xA SLOAD SWAP1 PUSH1 0x1 DUP3 DUP2 SHR SWAP1 DUP1 DUP5 AND SWAP4 DUP5 ISZERO PUSH2 0x11DE JUMPI JUMPDEST PUSH1 0x20 SWAP5 DUP6 DUP5 LT DUP2 EQ PUSH2 0x11CA JUMPI DUP4 DUP9 MSTORE DUP8 SWAP5 SWAP4 SWAP3 SWAP2 DUP2 ISZERO PUSH2 0x11AA JUMPI POP PUSH1 0x1 EQ PUSH2 0x114B JUMPI JUMPDEST POP POP PUSH2 0x1149 SWAP3 POP SUB DUP4 PUSH2 0x10C5 JUMP JUMPDEST JUMP JUMPDEST SWAP1 SWAP4 SWAP2 POP PUSH1 0xA PUSH1 0x0 MSTORE PUSH32 0xC65A7BB8D6351C1CF70C95A316CC6A92839C986682D98BC35F958F4883F9D2A8 SWAP4 PUSH1 0x0 SWAP2 JUMPDEST DUP2 DUP4 LT PUSH2 0x1192 JUMPI POP POP PUSH2 0x1149 SWAP4 POP DUP3 ADD ADD CODESIZE DUP1 PUSH2 0x113B JUMP JUMPDEST DUP6 SLOAD DUP9 DUP5 ADD DUP6 ADD MSTORE SWAP5 DUP6 ADD SWAP5 DUP8 SWAP5 POP SWAP2 DUP4 ADD SWAP2 PUSH2 0x117A JUMP JUMPDEST SWAP2 POP POP PUSH2 0x1149 SWAP5 SWAP3 POP PUSH1 0xFF NOT AND DUP3 DUP5 ADD MSTORE ISZERO ISZERO PUSH1 0x5 SHL DUP3 ADD ADD CODESIZE DUP1 PUSH2 0x113B JUMP JUMPDEST PUSH4 0x4E487B71 PUSH1 0xE0 SHL DUP6 MSTORE PUSH1 0x22 PUSH1 0x4 MSTORE PUSH1 0x24 DUP6 REVERT JUMPDEST SWAP2 PUSH1 0x7F AND SWAP2 PUSH2 0x1118 JUMP JUMPDEST SWAP1 DUP2 MLOAD DUP1 DUP3 MSTORE PUSH1 0x20 DUP1 DUP1 SWAP4 ADD SWAP4 ADD SWAP2 PUSH1 0x0 JUMPDEST DUP3 DUP2 LT PUSH2 0x1208 JUMPI POP POP POP POP SWAP1 JUMP JUMPDEST DUP4 MLOAD DUP6 MSTORE SWAP4 DUP2 ADD SWAP4 SWAP3 DUP2 ADD SWAP3 PUSH1 0x1 ADD PUSH2 0x11FA JUMP JUMPDEST PUSH1 0x5 SLOAD PUSH1 0x1 PUSH1 0x1 PUSH1 0xA0 SHL SUB AND CALLER SUB PUSH2 0x1230 JUMPI JUMP JUMPDEST PUSH1 0x64 PUSH1 0x40 MLOAD PUSH3 0x461BCD PUSH1 0xE5 SHL DUP2 MSTORE PUSH1 0x20 PUSH1 0x4 DUP3 ADD MSTORE PUSH1 0x20 PUSH1 0x24 DUP3 ADD MSTORE PUSH32 0x4F776E61626C653A2063616C6C6572206973206E6F7420746865206F776E6572 PUSH1 0x44 DUP3 ADD MSTORE REVERT JUMPDEST PUSH1 0x5 DUP1 SLOAD PUSH1 0x1 PUSH1 0x1 PUSH1 0xA0 SHL SUB SWAP3 DUP4 AND PUSH1 0x1 PUSH1 0x1 PUSH1 0xA0 SHL SUB NOT DUP3 AND DUP2 OR SWAP1 SWAP3 SSTORE SWAP1 SWAP2 AND PUSH32 0x8BE0079C531659141344CD1FD0A4F28419497F9722A3DAAFE3B4186F6B6457E0 PUSH1 0x0 DUP1 LOG3 JUMP JUMPDEST SWAP2 SWAP1 DUP3 ADD DUP1 SWAP3 GT PUSH2 0x12CA JUMPI JUMP JUMPDEST PUSH4 0x4E487B71 PUSH1 0xE0 SHL PUSH1 0x0 MSTORE PUSH1 0x11 PUSH1 0x4 MSTORE PUSH1 0x24 PUSH1 0x0 REVERT JUMPDEST PUSH1 0x1 PUSH1 0x1 PUSH1 0xA0 SHL SUB SWAP1 DUP2 AND SWAP2 DUP3 ISZERO PUSH2 0x1391 JUMPI AND SWAP2 DUP3 ISZERO PUSH2 0x1341 JUMPI PUSH1 0x20 PUSH32 0x8C5BE1E5EBEC7D5BD14F71427D1E84F3DD0314C0F7B2291E5B200AC8C7C3B925 SWAP2 DUP4 PUSH1 0x0 MSTORE PUSH1 0x1 DUP3 MSTORE PUSH1 0x40 PUSH1 0x0 KECCAK256 DUP6 PUSH1 0x0 MSTORE DUP3 MSTORE DUP1 PUSH1 0x40 PUSH1 0x0 KECCAK256 SSTORE PUSH1 0x40 MLOAD SWAP1 DUP2 MSTORE LOG3 JUMP JUMPDEST PUSH1 0x40 MLOAD PUSH3 0x461BCD PUSH1 0xE5 SHL DUP2 MSTORE PUSH1 0x20 PUSH1 0x4 DUP3 ADD MSTORE PUSH1 0x22 PUSH1 0x24 DUP3 ADD MSTORE PUSH32 0x45524332303A20617070726F766520746F20746865207A65726F206164647265 PUSH1 0x44 DUP3 ADD MSTORE PUSH2 0x7373 PUSH1 0xF0 SHL PUSH1 0x64 DUP3 ADD MSTORE PUSH1 0x84 SWAP1 REVERT JUMPDEST PUSH1 0x40 MLOAD PUSH3 0x461BCD PUSH1 0xE5 SHL DUP2 MSTORE PUSH1 0x20 PUSH1 0x4 DUP3 ADD MSTORE PUSH1 0x24 DUP1 DUP3 ADD MSTORE PUSH32 0x45524332303A20617070726F76652066726F6D20746865207A65726F20616464 PUSH1 0x44 DUP3 ADD MSTORE PUSH4 0x72657373 PUSH1 0xE0 SHL PUSH1 0x64 DUP3 ADD MSTORE PUSH1 0x84 SWAP1 REVERT JUMPDEST ISZERO PUSH2 0x13E9 JUMPI JUMP JUMPDEST PUSH1 0x40 MLOAD PUSH3 0x461BCD PUSH1 0xE5 SHL DUP2 MSTORE PUSH1 0x20 PUSH1 0x4 DUP3 ADD MSTORE PUSH1 0x23 PUSH1 0x24 DUP3 ADD MSTORE PUSH32 0x536861726520616D6F756E74206D757374206265206772656174657220746861 PUSH1 0x44 DUP3 ADD MSTORE PUSH3 0x6E203 PUSH1 0xEC SHL PUSH1 0x64 DUP3 ADD MSTORE PUSH1 0x84 SWAP1 REVERT JUMPDEST DUP2 DUP2 MUL SWAP3 SWAP2 DUP2 ISZERO SWAP2 DUP5 DIV EQ OR ISZERO PUSH2 0x12CA JUMPI JUMP JUMPDEST PUSH1 0x2 PUSH1 0x6 SLOAD EQ PUSH2 0x145E JUMPI PUSH1 0x2 PUSH1 0x6 SSTORE JUMP JUMPDEST PUSH1 0x40 MLOAD PUSH3 0x461BCD PUSH1 0xE5 SHL DUP2 MSTORE PUSH1 0x20 PUSH1 0x4 DUP3 ADD MSTORE PUSH1 0x1F PUSH1 0x24 DUP3 ADD MSTORE PUSH32 0x5265656E7472616E637947756172643A207265656E7472616E742063616C6C00 PUSH1 0x44 DUP3 ADD MSTORE PUSH1 0x64 SWAP1 REVERT JUMPDEST ISZERO PUSH2 0x14AA JUMPI JUMP JUMPDEST PUSH1 0x40 MLOAD PUSH3 0x461BCD PUSH1 0xE5 SHL DUP2 MSTORE PUSH1 0x20 PUSH1 0x4 DUP3 ADD MSTORE PUSH1 0x13 PUSH1 0x24 DUP3 ADD MSTORE PUSH19 0x496E73756666696369656E7420736861726573 PUSH1 0x68 SHL PUSH1 0x44 DUP3 ADD MSTORE PUSH1 0x64 SWAP1 REVERT JUMPDEST SWAP2 SWAP1 DUP3 SUB SWAP2 DUP3 GT PUSH2 0x12CA JUMPI JUMP JUMPDEST PUSH1 0x0 NOT DUP2 EQ PUSH2 0x12CA JUMPI PUSH1 0x1 ADD SWAP1 JUMP JUMPDEST PUSH1 0x1 DUP1 PUSH1 0xA0 SHL SUB DUP1 PUSH1 0x5 SLOAD AND SWAP1 PUSH1 0x0 SWAP3 DUP3 DUP5 MSTORE PUSH1 0xC SWAP1 PUSH1 0x20 SWAP1 DUP3 DUP3 MSTORE PUSH1 0x40 SWAP5 DUP2 DUP7 DUP9 KECCAK256 SLOAD LT ISZERO PUSH2 0x15B0 JUMPI POP PUSH1 0xD SLOAD SWAP5 DUP7 JUMPDEST DUP7 DUP2 LT PUSH2 0x1543 JUMPI POP POP POP POP POP POP POP SWAP1 JUMP JUMPDEST PUSH2 0x154C DUP2 PUSH2 0x1078 JUMP JUMPDEST SWAP1 SLOAD PUSH1 0x3 SWAP2 DUP3 SHL SHR DUP8 AND CALLER EQ ISZERO DUP1 PUSH2 0x158D JUMPI JUMPDEST PUSH2 0x1572 JUMPI POP PUSH2 0x156D SWAP1 PUSH2 0x14F2 JUMP JUMPDEST PUSH2 0x1532 JUMP JUMPDEST SWAP7 POP SWAP4 POP POP POP POP PUSH2 0x1584 SWAP2 SWAP4 POP PUSH2 0x1078 JUMP JUMPDEST SWAP1 SLOAD SWAP2 SHL SHR AND SWAP1 JUMP JUMPDEST POP DUP7 PUSH2 0x1598 DUP4 PUSH2 0x1078 JUMP JUMPDEST SWAP1 SLOAD SWAP1 DUP4 SHL SHR AND DUP10 MSTORE DUP6 DUP6 MSTORE DUP4 DUP4 DUP11 KECCAK256 SLOAD LT ISZERO PUSH2 0x155F JUMP JUMPDEST SWAP6 POP POP POP POP POP POP SWAP1 JUMP JUMPDEST SWAP1 SWAP3 SWAP2 PUSH1 0x1 DUP1 PUSH1 0xA0 SHL SUB SWAP1 DUP2 DUP4 AND SWAP1 PUSH1 0x0 SWAP3 DUP3 DUP5 MSTORE PUSH1 0xC PUSH1 0x20 MSTORE PUSH1 0x40 DUP5 KECCAK256 PUSH2 0x15E3 DUP4 DUP3 SLOAD PUSH2 0x14E5 JUMP JUMPDEST SWAP1 SSTORE DUP7 AND DUP1 DUP5 MSTORE PUSH1 0xC PUSH1 0x20 MSTORE PUSH1 0x40 DUP5 KECCAK256 SLOAD ISZERO PUSH2 0x1631 JUMPI JUMPDEST PUSH1 0x40 SWAP5 SWAP6 SWAP7 POP DUP4 MSTORE PUSH1 0xC PUSH1 0x20 MSTORE PUSH2 0x1615 DUP5 DUP5 KECCAK256 SWAP2 DUP3 SLOAD PUSH2 0x12BD JUMP JUMPDEST SWAP1 SSTORE DUP2 MSTORE PUSH1 0xC PUSH1 0x20 MSTORE KECCAK256 SLOAD ISZERO PUSH2 0x1628 JUMPI POP JUMP JUMPDEST PUSH2 0x1149 SWAP1 PUSH2 0x1699 JUMP JUMPDEST PUSH1 0xD SLOAD PUSH9 0x10000000000000000 DUP2 LT ISZERO PUSH2 0x1685 JUMPI PUSH1 0x40 SWAP6 SWAP7 SWAP8 PUSH2 0x165D DUP3 PUSH1 0x1 PUSH2 0x167C SWAP5 ADD PUSH1 0xD SSTORE PUSH2 0x1078 JUMP JUMPDEST SWAP1 SWAP2 SWAP1 DUP3 SLOAD SWAP1 PUSH1 0x3 SHL SWAP2 PUSH1 0x1 DUP1 PUSH1 0xA0 SHL SUB DUP1 SWAP2 AND DUP4 SHL SWAP3 SHL NOT AND OR SWAP1 SSTORE JUMP JUMPDEST DUP7 SWAP6 SWAP5 POP PUSH2 0x15FA JUMP JUMPDEST PUSH4 0x4E487B71 PUSH1 0xE0 SHL DUP6 MSTORE PUSH1 0x41 PUSH1 0x4 MSTORE PUSH1 0x24 DUP6 REVERT JUMPDEST PUSH1 0x0 SWAP1 JUMPDEST PUSH1 0xD SWAP2 DUP3 SLOAD SWAP3 DUP4 DUP3 LT ISZERO PUSH2 0x174D JUMPI PUSH2 0x16B4 DUP3 PUSH2 0x1078 JUMP JUMPDEST SWAP1 SLOAD PUSH1 0x3 SWAP6 PUSH1 0x1 PUSH1 0x1 PUSH1 0xA0 SHL SUB SWAP3 SWAP1 SWAP2 SWAP1 DUP8 SHL SHR DUP3 AND DUP6 DUP4 AND EQ PUSH2 0x16E6 JUMPI POP POP POP PUSH2 0x16E0 SWAP2 SWAP3 POP PUSH2 0x14F2 JUMP JUMPDEST SWAP1 PUSH2 0x169D JUMP JUMPDEST SWAP2 SWAP4 POP SWAP2 PUSH1 0x0 NOT SWAP2 DUP3 DUP2 ADD SWAP2 SWAP1 DUP3 GT PUSH2 0x12CA JUMPI PUSH2 0x165D DUP5 PUSH2 0x1709 PUSH2 0x1716 SWAP5 PUSH2 0x1078 JUMP JUMPDEST SWAP1 SLOAD SWAP1 DUP10 SHL SHR AND SWAP2 PUSH2 0x1078 JUMP JUMPDEST DUP3 SLOAD DUP1 ISZERO PUSH2 0x1737 JUMPI ADD SWAP3 PUSH2 0x1729 DUP5 PUSH2 0x1078 JUMP JUMPDEST DUP2 SWAP4 SWAP2 SLOAD SWAP3 SHL SHL NOT AND SWAP1 SSTORE SSTORE JUMP JUMPDEST PUSH4 0x4E487B71 PUSH1 0xE0 SHL PUSH1 0x0 MSTORE PUSH1 0x31 PUSH1 0x4 MSTORE PUSH1 0x24 PUSH1 0x0 REVERT JUMPDEST POP POP POP POP JUMP JUMPDEST DUP2 ISZERO PUSH2 0x175D JUMPI DIV SWAP1 JUMP JUMPDEST PUSH4 0x4E487B71 PUSH1 0xE0 SHL PUSH1 0x0 MSTORE PUSH1 0x12 PUSH1 0x4 MSTORE PUSH1 0x24 PUSH1 0x0 REVERT JUMPDEST PUSH1 0x5 SLOAD PUSH1 0x2 SLOAD PUSH1 0x1 PUSH1 0x1 PUSH1 0xA0 SHL SUB SWAP2 DUP3 AND SWAP1 PUSH8 0xDE0B6B3A7640000 SWAP1 DIV PUSH1 0x0 JUMPDEST PUSH1 0xD SLOAD DUP2 LT ISZERO PUSH2 0x174D JUMPI DUP4 PUSH2 0x17A7 DUP3 PUSH2 0x1078 JUMP JUMPDEST SWAP1 SLOAD SWAP1 PUSH1 0x3 SHL SHR AND DUP4 DUP2 SUB PUSH2 0x17C6 JUMPI JUMPDEST POP PUSH2 0x17C1 SWAP1 PUSH2 0x14F2 JUMP JUMPDEST PUSH2 0x1793 JUMP JUMPDEST DUP1 PUSH1 0x0 MSTORE PUSH1 0x20 PUSH1 0xC DUP2 MSTORE PUSH1 0x40 DUP1 PUSH1 0x0 KECCAK256 SLOAD PUSH1 0x64 SWAP1 DUP2 DUP2 MUL SWAP2 DUP2 DUP4 DIV EQ SWAP1 ISZERO OR ISZERO PUSH2 0x12CA JUMPI DUP6 PUSH2 0x17F4 SWAP2 PUSH2 0x1753 JUMP JUMPDEST SWAP1 PUSH1 0x32 DUP3 GT PUSH2 0x1805 JUMPI POP POP POP PUSH2 0x17B7 JUMP JUMPDEST SWAP3 SWAP7 POP SWAP3 POP SWAP3 POP PUSH32 0xFC8F2D6996E2B706FA4CFB81CB10A53534B07F2010B2488488508F8751F55375 SWAP4 POP PUSH2 0x1838 DUP6 PUSH2 0x1274 JUMP JUMPDEST MLOAD SWAP1 DUP2 MSTORE LOG2 JUMP JUMPDEST SWAP2 PUSH1 0x1 PUSH1 0x1 PUSH1 0xA0 SHL SUB DUP1 DUP5 AND DUP1 ISZERO DUP1 ISZERO SWAP3 SWAP1 PUSH2 0x19BA JUMPI DUP5 AND SWAP1 DUP2 ISZERO PUSH2 0x1969 JUMPI PUSH1 0x0 DUP2 DUP2 MSTORE DUP1 PUSH1 0x20 MSTORE PUSH1 0x40 DUP2 KECCAK256 SLOAD SWAP1 DUP6 DUP3 LT PUSH2 0x1915 JUMPI DUP6 PUSH1 0x40 SWAP3 DUP5 DUP4 MSTORE DUP3 PUSH1 0x20 MSTORE SUB DUP3 DUP3 KECCAK256 SSTORE DUP4 DUP2 MSTORE KECCAK256 DUP5 DUP2 SLOAD ADD SWAP1 SSTORE DUP2 DUP2 PUSH32 0xDDF252AD1BE2C89B69C2B068FC378DAA952BA7F163C4A11628F55A4DF523B3EF PUSH1 0x20 PUSH1 0x40 MLOAD DUP9 DUP2 MSTORE LOG3 DUP3 PUSH2 0x190C JUMPI JUMPDEST DUP3 PUSH2 0x1901 JUMPI JUMPDEST POP DUP2 PUSH2 0x18F6 JUMPI JUMPDEST POP PUSH2 0x18D7 JUMPI POP POP POP JUMP JUMPDEST PUSH8 0xDE0B6B3A7640000 SWAP1 DIV SWAP1 DUP2 PUSH2 0x18ED JUMPI POP POP POP JUMP JUMPDEST PUSH2 0x1149 SWAP3 PUSH2 0x15BA JUMP JUMPDEST SWAP1 POP ADDRESS EQ ISZERO CODESIZE PUSH2 0x18CD JUMP JUMPDEST ADDRESS EQ ISZERO SWAP2 POP CODESIZE PUSH2 0x18C6 JUMP JUMPDEST PUSH1 0x1 SWAP3 POP PUSH2 0x18C0 JUMP JUMPDEST PUSH1 0x40 MLOAD PUSH3 0x461BCD PUSH1 0xE5 SHL DUP2 MSTORE PUSH1 0x20 PUSH1 0x4 DUP3 ADD MSTORE PUSH1 0x26 PUSH1 0x24 DUP3 ADD MSTORE PUSH32 0x45524332303A207472616E7366657220616D6F756E7420657863656564732062 PUSH1 0x44 DUP3 ADD MSTORE PUSH6 0x616C616E6365 PUSH1 0xD0 SHL PUSH1 0x64 DUP3 ADD MSTORE PUSH1 0x84 SWAP1 REVERT JUMPDEST PUSH1 0x40 MLOAD PUSH3 0x461BCD PUSH1 0xE5 SHL DUP2 MSTORE PUSH1 0x20 PUSH1 0x4 DUP3 ADD MSTORE PUSH1 0x23 PUSH1 0x24 DUP3 ADD MSTORE PUSH32 0x45524332303A207472616E7366657220746F20746865207A65726F2061646472 PUSH1 0x44 DUP3 ADD MSTORE PUSH3 0x657373 PUSH1 0xE8 SHL PUSH1 0x64 DUP3 ADD MSTORE PUSH1 0x84 SWAP1 REVERT JUMPDEST PUSH1 0x40 MLOAD PUSH3 0x461BCD PUSH1 0xE5 SHL DUP2 MSTORE PUSH1 0x20 PUSH1 0x4 DUP3 ADD MSTORE PUSH1 0x25 PUSH1 0x24 DUP3 ADD MSTORE PUSH32 0x45524332303A207472616E736665722066726F6D20746865207A65726F206164 PUSH1 0x44 DUP3 ADD MSTORE PUSH5 0x6472657373 PUSH1 0xD8 SHL PUSH1 0x64 DUP3 ADD MSTORE PUSH1 0x84 SWAP1 REVERT JUMPDEST PUSH8 0xFFFFFFFFFFFFFFFF DUP2 GT PUSH2 0x10E7 JUMPI PUSH1 0x5 SHL PUSH1 0x20 ADD SWAP1 JUMP JUMPDEST SWAP1 PUSH2 0x1A2F DUP3 PUSH2 0x1A0D JUMP JUMPDEST PUSH2 0x1A3C PUSH1 0x40 MLOAD SWAP2 DUP3 PUSH2 0x10C5 JUMP JUMPDEST DUP3 DUP2 MSTORE DUP1 SWAP3 PUSH2 0x1A4D PUSH1 0x1F NOT SWAP2 PUSH2 0x1A0D JUMP JUMPDEST ADD SWAP1 PUSH1 0x20 CALLDATASIZE SWAP2 ADD CALLDATACOPY JUMP JUMPDEST DUP1 MLOAD DUP3 LT ISZERO PUSH2 0x10AF JUMPI PUSH1 0x20 SWAP2 PUSH1 0x5 SHL ADD ADD SWAP1 JUMP JUMPDEST PUSH8 0xDE0B6B3A7640000 PUSH1 0x2 SLOAD DIV SWAP1 DUP2 ISZERO PUSH2 0x1AB5 JUMPI PUSH1 0x1 DUP1 PUSH1 0xA0 SHL SUB AND PUSH1 0x0 MSTORE PUSH1 0xC PUSH1 0x20 MSTORE PUSH1 0x40 PUSH1 0x0 KECCAK256 SLOAD SWAP1 PUSH1 0x64 DUP3 MUL SWAP2 DUP1 DUP4 DIV PUSH1 0x64 EQ SWAP1 ISZERO OR ISZERO PUSH2 0x12CA JUMPI PUSH2 0x1AB2 SWAP2 PUSH2 0x1753 JUMP JUMPDEST SWAP1 JUMP JUMPDEST POP POP PUSH1 0x0 SWAP1 JUMP INVALID LOG2 PUSH5 0x6970667358 0x22 SLT KECCAK256 KECCAK256 0xA6 0xB1 GAS BLOCKHASH 0x49 SAR 0xB2 PUSH9 0xCC82DEBB6E69BE6BED DUP4 0xBA 0xBD 0x5C DUP16 ADDMOD MOD SUB PUSH29 0xE6D909281264736F6C63430008140033A2646970667358221220CD2181 GAS SGT 0xD3 0xF9 0xB0 EXTCODEHASH LOG0 PUSH25 0xAEADDDC70A43C1C89A29C8DB16743278FF90111F0E64736F6C PUSH4 0x43000814 STOP CALLER LOG2 PUSH5 0x6970667358 0x22 SLT KECCAK256 COINBASE SMOD PREVRANDAO 0xBB 0xEB 0xE1 PUSH4 0x10F14616 SHR 0xBD SWAP3 0xC3 BASEFEE 0xC6 AND DUP3 0xEA ORIGIN POP SWAP3 GASPRICE 0xB8 0xEA 0xC1 DUP3 0xBC EXTCODECOPY PUSH24 0x8364736F6C63430008140033000000000000000000000000 "},"gasEstimates":{"creation":{"codeDepositCost":"4859800","executionCost":"27863","totalCost":"4887663"},"external":{"collectionAddresses(uint256)":"6752","collections(uint256)":"infinite","createCollection(string,string,string)":"infinite","getAllCollectionAddresses()":"infinite","getAllCollections()":"infinite","getCollection(uint256)":"infinite","getCollectionCount()":"2250","getUserCollections(address)":"infinite","getUserNFTShares(address)":"infinite","getUserOwnedCollections(address)":"infinite","userCollections(address,uint256)":"6804"}},"methodIdentifiers":{"collectionAddresses(uint256)":"abae977f","collections(uint256)":"fdbda0ec","createCollection(string,string,string)":"ece86c21","getAllCollectionAddresses()":"7014935e","getAllCollections()":"6804a958","getCollection(uint256)":"5a1f3c28","getCollectionCount()":"1c10106f","getUserCollections(address)":"9aa5ad8c","getUserNFTShares(address)":"4765f4ea","getUserOwnedCollections(address)":"b124dbc4","userCollections(address,uint256)":"428a6171"}},"storageLayout":{"storage":[{"astId":151,"contract":"contracts/NFTFactory.sol:NFTFactory","label":"_status","offset":0,"slot":"0","type":"t_uint256"},{"astId":5238,"contract":"contracts/NFTFactory.sol:NFTFactory","label":"_collectionIdCounter","offset":0,"slot":"1","type":"t_struct(Counter)2505_storage"},{"astId":5267,"contract":"contracts/NFTFactory.sol:NFTFactory","label":"collections","offset":0,"slot":"2","type":"t_mapping(t_uint256,t_struct(CollectionInfo)5249_storage)"},{"astId":5272,"contract":"contracts/NFTFactory.sol:NFTFactory","label":"userCollections","offset":0,"slot":"3","type":"t_mapping(t_address,t_array(t_uint256)dyn_storage)"},{"astId":5275,"contract":"contracts/NFTFactory.sol:NFTFactory","label":"collectionAddresses","offset":0,"slot":"4","type":"t_array(t_address)dyn_storage"}],"types":{"t_address":{"encoding":"inplace","label":"address","numberOfBytes":"20"},"t_array(t_address)dyn_storage":{"base":"t_address","encoding":"dynamic_array","label":"address[]","numberOfBytes":"32"},"t_array(t_uint256)dyn_storage":{"base":"t_uint256","encoding":"dynamic_array","label":"uint256[]","numberOfBytes":"32"},"t_mapping(t_address,t_array(t_uint256)dyn_storage)":{"encoding":"mapping","key":"t_address","label":"mapping(address => uint256[])","numberOfBytes":"32","value":"t_array(t_uint256)dyn_storage"},"t_mapping(t_uint256,t_struct(CollectionInfo)5249_storage)":{"encoding":"mapping","key":"t_uint256","label":"mapping(uint256 => struct NFTFactory.CollectionInfo)","numberOfBytes":"32","value":"t_struct(CollectionInfo)5249_storage"},"t_string_storage":{"encoding":"bytes","label":"string","numberOfBytes":"32"},"t_struct(CollectionInfo)5249_storage":{"encoding":"inplace","label":"struct NFTFactory.CollectionInfo","members":[{"astId":5240,"contract":"contracts/NFTFactory.sol:NFTFactory","label":"collectionId","offset":0,"slot":"0","type":"t_uint256"},{"astId":5242,"contract":"contracts/NFTFactory.sol:NFTFactory","label":"metadataURI","offset":0,"slot":"1","type":"t_string_storage"},{"astId":5244,"contract":"contracts/NFTFactory.sol:NFTFactory","label":"collectionAddress","offset":0,"slot":"2","type":"t_address"},{"astId":5246,"contract":"contracts/NFTFactory.sol:NFTFactory","label":"owner","offset":0,"slot":"3","type":"t_address"},{"astId":5248,"contract":"contracts/NFTFactory.sol:NFTFactory","label":"creationTime","offset":0,"slot":"4","type":"t_uint256"}],"numberOfBytes":"160"},"t_struct(Counter)2505_storage":{"encoding":"inplace","label":"struct Counters.Counter","members":[{"astId":2504,"contract":"contracts/NFTFactory.sol:NFTFactory","label":"_value","offset":0,"slot":"0","type":"t_uint256"}],"numberOfBytes":"32"},"t_uint256":{"encoding":"inplace","label":"uint256","numberOfBytes":"32"}}},"userdoc":{"kind":"user","methods":{},"version":1}}}}