{"contracts/FractionalNFT.sol":{"FractionalNFT":{"abi":[{"inputs":[{"internalType":"string","name":"name","type":"string"},{"internalType":"string","name":"symbol","type":"string"},{"internalType":"uint256","name":"totalShares","type":"uint256"},{"internalType":"uint256","name":"_sharePrice","type":"uint256"},{"internalType":"address","name":"_nftCollection","type":"address"},{"internalType":"uint256","name":"_nftTokenId","type":"uint256"},{"internalType":"string","name":"_nftMetadataURI","type":"string"},{"internalType":"address","name":"initialOwner","type":"address"}],"stateMutability":"nonpayable","type":"constructor"},{"anonymous":false,"inputs":[{"indexed":true,"internalType":"address","name":"owner","type":"address"},{"indexed":true,"internalType":"address","name":"spender","type":"address"},{"indexed":false,"internalType":"uint256","name":"value","type":"uint256"}],"name":"Approval","type":"event"},{"anonymous":false,"inputs":[{"indexed":true,"internalType":"address","name":"newOwner","type":"address"},{"indexed":false,"internalType":"uint256","name":"percentage","type":"uint256"}],"name":"OwnershipChanged","type":"event"},{"anonymous":false,"inputs":[{"indexed":true,"internalType":"address","name":"previousOwner","type":"address"},{"indexed":true,"internalType":"address","name":"newOwner","type":"address"}],"name":"OwnershipTransferred","type":"event"},{"anonymous":false,"inputs":[{"indexed":false,"internalType":"uint256","name":"newPrice","type":"uint256"}],"name":"SharePriceUpdated","type":"event"},{"anonymous":false,"inputs":[{"indexed":true,"internalType":"address","name":"buyer","type":"address"},{"indexed":false,"internalType":"uint256","name":"amount","type":"uint256"},{"indexed":false,"internalType":"uint256","name":"totalPaid","type":"uint256"}],"name":"SharesPurchased","type":"event"},{"anonymous":false,"inputs":[{"indexed":true,"internalType":"address","name":"from","type":"address"},{"indexed":true,"internalType":"address","name":"to","type":"address"},{"indexed":false,"internalType":"uint256","name":"amount","type":"uint256"}],"name":"SharesTransferred","type":"event"},{"anonymous":false,"inputs":[{"indexed":true,"internalType":"address","name":"from","type":"address"},{"indexed":true,"internalType":"address","name":"to","type":"address"},{"indexed":false,"internalType":"uint256","name":"value","type":"uint256"}],"name":"Transfer","type":"event"},{"inputs":[{"internalType":"address","name":"owner","type":"address"},{"internalType":"address","name":"spender","type":"address"}],"name":"allowance","outputs":[{"internalType":"uint256","name":"","type":"uint256"}],"stateMutability":"view","type":"function"},{"inputs":[{"internalType":"address","name":"spender","type":"address"},{"internalType":"uint256","name":"amount","type":"uint256"}],"name":"approve","outputs":[{"internalType":"bool","name":"","type":"bool"}],"stateMutability":"nonpayable","type":"function"},{"inputs":[{"internalType":"address","name":"account","type":"address"}],"name":"balanceOf","outputs":[{"internalType":"uint256","name":"","type":"uint256"}],"stateMutability":"view","type":"function"},{"inputs":[{"internalType":"uint256","name":"shareAmount","type":"uint256"}],"name":"buyShares","outputs":[],"stateMutability":"payable","type":"function"},{"inputs":[],"name":"creationTime","outputs":[{"internalType":"uint256","name":"","type":"uint256"}],"stateMutability":"view","type":"function"},{"inputs":[],"name":"decimals","outputs":[{"internalType":"uint8","name":"","type":"uint8"}],"stateMutability":"view","type":"function"},{"inputs":[{"internalType":"address","name":"spender","type":"address"},{"internalType":"uint256","name":"subtractedValue","type":"uint256"}],"name":"decreaseAllowance","outputs":[{"internalType":"bool","name":"","type":"bool"}],"stateMutability":"nonpayable","type":"function"},{"inputs":[],"name":"getAvailableShares","outputs":[{"internalType":"uint256","name":"","type":"uint256"}],"stateMutability":"view","type":"function"},{"inputs":[],"name":"getNFTInfo","outputs":[{"internalType":"address","name":"collection","type":"address"},{"internalType":"uint256","name":"tokenId","type":"uint256"},{"internalType":"string","name":"metadataURI","type":"string"},{"internalType":"uint256","name":"price","type":"uint256"},{"internalType":"uint256","name":"totalShares","type":"uint256"},{"internalType":"address","name":"currentOwner","type":"address"},{"internalType":"uint256","name":"createdAt","type":"uint256"}],"stateMutability":"view","type":"function"},{"inputs":[],"name":"getShareHolders","outputs":[{"internalType":"address[]","name":"holders","type":"address[]"},{"internalType":"uint256[]","name":"shares","type":"uint256[]"},{"internalType":"uint256[]","name":"percentages","type":"uint256[]"}],"stateMutability":"view","type":"function"},{"inputs":[],"name":"getTotalShares","outputs":[{"internalType":"uint256","name":"","type":"uint256"}],"stateMutability":"view","type":"function"},{"inputs":[{"internalType":"address","name":"user","type":"address"}],"name":"getUserSharePercentage","outputs":[{"internalType":"uint256","name":"","type":"uint256"}],"stateMutability":"view","type":"function"},{"inputs":[{"internalType":"address","name":"spender","type":"address"},{"internalType":"uint256","name":"addedValue","type":"uint256"}],"name":"increaseAllowance","outputs":[{"internalType":"bool","name":"","type":"bool"}],"stateMutability":"nonpayable","type":"function"},{"inputs":[],"name":"name","outputs":[{"internalType":"string","name":"","type":"string"}],"stateMutability":"view","type":"function"},{"inputs":[],"name":"nftCollection","outputs":[{"internalType":"address","name":"","type":"address"}],"stateMutability":"view","type":"function"},{"inputs":[],"name":"nftMetadataURI","outputs":[{"internalType":"string","name":"","type":"string"}],"stateMutability":"view","type":"function"},{"inputs":[],"name":"nftTokenId","outputs":[{"internalType":"uint256","name":"","type":"uint256"}],"stateMutability":"view","type":"function"},{"inputs":[],"name":"owner","outputs":[{"internalType":"address","name":"","type":"address"}],"stateMutability":"view","type":"function"},{"inputs":[],"name":"renounceOwnership","outputs":[],"stateMutability":"nonpayable","type":"function"},{"inputs":[{"internalType":"uint256","name":"shareAmount","type":"uint256"},{"internalType":"uint256","name":"pricePerShare","type":"uint256"}],"name":"sellShares","outputs":[],"stateMutability":"nonpayable","type":"function"},{"inputs":[{"internalType":"uint256","name":"_sharePrice","type":"uint256"}],"name":"setSharePrice","outputs":[],"stateMutability":"nonpayable","type":"function"},{"inputs":[{"internalType":"uint256","name":"","type":"uint256"}],"name":"shareHolders","outputs":[{"internalType":"address","name":"","type":"address"}],"stateMutability":"view","type":"function"},{"inputs":[],"name":"sharePrice","outputs":[{"internalType":"uint256","name":"","type":"uint256"}],"stateMutability":"view","type":"function"},{"inputs":[],"name":"symbol","outputs":[{"internalType":"string","name":"","type":"string"}],"stateMutability":"view","type":"function"},{"inputs":[],"name":"totalSupply","outputs":[{"internalType":"uint256","name":"","type":"uint256"}],"stateMutability":"view","type":"function"},{"inputs":[{"internalType":"address","name":"to","type":"address"},{"internalType":"uint256","name":"amount","type":"uint256"}],"name":"transfer","outputs":[{"internalType":"bool","name":"","type":"bool"}],"stateMutability":"nonpayable","type":"function"},{"inputs":[{"internalType":"address","name":"from","type":"address"},{"internalType":"address","name":"to","type":"address"},{"internalType":"uint256","name":"amount","type":"uint256"}],"name":"transferFrom","outputs":[{"internalType":"bool","name":"","type":"bool"}],"stateMutability":"nonpayable","type":"function"},{"inputs":[{"internalType":"address","name":"newOwner","type":"address"}],"name":"transferOwnership","outputs":[],"stateMutability":"nonpayable","type":"function"},{"inputs":[{"internalType":"address","name":"to","type":"address"},{"internalType":"uint256","name":"shareAmount","type":"uint256"}],"name":"transferShares","outputs":[],"stateMutability":"nonpayable","type":"function"},{"inputs":[{"internalType":"address","name":"","type":"address"}],"name":"userShares","outputs":[{"internalType":"uint256","name":"","type":"uint256"}],"stateMutability":"view","type":"function"}],"devdoc":{"details":"ERC20 token representing fractional ownership of a specific NFT","events":{"Approval(address,address,uint256)":{"details":"Emitted when the allowance of a `spender` for an `owner` is set by a call to {approve}. `value` is the new allowance."},"Transfer(address,address,uint256)":{"details":"Emitted when `value` tokens are moved from one account (`from`) to another (`to`). Note that `value` may be zero."}},"kind":"dev","methods":{"allowance(address,address)":{"details":"See {IERC20-allowance}."},"approve(address,uint256)":{"details":"See {IERC20-approve}. NOTE: If `amount` is the maximum `uint256`, the allowance is not updated on `transferFrom`. This is semantically equivalent to an infinite approval. Requirements: - `spender` cannot be the zero address."},"balanceOf(address)":{"details":"See {IERC20-balanceOf}."},"decimals()":{"details":"Returns the number of decimals used to get its user representation. For example, if `decimals` equals `2`, a balance of `505` tokens should be displayed to a user as `5.05` (`505 / 10 ** 2`). Tokens usually opt for a value of 18, imitating the relationship between Ether and Wei. This is the default value returned by this function, unless it's overridden. NOTE: This information is only used for _display_ purposes: it in no way affects any of the arithmetic of the contract, including {IERC20-balanceOf} and {IERC20-transfer}."},"decreaseAllowance(address,uint256)":{"details":"Atomically decreases the allowance granted to `spender` by the caller. This is an alternative to {approve} that can be used as a mitigation for problems described in {IERC20-approve}. Emits an {Approval} event indicating the updated allowance. Requirements: - `spender` cannot be the zero address. - `spender` must have allowance for the caller of at least `subtractedValue`."},"increaseAllowance(address,uint256)":{"details":"Atomically increases the allowance granted to `spender` by the caller. This is an alternative to {approve} that can be used as a mitigation for problems described in {IERC20-approve}. Emits an {Approval} event indicating the updated allowance. Requirements: - `spender` cannot be the zero address."},"name()":{"details":"Returns the name of the token."},"owner()":{"details":"Returns the address of the current owner."},"renounceOwnership()":{"details":"Leaves the contract without owner. It will not be possible to call `onlyOwner` functions. Can only be called by the current owner. NOTE: Renouncing ownership will leave the contract without an owner, thereby disabling any functionality that is only available to the owner."},"symbol()":{"details":"Returns the symbol of the token, usually a shorter version of the name."},"totalSupply()":{"details":"See {IERC20-totalSupply}."},"transfer(address,uint256)":{"details":"See {IERC20-transfer}. Requirements: - `to` cannot be the zero address. - the caller must have a balance of at least `amount`."},"transferFrom(address,address,uint256)":{"details":"See {IERC20-transferFrom}. Emits an {Approval} event indicating the updated allowance. This is not required by the EIP. See the note at the beginning of {ERC20}. NOTE: Does not update the allowance if the current allowance is the maximum `uint256`. Requirements: - `from` and `to` cannot be the zero address. - `from` must have a balance of at least `amount`. - the caller must have allowance for ``from``'s tokens of at least `amount`."},"transferOwnership(address)":{"details":"Transfers ownership of the contract to a new account (`newOwner`). Can only be called by the current owner."}},"title":"FractionalNFT","version":1},"evm":{"bytecode":{"linkReferences":{},"object":"60406080815234620006785762002266803803806200001e816200067d565b928339810161010082820312620006785781516001600160401b03929083811162000678578262000051918301620006a3565b90602092838201518581116200067857816200006f918401620006a3565b908683015190606084015190620000896080860162000715565b9760a08601519160c0870151908282116200067857620000b260e091620000ba938a01620006a3565b970162000715565b92875196828811620005625760039182549860019a8b8b811c9b1680156200066d575b8d8c101462000657578c9a8291601f9e8f92838111620005f4575b50508c918311600114620005845760009262000578575b505060001982861b1c1916908b1b1783555b8751848111620005625760049889548c81811c9116801562000557575b8c821014620005425782918c8f92838111620004df575b50508c9183116001146200046f5760009262000463575b505060001982861b1c1916908b1b1788555b62000189336200072a565b8960065560018060a01b03948560018060a01b03199d168d600754161760075560085560095580519283116200044e57600a548981811c9116801562000443575b898210146200042e5790818b85949311620003d5575b5088908b841160011462000368576000936200035c575b505082891b92600019911b1c191617600a555b42600b55670de0b6b3a764000090818402918483041484151715620003065782169687156200031b5750600254818101809111620003065760007fddf252ad1be2c89b69c2b068fc378daa952ba7f163c4a11628f55a4df523b3ef876200028c95948b946002558484528382528d84208181540190558d51908152a36200072a565b84600052600c83528660002055600d549268010000000000000000841015620002f157830180600d55831015620002dc5750600d600052600020019182541617905551611af29081620007748239f35b603290634e487b7160e01b6000525260246000fd5b604182634e487b7160e01b6000525260246000fd5b601185634e487b7160e01b6000525260246000fd5b84606491878c519262461bcd60e51b845283015260248201527f45524332303a206d696e7420746f20746865207a65726f2061646472657373006044820152fd5b015191503880620001f7565b91908a9450601f19841692600a6000528a6000209360005b8c828210620003be5750508511620003a3575b50505050811b01600a556200020a565b01519060f884600019921b161c191690553880808062000393565b8385015187558e9890960195938401930162000380565b90919250600a600052886000208b80860160051c8201928b871062000424575b918c9187969594930160051c01915b82811062000414575050620001e0565b600081558695508c910162000404565b92508192620003f5565b602288634e487b7160e01b6000525260246000fd5b90607f1690620001ca565b604187634e487b7160e01b6000525260246000fd5b0151905038806200016c565b60008c81528d81208f9550929190601f198516908f5b828210620004be5750508411620004a5575b505050811b0188556200017e565b015160001983881b60f8161c1916905538808062000497565b91929395968291958786015181550195019301908f95949392918f62000485565b919350918c600052826000209181860160051c830193861062000538575b8f9092828796949593950160051c01915b8281106200052057508e915062000155565b600091939550809294505501918e918e85946200050e565b92508192620004fd565b60228b634e487b7160e01b6000525260246000fd5b90607f16906200013e565b634e487b7160e01b600052604160045260246000fd5b0151905038806200010f565b60008781528d81208f9550929190601f198516908f5b828210620005d35750508411620005ba575b505050811b01835562000121565b015160001983881b60f8161c19169055388080620005ac565b91929395968291958786015181550195019301908f95949392918f6200059a565b9193509187600052826000209181860160051c83019386106200064d575b8f9092828796949593950160051c01915b8281106200063557508e9150620000f8565b600091939550809294505501918e918e859462000623565b9250819262000612565b634e487b7160e01b600052602260045260246000fd5b9a607f169a620000dd565b600080fd5b6040519190601f01601f191682016001600160401b038111838210176200056257604052565b919080601f84011215620006785782516001600160401b0381116200056257602090620006d9601f8201601f191683016200067d565b92818452828287010111620006785760005b8181106200070157508260009394955001015290565b8581018301518482018401528201620006eb565b51906001600160a01b03821682036200067857565b600580546001600160a01b039283166001600160a01b0319821681179092559091167f8be0079c531659141344cd1fd0a4f28419497f9722a3daafe3b4186f6b6457e0600080a356fe6080604081815260048036101561001557600080fd5b600092833560e01c90816306fdde0314610f1357508063095ea7b314610ee957806316b6024914610e9c57806318160ddd14610e7d5780632279a97014610d2457806323b872dd14610c5a578063313ce56714610c3e5780633950935114610bee5780634d21e01914610b6f5780636588103b14610b4657806370a0823114610b0f578063715018a614610ab25780637427a40c14610a7257806375cbf75d14610a455780637b85b13214610a145780637e830574146109f5578063817bc0cb146109685780638477d9f3146107d657806387269729146107b75780638da5cb5b1461078e5780638fcb4e5b146106cb57806395d89b41146105b0578063a457c2d714610509578063a9059cbb146104d8578063d1a93d18146102ce578063d5002f2e146102a5578063d8270dce14610286578063dd62ed3e1461023d578063de69b3aa146102015763f2fde38b1461016d57600080fd5b346101fd5760203660031901126101fd57610186611047565b9161018f61121c565b6001600160a01b038316156101ab57836101a884611274565b80f35b906020608492519162461bcd60e51b8352820152602660248201527f4f776e61626c653a206e6577206f776e657220697320746865207a65726f206160448201526564647265737360d01b6064820152fd5b8280fd5b5050346102395760203660031901126102395760209181906001600160a01b03610229611047565b168152600c845220549051908152f35b5080fd5b5050346102395780600319360112610239578060209261025b611047565b610263611062565b6001600160a01b0391821683526001865283832091168252845220549051908152f35b505034610239578160031936011261023957602090600b549051908152f35b505034610239578160031936011261023957602090670de0b6b3a7640000600254049051908152f35b50906020806003193601126104d4578235926102e861144d565b600954801561049c576103078580159261030284156113e2565b61143a565b340361046357670de0b6b3a764000090818602918683041417156104505761032e85611501565b6001600160a01b038116929091908315610417578388528785528186892054106103d4575086809361036f8883956103688596338361183f565b33906115ba565b819034156103ca575b3491f1156103c057907f630b54f21d1c5ae41c4633ad96e8c15ce15665365eded6a38476ffa71c8ace6c91815193845234908401523392a26103b8611773565b600160065580f35b81513d85823e3d90fd5b6108fc9150610378565b855162461bcd60e51b8152908101859052601e60248201527f53656c6c65722068617320696e73756666696369656e742073686172657300006044820152606490fd5b855162461bcd60e51b815290810185905260136024820152724e6f2073686172657320617661696c61626c6560681b6044820152606490fd5b634e487b7160e01b865260118252602486fd5b50915162461bcd60e51b8152918201526014602482015273125b98dbdc9c9958dd0811551208185b5bdd5b9d60621b6044820152606490fd5b50915162461bcd60e51b815291820152601360248201527214da185c99481c1c9a58d9481b9bdd081cd95d606a1b6044820152606490fd5b8380fd5b5050346102395780600319360112610239576020906105026104f8611047565b602435903361183f565b5160018152f35b5082346105ad57826003193601126105ad57610523611047565b918360243592338152600160205281812060018060a01b038616825260205220549082821061055c5760208561050285850387336112e0565b608490602086519162461bcd60e51b8352820152602560248201527f45524332303a2064656372656173656420616c6c6f77616e63652062656c6f77604482015264207a65726f60d81b6064820152fd5b80fd5b5091346105ad57806003193601126105ad5781519181845492600184811c918186169586156106c1575b60209687851081146106ae579087899a92868b999a9b529182600014610684575050600114610629575b858861062589610616848a03856110c5565b51928284938452830190611007565b0390f35b815286935091907f8a35acfbc15ff81a39ae7d344fd709f28e8600b4aa8c65c6b64bfe7fe36bd19b5b82841061066c575050508201018161061661062538610604565b8054848a018601528895508794909301928101610652565b60ff19168882015294151560051b8701909401945085935061061692506106259150389050610604565b634e487b7160e01b835260228a52602483fd5b92607f16926105da565b5090346101fd57806003193601126101fd576106e5611047565b90602435928315906106f782156113e2565b338652600c60205261070e858488205410156114a3565b670de0b6b3a7640000918286029286840414171561077b575061073290833361183f565b61073d8383336115ba565b519182526001600160a01b03169033907f99c01cd4f8275976ef33d24514b1694c8a9d5730d92e26996834343e09778e9990602090a36101a8611773565b634e487b7160e01b865260119052602485fd5b50503461023957816003193601126102395760055490516001600160a01b039091168152602090f35b5050346102395781600319360112610239576020906009549051908152f35b509190346102395781600319360112610239578290600d546107f781611a0d565b92610804835194856110c5565b81845261081082611a0d565b6020858101969091601f190136883761082884611a25565b9261083285611a25565b94670de0b6b3a76400006002540483811515905b8381106108b2575050505050845195606087019060608852518091526080870197915b8181106108955787890384890152878061062589896108888e8b6111e8565b91848303908501526111e8565b82516001600160a01b031689529783019791830191600101610869565b6108be819b969b611078565b90546001600160a01b039160039190821b1c82166108dc848a611a57565b526108e683611078565b9054911b1c168b52600c8752898b2054610900828a611a57565b52811561095e576109118189611a57565b5160649081810291818304149015171561094b57906109338461094393611753565b61093d828c611a57565b526114f2565b999499610846565b634e487b7160e01b8c526011865260248cfd5b610943908b610933565b8284346105ad57806003193601126105ad57600d5481805b828110610991576020848651908152f35b61099a81611078565b90546001600160a01b039160039190821b1c82166109c3575b50506109be906114f2565b610980565b946109ed9183966109d66109be95611078565b9054911b1c168452600c60205286842054906112bd565b9390866109b3565b5050346102395781600319360112610239576020906008549051908152f35b50503461023957816003193601126102395761062590610a326110fd565b9051918291602083526020830190611007565b50503461023957602036600319011261023957602090610a6b610a66611047565b611a6b565b9051908152f35b50346101fd5760203660031901126101fd573591600d548310156105ad5750610a9c602092611078565b905491519160018060a01b039160031b1c168152f35b83346105ad57806003193601126105ad57610acb61121c565b600580546001600160a01b0319811690915581906001600160a01b03167f8be0079c531659141344cd1fd0a4f28419497f9722a3daafe3b4186f6b6457e08280a380f35b5050346102395760203660031901126102395760209181906001600160a01b03610b37611047565b16815280845220549051908152f35b50503461023957816003193601126102395760075490516001600160a01b039091168152602090f35b8284346105ad57806003193601126105ad575060018060a01b038060075416906008549260095491670de0b6b3a764000060025404906005541690610bd5600b549360e0610bbb6110fd565b918051998a998a5260208a015288015260e0870190611007565b936060860152608085015260a084015260c08301520390f35b505034610239578060031936011261023957610502602092610c37610c11611047565b338352600186528483206001600160a01b038216845286529184902054602435906112bd565b90336112e0565b5050346102395781600319360112610239576020905160128152f35b5082903461023957606036600319011261023957610c76611047565b610c7e611062565b91846044359460018060a01b038416815260016020528181203382526020522054906000198203610cb8575b60208661050287878761183f565b848210610ce15750918391610cd660209695610502950333836112e0565b919394819350610caa565b606490602087519162461bcd60e51b8352820152601d60248201527f45524332303a20696e73756666696369656e7420616c6c6f77616e63650000006044820152fd5b509190346102395780600319360112610239578235602435610d4461144d565b811591610d5183156113e2565b338552600c602052610d68818587205410156114a3565b8115610e2b57670de0b6b3a76400009283820293828504141715610e18579081610d9f610d978388969561143a565b93303361183f565b338452600c602052610db58585209182546114e5565b9055338352600c6020528383205415610e0a575b6009541015610ddc575b50600160065580f35b81808092818115610e01575b3390f115610df7578181610dd3565b51903d90823e3d90fd5b506108fc610de8565b610e1333611699565b610dc9565b634e487b7160e01b855260118652602485fd5b835162461bcd60e51b8152602081880152602660248201527f507269636520706572207368617265206d75737420626520677265617465722060448201526507468616e20360d41b6064820152608490fd5b5050346102395781600319360112610239576020906002549051908152f35b50346101fd5760203660031901126101fd577fce44720b7462058f31ddecab3daa427921e5975d9acb555f043682dada866569916020913590610edd61121c565b8160095551908152a180f35b505034610239578060031936011261023957602090610502610f09611047565b60243590336112e0565b90508383346102395781600319360112610239578160035492600184811c91818616958615610ffd575b60209687851081146106ae578899509688969785829a529182600014610fd6575050600114610f7a575b50505061062592916106169103856110c5565b9190869350600383527fc2575a0e9e593c00f959f8c92f12db2869c3395a3b0502d05e2516446f71f85b5b828410610fbe5750505082010181610616610625610f67565b8054848a018601528895508794909301928101610fa5565b60ff19168782015293151560051b8601909301935084925061061691506106259050610f67565b92607f1692610f3d565b919082519283825260005b848110611033575050826000602080949584010152601f8019910116010190565b602081830181015184830182015201611012565b600435906001600160a01b038216820361105d57565b600080fd5b602435906001600160a01b038216820361105d57565b600d548110156110af57600d6000527fd7b6990105719101dabeb77144f2a3385c8033acd3af97e9423a695e81ad1eb50190600090565b634e487b7160e01b600052603260045260246000fd5b90601f8019910116810190811067ffffffffffffffff8211176110e757604052565b634e487b7160e01b600052604160045260246000fd5b604051906000600a5490600182811c908084169384156111de575b60209485841081146111ca57838852879493929181156111aa575060011461114b575b5050611149925003836110c5565b565b90939150600a6000527fc65a7bb8d6351c1cf70c95a316cc6a92839c986682d98bc35f958f4883f9d2a8936000915b8183106111925750506111499350820101388061113b565b8554888401850152948501948794509183019161117a565b91505061114994925060ff191682840152151560051b820101388061113b565b634e487b7160e01b85526022600452602485fd5b91607f1691611118565b90815180825260208080930193019160005b828110611208575050505090565b8351855293810193928101926001016111fa565b6005546001600160a01b0316330361123057565b606460405162461bcd60e51b815260206004820152602060248201527f4f776e61626c653a2063616c6c6572206973206e6f7420746865206f776e65726044820152fd5b600580546001600160a01b039283166001600160a01b0319821681179092559091167f8be0079c531659141344cd1fd0a4f28419497f9722a3daafe3b4186f6b6457e0600080a3565b919082018092116112ca57565b634e487b7160e01b600052601160045260246000fd5b6001600160a01b0390811691821561139157169182156113415760207f8c5be1e5ebec7d5bd14f71427d1e84f3dd0314c0f7b2291e5b200ac8c7c3b925918360005260018252604060002085600052825280604060002055604051908152a3565b60405162461bcd60e51b815260206004820152602260248201527f45524332303a20617070726f766520746f20746865207a65726f206164647265604482015261737360f01b6064820152608490fd5b60405162461bcd60e51b8152602060048201526024808201527f45524332303a20617070726f76652066726f6d20746865207a65726f206164646044820152637265737360e01b6064820152608490fd5b156113e957565b60405162461bcd60e51b815260206004820152602360248201527f536861726520616d6f756e74206d75737420626520677265617465722074686160448201526206e20360ec1b6064820152608490fd5b818102929181159184041417156112ca57565b60026006541461145e576002600655565b60405162461bcd60e51b815260206004820152601f60248201527f5265656e7472616e637947756172643a207265656e7472616e742063616c6c006044820152606490fd5b156114aa57565b60405162461bcd60e51b8152602060048201526013602482015272496e73756666696369656e742073686172657360681b6044820152606490fd5b919082039182116112ca57565b60001981146112ca5760010190565b60018060a01b03806005541690600092828452600c90602090828252604094818688205410156115b05750600d5494865b868110611543575050505050505090565b61154c81611078565b9054600391821b1c87163314158061158d575b611572575061156d906114f2565b611532565b96509350505050611584919350611078565b9054911b1c1690565b508661159883611078565b905490831b1c16895285855283838a2054101561155f565b9550505050505090565b90929160018060a01b039081831690600092828452600c602052604084206115e38382546114e5565b90558616808452600c602052604084205415611631575b6040949596508352600c6020526116158484209182546112bd565b90558152600c6020522054156116285750565b61114990611699565b600d546801000000000000000081101561168557604095969761165d82600161167c9401600d55611078565b90919082549060031b9160018060a01b03809116831b921b1916179055565b869594506115fa565b634e487b7160e01b85526041600452602485fd5b6000905b600d918254928382101561174d576116b482611078565b90546003956001600160a01b0392909190871b1c8216858316146116e6575050506116e09192506114f2565b9061169d565b9193509160001991828101919082116112ca5761165d8461170961171694611078565b905490891b1c1691611078565b8254801561173757019261172984611078565b81939154921b1b1916905555565b634e487b7160e01b600052603160045260246000fd5b50505050565b811561175d570490565b634e487b7160e01b600052601260045260246000fd5b6005546002546001600160a01b0391821690670de0b6b3a7640000900460005b600d5481101561174d57836117a782611078565b90549060031b1c168381036117c6575b506117c1906114f2565b611793565b806000526020600c8152604080600020546064908181029181830414901517156112ca57856117f491611753565b9060328211611805575050506117b7565b929650925092507ffc8f2d6996e2b706fa4cfb81cb10a53534b07f2010b2488488508f8751f55375935061183885611274565b51908152a2565b916001600160a01b038084168015801592906119ba5784169081156119695760008181528060205260408120549085821061191557856040928483528260205203828220558381522084815401905581817fddf252ad1be2c89b69c2b068fc378daa952ba7f163c4a11628f55a4df523b3ef6020604051888152a38261190c575b82611901575b50816118f6575b506118d757505050565b670de0b6b3a7640000900490816118ed57505050565b611149926115ba565b9050301415386118cd565b3014159150386118c6565b600192506118c0565b60405162461bcd60e51b815260206004820152602660248201527f45524332303a207472616e7366657220616d6f756e7420657863656564732062604482015265616c616e636560d01b6064820152608490fd5b60405162461bcd60e51b815260206004820152602360248201527f45524332303a207472616e7366657220746f20746865207a65726f206164647260448201526265737360e81b6064820152608490fd5b60405162461bcd60e51b815260206004820152602560248201527f45524332303a207472616e736665722066726f6d20746865207a65726f206164604482015264647265737360d81b6064820152608490fd5b67ffffffffffffffff81116110e75760051b60200190565b90611a2f82611a0d565b611a3c60405191826110c5565b8281528092611a4d601f1991611a0d565b0190602036910137565b80518210156110af5760209160051b010190565b670de0b6b3a764000060025404908115611ab55760018060a01b0316600052600c602052604060002054906064820291808304606414901517156112ca57611ab291611753565b90565b505060009056fea264697066735822122020a6b15a40491db268cc82debb6e69be6bed83babd5c8f0806037ce6d909281264736f6c63430008140033","opcodes":"PUSH1 0x40 PUSH1 0x80 DUP2 MSTORE CALLVALUE PUSH3 0x678 JUMPI PUSH3 0x2266 DUP1 CODESIZE SUB DUP1 PUSH3 0x1E DUP2 PUSH3 0x67D JUMP JUMPDEST SWAP3 DUP4 CODECOPY DUP2 ADD PUSH2 0x100 DUP3 DUP3 SUB SLT PUSH3 0x678 JUMPI DUP2 MLOAD PUSH1 0x1 PUSH1 0x1 PUSH1 0x40 SHL SUB SWAP3 SWAP1 DUP4 DUP2 GT PUSH3 0x678 JUMPI DUP3 PUSH3 0x51 SWAP2 DUP4 ADD PUSH3 0x6A3 JUMP JUMPDEST SWAP1 PUSH1 0x20 SWAP3 DUP4 DUP3 ADD MLOAD DUP6 DUP2 GT PUSH3 0x678 JUMPI DUP2 PUSH3 0x6F SWAP2 DUP5 ADD PUSH3 0x6A3 JUMP JUMPDEST SWAP1 DUP7 DUP4 ADD MLOAD SWAP1 PUSH1 0x60 DUP5 ADD MLOAD SWAP1 PUSH3 0x89 PUSH1 0x80 DUP7 ADD PUSH3 0x715 JUMP JUMPDEST SWAP8 PUSH1 0xA0 DUP7 ADD MLOAD SWAP2 PUSH1 0xC0 DUP8 ADD MLOAD SWAP1 DUP3 DUP3 GT PUSH3 0x678 JUMPI PUSH3 0xB2 PUSH1 0xE0 SWAP2 PUSH3 0xBA SWAP4 DUP11 ADD PUSH3 0x6A3 JUMP JUMPDEST SWAP8 ADD PUSH3 0x715 JUMP JUMPDEST SWAP3 DUP8 MLOAD SWAP7 DUP3 DUP9 GT PUSH3 0x562 JUMPI PUSH1 0x3 SWAP2 DUP3 SLOAD SWAP9 PUSH1 0x1 SWAP11 DUP12 DUP12 DUP2 SHR SWAP12 AND DUP1 ISZERO PUSH3 0x66D JUMPI JUMPDEST DUP14 DUP13 LT EQ PUSH3 0x657 JUMPI DUP13 SWAP11 DUP3 SWAP2 PUSH1 0x1F SWAP15 DUP16 SWAP3 DUP4 DUP2 GT PUSH3 0x5F4 JUMPI JUMPDEST POP POP DUP13 SWAP2 DUP4 GT PUSH1 0x1 EQ PUSH3 0x584 JUMPI PUSH1 0x0 SWAP3 PUSH3 0x578 JUMPI JUMPDEST POP POP PUSH1 0x0 NOT DUP3 DUP7 SHL SHR NOT AND SWAP1 DUP12 SHL OR DUP4 SSTORE JUMPDEST DUP8 MLOAD DUP5 DUP2 GT PUSH3 0x562 JUMPI PUSH1 0x4 SWAP9 DUP10 SLOAD DUP13 DUP2 DUP2 SHR SWAP2 AND DUP1 ISZERO PUSH3 0x557 JUMPI JUMPDEST DUP13 DUP3 LT EQ PUSH3 0x542 JUMPI DUP3 SWAP2 DUP13 DUP16 SWAP3 DUP4 DUP2 GT PUSH3 0x4DF JUMPI JUMPDEST POP POP DUP13 SWAP2 DUP4 GT PUSH1 0x1 EQ PUSH3 0x46F JUMPI PUSH1 0x0 SWAP3 PUSH3 0x463 JUMPI JUMPDEST POP POP PUSH1 0x0 NOT DUP3 DUP7 SHL SHR NOT AND SWAP1 DUP12 SHL OR DUP9 SSTORE JUMPDEST PUSH3 0x189 CALLER PUSH3 0x72A JUMP JUMPDEST DUP10 PUSH1 0x6 SSTORE PUSH1 0x1 DUP1 PUSH1 0xA0 SHL SUB SWAP5 DUP6 PUSH1 0x1 DUP1 PUSH1 0xA0 SHL SUB NOT SWAP14 AND DUP14 PUSH1 0x7 SLOAD AND OR PUSH1 0x7 SSTORE PUSH1 0x8 SSTORE PUSH1 0x9 SSTORE DUP1 MLOAD SWAP3 DUP4 GT PUSH3 0x44E JUMPI PUSH1 0xA SLOAD DUP10 DUP2 DUP2 SHR SWAP2 AND DUP1 ISZERO PUSH3 0x443 JUMPI JUMPDEST DUP10 DUP3 LT EQ PUSH3 0x42E JUMPI SWAP1 DUP2 DUP12 DUP6 SWAP5 SWAP4 GT PUSH3 0x3D5 JUMPI JUMPDEST POP DUP9 SWAP1 DUP12 DUP5 GT PUSH1 0x1 EQ PUSH3 0x368 JUMPI PUSH1 0x0 SWAP4 PUSH3 0x35C JUMPI JUMPDEST POP POP DUP3 DUP10 SHL SWAP3 PUSH1 0x0 NOT SWAP2 SHL SHR NOT AND OR PUSH1 0xA SSTORE JUMPDEST TIMESTAMP PUSH1 0xB SSTORE PUSH8 0xDE0B6B3A7640000 SWAP1 DUP2 DUP5 MUL SWAP2 DUP5 DUP4 DIV EQ DUP5 ISZERO OR ISZERO PUSH3 0x306 JUMPI DUP3 AND SWAP7 DUP8 ISZERO PUSH3 0x31B JUMPI POP PUSH1 0x2 SLOAD DUP2 DUP2 ADD DUP1 SWAP2 GT PUSH3 0x306 JUMPI PUSH1 0x0 PUSH32 0xDDF252AD1BE2C89B69C2B068FC378DAA952BA7F163C4A11628F55A4DF523B3EF DUP8 PUSH3 0x28C SWAP6 SWAP5 DUP12 SWAP5 PUSH1 0x2 SSTORE DUP5 DUP5 MSTORE DUP4 DUP3 MSTORE DUP14 DUP5 KECCAK256 DUP2 DUP2 SLOAD ADD SWAP1 SSTORE DUP14 MLOAD SWAP1 DUP2 MSTORE LOG3 PUSH3 0x72A JUMP JUMPDEST DUP5 PUSH1 0x0 MSTORE PUSH1 0xC DUP4 MSTORE DUP7 PUSH1 0x0 KECCAK256 SSTORE PUSH1 0xD SLOAD SWAP3 PUSH9 0x10000000000000000 DUP5 LT ISZERO PUSH3 0x2F1 JUMPI DUP4 ADD DUP1 PUSH1 0xD SSTORE DUP4 LT ISZERO PUSH3 0x2DC JUMPI POP PUSH1 0xD PUSH1 0x0 MSTORE PUSH1 0x0 KECCAK256 ADD SWAP2 DUP3 SLOAD AND OR SWAP1 SSTORE MLOAD PUSH2 0x1AF2 SWAP1 DUP2 PUSH3 0x774 DUP3 CODECOPY RETURN JUMPDEST PUSH1 0x32 SWAP1 PUSH4 0x4E487B71 PUSH1 0xE0 SHL PUSH1 0x0 MSTORE MSTORE PUSH1 0x24 PUSH1 0x0 REVERT JUMPDEST PUSH1 0x41 DUP3 PUSH4 0x4E487B71 PUSH1 0xE0 SHL PUSH1 0x0 MSTORE MSTORE PUSH1 0x24 PUSH1 0x0 REVERT JUMPDEST PUSH1 0x11 DUP6 PUSH4 0x4E487B71 PUSH1 0xE0 SHL PUSH1 0x0 MSTORE MSTORE PUSH1 0x24 PUSH1 0x0 REVERT JUMPDEST DUP5 PUSH1 0x64 SWAP2 DUP8 DUP13 MLOAD SWAP3 PUSH3 0x461BCD PUSH1 0xE5 SHL DUP5 MSTORE DUP4 ADD MSTORE PUSH1 0x24 DUP3 ADD MSTORE PUSH32 0x45524332303A206D696E7420746F20746865207A65726F206164647265737300 PUSH1 0x44 DUP3 ADD MSTORE REVERT JUMPDEST ADD MLOAD SWAP2 POP CODESIZE DUP1 PUSH3 0x1F7 JUMP JUMPDEST SWAP2 SWAP1 DUP11 SWAP5 POP PUSH1 0x1F NOT DUP5 AND SWAP3 PUSH1 0xA PUSH1 0x0 MSTORE DUP11 PUSH1 0x0 KECCAK256 SWAP4 PUSH1 0x0 JUMPDEST DUP13 DUP3 DUP3 LT PUSH3 0x3BE JUMPI POP POP DUP6 GT PUSH3 0x3A3 JUMPI JUMPDEST POP POP POP POP DUP2 SHL ADD PUSH1 0xA SSTORE PUSH3 0x20A JUMP JUMPDEST ADD MLOAD SWAP1 PUSH1 0xF8 DUP5 PUSH1 0x0 NOT SWAP3 SHL AND SHR NOT AND SWAP1 SSTORE CODESIZE DUP1 DUP1 DUP1 PUSH3 0x393 JUMP JUMPDEST DUP4 DUP6 ADD MLOAD DUP8 SSTORE DUP15 SWAP9 SWAP1 SWAP7 ADD SWAP6 SWAP4 DUP5 ADD SWAP4 ADD PUSH3 0x380 JUMP JUMPDEST SWAP1 SWAP2 SWAP3 POP PUSH1 0xA PUSH1 0x0 MSTORE DUP9 PUSH1 0x0 KECCAK256 DUP12 DUP1 DUP7 ADD PUSH1 0x5 SHR DUP3 ADD SWAP3 DUP12 DUP8 LT PUSH3 0x424 JUMPI JUMPDEST SWAP2 DUP13 SWAP2 DUP8 SWAP7 SWAP6 SWAP5 SWAP4 ADD PUSH1 0x5 SHR ADD SWAP2 JUMPDEST DUP3 DUP2 LT PUSH3 0x414 JUMPI POP POP PUSH3 0x1E0 JUMP JUMPDEST PUSH1 0x0 DUP2 SSTORE DUP7 SWAP6 POP DUP13 SWAP2 ADD PUSH3 0x404 JUMP JUMPDEST SWAP3 POP DUP2 SWAP3 PUSH3 0x3F5 JUMP JUMPDEST PUSH1 0x22 DUP9 PUSH4 0x4E487B71 PUSH1 0xE0 SHL PUSH1 0x0 MSTORE MSTORE PUSH1 0x24 PUSH1 0x0 REVERT JUMPDEST SWAP1 PUSH1 0x7F AND SWAP1 PUSH3 0x1CA JUMP JUMPDEST PUSH1 0x41 DUP8 PUSH4 0x4E487B71 PUSH1 0xE0 SHL PUSH1 0x0 MSTORE MSTORE PUSH1 0x24 PUSH1 0x0 REVERT JUMPDEST ADD MLOAD SWAP1 POP CODESIZE DUP1 PUSH3 0x16C JUMP JUMPDEST PUSH1 0x0 DUP13 DUP2 MSTORE DUP14 DUP2 KECCAK256 DUP16 SWAP6 POP SWAP3 SWAP2 SWAP1 PUSH1 0x1F NOT DUP6 AND SWAP1 DUP16 JUMPDEST DUP3 DUP3 LT PUSH3 0x4BE JUMPI POP POP DUP5 GT PUSH3 0x4A5 JUMPI JUMPDEST POP POP POP DUP2 SHL ADD DUP9 SSTORE PUSH3 0x17E JUMP JUMPDEST ADD MLOAD PUSH1 0x0 NOT DUP4 DUP9 SHL PUSH1 0xF8 AND SHR NOT AND SWAP1 SSTORE CODESIZE DUP1 DUP1 PUSH3 0x497 JUMP JUMPDEST SWAP2 SWAP3 SWAP4 SWAP6 SWAP7 DUP3 SWAP2 SWAP6 DUP8 DUP7 ADD MLOAD DUP2 SSTORE ADD SWAP6 ADD SWAP4 ADD SWAP1 DUP16 SWAP6 SWAP5 SWAP4 SWAP3 SWAP2 DUP16 PUSH3 0x485 JUMP JUMPDEST SWAP2 SWAP4 POP SWAP2 DUP13 PUSH1 0x0 MSTORE DUP3 PUSH1 0x0 KECCAK256 SWAP2 DUP2 DUP7 ADD PUSH1 0x5 SHR DUP4 ADD SWAP4 DUP7 LT PUSH3 0x538 JUMPI JUMPDEST DUP16 SWAP1 SWAP3 DUP3 DUP8 SWAP7 SWAP5 SWAP6 SWAP4 SWAP6 ADD PUSH1 0x5 SHR ADD SWAP2 JUMPDEST DUP3 DUP2 LT PUSH3 0x520 JUMPI POP DUP15 SWAP2 POP PUSH3 0x155 JUMP JUMPDEST PUSH1 0x0 SWAP2 SWAP4 SWAP6 POP DUP1 SWAP3 SWAP5 POP SSTORE ADD SWAP2 DUP15 SWAP2 DUP15 DUP6 SWAP5 PUSH3 0x50E JUMP JUMPDEST SWAP3 POP DUP2 SWAP3 PUSH3 0x4FD JUMP JUMPDEST PUSH1 0x22 DUP12 PUSH4 0x4E487B71 PUSH1 0xE0 SHL PUSH1 0x0 MSTORE MSTORE PUSH1 0x24 PUSH1 0x0 REVERT JUMPDEST SWAP1 PUSH1 0x7F AND SWAP1 PUSH3 0x13E JUMP JUMPDEST PUSH4 0x4E487B71 PUSH1 0xE0 SHL PUSH1 0x0 MSTORE PUSH1 0x41 PUSH1 0x4 MSTORE PUSH1 0x24 PUSH1 0x0 REVERT JUMPDEST ADD MLOAD SWAP1 POP CODESIZE DUP1 PUSH3 0x10F JUMP JUMPDEST PUSH1 0x0 DUP8 DUP2 MSTORE DUP14 DUP2 KECCAK256 DUP16 SWAP6 POP SWAP3 SWAP2 SWAP1 PUSH1 0x1F NOT DUP6 AND SWAP1 DUP16 JUMPDEST DUP3 DUP3 LT PUSH3 0x5D3 JUMPI POP POP DUP5 GT PUSH3 0x5BA JUMPI JUMPDEST POP POP POP DUP2 SHL ADD DUP4 SSTORE PUSH3 0x121 JUMP JUMPDEST ADD MLOAD PUSH1 0x0 NOT DUP4 DUP9 SHL PUSH1 0xF8 AND SHR NOT AND SWAP1 SSTORE CODESIZE DUP1 DUP1 PUSH3 0x5AC JUMP JUMPDEST SWAP2 SWAP3 SWAP4 SWAP6 SWAP7 DUP3 SWAP2 SWAP6 DUP8 DUP7 ADD MLOAD DUP2 SSTORE ADD SWAP6 ADD SWAP4 ADD SWAP1 DUP16 SWAP6 SWAP5 SWAP4 SWAP3 SWAP2 DUP16 PUSH3 0x59A JUMP JUMPDEST SWAP2 SWAP4 POP SWAP2 DUP8 PUSH1 0x0 MSTORE DUP3 PUSH1 0x0 KECCAK256 SWAP2 DUP2 DUP7 ADD PUSH1 0x5 SHR DUP4 ADD SWAP4 DUP7 LT PUSH3 0x64D JUMPI JUMPDEST DUP16 SWAP1 SWAP3 DUP3 DUP8 SWAP7 SWAP5 SWAP6 SWAP4 SWAP6 ADD PUSH1 0x5 SHR ADD SWAP2 JUMPDEST DUP3 DUP2 LT PUSH3 0x635 JUMPI POP DUP15 SWAP2 POP PUSH3 0xF8 JUMP JUMPDEST PUSH1 0x0 SWAP2 SWAP4 SWAP6 POP DUP1 SWAP3 SWAP5 POP SSTORE ADD SWAP2 DUP15 SWAP2 DUP15 DUP6 SWAP5 PUSH3 0x623 JUMP JUMPDEST SWAP3 POP DUP2 SWAP3 PUSH3 0x612 JUMP JUMPDEST PUSH4 0x4E487B71 PUSH1 0xE0 SHL PUSH1 0x0 MSTORE PUSH1 0x22 PUSH1 0x4 MSTORE PUSH1 0x24 PUSH1 0x0 REVERT JUMPDEST SWAP11 PUSH1 0x7F AND SWAP11 PUSH3 0xDD JUMP JUMPDEST PUSH1 0x0 DUP1 REVERT JUMPDEST PUSH1 0x40 MLOAD SWAP2 SWAP1 PUSH1 0x1F ADD PUSH1 0x1F NOT AND DUP3 ADD PUSH1 0x1 PUSH1 0x1 PUSH1 0x40 SHL SUB DUP2 GT DUP4 DUP3 LT OR PUSH3 0x562 JUMPI PUSH1 0x40 MSTORE JUMP JUMPDEST SWAP2 SWAP1 DUP1 PUSH1 0x1F DUP5 ADD SLT ISZERO PUSH3 0x678 JUMPI DUP3 MLOAD PUSH1 0x1 PUSH1 0x1 PUSH1 0x40 SHL SUB DUP2 GT PUSH3 0x562 JUMPI PUSH1 0x20 SWAP1 PUSH3 0x6D9 PUSH1 0x1F DUP3 ADD PUSH1 0x1F NOT AND DUP4 ADD PUSH3 0x67D JUMP JUMPDEST SWAP3 DUP2 DUP5 MSTORE DUP3 DUP3 DUP8 ADD ADD GT PUSH3 0x678 JUMPI PUSH1 0x0 JUMPDEST DUP2 DUP2 LT PUSH3 0x701 JUMPI POP DUP3 PUSH1 0x0 SWAP4 SWAP5 SWAP6 POP ADD ADD MSTORE SWAP1 JUMP JUMPDEST DUP6 DUP2 ADD DUP4 ADD MLOAD DUP5 DUP3 ADD DUP5 ADD MSTORE DUP3 ADD PUSH3 0x6EB JUMP JUMPDEST MLOAD SWAP1 PUSH1 0x1 PUSH1 0x1 PUSH1 0xA0 SHL SUB DUP3 AND DUP3 SUB PUSH3 0x678 JUMPI JUMP JUMPDEST PUSH1 0x5 DUP1 SLOAD PUSH1 0x1 PUSH1 0x1 PUSH1 0xA0 SHL SUB SWAP3 DUP4 AND PUSH1 0x1 PUSH1 0x1 PUSH1 0xA0 SHL SUB NOT DUP3 AND DUP2 OR SWAP1 SWAP3 SSTORE SWAP1 SWAP2 AND PUSH32 0x8BE0079C531659141344CD1FD0A4F28419497F9722A3DAAFE3B4186F6B6457E0 PUSH1 0x0 DUP1 LOG3 JUMP INVALID PUSH1 0x80 PUSH1 0x40 DUP2 DUP2 MSTORE PUSH1 0x4 DUP1 CALLDATASIZE LT ISZERO PUSH2 0x15 JUMPI PUSH1 0x0 DUP1 REVERT JUMPDEST PUSH1 0x0 SWAP3 DUP4 CALLDATALOAD PUSH1 0xE0 SHR SWAP1 DUP2 PUSH4 0x6FDDE03 EQ PUSH2 0xF13 JUMPI POP DUP1 PUSH4 0x95EA7B3 EQ PUSH2 0xEE9 JUMPI DUP1 PUSH4 0x16B60249 EQ PUSH2 0xE9C JUMPI DUP1 PUSH4 0x18160DDD EQ PUSH2 0xE7D JUMPI DUP1 PUSH4 0x2279A970 EQ PUSH2 0xD24 JUMPI DUP1 PUSH4 0x23B872DD EQ PUSH2 0xC5A JUMPI DUP1 PUSH4 0x313CE567 EQ PUSH2 0xC3E JUMPI DUP1 PUSH4 0x39509351 EQ PUSH2 0xBEE JUMPI DUP1 PUSH4 0x4D21E019 EQ PUSH2 0xB6F JUMPI DUP1 PUSH4 0x6588103B EQ PUSH2 0xB46 JUMPI DUP1 PUSH4 0x70A08231 EQ PUSH2 0xB0F JUMPI DUP1 PUSH4 0x715018A6 EQ PUSH2 0xAB2 JUMPI DUP1 PUSH4 0x7427A40C EQ PUSH2 0xA72 JUMPI DUP1 PUSH4 0x75CBF75D EQ PUSH2 0xA45 JUMPI DUP1 PUSH4 0x7B85B132 EQ PUSH2 0xA14 JUMPI DUP1 PUSH4 0x7E830574 EQ PUSH2 0x9F5 JUMPI DUP1 PUSH4 0x817BC0CB EQ PUSH2 0x968 JUMPI DUP1 PUSH4 0x8477D9F3 EQ PUSH2 0x7D6 JUMPI DUP1 PUSH4 0x87269729 EQ PUSH2 0x7B7 JUMPI DUP1 PUSH4 0x8DA5CB5B EQ PUSH2 0x78E JUMPI DUP1 PUSH4 0x8FCB4E5B EQ PUSH2 0x6CB JUMPI DUP1 PUSH4 0x95D89B41 EQ PUSH2 0x5B0 JUMPI DUP1 PUSH4 0xA457C2D7 EQ PUSH2 0x509 JUMPI DUP1 PUSH4 0xA9059CBB EQ PUSH2 0x4D8 JUMPI DUP1 PUSH4 0xD1A93D18 EQ PUSH2 0x2CE JUMPI DUP1 PUSH4 0xD5002F2E EQ PUSH2 0x2A5 JUMPI DUP1 PUSH4 0xD8270DCE EQ PUSH2 0x286 JUMPI DUP1 PUSH4 0xDD62ED3E EQ PUSH2 0x23D JUMPI DUP1 PUSH4 0xDE69B3AA EQ PUSH2 0x201 JUMPI PUSH4 0xF2FDE38B EQ PUSH2 0x16D JUMPI PUSH1 0x0 DUP1 REVERT JUMPDEST CALLVALUE PUSH2 0x1FD JUMPI PUSH1 0x20 CALLDATASIZE PUSH1 0x3 NOT ADD SLT PUSH2 0x1FD JUMPI PUSH2 0x186 PUSH2 0x1047 JUMP JUMPDEST SWAP2 PUSH2 0x18F PUSH2 0x121C JUMP JUMPDEST PUSH1 0x1 PUSH1 0x1 PUSH1 0xA0 SHL SUB DUP4 AND ISZERO PUSH2 0x1AB JUMPI DUP4 PUSH2 0x1A8 DUP5 PUSH2 0x1274 JUMP JUMPDEST DUP1 RETURN JUMPDEST SWAP1 PUSH1 0x20 PUSH1 0x84 SWAP3 MLOAD SWAP2 PUSH3 0x461BCD PUSH1 0xE5 SHL DUP4 MSTORE DUP3 ADD MSTORE PUSH1 0x26 PUSH1 0x24 DUP3 ADD MSTORE PUSH32 0x4F776E61626C653A206E6577206F776E657220697320746865207A65726F2061 PUSH1 0x44 DUP3 ADD MSTORE PUSH6 0x646472657373 PUSH1 0xD0 SHL PUSH1 0x64 DUP3 ADD MSTORE REVERT JUMPDEST DUP3 DUP1 REVERT JUMPDEST POP POP CALLVALUE PUSH2 0x239 JUMPI PUSH1 0x20 CALLDATASIZE PUSH1 0x3 NOT ADD SLT PUSH2 0x239 JUMPI PUSH1 0x20 SWAP2 DUP2 SWAP1 PUSH1 0x1 PUSH1 0x1 PUSH1 0xA0 SHL SUB PUSH2 0x229 PUSH2 0x1047 JUMP JUMPDEST AND DUP2 MSTORE PUSH1 0xC DUP5 MSTORE KECCAK256 SLOAD SWAP1 MLOAD SWAP1 DUP2 MSTORE RETURN JUMPDEST POP DUP1 REVERT JUMPDEST POP POP CALLVALUE PUSH2 0x239 JUMPI DUP1 PUSH1 0x3 NOT CALLDATASIZE ADD SLT PUSH2 0x239 JUMPI DUP1 PUSH1 0x20 SWAP3 PUSH2 0x25B PUSH2 0x1047 JUMP JUMPDEST PUSH2 0x263 PUSH2 0x1062 JUMP JUMPDEST PUSH1 0x1 PUSH1 0x1 PUSH1 0xA0 SHL SUB SWAP2 DUP3 AND DUP4 MSTORE PUSH1 0x1 DUP7 MSTORE DUP4 DUP4 KECCAK256 SWAP2 AND DUP3 MSTORE DUP5 MSTORE KECCAK256 SLOAD SWAP1 MLOAD SWAP1 DUP2 MSTORE RETURN JUMPDEST POP POP CALLVALUE PUSH2 0x239 JUMPI DUP2 PUSH1 0x3 NOT CALLDATASIZE ADD SLT PUSH2 0x239 JUMPI PUSH1 0x20 SWAP1 PUSH1 0xB SLOAD SWAP1 MLOAD SWAP1 DUP2 MSTORE RETURN JUMPDEST POP POP CALLVALUE PUSH2 0x239 JUMPI DUP2 PUSH1 0x3 NOT CALLDATASIZE ADD SLT PUSH2 0x239 JUMPI PUSH1 0x20 SWAP1 PUSH8 0xDE0B6B3A7640000 PUSH1 0x2 SLOAD DIV SWAP1 MLOAD SWAP1 DUP2 MSTORE RETURN JUMPDEST POP SWAP1 PUSH1 0x20 DUP1 PUSH1 0x3 NOT CALLDATASIZE ADD SLT PUSH2 0x4D4 JUMPI DUP3 CALLDATALOAD SWAP3 PUSH2 0x2E8 PUSH2 0x144D JUMP JUMPDEST PUSH1 0x9 SLOAD DUP1 ISZERO PUSH2 0x49C JUMPI PUSH2 0x307 DUP6 DUP1 ISZERO SWAP3 PUSH2 0x302 DUP5 ISZERO PUSH2 0x13E2 JUMP JUMPDEST PUSH2 0x143A JUMP JUMPDEST CALLVALUE SUB PUSH2 0x463 JUMPI PUSH8 0xDE0B6B3A7640000 SWAP1 DUP2 DUP7 MUL SWAP2 DUP7 DUP4 DIV EQ OR ISZERO PUSH2 0x450 JUMPI PUSH2 0x32E DUP6 PUSH2 0x1501 JUMP JUMPDEST PUSH1 0x1 PUSH1 0x1 PUSH1 0xA0 SHL SUB DUP2 AND SWAP3 SWAP1 SWAP2 SWAP1 DUP4 ISZERO PUSH2 0x417 JUMPI DUP4 DUP9 MSTORE DUP8 DUP6 MSTORE DUP2 DUP7 DUP10 KECCAK256 SLOAD LT PUSH2 0x3D4 JUMPI POP DUP7 DUP1 SWAP4 PUSH2 0x36F DUP9 DUP4 SWAP6 PUSH2 0x368 DUP6 SWAP7 CALLER DUP4 PUSH2 0x183F JUMP JUMPDEST CALLER SWAP1 PUSH2 0x15BA JUMP JUMPDEST DUP2 SWAP1 CALLVALUE ISZERO PUSH2 0x3CA JUMPI JUMPDEST CALLVALUE SWAP2 CALL ISZERO PUSH2 0x3C0 JUMPI SWAP1 PUSH32 0x630B54F21D1C5AE41C4633AD96E8C15CE15665365EDED6A38476FFA71C8ACE6C SWAP2 DUP2 MLOAD SWAP4 DUP5 MSTORE CALLVALUE SWAP1 DUP5 ADD MSTORE CALLER SWAP3 LOG2 PUSH2 0x3B8 PUSH2 0x1773 JUMP JUMPDEST PUSH1 0x1 PUSH1 0x6 SSTORE DUP1 RETURN JUMPDEST DUP2 MLOAD RETURNDATASIZE DUP6 DUP3 RETURNDATACOPY RETURNDATASIZE SWAP1 REVERT JUMPDEST PUSH2 0x8FC SWAP2 POP PUSH2 0x378 JUMP JUMPDEST DUP6 MLOAD PUSH3 0x461BCD PUSH1 0xE5 SHL DUP2 MSTORE SWAP1 DUP2 ADD DUP6 SWAP1 MSTORE PUSH1 0x1E PUSH1 0x24 DUP3 ADD MSTORE PUSH32 0x53656C6C65722068617320696E73756666696369656E74207368617265730000 PUSH1 0x44 DUP3 ADD MSTORE PUSH1 0x64 SWAP1 REVERT JUMPDEST DUP6 MLOAD PUSH3 0x461BCD PUSH1 0xE5 SHL DUP2 MSTORE SWAP1 DUP2 ADD DUP6 SWAP1 MSTORE PUSH1 0x13 PUSH1 0x24 DUP3 ADD MSTORE PUSH19 0x4E6F2073686172657320617661696C61626C65 PUSH1 0x68 SHL PUSH1 0x44 DUP3 ADD MSTORE PUSH1 0x64 SWAP1 REVERT JUMPDEST PUSH4 0x4E487B71 PUSH1 0xE0 SHL DUP7 MSTORE PUSH1 0x11 DUP3 MSTORE PUSH1 0x24 DUP7 REVERT JUMPDEST POP SWAP2 MLOAD PUSH3 0x461BCD PUSH1 0xE5 SHL DUP2 MSTORE SWAP2 DUP3 ADD MSTORE PUSH1 0x14 PUSH1 0x24 DUP3 ADD MSTORE PUSH20 0x125B98DBDC9C9958DD0811551208185B5BDD5B9D PUSH1 0x62 SHL PUSH1 0x44 DUP3 ADD MSTORE PUSH1 0x64 SWAP1 REVERT JUMPDEST POP SWAP2 MLOAD PUSH3 0x461BCD PUSH1 0xE5 SHL DUP2 MSTORE SWAP2 DUP3 ADD MSTORE PUSH1 0x13 PUSH1 0x24 DUP3 ADD MSTORE PUSH19 0x14DA185C99481C1C9A58D9481B9BDD081CD95D PUSH1 0x6A SHL PUSH1 0x44 DUP3 ADD MSTORE PUSH1 0x64 SWAP1 REVERT JUMPDEST DUP4 DUP1 REVERT JUMPDEST POP POP CALLVALUE PUSH2 0x239 JUMPI DUP1 PUSH1 0x3 NOT CALLDATASIZE ADD SLT PUSH2 0x239 JUMPI PUSH1 0x20 SWAP1 PUSH2 0x502 PUSH2 0x4F8 PUSH2 0x1047 JUMP JUMPDEST PUSH1 0x24 CALLDATALOAD SWAP1 CALLER PUSH2 0x183F JUMP JUMPDEST MLOAD PUSH1 0x1 DUP2 MSTORE RETURN JUMPDEST POP DUP3 CALLVALUE PUSH2 0x5AD JUMPI DUP3 PUSH1 0x3 NOT CALLDATASIZE ADD SLT PUSH2 0x5AD JUMPI PUSH2 0x523 PUSH2 0x1047 JUMP JUMPDEST SWAP2 DUP4 PUSH1 0x24 CALLDATALOAD SWAP3 CALLER DUP2 MSTORE PUSH1 0x1 PUSH1 0x20 MSTORE DUP2 DUP2 KECCAK256 PUSH1 0x1 DUP1 PUSH1 0xA0 SHL SUB DUP7 AND DUP3 MSTORE PUSH1 0x20 MSTORE KECCAK256 SLOAD SWAP1 DUP3 DUP3 LT PUSH2 0x55C JUMPI PUSH1 0x20 DUP6 PUSH2 0x502 DUP6 DUP6 SUB DUP8 CALLER PUSH2 0x12E0 JUMP JUMPDEST PUSH1 0x84 SWAP1 PUSH1 0x20 DUP7 MLOAD SWAP2 PUSH3 0x461BCD PUSH1 0xE5 SHL DUP4 MSTORE DUP3 ADD MSTORE PUSH1 0x25 PUSH1 0x24 DUP3 ADD MSTORE PUSH32 0x45524332303A2064656372656173656420616C6C6F77616E63652062656C6F77 PUSH1 0x44 DUP3 ADD MSTORE PUSH5 0x207A65726F PUSH1 0xD8 SHL PUSH1 0x64 DUP3 ADD MSTORE REVERT JUMPDEST DUP1 REVERT JUMPDEST POP SWAP2 CALLVALUE PUSH2 0x5AD JUMPI DUP1 PUSH1 0x3 NOT CALLDATASIZE ADD SLT PUSH2 0x5AD JUMPI DUP2 MLOAD SWAP2 DUP2 DUP5 SLOAD SWAP3 PUSH1 0x1 DUP5 DUP2 SHR SWAP2 DUP2 DUP7 AND SWAP6 DUP7 ISZERO PUSH2 0x6C1 JUMPI JUMPDEST PUSH1 0x20 SWAP7 DUP8 DUP6 LT DUP2 EQ PUSH2 0x6AE JUMPI SWAP1 DUP8 DUP10 SWAP11 SWAP3 DUP7 DUP12 SWAP10 SWAP11 SWAP12 MSTORE SWAP2 DUP3 PUSH1 0x0 EQ PUSH2 0x684 JUMPI POP POP PUSH1 0x1 EQ PUSH2 0x629 JUMPI JUMPDEST DUP6 DUP9 PUSH2 0x625 DUP10 PUSH2 0x616 DUP5 DUP11 SUB DUP6 PUSH2 0x10C5 JUMP JUMPDEST MLOAD SWAP3 DUP3 DUP5 SWAP4 DUP5 MSTORE DUP4 ADD SWAP1 PUSH2 0x1007 JUMP JUMPDEST SUB SWAP1 RETURN JUMPDEST DUP2 MSTORE DUP7 SWAP4 POP SWAP2 SWAP1 PUSH32 0x8A35ACFBC15FF81A39AE7D344FD709F28E8600B4AA8C65C6B64BFE7FE36BD19B JUMPDEST DUP3 DUP5 LT PUSH2 0x66C JUMPI POP POP POP DUP3 ADD ADD DUP2 PUSH2 0x616 PUSH2 0x625 CODESIZE PUSH2 0x604 JUMP JUMPDEST DUP1 SLOAD DUP5 DUP11 ADD DUP7 ADD MSTORE DUP9 SWAP6 POP DUP8 SWAP5 SWAP1 SWAP4 ADD SWAP3 DUP2 ADD PUSH2 0x652 JUMP JUMPDEST PUSH1 0xFF NOT AND DUP9 DUP3 ADD MSTORE SWAP5 ISZERO ISZERO PUSH1 0x5 SHL DUP8 ADD SWAP1 SWAP5 ADD SWAP5 POP DUP6 SWAP4 POP PUSH2 0x616 SWAP3 POP PUSH2 0x625 SWAP2 POP CODESIZE SWAP1 POP PUSH2 0x604 JUMP JUMPDEST PUSH4 0x4E487B71 PUSH1 0xE0 SHL DUP4 MSTORE PUSH1 0x22 DUP11 MSTORE PUSH1 0x24 DUP4 REVERT JUMPDEST SWAP3 PUSH1 0x7F AND SWAP3 PUSH2 0x5DA JUMP JUMPDEST POP SWAP1 CALLVALUE PUSH2 0x1FD JUMPI DUP1 PUSH1 0x3 NOT CALLDATASIZE ADD SLT PUSH2 0x1FD JUMPI PUSH2 0x6E5 PUSH2 0x1047 JUMP JUMPDEST SWAP1 PUSH1 0x24 CALLDATALOAD SWAP3 DUP4 ISZERO SWAP1 PUSH2 0x6F7 DUP3 ISZERO PUSH2 0x13E2 JUMP JUMPDEST CALLER DUP7 MSTORE PUSH1 0xC PUSH1 0x20 MSTORE PUSH2 0x70E DUP6 DUP5 DUP9 KECCAK256 SLOAD LT ISZERO PUSH2 0x14A3 JUMP JUMPDEST PUSH8 0xDE0B6B3A7640000 SWAP2 DUP3 DUP7 MUL SWAP3 DUP7 DUP5 DIV EQ OR ISZERO PUSH2 0x77B JUMPI POP PUSH2 0x732 SWAP1 DUP4 CALLER PUSH2 0x183F JUMP JUMPDEST PUSH2 0x73D DUP4 DUP4 CALLER PUSH2 0x15BA JUMP JUMPDEST MLOAD SWAP2 DUP3 MSTORE PUSH1 0x1 PUSH1 0x1 PUSH1 0xA0 SHL SUB AND SWAP1 CALLER SWAP1 PUSH32 0x99C01CD4F8275976EF33D24514B1694C8A9D5730D92E26996834343E09778E99 SWAP1 PUSH1 0x20 SWAP1 LOG3 PUSH2 0x1A8 PUSH2 0x1773 JUMP JUMPDEST PUSH4 0x4E487B71 PUSH1 0xE0 SHL DUP7 MSTORE PUSH1 0x11 SWAP1 MSTORE PUSH1 0x24 DUP6 REVERT JUMPDEST POP POP CALLVALUE PUSH2 0x239 JUMPI DUP2 PUSH1 0x3 NOT CALLDATASIZE ADD SLT PUSH2 0x239 JUMPI PUSH1 0x5 SLOAD SWAP1 MLOAD PUSH1 0x1 PUSH1 0x1 PUSH1 0xA0 SHL SUB SWAP1 SWAP2 AND DUP2 MSTORE PUSH1 0x20 SWAP1 RETURN JUMPDEST POP POP CALLVALUE PUSH2 0x239 JUMPI DUP2 PUSH1 0x3 NOT CALLDATASIZE ADD SLT PUSH2 0x239 JUMPI PUSH1 0x20 SWAP1 PUSH1 0x9 SLOAD SWAP1 MLOAD SWAP1 DUP2 MSTORE RETURN JUMPDEST POP SWAP2 SWAP1 CALLVALUE PUSH2 0x239 JUMPI DUP2 PUSH1 0x3 NOT CALLDATASIZE ADD SLT PUSH2 0x239 JUMPI DUP3 SWAP1 PUSH1 0xD SLOAD PUSH2 0x7F7 DUP2 PUSH2 0x1A0D JUMP JUMPDEST SWAP3 PUSH2 0x804 DUP4 MLOAD SWAP5 DUP6 PUSH2 0x10C5 JUMP JUMPDEST DUP2 DUP5 MSTORE PUSH2 0x810 DUP3 PUSH2 0x1A0D JUMP JUMPDEST PUSH1 0x20 DUP6 DUP2 ADD SWAP7 SWAP1 SWAP2 PUSH1 0x1F NOT ADD CALLDATASIZE DUP9 CALLDATACOPY PUSH2 0x828 DUP5 PUSH2 0x1A25 JUMP JUMPDEST SWAP3 PUSH2 0x832 DUP6 PUSH2 0x1A25 JUMP JUMPDEST SWAP5 PUSH8 0xDE0B6B3A7640000 PUSH1 0x2 SLOAD DIV DUP4 DUP2 ISZERO ISZERO SWAP1 JUMPDEST DUP4 DUP2 LT PUSH2 0x8B2 JUMPI POP POP POP POP POP DUP5 MLOAD SWAP6 PUSH1 0x60 DUP8 ADD SWAP1 PUSH1 0x60 DUP9 MSTORE MLOAD DUP1 SWAP2 MSTORE PUSH1 0x80 DUP8 ADD SWAP8 SWAP2 JUMPDEST DUP2 DUP2 LT PUSH2 0x895 JUMPI DUP8 DUP10 SUB DUP5 DUP10 ADD MSTORE DUP8 DUP1 PUSH2 0x625 DUP10 DUP10 PUSH2 0x888 DUP15 DUP12 PUSH2 0x11E8 JUMP JUMPDEST SWAP2 DUP5 DUP4 SUB SWAP1 DUP6 ADD MSTORE PUSH2 0x11E8 JUMP JUMPDEST DUP3 MLOAD PUSH1 0x1 PUSH1 0x1 PUSH1 0xA0 SHL SUB AND DUP10 MSTORE SWAP8 DUP4 ADD SWAP8 SWAP2 DUP4 ADD SWAP2 PUSH1 0x1 ADD PUSH2 0x869 JUMP JUMPDEST PUSH2 0x8BE DUP2 SWAP12 SWAP7 SWAP12 PUSH2 0x1078 JUMP JUMPDEST SWAP1 SLOAD PUSH1 0x1 PUSH1 0x1 PUSH1 0xA0 SHL SUB SWAP2 PUSH1 0x3 SWAP2 SWAP1 DUP3 SHL SHR DUP3 AND PUSH2 0x8DC DUP5 DUP11 PUSH2 0x1A57 JUMP JUMPDEST MSTORE PUSH2 0x8E6 DUP4 PUSH2 0x1078 JUMP JUMPDEST SWAP1 SLOAD SWAP2 SHL SHR AND DUP12 MSTORE PUSH1 0xC DUP8 MSTORE DUP10 DUP12 KECCAK256 SLOAD PUSH2 0x900 DUP3 DUP11 PUSH2 0x1A57 JUMP JUMPDEST MSTORE DUP2 ISZERO PUSH2 0x95E JUMPI PUSH2 0x911 DUP2 DUP10 PUSH2 0x1A57 JUMP JUMPDEST MLOAD PUSH1 0x64 SWAP1 DUP2 DUP2 MUL SWAP2 DUP2 DUP4 DIV EQ SWAP1 ISZERO OR ISZERO PUSH2 0x94B JUMPI SWAP1 PUSH2 0x933 DUP5 PUSH2 0x943 SWAP4 PUSH2 0x1753 JUMP JUMPDEST PUSH2 0x93D DUP3 DUP13 PUSH2 0x1A57 JUMP JUMPDEST MSTORE PUSH2 0x14F2 JUMP JUMPDEST SWAP10 SWAP5 SWAP10 PUSH2 0x846 JUMP JUMPDEST PUSH4 0x4E487B71 PUSH1 0xE0 SHL DUP13 MSTORE PUSH1 0x11 DUP7 MSTORE PUSH1 0x24 DUP13 REVERT JUMPDEST PUSH2 0x943 SWAP1 DUP12 PUSH2 0x933 JUMP JUMPDEST DUP3 DUP5 CALLVALUE PUSH2 0x5AD JUMPI DUP1 PUSH1 0x3 NOT CALLDATASIZE ADD SLT PUSH2 0x5AD JUMPI PUSH1 0xD SLOAD DUP2 DUP1 JUMPDEST DUP3 DUP2 LT PUSH2 0x991 JUMPI PUSH1 0x20 DUP5 DUP7 MLOAD SWAP1 DUP2 MSTORE RETURN JUMPDEST PUSH2 0x99A DUP2 PUSH2 0x1078 JUMP JUMPDEST SWAP1 SLOAD PUSH1 0x1 PUSH1 0x1 PUSH1 0xA0 SHL SUB SWAP2 PUSH1 0x3 SWAP2 SWAP1 DUP3 SHL SHR DUP3 AND PUSH2 0x9C3 JUMPI JUMPDEST POP POP PUSH2 0x9BE SWAP1 PUSH2 0x14F2 JUMP JUMPDEST PUSH2 0x980 JUMP JUMPDEST SWAP5 PUSH2 0x9ED SWAP2 DUP4 SWAP7 PUSH2 0x9D6 PUSH2 0x9BE SWAP6 PUSH2 0x1078 JUMP JUMPDEST SWAP1 SLOAD SWAP2 SHL SHR AND DUP5 MSTORE PUSH1 0xC PUSH1 0x20 MSTORE DUP7 DUP5 KECCAK256 SLOAD SWAP1 PUSH2 0x12BD JUMP JUMPDEST SWAP4 SWAP1 DUP7 PUSH2 0x9B3 JUMP JUMPDEST POP POP CALLVALUE PUSH2 0x239 JUMPI DUP2 PUSH1 0x3 NOT CALLDATASIZE ADD SLT PUSH2 0x239 JUMPI PUSH1 0x20 SWAP1 PUSH1 0x8 SLOAD SWAP1 MLOAD SWAP1 DUP2 MSTORE RETURN JUMPDEST POP POP CALLVALUE PUSH2 0x239 JUMPI DUP2 PUSH1 0x3 NOT CALLDATASIZE ADD SLT PUSH2 0x239 JUMPI PUSH2 0x625 SWAP1 PUSH2 0xA32 PUSH2 0x10FD JUMP JUMPDEST SWAP1 MLOAD SWAP2 DUP3 SWAP2 PUSH1 0x20 DUP4 MSTORE PUSH1 0x20 DUP4 ADD SWAP1 PUSH2 0x1007 JUMP JUMPDEST POP POP CALLVALUE PUSH2 0x239 JUMPI PUSH1 0x20 CALLDATASIZE PUSH1 0x3 NOT ADD SLT PUSH2 0x239 JUMPI PUSH1 0x20 SWAP1 PUSH2 0xA6B PUSH2 0xA66 PUSH2 0x1047 JUMP JUMPDEST PUSH2 0x1A6B JUMP JUMPDEST SWAP1 MLOAD SWAP1 DUP2 MSTORE RETURN JUMPDEST POP CALLVALUE PUSH2 0x1FD JUMPI PUSH1 0x20 CALLDATASIZE PUSH1 0x3 NOT ADD SLT PUSH2 0x1FD JUMPI CALLDATALOAD SWAP2 PUSH1 0xD SLOAD DUP4 LT ISZERO PUSH2 0x5AD JUMPI POP PUSH2 0xA9C PUSH1 0x20 SWAP3 PUSH2 0x1078 JUMP JUMPDEST SWAP1 SLOAD SWAP2 MLOAD SWAP2 PUSH1 0x1 DUP1 PUSH1 0xA0 SHL SUB SWAP2 PUSH1 0x3 SHL SHR AND DUP2 MSTORE RETURN JUMPDEST DUP4 CALLVALUE PUSH2 0x5AD JUMPI DUP1 PUSH1 0x3 NOT CALLDATASIZE ADD SLT PUSH2 0x5AD JUMPI PUSH2 0xACB PUSH2 0x121C JUMP JUMPDEST PUSH1 0x5 DUP1 SLOAD PUSH1 0x1 PUSH1 0x1 PUSH1 0xA0 SHL SUB NOT DUP2 AND SWAP1 SWAP2 SSTORE DUP2 SWAP1 PUSH1 0x1 PUSH1 0x1 PUSH1 0xA0 SHL SUB AND PUSH32 0x8BE0079C531659141344CD1FD0A4F28419497F9722A3DAAFE3B4186F6B6457E0 DUP3 DUP1 LOG3 DUP1 RETURN JUMPDEST POP POP CALLVALUE PUSH2 0x239 JUMPI PUSH1 0x20 CALLDATASIZE PUSH1 0x3 NOT ADD SLT PUSH2 0x239 JUMPI PUSH1 0x20 SWAP2 DUP2 SWAP1 PUSH1 0x1 PUSH1 0x1 PUSH1 0xA0 SHL SUB PUSH2 0xB37 PUSH2 0x1047 JUMP JUMPDEST AND DUP2 MSTORE DUP1 DUP5 MSTORE KECCAK256 SLOAD SWAP1 MLOAD SWAP1 DUP2 MSTORE RETURN JUMPDEST POP POP CALLVALUE PUSH2 0x239 JUMPI DUP2 PUSH1 0x3 NOT CALLDATASIZE ADD SLT PUSH2 0x239 JUMPI PUSH1 0x7 SLOAD SWAP1 MLOAD PUSH1 0x1 PUSH1 0x1 PUSH1 0xA0 SHL SUB SWAP1 SWAP2 AND DUP2 MSTORE PUSH1 0x20 SWAP1 RETURN JUMPDEST DUP3 DUP5 CALLVALUE PUSH2 0x5AD JUMPI DUP1 PUSH1 0x3 NOT CALLDATASIZE ADD SLT PUSH2 0x5AD JUMPI POP PUSH1 0x1 DUP1 PUSH1 0xA0 SHL SUB DUP1 PUSH1 0x7 SLOAD AND SWAP1 PUSH1 0x8 SLOAD SWAP3 PUSH1 0x9 SLOAD SWAP2 PUSH8 0xDE0B6B3A7640000 PUSH1 0x2 SLOAD DIV SWAP1 PUSH1 0x5 SLOAD AND SWAP1 PUSH2 0xBD5 PUSH1 0xB SLOAD SWAP4 PUSH1 0xE0 PUSH2 0xBBB PUSH2 0x10FD JUMP JUMPDEST SWAP2 DUP1 MLOAD SWAP10 DUP11 SWAP10 DUP11 MSTORE PUSH1 0x20 DUP11 ADD MSTORE DUP9 ADD MSTORE PUSH1 0xE0 DUP8 ADD SWAP1 PUSH2 0x1007 JUMP JUMPDEST SWAP4 PUSH1 0x60 DUP7 ADD MSTORE PUSH1 0x80 DUP6 ADD MSTORE PUSH1 0xA0 DUP5 ADD MSTORE PUSH1 0xC0 DUP4 ADD MSTORE SUB SWAP1 RETURN JUMPDEST POP POP CALLVALUE PUSH2 0x239 JUMPI DUP1 PUSH1 0x3 NOT CALLDATASIZE ADD SLT PUSH2 0x239 JUMPI PUSH2 0x502 PUSH1 0x20 SWAP3 PUSH2 0xC37 PUSH2 0xC11 PUSH2 0x1047 JUMP JUMPDEST CALLER DUP4 MSTORE PUSH1 0x1 DUP7 MSTORE DUP5 DUP4 KECCAK256 PUSH1 0x1 PUSH1 0x1 PUSH1 0xA0 SHL SUB DUP3 AND DUP5 MSTORE DUP7 MSTORE SWAP2 DUP5 SWAP1 KECCAK256 SLOAD PUSH1 0x24 CALLDATALOAD SWAP1 PUSH2 0x12BD JUMP JUMPDEST SWAP1 CALLER PUSH2 0x12E0 JUMP JUMPDEST POP POP CALLVALUE PUSH2 0x239 JUMPI DUP2 PUSH1 0x3 NOT CALLDATASIZE ADD SLT PUSH2 0x239 JUMPI PUSH1 0x20 SWAP1 MLOAD PUSH1 0x12 DUP2 MSTORE RETURN JUMPDEST POP DUP3 SWAP1 CALLVALUE PUSH2 0x239 JUMPI PUSH1 0x60 CALLDATASIZE PUSH1 0x3 NOT ADD SLT PUSH2 0x239 JUMPI PUSH2 0xC76 PUSH2 0x1047 JUMP JUMPDEST PUSH2 0xC7E PUSH2 0x1062 JUMP JUMPDEST SWAP2 DUP5 PUSH1 0x44 CALLDATALOAD SWAP5 PUSH1 0x1 DUP1 PUSH1 0xA0 SHL SUB DUP5 AND DUP2 MSTORE PUSH1 0x1 PUSH1 0x20 MSTORE DUP2 DUP2 KECCAK256 CALLER DUP3 MSTORE PUSH1 0x20 MSTORE KECCAK256 SLOAD SWAP1 PUSH1 0x0 NOT DUP3 SUB PUSH2 0xCB8 JUMPI JUMPDEST PUSH1 0x20 DUP7 PUSH2 0x502 DUP8 DUP8 DUP8 PUSH2 0x183F JUMP JUMPDEST DUP5 DUP3 LT PUSH2 0xCE1 JUMPI POP SWAP2 DUP4 SWAP2 PUSH2 0xCD6 PUSH1 0x20 SWAP7 SWAP6 PUSH2 0x502 SWAP6 SUB CALLER DUP4 PUSH2 0x12E0 JUMP JUMPDEST SWAP2 SWAP4 SWAP5 DUP2 SWAP4 POP PUSH2 0xCAA JUMP JUMPDEST PUSH1 0x64 SWAP1 PUSH1 0x20 DUP8 MLOAD SWAP2 PUSH3 0x461BCD PUSH1 0xE5 SHL DUP4 MSTORE DUP3 ADD MSTORE PUSH1 0x1D PUSH1 0x24 DUP3 ADD MSTORE PUSH32 0x45524332303A20696E73756666696369656E7420616C6C6F77616E6365000000 PUSH1 0x44 DUP3 ADD MSTORE REVERT JUMPDEST POP SWAP2 SWAP1 CALLVALUE PUSH2 0x239 JUMPI DUP1 PUSH1 0x3 NOT CALLDATASIZE ADD SLT PUSH2 0x239 JUMPI DUP3 CALLDATALOAD PUSH1 0x24 CALLDATALOAD PUSH2 0xD44 PUSH2 0x144D JUMP JUMPDEST DUP2 ISZERO SWAP2 PUSH2 0xD51 DUP4 ISZERO PUSH2 0x13E2 JUMP JUMPDEST CALLER DUP6 MSTORE PUSH1 0xC PUSH1 0x20 MSTORE PUSH2 0xD68 DUP2 DUP6 DUP8 KECCAK256 SLOAD LT ISZERO PUSH2 0x14A3 JUMP JUMPDEST DUP2 ISZERO PUSH2 0xE2B JUMPI PUSH8 0xDE0B6B3A7640000 SWAP3 DUP4 DUP3 MUL SWAP4 DUP3 DUP6 DIV EQ OR ISZERO PUSH2 0xE18 JUMPI SWAP1 DUP2 PUSH2 0xD9F PUSH2 0xD97 DUP4 DUP9 SWAP7 SWAP6 PUSH2 0x143A JUMP JUMPDEST SWAP4 ADDRESS CALLER PUSH2 0x183F JUMP JUMPDEST CALLER DUP5 MSTORE PUSH1 0xC PUSH1 0x20 MSTORE PUSH2 0xDB5 DUP6 DUP6 KECCAK256 SWAP2 DUP3 SLOAD PUSH2 0x14E5 JUMP JUMPDEST SWAP1 SSTORE CALLER DUP4 MSTORE PUSH1 0xC PUSH1 0x20 MSTORE DUP4 DUP4 KECCAK256 SLOAD ISZERO PUSH2 0xE0A JUMPI JUMPDEST PUSH1 0x9 SLOAD LT ISZERO PUSH2 0xDDC JUMPI JUMPDEST POP PUSH1 0x1 PUSH1 0x6 SSTORE DUP1 RETURN JUMPDEST DUP2 DUP1 DUP1 SWAP3 DUP2 DUP2 ISZERO PUSH2 0xE01 JUMPI JUMPDEST CALLER SWAP1 CALL ISZERO PUSH2 0xDF7 JUMPI DUP2 DUP2 PUSH2 0xDD3 JUMP JUMPDEST MLOAD SWAP1 RETURNDATASIZE SWAP1 DUP3 RETURNDATACOPY RETURNDATASIZE SWAP1 REVERT JUMPDEST POP PUSH2 0x8FC PUSH2 0xDE8 JUMP JUMPDEST PUSH2 0xE13 CALLER PUSH2 0x1699 JUMP JUMPDEST PUSH2 0xDC9 JUMP JUMPDEST PUSH4 0x4E487B71 PUSH1 0xE0 SHL DUP6 MSTORE PUSH1 0x11 DUP7 MSTORE PUSH1 0x24 DUP6 REVERT JUMPDEST DUP4 MLOAD PUSH3 0x461BCD PUSH1 0xE5 SHL DUP2 MSTORE PUSH1 0x20 DUP2 DUP9 ADD MSTORE PUSH1 0x26 PUSH1 0x24 DUP3 ADD MSTORE PUSH32 0x507269636520706572207368617265206D757374206265206772656174657220 PUSH1 0x44 DUP3 ADD MSTORE PUSH6 0x7468616E203 PUSH1 0xD4 SHL PUSH1 0x64 DUP3 ADD MSTORE PUSH1 0x84 SWAP1 REVERT JUMPDEST POP POP CALLVALUE PUSH2 0x239 JUMPI DUP2 PUSH1 0x3 NOT CALLDATASIZE ADD SLT PUSH2 0x239 JUMPI PUSH1 0x20 SWAP1 PUSH1 0x2 SLOAD SWAP1 MLOAD SWAP1 DUP2 MSTORE RETURN JUMPDEST POP CALLVALUE PUSH2 0x1FD JUMPI PUSH1 0x20 CALLDATASIZE PUSH1 0x3 NOT ADD SLT PUSH2 0x1FD JUMPI PUSH32 0xCE44720B7462058F31DDECAB3DAA427921E5975D9ACB555F043682DADA866569 SWAP2 PUSH1 0x20 SWAP2 CALLDATALOAD SWAP1 PUSH2 0xEDD PUSH2 0x121C JUMP JUMPDEST DUP2 PUSH1 0x9 SSTORE MLOAD SWAP1 DUP2 MSTORE LOG1 DUP1 RETURN JUMPDEST POP POP CALLVALUE PUSH2 0x239 JUMPI DUP1 PUSH1 0x3 NOT CALLDATASIZE ADD SLT PUSH2 0x239 JUMPI PUSH1 0x20 SWAP1 PUSH2 0x502 PUSH2 0xF09 PUSH2 0x1047 JUMP JUMPDEST PUSH1 0x24 CALLDATALOAD SWAP1 CALLER PUSH2 0x12E0 JUMP JUMPDEST SWAP1 POP DUP4 DUP4 CALLVALUE PUSH2 0x239 JUMPI DUP2 PUSH1 0x3 NOT CALLDATASIZE ADD SLT PUSH2 0x239 JUMPI DUP2 PUSH1 0x3 SLOAD SWAP3 PUSH1 0x1 DUP5 DUP2 SHR SWAP2 DUP2 DUP7 AND SWAP6 DUP7 ISZERO PUSH2 0xFFD JUMPI JUMPDEST PUSH1 0x20 SWAP7 DUP8 DUP6 LT DUP2 EQ PUSH2 0x6AE JUMPI DUP9 SWAP10 POP SWAP7 DUP9 SWAP7 SWAP8 DUP6 DUP3 SWAP11 MSTORE SWAP2 DUP3 PUSH1 0x0 EQ PUSH2 0xFD6 JUMPI POP POP PUSH1 0x1 EQ PUSH2 0xF7A JUMPI JUMPDEST POP POP POP PUSH2 0x625 SWAP3 SWAP2 PUSH2 0x616 SWAP2 SUB DUP6 PUSH2 0x10C5 JUMP JUMPDEST SWAP2 SWAP1 DUP7 SWAP4 POP PUSH1 0x3 DUP4 MSTORE PUSH32 0xC2575A0E9E593C00F959F8C92F12DB2869C3395A3B0502D05E2516446F71F85B JUMPDEST DUP3 DUP5 LT PUSH2 0xFBE JUMPI POP POP POP DUP3 ADD ADD DUP2 PUSH2 0x616 PUSH2 0x625 PUSH2 0xF67 JUMP JUMPDEST DUP1 SLOAD DUP5 DUP11 ADD DUP7 ADD MSTORE DUP9 SWAP6 POP DUP8 SWAP5 SWAP1 SWAP4 ADD SWAP3 DUP2 ADD PUSH2 0xFA5 JUMP JUMPDEST PUSH1 0xFF NOT AND DUP8 DUP3 ADD MSTORE SWAP4 ISZERO ISZERO PUSH1 0x5 SHL DUP7 ADD SWAP1 SWAP4 ADD SWAP4 POP DUP5 SWAP3 POP PUSH2 0x616 SWAP2 POP PUSH2 0x625 SWAP1 POP PUSH2 0xF67 JUMP JUMPDEST SWAP3 PUSH1 0x7F AND SWAP3 PUSH2 0xF3D JUMP JUMPDEST SWAP2 SWAP1 DUP3 MLOAD SWAP3 DUP4 DUP3 MSTORE PUSH1 0x0 JUMPDEST DUP5 DUP2 LT PUSH2 0x1033 JUMPI POP POP DUP3 PUSH1 0x0 PUSH1 0x20 DUP1 SWAP5 SWAP6 DUP5 ADD ADD MSTORE PUSH1 0x1F DUP1 NOT SWAP2 ADD AND ADD ADD SWAP1 JUMP JUMPDEST PUSH1 0x20 DUP2 DUP4 ADD DUP2 ADD MLOAD DUP5 DUP4 ADD DUP3 ADD MSTORE ADD PUSH2 0x1012 JUMP JUMPDEST PUSH1 0x4 CALLDATALOAD SWAP1 PUSH1 0x1 PUSH1 0x1 PUSH1 0xA0 SHL SUB DUP3 AND DUP3 SUB PUSH2 0x105D JUMPI JUMP JUMPDEST PUSH1 0x0 DUP1 REVERT JUMPDEST PUSH1 0x24 CALLDATALOAD SWAP1 PUSH1 0x1 PUSH1 0x1 PUSH1 0xA0 SHL SUB DUP3 AND DUP3 SUB PUSH2 0x105D JUMPI JUMP JUMPDEST PUSH1 0xD SLOAD DUP2 LT ISZERO PUSH2 0x10AF JUMPI PUSH1 0xD PUSH1 0x0 MSTORE PUSH32 0xD7B6990105719101DABEB77144F2A3385C8033ACD3AF97E9423A695E81AD1EB5 ADD SWAP1 PUSH1 0x0 SWAP1 JUMP JUMPDEST PUSH4 0x4E487B71 PUSH1 0xE0 SHL PUSH1 0x0 MSTORE PUSH1 0x32 PUSH1 0x4 MSTORE PUSH1 0x24 PUSH1 0x0 REVERT JUMPDEST SWAP1 PUSH1 0x1F DUP1 NOT SWAP2 ADD AND DUP2 ADD SWAP1 DUP2 LT PUSH8 0xFFFFFFFFFFFFFFFF DUP3 GT OR PUSH2 0x10E7 JUMPI PUSH1 0x40 MSTORE JUMP JUMPDEST PUSH4 0x4E487B71 PUSH1 0xE0 SHL PUSH1 0x0 MSTORE PUSH1 0x41 PUSH1 0x4 MSTORE PUSH1 0x24 PUSH1 0x0 REVERT JUMPDEST PUSH1 0x40 MLOAD SWAP1 PUSH1 0x0 PUSH1 0xA SLOAD SWAP1 PUSH1 0x1 DUP3 DUP2 SHR SWAP1 DUP1 DUP5 AND SWAP4 DUP5 ISZERO PUSH2 0x11DE JUMPI JUMPDEST PUSH1 0x20 SWAP5 DUP6 DUP5 LT DUP2 EQ PUSH2 0x11CA JUMPI DUP4 DUP9 MSTORE DUP8 SWAP5 SWAP4 SWAP3 SWAP2 DUP2 ISZERO PUSH2 0x11AA JUMPI POP PUSH1 0x1 EQ PUSH2 0x114B JUMPI JUMPDEST POP POP PUSH2 0x1149 SWAP3 POP SUB DUP4 PUSH2 0x10C5 JUMP JUMPDEST JUMP JUMPDEST SWAP1 SWAP4 SWAP2 POP PUSH1 0xA PUSH1 0x0 MSTORE PUSH32 0xC65A7BB8D6351C1CF70C95A316CC6A92839C986682D98BC35F958F4883F9D2A8 SWAP4 PUSH1 0x0 SWAP2 JUMPDEST DUP2 DUP4 LT PUSH2 0x1192 JUMPI POP POP PUSH2 0x1149 SWAP4 POP DUP3 ADD ADD CODESIZE DUP1 PUSH2 0x113B JUMP JUMPDEST DUP6 SLOAD DUP9 DUP5 ADD DUP6 ADD MSTORE SWAP5 DUP6 ADD SWAP5 DUP8 SWAP5 POP SWAP2 DUP4 ADD SWAP2 PUSH2 0x117A JUMP JUMPDEST SWAP2 POP POP PUSH2 0x1149 SWAP5 SWAP3 POP PUSH1 0xFF NOT AND DUP3 DUP5 ADD MSTORE ISZERO ISZERO PUSH1 0x5 SHL DUP3 ADD ADD CODESIZE DUP1 PUSH2 0x113B JUMP JUMPDEST PUSH4 0x4E487B71 PUSH1 0xE0 SHL DUP6 MSTORE PUSH1 0x22 PUSH1 0x4 MSTORE PUSH1 0x24 DUP6 REVERT JUMPDEST SWAP2 PUSH1 0x7F AND SWAP2 PUSH2 0x1118 JUMP JUMPDEST SWAP1 DUP2 MLOAD DUP1 DUP3 MSTORE PUSH1 0x20 DUP1 DUP1 SWAP4 ADD SWAP4 ADD SWAP2 PUSH1 0x0 JUMPDEST DUP3 DUP2 LT PUSH2 0x1208 JUMPI POP POP POP POP SWAP1 JUMP JUMPDEST DUP4 MLOAD DUP6 MSTORE SWAP4 DUP2 ADD SWAP4 SWAP3 DUP2 ADD SWAP3 PUSH1 0x1 ADD PUSH2 0x11FA JUMP JUMPDEST PUSH1 0x5 SLOAD PUSH1 0x1 PUSH1 0x1 PUSH1 0xA0 SHL SUB AND CALLER SUB PUSH2 0x1230 JUMPI JUMP JUMPDEST PUSH1 0x64 PUSH1 0x40 MLOAD PUSH3 0x461BCD PUSH1 0xE5 SHL DUP2 MSTORE PUSH1 0x20 PUSH1 0x4 DUP3 ADD MSTORE PUSH1 0x20 PUSH1 0x24 DUP3 ADD MSTORE PUSH32 0x4F776E61626C653A2063616C6C6572206973206E6F7420746865206F776E6572 PUSH1 0x44 DUP3 ADD MSTORE REVERT JUMPDEST PUSH1 0x5 DUP1 SLOAD PUSH1 0x1 PUSH1 0x1 PUSH1 0xA0 SHL SUB SWAP3 DUP4 AND PUSH1 0x1 PUSH1 0x1 PUSH1 0xA0 SHL SUB NOT DUP3 AND DUP2 OR SWAP1 SWAP3 SSTORE SWAP1 SWAP2 AND PUSH32 0x8BE0079C531659141344CD1FD0A4F28419497F9722A3DAAFE3B4186F6B6457E0 PUSH1 0x0 DUP1 LOG3 JUMP JUMPDEST SWAP2 SWAP1 DUP3 ADD DUP1 SWAP3 GT PUSH2 0x12CA JUMPI JUMP JUMPDEST PUSH4 0x4E487B71 PUSH1 0xE0 SHL PUSH1 0x0 MSTORE PUSH1 0x11 PUSH1 0x4 MSTORE PUSH1 0x24 PUSH1 0x0 REVERT JUMPDEST PUSH1 0x1 PUSH1 0x1 PUSH1 0xA0 SHL SUB SWAP1 DUP2 AND SWAP2 DUP3 ISZERO PUSH2 0x1391 JUMPI AND SWAP2 DUP3 ISZERO PUSH2 0x1341 JUMPI PUSH1 0x20 PUSH32 0x8C5BE1E5EBEC7D5BD14F71427D1E84F3DD0314C0F7B2291E5B200AC8C7C3B925 SWAP2 DUP4 PUSH1 0x0 MSTORE PUSH1 0x1 DUP3 MSTORE PUSH1 0x40 PUSH1 0x0 KECCAK256 DUP6 PUSH1 0x0 MSTORE DUP3 MSTORE DUP1 PUSH1 0x40 PUSH1 0x0 KECCAK256 SSTORE PUSH1 0x40 MLOAD SWAP1 DUP2 MSTORE LOG3 JUMP JUMPDEST PUSH1 0x40 MLOAD PUSH3 0x461BCD PUSH1 0xE5 SHL DUP2 MSTORE PUSH1 0x20 PUSH1 0x4 DUP3 ADD MSTORE PUSH1 0x22 PUSH1 0x24 DUP3 ADD MSTORE PUSH32 0x45524332303A20617070726F766520746F20746865207A65726F206164647265 PUSH1 0x44 DUP3 ADD MSTORE PUSH2 0x7373 PUSH1 0xF0 SHL PUSH1 0x64 DUP3 ADD MSTORE PUSH1 0x84 SWAP1 REVERT JUMPDEST PUSH1 0x40 MLOAD PUSH3 0x461BCD PUSH1 0xE5 SHL DUP2 MSTORE PUSH1 0x20 PUSH1 0x4 DUP3 ADD MSTORE PUSH1 0x24 DUP1 DUP3 ADD MSTORE PUSH32 0x45524332303A20617070726F76652066726F6D20746865207A65726F20616464 PUSH1 0x44 DUP3 ADD MSTORE PUSH4 0x72657373 PUSH1 0xE0 SHL PUSH1 0x64 DUP3 ADD MSTORE PUSH1 0x84 SWAP1 REVERT JUMPDEST ISZERO PUSH2 0x13E9 JUMPI JUMP JUMPDEST PUSH1 0x40 MLOAD PUSH3 0x461BCD PUSH1 0xE5 SHL DUP2 MSTORE PUSH1 0x20 PUSH1 0x4 DUP3 ADD MSTORE PUSH1 0x23 PUSH1 0x24 DUP3 ADD MSTORE PUSH32 0x536861726520616D6F756E74206D757374206265206772656174657220746861 PUSH1 0x44 DUP3 ADD MSTORE PUSH3 0x6E203 PUSH1 0xEC SHL PUSH1 0x64 DUP3 ADD MSTORE PUSH1 0x84 SWAP1 REVERT JUMPDEST DUP2 DUP2 MUL SWAP3 SWAP2 DUP2 ISZERO SWAP2 DUP5 DIV EQ OR ISZERO PUSH2 0x12CA JUMPI JUMP JUMPDEST PUSH1 0x2 PUSH1 0x6 SLOAD EQ PUSH2 0x145E JUMPI PUSH1 0x2 PUSH1 0x6 SSTORE JUMP JUMPDEST PUSH1 0x40 MLOAD PUSH3 0x461BCD PUSH1 0xE5 SHL DUP2 MSTORE PUSH1 0x20 PUSH1 0x4 DUP3 ADD MSTORE PUSH1 0x1F PUSH1 0x24 DUP3 ADD MSTORE PUSH32 0x5265656E7472616E637947756172643A207265656E7472616E742063616C6C00 PUSH1 0x44 DUP3 ADD MSTORE PUSH1 0x64 SWAP1 REVERT JUMPDEST ISZERO PUSH2 0x14AA JUMPI JUMP JUMPDEST PUSH1 0x40 MLOAD PUSH3 0x461BCD PUSH1 0xE5 SHL DUP2 MSTORE PUSH1 0x20 PUSH1 0x4 DUP3 ADD MSTORE PUSH1 0x13 PUSH1 0x24 DUP3 ADD MSTORE PUSH19 0x496E73756666696369656E7420736861726573 PUSH1 0x68 SHL PUSH1 0x44 DUP3 ADD MSTORE PUSH1 0x64 SWAP1 REVERT JUMPDEST SWAP2 SWAP1 DUP3 SUB SWAP2 DUP3 GT PUSH2 0x12CA JUMPI JUMP JUMPDEST PUSH1 0x0 NOT DUP2 EQ PUSH2 0x12CA JUMPI PUSH1 0x1 ADD SWAP1 JUMP JUMPDEST PUSH1 0x1 DUP1 PUSH1 0xA0 SHL SUB DUP1 PUSH1 0x5 SLOAD AND SWAP1 PUSH1 0x0 SWAP3 DUP3 DUP5 MSTORE PUSH1 0xC SWAP1 PUSH1 0x20 SWAP1 DUP3 DUP3 MSTORE PUSH1 0x40 SWAP5 DUP2 DUP7 DUP9 KECCAK256 SLOAD LT ISZERO PUSH2 0x15B0 JUMPI POP PUSH1 0xD SLOAD SWAP5 DUP7 JUMPDEST DUP7 DUP2 LT PUSH2 0x1543 JUMPI POP POP POP POP POP POP POP SWAP1 JUMP JUMPDEST PUSH2 0x154C DUP2 PUSH2 0x1078 JUMP JUMPDEST SWAP1 SLOAD PUSH1 0x3 SWAP2 DUP3 SHL SHR DUP8 AND CALLER EQ ISZERO DUP1 PUSH2 0x158D JUMPI JUMPDEST PUSH2 0x1572 JUMPI POP PUSH2 0x156D SWAP1 PUSH2 0x14F2 JUMP JUMPDEST PUSH2 0x1532 JUMP JUMPDEST SWAP7 POP SWAP4 POP POP POP POP PUSH2 0x1584 SWAP2 SWAP4 POP PUSH2 0x1078 JUMP JUMPDEST SWAP1 SLOAD SWAP2 SHL SHR AND SWAP1 JUMP JUMPDEST POP DUP7 PUSH2 0x1598 DUP4 PUSH2 0x1078 JUMP JUMPDEST SWAP1 SLOAD SWAP1 DUP4 SHL SHR AND DUP10 MSTORE DUP6 DUP6 MSTORE DUP4 DUP4 DUP11 KECCAK256 SLOAD LT ISZERO PUSH2 0x155F JUMP JUMPDEST SWAP6 POP POP POP POP POP POP SWAP1 JUMP JUMPDEST SWAP1 SWAP3 SWAP2 PUSH1 0x1 DUP1 PUSH1 0xA0 SHL SUB SWAP1 DUP2 DUP4 AND SWAP1 PUSH1 0x0 SWAP3 DUP3 DUP5 MSTORE PUSH1 0xC PUSH1 0x20 MSTORE PUSH1 0x40 DUP5 KECCAK256 PUSH2 0x15E3 DUP4 DUP3 SLOAD PUSH2 0x14E5 JUMP JUMPDEST SWAP1 SSTORE DUP7 AND DUP1 DUP5 MSTORE PUSH1 0xC PUSH1 0x20 MSTORE PUSH1 0x40 DUP5 KECCAK256 SLOAD ISZERO PUSH2 0x1631 JUMPI JUMPDEST PUSH1 0x40 SWAP5 SWAP6 SWAP7 POP DUP4 MSTORE PUSH1 0xC PUSH1 0x20 MSTORE PUSH2 0x1615 DUP5 DUP5 KECCAK256 SWAP2 DUP3 SLOAD PUSH2 0x12BD JUMP JUMPDEST SWAP1 SSTORE DUP2 MSTORE PUSH1 0xC PUSH1 0x20 MSTORE KECCAK256 SLOAD ISZERO PUSH2 0x1628 JUMPI POP JUMP JUMPDEST PUSH2 0x1149 SWAP1 PUSH2 0x1699 JUMP JUMPDEST PUSH1 0xD SLOAD PUSH9 0x10000000000000000 DUP2 LT ISZERO PUSH2 0x1685 JUMPI PUSH1 0x40 SWAP6 SWAP7 SWAP8 PUSH2 0x165D DUP3 PUSH1 0x1 PUSH2 0x167C SWAP5 ADD PUSH1 0xD SSTORE PUSH2 0x1078 JUMP JUMPDEST SWAP1 SWAP2 SWAP1 DUP3 SLOAD SWAP1 PUSH1 0x3 SHL SWAP2 PUSH1 0x1 DUP1 PUSH1 0xA0 SHL SUB DUP1 SWAP2 AND DUP4 SHL SWAP3 SHL NOT AND OR SWAP1 SSTORE JUMP JUMPDEST DUP7 SWAP6 SWAP5 POP PUSH2 0x15FA JUMP JUMPDEST PUSH4 0x4E487B71 PUSH1 0xE0 SHL DUP6 MSTORE PUSH1 0x41 PUSH1 0x4 MSTORE PUSH1 0x24 DUP6 REVERT JUMPDEST PUSH1 0x0 SWAP1 JUMPDEST PUSH1 0xD SWAP2 DUP3 SLOAD SWAP3 DUP4 DUP3 LT ISZERO PUSH2 0x174D JUMPI PUSH2 0x16B4 DUP3 PUSH2 0x1078 JUMP JUMPDEST SWAP1 SLOAD PUSH1 0x3 SWAP6 PUSH1 0x1 PUSH1 0x1 PUSH1 0xA0 SHL SUB SWAP3 SWAP1 SWAP2 SWAP1 DUP8 SHL SHR DUP3 AND DUP6 DUP4 AND EQ PUSH2 0x16E6 JUMPI POP POP POP PUSH2 0x16E0 SWAP2 SWAP3 POP PUSH2 0x14F2 JUMP JUMPDEST SWAP1 PUSH2 0x169D JUMP JUMPDEST SWAP2 SWAP4 POP SWAP2 PUSH1 0x0 NOT SWAP2 DUP3 DUP2 ADD SWAP2 SWAP1 DUP3 GT PUSH2 0x12CA JUMPI PUSH2 0x165D DUP5 PUSH2 0x1709 PUSH2 0x1716 SWAP5 PUSH2 0x1078 JUMP JUMPDEST SWAP1 SLOAD SWAP1 DUP10 SHL SHR AND SWAP2 PUSH2 0x1078 JUMP JUMPDEST DUP3 SLOAD DUP1 ISZERO PUSH2 0x1737 JUMPI ADD SWAP3 PUSH2 0x1729 DUP5 PUSH2 0x1078 JUMP JUMPDEST DUP2 SWAP4 SWAP2 SLOAD SWAP3 SHL SHL NOT AND SWAP1 SSTORE SSTORE JUMP JUMPDEST PUSH4 0x4E487B71 PUSH1 0xE0 SHL PUSH1 0x0 MSTORE PUSH1 0x31 PUSH1 0x4 MSTORE PUSH1 0x24 PUSH1 0x0 REVERT JUMPDEST POP POP POP POP JUMP JUMPDEST DUP2 ISZERO PUSH2 0x175D JUMPI DIV SWAP1 JUMP JUMPDEST PUSH4 0x4E487B71 PUSH1 0xE0 SHL PUSH1 0x0 MSTORE PUSH1 0x12 PUSH1 0x4 MSTORE PUSH1 0x24 PUSH1 0x0 REVERT JUMPDEST PUSH1 0x5 SLOAD PUSH1 0x2 SLOAD PUSH1 0x1 PUSH1 0x1 PUSH1 0xA0 SHL SUB SWAP2 DUP3 AND SWAP1 PUSH8 0xDE0B6B3A7640000 SWAP1 DIV PUSH1 0x0 JUMPDEST PUSH1 0xD SLOAD DUP2 LT ISZERO PUSH2 0x174D JUMPI DUP4 PUSH2 0x17A7 DUP3 PUSH2 0x1078 JUMP JUMPDEST SWAP1 SLOAD SWAP1 PUSH1 0x3 SHL SHR AND DUP4 DUP2 SUB PUSH2 0x17C6 JUMPI JUMPDEST POP PUSH2 0x17C1 SWAP1 PUSH2 0x14F2 JUMP JUMPDEST PUSH2 0x1793 JUMP JUMPDEST DUP1 PUSH1 0x0 MSTORE PUSH1 0x20 PUSH1 0xC DUP2 MSTORE PUSH1 0x40 DUP1 PUSH1 0x0 KECCAK256 SLOAD PUSH1 0x64 SWAP1 DUP2 DUP2 MUL SWAP2 DUP2 DUP4 DIV EQ SWAP1 ISZERO OR ISZERO PUSH2 0x12CA JUMPI DUP6 PUSH2 0x17F4 SWAP2 PUSH2 0x1753 JUMP JUMPDEST SWAP1 PUSH1 0x32 DUP3 GT PUSH2 0x1805 JUMPI POP POP POP PUSH2 0x17B7 JUMP JUMPDEST SWAP3 SWAP7 POP SWAP3 POP SWAP3 POP PUSH32 0xFC8F2D6996E2B706FA4CFB81CB10A53534B07F2010B2488488508F8751F55375 SWAP4 POP PUSH2 0x1838 DUP6 PUSH2 0x1274 JUMP JUMPDEST MLOAD SWAP1 DUP2 MSTORE LOG2 JUMP JUMPDEST SWAP2 PUSH1 0x1 PUSH1 0x1 PUSH1 0xA0 SHL SUB DUP1 DUP5 AND DUP1 ISZERO DUP1 ISZERO SWAP3 SWAP1 PUSH2 0x19BA JUMPI DUP5 AND SWAP1 DUP2 ISZERO PUSH2 0x1969 JUMPI PUSH1 0x0 DUP2 DUP2 MSTORE DUP1 PUSH1 0x20 MSTORE PUSH1 0x40 DUP2 KECCAK256 SLOAD SWAP1 DUP6 DUP3 LT PUSH2 0x1915 JUMPI DUP6 PUSH1 0x40 SWAP3 DUP5 DUP4 MSTORE DUP3 PUSH1 0x20 MSTORE SUB DUP3 DUP3 KECCAK256 SSTORE DUP4 DUP2 MSTORE KECCAK256 DUP5 DUP2 SLOAD ADD SWAP1 SSTORE DUP2 DUP2 PUSH32 0xDDF252AD1BE2C89B69C2B068FC378DAA952BA7F163C4A11628F55A4DF523B3EF PUSH1 0x20 PUSH1 0x40 MLOAD DUP9 DUP2 MSTORE LOG3 DUP3 PUSH2 0x190C JUMPI JUMPDEST DUP3 PUSH2 0x1901 JUMPI JUMPDEST POP DUP2 PUSH2 0x18F6 JUMPI JUMPDEST POP PUSH2 0x18D7 JUMPI POP POP POP JUMP JUMPDEST PUSH8 0xDE0B6B3A7640000 SWAP1 DIV SWAP1 DUP2 PUSH2 0x18ED JUMPI POP POP POP JUMP JUMPDEST PUSH2 0x1149 SWAP3 PUSH2 0x15BA JUMP JUMPDEST SWAP1 POP ADDRESS EQ ISZERO CODESIZE PUSH2 0x18CD JUMP JUMPDEST ADDRESS EQ ISZERO SWAP2 POP CODESIZE PUSH2 0x18C6 JUMP JUMPDEST PUSH1 0x1 SWAP3 POP PUSH2 0x18C0 JUMP JUMPDEST PUSH1 0x40 MLOAD PUSH3 0x461BCD PUSH1 0xE5 SHL DUP2 MSTORE PUSH1 0x20 PUSH1 0x4 DUP3 ADD MSTORE PUSH1 0x26 PUSH1 0x24 DUP3 ADD MSTORE PUSH32 0x45524332303A207472616E7366657220616D6F756E7420657863656564732062 PUSH1 0x44 DUP3 ADD MSTORE PUSH6 0x616C616E6365 PUSH1 0xD0 SHL PUSH1 0x64 DUP3 ADD MSTORE PUSH1 0x84 SWAP1 REVERT JUMPDEST PUSH1 0x40 MLOAD PUSH3 0x461BCD PUSH1 0xE5 SHL DUP2 MSTORE PUSH1 0x20 PUSH1 0x4 DUP3 ADD MSTORE PUSH1 0x23 PUSH1 0x24 DUP3 ADD MSTORE PUSH32 0x45524332303A207472616E7366657220746F20746865207A65726F2061646472 PUSH1 0x44 DUP3 ADD MSTORE PUSH3 0x657373 PUSH1 0xE8 SHL PUSH1 0x64 DUP3 ADD MSTORE PUSH1 0x84 SWAP1 REVERT JUMPDEST PUSH1 0x40 MLOAD PUSH3 0x461BCD PUSH1 0xE5 SHL DUP2 MSTORE PUSH1 0x20 PUSH1 0x4 DUP3 ADD MSTORE PUSH1 0x25 PUSH1 0x24 DUP3 ADD MSTORE PUSH32 0x45524332303A207472616E736665722066726F6D20746865207A65726F206164 PUSH1 0x44 DUP3 ADD MSTORE PUSH5 0x6472657373 PUSH1 0xD8 SHL PUSH1 0x64 DUP3 ADD MSTORE PUSH1 0x84 SWAP1 REVERT JUMPDEST PUSH8 0xFFFFFFFFFFFFFFFF DUP2 GT PUSH2 0x10E7 JUMPI PUSH1 0x5 SHL PUSH1 0x20 ADD SWAP1 JUMP JUMPDEST SWAP1 PUSH2 0x1A2F DUP3 PUSH2 0x1A0D JUMP JUMPDEST PUSH2 0x1A3C PUSH1 0x40 MLOAD SWAP2 DUP3 PUSH2 0x10C5 JUMP JUMPDEST DUP3 DUP2 MSTORE DUP1 SWAP3 PUSH2 0x1A4D PUSH1 0x1F NOT SWAP2 PUSH2 0x1A0D JUMP JUMPDEST ADD SWAP1 PUSH1 0x20 CALLDATASIZE SWAP2 ADD CALLDATACOPY JUMP JUMPDEST DUP1 MLOAD DUP3 LT ISZERO PUSH2 0x10AF JUMPI PUSH1 0x20 SWAP2 PUSH1 0x5 SHL ADD ADD SWAP1 JUMP JUMPDEST PUSH8 0xDE0B6B3A7640000 PUSH1 0x2 SLOAD DIV SWAP1 DUP2 ISZERO PUSH2 0x1AB5 JUMPI PUSH1 0x1 DUP1 PUSH1 0xA0 SHL SUB AND PUSH1 0x0 MSTORE PUSH1 0xC PUSH1 0x20 MSTORE PUSH1 0x40 PUSH1 0x0 KECCAK256 SLOAD SWAP1 PUSH1 0x64 DUP3 MUL SWAP2 DUP1 DUP4 DIV PUSH1 0x64 EQ SWAP1 ISZERO OR ISZERO PUSH2 0x12CA JUMPI PUSH2 0x1AB2 SWAP2 PUSH2 0x1753 JUMP JUMPDEST SWAP1 JUMP JUMPDEST POP POP PUSH1 0x0 SWAP1 JUMP INVALID LOG2 PUSH5 0x6970667358 0x22 SLT KECCAK256 KECCAK256 0xA6 0xB1 GAS BLOCKHASH 0x49 SAR 0xB2 PUSH9 0xCC82DEBB6E69BE6BED DUP4 0xBA 0xBD 0x5C DUP16 ADDMOD MOD SUB PUSH29 0xE6D909281264736F6C6343000814003300000000000000000000000000 "},"gasEstimates":{"creation":{"codeDepositCost":"1379600","executionCost":"infinite","totalCost":"infinite"},"external":{"allowance(address,address)":"3164","approve(address,uint256)":"24384","balanceOf(address)":"2648","buyShares(uint256)":"infinite","creationTime()":"2849","decimals()":"303","decreaseAllowance(address,uint256)":"27130","getAvailableShares()":"infinite","getNFTInfo()":"infinite","getShareHolders()":"infinite","getTotalShares()":"2835","getUserSharePercentage(address)":"4987","increaseAllowance(address,uint256)":"26826","name()":"infinite","nftCollection()":"2496","nftMetadataURI()":"infinite","nftTokenId()":"2607","owner()":"2716","renounceOwnership()":"28323","sellShares(uint256,uint256)":"infinite","setSharePrice(uint256)":"25503","shareHolders(uint256)":"6875","sharePrice()":"2673","symbol()":"infinite","totalSupply()":"2343","transfer(address,uint256)":"infinite","transferFrom(address,address,uint256)":"infinite","transferOwnership(address)":"28871","transferShares(address,uint256)":"infinite","userShares(address)":"3044"},"internal":{"_checkOwnershipChange()":"infinite","_findShareSeller(uint256)":"infinite","_removeShareHolder(address)":"infinite","_transfer(address,address,uint256)":"infinite","_updateShareHolding(address,address,uint256)":"infinite"}},"methodIdentifiers":{"allowance(address,address)":"dd62ed3e","approve(address,uint256)":"095ea7b3","balanceOf(address)":"70a08231","buyShares(uint256)":"d1a93d18","creationTime()":"d8270dce","decimals()":"313ce567","decreaseAllowance(address,uint256)":"a457c2d7","getAvailableShares()":"817bc0cb","getNFTInfo()":"4d21e019","getShareHolders()":"8477d9f3","getTotalShares()":"d5002f2e","getUserSharePercentage(address)":"75cbf75d","increaseAllowance(address,uint256)":"39509351","name()":"06fdde03","nftCollection()":"6588103b","nftMetadataURI()":"7b85b132","nftTokenId()":"7e830574","owner()":"8da5cb5b","renounceOwnership()":"715018a6","sellShares(uint256,uint256)":"2279a970","setSharePrice(uint256)":"16b60249","shareHolders(uint256)":"7427a40c","sharePrice()":"87269729","symbol()":"95d89b41","totalSupply()":"18160ddd","transfer(address,uint256)":"a9059cbb","transferFrom(address,address,uint256)":"23b872dd","transferOwnership(address)":"f2fde38b","transferShares(address,uint256)":"8fcb4e5b","userShares(address)":"de69b3aa"}},"storageLayout":{"storage":[{"astId":221,"contract":"contracts/FractionalNFT.sol:FractionalNFT","label":"_balances","offset":0,"slot":"0","type":"t_mapping(t_address,t_uint256)"},{"astId":227,"contract":"contracts/FractionalNFT.sol:FractionalNFT","label":"_allowances","offset":0,"slot":"1","type":"t_mapping(t_address,t_mapping(t_address,t_uint256))"},{"astId":229,"contract":"contracts/FractionalNFT.sol:FractionalNFT","label":"_totalSupply","offset":0,"slot":"2","type":"t_uint256"},{"astId":231,"contract":"contracts/FractionalNFT.sol:FractionalNFT","label":"_name","offset":0,"slot":"3","type":"t_string_storage"},{"astId":233,"contract":"contracts/FractionalNFT.sol:FractionalNFT","label":"_symbol","offset":0,"slot":"4","type":"t_string_storage"},{"astId":7,"contract":"contracts/FractionalNFT.sol:FractionalNFT","label":"_owner","offset":0,"slot":"5","type":"t_address"},{"astId":151,"contract":"contracts/FractionalNFT.sol:FractionalNFT","label":"_status","offset":0,"slot":"6","type":"t_uint256"},{"astId":3823,"contract":"contracts/FractionalNFT.sol:FractionalNFT","label":"nftCollection","offset":0,"slot":"7","type":"t_address"},{"astId":3825,"contract":"contracts/FractionalNFT.sol:FractionalNFT","label":"nftTokenId","offset":0,"slot":"8","type":"t_uint256"},{"astId":3827,"contract":"contracts/FractionalNFT.sol:FractionalNFT","label":"sharePrice","offset":0,"slot":"9","type":"t_uint256"},{"astId":3829,"contract":"contracts/FractionalNFT.sol:FractionalNFT","label":"nftMetadataURI","offset":0,"slot":"10","type":"t_string_storage"},{"astId":3831,"contract":"contracts/FractionalNFT.sol:FractionalNFT","label":"creationTime","offset":0,"slot":"11","type":"t_uint256"},{"astId":3835,"contract":"contracts/FractionalNFT.sol:FractionalNFT","label":"userShares","offset":0,"slot":"12","type":"t_mapping(t_address,t_uint256)"},{"astId":3838,"contract":"contracts/FractionalNFT.sol:FractionalNFT","label":"shareHolders","offset":0,"slot":"13","type":"t_array(t_address)dyn_storage"}],"types":{"t_address":{"encoding":"inplace","label":"address","numberOfBytes":"20"},"t_array(t_address)dyn_storage":{"base":"t_address","encoding":"dynamic_array","label":"address[]","numberOfBytes":"32"},"t_mapping(t_address,t_mapping(t_address,t_uint256))":{"encoding":"mapping","key":"t_address","label":"mapping(address => mapping(address => uint256))","numberOfBytes":"32","value":"t_mapping(t_address,t_uint256)"},"t_mapping(t_address,t_uint256)":{"encoding":"mapping","key":"t_address","label":"mapping(address => uint256)","numberOfBytes":"32","value":"t_uint256"},"t_string_storage":{"encoding":"bytes","label":"string","numberOfBytes":"32"},"t_uint256":{"encoding":"inplace","label":"uint256","numberOfBytes":"32"}}},"userdoc":{"kind":"user","methods":{},"version":1}}}}