{"contracts/NFTFactoryView.sol":{"NFTFactoryView":{"abi":[{"inputs":[{"internalType":"address","name":"_factory","type":"address"}],"stateMutability":"nonpayable","type":"constructor"},{"inputs":[],"name":"factory","outputs":[{"internalType":"contract NFTFactory","name":"","type":"address"}],"stateMutability":"view","type":"function"},{"inputs":[],"name":"getAllFractionalizedNFTs","outputs":[{"components":[{"internalType":"uint256","name":"collectionId","type":"uint256"},{"internalType":"address","name":"collectionAddress","type":"address"},{"internalType":"uint256","name":"tokenId","type":"uint256"},{"internalType":"address","name":"fractionalContract","type":"address"},{"internalType":"uint256","name":"userShares","type":"uint256"},{"internalType":"uint256","name":"totalShares","type":"uint256"},{"internalType":"uint256","name":"sharePercentage","type":"uint256"},{"internalType":"string","name":"metadataURI","type":"string"},{"internalType":"bool","name":"isOwner","type":"bool"}],"internalType":"struct NFTFactoryView.UserNFTInfo[]","name":"","type":"tuple[]"}],"stateMutability":"view","type":"function"},{"inputs":[{"internalType":"address","name":"collectionAddress","type":"address"}],"name":"getCollectionNFTs","outputs":[{"components":[{"internalType":"uint256","name":"tokenId","type":"uint256"},{"internalType":"address","name":"fractionalContract","type":"address"},{"internalType":"string","name":"metadataURI","type":"string"},{"internalType":"uint256","name":"totalShares","type":"uint256"},{"internalType":"address","name":"currentOwner","type":"address"},{"internalType":"uint256","name":"sharePrice","type":"uint256"},{"internalType":"bool","name":"isfractionalized","type":"bool"},{"internalType":"uint256","name":"creationTime","type":"uint256"}],"internalType":"struct NFTFactoryView.NFTInfo[]","name":"","type":"tuple[]"}],"stateMutability":"view","type":"function"},{"inputs":[],"name":"getCollectionsWithNFTInfo","outputs":[{"components":[{"internalType":"uint256","name":"collectionId","type":"uint256"},{"internalType":"string","name":"metadataURI","type":"string"},{"internalType":"address","name":"collectionAddress","type":"address"},{"internalType":"address","name":"owner","type":"address"},{"internalType":"uint256","name":"creationTime","type":"uint256"},{"internalType":"uint256","name":"nftCount","type":"uint256"},{"internalType":"uint256","name":"fractionalizedCount","type":"uint256"}],"internalType":"struct NFTFactoryView.CollectionNFTInfo[]","name":"","type":"tuple[]"}],"stateMutability":"view","type":"function"},{"inputs":[{"internalType":"address","name":"user","type":"address"}],"name":"getCollectionsWithUserShares","outputs":[{"components":[{"internalType":"uint256","name":"collectionId","type":"uint256"},{"internalType":"string","name":"metadataURI","type":"string"},{"internalType":"address","name":"collectionAddress","type":"address"},{"internalType":"address","name":"owner","type":"address"},{"internalType":"uint256","name":"creationTime","type":"uint256"}],"internalType":"struct NFTFactory.CollectionInfo[]","name":"","type":"tuple[]"}],"stateMutability":"view","type":"function"},{"inputs":[{"internalType":"address","name":"user","type":"address"}],"name":"getUserNFTShares","outputs":[{"components":[{"internalType":"uint256","name":"collectionId","type":"uint256"},{"internalType":"address","name":"collectionAddress","type":"address"},{"internalType":"uint256","name":"tokenId","type":"uint256"},{"internalType":"address","name":"fractionalContract","type":"address"},{"internalType":"uint256","name":"userShares","type":"uint256"},{"internalType":"uint256","name":"totalShares","type":"uint256"},{"internalType":"uint256","name":"sharePercentage","type":"uint256"},{"internalType":"string","name":"metadataURI","type":"string"},{"internalType":"bool","name":"isOwner","type":"bool"}],"internalType":"struct NFTFactoryView.UserNFTInfo[]","name":"","type":"tuple[]"}],"stateMutability":"view","type":"function"}],"devdoc":{"details":"View-only contract with heavy computation functions Separated from NFTFactory to solve contract size limits","kind":"dev","methods":{"getAllFractionalizedNFTs()":{"details":"Get all NFTs where shares exist (fractionalized NFTs)","returns":{"_0":"UserNFTInfo[] Array of all fractionalized NFTs"}},"getCollectionNFTs(address)":{"details":"Get all NFTs from a specific collection with their fractional info","params":{"collectionAddress":"Address of the collection contract"},"returns":{"_0":"NFTInfo[] Array of NFTs with fractional information"}},"getCollectionsWithNFTInfo()":{"details":"Get enhanced collection info with NFT statistics","returns":{"_0":"CollectionNFTInfo[] Array of collections with NFT counts"}},"getCollectionsWithUserShares(address)":{"details":"Get collections where user has any shares in NFTs","params":{"user":"Address of the user"},"returns":{"_0":"CollectionInfo[] Array of collections where user has shares"}},"getUserNFTShares(address)":{"details":"Get simplified list of NFTs where a user has shares","params":{"user":"Address of the user"},"returns":{"_0":"UserNFTInfo[] Array of NFTs where the user has shares"}}},"title":"NFTFactoryView","version":1},"evm":{"bytecode":{"linkReferences":{},"object":"60a0346100a357601f611fb138819003918201601f19168301916001600160401b038311848410176100a8578084926020946040528339810103126100a357516001600160a01b038116908190036100a357608052604051611ef290816100bf823960805181818160870152818161020801528181610266015281816107040152818161076a01528181610c0e01528181610e1901528181610e76015261136a0152f35b600080fd5b634e487b7160e01b600052604160045260246000fdfe608080604052600436101561001357600080fd5b60003560e01c908163402cca751461133f575080634765f4ea14610bd55780635ffab08814610733578063c45a0155146106ee578063c5864c3c146106095763f447d2b11461006157600080fd5b346104ba5760003660031901126104ba5760405163380a49af60e11b81526000816004817f00000000000000000000000000000000000000000000000000000000000000006001600160a01b03165afa90811561057f576000916105e6575b506000805b82518110156101b757600460006001600160a01b036100e48487611a0c565b51166040519283809263e0391b0960e01b82525afa60009181610192575b50610117575b50610112906119fd565b6100c5565b91909260005b83518110156101855760806101328286611a0c565b510151151580610165575b610150575b61014b906119fd565b61011d565b9161015d61014b916119fd565b929050610142565b506001600160a01b03606061017a8387611a0c565b51015116151561013d565b5092909150610112610108565b6101b09192503d806000833e6101a88183611865565b810190611905565b9038610102565b50906101c282611d95565b91600080935b83518510806105dd575b156105c9576001600160a01b036101e98686611a0c565b511660009460005b604051631c10106f60e01b815260209081816004817f00000000000000000000000000000000000000000000000000000000000000006001600160a01b03165afa91821561057f5760009261059b575b505081101561058b57604051630b43e78560e31b8152600481018290526000816024817f00000000000000000000000000000000000000000000000000000000000000006001600160a01b03165afa90811561057f5760009161055c575b50604001516001600160a01b03908116906102ba8a85611a0c565b5116146102cf576102ca906119fd565b6101f1565b6004919650600090979397925b60405163e0391b0960e01b815292839182905afa6000918161053f575b50610310575b505061030a906119fd565b936101c8565b90919592939460005b8251811080610536575b156105235760806103348285611a0c565b510151151580610503575b610352575b61034d906119fd565b610319565b94600090600460206001600160a01b03606061036e8b89611a0c565b5101511660405192838092636a80179760e11b82525afa600091816104cf575b506104c7575b50600460206001600160a01b0360606103ad8b89611a0c565b5101511660405192838092638da5cb5b60e01b82525afa61047f575b5061034d9161047791906001600160a01b036103e58c87611a0c565b5116906103f28a88611a0c565b5151906001600160a01b0360606104098d8b611a0c565b5101511660206104198d8b611a0c565b510151926040519461042a86611812565b8b86526020860152604085015260608401526000608084015260a0830152600060c083015260e082015260006101008201526104668289611a0c565b526104718188611a0c565b506119fd565b959050610344565b906020823d6020116104bf575b8161049960209383611865565b810103126104ba5761034d926104b1610477936118f1565b509250906103c9565b600080fd5b3d915061048c565b915038610394565b9091506020813d6020116104fb575b816104eb60209383611865565b810103126104ba5751903861038e565b3d91506104de565b506001600160a01b0360606105188386611a0c565b51015116151561033f565b5094939295905061030a915090386102ff565b50868610610323565b6105559192503d806000833e6101a88183611865565b90386102f9565b61057991503d806000833e6105718183611865565b810190611e97565b3861029f565b6040513d6000823e3d90fd5b50949060006004919793976102dc565b90809250813d83116105c2575b6105b28183611865565b810103126104ba57513880610241565b503d6105a8565b6105d99060405191829182611716565b0390f35b508282106101d2565b61060391503d806000833e6105fb8183611865565b810190611d14565b386100c0565b346104ba576020806003193601126104ba576001600160a01b039060043582811681036104ba5761063990611a36565b60405191808301818452825180915260408401918060408360051b8701019401926000965b83881061066b5786860387f35b90919293948380600192603f198a8203018652885190815181528583830151168382015260e0806106ab60408501516101008060408701528501906116f1565b936060808201519085015260808981830151169085015260a0808201519085015260c080820151151590850152015191015297019301970196909392919361065e565b346104ba5760003660031901126104ba576040517f00000000000000000000000000000000000000000000000000000000000000006001600160a01b03168152602090f35b346104ba576020806003193601126104ba576001600160a01b03600435818116908190036104ba5760405163380a49af60e11b81527f00000000000000000000000000000000000000000000000000000000000000008316929091600083600481875afa92831561057f57600093610bb8575b506000918351936107d56107b986611886565b956107c76040519788611865565b808752601f19918291611886565b01368988013760005b82518110156109735760046000856107f68487611a0c565b51166040519283809263e0391b0960e01b82525afa60009181610956575b50610829575b50610824906119fd565b6107de565b98939260009891985b8a5181101561094757808686608061084b8f9586611a0c565b51015115158061092e575b61086c575b505061086791506119fd565b610832565b606061087b8460249596611a0c565b5101511660405192838092636f34d9d560e11b82528c60048301525afa600091816108ff575b506108b1575b508a90868661085b565b6108bb578b6108a7565b5092939850966108cb8188611a0c565b51156108dd575b610824905b9061081a565b946108f76108249160016108f1898b611a0c565b526119fd565b9590506108d2565b9091508781813d8311610927575b6109178183611865565b810103126104ba5751908d6108a1565b503d61090d565b5080606061093c8587611a0c565b510151161515610856565b509293985096610824906108d7565b61096c9192503d806000833e6101a88183611865565b908b610814565b50939590925061098286611886565b936109906040519586611865565b86855261099c87611886565b018760005b828110610b815750505060009460005b8451811080610b78575b15610ae0576109ca8183611a0c565b516109de575b6109d9906119fd565b6109b1565b9660005b604051631c10106f60e01b81528a81600481885afa90811561057f57600091610ab3575b50811015610aa857604051630b43e78560e31b815260048101829052600081602481885afa90811561057f57600091610a8d575b508560408201511686610a4d8c8a611a0c565b511614610a635750610a5e906119fd565b6109e2565b610a849150976109d9929998610a79828a611a0c565b526104718189611a0c565b965b90506109d0565b610aa291503d806000833e6105718183611865565b8b610a3a565b50966109d990610a86565b90508a81813d8311610ad9575b610aca8183611865565b810103126104ba57518b610a06565b503d610ac0565b83898760405191808301818452825180915260408401918060408360051b8701019401926000965b838810610b155786860387f35b90919293948380600192603f198a820301865288519081518152610b458383015160a080868501528301906116f1565b91866040820151166040830152606087818301511690830152608080910151910152970193019701969093929193610b08565b508787106109bb565b604051610b8d8161182e565b60008152600060608085840152816040840152820152600060808201528282890101520188906109a1565b610bce9193503d806000833e6105fb8183611865565b91856107a6565b346104ba5760203660031901126104ba576004356001600160a01b03811681036104ba5760405163380a49af60e11b81526000816004817f00000000000000000000000000000000000000000000000000000000000000006001600160a01b03165afa90811561057f57600091611324575b506000805b8251811015610dc957600460006001600160a01b03610c6b8487611a0c565b51166040519283809263e0391b0960e01b82525afa60009181610dac575b50610c9e575b50610c99906119fd565b610c4c565b909260005b8251811015610da0576080610cb88285611a0c565b510151151580610d80575b610cd6575b610cd1906119fd565b610ca3565b602460206001600160a01b036060610cee8588611a0c565b510151604051636f34d9d560e11b81526001600160a01b038b16600482015293849290918391165afa60009181610d4c575b50610d2c575b50610cc8565b610d37575b86610d26565b92610d44610cd1916119fd565b939050610d31565b9091506020813d602011610d78575b81610d6860209383611865565b810103126104ba57519088610d20565b3d9150610d5b565b506001600160a01b036060610d958386611a0c565b510151161515610cc3565b50929050610c99610c8f565b610dc29192503d806000833e6101a88183611865565b9086610c89565b50610dd381611d95565b6000906000945b845186108061131b575b1561130d576001600160a01b03610dfb8787611a0c565b51169060009560005b604051631c10106f60e01b81526020816004817f00000000000000000000000000000000000000000000000000000000000000006001600160a01b03165afa90811561057f576000916112db575b508110156112cc57604051630b43e78560e31b8152600481018290526000816024817f00000000000000000000000000000000000000000000000000000000000000006001600160a01b03165afa90811561057f576000916112b1575b50604001516001600160a01b0390811690610eca8b85611a0c565b511614610edf57610eda906119fd565b610e04565b9197909650916004906000905b60405163e0391b0960e01b815292839182905afa60009181611294575b50610f20575b5050610f1a906119fd565b94610dda565b909293949560009792975b825181108061128b575b1561127a576080610f468285611a0c565b51015115158061125a575b610f64575b610f5f906119fd565b610f2b565b88602460206001600160a01b036060610f7d8689611a0c565b510151604051636f34d9d560e11b81526001600160a01b038a16600482015293849290918391165afa60009181611223575b50610fbc575b5050610f56565b8015610fb55790828793999260008091886000956004602060018060a01b036060610fe78a87611a0c565b5101511660405192838092636a80179760e11b82525afa600091816111e5575b5061116a575b50600460206001600160a01b0360606110268a87611a0c565b5101511660405192838092638da5cb5b60e01b82525afa6000918161110c575b5091610f5f9a979593916110ec9a999795936110f6575b506001600160a01b0390611071908d611a0c565b51169460206110a46110838385611a0c565b5151926001600160a01b03606061109a8388611a0c565b5101511694611a0c565b51015195604051986110b58a611812565b8952602089015260408801526060870152608086015260a085015260c084015260e08301521515610100820152610a79828a611a0c565b969050888a610fb5565b6001600160a01b038f811691161496503861105d565b97509499505050509493916020843d602011611162575b8161113060209383611865565b810103126104ba57610f5f968f968a8f94986110ec998f98611151906118f1565b929496989b50909294969899611046565b3d9150611123565b945094505095505080898c83159485156000146111d85750505060649286848102048414871517156111c2576111ac5785888f938e958d9902045b933861100d565b634e487b7160e01b600052601260045260246000fd5b634e487b7160e01b600052601160045260246000fd5b93509350958860006111a5565b9a5096505050506020873d60201161121b575b8161120560209383611865565b810103126104ba57888f8e958d99519038611007565b3d91506111f8565b925090506020823d602011611252575b8161124060209383611865565b810103126104ba578a9151908c610faf565b3d9150611233565b506001600160a01b03606061126f8386611a0c565b510151161515610f51565b5095949392505094610f1a87610f0f565b50878710610f35565b6112aa9192503d806000833e6101a88183611865565b9089610f09565b6112c691503d806000833e6105718183611865565b8a610eaf565b50959096916000600491610eec565b90506020813d602011611305575b816112f660209383611865565b810103126104ba57518a610e52565b3d91506112e9565b604051806105d98482611716565b50838310610de4565b61133991503d806000833e6105fb8183611865565b82610c47565b346104ba5760003660031901126104ba57630d00952b60e31b81526001600160a01b036000826004817f000000000000000000000000000000000000000000000000000000000000000085165afa91821561057f57600092611621575b508151916113a983611886565b926113b76040519485611865565b8084526113c6601f1991611886565b0160005b8181106115da57505060005b815181101561152c57600080600460008660406113f38789611a0c565b510151166040519283809263e0391b0960e01b82525afa6000918161150f575b506114b7575b5090829161142a6114b29486611a0c565b5151916020848161143b828a611a0c565b510151818a604061144c838d611a0c565b510151168b8b61145f6060948592611a0c565b51015116928b6114726080968792611a0c565b51015195604051996114838b6117e1565b8a52890152604088015286015284015260a083015260c08201526114a78287611a0c565b526104718186611a0c565b6113d6565b809692509390935160005b87518110156115025760806114d7828a611a0c565b5101516114ed575b6114e8906119fd565b6114c2565b946114fa6114e8916119fd565b9590506114df565b50919550926114b2611419565b6115259192503d806000833e6101a88183611865565b9088611413565b8284604051906020808301818452825180915260408401918060408360051b8701019401926000965b8388106115625786860387f35b90919293948380600192603f198a8203018652885190815181526115938383015160e08584015260e08301906116f1565b918660408201511660408301526060878183015116908301526080808201519083015260a0808201519083015260c080910151910152970193019701969093929193611555565b6020906040516115e9816117e1565b60008152606060008491808385015281604085015283015260006080830152600060a0830152600060c08301528288010152016113ca565b9091503d806000833e6116348183611865565b810160209081838203126104ba5782516001600160401b03938482116104ba570181601f820112156104ba57805161166b81611886565b946116796040519687611865565b818652848087019260051b840101938085116104ba57858401925b8584106116a95750505050505050908261139c565b83518381116104ba5787916116c3848480948a0101611e25565b815201930192611694565b60005b8381106116e15750506000910152565b81810151838201526020016116d1565b9060209161170a815180928185528580860191016116ce565b601f01601f1916010190565b602080820190808352835180925260409283810182858560051b8401019601946000925b85841061174b575050505050505090565b909192939495968580600192603f198582030187528a519081518152848060a01b038084840151168483015287830151888301526060908184015116908201526080808301519082015260a0808301519082015260c080830151908201526117c360e0808401519061012080918501528301906116f1565b9161010080910151151591015299019401940192959493919061173a565b60e081019081106001600160401b038211176117fc57604052565b634e487b7160e01b600052604160045260246000fd5b61012081019081106001600160401b038211176117fc57604052565b60a081019081106001600160401b038211176117fc57604052565b61010081019081106001600160401b038211176117fc57604052565b90601f801991011681019081106001600160401b038211176117fc57604052565b6001600160401b0381116117fc5760051b60200190565b81601f820112156104ba5780516001600160401b0381116117fc57604051926118d0601f8301601f191660200185611865565b818452602082840101116104ba576118ee91602080850191016116ce565b90565b51906001600160a01b03821682036104ba57565b60209081818403126104ba5780516001600160401b03918282116104ba57019083601f830112156104ba57815161193b81611886565b9460409261194b84519788611865565b828752858088019360051b860101948286116104ba57868101935b86851061197857505050505050505090565b84518381116104ba57820160a09182601f1983880301126104ba5787519261199f8461182e565b8a8301518452888301518681116104ba57878c6119be9286010161189d565b8b850152606092838101518a8601526080936119db8583016118f1565b9086015201519283151584036104ba578a938493820152815201940193611966565b60001981146111c25760010190565b8051821015611a205760209160051b010190565b634e487b7160e01b600052603260045260246000fd5b604090815163e0391b0960e01b81526000916004918381848160018060a01b038096165afa849181611cf8575b50611a9e57505082519260208401918483106001600160401b03841117611a8b575052815290565b634e487b7160e01b845260419052602483fd5b9190929493825192611aaf84611886565b93611abc83519586611865565b808552611acb601f1991611886565b01875b818110611cb3575050865b8151811015611ca95780611aee879284611a0c565b516080908181019081511515808091611c9a575b15611c6c57508b60609384830194898b848a895116835192838092634d21e01960e01b82525afa998a869287908892611bf4575b50611b9d9c611ba25750509050849291508551975116956020968c8888015192511515970151978d5199611b698b611849565b8a528901528b8801528601528401528b60a084015260c083015260e0820152611b928288611a0c565b526104718187611a0c565b611ad9565b939850939196908095965081519951166020898184015193015199519a611bc88c611849565b8b528a01528c890152870152169084015260a0830152600160c083015260e0820152611b928288611a0c565b9450505050503d8085833e611c098183611865565b81019060e081830312611c6857611c1f816118f1565b508b8101516001600160401b038111611c64578f909a611c458e94611b9d9d850161189d565b5084830151611c5a60a08886015195016118f1565b909390919c611b36565b8580fd5b8480fd5b909150611b9d94508b8251938160608d8187015116956020968c88830151920151978d5199611b698b611849565b50856060830151161515611b02565b5092955050505050565b6020908451611cc181611849565b8a8152828b818301528b606080898501528301528b60808301528b60a08301528b60c08301528b60e0830152828901015201611ace565b611d0d9192503d8087833e6101a88183611865565b9038611a63565b60209081818403126104ba578051906001600160401b0382116104ba57019180601f840112156104ba578251611d4981611886565b93611d576040519586611865565b818552838086019260051b8201019283116104ba578301905b828210611d7e575050505090565b838091611d8a846118f1565b815201910190611d70565b90611d9f82611886565b604090611dae82519182611865565b8381528093611dbf601f1991611886565b019160005b838110611dd15750505050565b6020908251611ddf81611812565b6000815282600081830152600085830152606060008184015260006080840152600060a0840152600060c084015260e08301526000610100830152828601015201611dc4565b91909160a0818403126104ba5760405190611e3f8261182e565b8193815183526020820151916001600160401b0383116104ba57611e69608093928493830161189d565b6020850152611e7a604082016118f1565b6040850152611e8b606082016118f1565b60608501520151910152565b906020828203126104ba5781516001600160401b0381116104ba576118ee9201611e2556fea2646970667358221220f8508f94aeff8c928a91e312c121c48cc2b5d3fd8dc2714ac472c040232879da64736f6c63430008140033","opcodes":"PUSH1 0xA0 CALLVALUE PUSH2 0xA3 JUMPI PUSH1 0x1F PUSH2 0x1FB1 CODESIZE DUP2 SWAP1 SUB SWAP2 DUP3 ADD PUSH1 0x1F NOT AND DUP4 ADD SWAP2 PUSH1 0x1 PUSH1 0x1 PUSH1 0x40 SHL SUB DUP4 GT DUP5 DUP5 LT OR PUSH2 0xA8 JUMPI DUP1 DUP5 SWAP3 PUSH1 0x20 SWAP5 PUSH1 0x40 MSTORE DUP4 CODECOPY DUP2 ADD SUB SLT PUSH2 0xA3 JUMPI MLOAD PUSH1 0x1 PUSH1 0x1 PUSH1 0xA0 SHL SUB DUP2 AND SWAP1 DUP2 SWAP1 SUB PUSH2 0xA3 JUMPI PUSH1 0x80 MSTORE PUSH1 0x40 MLOAD PUSH2 0x1EF2 SWAP1 DUP2 PUSH2 0xBF DUP3 CODECOPY PUSH1 0x80 MLOAD DUP2 DUP2 DUP2 PUSH1 0x87 ADD MSTORE DUP2 DUP2 PUSH2 0x208 ADD MSTORE DUP2 DUP2 PUSH2 0x266 ADD MSTORE DUP2 DUP2 PUSH2 0x704 ADD MSTORE DUP2 DUP2 PUSH2 0x76A ADD MSTORE DUP2 DUP2 PUSH2 0xC0E ADD MSTORE DUP2 DUP2 PUSH2 0xE19 ADD MSTORE DUP2 DUP2 PUSH2 0xE76 ADD MSTORE PUSH2 0x136A ADD MSTORE RETURN JUMPDEST PUSH1 0x0 DUP1 REVERT JUMPDEST PUSH4 0x4E487B71 PUSH1 0xE0 SHL PUSH1 0x0 MSTORE PUSH1 0x41 PUSH1 0x4 MSTORE PUSH1 0x24 PUSH1 0x0 REVERT INVALID PUSH1 0x80 DUP1 PUSH1 0x40 MSTORE PUSH1 0x4 CALLDATASIZE LT ISZERO PUSH2 0x13 JUMPI PUSH1 0x0 DUP1 REVERT JUMPDEST PUSH1 0x0 CALLDATALOAD PUSH1 0xE0 SHR SWAP1 DUP2 PUSH4 0x402CCA75 EQ PUSH2 0x133F JUMPI POP DUP1 PUSH4 0x4765F4EA EQ PUSH2 0xBD5 JUMPI DUP1 PUSH4 0x5FFAB088 EQ PUSH2 0x733 JUMPI DUP1 PUSH4 0xC45A0155 EQ PUSH2 0x6EE JUMPI DUP1 PUSH4 0xC5864C3C EQ PUSH2 0x609 JUMPI PUSH4 0xF447D2B1 EQ PUSH2 0x61 JUMPI PUSH1 0x0 DUP1 REVERT JUMPDEST CALLVALUE PUSH2 0x4BA JUMPI PUSH1 0x0 CALLDATASIZE PUSH1 0x3 NOT ADD SLT PUSH2 0x4BA JUMPI PUSH1 0x40 MLOAD PUSH4 0x380A49AF PUSH1 0xE1 SHL DUP2 MSTORE PUSH1 0x0 DUP2 PUSH1 0x4 DUP2 PUSH32 0x0 PUSH1 0x1 PUSH1 0x1 PUSH1 0xA0 SHL SUB AND GAS STATICCALL SWAP1 DUP2 ISZERO PUSH2 0x57F JUMPI PUSH1 0x0 SWAP2 PUSH2 0x5E6 JUMPI JUMPDEST POP PUSH1 0x0 DUP1 JUMPDEST DUP3 MLOAD DUP2 LT ISZERO PUSH2 0x1B7 JUMPI PUSH1 0x4 PUSH1 0x0 PUSH1 0x1 PUSH1 0x1 PUSH1 0xA0 SHL SUB PUSH2 0xE4 DUP5 DUP8 PUSH2 0x1A0C JUMP JUMPDEST MLOAD AND PUSH1 0x40 MLOAD SWAP3 DUP4 DUP1 SWAP3 PUSH4 0xE0391B09 PUSH1 0xE0 SHL DUP3 MSTORE GAS STATICCALL PUSH1 0x0 SWAP2 DUP2 PUSH2 0x192 JUMPI JUMPDEST POP PUSH2 0x117 JUMPI JUMPDEST POP PUSH2 0x112 SWAP1 PUSH2 0x19FD JUMP JUMPDEST PUSH2 0xC5 JUMP JUMPDEST SWAP2 SWAP1 SWAP3 PUSH1 0x0 JUMPDEST DUP4 MLOAD DUP2 LT ISZERO PUSH2 0x185 JUMPI PUSH1 0x80 PUSH2 0x132 DUP3 DUP7 PUSH2 0x1A0C JUMP JUMPDEST MLOAD ADD MLOAD ISZERO ISZERO DUP1 PUSH2 0x165 JUMPI JUMPDEST PUSH2 0x150 JUMPI JUMPDEST PUSH2 0x14B SWAP1 PUSH2 0x19FD JUMP JUMPDEST PUSH2 0x11D JUMP JUMPDEST SWAP2 PUSH2 0x15D PUSH2 0x14B SWAP2 PUSH2 0x19FD JUMP JUMPDEST SWAP3 SWAP1 POP PUSH2 0x142 JUMP JUMPDEST POP PUSH1 0x1 PUSH1 0x1 PUSH1 0xA0 SHL SUB PUSH1 0x60 PUSH2 0x17A DUP4 DUP8 PUSH2 0x1A0C JUMP JUMPDEST MLOAD ADD MLOAD AND ISZERO ISZERO PUSH2 0x13D JUMP JUMPDEST POP SWAP3 SWAP1 SWAP2 POP PUSH2 0x112 PUSH2 0x108 JUMP JUMPDEST PUSH2 0x1B0 SWAP2 SWAP3 POP RETURNDATASIZE DUP1 PUSH1 0x0 DUP4 RETURNDATACOPY PUSH2 0x1A8 DUP2 DUP4 PUSH2 0x1865 JUMP JUMPDEST DUP2 ADD SWAP1 PUSH2 0x1905 JUMP JUMPDEST SWAP1 CODESIZE PUSH2 0x102 JUMP JUMPDEST POP SWAP1 PUSH2 0x1C2 DUP3 PUSH2 0x1D95 JUMP JUMPDEST SWAP2 PUSH1 0x0 DUP1 SWAP4 JUMPDEST DUP4 MLOAD DUP6 LT DUP1 PUSH2 0x5DD JUMPI JUMPDEST ISZERO PUSH2 0x5C9 JUMPI PUSH1 0x1 PUSH1 0x1 PUSH1 0xA0 SHL SUB PUSH2 0x1E9 DUP7 DUP7 PUSH2 0x1A0C JUMP JUMPDEST MLOAD AND PUSH1 0x0 SWAP5 PUSH1 0x0 JUMPDEST PUSH1 0x40 MLOAD PUSH4 0x1C10106F PUSH1 0xE0 SHL DUP2 MSTORE PUSH1 0x20 SWAP1 DUP2 DUP2 PUSH1 0x4 DUP2 PUSH32 0x0 PUSH1 0x1 PUSH1 0x1 PUSH1 0xA0 SHL SUB AND GAS STATICCALL SWAP2 DUP3 ISZERO PUSH2 0x57F JUMPI PUSH1 0x0 SWAP3 PUSH2 0x59B JUMPI JUMPDEST POP POP DUP2 LT ISZERO PUSH2 0x58B JUMPI PUSH1 0x40 MLOAD PUSH4 0xB43E785 PUSH1 0xE3 SHL DUP2 MSTORE PUSH1 0x4 DUP2 ADD DUP3 SWAP1 MSTORE PUSH1 0x0 DUP2 PUSH1 0x24 DUP2 PUSH32 0x0 PUSH1 0x1 PUSH1 0x1 PUSH1 0xA0 SHL SUB AND GAS STATICCALL SWAP1 DUP2 ISZERO PUSH2 0x57F JUMPI PUSH1 0x0 SWAP2 PUSH2 0x55C JUMPI JUMPDEST POP PUSH1 0x40 ADD MLOAD PUSH1 0x1 PUSH1 0x1 PUSH1 0xA0 SHL SUB SWAP1 DUP2 AND SWAP1 PUSH2 0x2BA DUP11 DUP6 PUSH2 0x1A0C JUMP JUMPDEST MLOAD AND EQ PUSH2 0x2CF JUMPI PUSH2 0x2CA SWAP1 PUSH2 0x19FD JUMP JUMPDEST PUSH2 0x1F1 JUMP JUMPDEST PUSH1 0x4 SWAP2 SWAP7 POP PUSH1 0x0 SWAP1 SWAP8 SWAP4 SWAP8 SWAP3 JUMPDEST PUSH1 0x40 MLOAD PUSH4 0xE0391B09 PUSH1 0xE0 SHL DUP2 MSTORE SWAP3 DUP4 SWAP2 DUP3 SWAP1 GAS STATICCALL PUSH1 0x0 SWAP2 DUP2 PUSH2 0x53F JUMPI JUMPDEST POP PUSH2 0x310 JUMPI JUMPDEST POP POP PUSH2 0x30A SWAP1 PUSH2 0x19FD JUMP JUMPDEST SWAP4 PUSH2 0x1C8 JUMP JUMPDEST SWAP1 SWAP2 SWAP6 SWAP3 SWAP4 SWAP5 PUSH1 0x0 JUMPDEST DUP3 MLOAD DUP2 LT DUP1 PUSH2 0x536 JUMPI JUMPDEST ISZERO PUSH2 0x523 JUMPI PUSH1 0x80 PUSH2 0x334 DUP3 DUP6 PUSH2 0x1A0C JUMP JUMPDEST MLOAD ADD MLOAD ISZERO ISZERO DUP1 PUSH2 0x503 JUMPI JUMPDEST PUSH2 0x352 JUMPI JUMPDEST PUSH2 0x34D SWAP1 PUSH2 0x19FD JUMP JUMPDEST PUSH2 0x319 JUMP JUMPDEST SWAP5 PUSH1 0x0 SWAP1 PUSH1 0x4 PUSH1 0x20 PUSH1 0x1 PUSH1 0x1 PUSH1 0xA0 SHL SUB PUSH1 0x60 PUSH2 0x36E DUP12 DUP10 PUSH2 0x1A0C JUMP JUMPDEST MLOAD ADD MLOAD AND PUSH1 0x40 MLOAD SWAP3 DUP4 DUP1 SWAP3 PUSH4 0x6A801797 PUSH1 0xE1 SHL DUP3 MSTORE GAS STATICCALL PUSH1 0x0 SWAP2 DUP2 PUSH2 0x4CF JUMPI JUMPDEST POP PUSH2 0x4C7 JUMPI JUMPDEST POP PUSH1 0x4 PUSH1 0x20 PUSH1 0x1 PUSH1 0x1 PUSH1 0xA0 SHL SUB PUSH1 0x60 PUSH2 0x3AD DUP12 DUP10 PUSH2 0x1A0C JUMP JUMPDEST MLOAD ADD MLOAD AND PUSH1 0x40 MLOAD SWAP3 DUP4 DUP1 SWAP3 PUSH4 0x8DA5CB5B PUSH1 0xE0 SHL DUP3 MSTORE GAS STATICCALL PUSH2 0x47F JUMPI JUMPDEST POP PUSH2 0x34D SWAP2 PUSH2 0x477 SWAP2 SWAP1 PUSH1 0x1 PUSH1 0x1 PUSH1 0xA0 SHL SUB PUSH2 0x3E5 DUP13 DUP8 PUSH2 0x1A0C JUMP JUMPDEST MLOAD AND SWAP1 PUSH2 0x3F2 DUP11 DUP9 PUSH2 0x1A0C JUMP JUMPDEST MLOAD MLOAD SWAP1 PUSH1 0x1 PUSH1 0x1 PUSH1 0xA0 SHL SUB PUSH1 0x60 PUSH2 0x409 DUP14 DUP12 PUSH2 0x1A0C JUMP JUMPDEST MLOAD ADD MLOAD AND PUSH1 0x20 PUSH2 0x419 DUP14 DUP12 PUSH2 0x1A0C JUMP JUMPDEST MLOAD ADD MLOAD SWAP3 PUSH1 0x40 MLOAD SWAP5 PUSH2 0x42A DUP7 PUSH2 0x1812 JUMP JUMPDEST DUP12 DUP7 MSTORE PUSH1 0x20 DUP7 ADD MSTORE PUSH1 0x40 DUP6 ADD MSTORE PUSH1 0x60 DUP5 ADD MSTORE PUSH1 0x0 PUSH1 0x80 DUP5 ADD MSTORE PUSH1 0xA0 DUP4 ADD MSTORE PUSH1 0x0 PUSH1 0xC0 DUP4 ADD MSTORE PUSH1 0xE0 DUP3 ADD MSTORE PUSH1 0x0 PUSH2 0x100 DUP3 ADD MSTORE PUSH2 0x466 DUP3 DUP10 PUSH2 0x1A0C JUMP JUMPDEST MSTORE PUSH2 0x471 DUP2 DUP9 PUSH2 0x1A0C JUMP JUMPDEST POP PUSH2 0x19FD JUMP JUMPDEST SWAP6 SWAP1 POP PUSH2 0x344 JUMP JUMPDEST SWAP1 PUSH1 0x20 DUP3 RETURNDATASIZE PUSH1 0x20 GT PUSH2 0x4BF JUMPI JUMPDEST DUP2 PUSH2 0x499 PUSH1 0x20 SWAP4 DUP4 PUSH2 0x1865 JUMP JUMPDEST DUP2 ADD SUB SLT PUSH2 0x4BA JUMPI PUSH2 0x34D SWAP3 PUSH2 0x4B1 PUSH2 0x477 SWAP4 PUSH2 0x18F1 JUMP JUMPDEST POP SWAP3 POP SWAP1 PUSH2 0x3C9 JUMP JUMPDEST PUSH1 0x0 DUP1 REVERT JUMPDEST RETURNDATASIZE SWAP2 POP PUSH2 0x48C JUMP JUMPDEST SWAP2 POP CODESIZE PUSH2 0x394 JUMP JUMPDEST SWAP1 SWAP2 POP PUSH1 0x20 DUP2 RETURNDATASIZE PUSH1 0x20 GT PUSH2 0x4FB JUMPI JUMPDEST DUP2 PUSH2 0x4EB PUSH1 0x20 SWAP4 DUP4 PUSH2 0x1865 JUMP JUMPDEST DUP2 ADD SUB SLT PUSH2 0x4BA JUMPI MLOAD SWAP1 CODESIZE PUSH2 0x38E JUMP JUMPDEST RETURNDATASIZE SWAP2 POP PUSH2 0x4DE JUMP JUMPDEST POP PUSH1 0x1 PUSH1 0x1 PUSH1 0xA0 SHL SUB PUSH1 0x60 PUSH2 0x518 DUP4 DUP7 PUSH2 0x1A0C JUMP JUMPDEST MLOAD ADD MLOAD AND ISZERO ISZERO PUSH2 0x33F JUMP JUMPDEST POP SWAP5 SWAP4 SWAP3 SWAP6 SWAP1 POP PUSH2 0x30A SWAP2 POP SWAP1 CODESIZE PUSH2 0x2FF JUMP JUMPDEST POP DUP7 DUP7 LT PUSH2 0x323 JUMP JUMPDEST PUSH2 0x555 SWAP2 SWAP3 POP RETURNDATASIZE DUP1 PUSH1 0x0 DUP4 RETURNDATACOPY PUSH2 0x1A8 DUP2 DUP4 PUSH2 0x1865 JUMP JUMPDEST SWAP1 CODESIZE PUSH2 0x2F9 JUMP JUMPDEST PUSH2 0x579 SWAP2 POP RETURNDATASIZE DUP1 PUSH1 0x0 DUP4 RETURNDATACOPY PUSH2 0x571 DUP2 DUP4 PUSH2 0x1865 JUMP JUMPDEST DUP2 ADD SWAP1 PUSH2 0x1E97 JUMP JUMPDEST CODESIZE PUSH2 0x29F JUMP JUMPDEST PUSH1 0x40 MLOAD RETURNDATASIZE PUSH1 0x0 DUP3 RETURNDATACOPY RETURNDATASIZE SWAP1 REVERT JUMPDEST POP SWAP5 SWAP1 PUSH1 0x0 PUSH1 0x4 SWAP2 SWAP8 SWAP4 SWAP8 PUSH2 0x2DC JUMP JUMPDEST SWAP1 DUP1 SWAP3 POP DUP2 RETURNDATASIZE DUP4 GT PUSH2 0x5C2 JUMPI JUMPDEST PUSH2 0x5B2 DUP2 DUP4 PUSH2 0x1865 JUMP JUMPDEST DUP2 ADD SUB SLT PUSH2 0x4BA JUMPI MLOAD CODESIZE DUP1 PUSH2 0x241 JUMP JUMPDEST POP RETURNDATASIZE PUSH2 0x5A8 JUMP JUMPDEST PUSH2 0x5D9 SWAP1 PUSH1 0x40 MLOAD SWAP2 DUP3 SWAP2 DUP3 PUSH2 0x1716 JUMP JUMPDEST SUB SWAP1 RETURN JUMPDEST POP DUP3 DUP3 LT PUSH2 0x1D2 JUMP JUMPDEST PUSH2 0x603 SWAP2 POP RETURNDATASIZE DUP1 PUSH1 0x0 DUP4 RETURNDATACOPY PUSH2 0x5FB DUP2 DUP4 PUSH2 0x1865 JUMP JUMPDEST DUP2 ADD SWAP1 PUSH2 0x1D14 JUMP JUMPDEST CODESIZE PUSH2 0xC0 JUMP JUMPDEST CALLVALUE PUSH2 0x4BA JUMPI PUSH1 0x20 DUP1 PUSH1 0x3 NOT CALLDATASIZE ADD SLT PUSH2 0x4BA JUMPI PUSH1 0x1 PUSH1 0x1 PUSH1 0xA0 SHL SUB SWAP1 PUSH1 0x4 CALLDATALOAD DUP3 DUP2 AND DUP2 SUB PUSH2 0x4BA JUMPI PUSH2 0x639 SWAP1 PUSH2 0x1A36 JUMP JUMPDEST PUSH1 0x40 MLOAD SWAP2 DUP1 DUP4 ADD DUP2 DUP5 MSTORE DUP3 MLOAD DUP1 SWAP2 MSTORE PUSH1 0x40 DUP5 ADD SWAP2 DUP1 PUSH1 0x40 DUP4 PUSH1 0x5 SHL DUP8 ADD ADD SWAP5 ADD SWAP3 PUSH1 0x0 SWAP7 JUMPDEST DUP4 DUP9 LT PUSH2 0x66B JUMPI DUP7 DUP7 SUB DUP8 RETURN JUMPDEST SWAP1 SWAP2 SWAP3 SWAP4 SWAP5 DUP4 DUP1 PUSH1 0x1 SWAP3 PUSH1 0x3F NOT DUP11 DUP3 SUB ADD DUP7 MSTORE DUP9 MLOAD SWAP1 DUP2 MLOAD DUP2 MSTORE DUP6 DUP4 DUP4 ADD MLOAD AND DUP4 DUP3 ADD MSTORE PUSH1 0xE0 DUP1 PUSH2 0x6AB PUSH1 0x40 DUP6 ADD MLOAD PUSH2 0x100 DUP1 PUSH1 0x40 DUP8 ADD MSTORE DUP6 ADD SWAP1 PUSH2 0x16F1 JUMP JUMPDEST SWAP4 PUSH1 0x60 DUP1 DUP3 ADD MLOAD SWAP1 DUP6 ADD MSTORE PUSH1 0x80 DUP10 DUP2 DUP4 ADD MLOAD AND SWAP1 DUP6 ADD MSTORE PUSH1 0xA0 DUP1 DUP3 ADD MLOAD SWAP1 DUP6 ADD MSTORE PUSH1 0xC0 DUP1 DUP3 ADD MLOAD ISZERO ISZERO SWAP1 DUP6 ADD MSTORE ADD MLOAD SWAP2 ADD MSTORE SWAP8 ADD SWAP4 ADD SWAP8 ADD SWAP7 SWAP1 SWAP4 SWAP3 SWAP2 SWAP4 PUSH2 0x65E JUMP JUMPDEST CALLVALUE PUSH2 0x4BA JUMPI PUSH1 0x0 CALLDATASIZE PUSH1 0x3 NOT ADD SLT PUSH2 0x4BA JUMPI PUSH1 0x40 MLOAD PUSH32 0x0 PUSH1 0x1 PUSH1 0x1 PUSH1 0xA0 SHL SUB AND DUP2 MSTORE PUSH1 0x20 SWAP1 RETURN JUMPDEST CALLVALUE PUSH2 0x4BA JUMPI PUSH1 0x20 DUP1 PUSH1 0x3 NOT CALLDATASIZE ADD SLT PUSH2 0x4BA JUMPI PUSH1 0x1 PUSH1 0x1 PUSH1 0xA0 SHL SUB PUSH1 0x4 CALLDATALOAD DUP2 DUP2 AND SWAP1 DUP2 SWAP1 SUB PUSH2 0x4BA JUMPI PUSH1 0x40 MLOAD PUSH4 0x380A49AF PUSH1 0xE1 SHL DUP2 MSTORE PUSH32 0x0 DUP4 AND SWAP3 SWAP1 SWAP2 PUSH1 0x0 DUP4 PUSH1 0x4 DUP2 DUP8 GAS STATICCALL SWAP3 DUP4 ISZERO PUSH2 0x57F JUMPI PUSH1 0x0 SWAP4 PUSH2 0xBB8 JUMPI JUMPDEST POP PUSH1 0x0 SWAP2 DUP4 MLOAD SWAP4 PUSH2 0x7D5 PUSH2 0x7B9 DUP7 PUSH2 0x1886 JUMP JUMPDEST SWAP6 PUSH2 0x7C7 PUSH1 0x40 MLOAD SWAP8 DUP9 PUSH2 0x1865 JUMP JUMPDEST DUP1 DUP8 MSTORE PUSH1 0x1F NOT SWAP2 DUP3 SWAP2 PUSH2 0x1886 JUMP JUMPDEST ADD CALLDATASIZE DUP10 DUP9 ADD CALLDATACOPY PUSH1 0x0 JUMPDEST DUP3 MLOAD DUP2 LT ISZERO PUSH2 0x973 JUMPI PUSH1 0x4 PUSH1 0x0 DUP6 PUSH2 0x7F6 DUP5 DUP8 PUSH2 0x1A0C JUMP JUMPDEST MLOAD AND PUSH1 0x40 MLOAD SWAP3 DUP4 DUP1 SWAP3 PUSH4 0xE0391B09 PUSH1 0xE0 SHL DUP3 MSTORE GAS STATICCALL PUSH1 0x0 SWAP2 DUP2 PUSH2 0x956 JUMPI JUMPDEST POP PUSH2 0x829 JUMPI JUMPDEST POP PUSH2 0x824 SWAP1 PUSH2 0x19FD JUMP JUMPDEST PUSH2 0x7DE JUMP JUMPDEST SWAP9 SWAP4 SWAP3 PUSH1 0x0 SWAP9 SWAP2 SWAP9 JUMPDEST DUP11 MLOAD DUP2 LT ISZERO PUSH2 0x947 JUMPI DUP1 DUP7 DUP7 PUSH1 0x80 PUSH2 0x84B DUP16 SWAP6 DUP7 PUSH2 0x1A0C JUMP JUMPDEST MLOAD ADD MLOAD ISZERO ISZERO DUP1 PUSH2 0x92E JUMPI JUMPDEST PUSH2 0x86C JUMPI JUMPDEST POP POP PUSH2 0x867 SWAP2 POP PUSH2 0x19FD JUMP JUMPDEST PUSH2 0x832 JUMP JUMPDEST PUSH1 0x60 PUSH2 0x87B DUP5 PUSH1 0x24 SWAP6 SWAP7 PUSH2 0x1A0C JUMP JUMPDEST MLOAD ADD MLOAD AND PUSH1 0x40 MLOAD SWAP3 DUP4 DUP1 SWAP3 PUSH4 0x6F34D9D5 PUSH1 0xE1 SHL DUP3 MSTORE DUP13 PUSH1 0x4 DUP4 ADD MSTORE GAS STATICCALL PUSH1 0x0 SWAP2 DUP2 PUSH2 0x8FF JUMPI JUMPDEST POP PUSH2 0x8B1 JUMPI JUMPDEST POP DUP11 SWAP1 DUP7 DUP7 PUSH2 0x85B JUMP JUMPDEST PUSH2 0x8BB JUMPI DUP12 PUSH2 0x8A7 JUMP JUMPDEST POP SWAP3 SWAP4 SWAP9 POP SWAP7 PUSH2 0x8CB DUP2 DUP9 PUSH2 0x1A0C JUMP JUMPDEST MLOAD ISZERO PUSH2 0x8DD JUMPI JUMPDEST PUSH2 0x824 SWAP1 JUMPDEST SWAP1 PUSH2 0x81A JUMP JUMPDEST SWAP5 PUSH2 0x8F7 PUSH2 0x824 SWAP2 PUSH1 0x1 PUSH2 0x8F1 DUP10 DUP12 PUSH2 0x1A0C JUMP JUMPDEST MSTORE PUSH2 0x19FD JUMP JUMPDEST SWAP6 SWAP1 POP PUSH2 0x8D2 JUMP JUMPDEST SWAP1 SWAP2 POP DUP8 DUP2 DUP2 RETURNDATASIZE DUP4 GT PUSH2 0x927 JUMPI JUMPDEST PUSH2 0x917 DUP2 DUP4 PUSH2 0x1865 JUMP JUMPDEST DUP2 ADD SUB SLT PUSH2 0x4BA JUMPI MLOAD SWAP1 DUP14 PUSH2 0x8A1 JUMP JUMPDEST POP RETURNDATASIZE PUSH2 0x90D JUMP JUMPDEST POP DUP1 PUSH1 0x60 PUSH2 0x93C DUP6 DUP8 PUSH2 0x1A0C JUMP JUMPDEST MLOAD ADD MLOAD AND ISZERO ISZERO PUSH2 0x856 JUMP JUMPDEST POP SWAP3 SWAP4 SWAP9 POP SWAP7 PUSH2 0x824 SWAP1 PUSH2 0x8D7 JUMP JUMPDEST PUSH2 0x96C SWAP2 SWAP3 POP RETURNDATASIZE DUP1 PUSH1 0x0 DUP4 RETURNDATACOPY PUSH2 0x1A8 DUP2 DUP4 PUSH2 0x1865 JUMP JUMPDEST SWAP1 DUP12 PUSH2 0x814 JUMP JUMPDEST POP SWAP4 SWAP6 SWAP1 SWAP3 POP PUSH2 0x982 DUP7 PUSH2 0x1886 JUMP JUMPDEST SWAP4 PUSH2 0x990 PUSH1 0x40 MLOAD SWAP6 DUP7 PUSH2 0x1865 JUMP JUMPDEST DUP7 DUP6 MSTORE PUSH2 0x99C DUP8 PUSH2 0x1886 JUMP JUMPDEST ADD DUP8 PUSH1 0x0 JUMPDEST DUP3 DUP2 LT PUSH2 0xB81 JUMPI POP POP POP PUSH1 0x0 SWAP5 PUSH1 0x0 JUMPDEST DUP5 MLOAD DUP2 LT DUP1 PUSH2 0xB78 JUMPI JUMPDEST ISZERO PUSH2 0xAE0 JUMPI PUSH2 0x9CA DUP2 DUP4 PUSH2 0x1A0C JUMP JUMPDEST MLOAD PUSH2 0x9DE JUMPI JUMPDEST PUSH2 0x9D9 SWAP1 PUSH2 0x19FD JUMP JUMPDEST PUSH2 0x9B1 JUMP JUMPDEST SWAP7 PUSH1 0x0 JUMPDEST PUSH1 0x40 MLOAD PUSH4 0x1C10106F PUSH1 0xE0 SHL DUP2 MSTORE DUP11 DUP2 PUSH1 0x4 DUP2 DUP9 GAS STATICCALL SWAP1 DUP2 ISZERO PUSH2 0x57F JUMPI PUSH1 0x0 SWAP2 PUSH2 0xAB3 JUMPI JUMPDEST POP DUP2 LT ISZERO PUSH2 0xAA8 JUMPI PUSH1 0x40 MLOAD PUSH4 0xB43E785 PUSH1 0xE3 SHL DUP2 MSTORE PUSH1 0x4 DUP2 ADD DUP3 SWAP1 MSTORE PUSH1 0x0 DUP2 PUSH1 0x24 DUP2 DUP9 GAS STATICCALL SWAP1 DUP2 ISZERO PUSH2 0x57F JUMPI PUSH1 0x0 SWAP2 PUSH2 0xA8D JUMPI JUMPDEST POP DUP6 PUSH1 0x40 DUP3 ADD MLOAD AND DUP7 PUSH2 0xA4D DUP13 DUP11 PUSH2 0x1A0C JUMP JUMPDEST MLOAD AND EQ PUSH2 0xA63 JUMPI POP PUSH2 0xA5E SWAP1 PUSH2 0x19FD JUMP JUMPDEST PUSH2 0x9E2 JUMP JUMPDEST PUSH2 0xA84 SWAP2 POP SWAP8 PUSH2 0x9D9 SWAP3 SWAP10 SWAP9 PUSH2 0xA79 DUP3 DUP11 PUSH2 0x1A0C JUMP JUMPDEST MSTORE PUSH2 0x471 DUP2 DUP10 PUSH2 0x1A0C JUMP JUMPDEST SWAP7 JUMPDEST SWAP1 POP PUSH2 0x9D0 JUMP JUMPDEST PUSH2 0xAA2 SWAP2 POP RETURNDATASIZE DUP1 PUSH1 0x0 DUP4 RETURNDATACOPY PUSH2 0x571 DUP2 DUP4 PUSH2 0x1865 JUMP JUMPDEST DUP12 PUSH2 0xA3A JUMP JUMPDEST POP SWAP7 PUSH2 0x9D9 SWAP1 PUSH2 0xA86 JUMP JUMPDEST SWAP1 POP DUP11 DUP2 DUP2 RETURNDATASIZE DUP4 GT PUSH2 0xAD9 JUMPI JUMPDEST PUSH2 0xACA DUP2 DUP4 PUSH2 0x1865 JUMP JUMPDEST DUP2 ADD SUB SLT PUSH2 0x4BA JUMPI MLOAD DUP12 PUSH2 0xA06 JUMP JUMPDEST POP RETURNDATASIZE PUSH2 0xAC0 JUMP JUMPDEST DUP4 DUP10 DUP8 PUSH1 0x40 MLOAD SWAP2 DUP1 DUP4 ADD DUP2 DUP5 MSTORE DUP3 MLOAD DUP1 SWAP2 MSTORE PUSH1 0x40 DUP5 ADD SWAP2 DUP1 PUSH1 0x40 DUP4 PUSH1 0x5 SHL DUP8 ADD ADD SWAP5 ADD SWAP3 PUSH1 0x0 SWAP7 JUMPDEST DUP4 DUP9 LT PUSH2 0xB15 JUMPI DUP7 DUP7 SUB DUP8 RETURN JUMPDEST SWAP1 SWAP2 SWAP3 SWAP4 SWAP5 DUP4 DUP1 PUSH1 0x1 SWAP3 PUSH1 0x3F NOT DUP11 DUP3 SUB ADD DUP7 MSTORE DUP9 MLOAD SWAP1 DUP2 MLOAD DUP2 MSTORE PUSH2 0xB45 DUP4 DUP4 ADD MLOAD PUSH1 0xA0 DUP1 DUP7 DUP6 ADD MSTORE DUP4 ADD SWAP1 PUSH2 0x16F1 JUMP JUMPDEST SWAP2 DUP7 PUSH1 0x40 DUP3 ADD MLOAD AND PUSH1 0x40 DUP4 ADD MSTORE PUSH1 0x60 DUP8 DUP2 DUP4 ADD MLOAD AND SWAP1 DUP4 ADD MSTORE PUSH1 0x80 DUP1 SWAP2 ADD MLOAD SWAP2 ADD MSTORE SWAP8 ADD SWAP4 ADD SWAP8 ADD SWAP7 SWAP1 SWAP4 SWAP3 SWAP2 SWAP4 PUSH2 0xB08 JUMP JUMPDEST POP DUP8 DUP8 LT PUSH2 0x9BB JUMP JUMPDEST PUSH1 0x40 MLOAD PUSH2 0xB8D DUP2 PUSH2 0x182E JUMP JUMPDEST PUSH1 0x0 DUP2 MSTORE PUSH1 0x0 PUSH1 0x60 DUP1 DUP6 DUP5 ADD MSTORE DUP2 PUSH1 0x40 DUP5 ADD MSTORE DUP3 ADD MSTORE PUSH1 0x0 PUSH1 0x80 DUP3 ADD MSTORE DUP3 DUP3 DUP10 ADD ADD MSTORE ADD DUP9 SWAP1 PUSH2 0x9A1 JUMP JUMPDEST PUSH2 0xBCE SWAP2 SWAP4 POP RETURNDATASIZE DUP1 PUSH1 0x0 DUP4 RETURNDATACOPY PUSH2 0x5FB DUP2 DUP4 PUSH2 0x1865 JUMP JUMPDEST SWAP2 DUP6 PUSH2 0x7A6 JUMP JUMPDEST CALLVALUE PUSH2 0x4BA JUMPI PUSH1 0x20 CALLDATASIZE PUSH1 0x3 NOT ADD SLT PUSH2 0x4BA JUMPI PUSH1 0x4 CALLDATALOAD PUSH1 0x1 PUSH1 0x1 PUSH1 0xA0 SHL SUB DUP2 AND DUP2 SUB PUSH2 0x4BA JUMPI PUSH1 0x40 MLOAD PUSH4 0x380A49AF PUSH1 0xE1 SHL DUP2 MSTORE PUSH1 0x0 DUP2 PUSH1 0x4 DUP2 PUSH32 0x0 PUSH1 0x1 PUSH1 0x1 PUSH1 0xA0 SHL SUB AND GAS STATICCALL SWAP1 DUP2 ISZERO PUSH2 0x57F JUMPI PUSH1 0x0 SWAP2 PUSH2 0x1324 JUMPI JUMPDEST POP PUSH1 0x0 DUP1 JUMPDEST DUP3 MLOAD DUP2 LT ISZERO PUSH2 0xDC9 JUMPI PUSH1 0x4 PUSH1 0x0 PUSH1 0x1 PUSH1 0x1 PUSH1 0xA0 SHL SUB PUSH2 0xC6B DUP5 DUP8 PUSH2 0x1A0C JUMP JUMPDEST MLOAD AND PUSH1 0x40 MLOAD SWAP3 DUP4 DUP1 SWAP3 PUSH4 0xE0391B09 PUSH1 0xE0 SHL DUP3 MSTORE GAS STATICCALL PUSH1 0x0 SWAP2 DUP2 PUSH2 0xDAC JUMPI JUMPDEST POP PUSH2 0xC9E JUMPI JUMPDEST POP PUSH2 0xC99 SWAP1 PUSH2 0x19FD JUMP JUMPDEST PUSH2 0xC4C JUMP JUMPDEST SWAP1 SWAP3 PUSH1 0x0 JUMPDEST DUP3 MLOAD DUP2 LT ISZERO PUSH2 0xDA0 JUMPI PUSH1 0x80 PUSH2 0xCB8 DUP3 DUP6 PUSH2 0x1A0C JUMP JUMPDEST MLOAD ADD MLOAD ISZERO ISZERO DUP1 PUSH2 0xD80 JUMPI JUMPDEST PUSH2 0xCD6 JUMPI JUMPDEST PUSH2 0xCD1 SWAP1 PUSH2 0x19FD JUMP JUMPDEST PUSH2 0xCA3 JUMP JUMPDEST PUSH1 0x24 PUSH1 0x20 PUSH1 0x1 PUSH1 0x1 PUSH1 0xA0 SHL SUB PUSH1 0x60 PUSH2 0xCEE DUP6 DUP9 PUSH2 0x1A0C JUMP JUMPDEST MLOAD ADD MLOAD PUSH1 0x40 MLOAD PUSH4 0x6F34D9D5 PUSH1 0xE1 SHL DUP2 MSTORE PUSH1 0x1 PUSH1 0x1 PUSH1 0xA0 SHL SUB DUP12 AND PUSH1 0x4 DUP3 ADD MSTORE SWAP4 DUP5 SWAP3 SWAP1 SWAP2 DUP4 SWAP2 AND GAS STATICCALL PUSH1 0x0 SWAP2 DUP2 PUSH2 0xD4C JUMPI JUMPDEST POP PUSH2 0xD2C JUMPI JUMPDEST POP PUSH2 0xCC8 JUMP JUMPDEST PUSH2 0xD37 JUMPI JUMPDEST DUP7 PUSH2 0xD26 JUMP JUMPDEST SWAP3 PUSH2 0xD44 PUSH2 0xCD1 SWAP2 PUSH2 0x19FD JUMP JUMPDEST SWAP4 SWAP1 POP PUSH2 0xD31 JUMP JUMPDEST SWAP1 SWAP2 POP PUSH1 0x20 DUP2 RETURNDATASIZE PUSH1 0x20 GT PUSH2 0xD78 JUMPI JUMPDEST DUP2 PUSH2 0xD68 PUSH1 0x20 SWAP4 DUP4 PUSH2 0x1865 JUMP JUMPDEST DUP2 ADD SUB SLT PUSH2 0x4BA JUMPI MLOAD SWAP1 DUP9 PUSH2 0xD20 JUMP JUMPDEST RETURNDATASIZE SWAP2 POP PUSH2 0xD5B JUMP JUMPDEST POP PUSH1 0x1 PUSH1 0x1 PUSH1 0xA0 SHL SUB PUSH1 0x60 PUSH2 0xD95 DUP4 DUP7 PUSH2 0x1A0C JUMP JUMPDEST MLOAD ADD MLOAD AND ISZERO ISZERO PUSH2 0xCC3 JUMP JUMPDEST POP SWAP3 SWAP1 POP PUSH2 0xC99 PUSH2 0xC8F JUMP JUMPDEST PUSH2 0xDC2 SWAP2 SWAP3 POP RETURNDATASIZE DUP1 PUSH1 0x0 DUP4 RETURNDATACOPY PUSH2 0x1A8 DUP2 DUP4 PUSH2 0x1865 JUMP JUMPDEST SWAP1 DUP7 PUSH2 0xC89 JUMP JUMPDEST POP PUSH2 0xDD3 DUP2 PUSH2 0x1D95 JUMP JUMPDEST PUSH1 0x0 SWAP1 PUSH1 0x0 SWAP5 JUMPDEST DUP5 MLOAD DUP7 LT DUP1 PUSH2 0x131B JUMPI JUMPDEST ISZERO PUSH2 0x130D JUMPI PUSH1 0x1 PUSH1 0x1 PUSH1 0xA0 SHL SUB PUSH2 0xDFB DUP8 DUP8 PUSH2 0x1A0C JUMP JUMPDEST MLOAD AND SWAP1 PUSH1 0x0 SWAP6 PUSH1 0x0 JUMPDEST PUSH1 0x40 MLOAD PUSH4 0x1C10106F PUSH1 0xE0 SHL DUP2 MSTORE PUSH1 0x20 DUP2 PUSH1 0x4 DUP2 PUSH32 0x0 PUSH1 0x1 PUSH1 0x1 PUSH1 0xA0 SHL SUB AND GAS STATICCALL SWAP1 DUP2 ISZERO PUSH2 0x57F JUMPI PUSH1 0x0 SWAP2 PUSH2 0x12DB JUMPI JUMPDEST POP DUP2 LT ISZERO PUSH2 0x12CC JUMPI PUSH1 0x40 MLOAD PUSH4 0xB43E785 PUSH1 0xE3 SHL DUP2 MSTORE PUSH1 0x4 DUP2 ADD DUP3 SWAP1 MSTORE PUSH1 0x0 DUP2 PUSH1 0x24 DUP2 PUSH32 0x0 PUSH1 0x1 PUSH1 0x1 PUSH1 0xA0 SHL SUB AND GAS STATICCALL SWAP1 DUP2 ISZERO PUSH2 0x57F JUMPI PUSH1 0x0 SWAP2 PUSH2 0x12B1 JUMPI JUMPDEST POP PUSH1 0x40 ADD MLOAD PUSH1 0x1 PUSH1 0x1 PUSH1 0xA0 SHL SUB SWAP1 DUP2 AND SWAP1 PUSH2 0xECA DUP12 DUP6 PUSH2 0x1A0C JUMP JUMPDEST MLOAD AND EQ PUSH2 0xEDF JUMPI PUSH2 0xEDA SWAP1 PUSH2 0x19FD JUMP JUMPDEST PUSH2 0xE04 JUMP JUMPDEST SWAP2 SWAP8 SWAP1 SWAP7 POP SWAP2 PUSH1 0x4 SWAP1 PUSH1 0x0 SWAP1 JUMPDEST PUSH1 0x40 MLOAD PUSH4 0xE0391B09 PUSH1 0xE0 SHL DUP2 MSTORE SWAP3 DUP4 SWAP2 DUP3 SWAP1 GAS STATICCALL PUSH1 0x0 SWAP2 DUP2 PUSH2 0x1294 JUMPI JUMPDEST POP PUSH2 0xF20 JUMPI JUMPDEST POP POP PUSH2 0xF1A SWAP1 PUSH2 0x19FD JUMP JUMPDEST SWAP5 PUSH2 0xDDA JUMP JUMPDEST SWAP1 SWAP3 SWAP4 SWAP5 SWAP6 PUSH1 0x0 SWAP8 SWAP3 SWAP8 JUMPDEST DUP3 MLOAD DUP2 LT DUP1 PUSH2 0x128B JUMPI JUMPDEST ISZERO PUSH2 0x127A JUMPI PUSH1 0x80 PUSH2 0xF46 DUP3 DUP6 PUSH2 0x1A0C JUMP JUMPDEST MLOAD ADD MLOAD ISZERO ISZERO DUP1 PUSH2 0x125A JUMPI JUMPDEST PUSH2 0xF64 JUMPI JUMPDEST PUSH2 0xF5F SWAP1 PUSH2 0x19FD JUMP JUMPDEST PUSH2 0xF2B JUMP JUMPDEST DUP9 PUSH1 0x24 PUSH1 0x20 PUSH1 0x1 PUSH1 0x1 PUSH1 0xA0 SHL SUB PUSH1 0x60 PUSH2 0xF7D DUP7 DUP10 PUSH2 0x1A0C JUMP JUMPDEST MLOAD ADD MLOAD PUSH1 0x40 MLOAD PUSH4 0x6F34D9D5 PUSH1 0xE1 SHL DUP2 MSTORE PUSH1 0x1 PUSH1 0x1 PUSH1 0xA0 SHL SUB DUP11 AND PUSH1 0x4 DUP3 ADD MSTORE SWAP4 DUP5 SWAP3 SWAP1 SWAP2 DUP4 SWAP2 AND GAS STATICCALL PUSH1 0x0 SWAP2 DUP2 PUSH2 0x1223 JUMPI JUMPDEST POP PUSH2 0xFBC JUMPI JUMPDEST POP POP PUSH2 0xF56 JUMP JUMPDEST DUP1 ISZERO PUSH2 0xFB5 JUMPI SWAP1 DUP3 DUP8 SWAP4 SWAP10 SWAP3 PUSH1 0x0 DUP1 SWAP2 DUP9 PUSH1 0x0 SWAP6 PUSH1 0x4 PUSH1 0x20 PUSH1 0x1 DUP1 PUSH1 0xA0 SHL SUB PUSH1 0x60 PUSH2 0xFE7 DUP11 DUP8 PUSH2 0x1A0C JUMP JUMPDEST MLOAD ADD MLOAD AND PUSH1 0x40 MLOAD SWAP3 DUP4 DUP1 SWAP3 PUSH4 0x6A801797 PUSH1 0xE1 SHL DUP3 MSTORE GAS STATICCALL PUSH1 0x0 SWAP2 DUP2 PUSH2 0x11E5 JUMPI JUMPDEST POP PUSH2 0x116A JUMPI JUMPDEST POP PUSH1 0x4 PUSH1 0x20 PUSH1 0x1 PUSH1 0x1 PUSH1 0xA0 SHL SUB PUSH1 0x60 PUSH2 0x1026 DUP11 DUP8 PUSH2 0x1A0C JUMP JUMPDEST MLOAD ADD MLOAD AND PUSH1 0x40 MLOAD SWAP3 DUP4 DUP1 SWAP3 PUSH4 0x8DA5CB5B PUSH1 0xE0 SHL DUP3 MSTORE GAS STATICCALL PUSH1 0x0 SWAP2 DUP2 PUSH2 0x110C JUMPI JUMPDEST POP SWAP2 PUSH2 0xF5F SWAP11 SWAP8 SWAP6 SWAP4 SWAP2 PUSH2 0x10EC SWAP11 SWAP10 SWAP8 SWAP6 SWAP4 PUSH2 0x10F6 JUMPI JUMPDEST POP PUSH1 0x1 PUSH1 0x1 PUSH1 0xA0 SHL SUB SWAP1 PUSH2 0x1071 SWAP1 DUP14 PUSH2 0x1A0C JUMP JUMPDEST MLOAD AND SWAP5 PUSH1 0x20 PUSH2 0x10A4 PUSH2 0x1083 DUP4 DUP6 PUSH2 0x1A0C JUMP JUMPDEST MLOAD MLOAD SWAP3 PUSH1 0x1 PUSH1 0x1 PUSH1 0xA0 SHL SUB PUSH1 0x60 PUSH2 0x109A DUP4 DUP9 PUSH2 0x1A0C JUMP JUMPDEST MLOAD ADD MLOAD AND SWAP5 PUSH2 0x1A0C JUMP JUMPDEST MLOAD ADD MLOAD SWAP6 PUSH1 0x40 MLOAD SWAP9 PUSH2 0x10B5 DUP11 PUSH2 0x1812 JUMP JUMPDEST DUP10 MSTORE PUSH1 0x20 DUP10 ADD MSTORE PUSH1 0x40 DUP9 ADD MSTORE PUSH1 0x60 DUP8 ADD MSTORE PUSH1 0x80 DUP7 ADD MSTORE PUSH1 0xA0 DUP6 ADD MSTORE PUSH1 0xC0 DUP5 ADD MSTORE PUSH1 0xE0 DUP4 ADD MSTORE ISZERO ISZERO PUSH2 0x100 DUP3 ADD MSTORE PUSH2 0xA79 DUP3 DUP11 PUSH2 0x1A0C JUMP JUMPDEST SWAP7 SWAP1 POP DUP9 DUP11 PUSH2 0xFB5 JUMP JUMPDEST PUSH1 0x1 PUSH1 0x1 PUSH1 0xA0 SHL SUB DUP16 DUP2 AND SWAP2 AND EQ SWAP7 POP CODESIZE PUSH2 0x105D JUMP JUMPDEST SWAP8 POP SWAP5 SWAP10 POP POP POP POP SWAP5 SWAP4 SWAP2 PUSH1 0x20 DUP5 RETURNDATASIZE PUSH1 0x20 GT PUSH2 0x1162 JUMPI JUMPDEST DUP2 PUSH2 0x1130 PUSH1 0x20 SWAP4 DUP4 PUSH2 0x1865 JUMP JUMPDEST DUP2 ADD SUB SLT PUSH2 0x4BA JUMPI PUSH2 0xF5F SWAP7 DUP16 SWAP7 DUP11 DUP16 SWAP5 SWAP9 PUSH2 0x10EC SWAP10 DUP16 SWAP9 PUSH2 0x1151 SWAP1 PUSH2 0x18F1 JUMP JUMPDEST SWAP3 SWAP5 SWAP7 SWAP9 SWAP12 POP SWAP1 SWAP3 SWAP5 SWAP7 SWAP9 SWAP10 PUSH2 0x1046 JUMP JUMPDEST RETURNDATASIZE SWAP2 POP PUSH2 0x1123 JUMP JUMPDEST SWAP5 POP SWAP5 POP POP SWAP6 POP POP DUP1 DUP10 DUP13 DUP4 ISZERO SWAP5 DUP6 ISZERO PUSH1 0x0 EQ PUSH2 0x11D8 JUMPI POP POP POP PUSH1 0x64 SWAP3 DUP7 DUP5 DUP2 MUL DIV DUP5 EQ DUP8 ISZERO OR ISZERO PUSH2 0x11C2 JUMPI PUSH2 0x11AC JUMPI DUP6 DUP9 DUP16 SWAP4 DUP15 SWAP6 DUP14 SWAP10 MUL DIV JUMPDEST SWAP4 CODESIZE PUSH2 0x100D JUMP JUMPDEST PUSH4 0x4E487B71 PUSH1 0xE0 SHL PUSH1 0x0 MSTORE PUSH1 0x12 PUSH1 0x4 MSTORE PUSH1 0x24 PUSH1 0x0 REVERT JUMPDEST PUSH4 0x4E487B71 PUSH1 0xE0 SHL PUSH1 0x0 MSTORE PUSH1 0x11 PUSH1 0x4 MSTORE PUSH1 0x24 PUSH1 0x0 REVERT JUMPDEST SWAP4 POP SWAP4 POP SWAP6 DUP9 PUSH1 0x0 PUSH2 0x11A5 JUMP JUMPDEST SWAP11 POP SWAP7 POP POP POP POP PUSH1 0x20 DUP8 RETURNDATASIZE PUSH1 0x20 GT PUSH2 0x121B JUMPI JUMPDEST DUP2 PUSH2 0x1205 PUSH1 0x20 SWAP4 DUP4 PUSH2 0x1865 JUMP JUMPDEST DUP2 ADD SUB SLT PUSH2 0x4BA JUMPI DUP9 DUP16 DUP15 SWAP6 DUP14 SWAP10 MLOAD SWAP1 CODESIZE PUSH2 0x1007 JUMP JUMPDEST RETURNDATASIZE SWAP2 POP PUSH2 0x11F8 JUMP JUMPDEST SWAP3 POP SWAP1 POP PUSH1 0x20 DUP3 RETURNDATASIZE PUSH1 0x20 GT PUSH2 0x1252 JUMPI JUMPDEST DUP2 PUSH2 0x1240 PUSH1 0x20 SWAP4 DUP4 PUSH2 0x1865 JUMP JUMPDEST DUP2 ADD SUB SLT PUSH2 0x4BA JUMPI DUP11 SWAP2 MLOAD SWAP1 DUP13 PUSH2 0xFAF JUMP JUMPDEST RETURNDATASIZE SWAP2 POP PUSH2 0x1233 JUMP JUMPDEST POP PUSH1 0x1 PUSH1 0x1 PUSH1 0xA0 SHL SUB PUSH1 0x60 PUSH2 0x126F DUP4 DUP7 PUSH2 0x1A0C JUMP JUMPDEST MLOAD ADD MLOAD AND ISZERO ISZERO PUSH2 0xF51 JUMP JUMPDEST POP SWAP6 SWAP5 SWAP4 SWAP3 POP POP SWAP5 PUSH2 0xF1A DUP8 PUSH2 0xF0F JUMP JUMPDEST POP DUP8 DUP8 LT PUSH2 0xF35 JUMP JUMPDEST PUSH2 0x12AA SWAP2 SWAP3 POP RETURNDATASIZE DUP1 PUSH1 0x0 DUP4 RETURNDATACOPY PUSH2 0x1A8 DUP2 DUP4 PUSH2 0x1865 JUMP JUMPDEST SWAP1 DUP10 PUSH2 0xF09 JUMP JUMPDEST PUSH2 0x12C6 SWAP2 POP RETURNDATASIZE DUP1 PUSH1 0x0 DUP4 RETURNDATACOPY PUSH2 0x571 DUP2 DUP4 PUSH2 0x1865 JUMP JUMPDEST DUP11 PUSH2 0xEAF JUMP JUMPDEST POP SWAP6 SWAP1 SWAP7 SWAP2 PUSH1 0x0 PUSH1 0x4 SWAP2 PUSH2 0xEEC JUMP JUMPDEST SWAP1 POP PUSH1 0x20 DUP2 RETURNDATASIZE PUSH1 0x20 GT PUSH2 0x1305 JUMPI JUMPDEST DUP2 PUSH2 0x12F6 PUSH1 0x20 SWAP4 DUP4 PUSH2 0x1865 JUMP JUMPDEST DUP2 ADD SUB SLT PUSH2 0x4BA JUMPI MLOAD DUP11 PUSH2 0xE52 JUMP JUMPDEST RETURNDATASIZE SWAP2 POP PUSH2 0x12E9 JUMP JUMPDEST PUSH1 0x40 MLOAD DUP1 PUSH2 0x5D9 DUP5 DUP3 PUSH2 0x1716 JUMP JUMPDEST POP DUP4 DUP4 LT PUSH2 0xDE4 JUMP JUMPDEST PUSH2 0x1339 SWAP2 POP RETURNDATASIZE DUP1 PUSH1 0x0 DUP4 RETURNDATACOPY PUSH2 0x5FB DUP2 DUP4 PUSH2 0x1865 JUMP JUMPDEST DUP3 PUSH2 0xC47 JUMP JUMPDEST CALLVALUE PUSH2 0x4BA JUMPI PUSH1 0x0 CALLDATASIZE PUSH1 0x3 NOT ADD SLT PUSH2 0x4BA JUMPI PUSH4 0xD00952B PUSH1 0xE3 SHL DUP2 MSTORE PUSH1 0x1 PUSH1 0x1 PUSH1 0xA0 SHL SUB PUSH1 0x0 DUP3 PUSH1 0x4 DUP2 PUSH32 0x0 DUP6 AND GAS STATICCALL SWAP2 DUP3 ISZERO PUSH2 0x57F JUMPI PUSH1 0x0 SWAP3 PUSH2 0x1621 JUMPI JUMPDEST POP DUP2 MLOAD SWAP2 PUSH2 0x13A9 DUP4 PUSH2 0x1886 JUMP JUMPDEST SWAP3 PUSH2 0x13B7 PUSH1 0x40 MLOAD SWAP5 DUP6 PUSH2 0x1865 JUMP JUMPDEST DUP1 DUP5 MSTORE PUSH2 0x13C6 PUSH1 0x1F NOT SWAP2 PUSH2 0x1886 JUMP JUMPDEST ADD PUSH1 0x0 JUMPDEST DUP2 DUP2 LT PUSH2 0x15DA JUMPI POP POP PUSH1 0x0 JUMPDEST DUP2 MLOAD DUP2 LT ISZERO PUSH2 0x152C JUMPI PUSH1 0x0 DUP1 PUSH1 0x4 PUSH1 0x0 DUP7 PUSH1 0x40 PUSH2 0x13F3 DUP8 DUP10 PUSH2 0x1A0C JUMP JUMPDEST MLOAD ADD MLOAD AND PUSH1 0x40 MLOAD SWAP3 DUP4 DUP1 SWAP3 PUSH4 0xE0391B09 PUSH1 0xE0 SHL DUP3 MSTORE GAS STATICCALL PUSH1 0x0 SWAP2 DUP2 PUSH2 0x150F JUMPI JUMPDEST POP PUSH2 0x14B7 JUMPI JUMPDEST POP SWAP1 DUP3 SWAP2 PUSH2 0x142A PUSH2 0x14B2 SWAP5 DUP7 PUSH2 0x1A0C JUMP JUMPDEST MLOAD MLOAD SWAP2 PUSH1 0x20 DUP5 DUP2 PUSH2 0x143B DUP3 DUP11 PUSH2 0x1A0C JUMP JUMPDEST MLOAD ADD MLOAD DUP2 DUP11 PUSH1 0x40 PUSH2 0x144C DUP4 DUP14 PUSH2 0x1A0C JUMP JUMPDEST MLOAD ADD MLOAD AND DUP12 DUP12 PUSH2 0x145F PUSH1 0x60 SWAP5 DUP6 SWAP3 PUSH2 0x1A0C JUMP JUMPDEST MLOAD ADD MLOAD AND SWAP3 DUP12 PUSH2 0x1472 PUSH1 0x80 SWAP7 DUP8 SWAP3 PUSH2 0x1A0C JUMP JUMPDEST MLOAD ADD MLOAD SWAP6 PUSH1 0x40 MLOAD SWAP10 PUSH2 0x1483 DUP12 PUSH2 0x17E1 JUMP JUMPDEST DUP11 MSTORE DUP10 ADD MSTORE PUSH1 0x40 DUP9 ADD MSTORE DUP7 ADD MSTORE DUP5 ADD MSTORE PUSH1 0xA0 DUP4 ADD MSTORE PUSH1 0xC0 DUP3 ADD MSTORE PUSH2 0x14A7 DUP3 DUP8 PUSH2 0x1A0C JUMP JUMPDEST MSTORE PUSH2 0x471 DUP2 DUP7 PUSH2 0x1A0C JUMP JUMPDEST PUSH2 0x13D6 JUMP JUMPDEST DUP1 SWAP7 SWAP3 POP SWAP4 SWAP1 SWAP4 MLOAD PUSH1 0x0 JUMPDEST DUP8 MLOAD DUP2 LT ISZERO PUSH2 0x1502 JUMPI PUSH1 0x80 PUSH2 0x14D7 DUP3 DUP11 PUSH2 0x1A0C JUMP JUMPDEST MLOAD ADD MLOAD PUSH2 0x14ED JUMPI JUMPDEST PUSH2 0x14E8 SWAP1 PUSH2 0x19FD JUMP JUMPDEST PUSH2 0x14C2 JUMP JUMPDEST SWAP5 PUSH2 0x14FA PUSH2 0x14E8 SWAP2 PUSH2 0x19FD JUMP JUMPDEST SWAP6 SWAP1 POP PUSH2 0x14DF JUMP JUMPDEST POP SWAP2 SWAP6 POP SWAP3 PUSH2 0x14B2 PUSH2 0x1419 JUMP JUMPDEST PUSH2 0x1525 SWAP2 SWAP3 POP RETURNDATASIZE DUP1 PUSH1 0x0 DUP4 RETURNDATACOPY PUSH2 0x1A8 DUP2 DUP4 PUSH2 0x1865 JUMP JUMPDEST SWAP1 DUP9 PUSH2 0x1413 JUMP JUMPDEST DUP3 DUP5 PUSH1 0x40 MLOAD SWAP1 PUSH1 0x20 DUP1 DUP4 ADD DUP2 DUP5 MSTORE DUP3 MLOAD DUP1 SWAP2 MSTORE PUSH1 0x40 DUP5 ADD SWAP2 DUP1 PUSH1 0x40 DUP4 PUSH1 0x5 SHL DUP8 ADD ADD SWAP5 ADD SWAP3 PUSH1 0x0 SWAP7 JUMPDEST DUP4 DUP9 LT PUSH2 0x1562 JUMPI DUP7 DUP7 SUB DUP8 RETURN JUMPDEST SWAP1 SWAP2 SWAP3 SWAP4 SWAP5 DUP4 DUP1 PUSH1 0x1 SWAP3 PUSH1 0x3F NOT DUP11 DUP3 SUB ADD DUP7 MSTORE DUP9 MLOAD SWAP1 DUP2 MLOAD DUP2 MSTORE PUSH2 0x1593 DUP4 DUP4 ADD MLOAD PUSH1 0xE0 DUP6 DUP5 ADD MSTORE PUSH1 0xE0 DUP4 ADD SWAP1 PUSH2 0x16F1 JUMP JUMPDEST SWAP2 DUP7 PUSH1 0x40 DUP3 ADD MLOAD AND PUSH1 0x40 DUP4 ADD MSTORE PUSH1 0x60 DUP8 DUP2 DUP4 ADD MLOAD AND SWAP1 DUP4 ADD MSTORE PUSH1 0x80 DUP1 DUP3 ADD MLOAD SWAP1 DUP4 ADD MSTORE PUSH1 0xA0 DUP1 DUP3 ADD MLOAD SWAP1 DUP4 ADD MSTORE PUSH1 0xC0 DUP1 SWAP2 ADD MLOAD SWAP2 ADD MSTORE SWAP8 ADD SWAP4 ADD SWAP8 ADD SWAP7 SWAP1 SWAP4 SWAP3 SWAP2 SWAP4 PUSH2 0x1555 JUMP JUMPDEST PUSH1 0x20 SWAP1 PUSH1 0x40 MLOAD PUSH2 0x15E9 DUP2 PUSH2 0x17E1 JUMP JUMPDEST PUSH1 0x0 DUP2 MSTORE PUSH1 0x60 PUSH1 0x0 DUP5 SWAP2 DUP1 DUP4 DUP6 ADD MSTORE DUP2 PUSH1 0x40 DUP6 ADD MSTORE DUP4 ADD MSTORE PUSH1 0x0 PUSH1 0x80 DUP4 ADD MSTORE PUSH1 0x0 PUSH1 0xA0 DUP4 ADD MSTORE PUSH1 0x0 PUSH1 0xC0 DUP4 ADD MSTORE DUP3 DUP9 ADD ADD MSTORE ADD PUSH2 0x13CA JUMP JUMPDEST SWAP1 SWAP2 POP RETURNDATASIZE DUP1 PUSH1 0x0 DUP4 RETURNDATACOPY PUSH2 0x1634 DUP2 DUP4 PUSH2 0x1865 JUMP JUMPDEST DUP2 ADD PUSH1 0x20 SWAP1 DUP2 DUP4 DUP3 SUB SLT PUSH2 0x4BA JUMPI DUP3 MLOAD PUSH1 0x1 PUSH1 0x1 PUSH1 0x40 SHL SUB SWAP4 DUP5 DUP3 GT PUSH2 0x4BA JUMPI ADD DUP2 PUSH1 0x1F DUP3 ADD SLT ISZERO PUSH2 0x4BA JUMPI DUP1 MLOAD PUSH2 0x166B DUP2 PUSH2 0x1886 JUMP JUMPDEST SWAP5 PUSH2 0x1679 PUSH1 0x40 MLOAD SWAP7 DUP8 PUSH2 0x1865 JUMP JUMPDEST DUP2 DUP7 MSTORE DUP5 DUP1 DUP8 ADD SWAP3 PUSH1 0x5 SHL DUP5 ADD ADD SWAP4 DUP1 DUP6 GT PUSH2 0x4BA JUMPI DUP6 DUP5 ADD SWAP3 JUMPDEST DUP6 DUP5 LT PUSH2 0x16A9 JUMPI POP POP POP POP POP POP POP SWAP1 DUP3 PUSH2 0x139C JUMP JUMPDEST DUP4 MLOAD DUP4 DUP2 GT PUSH2 0x4BA JUMPI DUP8 SWAP2 PUSH2 0x16C3 DUP5 DUP5 DUP1 SWAP5 DUP11 ADD ADD PUSH2 0x1E25 JUMP JUMPDEST DUP2 MSTORE ADD SWAP4 ADD SWAP3 PUSH2 0x1694 JUMP JUMPDEST PUSH1 0x0 JUMPDEST DUP4 DUP2 LT PUSH2 0x16E1 JUMPI POP POP PUSH1 0x0 SWAP2 ADD MSTORE JUMP JUMPDEST DUP2 DUP2 ADD MLOAD DUP4 DUP3 ADD MSTORE PUSH1 0x20 ADD PUSH2 0x16D1 JUMP JUMPDEST SWAP1 PUSH1 0x20 SWAP2 PUSH2 0x170A DUP2 MLOAD DUP1 SWAP3 DUP2 DUP6 MSTORE DUP6 DUP1 DUP7 ADD SWAP2 ADD PUSH2 0x16CE JUMP JUMPDEST PUSH1 0x1F ADD PUSH1 0x1F NOT AND ADD ADD SWAP1 JUMP JUMPDEST PUSH1 0x20 DUP1 DUP3 ADD SWAP1 DUP1 DUP4 MSTORE DUP4 MLOAD DUP1 SWAP3 MSTORE PUSH1 0x40 SWAP3 DUP4 DUP2 ADD DUP3 DUP6 DUP6 PUSH1 0x5 SHL DUP5 ADD ADD SWAP7 ADD SWAP5 PUSH1 0x0 SWAP3 JUMPDEST DUP6 DUP5 LT PUSH2 0x174B JUMPI POP POP POP POP POP POP POP SWAP1 JUMP JUMPDEST SWAP1 SWAP2 SWAP3 SWAP4 SWAP5 SWAP6 SWAP7 DUP6 DUP1 PUSH1 0x1 SWAP3 PUSH1 0x3F NOT DUP6 DUP3 SUB ADD DUP8 MSTORE DUP11 MLOAD SWAP1 DUP2 MLOAD DUP2 MSTORE DUP5 DUP1 PUSH1 0xA0 SHL SUB DUP1 DUP5 DUP5 ADD MLOAD AND DUP5 DUP4 ADD MSTORE DUP8 DUP4 ADD MLOAD DUP9 DUP4 ADD MSTORE PUSH1 0x60 SWAP1 DUP2 DUP5 ADD MLOAD AND SWAP1 DUP3 ADD MSTORE PUSH1 0x80 DUP1 DUP4 ADD MLOAD SWAP1 DUP3 ADD MSTORE PUSH1 0xA0 DUP1 DUP4 ADD MLOAD SWAP1 DUP3 ADD MSTORE PUSH1 0xC0 DUP1 DUP4 ADD MLOAD SWAP1 DUP3 ADD MSTORE PUSH2 0x17C3 PUSH1 0xE0 DUP1 DUP5 ADD MLOAD SWAP1 PUSH2 0x120 DUP1 SWAP2 DUP6 ADD MSTORE DUP4 ADD SWAP1 PUSH2 0x16F1 JUMP JUMPDEST SWAP2 PUSH2 0x100 DUP1 SWAP2 ADD MLOAD ISZERO ISZERO SWAP2 ADD MSTORE SWAP10 ADD SWAP5 ADD SWAP5 ADD SWAP3 SWAP6 SWAP5 SWAP4 SWAP2 SWAP1 PUSH2 0x173A JUMP JUMPDEST PUSH1 0xE0 DUP2 ADD SWAP1 DUP2 LT PUSH1 0x1 PUSH1 0x1 PUSH1 0x40 SHL SUB DUP3 GT OR PUSH2 0x17FC JUMPI PUSH1 0x40 MSTORE JUMP JUMPDEST PUSH4 0x4E487B71 PUSH1 0xE0 SHL PUSH1 0x0 MSTORE PUSH1 0x41 PUSH1 0x4 MSTORE PUSH1 0x24 PUSH1 0x0 REVERT JUMPDEST PUSH2 0x120 DUP2 ADD SWAP1 DUP2 LT PUSH1 0x1 PUSH1 0x1 PUSH1 0x40 SHL SUB DUP3 GT OR PUSH2 0x17FC JUMPI PUSH1 0x40 MSTORE JUMP JUMPDEST PUSH1 0xA0 DUP2 ADD SWAP1 DUP2 LT PUSH1 0x1 PUSH1 0x1 PUSH1 0x40 SHL SUB DUP3 GT OR PUSH2 0x17FC JUMPI PUSH1 0x40 MSTORE JUMP JUMPDEST PUSH2 0x100 DUP2 ADD SWAP1 DUP2 LT PUSH1 0x1 PUSH1 0x1 PUSH1 0x40 SHL SUB DUP3 GT OR PUSH2 0x17FC JUMPI PUSH1 0x40 MSTORE JUMP JUMPDEST SWAP1 PUSH1 0x1F DUP1 NOT SWAP2 ADD AND DUP2 ADD SWAP1 DUP2 LT PUSH1 0x1 PUSH1 0x1 PUSH1 0x40 SHL SUB DUP3 GT OR PUSH2 0x17FC JUMPI PUSH1 0x40 MSTORE JUMP JUMPDEST PUSH1 0x1 PUSH1 0x1 PUSH1 0x40 SHL SUB DUP2 GT PUSH2 0x17FC JUMPI PUSH1 0x5 SHL PUSH1 0x20 ADD SWAP1 JUMP JUMPDEST DUP2 PUSH1 0x1F DUP3 ADD SLT ISZERO PUSH2 0x4BA JUMPI DUP1 MLOAD PUSH1 0x1 PUSH1 0x1 PUSH1 0x40 SHL SUB DUP2 GT PUSH2 0x17FC JUMPI PUSH1 0x40 MLOAD SWAP3 PUSH2 0x18D0 PUSH1 0x1F DUP4 ADD PUSH1 0x1F NOT AND PUSH1 0x20 ADD DUP6 PUSH2 0x1865 JUMP JUMPDEST DUP2 DUP5 MSTORE PUSH1 0x20 DUP3 DUP5 ADD ADD GT PUSH2 0x4BA JUMPI PUSH2 0x18EE SWAP2 PUSH1 0x20 DUP1 DUP6 ADD SWAP2 ADD PUSH2 0x16CE JUMP JUMPDEST SWAP1 JUMP JUMPDEST MLOAD SWAP1 PUSH1 0x1 PUSH1 0x1 PUSH1 0xA0 SHL SUB DUP3 AND DUP3 SUB PUSH2 0x4BA JUMPI JUMP JUMPDEST PUSH1 0x20 SWAP1 DUP2 DUP2 DUP5 SUB SLT PUSH2 0x4BA JUMPI DUP1 MLOAD PUSH1 0x1 PUSH1 0x1 PUSH1 0x40 SHL SUB SWAP2 DUP3 DUP3 GT PUSH2 0x4BA JUMPI ADD SWAP1 DUP4 PUSH1 0x1F DUP4 ADD SLT ISZERO PUSH2 0x4BA JUMPI DUP2 MLOAD PUSH2 0x193B DUP2 PUSH2 0x1886 JUMP JUMPDEST SWAP5 PUSH1 0x40 SWAP3 PUSH2 0x194B DUP5 MLOAD SWAP8 DUP9 PUSH2 0x1865 JUMP JUMPDEST DUP3 DUP8 MSTORE DUP6 DUP1 DUP9 ADD SWAP4 PUSH1 0x5 SHL DUP7 ADD ADD SWAP5 DUP3 DUP7 GT PUSH2 0x4BA JUMPI DUP7 DUP2 ADD SWAP4 JUMPDEST DUP7 DUP6 LT PUSH2 0x1978 JUMPI POP POP POP POP POP POP POP POP SWAP1 JUMP JUMPDEST DUP5 MLOAD DUP4 DUP2 GT PUSH2 0x4BA JUMPI DUP3 ADD PUSH1 0xA0 SWAP2 DUP3 PUSH1 0x1F NOT DUP4 DUP9 SUB ADD SLT PUSH2 0x4BA JUMPI DUP8 MLOAD SWAP3 PUSH2 0x199F DUP5 PUSH2 0x182E JUMP JUMPDEST DUP11 DUP4 ADD MLOAD DUP5 MSTORE DUP9 DUP4 ADD MLOAD DUP7 DUP2 GT PUSH2 0x4BA JUMPI DUP8 DUP13 PUSH2 0x19BE SWAP3 DUP7 ADD ADD PUSH2 0x189D JUMP JUMPDEST DUP12 DUP6 ADD MSTORE PUSH1 0x60 SWAP3 DUP4 DUP2 ADD MLOAD DUP11 DUP7 ADD MSTORE PUSH1 0x80 SWAP4 PUSH2 0x19DB DUP6 DUP4 ADD PUSH2 0x18F1 JUMP JUMPDEST SWAP1 DUP7 ADD MSTORE ADD MLOAD SWAP3 DUP4 ISZERO ISZERO DUP5 SUB PUSH2 0x4BA JUMPI DUP11 SWAP4 DUP5 SWAP4 DUP3 ADD MSTORE DUP2 MSTORE ADD SWAP5 ADD SWAP4 PUSH2 0x1966 JUMP JUMPDEST PUSH1 0x0 NOT DUP2 EQ PUSH2 0x11C2 JUMPI PUSH1 0x1 ADD SWAP1 JUMP JUMPDEST DUP1 MLOAD DUP3 LT ISZERO PUSH2 0x1A20 JUMPI PUSH1 0x20 SWAP2 PUSH1 0x5 SHL ADD ADD SWAP1 JUMP JUMPDEST PUSH4 0x4E487B71 PUSH1 0xE0 SHL PUSH1 0x0 MSTORE PUSH1 0x32 PUSH1 0x4 MSTORE PUSH1 0x24 PUSH1 0x0 REVERT JUMPDEST PUSH1 0x40 SWAP1 DUP2 MLOAD PUSH4 0xE0391B09 PUSH1 0xE0 SHL DUP2 MSTORE PUSH1 0x0 SWAP2 PUSH1 0x4 SWAP2 DUP4 DUP2 DUP5 DUP2 PUSH1 0x1 DUP1 PUSH1 0xA0 SHL SUB DUP1 SWAP7 AND GAS STATICCALL DUP5 SWAP2 DUP2 PUSH2 0x1CF8 JUMPI JUMPDEST POP PUSH2 0x1A9E JUMPI POP POP DUP3 MLOAD SWAP3 PUSH1 0x20 DUP5 ADD SWAP2 DUP5 DUP4 LT PUSH1 0x1 PUSH1 0x1 PUSH1 0x40 SHL SUB DUP5 GT OR PUSH2 0x1A8B JUMPI POP MSTORE DUP2 MSTORE SWAP1 JUMP JUMPDEST PUSH4 0x4E487B71 PUSH1 0xE0 SHL DUP5 MSTORE PUSH1 0x41 SWAP1 MSTORE PUSH1 0x24 DUP4 REVERT JUMPDEST SWAP2 SWAP1 SWAP3 SWAP5 SWAP4 DUP3 MLOAD SWAP3 PUSH2 0x1AAF DUP5 PUSH2 0x1886 JUMP JUMPDEST SWAP4 PUSH2 0x1ABC DUP4 MLOAD SWAP6 DUP7 PUSH2 0x1865 JUMP JUMPDEST DUP1 DUP6 MSTORE PUSH2 0x1ACB PUSH1 0x1F NOT SWAP2 PUSH2 0x1886 JUMP JUMPDEST ADD DUP8 JUMPDEST DUP2 DUP2 LT PUSH2 0x1CB3 JUMPI POP POP DUP7 JUMPDEST DUP2 MLOAD DUP2 LT ISZERO PUSH2 0x1CA9 JUMPI DUP1 PUSH2 0x1AEE DUP8 SWAP3 DUP5 PUSH2 0x1A0C JUMP JUMPDEST MLOAD PUSH1 0x80 SWAP1 DUP2 DUP2 ADD SWAP1 DUP2 MLOAD ISZERO ISZERO DUP1 DUP1 SWAP2 PUSH2 0x1C9A JUMPI JUMPDEST ISZERO PUSH2 0x1C6C JUMPI POP DUP12 PUSH1 0x60 SWAP4 DUP5 DUP4 ADD SWAP5 DUP10 DUP12 DUP5 DUP11 DUP10 MLOAD AND DUP4 MLOAD SWAP3 DUP4 DUP1 SWAP3 PUSH4 0x4D21E019 PUSH1 0xE0 SHL DUP3 MSTORE GAS STATICCALL SWAP10 DUP11 DUP7 SWAP3 DUP8 SWAP1 DUP9 SWAP3 PUSH2 0x1BF4 JUMPI JUMPDEST POP PUSH2 0x1B9D SWAP13 PUSH2 0x1BA2 JUMPI POP POP SWAP1 POP DUP5 SWAP3 SWAP2 POP DUP6 MLOAD SWAP8 MLOAD AND SWAP6 PUSH1 0x20 SWAP7 DUP13 DUP9 DUP9 ADD MLOAD SWAP3 MLOAD ISZERO ISZERO SWAP8 ADD MLOAD SWAP8 DUP14 MLOAD SWAP10 PUSH2 0x1B69 DUP12 PUSH2 0x1849 JUMP JUMPDEST DUP11 MSTORE DUP10 ADD MSTORE DUP12 DUP9 ADD MSTORE DUP7 ADD MSTORE DUP5 ADD MSTORE DUP12 PUSH1 0xA0 DUP5 ADD MSTORE PUSH1 0xC0 DUP4 ADD MSTORE PUSH1 0xE0 DUP3 ADD MSTORE PUSH2 0x1B92 DUP3 DUP9 PUSH2 0x1A0C JUMP JUMPDEST MSTORE PUSH2 0x471 DUP2 DUP8 PUSH2 0x1A0C JUMP JUMPDEST PUSH2 0x1AD9 JUMP JUMPDEST SWAP4 SWAP9 POP SWAP4 SWAP2 SWAP7 SWAP1 DUP1 SWAP6 SWAP7 POP DUP2 MLOAD SWAP10 MLOAD AND PUSH1 0x20 DUP10 DUP2 DUP5 ADD MLOAD SWAP4 ADD MLOAD SWAP10 MLOAD SWAP11 PUSH2 0x1BC8 DUP13 PUSH2 0x1849 JUMP JUMPDEST DUP12 MSTORE DUP11 ADD MSTORE DUP13 DUP10 ADD MSTORE DUP8 ADD MSTORE AND SWAP1 DUP5 ADD MSTORE PUSH1 0xA0 DUP4 ADD MSTORE PUSH1 0x1 PUSH1 0xC0 DUP4 ADD MSTORE PUSH1 0xE0 DUP3 ADD MSTORE PUSH2 0x1B92 DUP3 DUP9 PUSH2 0x1A0C JUMP JUMPDEST SWAP5 POP POP POP POP POP RETURNDATASIZE DUP1 DUP6 DUP4 RETURNDATACOPY PUSH2 0x1C09 DUP2 DUP4 PUSH2 0x1865 JUMP JUMPDEST DUP2 ADD SWAP1 PUSH1 0xE0 DUP2 DUP4 SUB SLT PUSH2 0x1C68 JUMPI PUSH2 0x1C1F DUP2 PUSH2 0x18F1 JUMP JUMPDEST POP DUP12 DUP2 ADD MLOAD PUSH1 0x1 PUSH1 0x1 PUSH1 0x40 SHL SUB DUP2 GT PUSH2 0x1C64 JUMPI DUP16 SWAP1 SWAP11 PUSH2 0x1C45 DUP15 SWAP5 PUSH2 0x1B9D SWAP14 DUP6 ADD PUSH2 0x189D JUMP JUMPDEST POP DUP5 DUP4 ADD MLOAD PUSH2 0x1C5A PUSH1 0xA0 DUP9 DUP7 ADD MLOAD SWAP6 ADD PUSH2 0x18F1 JUMP JUMPDEST SWAP1 SWAP4 SWAP1 SWAP2 SWAP13 PUSH2 0x1B36 JUMP JUMPDEST DUP6 DUP1 REVERT JUMPDEST DUP5 DUP1 REVERT JUMPDEST SWAP1 SWAP2 POP PUSH2 0x1B9D SWAP5 POP DUP12 DUP3 MLOAD SWAP4 DUP2 PUSH1 0x60 DUP14 DUP2 DUP8 ADD MLOAD AND SWAP6 PUSH1 0x20 SWAP7 DUP13 DUP9 DUP4 ADD MLOAD SWAP3 ADD MLOAD SWAP8 DUP14 MLOAD SWAP10 PUSH2 0x1B69 DUP12 PUSH2 0x1849 JUMP JUMPDEST POP DUP6 PUSH1 0x60 DUP4 ADD MLOAD AND ISZERO ISZERO PUSH2 0x1B02 JUMP JUMPDEST POP SWAP3 SWAP6 POP POP POP POP POP JUMP JUMPDEST PUSH1 0x20 SWAP1 DUP5 MLOAD PUSH2 0x1CC1 DUP2 PUSH2 0x1849 JUMP JUMPDEST DUP11 DUP2 MSTORE DUP3 DUP12 DUP2 DUP4 ADD MSTORE DUP12 PUSH1 0x60 DUP1 DUP10 DUP6 ADD MSTORE DUP4 ADD MSTORE DUP12 PUSH1 0x80 DUP4 ADD MSTORE DUP12 PUSH1 0xA0 DUP4 ADD MSTORE DUP12 PUSH1 0xC0 DUP4 ADD MSTORE DUP12 PUSH1 0xE0 DUP4 ADD MSTORE DUP3 DUP10 ADD ADD MSTORE ADD PUSH2 0x1ACE JUMP JUMPDEST PUSH2 0x1D0D SWAP2 SWAP3 POP RETURNDATASIZE DUP1 DUP8 DUP4 RETURNDATACOPY PUSH2 0x1A8 DUP2 DUP4 PUSH2 0x1865 JUMP JUMPDEST SWAP1 CODESIZE PUSH2 0x1A63 JUMP JUMPDEST PUSH1 0x20 SWAP1 DUP2 DUP2 DUP5 SUB SLT PUSH2 0x4BA JUMPI DUP1 MLOAD SWAP1 PUSH1 0x1 PUSH1 0x1 PUSH1 0x40 SHL SUB DUP3 GT PUSH2 0x4BA JUMPI ADD SWAP2 DUP1 PUSH1 0x1F DUP5 ADD SLT ISZERO PUSH2 0x4BA JUMPI DUP3 MLOAD PUSH2 0x1D49 DUP2 PUSH2 0x1886 JUMP JUMPDEST SWAP4 PUSH2 0x1D57 PUSH1 0x40 MLOAD SWAP6 DUP7 PUSH2 0x1865 JUMP JUMPDEST DUP2 DUP6 MSTORE DUP4 DUP1 DUP7 ADD SWAP3 PUSH1 0x5 SHL DUP3 ADD ADD SWAP3 DUP4 GT PUSH2 0x4BA JUMPI DUP4 ADD SWAP1 JUMPDEST DUP3 DUP3 LT PUSH2 0x1D7E JUMPI POP POP POP POP SWAP1 JUMP JUMPDEST DUP4 DUP1 SWAP2 PUSH2 0x1D8A DUP5 PUSH2 0x18F1 JUMP JUMPDEST DUP2 MSTORE ADD SWAP2 ADD SWAP1 PUSH2 0x1D70 JUMP JUMPDEST SWAP1 PUSH2 0x1D9F DUP3 PUSH2 0x1886 JUMP JUMPDEST PUSH1 0x40 SWAP1 PUSH2 0x1DAE DUP3 MLOAD SWAP2 DUP3 PUSH2 0x1865 JUMP JUMPDEST DUP4 DUP2 MSTORE DUP1 SWAP4 PUSH2 0x1DBF PUSH1 0x1F NOT SWAP2 PUSH2 0x1886 JUMP JUMPDEST ADD SWAP2 PUSH1 0x0 JUMPDEST DUP4 DUP2 LT PUSH2 0x1DD1 JUMPI POP POP POP POP JUMP JUMPDEST PUSH1 0x20 SWAP1 DUP3 MLOAD PUSH2 0x1DDF DUP2 PUSH2 0x1812 JUMP JUMPDEST PUSH1 0x0 DUP2 MSTORE DUP3 PUSH1 0x0 DUP2 DUP4 ADD MSTORE PUSH1 0x0 DUP6 DUP4 ADD MSTORE PUSH1 0x60 PUSH1 0x0 DUP2 DUP5 ADD MSTORE PUSH1 0x0 PUSH1 0x80 DUP5 ADD MSTORE PUSH1 0x0 PUSH1 0xA0 DUP5 ADD MSTORE PUSH1 0x0 PUSH1 0xC0 DUP5 ADD MSTORE PUSH1 0xE0 DUP4 ADD MSTORE PUSH1 0x0 PUSH2 0x100 DUP4 ADD MSTORE DUP3 DUP7 ADD ADD MSTORE ADD PUSH2 0x1DC4 JUMP JUMPDEST SWAP2 SWAP1 SWAP2 PUSH1 0xA0 DUP2 DUP5 SUB SLT PUSH2 0x4BA JUMPI PUSH1 0x40 MLOAD SWAP1 PUSH2 0x1E3F DUP3 PUSH2 0x182E JUMP JUMPDEST DUP2 SWAP4 DUP2 MLOAD DUP4 MSTORE PUSH1 0x20 DUP3 ADD MLOAD SWAP2 PUSH1 0x1 PUSH1 0x1 PUSH1 0x40 SHL SUB DUP4 GT PUSH2 0x4BA JUMPI PUSH2 0x1E69 PUSH1 0x80 SWAP4 SWAP3 DUP5 SWAP4 DUP4 ADD PUSH2 0x189D JUMP JUMPDEST PUSH1 0x20 DUP6 ADD MSTORE PUSH2 0x1E7A PUSH1 0x40 DUP3 ADD PUSH2 0x18F1 JUMP JUMPDEST PUSH1 0x40 DUP6 ADD MSTORE PUSH2 0x1E8B PUSH1 0x60 DUP3 ADD PUSH2 0x18F1 JUMP JUMPDEST PUSH1 0x60 DUP6 ADD MSTORE ADD MLOAD SWAP2 ADD MSTORE JUMP JUMPDEST SWAP1 PUSH1 0x20 DUP3 DUP3 SUB SLT PUSH2 0x4BA JUMPI DUP2 MLOAD PUSH1 0x1 PUSH1 0x1 PUSH1 0x40 SHL SUB DUP2 GT PUSH2 0x4BA JUMPI PUSH2 0x18EE SWAP3 ADD PUSH2 0x1E25 JUMP INVALID LOG2 PUSH5 0x6970667358 0x22 SLT KECCAK256 0xF8 POP DUP16 SWAP5 0xAE SELFDESTRUCT DUP13 SWAP3 DUP11 SWAP2 0xE3 SLT 0xC1 0x21 0xC4 DUP13 0xC2 0xB5 0xD3 REVERT DUP14 0xC2 PUSH18 0x4AC472C040232879DA64736F6C6343000814 STOP CALLER "},"gasEstimates":{"creation":{"codeDepositCost":"1584400","executionCost":"infinite","totalCost":"infinite"},"external":{"factory()":"infinite","getAllFractionalizedNFTs()":"infinite","getCollectionNFTs(address)":"infinite","getCollectionsWithNFTInfo()":"infinite","getCollectionsWithUserShares(address)":"infinite","getUserNFTShares(address)":"infinite"}},"methodIdentifiers":{"factory()":"c45a0155","getAllFractionalizedNFTs()":"f447d2b1","getCollectionNFTs(address)":"c5864c3c","getCollectionsWithNFTInfo()":"402cca75","getCollectionsWithUserShares(address)":"5ffab088","getUserNFTShares(address)":"4765f4ea"}},"storageLayout":{"storage":[],"types":null},"userdoc":{"kind":"user","methods":{},"version":1}}}}