{"contracts/NFTCollection.sol":{"NFTCollection":{"abi":[{"inputs":[{"internalType":"string","name":"name","type":"string"},{"internalType":"string","name":"symbol","type":"string"},{"internalType":"string","name":"_collectionMetadataURI","type":"string"},{"internalType":"address","name":"initialOwner","type":"address"},{"internalType":"address","name":"_nftFactory","type":"address"}],"stateMutability":"nonpayable","type":"constructor"},{"anonymous":false,"inputs":[{"indexed":true,"internalType":"address","name":"owner","type":"address"},{"indexed":true,"internalType":"address","name":"approved","type":"address"},{"indexed":true,"internalType":"uint256","name":"tokenId","type":"uint256"}],"name":"Approval","type":"event"},{"anonymous":false,"inputs":[{"indexed":true,"internalType":"address","name":"owner","type":"address"},{"indexed":true,"internalType":"address","name":"operator","type":"address"},{"indexed":false,"internalType":"bool","name":"approved","type":"bool"}],"name":"ApprovalForAll","type":"event"},{"anonymous":false,"inputs":[{"indexed":false,"internalType":"uint256","name":"_fromTokenId","type":"uint256"},{"indexed":false,"internalType":"uint256","name":"_toTokenId","type":"uint256"}],"name":"BatchMetadataUpdate","type":"event"},{"anonymous":false,"inputs":[{"indexed":false,"internalType":"uint256","name":"_tokenId","type":"uint256"}],"name":"MetadataUpdate","type":"event"},{"anonymous":false,"inputs":[{"indexed":true,"internalType":"uint256","name":"tokenId","type":"uint256"},{"indexed":false,"internalType":"string","name":"metadataURI","type":"string"},{"indexed":true,"internalType":"address","name":"owner","type":"address"}],"name":"NFTMinted","type":"event"},{"anonymous":false,"inputs":[{"indexed":true,"internalType":"uint256","name":"tokenId","type":"uint256"},{"indexed":true,"internalType":"address","name":"fractionalContract","type":"address"},{"indexed":false,"internalType":"uint256","name":"totalShares","type":"uint256"},{"indexed":false,"internalType":"uint256","name":"sharePrice","type":"uint256"}],"name":"NFTfractionalized","type":"event"},{"anonymous":false,"inputs":[{"indexed":true,"internalType":"address","name":"previousOwner","type":"address"},{"indexed":true,"internalType":"address","name":"newOwner","type":"address"}],"name":"OwnershipTransferred","type":"event"},{"anonymous":false,"inputs":[{"indexed":true,"internalType":"address","name":"from","type":"address"},{"indexed":true,"internalType":"address","name":"to","type":"address"},{"indexed":true,"internalType":"uint256","name":"tokenId","type":"uint256"}],"name":"Transfer","type":"event"},{"inputs":[{"internalType":"address","name":"to","type":"address"},{"internalType":"uint256","name":"tokenId","type":"uint256"}],"name":"approve","outputs":[],"stateMutability":"nonpayable","type":"function"},{"inputs":[{"internalType":"address","name":"owner","type":"address"}],"name":"balanceOf","outputs":[{"internalType":"uint256","name":"","type":"uint256"}],"stateMutability":"view","type":"function"},{"inputs":[],"name":"collectionMetadataURI","outputs":[{"internalType":"string","name":"","type":"string"}],"stateMutability":"view","type":"function"},{"inputs":[{"internalType":"uint256","name":"tokenId","type":"uint256"},{"internalType":"uint256","name":"totalShares","type":"uint256"},{"internalType":"uint256","name":"sharePrice","type":"uint256"},{"internalType":"string","name":"fractionalName","type":"string"},{"internalType":"string","name":"fractionalSymbol","type":"string"}],"name":"fractionalizeNFT","outputs":[{"internalType":"address","name":"","type":"address"}],"stateMutability":"nonpayable","type":"function"},{"inputs":[],"name":"getAllNFTs","outputs":[{"components":[{"internalType":"uint256","name":"tokenId","type":"uint256"},{"internalType":"string","name":"metadataURI","type":"string"},{"internalType":"uint256","name":"creationTime","type":"uint256"},{"internalType":"address","name":"fractionalContract","type":"address"},{"internalType":"bool","name":"isfractionalized","type":"bool"}],"internalType":"struct NFTCollection.NFTInfo[]","name":"","type":"tuple[]"}],"stateMutability":"view","type":"function"},{"inputs":[{"internalType":"uint256","name":"tokenId","type":"uint256"}],"name":"getApproved","outputs":[{"internalType":"address","name":"","type":"address"}],"stateMutability":"view","type":"function"},{"inputs":[],"name":"getCollectionStats","outputs":[{"internalType":"uint256","name":"totalNFTs","type":"uint256"},{"internalType":"uint256","name":"fractionalizedNFTs","type":"uint256"},{"internalType":"address","name":"currentOwner","type":"address"}],"stateMutability":"view","type":"function"},{"inputs":[],"name":"getFractionalizedNFTs","outputs":[{"components":[{"internalType":"uint256","name":"tokenId","type":"uint256"},{"internalType":"string","name":"metadataURI","type":"string"},{"internalType":"uint256","name":"creationTime","type":"uint256"},{"internalType":"address","name":"fractionalContract","type":"address"},{"internalType":"bool","name":"isfractionalized","type":"bool"}],"internalType":"struct NFTCollection.NFTInfo[]","name":"","type":"tuple[]"}],"stateMutability":"view","type":"function"},{"inputs":[{"internalType":"uint256","name":"tokenId","type":"uint256"}],"name":"getNFT","outputs":[{"components":[{"internalType":"uint256","name":"tokenId","type":"uint256"},{"internalType":"string","name":"metadataURI","type":"string"},{"internalType":"uint256","name":"creationTime","type":"uint256"},{"internalType":"address","name":"fractionalContract","type":"address"},{"internalType":"bool","name":"isfractionalized","type":"bool"}],"internalType":"struct NFTCollection.NFTInfo","name":"","type":"tuple"}],"stateMutability":"view","type":"function"},{"inputs":[],"name":"getNFTCount","outputs":[{"internalType":"uint256","name":"","type":"uint256"}],"stateMutability":"view","type":"function"},{"inputs":[{"internalType":"address","name":"owner","type":"address"},{"internalType":"address","name":"operator","type":"address"}],"name":"isApprovedForAll","outputs":[{"internalType":"bool","name":"","type":"bool"}],"stateMutability":"view","type":"function"},{"inputs":[{"internalType":"string","name":"_metadataURI","type":"string"}],"name":"mintNFT","outputs":[{"internalType":"uint256","name":"","type":"uint256"}],"stateMutability":"nonpayable","type":"function"},{"inputs":[],"name":"name","outputs":[{"internalType":"string","name":"","type":"string"}],"stateMutability":"view","type":"function"},{"inputs":[],"name":"nftCount","outputs":[{"internalType":"uint256","name":"","type":"uint256"}],"stateMutability":"view","type":"function"},{"inputs":[],"name":"nftFactory","outputs":[{"internalType":"address","name":"","type":"address"}],"stateMutability":"view","type":"function"},{"inputs":[{"internalType":"uint256","name":"","type":"uint256"}],"name":"nfts","outputs":[{"internalType":"uint256","name":"tokenId","type":"uint256"},{"internalType":"string","name":"metadataURI","type":"string"},{"internalType":"uint256","name":"creationTime","type":"uint256"},{"internalType":"address","name":"fractionalContract","type":"address"},{"internalType":"bool","name":"isfractionalized","type":"bool"}],"stateMutability":"view","type":"function"},{"inputs":[],"name":"owner","outputs":[{"internalType":"address","name":"","type":"address"}],"stateMutability":"view","type":"function"},{"inputs":[{"internalType":"uint256","name":"tokenId","type":"uint256"}],"name":"ownerOf","outputs":[{"internalType":"address","name":"","type":"address"}],"stateMutability":"view","type":"function"},{"inputs":[],"name":"renounceOwnership","outputs":[],"stateMutability":"nonpayable","type":"function"},{"inputs":[{"internalType":"address","name":"from","type":"address"},{"internalType":"address","name":"to","type":"address"},{"internalType":"uint256","name":"tokenId","type":"uint256"}],"name":"safeTransferFrom","outputs":[],"stateMutability":"nonpayable","type":"function"},{"inputs":[{"internalType":"address","name":"from","type":"address"},{"internalType":"address","name":"to","type":"address"},{"internalType":"uint256","name":"tokenId","type":"uint256"},{"internalType":"bytes","name":"data","type":"bytes"}],"name":"safeTransferFrom","outputs":[],"stateMutability":"nonpayable","type":"function"},{"inputs":[{"internalType":"address","name":"operator","type":"address"},{"internalType":"bool","name":"approved","type":"bool"}],"name":"setApprovalForAll","outputs":[],"stateMutability":"nonpayable","type":"function"},{"inputs":[{"internalType":"bytes4","name":"interfaceId","type":"bytes4"}],"name":"supportsInterface","outputs":[{"internalType":"bool","name":"","type":"bool"}],"stateMutability":"view","type":"function"},{"inputs":[],"name":"symbol","outputs":[{"internalType":"string","name":"","type":"string"}],"stateMutability":"view","type":"function"},{"inputs":[{"internalType":"uint256","name":"tokenId","type":"uint256"}],"name":"tokenURI","outputs":[{"internalType":"string","name":"","type":"string"}],"stateMutability":"view","type":"function"},{"inputs":[{"internalType":"address","name":"from","type":"address"},{"internalType":"address","name":"to","type":"address"},{"internalType":"uint256","name":"tokenId","type":"uint256"}],"name":"transferFrom","outputs":[],"stateMutability":"nonpayable","type":"function"},{"inputs":[{"internalType":"address","name":"newOwner","type":"address"}],"name":"transferOwnership","outputs":[],"stateMutability":"nonpayable","type":"function"}],"devdoc":{"details":"ERC721 contract that can fractionalize individual NFTs Each NFT can have its own fractional ownership contract","events":{"Approval(address,address,uint256)":{"details":"Emitted when `owner` enables `approved` to manage the `tokenId` token."},"ApprovalForAll(address,address,bool)":{"details":"Emitted when `owner` enables or disables (`approved`) `operator` to manage all of its assets."},"BatchMetadataUpdate(uint256,uint256)":{"details":"This event emits when the metadata of a range of tokens is changed. So that the third-party platforms such as NFT market could timely update the images and related attributes of the NFTs."},"MetadataUpdate(uint256)":{"details":"This event emits when the metadata of a token is changed. So that the third-party platforms such as NFT market could timely update the images and related attributes of the NFT."},"Transfer(address,address,uint256)":{"details":"Emitted when `tokenId` token is transferred from `from` to `to`."}},"kind":"dev","methods":{"approve(address,uint256)":{"details":"See {IERC721-approve}."},"balanceOf(address)":{"details":"See {IERC721-balanceOf}."},"fractionalizeNFT(uint256,uint256,uint256,string,string)":{"details":"fractionalize an NFT by deploying a FractionalNFT contract","params":{"sharePrice":"Price per share in wei","tokenId":"The NFT to fractionalize","totalShares":"Total number of shares to create"}},"getAllNFTs()":{"details":"Get all NFTs in the collection"},"getApproved(uint256)":{"details":"See {IERC721-getApproved}."},"getCollectionStats()":{"details":"Get collection stats"},"getFractionalizedNFTs()":{"details":"Get fractionalized NFTs only"},"isApprovedForAll(address,address)":{"details":"See {IERC721-isApprovedForAll}."},"mintNFT(string)":{"details":"Mint a new NFT with IPFS metadata","params":{"_metadataURI":"IPFS URI containing all NFT metadata"}},"name()":{"details":"See {IERC721Metadata-name}."},"owner()":{"details":"Returns the address of the current owner."},"ownerOf(uint256)":{"details":"See {IERC721-ownerOf}."},"renounceOwnership()":{"details":"Leaves the contract without owner. It will not be possible to call `onlyOwner` functions. Can only be called by the current owner. NOTE: Renouncing ownership will leave the contract without an owner, thereby disabling any functionality that is only available to the owner."},"safeTransferFrom(address,address,uint256)":{"details":"See {IERC721-safeTransferFrom}."},"safeTransferFrom(address,address,uint256,bytes)":{"details":"See {IERC721-safeTransferFrom}."},"setApprovalForAll(address,bool)":{"details":"See {IERC721-setApprovalForAll}."},"supportsInterface(bytes4)":{"details":"See {IERC165-supportsInterface}"},"symbol()":{"details":"See {IERC721Metadata-symbol}."},"tokenURI(uint256)":{"details":"See {IERC721Metadata-tokenURI}."},"transferFrom(address,address,uint256)":{"details":"See {IERC721-transferFrom}."},"transferOwnership(address)":{"details":"Transfers ownership of the contract to a new account (`newOwner`). Can only be called by the current owner."}},"title":"NFTCollection","version":1},"evm":{"bytecode":{"linkReferences":{},"object":"608060405234620004de5762004a37803803806200001d81620004e3565b92833981019060a081830312620004de5780516001600160401b039290838111620004de57816200005091840162000509565b92602080840151828111620004de57836200006d91860162000509565b92604085015190838211620004de576200008991860162000509565b620000a560806200009d606088016200057b565b96016200057b565b93865192848411620004c8576000918254946001998a87811c97168015620004bd575b84881014620003be578190601f978881116200046a575b508490888311600114620003fd578692620003f1575b5050600019600383901b1c1916908a1b1783555b805190868211620003dd5789548a81811c91168015620003d2575b84821014620003be579081878493116200036b575b50839087831160011462000307578592620002fb575b5050600019600383901b1c191690891b1788555b6200016e3362000590565b876008558251948511620002e757600a548881811c91168015620002dc575b82821014620002c8578481116200027f575b5080938511600114620002125750620001f696909284928362000206575b50501b916000199060031b1c191617600a555b600b80546001600160a01b0319166001600160a01b039290921691909117905562000590565b60405161445d9081620005da8239f35b015192503880620001bd565b9693929091601f19841697600a845280842093905b8982106200026757505083620001f698106200024d575b505050811b01600a55620001d0565b015160001960f88460031b161c191690553880806200023e565b80878596829496860151815501950193019062000227565b600a83528183208580880160051c820192848910620002be575b0160051c019089905b828110620002b25750506200019f565b848155018990620002a2565b9250819262000299565b634e487b7160e01b83526022600452602483fd5b90607f16906200018d565b634e487b7160e01b82526041600452602482fd5b0151905038806200014f565b8b86528486208c94509190601f198416875b878282106200035457505084116200033a575b505050811b01885562000163565b015160001960f88460031b161c191690553880806200032c565b8385015186558f9790950194938401930162000319565b9091508a85528385208780850160051c820192868610620003b4575b918d91869594930160051c01915b828110620003a557505062000139565b8781558594508d910162000395565b9250819262000387565b634e487b7160e01b85526022600452602485fd5b90607f169062000124565b634e487b7160e01b84526041600452602484fd5b015190503880620000f5565b8680528587208d94509190601f198416885b888282106200044a575050841162000430575b505050811b01835562000109565b015160001960f88460031b161c1916905538808062000422565b91929395968291958786015181550195019301908e95949392916200040f565b9091508580528486208880850160051c820192878610620004b3575b918e91869594930160051c01915b828110620004a4575050620000df565b8881558594508e910162000494565b9250819262000486565b96607f1696620000c8565b634e487b7160e01b600052604160045260246000fd5b600080fd5b6040519190601f01601f191682016001600160401b03811183821017620004c857604052565b919080601f84011215620004de5782516001600160401b038111620004c8576020906200053f601f8201601f19168301620004e3565b92818452828287010111620004de5760005b8181106200056757508260009394955001015290565b858101830151848201840152820162000551565b51906001600160a01b0382168203620004de57565b600780546001600160a01b039283166001600160a01b0319821681179092559091167f8be0079c531659141344cd1fd0a4f28419497f9722a3daafe3b4186f6b6457e0600080a356fe60808060405260043610156200001457600080fd5b60003560e01c90816301ffc9a7146200170e5750806306fdde03146200165e578063081812fc146200163c578063095ea7b314620014b65780630af2c6ca14620013a057806323b872dd1462001484578063265aa62114620013ef57806342842e0e14620013c05780635427963714620013a0578063576f7ea714620012dd5780635894bd51146200124d5780635ba809651462000f2b5780636352211e1462000ef75780636d6a18f11462000dbb57806370a082311462000d1f578063715018a61462000cbe5780637400deab1462000c0b5780638da5cb5b1462000be057806395d89b411462000af1578063a22cb4651462000a19578063b88d4fde14620009ab578063c87b56dd146200091c578063d63843cd14620008f1578063e0391b0914620007d2578063e985e9c51462000776578063f2fde38b14620006ab5763fb37e883146200016457600080fd5b34620006a6576020366003190112620006a65760043567ffffffffffffffff8111620006a6576200019a90369060040162001a20565b620001a462001aa7565b60098054600181019091556007546001600160a01b031680156200066257600082815260026020526040902054829190620001ec906001600160a01b031615155b1562002001565b60008281526002602052604090205462000211906001600160a01b03161515620001e5565b8060005260036020526040600020600181540190558160005260026020526040600020816001600160601b0360a01b82541617905560007fddf252ad1be2c89b69c2b068fc378daa952ba7f163c4a11628f55a4df523b3ef8180a46000818152600260205260409020546001600160a01b03161562000606578060005260066020526040600020825167ffffffffffffffff81116200052b57620002b6825462001844565b601f8111620005b9575b50806020601f82116001146200054d5760009162000541575b508160011b916000199060031b1c19161790555b7ff8e1a15aba9398e019f0b49df1a4fde98ee17ae345cb5f6b5e2c27f5033e8ce76020604051838152a16040519162000326836200191f565b8183526020830192818452426040820152600060608201526000608082015282600052600c602052604060002093815185555193845167ffffffffffffffff81116200052b576200037b600183015462001844565b95601f8711620004df575b602096508690601f83116001146200046a576003939291600091836200045e575b505060001982851b1c1916600191821b17908201555b60408301516002820155019060018060a01b03606082015116825491608060ff60a01b910151151560a01b16916affffffffffffffffffffff60a81b16171790556200040b600d5462001fdb565b600d55817f411b345259a1495602cee098e5f501eb3412e0701c10b173ecd8ba7b585974a96200045360018060a01b036007541693604051918291888352888301906200179c565b0390a3604051908152f35b015190503880620003a7565b9060018401600052876000209160005b601f1985168110620004c7575091839160019360039695601f19811610620004ae575b505050811b016001820155620003bd565b015160001983871b60f8161c191690553880806200049d565b9192896001819286850151815501940192016200047a565b600183016000526020600020601f830160051c81016020841062000523575b601f890160051c820181106200051657505062000386565b60008155600101620004fe565b5080620004fe565b634e487b7160e01b600052604160045260246000fd5b905084015138620002d9565b91508260005260206000206000925b601f1983168410620005a0576001935082601f1981161062000586575b5050811b019055620002ed565b86015160001960f88460031b161c19169055388062000579565b868101518255602093840193600190920191016200055c565b826000526020600020601f830160051c81019160208410620005fb575b601f0160051c01905b818110620005ee5750620002c0565b60008155600101620005df565b9091508190620005d6565b60405162461bcd60e51b815260206004820152602e60248201527f45524337323155524953746f726167653a2055524920736574206f66206e6f6e60448201526d32bc34b9ba32b73a103a37b5b2b760911b6064820152608490fd5b606460405162461bcd60e51b815260206004820152602060248201527f4552433732313a206d696e7420746f20746865207a65726f20616464726573736044820152fd5b600080fd5b34620006a6576020366003190112620006a657620006c8620017de565b620006d262001aa7565b6001600160a01b039081169081156200072257600754826001600160601b0360a01b821617600755167f8be0079c531659141344cd1fd0a4f28419497f9722a3daafe3b4186f6b6457e0600080a3005b60405162461bcd60e51b815260206004820152602660248201527f4f776e61626c653a206e6577206f776e657220697320746865207a65726f206160448201526564647265737360d01b6064820152608490fd5b34620006a6576040366003190112620006a65762000793620017de565b6200079d620017f5565b9060018060a01b03809116600052600560205260406000209116600052602052602060ff604060002054166040519015158152f35b34620006a6576000366003190112620006a657620007f2600d54620020d7565b6009546000805b82811062000815576040518062000811868262001a41565b0390f35b80600052600c602081815260019162000835836040600020015462001844565b6200084f575b505050620008499062001fdb565b620007f9565b9160ff6003859693620008e79562000849976000528152620008966040600020916200089e6040519662000883886200191f565b8454885260405193848092870162001881565b038362001959565b8501526002810154604085015201546001600160a01b038116606084015260a01c1615156080820152620008d3828862002131565b52620008e0818762002131565b5062001fdb565b919085806200083b565b34620006a6576000366003190112620006a657600b546040516001600160a01b039091168152602090f35b34620006a6576020366003190112620006a65760043560008181526002602052604090205462000957906001600160a01b0316151562001b00565b6000526006602052620008116200097d6200098560406000206040519283809262001881565b038262001959565b600060405162000995816200193c565b526040519182916020835260208301906200179c565b34620006a6576080366003190112620006a657620009c8620017de565b620009d2620017f5565b6064359167ffffffffffffffff8311620006a65736602384011215620006a65762000a0c62000a17933690602481600401359101620019e4565b916044359162001c15565b005b34620006a6576040366003190112620006a65762000a36620017de565b60243590811515809203620006a6576001600160a01b03169033821462000aac57336000526005602052604060002082600052602052604060002060ff1981541660ff83161790556040519081527f17307eab39ab6107e8899845ad3d59bd9653f200f220920489ca2b5937696c3160203392a3005b60405162461bcd60e51b815260206004820152601960248201527f4552433732313a20617070726f766520746f2063616c6c6572000000000000006044820152606490fd5b34620006a6576000366003190112620006a6576040516000600180549062000b198262001844565b8085529181811690811562000bb7575060011462000b5a575b620008118462000b458186038262001959565b6040519182916020835260208301906200179c565b600081815292507fb10e2d527612073b26eecdfd717e6a320cf44b4afac2b0732d9fcbe2b7fa0cf65b82841062000b9e57505050810160200162000b458262000b32565b8054602085870181019190915290930192810162000b83565b60ff191660208087019190915292151560051b8501909201925062000b45915083905062000b32565b34620006a6576000366003190112620006a6576007546040516001600160a01b039091168152602090f35b34620006a6576000366003190112620006a6576040516000600a5462000c318162001844565b8084529060019081811690811562000bb7575060011462000c5f57620008118462000b458186038262001959565b600a600090815292507fc65a7bb8d6351c1cf70c95a316cc6a92839c986682d98bc35f958f4883f9d2a85b82841062000ca557505050810160200162000b458262000b32565b8054602085870181019190915290930192810162000c8a565b34620006a6576000366003190112620006a65762000cdb62001aa7565b600780546001600160a01b031981169091556000906001600160a01b03167f8be0079c531659141344cd1fd0a4f28419497f9722a3daafe3b4186f6b6457e08280a3005b34620006a6576020366003190112620006a6576001600160a01b0362000d44620017de565b16801562000d645760005260036020526020604060002054604051908152f35b60405162461bcd60e51b815260206004820152602960248201527f4552433732313a2061646472657373207a65726f206973206e6f7420612076616044820152683634b21037bbb732b960b91b6064820152608490fd5b34620006a6576000366003190112620006a6576009546000805b82811062000eaf575062000de990620020d7565b906000805b82811062000e06576040518062000811868262001a41565b806000526020600c81526040600020600381015460ff8160a01c16918262000e3e575b5050505062000e389062001fdb565b62000dee565b9162000ea49391600262000e389697946040519462000e5d866200191f565b815486526040519062000e798262000896816001870162001881565b860152015460408401526001600160a01b0316606083015215156080820152620008d3828862002131565b919085808062000e29565b80600052600c60205260ff60036040600020015460a01c1662000ede575b62000ed89062001fdb565b62000dd5565b9062000eee62000ed89162001fdb565b91905062000ecd565b34620006a6576020366003190112620006a657602062000f1960043562001b4d565b6040516001600160a01b039091168152f35b34620006a65760a0366003190112620006a65767ffffffffffffffff60248035906044359060043590606435858111620006a65762000f6f90369060040162001a20565b90608435868111620006a65762000f8b90369060040162001a20565b9562000f9662001aa7565b60008481526002602052604090205462000fbb906001600160a01b031615156200204e565b62000fc68462001b4d565b6001600160a01b0393903390851603620012095784600052602097600c895260ff60036040600020015460a01c16620011c557871562001175578615620011265785600052600c8952600160406000200191604051946122cb9081870195878710908711176200111257506200108d92620010588796959362001066936200215d89396101008088528701906200179c565b908582038d8701526200179c565b908960408501528860608501523060808501528760a085015283820360c085015262001881565b9060e03391015203906000f0801562001106577ffe60b756980476874d2f8cdfca824f0d687e2cc6d4c7735f696cba055eee6d66916040911694859484600052600c885260038360002001600160a01b876affffffffffffffffffffff60a81b83541617179055825191825287820152a3604051908152f35b6040513d6000823e3d90fd5b634e487b7160e01b60009081526041600452fd5b60405162461bcd60e51b8152600481018a90526022818601527f5368617265207072696365206d7573742062652067726561746572207468616e604482015261020360f41b6064820152608490fd5b60405162461bcd60e51b8152600481018a90526023818601527f546f74616c20736861726573206d75737420626520677265617465722074686160448201526206e20360ec1b6064820152608490fd5b60405162461bcd60e51b8152600481018a9052601a818601527f4e465420616c7265616479206672616374696f6e616c697a65640000000000006044820152606490fd5b60405162461bcd60e51b8152602060048201526019818501527f4e6f7420746865206f776e6572206f662074686973204e4654000000000000006044820152606490fd5b34620006a6576000366003190112620006a657600080600954905b8181106200129557606083600d549060018060a01b03600754169060405192835260208301526040820152f35b80600052600c60205260ff60036040600020015460a01c16620012c4575b620012be9062001fdb565b62001268565b91620012d4620012be9162001fdb565b929050620012b3565b34620006a657602080600319360112620006a657600435620012fe620020a9565b5080600052600c8252620013266200131e60016040600020015462001844565b15156200204e565b600052600c815260406000209060ff60036040519362001346856200191f565b8054855260405162001361816200097d816001860162001881565b8486015260028101546040860152015460018060a01b038116606085015260a01c1615156080830152620008116040519282849384528301906200197c565b34620006a6576000366003190112620006a6576020600d54604051908152f35b34620006a65762000a17620013d5366200180c565b9060405192620013e5846200193c565b6000845262001c15565b34620006a6576020366003190112620006a657600435600052600c602052604060002080546040519162001434836200142c816001850162001881565b038462001959565b60ff600360028301549201546200145e604051958695865260a0602087015260a08601906200179c565b60408501939093526001600160a01b038116606085015260a01c16151560808301520390f35b34620006a65762000a1762001499366200180c565b91620014b0620014aa843362001cba565b62001bb2565b62001d8b565b34620006a6576040366003190112620006a657620014d3620017de565b602435906001600160a01b038080620014ec8562001b4d565b16921691808314620015ed57803314908115620015c7575b50156200155c57600083815260046020526040902080546001600160a01b03191683179055620015348362001b4d565b167f8c5be1e5ebec7d5bd14f71427d1e84f3dd0314c0f7b2291e5b200ac8c7c3b925600080a4005b60405162461bcd60e51b815260206004820152603d60248201527f4552433732313a20617070726f76652063616c6c6572206973206e6f7420746f60448201527f6b656e206f776e6572206f7220617070726f76656420666f7220616c6c0000006064820152608490fd5b9050600052600560205260406000203360005260205260ff604060002054168462001504565b60405162461bcd60e51b815260206004820152602160248201527f4552433732313a20617070726f76616c20746f2063757272656e74206f776e656044820152603960f91b6064820152608490fd5b34620006a6576020366003190112620006a657602062000f1960043562001b72565b34620006a6576000366003190112620006a65760405160008054620016838162001844565b8084529060019081811690811562000bb75750600114620016b157620008118462000b458186038262001959565b600080805292507f290decd9548b62a8d60345a988386fc84ba6bc95484008f6362f93160ef3e5635b828410620016f557505050810160200162000b458262000b32565b80546020858701810191909152909301928101620016da565b34620006a6576020366003190112620006a6576004359063ffffffff60e01b8216809203620006a657602091632483248360e11b811490811562001754575b5015158152f35b6380ac58cd60e01b8114915081156200178a575b811562001778575b50836200174d565b6301ffc9a760e01b1490508362001770565b635b5e139f60e01b8114915062001768565b919082519283825260005b848110620017c9575050826000602080949584010152601f8019910116010190565b602081830181015184830182015201620017a7565b600435906001600160a01b0382168203620006a657565b602435906001600160a01b0382168203620006a657565b6060906003190112620006a6576001600160a01b03906004358281168103620006a657916024359081168103620006a6579060443590565b90600182811c9216801562001876575b60208310146200186057565b634e487b7160e01b600052602260045260246000fd5b91607f169162001854565b9060009291805491620018948362001844565b918282526001938481169081600014620018fb5750600114620018b8575b50505050565b90919394506000526020928360002092846000945b838610620018e6575050505001019038808080620018b2565b805485870183015294019385908201620018cd565b9294505050602093945060ff191683830152151560051b01019038808080620018b2565b60a0810190811067ffffffffffffffff8211176200052b57604052565b6020810190811067ffffffffffffffff8211176200052b57604052565b90601f8019910116810190811067ffffffffffffffff8211176200052b57604052565b90815181526080806200199f602085015160a0602086015260a08501906200179c565b604080860151908501526060808601516001600160a01b031690850152930151151591015290565b67ffffffffffffffff81116200052b57601f01601f191660200190565b929192620019f282620019c7565b9162001a02604051938462001959565b829481845281830111620006a6578281602093846000960137010152565b9080601f83011215620006a65781602062001a3e93359101620019e4565b90565b602080820190808352835180925260408301928160408460051b8301019501936000915b84831062001a765750505050505090565b909192939495848062001a96600193603f198682030187528a516200197c565b980193019301919493929062001a65565b6007546001600160a01b0316330362001abc57565b606460405162461bcd60e51b815260206004820152602060248201527f4f776e61626c653a2063616c6c6572206973206e6f7420746865206f776e65726044820152fd5b1562001b0857565b60405162461bcd60e51b815260206004820152601860248201527f4552433732313a20696e76616c696420746f6b656e20494400000000000000006044820152606490fd5b6000908152600260205260409020546001600160a01b031662001a3e81151562001b00565b60008181526002602052604090205462001b97906001600160a01b0316151562001b00565b6000908152600460205260409020546001600160a01b031690565b1562001bba57565b60405162461bcd60e51b815260206004820152602d60248201527f4552433732313a2063616c6c6572206973206e6f7420746f6b656e206f776e6560448201526c1c881bdc88185c1c1c9bdd9959609a1b6064820152608490fd5b9062001c4093929162001c2d620014aa843362001cba565b62001c3a83838362001d8b565b62001ea5565b1562001c4857565b60405162461bcd60e51b81528062001c636004820162001c67565b0390fd5b60809060208152603260208201527f4552433732313a207472616e7366657220746f206e6f6e20455243373231526560408201527131b2b4bb32b91034b6b83632b6b2b73a32b960711b60608201520190565b906001600160a01b03808062001cd08462001b4d565b1693169183831493841562001d08575b50831562001cef575b50505090565b62001cfd9192935062001b72565b161438808062001ce9565b909350600052600560205260406000208260005260205260ff60406000205416923862001ce0565b1562001d3857565b60405162461bcd60e51b815260206004820152602560248201527f4552433732313a207472616e736665722066726f6d20696e636f72726563742060448201526437bbb732b960d91b6064820152608490fd5b9062001db79162001d9c8462001b4d565b6001600160a01b039391841692849290918316841462001d30565b1691821562001e54578162001dd99162001dd18662001b4d565b161462001d30565b7fddf252ad1be2c89b69c2b068fc378daa952ba7f163c4a11628f55a4df523b3ef60008481526004602052604081206001600160601b0360a01b9081815416905583825260036020526040822060001981540190558482526040822060018154019055858252600260205284604083209182541617905580a4565b60405162461bcd60e51b8152602060048201526024808201527f4552433732313a207472616e7366657220746f20746865207a65726f206164646044820152637265737360e01b6064820152608490fd5b92939190803b1562001fd15762001efa946040518092630a85bd0160e11b9485835233600484015260018060a01b03809816602484015260448301526080606483015281806020998a9560848301906200179c565b03916000988991165af184918162001f86575b5062001f75575050503d60001462001f6c573d62001f2b81620019c7565b9062001f3b604051928362001959565b81528091833d92013e5b8051918262001f695760405162461bcd60e51b81528062001c636004820162001c67565b01fd5b50606062001f45565b6001600160e01b0319161492509050565b9091508581813d831162001fc9575b62001fa1818362001959565b8101031262001fc557516001600160e01b03198116810362001fc557903862001f0d565b8480fd5b503d62001f95565b5050915050600190565b600019811462001feb5760010190565b634e487b7160e01b600052601160045260246000fd5b156200200957565b60405162461bcd60e51b815260206004820152601c60248201527f4552433732313a20746f6b656e20616c7265616479206d696e746564000000006044820152606490fd5b156200205657565b60405162461bcd60e51b815260206004820152601260248201527113919508191bd95cc81b9bdd08195e1a5cdd60721b6044820152606490fd5b67ffffffffffffffff81116200052b5760051b60200190565b60405190620020b8826200191f565b6000608083828152606060208201528260408201528260608201520152565b90620020e38262002090565b620020f2604051918262001959565b828152809262002105601f199162002090565b019060005b8281106200211757505050565b60209062002124620020a9565b828285010152016200210a565b8051821015620021465760209160051b010190565b634e487b7160e01b600052603260045260246000fdfe604060808152346200068657620022cb803803806200001e816200068b565b928339810161010082820312620006865781516001600160401b03929083811162000686578262000051918301620006b1565b90602092838201518581116200068657816200006f918401620006b1565b908683015190606084015190620000896080860162000723565b9760a08601519160c0870151908282116200068657620000b260e091620000ba938a01620006b1565b970162000723565b92875196828811620005705760039182549860019a8b8b811c9b1680156200067b575b8d8c101462000665578c9a8291601f9e8f9283811162000602575b50508c918311600114620005925760009262000586575b505060001982861b1c1916908b1b1783555b8751848111620005705760049889548c81811c9116801562000565575b8c821014620005505782918c8f92838111620004ed575b50508c9183116001146200047d5760009262000471575b505060001982861b1c1916908b1b1788555b620001893362000738565b8960065560018060a01b03948560018060a01b03199d168d600754161760075560085560095580519283116200045c57600a548981811c9116801562000451575b898210146200043c5790818b85949311620003e3575b5088908b841160011462000376576000936200036a575b505082891b92600019911b1c191617600a555b42600b558116958688600c541617600c5582600f55670de0b6b3a76400009081840291848304148415171562000314578715620003295750600254818101809111620003145760007fddf252ad1be2c89b69c2b068fc378daa952ba7f163c4a11628f55a4df523b3ef876200029a95948b946002558484528382528d84208181540190558d51908152a362000738565b84600052600d83528660002055600e549268010000000000000000841015620002ff57830180600e55831015620002ea5750600e600052600020019182541617905551611b499081620007828239f35b603290634e487b7160e01b6000525260246000fd5b604182634e487b7160e01b6000525260246000fd5b601185634e487b7160e01b6000525260246000fd5b84606491878c519262461bcd60e51b845283015260248201527f45524332303a206d696e7420746f20746865207a65726f2061646472657373006044820152fd5b015191503880620001f7565b91908a9450601f19841692600a6000528a6000209360005b8c828210620003cc5750508511620003b1575b50505050811b01600a556200020a565b01519060f884600019921b161c1916905538808080620003a1565b8385015187558e989096019593840193016200038e565b90919250600a600052886000208b80860160051c8201928b871062000432575b918c9187969594930160051c01915b82811062000422575050620001e0565b600081558695508c910162000412565b9250819262000403565b602288634e487b7160e01b6000525260246000fd5b90607f1690620001ca565b604187634e487b7160e01b6000525260246000fd5b0151905038806200016c565b60008c81528d81208f9550929190601f198516908f5b828210620004cc5750508411620004b3575b505050811b0188556200017e565b015160001983881b60f8161c19169055388080620004a5565b91929395968291958786015181550195019301908f95949392918f62000493565b919350918c600052826000209181860160051c830193861062000546575b8f9092828796949593950160051c01915b8281106200052e57508e915062000155565b600091939550809294505501918e918e85946200051c565b925081926200050b565b60228b634e487b7160e01b6000525260246000fd5b90607f16906200013e565b634e487b7160e01b600052604160045260246000fd5b0151905038806200010f565b60008781528d81208f9550929190601f198516908f5b828210620005e15750508411620005c8575b505050811b01835562000121565b015160001983881b60f8161c19169055388080620005ba565b91929395968291958786015181550195019301908f95949392918f620005a8565b9193509187600052826000209181860160051c83019386106200065b575b8f9092828796949593950160051c01915b8281106200064357508e9150620000f8565b600091939550809294505501918e918e859462000631565b9250819262000620565b634e487b7160e01b600052602260045260246000fd5b9a607f169a620000dd565b600080fd5b6040519190601f01601f191682016001600160401b038111838210176200057057604052565b919080601f84011215620006865782516001600160401b0381116200057057602090620006e7601f8201601f191683016200068b565b92818452828287010111620006865760005b8181106200070f57508260009394955001015290565b8581018301518482018401528201620006f9565b51906001600160a01b03821682036200068657565b600580546001600160a01b039283166001600160a01b0319821681179092559091167f8be0079c531659141344cd1fd0a4f28419497f9722a3daafe3b4186f6b6457e0600080a356fe6080604081815260048036101561001557600080fd5b600092833560e01c90816302d05d3f146111585750806306fdde0314611063578063095ea7b3146110395780630ee2cb101461101057806316b6024914610fc357806318160ddd14610fa457806323b872dd14610eda578063313ce56714610ebe57806338ea2fc714610e875780633950935114610e375780634d21e01914610dc2578063589f348114610d8f5780635ede788f14610d705780636588103b14610d4757806370a0823114610d10578063715018a614610cb35780637427a40c14610c7357806375cbf75d14610c465780637b85b13214610c155780637e83057414610bf6578063817bc0cb146102dc5780638477d9f314610a6d5780638726972914610a4e5780638da5cb5b14610a255780638fcb4e5b1461092e578063944e6c96146108f457806395d89b41146107d9578063a457c2d714610732578063a9059cbb14610701578063d1a93d18146102e1578063d5002f2e146102dc578063d8270dce146102bd578063dd62ed3e14610274578063de69b3aa146102385763f2fde38b146101a457600080fd5b34610234576020366003190112610234576101bd6111bd565b916101c66113b0565b6001600160a01b038316156101e257836101df84611408565b80f35b906020608492519162461bcd60e51b8352820152602660248201527f4f776e61626c653a206e6577206f776e657220697320746865207a65726f206160448201526564647265737360d01b6064820152fd5b8280fd5b5050346102705760203660031901126102705760209181906001600160a01b036102606111bd565b168152600d845220549051908152f35b5080fd5b505034610270578060031936011261027057806020926102926111bd565b61029a6111d8565b6001600160a01b0391821683526001865283832091168252845220549051908152f35b505034610270578160031936011261027057602090600b549051908152f35b61135e565b50906020806003193601126106fd578235926002600654146106bc57600260065560098054908115610683576103238680159361031e85156116e4565b61173c565b340361064957670de0b6b3a7640000808702928784048214171561063657600f54870361048f5750506005546001600160a01b0316808752600d845284872054600f549193910361044c5782875286845281858820541061040957508580809361038f82943383611474565b61039a88338361176b565b6103a33361196a565b819034156103ff575b3491f1156103f557907f630b54f21d1c5ae41c4633ad96e8c15ce15665365eded6a38476ffa71c8ace6c915b815193845234908401523392a26103ed6118fc565b600160065580f35b81513d85823e3d90fd5b6108fc91506103ac565b845162461bcd60e51b8152908101849052601d60248201527f4f776e65722068617320696e73756666696369656e74207368617265730000006044820152606490fd5b845162461bcd60e51b8152908101849052601d60248201527f4f776e657220646f65736e2774206861766520616c6c207368617265730000006044820152606490fd5b92969150929385928295835b600e5481108061062d575b156105b7576104b4816111ee565b905460039190911b1c6001600160a01b031633811415806105a4575b6104e4575b506104df9061174f565b61049b565b808652600d83528486205480881161059e575086905b811590811561050b575b50506104d5565b8583949b999302918483048714171561058b5787808086959481946105358f9961053f9a5461173c565b9889923383611474565b61054a88338361176b565b828215610582575bf115610578579161056961056f926104df9461175e565b97611451565b97903880610504565b85513d88823e3d90fd5b506108fc610552565b634e487b7160e01b885260118d52602488fd5b906104fa565b50808652600d83528486205415156104d0565b50945050935094906105ec5750907f630b54f21d1c5ae41c4633ad96e8c15ce15665365eded6a38476ffa71c8ace6c916103d8565b915162461bcd60e51b815291820152601b60248201527f4e6f7420656e6f7567682073686172657320617661696c61626c6500000000006044820152606490fd5b508515156104a6565b634e487b7160e01b885260118452602488fd5b845162461bcd60e51b81528084018590526014602482015273125b98dbdc9c9958dd0811551208185b5bdd5b9d60621b6044820152606490fd5b845162461bcd60e51b8152808401859052601360248201527214da185c99481c1c9a58d9481b9bdd081cd95d606a1b6044820152606490fd5b915162461bcd60e51b815291820152601f60248201527f5265656e7472616e637947756172643a207265656e7472616e742063616c6c006044820152606490fd5b8380fd5b50503461027057806003193601126102705760209061072b6107216111bd565b6024359033611474565b5160018152f35b5082346107d657826003193601126107d65761074c6111bd565b918360243592338152600160205281812060018060a01b03861682526020522054908282106107855760208561072b85850387336115e2565b608490602086519162461bcd60e51b8352820152602560248201527f45524332303a2064656372656173656420616c6c6f77616e63652062656c6f77604482015264207a65726f60d81b6064820152fd5b80fd5b5091346107d657806003193601126107d65781519181845492600184811c918186169586156108ea575b60209687851081146108d7579087899a92868b999a9b5291826000146108ad575050600114610852575b858861084e8961083f848a038561123b565b5192828493845283019061117d565b0390f35b815286935091907f8a35acfbc15ff81a39ae7d344fd709f28e8600b4aa8c65c6b64bfe7fe36bd19b5b828410610895575050508201018161083f61084e3861082d565b8054848a01860152889550879490930192810161087b565b60ff19168882015294151560051b8701909401945085935061083f925061084e915038905061082d565b634e487b7160e01b835260228a52602483fd5b92607f1692610803565b5050346102705760203660031901126102705760209181906001600160a01b0361091c6111bd565b168152600d8452205415159051908152f35b5090346102345780600319360112610234576109486111bd565b906024359283159061095a82156116e4565b338652600d6020528483872054106109ec57670de0b6b3a764000091828602928684041417156109d95750610990908333611474565b61099b83833361176b565b519182526001600160a01b03169033907f99c01cd4f8275976ef33d24514b1694c8a9d5730d92e26996834343e09778e9990602090a36101df6118fc565b634e487b7160e01b865260119052602485fd5b606490602084519162461bcd60e51b83528201526013602482015272496e73756666696369656e742073686172657360681b6044820152fd5b50503461027057816003193601126102705760055490516001600160a01b039091168152602090f35b5050346102705781600319360112610270576020906009549051908152f35b509190346102705781600319360112610270578290600e54610a8e81611a4e565b92610a9b8351948561123b565b818452610aa782611a4e565b6020858101969091601f1901368837610abf84611a66565b92610ac985611a66565b9482600f5490811515905b838110610b40575050505050845195606087019060608852518091526080870197915b818110610b235787890384890152878061084e8989610b168e8b61137c565b918483039085015261137c565b82516001600160a01b031689529783019791830191600101610af7565b610b4c819b969b6111ee565b90546001600160a01b039160039190821b1c8216610b6a848a611a98565b52610b74836111ee565b9054911b1c168b52600d8752898b2054610b8e828a611a98565b528115610bec57610b9f8189611a98565b51606490818102918183041490151715610bd95790610bc184610bd193611aac565b610bcb828c611a98565b5261174f565b999499610ad4565b634e487b7160e01b8c526011865260248cfd5b610bd1908b610bc1565b5050346102705781600319360112610270576020906008549051908152f35b50503461027057816003193601126102705761084e90610c33611273565b905191829160208352602083019061117d565b50503461027057602036600319011261027057602090610c6c610c676111bd565b611acc565b9051908152f35b5034610234576020366003190112610234573591600e548310156107d65750610c9d6020926111ee565b905491519160018060a01b039160031b1c168152f35b83346107d657806003193601126107d657610ccc6113b0565b600580546001600160a01b0319811690915581906001600160a01b03167f8be0079c531659141344cd1fd0a4f28419497f9722a3daafe3b4186f6b6457e08280a380f35b5050346102705760203660031901126102705760209181906001600160a01b03610d386111bd565b16815280845220549051908152f35b50503461027057816003193601126102705760075490516001600160a01b039091168152602090f35b505034610270578160031936011261027057602090600f549051908152f35b5050346102705781600319360112610270576005546001600160a01b03168252600d602090815291819020549051908152f35b8284346107d657806003193601126107d6575060018060a01b038060075416906008549260095491600f54906005541690610e1e600b549360e0610e04611273565b918051998a998a5260208a015288015260e087019061117d565b936060860152608085015260a084015260c08301520390f35b50503461027057806003193601126102705761072b602092610e80610e5a6111bd565b338352600186528483206001600160a01b03821684528652918490205460243590611451565b90336115e2565b5050346102705781600319360112610270576005546001600160a01b03168252600d60209081529181902054600f54915191148152f35b5050346102705781600319360112610270576020905160128152f35b5082903461027057606036600319011261027057610ef66111bd565b610efe6111d8565b91846044359460018060a01b038416815260016020528181203382526020522054906000198203610f38575b60208661072b878787611474565b848210610f615750918391610f566020969561072b950333836115e2565b919394819350610f2a565b606490602087519162461bcd60e51b8352820152601d60248201527f45524332303a20696e73756666696369656e7420616c6c6f77616e63650000006044820152fd5b5050346102705781600319360112610270576020906002549051908152f35b5034610234576020366003190112610234577fce44720b7462058f31ddecab3daa427921e5975d9acb555f043682dada8665699160209135906110046113b0565b8160095551908152a180f35b505034610270578160031936011261027057600c5490516001600160a01b039091168152602090f35b50503461027057806003193601126102705760209061072b6110596111bd565b60243590336115e2565b5091346107d657806003193601126107d6578151918160035492600184811c9181861695861561114e575b60209687851081146108d7578899509688969785829a5291826000146111275750506001146110cb575b50505061084e929161083f91038561123b565b9190869350600383527fc2575a0e9e593c00f959f8c92f12db2869c3395a3b0502d05e2516446f71f85b5b82841061110f575050508201018161083f61084e6110b8565b8054848a0186015288955087949093019281016110f6565b60ff19168782015293151560051b8601909301935084925061083f915061084e90506110b8565b92607f169261108e565b849034610270578160031936011261027057600c546001600160a01b03168152602090f35b919082519283825260005b8481106111a9575050826000602080949584010152601f8019910116010190565b602081830181015184830182015201611188565b600435906001600160a01b03821682036111d357565b600080fd5b602435906001600160a01b03821682036111d357565b600e5481101561122557600e6000527fbb7b4a454dc3493923482f07822329ed19e8244eff582cc204f8554c3620c3fd0190600090565b634e487b7160e01b600052603260045260246000fd5b90601f8019910116810190811067ffffffffffffffff82111761125d57604052565b634e487b7160e01b600052604160045260246000fd5b604051906000600a5490600182811c90808416938415611354575b6020948584108114611340578388528794939291811561132057506001146112c1575b50506112bf9250038361123b565b565b90939150600a6000527fc65a7bb8d6351c1cf70c95a316cc6a92839c986682d98bc35f958f4883f9d2a8936000915b8183106113085750506112bf935082010138806112b1565b855488840185015294850194879450918301916112f0565b9150506112bf94925060ff191682840152151560051b82010138806112b1565b634e487b7160e01b85526022600452602485fd5b91607f169161128e565b346111d35760003660031901126111d3576020600f54604051908152f35b90815180825260208080930193019160005b82811061139c575050505090565b83518552938101939281019260010161138e565b6005546001600160a01b031633036113c457565b606460405162461bcd60e51b815260206004820152602060248201527f4f776e61626c653a2063616c6c6572206973206e6f7420746865206f776e65726044820152fd5b600580546001600160a01b039283166001600160a01b0319821681179092559091167f8be0079c531659141344cd1fd0a4f28419497f9722a3daafe3b4186f6b6457e0600080a3565b9190820180921161145e57565b634e487b7160e01b600052601160045260246000fd5b6001600160a01b0390811691821561158f571691821561153e576000828152806020526040812054918083106114ea57604082827fddf252ad1be2c89b69c2b068fc378daa952ba7f163c4a11628f55a4df523b3ef958760209652828652038282205586815220818154019055604051908152a3565b60405162461bcd60e51b815260206004820152602660248201527f45524332303a207472616e7366657220616d6f756e7420657863656564732062604482015265616c616e636560d01b6064820152608490fd5b60405162461bcd60e51b815260206004820152602360248201527f45524332303a207472616e7366657220746f20746865207a65726f206164647260448201526265737360e81b6064820152608490fd5b60405162461bcd60e51b815260206004820152602560248201527f45524332303a207472616e736665722066726f6d20746865207a65726f206164604482015264647265737360d81b6064820152608490fd5b6001600160a01b0390811691821561169357169182156116435760207f8c5be1e5ebec7d5bd14f71427d1e84f3dd0314c0f7b2291e5b200ac8c7c3b925918360005260018252604060002085600052825280604060002055604051908152a3565b60405162461bcd60e51b815260206004820152602260248201527f45524332303a20617070726f766520746f20746865207a65726f206164647265604482015261737360f01b6064820152608490fd5b60405162461bcd60e51b8152602060048201526024808201527f45524332303a20617070726f76652066726f6d20746865207a65726f206164646044820152637265737360e01b6064820152608490fd5b156116eb57565b60405162461bcd60e51b815260206004820152602360248201527f536861726520616d6f756e74206d75737420626520677265617465722074686160448201526206e20360ec1b6064820152608490fd5b8181029291811591840414171561145e57565b600019811461145e5760010190565b9190820391821161145e57565b9060018060a01b0380921692600091848352600d6020526040832061179183825461175e565b905583811690818452600d6020526040842054156118ba575b508252600d6020526117c160408320918254611451565b9055828152600d6020526040812054156117da57505050565b805b600e805490818310156118b2578491866117f5856111ee565b949054600395861b1c1614611815575050506118109061174f565b6117dc565b919550939260001992909183810190811161189e57906118488561183b611867946111ee565b9054908a1b1c16916111ee565b90919082549060031b9160018060a01b03809116831b921b1916179055565b835490811561188a5750019261187c846111ee565b81939154921b1b1916905555565b634e487b7160e01b81526031600452602490fd5b634e487b7160e01b83526011600452602483fd5b505050505050565b600e54680100000000000000008110156118e857906118488260016118e29401600e556111ee565b386117aa565b634e487b7160e01b85526041600452602485fd5b6005546001600160a01b039081166000805b600e548110156119645783611922826111ee565b90549060031b1c16838103611941575b5061193c9061174f565b61190e565b808352600d6020526040832054600f540361193257925050506112bf915061196a565b50505050565b60055490600061197982611408565b600754600854936001600160a01b03918216803b156106fd57829184606492819560405198899687956323b872dd60e01b8752166004860152169889602485015260448401525af19182611a22575b50906119fc57507ffc8f2d6996e2b706fa4cfb81cb10a53534b07f2010b2488488508f8751f55375602060405160648152a2565b807f71500f809d5718ccb8db09812c9cbd5fdb2c555bac0fd93d9f80b1f9eae4580191a2565b67ffffffffffffffff8111611a3a57604052386119c8565b634e487b7160e01b82526041600452602482fd5b67ffffffffffffffff811161125d5760051b60200190565b90611a7082611a4e565b611a7d604051918261123b565b8281528092611a8e601f1991611a4e565b0190602036910137565b80518210156112255760209160051b010190565b8115611ab6570490565b634e487b7160e01b600052601260045260246000fd5b600f54908115611b0c5760018060a01b0316600052600d6020526040600020549060648202918083046064149015171561145e57611b0991611aac565b90565b505060009056fea264697066735822122005ea8769e155d628c4e53225bfa4094078977e482e07b8fe62fa34e82173632d64736f6c63430008140033a2646970667358221220edf75e4df18fd6b1a513c4825173900971b4caf3e6e26d1b38a20eb036728ffc64736f6c63430008140033","opcodes":"PUSH1 0x80 PUSH1 0x40 MSTORE CALLVALUE PUSH3 0x4DE JUMPI PUSH3 0x4A37 DUP1 CODESIZE SUB DUP1 PUSH3 0x1D DUP2 PUSH3 0x4E3 JUMP JUMPDEST SWAP3 DUP4 CODECOPY DUP2 ADD SWAP1 PUSH1 0xA0 DUP2 DUP4 SUB SLT PUSH3 0x4DE JUMPI DUP1 MLOAD PUSH1 0x1 PUSH1 0x1 PUSH1 0x40 SHL SUB SWAP3 SWAP1 DUP4 DUP2 GT PUSH3 0x4DE JUMPI DUP2 PUSH3 0x50 SWAP2 DUP5 ADD PUSH3 0x509 JUMP JUMPDEST SWAP3 PUSH1 0x20 DUP1 DUP5 ADD MLOAD DUP3 DUP2 GT PUSH3 0x4DE JUMPI DUP4 PUSH3 0x6D SWAP2 DUP7 ADD PUSH3 0x509 JUMP JUMPDEST SWAP3 PUSH1 0x40 DUP6 ADD MLOAD SWAP1 DUP4 DUP3 GT PUSH3 0x4DE JUMPI PUSH3 0x89 SWAP2 DUP7 ADD PUSH3 0x509 JUMP JUMPDEST PUSH3 0xA5 PUSH1 0x80 PUSH3 0x9D PUSH1 0x60 DUP9 ADD PUSH3 0x57B JUMP JUMPDEST SWAP7 ADD PUSH3 0x57B JUMP JUMPDEST SWAP4 DUP7 MLOAD SWAP3 DUP5 DUP5 GT PUSH3 0x4C8 JUMPI PUSH1 0x0 SWAP2 DUP3 SLOAD SWAP5 PUSH1 0x1 SWAP10 DUP11 DUP8 DUP2 SHR SWAP8 AND DUP1 ISZERO PUSH3 0x4BD JUMPI JUMPDEST DUP5 DUP9 LT EQ PUSH3 0x3BE JUMPI DUP2 SWAP1 PUSH1 0x1F SWAP8 DUP9 DUP2 GT PUSH3 0x46A JUMPI JUMPDEST POP DUP5 SWAP1 DUP9 DUP4 GT PUSH1 0x1 EQ PUSH3 0x3FD JUMPI DUP7 SWAP3 PUSH3 0x3F1 JUMPI JUMPDEST POP POP PUSH1 0x0 NOT PUSH1 0x3 DUP4 SWAP1 SHL SHR NOT AND SWAP1 DUP11 SHL OR DUP4 SSTORE JUMPDEST DUP1 MLOAD SWAP1 DUP7 DUP3 GT PUSH3 0x3DD JUMPI DUP10 SLOAD DUP11 DUP2 DUP2 SHR SWAP2 AND DUP1 ISZERO PUSH3 0x3D2 JUMPI JUMPDEST DUP5 DUP3 LT EQ PUSH3 0x3BE JUMPI SWAP1 DUP2 DUP8 DUP5 SWAP4 GT PUSH3 0x36B JUMPI JUMPDEST POP DUP4 SWAP1 DUP8 DUP4 GT PUSH1 0x1 EQ PUSH3 0x307 JUMPI DUP6 SWAP3 PUSH3 0x2FB JUMPI JUMPDEST POP POP PUSH1 0x0 NOT PUSH1 0x3 DUP4 SWAP1 SHL SHR NOT AND SWAP1 DUP10 SHL OR DUP9 SSTORE JUMPDEST PUSH3 0x16E CALLER PUSH3 0x590 JUMP JUMPDEST DUP8 PUSH1 0x8 SSTORE DUP3 MLOAD SWAP5 DUP6 GT PUSH3 0x2E7 JUMPI PUSH1 0xA SLOAD DUP9 DUP2 DUP2 SHR SWAP2 AND DUP1 ISZERO PUSH3 0x2DC JUMPI JUMPDEST DUP3 DUP3 LT EQ PUSH3 0x2C8 JUMPI DUP5 DUP2 GT PUSH3 0x27F JUMPI JUMPDEST POP DUP1 SWAP4 DUP6 GT PUSH1 0x1 EQ PUSH3 0x212 JUMPI POP PUSH3 0x1F6 SWAP7 SWAP1 SWAP3 DUP5 SWAP3 DUP4 PUSH3 0x206 JUMPI JUMPDEST POP POP SHL SWAP2 PUSH1 0x0 NOT SWAP1 PUSH1 0x3 SHL SHR NOT AND OR PUSH1 0xA SSTORE JUMPDEST PUSH1 0xB DUP1 SLOAD PUSH1 0x1 PUSH1 0x1 PUSH1 0xA0 SHL SUB NOT AND PUSH1 0x1 PUSH1 0x1 PUSH1 0xA0 SHL SUB SWAP3 SWAP1 SWAP3 AND SWAP2 SWAP1 SWAP2 OR SWAP1 SSTORE PUSH3 0x590 JUMP JUMPDEST PUSH1 0x40 MLOAD PUSH2 0x445D SWAP1 DUP2 PUSH3 0x5DA DUP3 CODECOPY RETURN JUMPDEST ADD MLOAD SWAP3 POP CODESIZE DUP1 PUSH3 0x1BD JUMP JUMPDEST SWAP7 SWAP4 SWAP3 SWAP1 SWAP2 PUSH1 0x1F NOT DUP5 AND SWAP8 PUSH1 0xA DUP5 MSTORE DUP1 DUP5 KECCAK256 SWAP4 SWAP1 JUMPDEST DUP10 DUP3 LT PUSH3 0x267 JUMPI POP POP DUP4 PUSH3 0x1F6 SWAP9 LT PUSH3 0x24D JUMPI JUMPDEST POP POP POP DUP2 SHL ADD PUSH1 0xA SSTORE PUSH3 0x1D0 JUMP JUMPDEST ADD MLOAD PUSH1 0x0 NOT PUSH1 0xF8 DUP5 PUSH1 0x3 SHL AND SHR NOT AND SWAP1 SSTORE CODESIZE DUP1 DUP1 PUSH3 0x23E JUMP JUMPDEST DUP1 DUP8 DUP6 SWAP7 DUP3 SWAP5 SWAP7 DUP7 ADD MLOAD DUP2 SSTORE ADD SWAP6 ADD SWAP4 ADD SWAP1 PUSH3 0x227 JUMP JUMPDEST PUSH1 0xA DUP4 MSTORE DUP2 DUP4 KECCAK256 DUP6 DUP1 DUP9 ADD PUSH1 0x5 SHR DUP3 ADD SWAP3 DUP5 DUP10 LT PUSH3 0x2BE JUMPI JUMPDEST ADD PUSH1 0x5 SHR ADD SWAP1 DUP10 SWAP1 JUMPDEST DUP3 DUP2 LT PUSH3 0x2B2 JUMPI POP POP PUSH3 0x19F JUMP JUMPDEST DUP5 DUP2 SSTORE ADD DUP10 SWAP1 PUSH3 0x2A2 JUMP JUMPDEST SWAP3 POP DUP2 SWAP3 PUSH3 0x299 JUMP JUMPDEST PUSH4 0x4E487B71 PUSH1 0xE0 SHL DUP4 MSTORE PUSH1 0x22 PUSH1 0x4 MSTORE PUSH1 0x24 DUP4 REVERT JUMPDEST SWAP1 PUSH1 0x7F AND SWAP1 PUSH3 0x18D JUMP JUMPDEST PUSH4 0x4E487B71 PUSH1 0xE0 SHL DUP3 MSTORE PUSH1 0x41 PUSH1 0x4 MSTORE PUSH1 0x24 DUP3 REVERT JUMPDEST ADD MLOAD SWAP1 POP CODESIZE DUP1 PUSH3 0x14F JUMP JUMPDEST DUP12 DUP7 MSTORE DUP5 DUP7 KECCAK256 DUP13 SWAP5 POP SWAP2 SWAP1 PUSH1 0x1F NOT DUP5 AND DUP8 JUMPDEST DUP8 DUP3 DUP3 LT PUSH3 0x354 JUMPI POP POP DUP5 GT PUSH3 0x33A JUMPI JUMPDEST POP POP POP DUP2 SHL ADD DUP9 SSTORE PUSH3 0x163 JUMP JUMPDEST ADD MLOAD PUSH1 0x0 NOT PUSH1 0xF8 DUP5 PUSH1 0x3 SHL AND SHR NOT AND SWAP1 SSTORE CODESIZE DUP1 DUP1 PUSH3 0x32C JUMP JUMPDEST DUP4 DUP6 ADD MLOAD DUP7 SSTORE DUP16 SWAP8 SWAP1 SWAP6 ADD SWAP5 SWAP4 DUP5 ADD SWAP4 ADD PUSH3 0x319 JUMP JUMPDEST SWAP1 SWAP2 POP DUP11 DUP6 MSTORE DUP4 DUP6 KECCAK256 DUP8 DUP1 DUP6 ADD PUSH1 0x5 SHR DUP3 ADD SWAP3 DUP7 DUP7 LT PUSH3 0x3B4 JUMPI JUMPDEST SWAP2 DUP14 SWAP2 DUP7 SWAP6 SWAP5 SWAP4 ADD PUSH1 0x5 SHR ADD SWAP2 JUMPDEST DUP3 DUP2 LT PUSH3 0x3A5 JUMPI POP POP PUSH3 0x139 JUMP JUMPDEST DUP8 DUP2 SSTORE DUP6 SWAP5 POP DUP14 SWAP2 ADD PUSH3 0x395 JUMP JUMPDEST SWAP3 POP DUP2 SWAP3 PUSH3 0x387 JUMP JUMPDEST PUSH4 0x4E487B71 PUSH1 0xE0 SHL DUP6 MSTORE PUSH1 0x22 PUSH1 0x4 MSTORE PUSH1 0x24 DUP6 REVERT JUMPDEST SWAP1 PUSH1 0x7F AND SWAP1 PUSH3 0x124 JUMP JUMPDEST PUSH4 0x4E487B71 PUSH1 0xE0 SHL DUP5 MSTORE PUSH1 0x41 PUSH1 0x4 MSTORE PUSH1 0x24 DUP5 REVERT JUMPDEST ADD MLOAD SWAP1 POP CODESIZE DUP1 PUSH3 0xF5 JUMP JUMPDEST DUP7 DUP1 MSTORE DUP6 DUP8 KECCAK256 DUP14 SWAP5 POP SWAP2 SWAP1 PUSH1 0x1F NOT DUP5 AND DUP9 JUMPDEST DUP9 DUP3 DUP3 LT PUSH3 0x44A JUMPI POP POP DUP5 GT PUSH3 0x430 JUMPI JUMPDEST POP POP POP DUP2 SHL ADD DUP4 SSTORE PUSH3 0x109 JUMP JUMPDEST ADD MLOAD PUSH1 0x0 NOT PUSH1 0xF8 DUP5 PUSH1 0x3 SHL AND SHR NOT AND SWAP1 SSTORE CODESIZE DUP1 DUP1 PUSH3 0x422 JUMP JUMPDEST SWAP2 SWAP3 SWAP4 SWAP6 SWAP7 DUP3 SWAP2 SWAP6 DUP8 DUP7 ADD MLOAD DUP2 SSTORE ADD SWAP6 ADD SWAP4 ADD SWAP1 DUP15 SWAP6 SWAP5 SWAP4 SWAP3 SWAP2 PUSH3 0x40F JUMP JUMPDEST SWAP1 SWAP2 POP DUP6 DUP1 MSTORE DUP5 DUP7 KECCAK256 DUP9 DUP1 DUP6 ADD PUSH1 0x5 SHR DUP3 ADD SWAP3 DUP8 DUP7 LT PUSH3 0x4B3 JUMPI JUMPDEST SWAP2 DUP15 SWAP2 DUP7 SWAP6 SWAP5 SWAP4 ADD PUSH1 0x5 SHR ADD SWAP2 JUMPDEST DUP3 DUP2 LT PUSH3 0x4A4 JUMPI POP POP PUSH3 0xDF JUMP JUMPDEST DUP9 DUP2 SSTORE DUP6 SWAP5 POP DUP15 SWAP2 ADD PUSH3 0x494 JUMP JUMPDEST SWAP3 POP DUP2 SWAP3 PUSH3 0x486 JUMP JUMPDEST SWAP7 PUSH1 0x7F AND SWAP7 PUSH3 0xC8 JUMP JUMPDEST PUSH4 0x4E487B71 PUSH1 0xE0 SHL PUSH1 0x0 MSTORE PUSH1 0x41 PUSH1 0x4 MSTORE PUSH1 0x24 PUSH1 0x0 REVERT JUMPDEST PUSH1 0x0 DUP1 REVERT JUMPDEST PUSH1 0x40 MLOAD SWAP2 SWAP1 PUSH1 0x1F ADD PUSH1 0x1F NOT AND DUP3 ADD PUSH1 0x1 PUSH1 0x1 PUSH1 0x40 SHL SUB DUP2 GT DUP4 DUP3 LT OR PUSH3 0x4C8 JUMPI PUSH1 0x40 MSTORE JUMP JUMPDEST SWAP2 SWAP1 DUP1 PUSH1 0x1F DUP5 ADD SLT ISZERO PUSH3 0x4DE JUMPI DUP3 MLOAD PUSH1 0x1 PUSH1 0x1 PUSH1 0x40 SHL SUB DUP2 GT PUSH3 0x4C8 JUMPI PUSH1 0x20 SWAP1 PUSH3 0x53F PUSH1 0x1F DUP3 ADD PUSH1 0x1F NOT AND DUP4 ADD PUSH3 0x4E3 JUMP JUMPDEST SWAP3 DUP2 DUP5 MSTORE DUP3 DUP3 DUP8 ADD ADD GT PUSH3 0x4DE JUMPI PUSH1 0x0 JUMPDEST DUP2 DUP2 LT PUSH3 0x567 JUMPI POP DUP3 PUSH1 0x0 SWAP4 SWAP5 SWAP6 POP ADD ADD MSTORE SWAP1 JUMP JUMPDEST DUP6 DUP2 ADD DUP4 ADD MLOAD DUP5 DUP3 ADD DUP5 ADD MSTORE DUP3 ADD PUSH3 0x551 JUMP JUMPDEST MLOAD SWAP1 PUSH1 0x1 PUSH1 0x1 PUSH1 0xA0 SHL SUB DUP3 AND DUP3 SUB PUSH3 0x4DE JUMPI JUMP JUMPDEST PUSH1 0x7 DUP1 SLOAD PUSH1 0x1 PUSH1 0x1 PUSH1 0xA0 SHL SUB SWAP3 DUP4 AND PUSH1 0x1 PUSH1 0x1 PUSH1 0xA0 SHL SUB NOT DUP3 AND DUP2 OR SWAP1 SWAP3 SSTORE SWAP1 SWAP2 AND PUSH32 0x8BE0079C531659141344CD1FD0A4F28419497F9722A3DAAFE3B4186F6B6457E0 PUSH1 0x0 DUP1 LOG3 JUMP INVALID PUSH1 0x80 DUP1 PUSH1 0x40 MSTORE PUSH1 0x4 CALLDATASIZE LT ISZERO PUSH3 0x14 JUMPI PUSH1 0x0 DUP1 REVERT JUMPDEST PUSH1 0x0 CALLDATALOAD PUSH1 0xE0 SHR SWAP1 DUP2 PUSH4 0x1FFC9A7 EQ PUSH3 0x170E JUMPI POP DUP1 PUSH4 0x6FDDE03 EQ PUSH3 0x165E JUMPI DUP1 PUSH4 0x81812FC EQ PUSH3 0x163C JUMPI DUP1 PUSH4 0x95EA7B3 EQ PUSH3 0x14B6 JUMPI DUP1 PUSH4 0xAF2C6CA EQ PUSH3 0x13A0 JUMPI DUP1 PUSH4 0x23B872DD EQ PUSH3 0x1484 JUMPI DUP1 PUSH4 0x265AA621 EQ PUSH3 0x13EF JUMPI DUP1 PUSH4 0x42842E0E EQ PUSH3 0x13C0 JUMPI DUP1 PUSH4 0x54279637 EQ PUSH3 0x13A0 JUMPI DUP1 PUSH4 0x576F7EA7 EQ PUSH3 0x12DD JUMPI DUP1 PUSH4 0x5894BD51 EQ PUSH3 0x124D JUMPI DUP1 PUSH4 0x5BA80965 EQ PUSH3 0xF2B JUMPI DUP1 PUSH4 0x6352211E EQ PUSH3 0xEF7 JUMPI DUP1 PUSH4 0x6D6A18F1 EQ PUSH3 0xDBB JUMPI DUP1 PUSH4 0x70A08231 EQ PUSH3 0xD1F JUMPI DUP1 PUSH4 0x715018A6 EQ PUSH3 0xCBE JUMPI DUP1 PUSH4 0x7400DEAB EQ PUSH3 0xC0B JUMPI DUP1 PUSH4 0x8DA5CB5B EQ PUSH3 0xBE0 JUMPI DUP1 PUSH4 0x95D89B41 EQ PUSH3 0xAF1 JUMPI DUP1 PUSH4 0xA22CB465 EQ PUSH3 0xA19 JUMPI DUP1 PUSH4 0xB88D4FDE EQ PUSH3 0x9AB JUMPI DUP1 PUSH4 0xC87B56DD EQ PUSH3 0x91C JUMPI DUP1 PUSH4 0xD63843CD EQ PUSH3 0x8F1 JUMPI DUP1 PUSH4 0xE0391B09 EQ PUSH3 0x7D2 JUMPI DUP1 PUSH4 0xE985E9C5 EQ PUSH3 0x776 JUMPI DUP1 PUSH4 0xF2FDE38B EQ PUSH3 0x6AB JUMPI PUSH4 0xFB37E883 EQ PUSH3 0x164 JUMPI PUSH1 0x0 DUP1 REVERT JUMPDEST CALLVALUE PUSH3 0x6A6 JUMPI PUSH1 0x20 CALLDATASIZE PUSH1 0x3 NOT ADD SLT PUSH3 0x6A6 JUMPI PUSH1 0x4 CALLDATALOAD PUSH8 0xFFFFFFFFFFFFFFFF DUP2 GT PUSH3 0x6A6 JUMPI PUSH3 0x19A SWAP1 CALLDATASIZE SWAP1 PUSH1 0x4 ADD PUSH3 0x1A20 JUMP JUMPDEST PUSH3 0x1A4 PUSH3 0x1AA7 JUMP JUMPDEST PUSH1 0x9 DUP1 SLOAD PUSH1 0x1 DUP2 ADD SWAP1 SWAP2 SSTORE PUSH1 0x7 SLOAD PUSH1 0x1 PUSH1 0x1 PUSH1 0xA0 SHL SUB AND DUP1 ISZERO PUSH3 0x662 JUMPI PUSH1 0x0 DUP3 DUP2 MSTORE PUSH1 0x2 PUSH1 0x20 MSTORE PUSH1 0x40 SWAP1 KECCAK256 SLOAD DUP3 SWAP2 SWAP1 PUSH3 0x1EC SWAP1 PUSH1 0x1 PUSH1 0x1 PUSH1 0xA0 SHL SUB AND ISZERO ISZERO JUMPDEST ISZERO PUSH3 0x2001 JUMP JUMPDEST PUSH1 0x0 DUP3 DUP2 MSTORE PUSH1 0x2 PUSH1 0x20 MSTORE PUSH1 0x40 SWAP1 KECCAK256 SLOAD PUSH3 0x211 SWAP1 PUSH1 0x1 PUSH1 0x1 PUSH1 0xA0 SHL SUB AND ISZERO ISZERO PUSH3 0x1E5 JUMP JUMPDEST DUP1 PUSH1 0x0 MSTORE PUSH1 0x3 PUSH1 0x20 MSTORE PUSH1 0x40 PUSH1 0x0 KECCAK256 PUSH1 0x1 DUP2 SLOAD ADD SWAP1 SSTORE DUP2 PUSH1 0x0 MSTORE PUSH1 0x2 PUSH1 0x20 MSTORE PUSH1 0x40 PUSH1 0x0 KECCAK256 DUP2 PUSH1 0x1 PUSH1 0x1 PUSH1 0x60 SHL SUB PUSH1 0xA0 SHL DUP3 SLOAD AND OR SWAP1 SSTORE PUSH1 0x0 PUSH32 0xDDF252AD1BE2C89B69C2B068FC378DAA952BA7F163C4A11628F55A4DF523B3EF DUP2 DUP1 LOG4 PUSH1 0x0 DUP2 DUP2 MSTORE PUSH1 0x2 PUSH1 0x20 MSTORE PUSH1 0x40 SWAP1 KECCAK256 SLOAD PUSH1 0x1 PUSH1 0x1 PUSH1 0xA0 SHL SUB AND ISZERO PUSH3 0x606 JUMPI DUP1 PUSH1 0x0 MSTORE PUSH1 0x6 PUSH1 0x20 MSTORE PUSH1 0x40 PUSH1 0x0 KECCAK256 DUP3 MLOAD PUSH8 0xFFFFFFFFFFFFFFFF DUP2 GT PUSH3 0x52B JUMPI PUSH3 0x2B6 DUP3 SLOAD PUSH3 0x1844 JUMP JUMPDEST PUSH1 0x1F DUP2 GT PUSH3 0x5B9 JUMPI JUMPDEST POP DUP1 PUSH1 0x20 PUSH1 0x1F DUP3 GT PUSH1 0x1 EQ PUSH3 0x54D JUMPI PUSH1 0x0 SWAP2 PUSH3 0x541 JUMPI JUMPDEST POP DUP2 PUSH1 0x1 SHL SWAP2 PUSH1 0x0 NOT SWAP1 PUSH1 0x3 SHL SHR NOT AND OR SWAP1 SSTORE JUMPDEST PUSH32 0xF8E1A15ABA9398E019F0B49DF1A4FDE98EE17AE345CB5F6B5E2C27F5033E8CE7 PUSH1 0x20 PUSH1 0x40 MLOAD DUP4 DUP2 MSTORE LOG1 PUSH1 0x40 MLOAD SWAP2 PUSH3 0x326 DUP4 PUSH3 0x191F JUMP JUMPDEST DUP2 DUP4 MSTORE PUSH1 0x20 DUP4 ADD SWAP3 DUP2 DUP5 MSTORE TIMESTAMP PUSH1 0x40 DUP3 ADD MSTORE PUSH1 0x0 PUSH1 0x60 DUP3 ADD MSTORE PUSH1 0x0 PUSH1 0x80 DUP3 ADD MSTORE DUP3 PUSH1 0x0 MSTORE PUSH1 0xC PUSH1 0x20 MSTORE PUSH1 0x40 PUSH1 0x0 KECCAK256 SWAP4 DUP2 MLOAD DUP6 SSTORE MLOAD SWAP4 DUP5 MLOAD PUSH8 0xFFFFFFFFFFFFFFFF DUP2 GT PUSH3 0x52B JUMPI PUSH3 0x37B PUSH1 0x1 DUP4 ADD SLOAD PUSH3 0x1844 JUMP JUMPDEST SWAP6 PUSH1 0x1F DUP8 GT PUSH3 0x4DF JUMPI JUMPDEST PUSH1 0x20 SWAP7 POP DUP7 SWAP1 PUSH1 0x1F DUP4 GT PUSH1 0x1 EQ PUSH3 0x46A JUMPI PUSH1 0x3 SWAP4 SWAP3 SWAP2 PUSH1 0x0 SWAP2 DUP4 PUSH3 0x45E JUMPI JUMPDEST POP POP PUSH1 0x0 NOT DUP3 DUP6 SHL SHR NOT AND PUSH1 0x1 SWAP2 DUP3 SHL OR SWAP1 DUP3 ADD SSTORE JUMPDEST PUSH1 0x40 DUP4 ADD MLOAD PUSH1 0x2 DUP3 ADD SSTORE ADD SWAP1 PUSH1 0x1 DUP1 PUSH1 0xA0 SHL SUB PUSH1 0x60 DUP3 ADD MLOAD AND DUP3 SLOAD SWAP2 PUSH1 0x80 PUSH1 0xFF PUSH1 0xA0 SHL SWAP2 ADD MLOAD ISZERO ISZERO PUSH1 0xA0 SHL AND SWAP2 PUSH11 0xFFFFFFFFFFFFFFFFFFFFFF PUSH1 0xA8 SHL AND OR OR SWAP1 SSTORE PUSH3 0x40B PUSH1 0xD SLOAD PUSH3 0x1FDB JUMP JUMPDEST PUSH1 0xD SSTORE DUP2 PUSH32 0x411B345259A1495602CEE098E5F501EB3412E0701C10B173ECD8BA7B585974A9 PUSH3 0x453 PUSH1 0x1 DUP1 PUSH1 0xA0 SHL SUB PUSH1 0x7 SLOAD AND SWAP4 PUSH1 0x40 MLOAD SWAP2 DUP3 SWAP2 DUP9 DUP4 MSTORE DUP9 DUP4 ADD SWAP1 PUSH3 0x179C JUMP JUMPDEST SUB SWAP1 LOG3 PUSH1 0x40 MLOAD SWAP1 DUP2 MSTORE RETURN JUMPDEST ADD MLOAD SWAP1 POP CODESIZE DUP1 PUSH3 0x3A7 JUMP JUMPDEST SWAP1 PUSH1 0x1 DUP5 ADD PUSH1 0x0 MSTORE DUP8 PUSH1 0x0 KECCAK256 SWAP2 PUSH1 0x0 JUMPDEST PUSH1 0x1F NOT DUP6 AND DUP2 LT PUSH3 0x4C7 JUMPI POP SWAP2 DUP4 SWAP2 PUSH1 0x1 SWAP4 PUSH1 0x3 SWAP7 SWAP6 PUSH1 0x1F NOT DUP2 AND LT PUSH3 0x4AE JUMPI JUMPDEST POP POP POP DUP2 SHL ADD PUSH1 0x1 DUP3 ADD SSTORE PUSH3 0x3BD JUMP JUMPDEST ADD MLOAD PUSH1 0x0 NOT DUP4 DUP8 SHL PUSH1 0xF8 AND SHR NOT AND SWAP1 SSTORE CODESIZE DUP1 DUP1 PUSH3 0x49D JUMP JUMPDEST SWAP2 SWAP3 DUP10 PUSH1 0x1 DUP2 SWAP3 DUP7 DUP6 ADD MLOAD DUP2 SSTORE ADD SWAP5 ADD SWAP3 ADD PUSH3 0x47A JUMP JUMPDEST PUSH1 0x1 DUP4 ADD PUSH1 0x0 MSTORE PUSH1 0x20 PUSH1 0x0 KECCAK256 PUSH1 0x1F DUP4 ADD PUSH1 0x5 SHR DUP2 ADD PUSH1 0x20 DUP5 LT PUSH3 0x523 JUMPI JUMPDEST PUSH1 0x1F DUP10 ADD PUSH1 0x5 SHR DUP3 ADD DUP2 LT PUSH3 0x516 JUMPI POP POP PUSH3 0x386 JUMP JUMPDEST PUSH1 0x0 DUP2 SSTORE PUSH1 0x1 ADD PUSH3 0x4FE JUMP JUMPDEST POP DUP1 PUSH3 0x4FE JUMP JUMPDEST PUSH4 0x4E487B71 PUSH1 0xE0 SHL PUSH1 0x0 MSTORE PUSH1 0x41 PUSH1 0x4 MSTORE PUSH1 0x24 PUSH1 0x0 REVERT JUMPDEST SWAP1 POP DUP5 ADD MLOAD CODESIZE PUSH3 0x2D9 JUMP JUMPDEST SWAP2 POP DUP3 PUSH1 0x0 MSTORE PUSH1 0x20 PUSH1 0x0 KECCAK256 PUSH1 0x0 SWAP3 JUMPDEST PUSH1 0x1F NOT DUP4 AND DUP5 LT PUSH3 0x5A0 JUMPI PUSH1 0x1 SWAP4 POP DUP3 PUSH1 0x1F NOT DUP2 AND LT PUSH3 0x586 JUMPI JUMPDEST POP POP DUP2 SHL ADD SWAP1 SSTORE PUSH3 0x2ED JUMP JUMPDEST DUP7 ADD MLOAD PUSH1 0x0 NOT PUSH1 0xF8 DUP5 PUSH1 0x3 SHL AND SHR NOT AND SWAP1 SSTORE CODESIZE DUP1 PUSH3 0x579 JUMP JUMPDEST DUP7 DUP2 ADD MLOAD DUP3 SSTORE PUSH1 0x20 SWAP4 DUP5 ADD SWAP4 PUSH1 0x1 SWAP1 SWAP3 ADD SWAP2 ADD PUSH3 0x55C JUMP JUMPDEST DUP3 PUSH1 0x0 MSTORE PUSH1 0x20 PUSH1 0x0 KECCAK256 PUSH1 0x1F DUP4 ADD PUSH1 0x5 SHR DUP2 ADD SWAP2 PUSH1 0x20 DUP5 LT PUSH3 0x5FB JUMPI JUMPDEST PUSH1 0x1F ADD PUSH1 0x5 SHR ADD SWAP1 JUMPDEST DUP2 DUP2 LT PUSH3 0x5EE JUMPI POP PUSH3 0x2C0 JUMP JUMPDEST PUSH1 0x0 DUP2 SSTORE PUSH1 0x1 ADD PUSH3 0x5DF JUMP JUMPDEST SWAP1 SWAP2 POP DUP2 SWAP1 PUSH3 0x5D6 JUMP JUMPDEST PUSH1 0x40 MLOAD PUSH3 0x461BCD PUSH1 0xE5 SHL DUP2 MSTORE PUSH1 0x20 PUSH1 0x4 DUP3 ADD MSTORE PUSH1 0x2E PUSH1 0x24 DUP3 ADD MSTORE PUSH32 0x45524337323155524953746F726167653A2055524920736574206F66206E6F6E PUSH1 0x44 DUP3 ADD MSTORE PUSH14 0x32BC34B9BA32B73A103A37B5B2B7 PUSH1 0x91 SHL PUSH1 0x64 DUP3 ADD MSTORE PUSH1 0x84 SWAP1 REVERT JUMPDEST PUSH1 0x64 PUSH1 0x40 MLOAD PUSH3 0x461BCD PUSH1 0xE5 SHL DUP2 MSTORE PUSH1 0x20 PUSH1 0x4 DUP3 ADD MSTORE PUSH1 0x20 PUSH1 0x24 DUP3 ADD MSTORE PUSH32 0x4552433732313A206D696E7420746F20746865207A65726F2061646472657373 PUSH1 0x44 DUP3 ADD MSTORE REVERT JUMPDEST PUSH1 0x0 DUP1 REVERT JUMPDEST CALLVALUE PUSH3 0x6A6 JUMPI PUSH1 0x20 CALLDATASIZE PUSH1 0x3 NOT ADD SLT PUSH3 0x6A6 JUMPI PUSH3 0x6C8 PUSH3 0x17DE JUMP JUMPDEST PUSH3 0x6D2 PUSH3 0x1AA7 JUMP JUMPDEST PUSH1 0x1 PUSH1 0x1 PUSH1 0xA0 SHL SUB SWAP1 DUP2 AND SWAP1 DUP2 ISZERO PUSH3 0x722 JUMPI PUSH1 0x7 SLOAD DUP3 PUSH1 0x1 PUSH1 0x1 PUSH1 0x60 SHL SUB PUSH1 0xA0 SHL DUP3 AND OR PUSH1 0x7 SSTORE AND PUSH32 0x8BE0079C531659141344CD1FD0A4F28419497F9722A3DAAFE3B4186F6B6457E0 PUSH1 0x0 DUP1 LOG3 STOP JUMPDEST PUSH1 0x40 MLOAD PUSH3 0x461BCD PUSH1 0xE5 SHL DUP2 MSTORE PUSH1 0x20 PUSH1 0x4 DUP3 ADD MSTORE PUSH1 0x26 PUSH1 0x24 DUP3 ADD MSTORE PUSH32 0x4F776E61626C653A206E6577206F776E657220697320746865207A65726F2061 PUSH1 0x44 DUP3 ADD MSTORE PUSH6 0x646472657373 PUSH1 0xD0 SHL PUSH1 0x64 DUP3 ADD MSTORE PUSH1 0x84 SWAP1 REVERT JUMPDEST CALLVALUE PUSH3 0x6A6 JUMPI PUSH1 0x40 CALLDATASIZE PUSH1 0x3 NOT ADD SLT PUSH3 0x6A6 JUMPI PUSH3 0x793 PUSH3 0x17DE JUMP JUMPDEST PUSH3 0x79D PUSH3 0x17F5 JUMP JUMPDEST SWAP1 PUSH1 0x1 DUP1 PUSH1 0xA0 SHL SUB DUP1 SWAP2 AND PUSH1 0x0 MSTORE PUSH1 0x5 PUSH1 0x20 MSTORE PUSH1 0x40 PUSH1 0x0 KECCAK256 SWAP2 AND PUSH1 0x0 MSTORE PUSH1 0x20 MSTORE PUSH1 0x20 PUSH1 0xFF PUSH1 0x40 PUSH1 0x0 KECCAK256 SLOAD AND PUSH1 0x40 MLOAD SWAP1 ISZERO ISZERO DUP2 MSTORE RETURN JUMPDEST CALLVALUE PUSH3 0x6A6 JUMPI PUSH1 0x0 CALLDATASIZE PUSH1 0x3 NOT ADD SLT PUSH3 0x6A6 JUMPI PUSH3 0x7F2 PUSH1 0xD SLOAD PUSH3 0x20D7 JUMP JUMPDEST PUSH1 0x9 SLOAD PUSH1 0x0 DUP1 JUMPDEST DUP3 DUP2 LT PUSH3 0x815 JUMPI PUSH1 0x40 MLOAD DUP1 PUSH3 0x811 DUP7 DUP3 PUSH3 0x1A41 JUMP JUMPDEST SUB SWAP1 RETURN JUMPDEST DUP1 PUSH1 0x0 MSTORE PUSH1 0xC PUSH1 0x20 DUP2 DUP2 MSTORE PUSH1 0x1 SWAP2 PUSH3 0x835 DUP4 PUSH1 0x40 PUSH1 0x0 KECCAK256 ADD SLOAD PUSH3 0x1844 JUMP JUMPDEST PUSH3 0x84F JUMPI JUMPDEST POP POP POP PUSH3 0x849 SWAP1 PUSH3 0x1FDB JUMP JUMPDEST PUSH3 0x7F9 JUMP JUMPDEST SWAP2 PUSH1 0xFF PUSH1 0x3 DUP6 SWAP7 SWAP4 PUSH3 0x8E7 SWAP6 PUSH3 0x849 SWAP8 PUSH1 0x0 MSTORE DUP2 MSTORE PUSH3 0x896 PUSH1 0x40 PUSH1 0x0 KECCAK256 SWAP2 PUSH3 0x89E PUSH1 0x40 MLOAD SWAP7 PUSH3 0x883 DUP9 PUSH3 0x191F JUMP JUMPDEST DUP5 SLOAD DUP9 MSTORE PUSH1 0x40 MLOAD SWAP4 DUP5 DUP1 SWAP3 DUP8 ADD PUSH3 0x1881 JUMP JUMPDEST SUB DUP4 PUSH3 0x1959 JUMP JUMPDEST DUP6 ADD MSTORE PUSH1 0x2 DUP2 ADD SLOAD PUSH1 0x40 DUP6 ADD MSTORE ADD SLOAD PUSH1 0x1 PUSH1 0x1 PUSH1 0xA0 SHL SUB DUP2 AND PUSH1 0x60 DUP5 ADD MSTORE PUSH1 0xA0 SHR AND ISZERO ISZERO PUSH1 0x80 DUP3 ADD MSTORE PUSH3 0x8D3 DUP3 DUP9 PUSH3 0x2131 JUMP JUMPDEST MSTORE PUSH3 0x8E0 DUP2 DUP8 PUSH3 0x2131 JUMP JUMPDEST POP PUSH3 0x1FDB JUMP JUMPDEST SWAP2 SWAP1 DUP6 DUP1 PUSH3 0x83B JUMP JUMPDEST CALLVALUE PUSH3 0x6A6 JUMPI PUSH1 0x0 CALLDATASIZE PUSH1 0x3 NOT ADD SLT PUSH3 0x6A6 JUMPI PUSH1 0xB SLOAD PUSH1 0x40 MLOAD PUSH1 0x1 PUSH1 0x1 PUSH1 0xA0 SHL SUB SWAP1 SWAP2 AND DUP2 MSTORE PUSH1 0x20 SWAP1 RETURN JUMPDEST CALLVALUE PUSH3 0x6A6 JUMPI PUSH1 0x20 CALLDATASIZE PUSH1 0x3 NOT ADD SLT PUSH3 0x6A6 JUMPI PUSH1 0x4 CALLDATALOAD PUSH1 0x0 DUP2 DUP2 MSTORE PUSH1 0x2 PUSH1 0x20 MSTORE PUSH1 0x40 SWAP1 KECCAK256 SLOAD PUSH3 0x957 SWAP1 PUSH1 0x1 PUSH1 0x1 PUSH1 0xA0 SHL SUB AND ISZERO ISZERO PUSH3 0x1B00 JUMP JUMPDEST PUSH1 0x0 MSTORE PUSH1 0x6 PUSH1 0x20 MSTORE PUSH3 0x811 PUSH3 0x97D PUSH3 0x985 PUSH1 0x40 PUSH1 0x0 KECCAK256 PUSH1 0x40 MLOAD SWAP3 DUP4 DUP1 SWAP3 PUSH3 0x1881 JUMP JUMPDEST SUB DUP3 PUSH3 0x1959 JUMP JUMPDEST PUSH1 0x0 PUSH1 0x40 MLOAD PUSH3 0x995 DUP2 PUSH3 0x193C JUMP JUMPDEST MSTORE PUSH1 0x40 MLOAD SWAP2 DUP3 SWAP2 PUSH1 0x20 DUP4 MSTORE PUSH1 0x20 DUP4 ADD SWAP1 PUSH3 0x179C JUMP JUMPDEST CALLVALUE PUSH3 0x6A6 JUMPI PUSH1 0x80 CALLDATASIZE PUSH1 0x3 NOT ADD SLT PUSH3 0x6A6 JUMPI PUSH3 0x9C8 PUSH3 0x17DE JUMP JUMPDEST PUSH3 0x9D2 PUSH3 0x17F5 JUMP JUMPDEST PUSH1 0x64 CALLDATALOAD SWAP2 PUSH8 0xFFFFFFFFFFFFFFFF DUP4 GT PUSH3 0x6A6 JUMPI CALLDATASIZE PUSH1 0x23 DUP5 ADD SLT ISZERO PUSH3 0x6A6 JUMPI PUSH3 0xA0C PUSH3 0xA17 SWAP4 CALLDATASIZE SWAP1 PUSH1 0x24 DUP2 PUSH1 0x4 ADD CALLDATALOAD SWAP2 ADD PUSH3 0x19E4 JUMP JUMPDEST SWAP2 PUSH1 0x44 CALLDATALOAD SWAP2 PUSH3 0x1C15 JUMP JUMPDEST STOP JUMPDEST CALLVALUE PUSH3 0x6A6 JUMPI PUSH1 0x40 CALLDATASIZE PUSH1 0x3 NOT ADD SLT PUSH3 0x6A6 JUMPI PUSH3 0xA36 PUSH3 0x17DE JUMP JUMPDEST PUSH1 0x24 CALLDATALOAD SWAP1 DUP2 ISZERO ISZERO DUP1 SWAP3 SUB PUSH3 0x6A6 JUMPI PUSH1 0x1 PUSH1 0x1 PUSH1 0xA0 SHL SUB AND SWAP1 CALLER DUP3 EQ PUSH3 0xAAC JUMPI CALLER PUSH1 0x0 MSTORE PUSH1 0x5 PUSH1 0x20 MSTORE PUSH1 0x40 PUSH1 0x0 KECCAK256 DUP3 PUSH1 0x0 MSTORE PUSH1 0x20 MSTORE PUSH1 0x40 PUSH1 0x0 KECCAK256 PUSH1 0xFF NOT DUP2 SLOAD AND PUSH1 0xFF DUP4 AND OR SWAP1 SSTORE PUSH1 0x40 MLOAD SWAP1 DUP2 MSTORE PUSH32 0x17307EAB39AB6107E8899845AD3D59BD9653F200F220920489CA2B5937696C31 PUSH1 0x20 CALLER SWAP3 LOG3 STOP JUMPDEST PUSH1 0x40 MLOAD PUSH3 0x461BCD PUSH1 0xE5 SHL DUP2 MSTORE PUSH1 0x20 PUSH1 0x4 DUP3 ADD MSTORE PUSH1 0x19 PUSH1 0x24 DUP3 ADD MSTORE PUSH32 0x4552433732313A20617070726F766520746F2063616C6C657200000000000000 PUSH1 0x44 DUP3 ADD MSTORE PUSH1 0x64 SWAP1 REVERT JUMPDEST CALLVALUE PUSH3 0x6A6 JUMPI PUSH1 0x0 CALLDATASIZE PUSH1 0x3 NOT ADD SLT PUSH3 0x6A6 JUMPI PUSH1 0x40 MLOAD PUSH1 0x0 PUSH1 0x1 DUP1 SLOAD SWAP1 PUSH3 0xB19 DUP3 PUSH3 0x1844 JUMP JUMPDEST DUP1 DUP6 MSTORE SWAP2 DUP2 DUP2 AND SWAP1 DUP2 ISZERO PUSH3 0xBB7 JUMPI POP PUSH1 0x1 EQ PUSH3 0xB5A JUMPI JUMPDEST PUSH3 0x811 DUP5 PUSH3 0xB45 DUP2 DUP7 SUB DUP3 PUSH3 0x1959 JUMP JUMPDEST PUSH1 0x40 MLOAD SWAP2 DUP3 SWAP2 PUSH1 0x20 DUP4 MSTORE PUSH1 0x20 DUP4 ADD SWAP1 PUSH3 0x179C JUMP JUMPDEST PUSH1 0x0 DUP2 DUP2 MSTORE SWAP3 POP PUSH32 0xB10E2D527612073B26EECDFD717E6A320CF44B4AFAC2B0732D9FCBE2B7FA0CF6 JUMPDEST DUP3 DUP5 LT PUSH3 0xB9E JUMPI POP POP POP DUP2 ADD PUSH1 0x20 ADD PUSH3 0xB45 DUP3 PUSH3 0xB32 JUMP JUMPDEST DUP1 SLOAD PUSH1 0x20 DUP6 DUP8 ADD DUP2 ADD SWAP2 SWAP1 SWAP2 MSTORE SWAP1 SWAP4 ADD SWAP3 DUP2 ADD PUSH3 0xB83 JUMP JUMPDEST PUSH1 0xFF NOT AND PUSH1 0x20 DUP1 DUP8 ADD SWAP2 SWAP1 SWAP2 MSTORE SWAP3 ISZERO ISZERO PUSH1 0x5 SHL DUP6 ADD SWAP1 SWAP3 ADD SWAP3 POP PUSH3 0xB45 SWAP2 POP DUP4 SWAP1 POP PUSH3 0xB32 JUMP JUMPDEST CALLVALUE PUSH3 0x6A6 JUMPI PUSH1 0x0 CALLDATASIZE PUSH1 0x3 NOT ADD SLT PUSH3 0x6A6 JUMPI PUSH1 0x7 SLOAD PUSH1 0x40 MLOAD PUSH1 0x1 PUSH1 0x1 PUSH1 0xA0 SHL SUB SWAP1 SWAP2 AND DUP2 MSTORE PUSH1 0x20 SWAP1 RETURN JUMPDEST CALLVALUE PUSH3 0x6A6 JUMPI PUSH1 0x0 CALLDATASIZE PUSH1 0x3 NOT ADD SLT PUSH3 0x6A6 JUMPI PUSH1 0x40 MLOAD PUSH1 0x0 PUSH1 0xA SLOAD PUSH3 0xC31 DUP2 PUSH3 0x1844 JUMP JUMPDEST DUP1 DUP5 MSTORE SWAP1 PUSH1 0x1 SWAP1 DUP2 DUP2 AND SWAP1 DUP2 ISZERO PUSH3 0xBB7 JUMPI POP PUSH1 0x1 EQ PUSH3 0xC5F JUMPI PUSH3 0x811 DUP5 PUSH3 0xB45 DUP2 DUP7 SUB DUP3 PUSH3 0x1959 JUMP JUMPDEST PUSH1 0xA PUSH1 0x0 SWAP1 DUP2 MSTORE SWAP3 POP PUSH32 0xC65A7BB8D6351C1CF70C95A316CC6A92839C986682D98BC35F958F4883F9D2A8 JUMPDEST DUP3 DUP5 LT PUSH3 0xCA5 JUMPI POP POP POP DUP2 ADD PUSH1 0x20 ADD PUSH3 0xB45 DUP3 PUSH3 0xB32 JUMP JUMPDEST DUP1 SLOAD PUSH1 0x20 DUP6 DUP8 ADD DUP2 ADD SWAP2 SWAP1 SWAP2 MSTORE SWAP1 SWAP4 ADD SWAP3 DUP2 ADD PUSH3 0xC8A JUMP JUMPDEST CALLVALUE PUSH3 0x6A6 JUMPI PUSH1 0x0 CALLDATASIZE PUSH1 0x3 NOT ADD SLT PUSH3 0x6A6 JUMPI PUSH3 0xCDB PUSH3 0x1AA7 JUMP JUMPDEST PUSH1 0x7 DUP1 SLOAD PUSH1 0x1 PUSH1 0x1 PUSH1 0xA0 SHL SUB NOT DUP2 AND SWAP1 SWAP2 SSTORE PUSH1 0x0 SWAP1 PUSH1 0x1 PUSH1 0x1 PUSH1 0xA0 SHL SUB AND PUSH32 0x8BE0079C531659141344CD1FD0A4F28419497F9722A3DAAFE3B4186F6B6457E0 DUP3 DUP1 LOG3 STOP JUMPDEST CALLVALUE PUSH3 0x6A6 JUMPI PUSH1 0x20 CALLDATASIZE PUSH1 0x3 NOT ADD SLT PUSH3 0x6A6 JUMPI PUSH1 0x1 PUSH1 0x1 PUSH1 0xA0 SHL SUB PUSH3 0xD44 PUSH3 0x17DE JUMP JUMPDEST AND DUP1 ISZERO PUSH3 0xD64 JUMPI PUSH1 0x0 MSTORE PUSH1 0x3 PUSH1 0x20 MSTORE PUSH1 0x20 PUSH1 0x40 PUSH1 0x0 KECCAK256 SLOAD PUSH1 0x40 MLOAD SWAP1 DUP2 MSTORE RETURN JUMPDEST PUSH1 0x40 MLOAD PUSH3 0x461BCD PUSH1 0xE5 SHL DUP2 MSTORE PUSH1 0x20 PUSH1 0x4 DUP3 ADD MSTORE PUSH1 0x29 PUSH1 0x24 DUP3 ADD MSTORE PUSH32 0x4552433732313A2061646472657373207A65726F206973206E6F742061207661 PUSH1 0x44 DUP3 ADD MSTORE PUSH9 0x3634B21037BBB732B9 PUSH1 0xB9 SHL PUSH1 0x64 DUP3 ADD MSTORE PUSH1 0x84 SWAP1 REVERT JUMPDEST CALLVALUE PUSH3 0x6A6 JUMPI PUSH1 0x0 CALLDATASIZE PUSH1 0x3 NOT ADD SLT PUSH3 0x6A6 JUMPI PUSH1 0x9 SLOAD PUSH1 0x0 DUP1 JUMPDEST DUP3 DUP2 LT PUSH3 0xEAF JUMPI POP PUSH3 0xDE9 SWAP1 PUSH3 0x20D7 JUMP JUMPDEST SWAP1 PUSH1 0x0 DUP1 JUMPDEST DUP3 DUP2 LT PUSH3 0xE06 JUMPI PUSH1 0x40 MLOAD DUP1 PUSH3 0x811 DUP7 DUP3 PUSH3 0x1A41 JUMP JUMPDEST DUP1 PUSH1 0x0 MSTORE PUSH1 0x20 PUSH1 0xC DUP2 MSTORE PUSH1 0x40 PUSH1 0x0 KECCAK256 PUSH1 0x3 DUP2 ADD SLOAD PUSH1 0xFF DUP2 PUSH1 0xA0 SHR AND SWAP2 DUP3 PUSH3 0xE3E JUMPI JUMPDEST POP POP POP POP PUSH3 0xE38 SWAP1 PUSH3 0x1FDB JUMP JUMPDEST PUSH3 0xDEE JUMP JUMPDEST SWAP2 PUSH3 0xEA4 SWAP4 SWAP2 PUSH1 0x2 PUSH3 0xE38 SWAP7 SWAP8 SWAP5 PUSH1 0x40 MLOAD SWAP5 PUSH3 0xE5D DUP7 PUSH3 0x191F JUMP JUMPDEST DUP2 SLOAD DUP7 MSTORE PUSH1 0x40 MLOAD SWAP1 PUSH3 0xE79 DUP3 PUSH3 0x896 DUP2 PUSH1 0x1 DUP8 ADD PUSH3 0x1881 JUMP JUMPDEST DUP7 ADD MSTORE ADD SLOAD PUSH1 0x40 DUP5 ADD MSTORE PUSH1 0x1 PUSH1 0x1 PUSH1 0xA0 SHL SUB AND PUSH1 0x60 DUP4 ADD MSTORE ISZERO ISZERO PUSH1 0x80 DUP3 ADD MSTORE PUSH3 0x8D3 DUP3 DUP9 PUSH3 0x2131 JUMP JUMPDEST SWAP2 SWAP1 DUP6 DUP1 DUP1 PUSH3 0xE29 JUMP JUMPDEST DUP1 PUSH1 0x0 MSTORE PUSH1 0xC PUSH1 0x20 MSTORE PUSH1 0xFF PUSH1 0x3 PUSH1 0x40 PUSH1 0x0 KECCAK256 ADD SLOAD PUSH1 0xA0 SHR AND PUSH3 0xEDE JUMPI JUMPDEST PUSH3 0xED8 SWAP1 PUSH3 0x1FDB JUMP JUMPDEST PUSH3 0xDD5 JUMP JUMPDEST SWAP1 PUSH3 0xEEE PUSH3 0xED8 SWAP2 PUSH3 0x1FDB JUMP JUMPDEST SWAP2 SWAP1 POP PUSH3 0xECD JUMP JUMPDEST CALLVALUE PUSH3 0x6A6 JUMPI PUSH1 0x20 CALLDATASIZE PUSH1 0x3 NOT ADD SLT PUSH3 0x6A6 JUMPI PUSH1 0x20 PUSH3 0xF19 PUSH1 0x4 CALLDATALOAD PUSH3 0x1B4D JUMP JUMPDEST PUSH1 0x40 MLOAD PUSH1 0x1 PUSH1 0x1 PUSH1 0xA0 SHL SUB SWAP1 SWAP2 AND DUP2 MSTORE RETURN JUMPDEST CALLVALUE PUSH3 0x6A6 JUMPI PUSH1 0xA0 CALLDATASIZE PUSH1 0x3 NOT ADD SLT PUSH3 0x6A6 JUMPI PUSH8 0xFFFFFFFFFFFFFFFF PUSH1 0x24 DUP1 CALLDATALOAD SWAP1 PUSH1 0x44 CALLDATALOAD SWAP1 PUSH1 0x4 CALLDATALOAD SWAP1 PUSH1 0x64 CALLDATALOAD DUP6 DUP2 GT PUSH3 0x6A6 JUMPI PUSH3 0xF6F SWAP1 CALLDATASIZE SWAP1 PUSH1 0x4 ADD PUSH3 0x1A20 JUMP JUMPDEST SWAP1 PUSH1 0x84 CALLDATALOAD DUP7 DUP2 GT PUSH3 0x6A6 JUMPI PUSH3 0xF8B SWAP1 CALLDATASIZE SWAP1 PUSH1 0x4 ADD PUSH3 0x1A20 JUMP JUMPDEST SWAP6 PUSH3 0xF96 PUSH3 0x1AA7 JUMP JUMPDEST PUSH1 0x0 DUP5 DUP2 MSTORE PUSH1 0x2 PUSH1 0x20 MSTORE PUSH1 0x40 SWAP1 KECCAK256 SLOAD PUSH3 0xFBB SWAP1 PUSH1 0x1 PUSH1 0x1 PUSH1 0xA0 SHL SUB AND ISZERO ISZERO PUSH3 0x204E JUMP JUMPDEST PUSH3 0xFC6 DUP5 PUSH3 0x1B4D JUMP JUMPDEST PUSH1 0x1 PUSH1 0x1 PUSH1 0xA0 SHL SUB SWAP4 SWAP1 CALLER SWAP1 DUP6 AND SUB PUSH3 0x1209 JUMPI DUP5 PUSH1 0x0 MSTORE PUSH1 0x20 SWAP8 PUSH1 0xC DUP10 MSTORE PUSH1 0xFF PUSH1 0x3 PUSH1 0x40 PUSH1 0x0 KECCAK256 ADD SLOAD PUSH1 0xA0 SHR AND PUSH3 0x11C5 JUMPI DUP8 ISZERO PUSH3 0x1175 JUMPI DUP7 ISZERO PUSH3 0x1126 JUMPI DUP6 PUSH1 0x0 MSTORE PUSH1 0xC DUP10 MSTORE PUSH1 0x1 PUSH1 0x40 PUSH1 0x0 KECCAK256 ADD SWAP2 PUSH1 0x40 MLOAD SWAP5 PUSH2 0x22CB SWAP1 DUP2 DUP8 ADD SWAP6 DUP8 DUP8 LT SWAP1 DUP8 GT OR PUSH3 0x1112 JUMPI POP PUSH3 0x108D SWAP3 PUSH3 0x1058 DUP8 SWAP7 SWAP6 SWAP4 PUSH3 0x1066 SWAP4 PUSH3 0x215D DUP10 CODECOPY PUSH2 0x100 DUP1 DUP9 MSTORE DUP8 ADD SWAP1 PUSH3 0x179C JUMP JUMPDEST SWAP1 DUP6 DUP3 SUB DUP14 DUP8 ADD MSTORE PUSH3 0x179C JUMP JUMPDEST SWAP1 DUP10 PUSH1 0x40 DUP6 ADD MSTORE DUP9 PUSH1 0x60 DUP6 ADD MSTORE ADDRESS PUSH1 0x80 DUP6 ADD MSTORE DUP8 PUSH1 0xA0 DUP6 ADD MSTORE DUP4 DUP3 SUB PUSH1 0xC0 DUP6 ADD MSTORE PUSH3 0x1881 JUMP JUMPDEST SWAP1 PUSH1 0xE0 CALLER SWAP2 ADD MSTORE SUB SWAP1 PUSH1 0x0 CREATE DUP1 ISZERO PUSH3 0x1106 JUMPI PUSH32 0xFE60B756980476874D2F8CDFCA824F0D687E2CC6D4C7735F696CBA055EEE6D66 SWAP2 PUSH1 0x40 SWAP2 AND SWAP5 DUP6 SWAP5 DUP5 PUSH1 0x0 MSTORE PUSH1 0xC DUP9 MSTORE PUSH1 0x3 DUP4 PUSH1 0x0 KECCAK256 ADD PUSH1 0x1 PUSH1 0xA0 SHL DUP8 PUSH11 0xFFFFFFFFFFFFFFFFFFFFFF PUSH1 0xA8 SHL DUP4 SLOAD AND OR OR SWAP1 SSTORE DUP3 MLOAD SWAP2 DUP3 MSTORE DUP8 DUP3 ADD MSTORE LOG3 PUSH1 0x40 MLOAD SWAP1 DUP2 MSTORE RETURN JUMPDEST PUSH1 0x40 MLOAD RETURNDATASIZE PUSH1 0x0 DUP3 RETURNDATACOPY RETURNDATASIZE SWAP1 REVERT JUMPDEST PUSH4 0x4E487B71 PUSH1 0xE0 SHL PUSH1 0x0 SWAP1 DUP2 MSTORE PUSH1 0x41 PUSH1 0x4 MSTORE REVERT JUMPDEST PUSH1 0x40 MLOAD PUSH3 0x461BCD PUSH1 0xE5 SHL DUP2 MSTORE PUSH1 0x4 DUP2 ADD DUP11 SWAP1 MSTORE PUSH1 0x22 DUP2 DUP7 ADD MSTORE PUSH32 0x5368617265207072696365206D7573742062652067726561746572207468616E PUSH1 0x44 DUP3 ADD MSTORE PUSH2 0x203 PUSH1 0xF4 SHL PUSH1 0x64 DUP3 ADD MSTORE PUSH1 0x84 SWAP1 REVERT JUMPDEST PUSH1 0x40 MLOAD PUSH3 0x461BCD PUSH1 0xE5 SHL DUP2 MSTORE PUSH1 0x4 DUP2 ADD DUP11 SWAP1 MSTORE PUSH1 0x23 DUP2 DUP7 ADD MSTORE PUSH32 0x546F74616C20736861726573206D757374206265206772656174657220746861 PUSH1 0x44 DUP3 ADD MSTORE PUSH3 0x6E203 PUSH1 0xEC SHL PUSH1 0x64 DUP3 ADD MSTORE PUSH1 0x84 SWAP1 REVERT JUMPDEST PUSH1 0x40 MLOAD PUSH3 0x461BCD PUSH1 0xE5 SHL DUP2 MSTORE PUSH1 0x4 DUP2 ADD DUP11 SWAP1 MSTORE PUSH1 0x1A DUP2 DUP7 ADD MSTORE PUSH32 0x4E465420616C7265616479206672616374696F6E616C697A6564000000000000 PUSH1 0x44 DUP3 ADD MSTORE PUSH1 0x64 SWAP1 REVERT JUMPDEST PUSH1 0x40 MLOAD PUSH3 0x461BCD PUSH1 0xE5 SHL DUP2 MSTORE PUSH1 0x20 PUSH1 0x4 DUP3 ADD MSTORE PUSH1 0x19 DUP2 DUP6 ADD MSTORE PUSH32 0x4E6F7420746865206F776E6572206F662074686973204E465400000000000000 PUSH1 0x44 DUP3 ADD MSTORE PUSH1 0x64 SWAP1 REVERT JUMPDEST CALLVALUE PUSH3 0x6A6 JUMPI PUSH1 0x0 CALLDATASIZE PUSH1 0x3 NOT ADD SLT PUSH3 0x6A6 JUMPI PUSH1 0x0 DUP1 PUSH1 0x9 SLOAD SWAP1 JUMPDEST DUP2 DUP2 LT PUSH3 0x1295 JUMPI PUSH1 0x60 DUP4 PUSH1 0xD SLOAD SWAP1 PUSH1 0x1 DUP1 PUSH1 0xA0 SHL SUB PUSH1 0x7 SLOAD AND SWAP1 PUSH1 0x40 MLOAD SWAP3 DUP4 MSTORE PUSH1 0x20 DUP4 ADD MSTORE PUSH1 0x40 DUP3 ADD MSTORE RETURN JUMPDEST DUP1 PUSH1 0x0 MSTORE PUSH1 0xC PUSH1 0x20 MSTORE PUSH1 0xFF PUSH1 0x3 PUSH1 0x40 PUSH1 0x0 KECCAK256 ADD SLOAD PUSH1 0xA0 SHR AND PUSH3 0x12C4 JUMPI JUMPDEST PUSH3 0x12BE SWAP1 PUSH3 0x1FDB JUMP JUMPDEST PUSH3 0x1268 JUMP JUMPDEST SWAP2 PUSH3 0x12D4 PUSH3 0x12BE SWAP2 PUSH3 0x1FDB JUMP JUMPDEST SWAP3 SWAP1 POP PUSH3 0x12B3 JUMP JUMPDEST CALLVALUE PUSH3 0x6A6 JUMPI PUSH1 0x20 DUP1 PUSH1 0x3 NOT CALLDATASIZE ADD SLT PUSH3 0x6A6 JUMPI PUSH1 0x4 CALLDATALOAD PUSH3 0x12FE PUSH3 0x20A9 JUMP JUMPDEST POP DUP1 PUSH1 0x0 MSTORE PUSH1 0xC DUP3 MSTORE PUSH3 0x1326 PUSH3 0x131E PUSH1 0x1 PUSH1 0x40 PUSH1 0x0 KECCAK256 ADD SLOAD PUSH3 0x1844 JUMP JUMPDEST ISZERO ISZERO PUSH3 0x204E JUMP JUMPDEST PUSH1 0x0 MSTORE PUSH1 0xC DUP2 MSTORE PUSH1 0x40 PUSH1 0x0 KECCAK256 SWAP1 PUSH1 0xFF PUSH1 0x3 PUSH1 0x40 MLOAD SWAP4 PUSH3 0x1346 DUP6 PUSH3 0x191F JUMP JUMPDEST DUP1 SLOAD DUP6 MSTORE PUSH1 0x40 MLOAD PUSH3 0x1361 DUP2 PUSH3 0x97D DUP2 PUSH1 0x1 DUP7 ADD PUSH3 0x1881 JUMP JUMPDEST DUP5 DUP7 ADD MSTORE PUSH1 0x2 DUP2 ADD SLOAD PUSH1 0x40 DUP7 ADD MSTORE ADD SLOAD PUSH1 0x1 DUP1 PUSH1 0xA0 SHL SUB DUP2 AND PUSH1 0x60 DUP6 ADD MSTORE PUSH1 0xA0 SHR AND ISZERO ISZERO PUSH1 0x80 DUP4 ADD MSTORE PUSH3 0x811 PUSH1 0x40 MLOAD SWAP3 DUP3 DUP5 SWAP4 DUP5 MSTORE DUP4 ADD SWAP1 PUSH3 0x197C JUMP JUMPDEST CALLVALUE PUSH3 0x6A6 JUMPI PUSH1 0x0 CALLDATASIZE PUSH1 0x3 NOT ADD SLT PUSH3 0x6A6 JUMPI PUSH1 0x20 PUSH1 0xD SLOAD PUSH1 0x40 MLOAD SWAP1 DUP2 MSTORE RETURN JUMPDEST CALLVALUE PUSH3 0x6A6 JUMPI PUSH3 0xA17 PUSH3 0x13D5 CALLDATASIZE PUSH3 0x180C JUMP JUMPDEST SWAP1 PUSH1 0x40 MLOAD SWAP3 PUSH3 0x13E5 DUP5 PUSH3 0x193C JUMP JUMPDEST PUSH1 0x0 DUP5 MSTORE PUSH3 0x1C15 JUMP JUMPDEST CALLVALUE PUSH3 0x6A6 JUMPI PUSH1 0x20 CALLDATASIZE PUSH1 0x3 NOT ADD SLT PUSH3 0x6A6 JUMPI PUSH1 0x4 CALLDATALOAD PUSH1 0x0 MSTORE PUSH1 0xC PUSH1 0x20 MSTORE PUSH1 0x40 PUSH1 0x0 KECCAK256 DUP1 SLOAD PUSH1 0x40 MLOAD SWAP2 PUSH3 0x1434 DUP4 PUSH3 0x142C DUP2 PUSH1 0x1 DUP6 ADD PUSH3 0x1881 JUMP JUMPDEST SUB DUP5 PUSH3 0x1959 JUMP JUMPDEST PUSH1 0xFF PUSH1 0x3 PUSH1 0x2 DUP4 ADD SLOAD SWAP3 ADD SLOAD PUSH3 0x145E PUSH1 0x40 MLOAD SWAP6 DUP7 SWAP6 DUP7 MSTORE PUSH1 0xA0 PUSH1 0x20 DUP8 ADD MSTORE PUSH1 0xA0 DUP7 ADD SWAP1 PUSH3 0x179C JUMP JUMPDEST PUSH1 0x40 DUP6 ADD SWAP4 SWAP1 SWAP4 MSTORE PUSH1 0x1 PUSH1 0x1 PUSH1 0xA0 SHL SUB DUP2 AND PUSH1 0x60 DUP6 ADD MSTORE PUSH1 0xA0 SHR AND ISZERO ISZERO PUSH1 0x80 DUP4 ADD MSTORE SUB SWAP1 RETURN JUMPDEST CALLVALUE PUSH3 0x6A6 JUMPI PUSH3 0xA17 PUSH3 0x1499 CALLDATASIZE PUSH3 0x180C JUMP JUMPDEST SWAP2 PUSH3 0x14B0 PUSH3 0x14AA DUP5 CALLER PUSH3 0x1CBA JUMP JUMPDEST PUSH3 0x1BB2 JUMP JUMPDEST PUSH3 0x1D8B JUMP JUMPDEST CALLVALUE PUSH3 0x6A6 JUMPI PUSH1 0x40 CALLDATASIZE PUSH1 0x3 NOT ADD SLT PUSH3 0x6A6 JUMPI PUSH3 0x14D3 PUSH3 0x17DE JUMP JUMPDEST PUSH1 0x24 CALLDATALOAD SWAP1 PUSH1 0x1 PUSH1 0x1 PUSH1 0xA0 SHL SUB DUP1 DUP1 PUSH3 0x14EC DUP6 PUSH3 0x1B4D JUMP JUMPDEST AND SWAP3 AND SWAP2 DUP1 DUP4 EQ PUSH3 0x15ED JUMPI DUP1 CALLER EQ SWAP1 DUP2 ISZERO PUSH3 0x15C7 JUMPI JUMPDEST POP ISZERO PUSH3 0x155C JUMPI PUSH1 0x0 DUP4 DUP2 MSTORE PUSH1 0x4 PUSH1 0x20 MSTORE PUSH1 0x40 SWAP1 KECCAK256 DUP1 SLOAD PUSH1 0x1 PUSH1 0x1 PUSH1 0xA0 SHL SUB NOT AND DUP4 OR SWAP1 SSTORE PUSH3 0x1534 DUP4 PUSH3 0x1B4D JUMP JUMPDEST AND PUSH32 0x8C5BE1E5EBEC7D5BD14F71427D1E84F3DD0314C0F7B2291E5B200AC8C7C3B925 PUSH1 0x0 DUP1 LOG4 STOP JUMPDEST PUSH1 0x40 MLOAD PUSH3 0x461BCD PUSH1 0xE5 SHL DUP2 MSTORE PUSH1 0x20 PUSH1 0x4 DUP3 ADD MSTORE PUSH1 0x3D PUSH1 0x24 DUP3 ADD MSTORE PUSH32 0x4552433732313A20617070726F76652063616C6C6572206973206E6F7420746F PUSH1 0x44 DUP3 ADD MSTORE PUSH32 0x6B656E206F776E6572206F7220617070726F76656420666F7220616C6C000000 PUSH1 0x64 DUP3 ADD MSTORE PUSH1 0x84 SWAP1 REVERT JUMPDEST SWAP1 POP PUSH1 0x0 MSTORE PUSH1 0x5 PUSH1 0x20 MSTORE PUSH1 0x40 PUSH1 0x0 KECCAK256 CALLER PUSH1 0x0 MSTORE PUSH1 0x20 MSTORE PUSH1 0xFF PUSH1 0x40 PUSH1 0x0 KECCAK256 SLOAD AND DUP5 PUSH3 0x1504 JUMP JUMPDEST PUSH1 0x40 MLOAD PUSH3 0x461BCD PUSH1 0xE5 SHL DUP2 MSTORE PUSH1 0x20 PUSH1 0x4 DUP3 ADD MSTORE PUSH1 0x21 PUSH1 0x24 DUP3 ADD MSTORE PUSH32 0x4552433732313A20617070726F76616C20746F2063757272656E74206F776E65 PUSH1 0x44 DUP3 ADD MSTORE PUSH1 0x39 PUSH1 0xF9 SHL PUSH1 0x64 DUP3 ADD MSTORE PUSH1 0x84 SWAP1 REVERT JUMPDEST CALLVALUE PUSH3 0x6A6 JUMPI PUSH1 0x20 CALLDATASIZE PUSH1 0x3 NOT ADD SLT PUSH3 0x6A6 JUMPI PUSH1 0x20 PUSH3 0xF19 PUSH1 0x4 CALLDATALOAD PUSH3 0x1B72 JUMP JUMPDEST CALLVALUE PUSH3 0x6A6 JUMPI PUSH1 0x0 CALLDATASIZE PUSH1 0x3 NOT ADD SLT PUSH3 0x6A6 JUMPI PUSH1 0x40 MLOAD PUSH1 0x0 DUP1 SLOAD PUSH3 0x1683 DUP2 PUSH3 0x1844 JUMP JUMPDEST DUP1 DUP5 MSTORE SWAP1 PUSH1 0x1 SWAP1 DUP2 DUP2 AND SWAP1 DUP2 ISZERO PUSH3 0xBB7 JUMPI POP PUSH1 0x1 EQ PUSH3 0x16B1 JUMPI PUSH3 0x811 DUP5 PUSH3 0xB45 DUP2 DUP7 SUB DUP3 PUSH3 0x1959 JUMP JUMPDEST PUSH1 0x0 DUP1 DUP1 MSTORE SWAP3 POP PUSH32 0x290DECD9548B62A8D60345A988386FC84BA6BC95484008F6362F93160EF3E563 JUMPDEST DUP3 DUP5 LT PUSH3 0x16F5 JUMPI POP POP POP DUP2 ADD PUSH1 0x20 ADD PUSH3 0xB45 DUP3 PUSH3 0xB32 JUMP JUMPDEST DUP1 SLOAD PUSH1 0x20 DUP6 DUP8 ADD DUP2 ADD SWAP2 SWAP1 SWAP2 MSTORE SWAP1 SWAP4 ADD SWAP3 DUP2 ADD PUSH3 0x16DA JUMP JUMPDEST CALLVALUE PUSH3 0x6A6 JUMPI PUSH1 0x20 CALLDATASIZE PUSH1 0x3 NOT ADD SLT PUSH3 0x6A6 JUMPI PUSH1 0x4 CALLDATALOAD SWAP1 PUSH4 0xFFFFFFFF PUSH1 0xE0 SHL DUP3 AND DUP1 SWAP3 SUB PUSH3 0x6A6 JUMPI PUSH1 0x20 SWAP2 PUSH4 0x24832483 PUSH1 0xE1 SHL DUP2 EQ SWAP1 DUP2 ISZERO PUSH3 0x1754 JUMPI JUMPDEST POP ISZERO ISZERO DUP2 MSTORE RETURN JUMPDEST PUSH4 0x80AC58CD PUSH1 0xE0 SHL DUP2 EQ SWAP2 POP DUP2 ISZERO PUSH3 0x178A JUMPI JUMPDEST DUP2 ISZERO PUSH3 0x1778 JUMPI JUMPDEST POP DUP4 PUSH3 0x174D JUMP JUMPDEST PUSH4 0x1FFC9A7 PUSH1 0xE0 SHL EQ SWAP1 POP DUP4 PUSH3 0x1770 JUMP JUMPDEST PUSH4 0x5B5E139F PUSH1 0xE0 SHL DUP2 EQ SWAP2 POP PUSH3 0x1768 JUMP JUMPDEST SWAP2 SWAP1 DUP3 MLOAD SWAP3 DUP4 DUP3 MSTORE PUSH1 0x0 JUMPDEST DUP5 DUP2 LT PUSH3 0x17C9 JUMPI POP POP DUP3 PUSH1 0x0 PUSH1 0x20 DUP1 SWAP5 SWAP6 DUP5 ADD ADD MSTORE PUSH1 0x1F DUP1 NOT SWAP2 ADD AND ADD ADD SWAP1 JUMP JUMPDEST PUSH1 0x20 DUP2 DUP4 ADD DUP2 ADD MLOAD DUP5 DUP4 ADD DUP3 ADD MSTORE ADD PUSH3 0x17A7 JUMP JUMPDEST PUSH1 0x4 CALLDATALOAD SWAP1 PUSH1 0x1 PUSH1 0x1 PUSH1 0xA0 SHL SUB DUP3 AND DUP3 SUB PUSH3 0x6A6 JUMPI JUMP JUMPDEST PUSH1 0x24 CALLDATALOAD SWAP1 PUSH1 0x1 PUSH1 0x1 PUSH1 0xA0 SHL SUB DUP3 AND DUP3 SUB PUSH3 0x6A6 JUMPI JUMP JUMPDEST PUSH1 0x60 SWAP1 PUSH1 0x3 NOT ADD SLT PUSH3 0x6A6 JUMPI PUSH1 0x1 PUSH1 0x1 PUSH1 0xA0 SHL SUB SWAP1 PUSH1 0x4 CALLDATALOAD DUP3 DUP2 AND DUP2 SUB PUSH3 0x6A6 JUMPI SWAP2 PUSH1 0x24 CALLDATALOAD SWAP1 DUP2 AND DUP2 SUB PUSH3 0x6A6 JUMPI SWAP1 PUSH1 0x44 CALLDATALOAD SWAP1 JUMP JUMPDEST SWAP1 PUSH1 0x1 DUP3 DUP2 SHR SWAP3 AND DUP1 ISZERO PUSH3 0x1876 JUMPI JUMPDEST PUSH1 0x20 DUP4 LT EQ PUSH3 0x1860 JUMPI JUMP JUMPDEST PUSH4 0x4E487B71 PUSH1 0xE0 SHL PUSH1 0x0 MSTORE PUSH1 0x22 PUSH1 0x4 MSTORE PUSH1 0x24 PUSH1 0x0 REVERT JUMPDEST SWAP2 PUSH1 0x7F AND SWAP2 PUSH3 0x1854 JUMP JUMPDEST SWAP1 PUSH1 0x0 SWAP3 SWAP2 DUP1 SLOAD SWAP2 PUSH3 0x1894 DUP4 PUSH3 0x1844 JUMP JUMPDEST SWAP2 DUP3 DUP3 MSTORE PUSH1 0x1 SWAP4 DUP5 DUP2 AND SWAP1 DUP2 PUSH1 0x0 EQ PUSH3 0x18FB JUMPI POP PUSH1 0x1 EQ PUSH3 0x18B8 JUMPI JUMPDEST POP POP POP POP JUMP JUMPDEST SWAP1 SWAP2 SWAP4 SWAP5 POP PUSH1 0x0 MSTORE PUSH1 0x20 SWAP3 DUP4 PUSH1 0x0 KECCAK256 SWAP3 DUP5 PUSH1 0x0 SWAP5 JUMPDEST DUP4 DUP7 LT PUSH3 0x18E6 JUMPI POP POP POP POP ADD ADD SWAP1 CODESIZE DUP1 DUP1 DUP1 PUSH3 0x18B2 JUMP JUMPDEST DUP1 SLOAD DUP6 DUP8 ADD DUP4 ADD MSTORE SWAP5 ADD SWAP4 DUP6 SWAP1 DUP3 ADD PUSH3 0x18CD JUMP JUMPDEST SWAP3 SWAP5 POP POP POP PUSH1 0x20 SWAP4 SWAP5 POP PUSH1 0xFF NOT AND DUP4 DUP4 ADD MSTORE ISZERO ISZERO PUSH1 0x5 SHL ADD ADD SWAP1 CODESIZE DUP1 DUP1 DUP1 PUSH3 0x18B2 JUMP JUMPDEST PUSH1 0xA0 DUP2 ADD SWAP1 DUP2 LT PUSH8 0xFFFFFFFFFFFFFFFF DUP3 GT OR PUSH3 0x52B JUMPI PUSH1 0x40 MSTORE JUMP JUMPDEST PUSH1 0x20 DUP2 ADD SWAP1 DUP2 LT PUSH8 0xFFFFFFFFFFFFFFFF DUP3 GT OR PUSH3 0x52B JUMPI PUSH1 0x40 MSTORE JUMP JUMPDEST SWAP1 PUSH1 0x1F DUP1 NOT SWAP2 ADD AND DUP2 ADD SWAP1 DUP2 LT PUSH8 0xFFFFFFFFFFFFFFFF DUP3 GT OR PUSH3 0x52B JUMPI PUSH1 0x40 MSTORE JUMP JUMPDEST SWAP1 DUP2 MLOAD DUP2 MSTORE PUSH1 0x80 DUP1 PUSH3 0x199F PUSH1 0x20 DUP6 ADD MLOAD PUSH1 0xA0 PUSH1 0x20 DUP7 ADD MSTORE PUSH1 0xA0 DUP6 ADD SWAP1 PUSH3 0x179C JUMP JUMPDEST PUSH1 0x40 DUP1 DUP7 ADD MLOAD SWAP1 DUP6 ADD MSTORE PUSH1 0x60 DUP1 DUP7 ADD MLOAD PUSH1 0x1 PUSH1 0x1 PUSH1 0xA0 SHL SUB AND SWAP1 DUP6 ADD MSTORE SWAP4 ADD MLOAD ISZERO ISZERO SWAP2 ADD MSTORE SWAP1 JUMP JUMPDEST PUSH8 0xFFFFFFFFFFFFFFFF DUP2 GT PUSH3 0x52B JUMPI PUSH1 0x1F ADD PUSH1 0x1F NOT AND PUSH1 0x20 ADD SWAP1 JUMP JUMPDEST SWAP3 SWAP2 SWAP3 PUSH3 0x19F2 DUP3 PUSH3 0x19C7 JUMP JUMPDEST SWAP2 PUSH3 0x1A02 PUSH1 0x40 MLOAD SWAP4 DUP5 PUSH3 0x1959 JUMP JUMPDEST DUP3 SWAP5 DUP2 DUP5 MSTORE DUP2 DUP4 ADD GT PUSH3 0x6A6 JUMPI DUP3 DUP2 PUSH1 0x20 SWAP4 DUP5 PUSH1 0x0 SWAP7 ADD CALLDATACOPY ADD ADD MSTORE JUMP JUMPDEST SWAP1 DUP1 PUSH1 0x1F DUP4 ADD SLT ISZERO PUSH3 0x6A6 JUMPI DUP2 PUSH1 0x20 PUSH3 0x1A3E SWAP4 CALLDATALOAD SWAP2 ADD PUSH3 0x19E4 JUMP JUMPDEST SWAP1 JUMP JUMPDEST PUSH1 0x20 DUP1 DUP3 ADD SWAP1 DUP1 DUP4 MSTORE DUP4 MLOAD DUP1 SWAP3 MSTORE PUSH1 0x40 DUP4 ADD SWAP3 DUP2 PUSH1 0x40 DUP5 PUSH1 0x5 SHL DUP4 ADD ADD SWAP6 ADD SWAP4 PUSH1 0x0 SWAP2 JUMPDEST DUP5 DUP4 LT PUSH3 0x1A76 JUMPI POP POP POP POP POP POP SWAP1 JUMP JUMPDEST SWAP1 SWAP2 SWAP3 SWAP4 SWAP5 SWAP6 DUP5 DUP1 PUSH3 0x1A96 PUSH1 0x1 SWAP4 PUSH1 0x3F NOT DUP7 DUP3 SUB ADD DUP8 MSTORE DUP11 MLOAD PUSH3 0x197C JUMP JUMPDEST SWAP9 ADD SWAP4 ADD SWAP4 ADD SWAP2 SWAP5 SWAP4 SWAP3 SWAP1 PUSH3 0x1A65 JUMP JUMPDEST PUSH1 0x7 SLOAD PUSH1 0x1 PUSH1 0x1 PUSH1 0xA0 SHL SUB AND CALLER SUB PUSH3 0x1ABC JUMPI JUMP JUMPDEST PUSH1 0x64 PUSH1 0x40 MLOAD PUSH3 0x461BCD PUSH1 0xE5 SHL DUP2 MSTORE PUSH1 0x20 PUSH1 0x4 DUP3 ADD MSTORE PUSH1 0x20 PUSH1 0x24 DUP3 ADD MSTORE PUSH32 0x4F776E61626C653A2063616C6C6572206973206E6F7420746865206F776E6572 PUSH1 0x44 DUP3 ADD MSTORE REVERT JUMPDEST ISZERO PUSH3 0x1B08 JUMPI JUMP JUMPDEST PUSH1 0x40 MLOAD PUSH3 0x461BCD PUSH1 0xE5 SHL DUP2 MSTORE PUSH1 0x20 PUSH1 0x4 DUP3 ADD MSTORE PUSH1 0x18 PUSH1 0x24 DUP3 ADD MSTORE PUSH32 0x4552433732313A20696E76616C696420746F6B656E2049440000000000000000 PUSH1 0x44 DUP3 ADD MSTORE PUSH1 0x64 SWAP1 REVERT JUMPDEST PUSH1 0x0 SWAP1 DUP2 MSTORE PUSH1 0x2 PUSH1 0x20 MSTORE PUSH1 0x40 SWAP1 KECCAK256 SLOAD PUSH1 0x1 PUSH1 0x1 PUSH1 0xA0 SHL SUB AND PUSH3 0x1A3E DUP2 ISZERO ISZERO PUSH3 0x1B00 JUMP JUMPDEST PUSH1 0x0 DUP2 DUP2 MSTORE PUSH1 0x2 PUSH1 0x20 MSTORE PUSH1 0x40 SWAP1 KECCAK256 SLOAD PUSH3 0x1B97 SWAP1 PUSH1 0x1 PUSH1 0x1 PUSH1 0xA0 SHL SUB AND ISZERO ISZERO PUSH3 0x1B00 JUMP JUMPDEST PUSH1 0x0 SWAP1 DUP2 MSTORE PUSH1 0x4 PUSH1 0x20 MSTORE PUSH1 0x40 SWAP1 KECCAK256 SLOAD PUSH1 0x1 PUSH1 0x1 PUSH1 0xA0 SHL SUB AND SWAP1 JUMP JUMPDEST ISZERO PUSH3 0x1BBA JUMPI JUMP JUMPDEST PUSH1 0x40 MLOAD PUSH3 0x461BCD PUSH1 0xE5 SHL DUP2 MSTORE PUSH1 0x20 PUSH1 0x4 DUP3 ADD MSTORE PUSH1 0x2D PUSH1 0x24 DUP3 ADD MSTORE PUSH32 0x4552433732313A2063616C6C6572206973206E6F7420746F6B656E206F776E65 PUSH1 0x44 DUP3 ADD MSTORE PUSH13 0x1C881BDC88185C1C1C9BDD9959 PUSH1 0x9A SHL PUSH1 0x64 DUP3 ADD MSTORE PUSH1 0x84 SWAP1 REVERT JUMPDEST SWAP1 PUSH3 0x1C40 SWAP4 SWAP3 SWAP2 PUSH3 0x1C2D PUSH3 0x14AA DUP5 CALLER PUSH3 0x1CBA JUMP JUMPDEST PUSH3 0x1C3A DUP4 DUP4 DUP4 PUSH3 0x1D8B JUMP JUMPDEST PUSH3 0x1EA5 JUMP JUMPDEST ISZERO PUSH3 0x1C48 JUMPI JUMP JUMPDEST PUSH1 0x40 MLOAD PUSH3 0x461BCD PUSH1 0xE5 SHL DUP2 MSTORE DUP1 PUSH3 0x1C63 PUSH1 0x4 DUP3 ADD PUSH3 0x1C67 JUMP JUMPDEST SUB SWAP1 REVERT JUMPDEST PUSH1 0x80 SWAP1 PUSH1 0x20 DUP2 MSTORE PUSH1 0x32 PUSH1 0x20 DUP3 ADD MSTORE PUSH32 0x4552433732313A207472616E7366657220746F206E6F6E204552433732315265 PUSH1 0x40 DUP3 ADD MSTORE PUSH18 0x31B2B4BB32B91034B6B83632B6B2B73A32B9 PUSH1 0x71 SHL PUSH1 0x60 DUP3 ADD MSTORE ADD SWAP1 JUMP JUMPDEST SWAP1 PUSH1 0x1 PUSH1 0x1 PUSH1 0xA0 SHL SUB DUP1 DUP1 PUSH3 0x1CD0 DUP5 PUSH3 0x1B4D JUMP JUMPDEST AND SWAP4 AND SWAP2 DUP4 DUP4 EQ SWAP4 DUP5 ISZERO PUSH3 0x1D08 JUMPI JUMPDEST POP DUP4 ISZERO PUSH3 0x1CEF JUMPI JUMPDEST POP POP POP SWAP1 JUMP JUMPDEST PUSH3 0x1CFD SWAP2 SWAP3 SWAP4 POP PUSH3 0x1B72 JUMP JUMPDEST AND EQ CODESIZE DUP1 DUP1 PUSH3 0x1CE9 JUMP JUMPDEST SWAP1 SWAP4 POP PUSH1 0x0 MSTORE PUSH1 0x5 PUSH1 0x20 MSTORE PUSH1 0x40 PUSH1 0x0 KECCAK256 DUP3 PUSH1 0x0 MSTORE PUSH1 0x20 MSTORE PUSH1 0xFF PUSH1 0x40 PUSH1 0x0 KECCAK256 SLOAD AND SWAP3 CODESIZE PUSH3 0x1CE0 JUMP JUMPDEST ISZERO PUSH3 0x1D38 JUMPI JUMP JUMPDEST PUSH1 0x40 MLOAD PUSH3 0x461BCD PUSH1 0xE5 SHL DUP2 MSTORE PUSH1 0x20 PUSH1 0x4 DUP3 ADD MSTORE PUSH1 0x25 PUSH1 0x24 DUP3 ADD MSTORE PUSH32 0x4552433732313A207472616E736665722066726F6D20696E636F727265637420 PUSH1 0x44 DUP3 ADD MSTORE PUSH5 0x37BBB732B9 PUSH1 0xD9 SHL PUSH1 0x64 DUP3 ADD MSTORE PUSH1 0x84 SWAP1 REVERT JUMPDEST SWAP1 PUSH3 0x1DB7 SWAP2 PUSH3 0x1D9C DUP5 PUSH3 0x1B4D JUMP JUMPDEST PUSH1 0x1 PUSH1 0x1 PUSH1 0xA0 SHL SUB SWAP4 SWAP2 DUP5 AND SWAP3 DUP5 SWAP3 SWAP1 SWAP2 DUP4 AND DUP5 EQ PUSH3 0x1D30 JUMP JUMPDEST AND SWAP2 DUP3 ISZERO PUSH3 0x1E54 JUMPI DUP2 PUSH3 0x1DD9 SWAP2 PUSH3 0x1DD1 DUP7 PUSH3 0x1B4D JUMP JUMPDEST AND EQ PUSH3 0x1D30 JUMP JUMPDEST PUSH32 0xDDF252AD1BE2C89B69C2B068FC378DAA952BA7F163C4A11628F55A4DF523B3EF PUSH1 0x0 DUP5 DUP2 MSTORE PUSH1 0x4 PUSH1 0x20 MSTORE PUSH1 0x40 DUP2 KECCAK256 PUSH1 0x1 PUSH1 0x1 PUSH1 0x60 SHL SUB PUSH1 0xA0 SHL SWAP1 DUP2 DUP2 SLOAD AND SWAP1 SSTORE DUP4 DUP3 MSTORE PUSH1 0x3 PUSH1 0x20 MSTORE PUSH1 0x40 DUP3 KECCAK256 PUSH1 0x0 NOT DUP2 SLOAD ADD SWAP1 SSTORE DUP5 DUP3 MSTORE PUSH1 0x40 DUP3 KECCAK256 PUSH1 0x1 DUP2 SLOAD ADD SWAP1 SSTORE DUP6 DUP3 MSTORE PUSH1 0x2 PUSH1 0x20 MSTORE DUP5 PUSH1 0x40 DUP4 KECCAK256 SWAP2 DUP3 SLOAD AND OR SWAP1 SSTORE DUP1 LOG4 JUMP JUMPDEST PUSH1 0x40 MLOAD PUSH3 0x461BCD PUSH1 0xE5 SHL DUP2 MSTORE PUSH1 0x20 PUSH1 0x4 DUP3 ADD MSTORE PUSH1 0x24 DUP1 DUP3 ADD MSTORE PUSH32 0x4552433732313A207472616E7366657220746F20746865207A65726F20616464 PUSH1 0x44 DUP3 ADD MSTORE PUSH4 0x72657373 PUSH1 0xE0 SHL PUSH1 0x64 DUP3 ADD MSTORE PUSH1 0x84 SWAP1 REVERT JUMPDEST SWAP3 SWAP4 SWAP2 SWAP1 DUP1 EXTCODESIZE ISZERO PUSH3 0x1FD1 JUMPI PUSH3 0x1EFA SWAP5 PUSH1 0x40 MLOAD DUP1 SWAP3 PUSH4 0xA85BD01 PUSH1 0xE1 SHL SWAP5 DUP6 DUP4 MSTORE CALLER PUSH1 0x4 DUP5 ADD MSTORE PUSH1 0x1 DUP1 PUSH1 0xA0 SHL SUB DUP1 SWAP9 AND PUSH1 0x24 DUP5 ADD MSTORE PUSH1 0x44 DUP4 ADD MSTORE PUSH1 0x80 PUSH1 0x64 DUP4 ADD MSTORE DUP2 DUP1 PUSH1 0x20 SWAP10 DUP11 SWAP6 PUSH1 0x84 DUP4 ADD SWAP1 PUSH3 0x179C JUMP JUMPDEST SUB SWAP2 PUSH1 0x0 SWAP9 DUP10 SWAP2 AND GAS CALL DUP5 SWAP2 DUP2 PUSH3 0x1F86 JUMPI JUMPDEST POP PUSH3 0x1F75 JUMPI POP POP POP RETURNDATASIZE PUSH1 0x0 EQ PUSH3 0x1F6C JUMPI RETURNDATASIZE PUSH3 0x1F2B DUP2 PUSH3 0x19C7 JUMP JUMPDEST SWAP1 PUSH3 0x1F3B PUSH1 0x40 MLOAD SWAP3 DUP4 PUSH3 0x1959 JUMP JUMPDEST DUP2 MSTORE DUP1 SWAP2 DUP4 RETURNDATASIZE SWAP3 ADD RETURNDATACOPY JUMPDEST DUP1 MLOAD SWAP2 DUP3 PUSH3 0x1F69 JUMPI PUSH1 0x40 MLOAD PUSH3 0x461BCD PUSH1 0xE5 SHL DUP2 MSTORE DUP1 PUSH3 0x1C63 PUSH1 0x4 DUP3 ADD PUSH3 0x1C67 JUMP JUMPDEST ADD REVERT JUMPDEST POP PUSH1 0x60 PUSH3 0x1F45 JUMP JUMPDEST PUSH1 0x1 PUSH1 0x1 PUSH1 0xE0 SHL SUB NOT AND EQ SWAP3 POP SWAP1 POP JUMP JUMPDEST SWAP1 SWAP2 POP DUP6 DUP2 DUP2 RETURNDATASIZE DUP4 GT PUSH3 0x1FC9 JUMPI JUMPDEST PUSH3 0x1FA1 DUP2 DUP4 PUSH3 0x1959 JUMP JUMPDEST DUP2 ADD SUB SLT PUSH3 0x1FC5 JUMPI MLOAD PUSH1 0x1 PUSH1 0x1 PUSH1 0xE0 SHL SUB NOT DUP2 AND DUP2 SUB PUSH3 0x1FC5 JUMPI SWAP1 CODESIZE PUSH3 0x1F0D JUMP JUMPDEST DUP5 DUP1 REVERT JUMPDEST POP RETURNDATASIZE PUSH3 0x1F95 JUMP JUMPDEST POP POP SWAP2 POP POP PUSH1 0x1 SWAP1 JUMP JUMPDEST PUSH1 0x0 NOT DUP2 EQ PUSH3 0x1FEB JUMPI PUSH1 0x1 ADD SWAP1 JUMP JUMPDEST PUSH4 0x4E487B71 PUSH1 0xE0 SHL PUSH1 0x0 MSTORE PUSH1 0x11 PUSH1 0x4 MSTORE PUSH1 0x24 PUSH1 0x0 REVERT JUMPDEST ISZERO PUSH3 0x2009 JUMPI JUMP JUMPDEST PUSH1 0x40 MLOAD PUSH3 0x461BCD PUSH1 0xE5 SHL DUP2 MSTORE PUSH1 0x20 PUSH1 0x4 DUP3 ADD MSTORE PUSH1 0x1C PUSH1 0x24 DUP3 ADD MSTORE PUSH32 0x4552433732313A20746F6B656E20616C7265616479206D696E74656400000000 PUSH1 0x44 DUP3 ADD MSTORE PUSH1 0x64 SWAP1 REVERT JUMPDEST ISZERO PUSH3 0x2056 JUMPI JUMP JUMPDEST PUSH1 0x40 MLOAD PUSH3 0x461BCD PUSH1 0xE5 SHL DUP2 MSTORE PUSH1 0x20 PUSH1 0x4 DUP3 ADD MSTORE PUSH1 0x12 PUSH1 0x24 DUP3 ADD MSTORE PUSH18 0x13919508191BD95CC81B9BDD08195E1A5CDD PUSH1 0x72 SHL PUSH1 0x44 DUP3 ADD MSTORE PUSH1 0x64 SWAP1 REVERT JUMPDEST PUSH8 0xFFFFFFFFFFFFFFFF DUP2 GT PUSH3 0x52B JUMPI PUSH1 0x5 SHL PUSH1 0x20 ADD SWAP1 JUMP JUMPDEST PUSH1 0x40 MLOAD SWAP1 PUSH3 0x20B8 DUP3 PUSH3 0x191F JUMP JUMPDEST PUSH1 0x0 PUSH1 0x80 DUP4 DUP3 DUP2 MSTORE PUSH1 0x60 PUSH1 0x20 DUP3 ADD MSTORE DUP3 PUSH1 0x40 DUP3 ADD MSTORE DUP3 PUSH1 0x60 DUP3 ADD MSTORE ADD MSTORE JUMP JUMPDEST SWAP1 PUSH3 0x20E3 DUP3 PUSH3 0x2090 JUMP JUMPDEST PUSH3 0x20F2 PUSH1 0x40 MLOAD SWAP2 DUP3 PUSH3 0x1959 JUMP JUMPDEST DUP3 DUP2 MSTORE DUP1 SWAP3 PUSH3 0x2105 PUSH1 0x1F NOT SWAP2 PUSH3 0x2090 JUMP JUMPDEST ADD SWAP1 PUSH1 0x0 JUMPDEST DUP3 DUP2 LT PUSH3 0x2117 JUMPI POP POP POP JUMP JUMPDEST PUSH1 0x20 SWAP1 PUSH3 0x2124 PUSH3 0x20A9 JUMP JUMPDEST DUP3 DUP3 DUP6 ADD ADD MSTORE ADD PUSH3 0x210A JUMP JUMPDEST DUP1 MLOAD DUP3 LT ISZERO PUSH3 0x2146 JUMPI PUSH1 0x20 SWAP2 PUSH1 0x5 SHL ADD ADD SWAP1 JUMP JUMPDEST PUSH4 0x4E487B71 PUSH1 0xE0 SHL PUSH1 0x0 MSTORE PUSH1 0x32 PUSH1 0x4 MSTORE PUSH1 0x24 PUSH1 0x0 REVERT INVALID PUSH1 0x40 PUSH1 0x80 DUP2 MSTORE CALLVALUE PUSH3 0x686 JUMPI PUSH3 0x22CB DUP1 CODESIZE SUB DUP1 PUSH3 0x1E DUP2 PUSH3 0x68B JUMP JUMPDEST SWAP3 DUP4 CODECOPY DUP2 ADD PUSH2 0x100 DUP3 DUP3 SUB SLT PUSH3 0x686 JUMPI DUP2 MLOAD PUSH1 0x1 PUSH1 0x1 PUSH1 0x40 SHL SUB SWAP3 SWAP1 DUP4 DUP2 GT PUSH3 0x686 JUMPI DUP3 PUSH3 0x51 SWAP2 DUP4 ADD PUSH3 0x6B1 JUMP JUMPDEST SWAP1 PUSH1 0x20 SWAP3 DUP4 DUP3 ADD MLOAD DUP6 DUP2 GT PUSH3 0x686 JUMPI DUP2 PUSH3 0x6F SWAP2 DUP5 ADD PUSH3 0x6B1 JUMP JUMPDEST SWAP1 DUP7 DUP4 ADD MLOAD SWAP1 PUSH1 0x60 DUP5 ADD MLOAD SWAP1 PUSH3 0x89 PUSH1 0x80 DUP7 ADD PUSH3 0x723 JUMP JUMPDEST SWAP8 PUSH1 0xA0 DUP7 ADD MLOAD SWAP2 PUSH1 0xC0 DUP8 ADD MLOAD SWAP1 DUP3 DUP3 GT PUSH3 0x686 JUMPI PUSH3 0xB2 PUSH1 0xE0 SWAP2 PUSH3 0xBA SWAP4 DUP11 ADD PUSH3 0x6B1 JUMP JUMPDEST SWAP8 ADD PUSH3 0x723 JUMP JUMPDEST SWAP3 DUP8 MLOAD SWAP7 DUP3 DUP9 GT PUSH3 0x570 JUMPI PUSH1 0x3 SWAP2 DUP3 SLOAD SWAP9 PUSH1 0x1 SWAP11 DUP12 DUP12 DUP2 SHR SWAP12 AND DUP1 ISZERO PUSH3 0x67B JUMPI JUMPDEST DUP14 DUP13 LT EQ PUSH3 0x665 JUMPI DUP13 SWAP11 DUP3 SWAP2 PUSH1 0x1F SWAP15 DUP16 SWAP3 DUP4 DUP2 GT PUSH3 0x602 JUMPI JUMPDEST POP POP DUP13 SWAP2 DUP4 GT PUSH1 0x1 EQ PUSH3 0x592 JUMPI PUSH1 0x0 SWAP3 PUSH3 0x586 JUMPI JUMPDEST POP POP PUSH1 0x0 NOT DUP3 DUP7 SHL SHR NOT AND SWAP1 DUP12 SHL OR DUP4 SSTORE JUMPDEST DUP8 MLOAD DUP5 DUP2 GT PUSH3 0x570 JUMPI PUSH1 0x4 SWAP9 DUP10 SLOAD DUP13 DUP2 DUP2 SHR SWAP2 AND DUP1 ISZERO PUSH3 0x565 JUMPI JUMPDEST DUP13 DUP3 LT EQ PUSH3 0x550 JUMPI DUP3 SWAP2 DUP13 DUP16 SWAP3 DUP4 DUP2 GT PUSH3 0x4ED JUMPI JUMPDEST POP POP DUP13 SWAP2 DUP4 GT PUSH1 0x1 EQ PUSH3 0x47D JUMPI PUSH1 0x0 SWAP3 PUSH3 0x471 JUMPI JUMPDEST POP POP PUSH1 0x0 NOT DUP3 DUP7 SHL SHR NOT AND SWAP1 DUP12 SHL OR DUP9 SSTORE JUMPDEST PUSH3 0x189 CALLER PUSH3 0x738 JUMP JUMPDEST DUP10 PUSH1 0x6 SSTORE PUSH1 0x1 DUP1 PUSH1 0xA0 SHL SUB SWAP5 DUP6 PUSH1 0x1 DUP1 PUSH1 0xA0 SHL SUB NOT SWAP14 AND DUP14 PUSH1 0x7 SLOAD AND OR PUSH1 0x7 SSTORE PUSH1 0x8 SSTORE PUSH1 0x9 SSTORE DUP1 MLOAD SWAP3 DUP4 GT PUSH3 0x45C JUMPI PUSH1 0xA SLOAD DUP10 DUP2 DUP2 SHR SWAP2 AND DUP1 ISZERO PUSH3 0x451 JUMPI JUMPDEST DUP10 DUP3 LT EQ PUSH3 0x43C JUMPI SWAP1 DUP2 DUP12 DUP6 SWAP5 SWAP4 GT PUSH3 0x3E3 JUMPI JUMPDEST POP DUP9 SWAP1 DUP12 DUP5 GT PUSH1 0x1 EQ PUSH3 0x376 JUMPI PUSH1 0x0 SWAP4 PUSH3 0x36A JUMPI JUMPDEST POP POP DUP3 DUP10 SHL SWAP3 PUSH1 0x0 NOT SWAP2 SHL SHR NOT AND OR PUSH1 0xA SSTORE JUMPDEST TIMESTAMP PUSH1 0xB SSTORE DUP2 AND SWAP6 DUP7 DUP9 PUSH1 0xC SLOAD AND OR PUSH1 0xC SSTORE DUP3 PUSH1 0xF SSTORE PUSH8 0xDE0B6B3A7640000 SWAP1 DUP2 DUP5 MUL SWAP2 DUP5 DUP4 DIV EQ DUP5 ISZERO OR ISZERO PUSH3 0x314 JUMPI DUP8 ISZERO PUSH3 0x329 JUMPI POP PUSH1 0x2 SLOAD DUP2 DUP2 ADD DUP1 SWAP2 GT PUSH3 0x314 JUMPI PUSH1 0x0 PUSH32 0xDDF252AD1BE2C89B69C2B068FC378DAA952BA7F163C4A11628F55A4DF523B3EF DUP8 PUSH3 0x29A SWAP6 SWAP5 DUP12 SWAP5 PUSH1 0x2 SSTORE DUP5 DUP5 MSTORE DUP4 DUP3 MSTORE DUP14 DUP5 KECCAK256 DUP2 DUP2 SLOAD ADD SWAP1 SSTORE DUP14 MLOAD SWAP1 DUP2 MSTORE LOG3 PUSH3 0x738 JUMP JUMPDEST DUP5 PUSH1 0x0 MSTORE PUSH1 0xD DUP4 MSTORE DUP7 PUSH1 0x0 KECCAK256 SSTORE PUSH1 0xE SLOAD SWAP3 PUSH9 0x10000000000000000 DUP5 LT ISZERO PUSH3 0x2FF JUMPI DUP4 ADD DUP1 PUSH1 0xE SSTORE DUP4 LT ISZERO PUSH3 0x2EA JUMPI POP PUSH1 0xE PUSH1 0x0 MSTORE PUSH1 0x0 KECCAK256 ADD SWAP2 DUP3 SLOAD AND OR SWAP1 SSTORE MLOAD PUSH2 0x1B49 SWAP1 DUP2 PUSH3 0x782 DUP3 CODECOPY RETURN JUMPDEST PUSH1 0x32 SWAP1 PUSH4 0x4E487B71 PUSH1 0xE0 SHL PUSH1 0x0 MSTORE MSTORE PUSH1 0x24 PUSH1 0x0 REVERT JUMPDEST PUSH1 0x41 DUP3 PUSH4 0x4E487B71 PUSH1 0xE0 SHL PUSH1 0x0 MSTORE MSTORE PUSH1 0x24 PUSH1 0x0 REVERT JUMPDEST PUSH1 0x11 DUP6 PUSH4 0x4E487B71 PUSH1 0xE0 SHL PUSH1 0x0 MSTORE MSTORE PUSH1 0x24 PUSH1 0x0 REVERT JUMPDEST DUP5 PUSH1 0x64 SWAP2 DUP8 DUP13 MLOAD SWAP3 PUSH3 0x461BCD PUSH1 0xE5 SHL DUP5 MSTORE DUP4 ADD MSTORE PUSH1 0x24 DUP3 ADD MSTORE PUSH32 0x45524332303A206D696E7420746F20746865207A65726F206164647265737300 PUSH1 0x44 DUP3 ADD MSTORE REVERT JUMPDEST ADD MLOAD SWAP2 POP CODESIZE DUP1 PUSH3 0x1F7 JUMP JUMPDEST SWAP2 SWAP1 DUP11 SWAP5 POP PUSH1 0x1F NOT DUP5 AND SWAP3 PUSH1 0xA PUSH1 0x0 MSTORE DUP11 PUSH1 0x0 KECCAK256 SWAP4 PUSH1 0x0 JUMPDEST DUP13 DUP3 DUP3 LT PUSH3 0x3CC JUMPI POP POP DUP6 GT PUSH3 0x3B1 JUMPI JUMPDEST POP POP POP POP DUP2 SHL ADD PUSH1 0xA SSTORE PUSH3 0x20A JUMP JUMPDEST ADD MLOAD SWAP1 PUSH1 0xF8 DUP5 PUSH1 0x0 NOT SWAP3 SHL AND SHR NOT AND SWAP1 SSTORE CODESIZE DUP1 DUP1 DUP1 PUSH3 0x3A1 JUMP JUMPDEST DUP4 DUP6 ADD MLOAD DUP8 SSTORE DUP15 SWAP9 SWAP1 SWAP7 ADD SWAP6 SWAP4 DUP5 ADD SWAP4 ADD PUSH3 0x38E JUMP JUMPDEST SWAP1 SWAP2 SWAP3 POP PUSH1 0xA PUSH1 0x0 MSTORE DUP9 PUSH1 0x0 KECCAK256 DUP12 DUP1 DUP7 ADD PUSH1 0x5 SHR DUP3 ADD SWAP3 DUP12 DUP8 LT PUSH3 0x432 JUMPI JUMPDEST SWAP2 DUP13 SWAP2 DUP8 SWAP7 SWAP6 SWAP5 SWAP4 ADD PUSH1 0x5 SHR ADD SWAP2 JUMPDEST DUP3 DUP2 LT PUSH3 0x422 JUMPI POP POP PUSH3 0x1E0 JUMP JUMPDEST PUSH1 0x0 DUP2 SSTORE DUP7 SWAP6 POP DUP13 SWAP2 ADD PUSH3 0x412 JUMP JUMPDEST SWAP3 POP DUP2 SWAP3 PUSH3 0x403 JUMP JUMPDEST PUSH1 0x22 DUP9 PUSH4 0x4E487B71 PUSH1 0xE0 SHL PUSH1 0x0 MSTORE MSTORE PUSH1 0x24 PUSH1 0x0 REVERT JUMPDEST SWAP1 PUSH1 0x7F AND SWAP1 PUSH3 0x1CA JUMP JUMPDEST PUSH1 0x41 DUP8 PUSH4 0x4E487B71 PUSH1 0xE0 SHL PUSH1 0x0 MSTORE MSTORE PUSH1 0x24 PUSH1 0x0 REVERT JUMPDEST ADD MLOAD SWAP1 POP CODESIZE DUP1 PUSH3 0x16C JUMP JUMPDEST PUSH1 0x0 DUP13 DUP2 MSTORE DUP14 DUP2 KECCAK256 DUP16 SWAP6 POP SWAP3 SWAP2 SWAP1 PUSH1 0x1F NOT DUP6 AND SWAP1 DUP16 JUMPDEST DUP3 DUP3 LT PUSH3 0x4CC JUMPI POP POP DUP5 GT PUSH3 0x4B3 JUMPI JUMPDEST POP POP POP DUP2 SHL ADD DUP9 SSTORE PUSH3 0x17E JUMP JUMPDEST ADD MLOAD PUSH1 0x0 NOT DUP4 DUP9 SHL PUSH1 0xF8 AND SHR NOT AND SWAP1 SSTORE CODESIZE DUP1 DUP1 PUSH3 0x4A5 JUMP JUMPDEST SWAP2 SWAP3 SWAP4 SWAP6 SWAP7 DUP3 SWAP2 SWAP6 DUP8 DUP7 ADD MLOAD DUP2 SSTORE ADD SWAP6 ADD SWAP4 ADD SWAP1 DUP16 SWAP6 SWAP5 SWAP4 SWAP3 SWAP2 DUP16 PUSH3 0x493 JUMP JUMPDEST SWAP2 SWAP4 POP SWAP2 DUP13 PUSH1 0x0 MSTORE DUP3 PUSH1 0x0 KECCAK256 SWAP2 DUP2 DUP7 ADD PUSH1 0x5 SHR DUP4 ADD SWAP4 DUP7 LT PUSH3 0x546 JUMPI JUMPDEST DUP16 SWAP1 SWAP3 DUP3 DUP8 SWAP7 SWAP5 SWAP6 SWAP4 SWAP6 ADD PUSH1 0x5 SHR ADD SWAP2 JUMPDEST DUP3 DUP2 LT PUSH3 0x52E JUMPI POP DUP15 SWAP2 POP PUSH3 0x155 JUMP JUMPDEST PUSH1 0x0 SWAP2 SWAP4 SWAP6 POP DUP1 SWAP3 SWAP5 POP SSTORE ADD SWAP2 DUP15 SWAP2 DUP15 DUP6 SWAP5 PUSH3 0x51C JUMP JUMPDEST SWAP3 POP DUP2 SWAP3 PUSH3 0x50B JUMP JUMPDEST PUSH1 0x22 DUP12 PUSH4 0x4E487B71 PUSH1 0xE0 SHL PUSH1 0x0 MSTORE MSTORE PUSH1 0x24 PUSH1 0x0 REVERT JUMPDEST SWAP1 PUSH1 0x7F AND SWAP1 PUSH3 0x13E JUMP JUMPDEST PUSH4 0x4E487B71 PUSH1 0xE0 SHL PUSH1 0x0 MSTORE PUSH1 0x41 PUSH1 0x4 MSTORE PUSH1 0x24 PUSH1 0x0 REVERT JUMPDEST ADD MLOAD SWAP1 POP CODESIZE DUP1 PUSH3 0x10F JUMP JUMPDEST PUSH1 0x0 DUP8 DUP2 MSTORE DUP14 DUP2 KECCAK256 DUP16 SWAP6 POP SWAP3 SWAP2 SWAP1 PUSH1 0x1F NOT DUP6 AND SWAP1 DUP16 JUMPDEST DUP3 DUP3 LT PUSH3 0x5E1 JUMPI POP POP DUP5 GT PUSH3 0x5C8 JUMPI JUMPDEST POP POP POP DUP2 SHL ADD DUP4 SSTORE PUSH3 0x121 JUMP JUMPDEST ADD MLOAD PUSH1 0x0 NOT DUP4 DUP9 SHL PUSH1 0xF8 AND SHR NOT AND SWAP1 SSTORE CODESIZE DUP1 DUP1 PUSH3 0x5BA JUMP JUMPDEST SWAP2 SWAP3 SWAP4 SWAP6 SWAP7 DUP3 SWAP2 SWAP6 DUP8 DUP7 ADD MLOAD DUP2 SSTORE ADD SWAP6 ADD SWAP4 ADD SWAP1 DUP16 SWAP6 SWAP5 SWAP4 SWAP3 SWAP2 DUP16 PUSH3 0x5A8 JUMP JUMPDEST SWAP2 SWAP4 POP SWAP2 DUP8 PUSH1 0x0 MSTORE DUP3 PUSH1 0x0 KECCAK256 SWAP2 DUP2 DUP7 ADD PUSH1 0x5 SHR DUP4 ADD SWAP4 DUP7 LT PUSH3 0x65B JUMPI JUMPDEST DUP16 SWAP1 SWAP3 DUP3 DUP8 SWAP7 SWAP5 SWAP6 SWAP4 SWAP6 ADD PUSH1 0x5 SHR ADD SWAP2 JUMPDEST DUP3 DUP2 LT PUSH3 0x643 JUMPI POP DUP15 SWAP2 POP PUSH3 0xF8 JUMP JUMPDEST PUSH1 0x0 SWAP2 SWAP4 SWAP6 POP DUP1 SWAP3 SWAP5 POP SSTORE ADD SWAP2 DUP15 SWAP2 DUP15 DUP6 SWAP5 PUSH3 0x631 JUMP JUMPDEST SWAP3 POP DUP2 SWAP3 PUSH3 0x620 JUMP JUMPDEST PUSH4 0x4E487B71 PUSH1 0xE0 SHL PUSH1 0x0 MSTORE PUSH1 0x22 PUSH1 0x4 MSTORE PUSH1 0x24 PUSH1 0x0 REVERT JUMPDEST SWAP11 PUSH1 0x7F AND SWAP11 PUSH3 0xDD JUMP JUMPDEST PUSH1 0x0 DUP1 REVERT JUMPDEST PUSH1 0x40 MLOAD SWAP2 SWAP1 PUSH1 0x1F ADD PUSH1 0x1F NOT AND DUP3 ADD PUSH1 0x1 PUSH1 0x1 PUSH1 0x40 SHL SUB DUP2 GT DUP4 DUP3 LT OR PUSH3 0x570 JUMPI PUSH1 0x40 MSTORE JUMP JUMPDEST SWAP2 SWAP1 DUP1 PUSH1 0x1F DUP5 ADD SLT ISZERO PUSH3 0x686 JUMPI DUP3 MLOAD PUSH1 0x1 PUSH1 0x1 PUSH1 0x40 SHL SUB DUP2 GT PUSH3 0x570 JUMPI PUSH1 0x20 SWAP1 PUSH3 0x6E7 PUSH1 0x1F DUP3 ADD PUSH1 0x1F NOT AND DUP4 ADD PUSH3 0x68B JUMP JUMPDEST SWAP3 DUP2 DUP5 MSTORE DUP3 DUP3 DUP8 ADD ADD GT PUSH3 0x686 JUMPI PUSH1 0x0 JUMPDEST DUP2 DUP2 LT PUSH3 0x70F JUMPI POP DUP3 PUSH1 0x0 SWAP4 SWAP5 SWAP6 POP ADD ADD MSTORE SWAP1 JUMP JUMPDEST DUP6 DUP2 ADD DUP4 ADD MLOAD DUP5 DUP3 ADD DUP5 ADD MSTORE DUP3 ADD PUSH3 0x6F9 JUMP JUMPDEST MLOAD SWAP1 PUSH1 0x1 PUSH1 0x1 PUSH1 0xA0 SHL SUB DUP3 AND DUP3 SUB PUSH3 0x686 JUMPI JUMP JUMPDEST PUSH1 0x5 DUP1 SLOAD PUSH1 0x1 PUSH1 0x1 PUSH1 0xA0 SHL SUB SWAP3 DUP4 AND PUSH1 0x1 PUSH1 0x1 PUSH1 0xA0 SHL SUB NOT DUP3 AND DUP2 OR SWAP1 SWAP3 SSTORE SWAP1 SWAP2 AND PUSH32 0x8BE0079C531659141344CD1FD0A4F28419497F9722A3DAAFE3B4186F6B6457E0 PUSH1 0x0 DUP1 LOG3 JUMP INVALID PUSH1 0x80 PUSH1 0x40 DUP2 DUP2 MSTORE PUSH1 0x4 DUP1 CALLDATASIZE LT ISZERO PUSH2 0x15 JUMPI PUSH1 0x0 DUP1 REVERT JUMPDEST PUSH1 0x0 SWAP3 DUP4 CALLDATALOAD PUSH1 0xE0 SHR SWAP1 DUP2 PUSH4 0x2D05D3F EQ PUSH2 0x1158 JUMPI POP DUP1 PUSH4 0x6FDDE03 EQ PUSH2 0x1063 JUMPI DUP1 PUSH4 0x95EA7B3 EQ PUSH2 0x1039 JUMPI DUP1 PUSH4 0xEE2CB10 EQ PUSH2 0x1010 JUMPI DUP1 PUSH4 0x16B60249 EQ PUSH2 0xFC3 JUMPI DUP1 PUSH4 0x18160DDD EQ PUSH2 0xFA4 JUMPI DUP1 PUSH4 0x23B872DD EQ PUSH2 0xEDA JUMPI DUP1 PUSH4 0x313CE567 EQ PUSH2 0xEBE JUMPI DUP1 PUSH4 0x38EA2FC7 EQ PUSH2 0xE87 JUMPI DUP1 PUSH4 0x39509351 EQ PUSH2 0xE37 JUMPI DUP1 PUSH4 0x4D21E019 EQ PUSH2 0xDC2 JUMPI DUP1 PUSH4 0x589F3481 EQ PUSH2 0xD8F JUMPI DUP1 PUSH4 0x5EDE788F EQ PUSH2 0xD70 JUMPI DUP1 PUSH4 0x6588103B EQ PUSH2 0xD47 JUMPI DUP1 PUSH4 0x70A08231 EQ PUSH2 0xD10 JUMPI DUP1 PUSH4 0x715018A6 EQ PUSH2 0xCB3 JUMPI DUP1 PUSH4 0x7427A40C EQ PUSH2 0xC73 JUMPI DUP1 PUSH4 0x75CBF75D EQ PUSH2 0xC46 JUMPI DUP1 PUSH4 0x7B85B132 EQ PUSH2 0xC15 JUMPI DUP1 PUSH4 0x7E830574 EQ PUSH2 0xBF6 JUMPI DUP1 PUSH4 0x817BC0CB EQ PUSH2 0x2DC JUMPI DUP1 PUSH4 0x8477D9F3 EQ PUSH2 0xA6D JUMPI DUP1 PUSH4 0x87269729 EQ PUSH2 0xA4E JUMPI DUP1 PUSH4 0x8DA5CB5B EQ PUSH2 0xA25 JUMPI DUP1 PUSH4 0x8FCB4E5B EQ PUSH2 0x92E JUMPI DUP1 PUSH4 0x944E6C96 EQ PUSH2 0x8F4 JUMPI DUP1 PUSH4 0x95D89B41 EQ PUSH2 0x7D9 JUMPI DUP1 PUSH4 0xA457C2D7 EQ PUSH2 0x732 JUMPI DUP1 PUSH4 0xA9059CBB EQ PUSH2 0x701 JUMPI DUP1 PUSH4 0xD1A93D18 EQ PUSH2 0x2E1 JUMPI DUP1 PUSH4 0xD5002F2E EQ PUSH2 0x2DC JUMPI DUP1 PUSH4 0xD8270DCE EQ PUSH2 0x2BD JUMPI DUP1 PUSH4 0xDD62ED3E EQ PUSH2 0x274 JUMPI DUP1 PUSH4 0xDE69B3AA EQ PUSH2 0x238 JUMPI PUSH4 0xF2FDE38B EQ PUSH2 0x1A4 JUMPI PUSH1 0x0 DUP1 REVERT JUMPDEST CALLVALUE PUSH2 0x234 JUMPI PUSH1 0x20 CALLDATASIZE PUSH1 0x3 NOT ADD SLT PUSH2 0x234 JUMPI PUSH2 0x1BD PUSH2 0x11BD JUMP JUMPDEST SWAP2 PUSH2 0x1C6 PUSH2 0x13B0 JUMP JUMPDEST PUSH1 0x1 PUSH1 0x1 PUSH1 0xA0 SHL SUB DUP4 AND ISZERO PUSH2 0x1E2 JUMPI DUP4 PUSH2 0x1DF DUP5 PUSH2 0x1408 JUMP JUMPDEST DUP1 RETURN JUMPDEST SWAP1 PUSH1 0x20 PUSH1 0x84 SWAP3 MLOAD SWAP2 PUSH3 0x461BCD PUSH1 0xE5 SHL DUP4 MSTORE DUP3 ADD MSTORE PUSH1 0x26 PUSH1 0x24 DUP3 ADD MSTORE PUSH32 0x4F776E61626C653A206E6577206F776E657220697320746865207A65726F2061 PUSH1 0x44 DUP3 ADD MSTORE PUSH6 0x646472657373 PUSH1 0xD0 SHL PUSH1 0x64 DUP3 ADD MSTORE REVERT JUMPDEST DUP3 DUP1 REVERT JUMPDEST POP POP CALLVALUE PUSH2 0x270 JUMPI PUSH1 0x20 CALLDATASIZE PUSH1 0x3 NOT ADD SLT PUSH2 0x270 JUMPI PUSH1 0x20 SWAP2 DUP2 SWAP1 PUSH1 0x1 PUSH1 0x1 PUSH1 0xA0 SHL SUB PUSH2 0x260 PUSH2 0x11BD JUMP JUMPDEST AND DUP2 MSTORE PUSH1 0xD DUP5 MSTORE KECCAK256 SLOAD SWAP1 MLOAD SWAP1 DUP2 MSTORE RETURN JUMPDEST POP DUP1 REVERT JUMPDEST POP POP CALLVALUE PUSH2 0x270 JUMPI DUP1 PUSH1 0x3 NOT CALLDATASIZE ADD SLT PUSH2 0x270 JUMPI DUP1 PUSH1 0x20 SWAP3 PUSH2 0x292 PUSH2 0x11BD JUMP JUMPDEST PUSH2 0x29A PUSH2 0x11D8 JUMP JUMPDEST PUSH1 0x1 PUSH1 0x1 PUSH1 0xA0 SHL SUB SWAP2 DUP3 AND DUP4 MSTORE PUSH1 0x1 DUP7 MSTORE DUP4 DUP4 KECCAK256 SWAP2 AND DUP3 MSTORE DUP5 MSTORE KECCAK256 SLOAD SWAP1 MLOAD SWAP1 DUP2 MSTORE RETURN JUMPDEST POP POP CALLVALUE PUSH2 0x270 JUMPI DUP2 PUSH1 0x3 NOT CALLDATASIZE ADD SLT PUSH2 0x270 JUMPI PUSH1 0x20 SWAP1 PUSH1 0xB SLOAD SWAP1 MLOAD SWAP1 DUP2 MSTORE RETURN JUMPDEST PUSH2 0x135E JUMP JUMPDEST POP SWAP1 PUSH1 0x20 DUP1 PUSH1 0x3 NOT CALLDATASIZE ADD SLT PUSH2 0x6FD JUMPI DUP3 CALLDATALOAD SWAP3 PUSH1 0x2 PUSH1 0x6 SLOAD EQ PUSH2 0x6BC JUMPI PUSH1 0x2 PUSH1 0x6 SSTORE PUSH1 0x9 DUP1 SLOAD SWAP1 DUP2 ISZERO PUSH2 0x683 JUMPI PUSH2 0x323 DUP7 DUP1 ISZERO SWAP4 PUSH2 0x31E DUP6 ISZERO PUSH2 0x16E4 JUMP JUMPDEST PUSH2 0x173C JUMP JUMPDEST CALLVALUE SUB PUSH2 0x649 JUMPI PUSH8 0xDE0B6B3A7640000 DUP1 DUP8 MUL SWAP3 DUP8 DUP5 DIV DUP3 EQ OR ISZERO PUSH2 0x636 JUMPI PUSH1 0xF SLOAD DUP8 SUB PUSH2 0x48F JUMPI POP POP PUSH1 0x5 SLOAD PUSH1 0x1 PUSH1 0x1 PUSH1 0xA0 SHL SUB AND DUP1 DUP8 MSTORE PUSH1 0xD DUP5 MSTORE DUP5 DUP8 KECCAK256 SLOAD PUSH1 0xF SLOAD SWAP2 SWAP4 SWAP2 SUB PUSH2 0x44C JUMPI DUP3 DUP8 MSTORE DUP7 DUP5 MSTORE DUP2 DUP6 DUP9 KECCAK256 SLOAD LT PUSH2 0x409 JUMPI POP DUP6 DUP1 DUP1 SWAP4 PUSH2 0x38F DUP3 SWAP5 CALLER DUP4 PUSH2 0x1474 JUMP JUMPDEST PUSH2 0x39A DUP9 CALLER DUP4 PUSH2 0x176B JUMP JUMPDEST PUSH2 0x3A3 CALLER PUSH2 0x196A JUMP JUMPDEST DUP2 SWAP1 CALLVALUE ISZERO PUSH2 0x3FF JUMPI JUMPDEST CALLVALUE SWAP2 CALL ISZERO PUSH2 0x3F5 JUMPI SWAP1 PUSH32 0x630B54F21D1C5AE41C4633AD96E8C15CE15665365EDED6A38476FFA71C8ACE6C SWAP2 JUMPDEST DUP2 MLOAD SWAP4 DUP5 MSTORE CALLVALUE SWAP1 DUP5 ADD MSTORE CALLER SWAP3 LOG2 PUSH2 0x3ED PUSH2 0x18FC JUMP JUMPDEST PUSH1 0x1 PUSH1 0x6 SSTORE DUP1 RETURN JUMPDEST DUP2 MLOAD RETURNDATASIZE DUP6 DUP3 RETURNDATACOPY RETURNDATASIZE SWAP1 REVERT JUMPDEST PUSH2 0x8FC SWAP2 POP PUSH2 0x3AC JUMP JUMPDEST DUP5 MLOAD PUSH3 0x461BCD PUSH1 0xE5 SHL DUP2 MSTORE SWAP1 DUP2 ADD DUP5 SWAP1 MSTORE PUSH1 0x1D PUSH1 0x24 DUP3 ADD MSTORE PUSH32 0x4F776E65722068617320696E73756666696369656E7420736861726573000000 PUSH1 0x44 DUP3 ADD MSTORE PUSH1 0x64 SWAP1 REVERT JUMPDEST DUP5 MLOAD PUSH3 0x461BCD PUSH1 0xE5 SHL DUP2 MSTORE SWAP1 DUP2 ADD DUP5 SWAP1 MSTORE PUSH1 0x1D PUSH1 0x24 DUP3 ADD MSTORE PUSH32 0x4F776E657220646F65736E2774206861766520616C6C20736861726573000000 PUSH1 0x44 DUP3 ADD MSTORE PUSH1 0x64 SWAP1 REVERT JUMPDEST SWAP3 SWAP7 SWAP2 POP SWAP3 SWAP4 DUP6 SWAP3 DUP3 SWAP6 DUP4 JUMPDEST PUSH1 0xE SLOAD DUP2 LT DUP1 PUSH2 0x62D JUMPI JUMPDEST ISZERO PUSH2 0x5B7 JUMPI PUSH2 0x4B4 DUP2 PUSH2 0x11EE JUMP JUMPDEST SWAP1 SLOAD PUSH1 0x3 SWAP2 SWAP1 SWAP2 SHL SHR PUSH1 0x1 PUSH1 0x1 PUSH1 0xA0 SHL SUB AND CALLER DUP2 EQ ISZERO DUP1 PUSH2 0x5A4 JUMPI JUMPDEST PUSH2 0x4E4 JUMPI JUMPDEST POP PUSH2 0x4DF SWAP1 PUSH2 0x174F JUMP JUMPDEST PUSH2 0x49B JUMP JUMPDEST DUP1 DUP7 MSTORE PUSH1 0xD DUP4 MSTORE DUP5 DUP7 KECCAK256 SLOAD DUP1 DUP9 GT PUSH2 0x59E JUMPI POP DUP7 SWAP1 JUMPDEST DUP2 ISZERO SWAP1 DUP2 ISZERO PUSH2 0x50B JUMPI JUMPDEST POP POP PUSH2 0x4D5 JUMP JUMPDEST DUP6 DUP4 SWAP5 SWAP12 SWAP10 SWAP4 MUL SWAP2 DUP5 DUP4 DIV DUP8 EQ OR ISZERO PUSH2 0x58B JUMPI DUP8 DUP1 DUP1 DUP7 SWAP6 SWAP5 DUP2 SWAP5 PUSH2 0x535 DUP16 SWAP10 PUSH2 0x53F SWAP11 SLOAD PUSH2 0x173C JUMP JUMPDEST SWAP9 DUP10 SWAP3 CALLER DUP4 PUSH2 0x1474 JUMP JUMPDEST PUSH2 0x54A DUP9 CALLER DUP4 PUSH2 0x176B JUMP JUMPDEST DUP3 DUP3 ISZERO PUSH2 0x582 JUMPI JUMPDEST CALL ISZERO PUSH2 0x578 JUMPI SWAP2 PUSH2 0x569 PUSH2 0x56F SWAP3 PUSH2 0x4DF SWAP5 PUSH2 0x175E JUMP JUMPDEST SWAP8 PUSH2 0x1451 JUMP JUMPDEST SWAP8 SWAP1 CODESIZE DUP1 PUSH2 0x504 JUMP JUMPDEST DUP6 MLOAD RETURNDATASIZE DUP9 DUP3 RETURNDATACOPY RETURNDATASIZE SWAP1 REVERT JUMPDEST POP PUSH2 0x8FC PUSH2 0x552 JUMP JUMPDEST PUSH4 0x4E487B71 PUSH1 0xE0 SHL DUP9 MSTORE PUSH1 0x11 DUP14 MSTORE PUSH1 0x24 DUP9 REVERT JUMPDEST SWAP1 PUSH2 0x4FA JUMP JUMPDEST POP DUP1 DUP7 MSTORE PUSH1 0xD DUP4 MSTORE DUP5 DUP7 KECCAK256 SLOAD ISZERO ISZERO PUSH2 0x4D0 JUMP JUMPDEST POP SWAP5 POP POP SWAP4 POP SWAP5 SWAP1 PUSH2 0x5EC JUMPI POP SWAP1 PUSH32 0x630B54F21D1C5AE41C4633AD96E8C15CE15665365EDED6A38476FFA71C8ACE6C SWAP2 PUSH2 0x3D8 JUMP JUMPDEST SWAP2 MLOAD PUSH3 0x461BCD PUSH1 0xE5 SHL DUP2 MSTORE SWAP2 DUP3 ADD MSTORE PUSH1 0x1B PUSH1 0x24 DUP3 ADD MSTORE PUSH32 0x4E6F7420656E6F7567682073686172657320617661696C61626C650000000000 PUSH1 0x44 DUP3 ADD MSTORE PUSH1 0x64 SWAP1 REVERT JUMPDEST POP DUP6 ISZERO ISZERO PUSH2 0x4A6 JUMP JUMPDEST PUSH4 0x4E487B71 PUSH1 0xE0 SHL DUP9 MSTORE PUSH1 0x11 DUP5 MSTORE PUSH1 0x24 DUP9 REVERT JUMPDEST DUP5 MLOAD PUSH3 0x461BCD PUSH1 0xE5 SHL DUP2 MSTORE DUP1 DUP5 ADD DUP6 SWAP1 MSTORE PUSH1 0x14 PUSH1 0x24 DUP3 ADD MSTORE PUSH20 0x125B98DBDC9C9958DD0811551208185B5BDD5B9D PUSH1 0x62 SHL PUSH1 0x44 DUP3 ADD MSTORE PUSH1 0x64 SWAP1 REVERT JUMPDEST DUP5 MLOAD PUSH3 0x461BCD PUSH1 0xE5 SHL DUP2 MSTORE DUP1 DUP5 ADD DUP6 SWAP1 MSTORE PUSH1 0x13 PUSH1 0x24 DUP3 ADD MSTORE PUSH19 0x14DA185C99481C1C9A58D9481B9BDD081CD95D PUSH1 0x6A SHL PUSH1 0x44 DUP3 ADD MSTORE PUSH1 0x64 SWAP1 REVERT JUMPDEST SWAP2 MLOAD PUSH3 0x461BCD PUSH1 0xE5 SHL DUP2 MSTORE SWAP2 DUP3 ADD MSTORE PUSH1 0x1F PUSH1 0x24 DUP3 ADD MSTORE PUSH32 0x5265656E7472616E637947756172643A207265656E7472616E742063616C6C00 PUSH1 0x44 DUP3 ADD MSTORE PUSH1 0x64 SWAP1 REVERT JUMPDEST DUP4 DUP1 REVERT JUMPDEST POP POP CALLVALUE PUSH2 0x270 JUMPI DUP1 PUSH1 0x3 NOT CALLDATASIZE ADD SLT PUSH2 0x270 JUMPI PUSH1 0x20 SWAP1 PUSH2 0x72B PUSH2 0x721 PUSH2 0x11BD JUMP JUMPDEST PUSH1 0x24 CALLDATALOAD SWAP1 CALLER PUSH2 0x1474 JUMP JUMPDEST MLOAD PUSH1 0x1 DUP2 MSTORE RETURN JUMPDEST POP DUP3 CALLVALUE PUSH2 0x7D6 JUMPI DUP3 PUSH1 0x3 NOT CALLDATASIZE ADD SLT PUSH2 0x7D6 JUMPI PUSH2 0x74C PUSH2 0x11BD JUMP JUMPDEST SWAP2 DUP4 PUSH1 0x24 CALLDATALOAD SWAP3 CALLER DUP2 MSTORE PUSH1 0x1 PUSH1 0x20 MSTORE DUP2 DUP2 KECCAK256 PUSH1 0x1 DUP1 PUSH1 0xA0 SHL SUB DUP7 AND DUP3 MSTORE PUSH1 0x20 MSTORE KECCAK256 SLOAD SWAP1 DUP3 DUP3 LT PUSH2 0x785 JUMPI PUSH1 0x20 DUP6 PUSH2 0x72B DUP6 DUP6 SUB DUP8 CALLER PUSH2 0x15E2 JUMP JUMPDEST PUSH1 0x84 SWAP1 PUSH1 0x20 DUP7 MLOAD SWAP2 PUSH3 0x461BCD PUSH1 0xE5 SHL DUP4 MSTORE DUP3 ADD MSTORE PUSH1 0x25 PUSH1 0x24 DUP3 ADD MSTORE PUSH32 0x45524332303A2064656372656173656420616C6C6F77616E63652062656C6F77 PUSH1 0x44 DUP3 ADD MSTORE PUSH5 0x207A65726F PUSH1 0xD8 SHL PUSH1 0x64 DUP3 ADD MSTORE REVERT JUMPDEST DUP1 REVERT JUMPDEST POP SWAP2 CALLVALUE PUSH2 0x7D6 JUMPI DUP1 PUSH1 0x3 NOT CALLDATASIZE ADD SLT PUSH2 0x7D6 JUMPI DUP2 MLOAD SWAP2 DUP2 DUP5 SLOAD SWAP3 PUSH1 0x1 DUP5 DUP2 SHR SWAP2 DUP2 DUP7 AND SWAP6 DUP7 ISZERO PUSH2 0x8EA JUMPI JUMPDEST PUSH1 0x20 SWAP7 DUP8 DUP6 LT DUP2 EQ PUSH2 0x8D7 JUMPI SWAP1 DUP8 DUP10 SWAP11 SWAP3 DUP7 DUP12 SWAP10 SWAP11 SWAP12 MSTORE SWAP2 DUP3 PUSH1 0x0 EQ PUSH2 0x8AD JUMPI POP POP PUSH1 0x1 EQ PUSH2 0x852 JUMPI JUMPDEST DUP6 DUP9 PUSH2 0x84E DUP10 PUSH2 0x83F DUP5 DUP11 SUB DUP6 PUSH2 0x123B JUMP JUMPDEST MLOAD SWAP3 DUP3 DUP5 SWAP4 DUP5 MSTORE DUP4 ADD SWAP1 PUSH2 0x117D JUMP JUMPDEST SUB SWAP1 RETURN JUMPDEST DUP2 MSTORE DUP7 SWAP4 POP SWAP2 SWAP1 PUSH32 0x8A35ACFBC15FF81A39AE7D344FD709F28E8600B4AA8C65C6B64BFE7FE36BD19B JUMPDEST DUP3 DUP5 LT PUSH2 0x895 JUMPI POP POP POP DUP3 ADD ADD DUP2 PUSH2 0x83F PUSH2 0x84E CODESIZE PUSH2 0x82D JUMP JUMPDEST DUP1 SLOAD DUP5 DUP11 ADD DUP7 ADD MSTORE DUP9 SWAP6 POP DUP8 SWAP5 SWAP1 SWAP4 ADD SWAP3 DUP2 ADD PUSH2 0x87B JUMP JUMPDEST PUSH1 0xFF NOT AND DUP9 DUP3 ADD MSTORE SWAP5 ISZERO ISZERO PUSH1 0x5 SHL DUP8 ADD SWAP1 SWAP5 ADD SWAP5 POP DUP6 SWAP4 POP PUSH2 0x83F SWAP3 POP PUSH2 0x84E SWAP2 POP CODESIZE SWAP1 POP PUSH2 0x82D JUMP JUMPDEST PUSH4 0x4E487B71 PUSH1 0xE0 SHL DUP4 MSTORE PUSH1 0x22 DUP11 MSTORE PUSH1 0x24 DUP4 REVERT JUMPDEST SWAP3 PUSH1 0x7F AND SWAP3 PUSH2 0x803 JUMP JUMPDEST POP POP CALLVALUE PUSH2 0x270 JUMPI PUSH1 0x20 CALLDATASIZE PUSH1 0x3 NOT ADD SLT PUSH2 0x270 JUMPI PUSH1 0x20 SWAP2 DUP2 SWAP1 PUSH1 0x1 PUSH1 0x1 PUSH1 0xA0 SHL SUB PUSH2 0x91C PUSH2 0x11BD JUMP JUMPDEST AND DUP2 MSTORE PUSH1 0xD DUP5 MSTORE KECCAK256 SLOAD ISZERO ISZERO SWAP1 MLOAD SWAP1 DUP2 MSTORE RETURN JUMPDEST POP SWAP1 CALLVALUE PUSH2 0x234 JUMPI DUP1 PUSH1 0x3 NOT CALLDATASIZE ADD SLT PUSH2 0x234 JUMPI PUSH2 0x948 PUSH2 0x11BD JUMP JUMPDEST SWAP1 PUSH1 0x24 CALLDATALOAD SWAP3 DUP4 ISZERO SWAP1 PUSH2 0x95A DUP3 ISZERO PUSH2 0x16E4 JUMP JUMPDEST CALLER DUP7 MSTORE PUSH1 0xD PUSH1 0x20 MSTORE DUP5 DUP4 DUP8 KECCAK256 SLOAD LT PUSH2 0x9EC JUMPI PUSH8 0xDE0B6B3A7640000 SWAP2 DUP3 DUP7 MUL SWAP3 DUP7 DUP5 DIV EQ OR ISZERO PUSH2 0x9D9 JUMPI POP PUSH2 0x990 SWAP1 DUP4 CALLER PUSH2 0x1474 JUMP JUMPDEST PUSH2 0x99B DUP4 DUP4 CALLER PUSH2 0x176B JUMP JUMPDEST MLOAD SWAP2 DUP3 MSTORE PUSH1 0x1 PUSH1 0x1 PUSH1 0xA0 SHL SUB AND SWAP1 CALLER SWAP1 PUSH32 0x99C01CD4F8275976EF33D24514B1694C8A9D5730D92E26996834343E09778E99 SWAP1 PUSH1 0x20 SWAP1 LOG3 PUSH2 0x1DF PUSH2 0x18FC JUMP JUMPDEST PUSH4 0x4E487B71 PUSH1 0xE0 SHL DUP7 MSTORE PUSH1 0x11 SWAP1 MSTORE PUSH1 0x24 DUP6 REVERT JUMPDEST PUSH1 0x64 SWAP1 PUSH1 0x20 DUP5 MLOAD SWAP2 PUSH3 0x461BCD PUSH1 0xE5 SHL DUP4 MSTORE DUP3 ADD MSTORE PUSH1 0x13 PUSH1 0x24 DUP3 ADD MSTORE PUSH19 0x496E73756666696369656E7420736861726573 PUSH1 0x68 SHL PUSH1 0x44 DUP3 ADD MSTORE REVERT JUMPDEST POP POP CALLVALUE PUSH2 0x270 JUMPI DUP2 PUSH1 0x3 NOT CALLDATASIZE ADD SLT PUSH2 0x270 JUMPI PUSH1 0x5 SLOAD SWAP1 MLOAD PUSH1 0x1 PUSH1 0x1 PUSH1 0xA0 SHL SUB SWAP1 SWAP2 AND DUP2 MSTORE PUSH1 0x20 SWAP1 RETURN JUMPDEST POP POP CALLVALUE PUSH2 0x270 JUMPI DUP2 PUSH1 0x3 NOT CALLDATASIZE ADD SLT PUSH2 0x270 JUMPI PUSH1 0x20 SWAP1 PUSH1 0x9 SLOAD SWAP1 MLOAD SWAP1 DUP2 MSTORE RETURN JUMPDEST POP SWAP2 SWAP1 CALLVALUE PUSH2 0x270 JUMPI DUP2 PUSH1 0x3 NOT CALLDATASIZE ADD SLT PUSH2 0x270 JUMPI DUP3 SWAP1 PUSH1 0xE SLOAD PUSH2 0xA8E DUP2 PUSH2 0x1A4E JUMP JUMPDEST SWAP3 PUSH2 0xA9B DUP4 MLOAD SWAP5 DUP6 PUSH2 0x123B JUMP JUMPDEST DUP2 DUP5 MSTORE PUSH2 0xAA7 DUP3 PUSH2 0x1A4E JUMP JUMPDEST PUSH1 0x20 DUP6 DUP2 ADD SWAP7 SWAP1 SWAP2 PUSH1 0x1F NOT ADD CALLDATASIZE DUP9 CALLDATACOPY PUSH2 0xABF DUP5 PUSH2 0x1A66 JUMP JUMPDEST SWAP3 PUSH2 0xAC9 DUP6 PUSH2 0x1A66 JUMP JUMPDEST SWAP5 DUP3 PUSH1 0xF SLOAD SWAP1 DUP2 ISZERO ISZERO SWAP1 JUMPDEST DUP4 DUP2 LT PUSH2 0xB40 JUMPI POP POP POP POP POP DUP5 MLOAD SWAP6 PUSH1 0x60 DUP8 ADD SWAP1 PUSH1 0x60 DUP9 MSTORE MLOAD DUP1 SWAP2 MSTORE PUSH1 0x80 DUP8 ADD SWAP8 SWAP2 JUMPDEST DUP2 DUP2 LT PUSH2 0xB23 JUMPI DUP8 DUP10 SUB DUP5 DUP10 ADD MSTORE DUP8 DUP1 PUSH2 0x84E DUP10 DUP10 PUSH2 0xB16 DUP15 DUP12 PUSH2 0x137C JUMP JUMPDEST SWAP2 DUP5 DUP4 SUB SWAP1 DUP6 ADD MSTORE PUSH2 0x137C JUMP JUMPDEST DUP3 MLOAD PUSH1 0x1 PUSH1 0x1 PUSH1 0xA0 SHL SUB AND DUP10 MSTORE SWAP8 DUP4 ADD SWAP8 SWAP2 DUP4 ADD SWAP2 PUSH1 0x1 ADD PUSH2 0xAF7 JUMP JUMPDEST PUSH2 0xB4C DUP2 SWAP12 SWAP7 SWAP12 PUSH2 0x11EE JUMP JUMPDEST SWAP1 SLOAD PUSH1 0x1 PUSH1 0x1 PUSH1 0xA0 SHL SUB SWAP2 PUSH1 0x3 SWAP2 SWAP1 DUP3 SHL SHR DUP3 AND PUSH2 0xB6A DUP5 DUP11 PUSH2 0x1A98 JUMP JUMPDEST MSTORE PUSH2 0xB74 DUP4 PUSH2 0x11EE JUMP JUMPDEST SWAP1 SLOAD SWAP2 SHL SHR AND DUP12 MSTORE PUSH1 0xD DUP8 MSTORE DUP10 DUP12 KECCAK256 SLOAD PUSH2 0xB8E DUP3 DUP11 PUSH2 0x1A98 JUMP JUMPDEST MSTORE DUP2 ISZERO PUSH2 0xBEC JUMPI PUSH2 0xB9F DUP2 DUP10 PUSH2 0x1A98 JUMP JUMPDEST MLOAD PUSH1 0x64 SWAP1 DUP2 DUP2 MUL SWAP2 DUP2 DUP4 DIV EQ SWAP1 ISZERO OR ISZERO PUSH2 0xBD9 JUMPI SWAP1 PUSH2 0xBC1 DUP5 PUSH2 0xBD1 SWAP4 PUSH2 0x1AAC JUMP JUMPDEST PUSH2 0xBCB DUP3 DUP13 PUSH2 0x1A98 JUMP JUMPDEST MSTORE PUSH2 0x174F JUMP JUMPDEST SWAP10 SWAP5 SWAP10 PUSH2 0xAD4 JUMP JUMPDEST PUSH4 0x4E487B71 PUSH1 0xE0 SHL DUP13 MSTORE PUSH1 0x11 DUP7 MSTORE PUSH1 0x24 DUP13 REVERT JUMPDEST PUSH2 0xBD1 SWAP1 DUP12 PUSH2 0xBC1 JUMP JUMPDEST POP POP CALLVALUE PUSH2 0x270 JUMPI DUP2 PUSH1 0x3 NOT CALLDATASIZE ADD SLT PUSH2 0x270 JUMPI PUSH1 0x20 SWAP1 PUSH1 0x8 SLOAD SWAP1 MLOAD SWAP1 DUP2 MSTORE RETURN JUMPDEST POP POP CALLVALUE PUSH2 0x270 JUMPI DUP2 PUSH1 0x3 NOT CALLDATASIZE ADD SLT PUSH2 0x270 JUMPI PUSH2 0x84E SWAP1 PUSH2 0xC33 PUSH2 0x1273 JUMP JUMPDEST SWAP1 MLOAD SWAP2 DUP3 SWAP2 PUSH1 0x20 DUP4 MSTORE PUSH1 0x20 DUP4 ADD SWAP1 PUSH2 0x117D JUMP JUMPDEST POP POP CALLVALUE PUSH2 0x270 JUMPI PUSH1 0x20 CALLDATASIZE PUSH1 0x3 NOT ADD SLT PUSH2 0x270 JUMPI PUSH1 0x20 SWAP1 PUSH2 0xC6C PUSH2 0xC67 PUSH2 0x11BD JUMP JUMPDEST PUSH2 0x1ACC JUMP JUMPDEST SWAP1 MLOAD SWAP1 DUP2 MSTORE RETURN JUMPDEST POP CALLVALUE PUSH2 0x234 JUMPI PUSH1 0x20 CALLDATASIZE PUSH1 0x3 NOT ADD SLT PUSH2 0x234 JUMPI CALLDATALOAD SWAP2 PUSH1 0xE SLOAD DUP4 LT ISZERO PUSH2 0x7D6 JUMPI POP PUSH2 0xC9D PUSH1 0x20 SWAP3 PUSH2 0x11EE JUMP JUMPDEST SWAP1 SLOAD SWAP2 MLOAD SWAP2 PUSH1 0x1 DUP1 PUSH1 0xA0 SHL SUB SWAP2 PUSH1 0x3 SHL SHR AND DUP2 MSTORE RETURN JUMPDEST DUP4 CALLVALUE PUSH2 0x7D6 JUMPI DUP1 PUSH1 0x3 NOT CALLDATASIZE ADD SLT PUSH2 0x7D6 JUMPI PUSH2 0xCCC PUSH2 0x13B0 JUMP JUMPDEST PUSH1 0x5 DUP1 SLOAD PUSH1 0x1 PUSH1 0x1 PUSH1 0xA0 SHL SUB NOT DUP2 AND SWAP1 SWAP2 SSTORE DUP2 SWAP1 PUSH1 0x1 PUSH1 0x1 PUSH1 0xA0 SHL SUB AND PUSH32 0x8BE0079C531659141344CD1FD0A4F28419497F9722A3DAAFE3B4186F6B6457E0 DUP3 DUP1 LOG3 DUP1 RETURN JUMPDEST POP POP CALLVALUE PUSH2 0x270 JUMPI PUSH1 0x20 CALLDATASIZE PUSH1 0x3 NOT ADD SLT PUSH2 0x270 JUMPI PUSH1 0x20 SWAP2 DUP2 SWAP1 PUSH1 0x1 PUSH1 0x1 PUSH1 0xA0 SHL SUB PUSH2 0xD38 PUSH2 0x11BD JUMP JUMPDEST AND DUP2 MSTORE DUP1 DUP5 MSTORE KECCAK256 SLOAD SWAP1 MLOAD SWAP1 DUP2 MSTORE RETURN JUMPDEST POP POP CALLVALUE PUSH2 0x270 JUMPI DUP2 PUSH1 0x3 NOT CALLDATASIZE ADD SLT PUSH2 0x270 JUMPI PUSH1 0x7 SLOAD SWAP1 MLOAD PUSH1 0x1 PUSH1 0x1 PUSH1 0xA0 SHL SUB SWAP1 SWAP2 AND DUP2 MSTORE PUSH1 0x20 SWAP1 RETURN JUMPDEST POP POP CALLVALUE PUSH2 0x270 JUMPI DUP2 PUSH1 0x3 NOT CALLDATASIZE ADD SLT PUSH2 0x270 JUMPI PUSH1 0x20 SWAP1 PUSH1 0xF SLOAD SWAP1 MLOAD SWAP1 DUP2 MSTORE RETURN JUMPDEST POP POP CALLVALUE PUSH2 0x270 JUMPI DUP2 PUSH1 0x3 NOT CALLDATASIZE ADD SLT PUSH2 0x270 JUMPI PUSH1 0x5 SLOAD PUSH1 0x1 PUSH1 0x1 PUSH1 0xA0 SHL SUB AND DUP3 MSTORE PUSH1 0xD PUSH1 0x20 SWAP1 DUP2 MSTORE SWAP2 DUP2 SWAP1 KECCAK256 SLOAD SWAP1 MLOAD SWAP1 DUP2 MSTORE RETURN JUMPDEST DUP3 DUP5 CALLVALUE PUSH2 0x7D6 JUMPI DUP1 PUSH1 0x3 NOT CALLDATASIZE ADD SLT PUSH2 0x7D6 JUMPI POP PUSH1 0x1 DUP1 PUSH1 0xA0 SHL SUB DUP1 PUSH1 0x7 SLOAD AND SWAP1 PUSH1 0x8 SLOAD SWAP3 PUSH1 0x9 SLOAD SWAP2 PUSH1 0xF SLOAD SWAP1 PUSH1 0x5 SLOAD AND SWAP1 PUSH2 0xE1E PUSH1 0xB SLOAD SWAP4 PUSH1 0xE0 PUSH2 0xE04 PUSH2 0x1273 JUMP JUMPDEST SWAP2 DUP1 MLOAD SWAP10 DUP11 SWAP10 DUP11 MSTORE PUSH1 0x20 DUP11 ADD MSTORE DUP9 ADD MSTORE PUSH1 0xE0 DUP8 ADD SWAP1 PUSH2 0x117D JUMP JUMPDEST SWAP4 PUSH1 0x60 DUP7 ADD MSTORE PUSH1 0x80 DUP6 ADD MSTORE PUSH1 0xA0 DUP5 ADD MSTORE PUSH1 0xC0 DUP4 ADD MSTORE SUB SWAP1 RETURN JUMPDEST POP POP CALLVALUE PUSH2 0x270 JUMPI DUP1 PUSH1 0x3 NOT CALLDATASIZE ADD SLT PUSH2 0x270 JUMPI PUSH2 0x72B PUSH1 0x20 SWAP3 PUSH2 0xE80 PUSH2 0xE5A PUSH2 0x11BD JUMP JUMPDEST CALLER DUP4 MSTORE PUSH1 0x1 DUP7 MSTORE DUP5 DUP4 KECCAK256 PUSH1 0x1 PUSH1 0x1 PUSH1 0xA0 SHL SUB DUP3 AND DUP5 MSTORE DUP7 MSTORE SWAP2 DUP5 SWAP1 KECCAK256 SLOAD PUSH1 0x24 CALLDATALOAD SWAP1 PUSH2 0x1451 JUMP JUMPDEST SWAP1 CALLER PUSH2 0x15E2 JUMP JUMPDEST POP POP CALLVALUE PUSH2 0x270 JUMPI DUP2 PUSH1 0x3 NOT CALLDATASIZE ADD SLT PUSH2 0x270 JUMPI PUSH1 0x5 SLOAD PUSH1 0x1 PUSH1 0x1 PUSH1 0xA0 SHL SUB AND DUP3 MSTORE PUSH1 0xD PUSH1 0x20 SWAP1 DUP2 MSTORE SWAP2 DUP2 SWAP1 KECCAK256 SLOAD PUSH1 0xF SLOAD SWAP2 MLOAD SWAP2 EQ DUP2 MSTORE RETURN JUMPDEST POP POP CALLVALUE PUSH2 0x270 JUMPI DUP2 PUSH1 0x3 NOT CALLDATASIZE ADD SLT PUSH2 0x270 JUMPI PUSH1 0x20 SWAP1 MLOAD PUSH1 0x12 DUP2 MSTORE RETURN JUMPDEST POP DUP3 SWAP1 CALLVALUE PUSH2 0x270 JUMPI PUSH1 0x60 CALLDATASIZE PUSH1 0x3 NOT ADD SLT PUSH2 0x270 JUMPI PUSH2 0xEF6 PUSH2 0x11BD JUMP JUMPDEST PUSH2 0xEFE PUSH2 0x11D8 JUMP JUMPDEST SWAP2 DUP5 PUSH1 0x44 CALLDATALOAD SWAP5 PUSH1 0x1 DUP1 PUSH1 0xA0 SHL SUB DUP5 AND DUP2 MSTORE PUSH1 0x1 PUSH1 0x20 MSTORE DUP2 DUP2 KECCAK256 CALLER DUP3 MSTORE PUSH1 0x20 MSTORE KECCAK256 SLOAD SWAP1 PUSH1 0x0 NOT DUP3 SUB PUSH2 0xF38 JUMPI JUMPDEST PUSH1 0x20 DUP7 PUSH2 0x72B DUP8 DUP8 DUP8 PUSH2 0x1474 JUMP JUMPDEST DUP5 DUP3 LT PUSH2 0xF61 JUMPI POP SWAP2 DUP4 SWAP2 PUSH2 0xF56 PUSH1 0x20 SWAP7 SWAP6 PUSH2 0x72B SWAP6 SUB CALLER DUP4 PUSH2 0x15E2 JUMP JUMPDEST SWAP2 SWAP4 SWAP5 DUP2 SWAP4 POP PUSH2 0xF2A JUMP JUMPDEST PUSH1 0x64 SWAP1 PUSH1 0x20 DUP8 MLOAD SWAP2 PUSH3 0x461BCD PUSH1 0xE5 SHL DUP4 MSTORE DUP3 ADD MSTORE PUSH1 0x1D PUSH1 0x24 DUP3 ADD MSTORE PUSH32 0x45524332303A20696E73756666696369656E7420616C6C6F77616E6365000000 PUSH1 0x44 DUP3 ADD MSTORE REVERT JUMPDEST POP POP CALLVALUE PUSH2 0x270 JUMPI DUP2 PUSH1 0x3 NOT CALLDATASIZE ADD SLT PUSH2 0x270 JUMPI PUSH1 0x20 SWAP1 PUSH1 0x2 SLOAD SWAP1 MLOAD SWAP1 DUP2 MSTORE RETURN JUMPDEST POP CALLVALUE PUSH2 0x234 JUMPI PUSH1 0x20 CALLDATASIZE PUSH1 0x3 NOT ADD SLT PUSH2 0x234 JUMPI PUSH32 0xCE44720B7462058F31DDECAB3DAA427921E5975D9ACB555F043682DADA866569 SWAP2 PUSH1 0x20 SWAP2 CALLDATALOAD SWAP1 PUSH2 0x1004 PUSH2 0x13B0 JUMP JUMPDEST DUP2 PUSH1 0x9 SSTORE MLOAD SWAP1 DUP2 MSTORE LOG1 DUP1 RETURN JUMPDEST POP POP CALLVALUE PUSH2 0x270 JUMPI DUP2 PUSH1 0x3 NOT CALLDATASIZE ADD SLT PUSH2 0x270 JUMPI PUSH1 0xC SLOAD SWAP1 MLOAD PUSH1 0x1 PUSH1 0x1 PUSH1 0xA0 SHL SUB SWAP1 SWAP2 AND DUP2 MSTORE PUSH1 0x20 SWAP1 RETURN JUMPDEST POP POP CALLVALUE PUSH2 0x270 JUMPI DUP1 PUSH1 0x3 NOT CALLDATASIZE ADD SLT PUSH2 0x270 JUMPI PUSH1 0x20 SWAP1 PUSH2 0x72B PUSH2 0x1059 PUSH2 0x11BD JUMP JUMPDEST PUSH1 0x24 CALLDATALOAD SWAP1 CALLER PUSH2 0x15E2 JUMP JUMPDEST POP SWAP2 CALLVALUE PUSH2 0x7D6 JUMPI DUP1 PUSH1 0x3 NOT CALLDATASIZE ADD SLT PUSH2 0x7D6 JUMPI DUP2 MLOAD SWAP2 DUP2 PUSH1 0x3 SLOAD SWAP3 PUSH1 0x1 DUP5 DUP2 SHR SWAP2 DUP2 DUP7 AND SWAP6 DUP7 ISZERO PUSH2 0x114E JUMPI JUMPDEST PUSH1 0x20 SWAP7 DUP8 DUP6 LT DUP2 EQ PUSH2 0x8D7 JUMPI DUP9 SWAP10 POP SWAP7 DUP9 SWAP7 SWAP8 DUP6 DUP3 SWAP11 MSTORE SWAP2 DUP3 PUSH1 0x0 EQ PUSH2 0x1127 JUMPI POP POP PUSH1 0x1 EQ PUSH2 0x10CB JUMPI JUMPDEST POP POP POP PUSH2 0x84E SWAP3 SWAP2 PUSH2 0x83F SWAP2 SUB DUP6 PUSH2 0x123B JUMP JUMPDEST SWAP2 SWAP1 DUP7 SWAP4 POP PUSH1 0x3 DUP4 MSTORE PUSH32 0xC2575A0E9E593C00F959F8C92F12DB2869C3395A3B0502D05E2516446F71F85B JUMPDEST DUP3 DUP5 LT PUSH2 0x110F JUMPI POP POP POP DUP3 ADD ADD DUP2 PUSH2 0x83F PUSH2 0x84E PUSH2 0x10B8 JUMP JUMPDEST DUP1 SLOAD DUP5 DUP11 ADD DUP7 ADD MSTORE DUP9 SWAP6 POP DUP8 SWAP5 SWAP1 SWAP4 ADD SWAP3 DUP2 ADD PUSH2 0x10F6 JUMP JUMPDEST PUSH1 0xFF NOT AND DUP8 DUP3 ADD MSTORE SWAP4 ISZERO ISZERO PUSH1 0x5 SHL DUP7 ADD SWAP1 SWAP4 ADD SWAP4 POP DUP5 SWAP3 POP PUSH2 0x83F SWAP2 POP PUSH2 0x84E SWAP1 POP PUSH2 0x10B8 JUMP JUMPDEST SWAP3 PUSH1 0x7F AND SWAP3 PUSH2 0x108E JUMP JUMPDEST DUP5 SWAP1 CALLVALUE PUSH2 0x270 JUMPI DUP2 PUSH1 0x3 NOT CALLDATASIZE ADD SLT PUSH2 0x270 JUMPI PUSH1 0xC SLOAD PUSH1 0x1 PUSH1 0x1 PUSH1 0xA0 SHL SUB AND DUP2 MSTORE PUSH1 0x20 SWAP1 RETURN JUMPDEST SWAP2 SWAP1 DUP3 MLOAD SWAP3 DUP4 DUP3 MSTORE PUSH1 0x0 JUMPDEST DUP5 DUP2 LT PUSH2 0x11A9 JUMPI POP POP DUP3 PUSH1 0x0 PUSH1 0x20 DUP1 SWAP5 SWAP6 DUP5 ADD ADD MSTORE PUSH1 0x1F DUP1 NOT SWAP2 ADD AND ADD ADD SWAP1 JUMP JUMPDEST PUSH1 0x20 DUP2 DUP4 ADD DUP2 ADD MLOAD DUP5 DUP4 ADD DUP3 ADD MSTORE ADD PUSH2 0x1188 JUMP JUMPDEST PUSH1 0x4 CALLDATALOAD SWAP1 PUSH1 0x1 PUSH1 0x1 PUSH1 0xA0 SHL SUB DUP3 AND DUP3 SUB PUSH2 0x11D3 JUMPI JUMP JUMPDEST PUSH1 0x0 DUP1 REVERT JUMPDEST PUSH1 0x24 CALLDATALOAD SWAP1 PUSH1 0x1 PUSH1 0x1 PUSH1 0xA0 SHL SUB DUP3 AND DUP3 SUB PUSH2 0x11D3 JUMPI JUMP JUMPDEST PUSH1 0xE SLOAD DUP2 LT ISZERO PUSH2 0x1225 JUMPI PUSH1 0xE PUSH1 0x0 MSTORE PUSH32 0xBB7B4A454DC3493923482F07822329ED19E8244EFF582CC204F8554C3620C3FD ADD SWAP1 PUSH1 0x0 SWAP1 JUMP JUMPDEST PUSH4 0x4E487B71 PUSH1 0xE0 SHL PUSH1 0x0 MSTORE PUSH1 0x32 PUSH1 0x4 MSTORE PUSH1 0x24 PUSH1 0x0 REVERT JUMPDEST SWAP1 PUSH1 0x1F DUP1 NOT SWAP2 ADD AND DUP2 ADD SWAP1 DUP2 LT PUSH8 0xFFFFFFFFFFFFFFFF DUP3 GT OR PUSH2 0x125D JUMPI PUSH1 0x40 MSTORE JUMP JUMPDEST PUSH4 0x4E487B71 PUSH1 0xE0 SHL PUSH1 0x0 MSTORE PUSH1 0x41 PUSH1 0x4 MSTORE PUSH1 0x24 PUSH1 0x0 REVERT JUMPDEST PUSH1 0x40 MLOAD SWAP1 PUSH1 0x0 PUSH1 0xA SLOAD SWAP1 PUSH1 0x1 DUP3 DUP2 SHR SWAP1 DUP1 DUP5 AND SWAP4 DUP5 ISZERO PUSH2 0x1354 JUMPI JUMPDEST PUSH1 0x20 SWAP5 DUP6 DUP5 LT DUP2 EQ PUSH2 0x1340 JUMPI DUP4 DUP9 MSTORE DUP8 SWAP5 SWAP4 SWAP3 SWAP2 DUP2 ISZERO PUSH2 0x1320 JUMPI POP PUSH1 0x1 EQ PUSH2 0x12C1 JUMPI JUMPDEST POP POP PUSH2 0x12BF SWAP3 POP SUB DUP4 PUSH2 0x123B JUMP JUMPDEST JUMP JUMPDEST SWAP1 SWAP4 SWAP2 POP PUSH1 0xA PUSH1 0x0 MSTORE PUSH32 0xC65A7BB8D6351C1CF70C95A316CC6A92839C986682D98BC35F958F4883F9D2A8 SWAP4 PUSH1 0x0 SWAP2 JUMPDEST DUP2 DUP4 LT PUSH2 0x1308 JUMPI POP POP PUSH2 0x12BF SWAP4 POP DUP3 ADD ADD CODESIZE DUP1 PUSH2 0x12B1 JUMP JUMPDEST DUP6 SLOAD DUP9 DUP5 ADD DUP6 ADD MSTORE SWAP5 DUP6 ADD SWAP5 DUP8 SWAP5 POP SWAP2 DUP4 ADD SWAP2 PUSH2 0x12F0 JUMP JUMPDEST SWAP2 POP POP PUSH2 0x12BF SWAP5 SWAP3 POP PUSH1 0xFF NOT AND DUP3 DUP5 ADD MSTORE ISZERO ISZERO PUSH1 0x5 SHL DUP3 ADD ADD CODESIZE DUP1 PUSH2 0x12B1 JUMP JUMPDEST PUSH4 0x4E487B71 PUSH1 0xE0 SHL DUP6 MSTORE PUSH1 0x22 PUSH1 0x4 MSTORE PUSH1 0x24 DUP6 REVERT JUMPDEST SWAP2 PUSH1 0x7F AND SWAP2 PUSH2 0x128E JUMP JUMPDEST CALLVALUE PUSH2 0x11D3 JUMPI PUSH1 0x0 CALLDATASIZE PUSH1 0x3 NOT ADD SLT PUSH2 0x11D3 JUMPI PUSH1 0x20 PUSH1 0xF SLOAD PUSH1 0x40 MLOAD SWAP1 DUP2 MSTORE RETURN JUMPDEST SWAP1 DUP2 MLOAD DUP1 DUP3 MSTORE PUSH1 0x20 DUP1 DUP1 SWAP4 ADD SWAP4 ADD SWAP2 PUSH1 0x0 JUMPDEST DUP3 DUP2 LT PUSH2 0x139C JUMPI POP POP POP POP SWAP1 JUMP JUMPDEST DUP4 MLOAD DUP6 MSTORE SWAP4 DUP2 ADD SWAP4 SWAP3 DUP2 ADD SWAP3 PUSH1 0x1 ADD PUSH2 0x138E JUMP JUMPDEST PUSH1 0x5 SLOAD PUSH1 0x1 PUSH1 0x1 PUSH1 0xA0 SHL SUB AND CALLER SUB PUSH2 0x13C4 JUMPI JUMP JUMPDEST PUSH1 0x64 PUSH1 0x40 MLOAD PUSH3 0x461BCD PUSH1 0xE5 SHL DUP2 MSTORE PUSH1 0x20 PUSH1 0x4 DUP3 ADD MSTORE PUSH1 0x20 PUSH1 0x24 DUP3 ADD MSTORE PUSH32 0x4F776E61626C653A2063616C6C6572206973206E6F7420746865206F776E6572 PUSH1 0x44 DUP3 ADD MSTORE REVERT JUMPDEST PUSH1 0x5 DUP1 SLOAD PUSH1 0x1 PUSH1 0x1 PUSH1 0xA0 SHL SUB SWAP3 DUP4 AND PUSH1 0x1 PUSH1 0x1 PUSH1 0xA0 SHL SUB NOT DUP3 AND DUP2 OR SWAP1 SWAP3 SSTORE SWAP1 SWAP2 AND PUSH32 0x8BE0079C531659141344CD1FD0A4F28419497F9722A3DAAFE3B4186F6B6457E0 PUSH1 0x0 DUP1 LOG3 JUMP JUMPDEST SWAP2 SWAP1 DUP3 ADD DUP1 SWAP3 GT PUSH2 0x145E JUMPI JUMP JUMPDEST PUSH4 0x4E487B71 PUSH1 0xE0 SHL PUSH1 0x0 MSTORE PUSH1 0x11 PUSH1 0x4 MSTORE PUSH1 0x24 PUSH1 0x0 REVERT JUMPDEST PUSH1 0x1 PUSH1 0x1 PUSH1 0xA0 SHL SUB SWAP1 DUP2 AND SWAP2 DUP3 ISZERO PUSH2 0x158F JUMPI AND SWAP2 DUP3 ISZERO PUSH2 0x153E JUMPI PUSH1 0x0 DUP3 DUP2 MSTORE DUP1 PUSH1 0x20 MSTORE PUSH1 0x40 DUP2 KECCAK256 SLOAD SWAP2 DUP1 DUP4 LT PUSH2 0x14EA JUMPI PUSH1 0x40 DUP3 DUP3 PUSH32 0xDDF252AD1BE2C89B69C2B068FC378DAA952BA7F163C4A11628F55A4DF523B3EF SWAP6 DUP8 PUSH1 0x20 SWAP7 MSTORE DUP3 DUP7 MSTORE SUB DUP3 DUP3 KECCAK256 SSTORE DUP7 DUP2 MSTORE KECCAK256 DUP2 DUP2 SLOAD ADD SWAP1 SSTORE PUSH1 0x40 MLOAD SWAP1 DUP2 MSTORE LOG3 JUMP JUMPDEST PUSH1 0x40 MLOAD PUSH3 0x461BCD PUSH1 0xE5 SHL DUP2 MSTORE PUSH1 0x20 PUSH1 0x4 DUP3 ADD MSTORE PUSH1 0x26 PUSH1 0x24 DUP3 ADD MSTORE PUSH32 0x45524332303A207472616E7366657220616D6F756E7420657863656564732062 PUSH1 0x44 DUP3 ADD MSTORE PUSH6 0x616C616E6365 PUSH1 0xD0 SHL PUSH1 0x64 DUP3 ADD MSTORE PUSH1 0x84 SWAP1 REVERT JUMPDEST PUSH1 0x40 MLOAD PUSH3 0x461BCD PUSH1 0xE5 SHL DUP2 MSTORE PUSH1 0x20 PUSH1 0x4 DUP3 ADD MSTORE PUSH1 0x23 PUSH1 0x24 DUP3 ADD MSTORE PUSH32 0x45524332303A207472616E7366657220746F20746865207A65726F2061646472 PUSH1 0x44 DUP3 ADD MSTORE PUSH3 0x657373 PUSH1 0xE8 SHL PUSH1 0x64 DUP3 ADD MSTORE PUSH1 0x84 SWAP1 REVERT JUMPDEST PUSH1 0x40 MLOAD PUSH3 0x461BCD PUSH1 0xE5 SHL DUP2 MSTORE PUSH1 0x20 PUSH1 0x4 DUP3 ADD MSTORE PUSH1 0x25 PUSH1 0x24 DUP3 ADD MSTORE PUSH32 0x45524332303A207472616E736665722066726F6D20746865207A65726F206164 PUSH1 0x44 DUP3 ADD MSTORE PUSH5 0x6472657373 PUSH1 0xD8 SHL PUSH1 0x64 DUP3 ADD MSTORE PUSH1 0x84 SWAP1 REVERT JUMPDEST PUSH1 0x1 PUSH1 0x1 PUSH1 0xA0 SHL SUB SWAP1 DUP2 AND SWAP2 DUP3 ISZERO PUSH2 0x1693 JUMPI AND SWAP2 DUP3 ISZERO PUSH2 0x1643 JUMPI PUSH1 0x20 PUSH32 0x8C5BE1E5EBEC7D5BD14F71427D1E84F3DD0314C0F7B2291E5B200AC8C7C3B925 SWAP2 DUP4 PUSH1 0x0 MSTORE PUSH1 0x1 DUP3 MSTORE PUSH1 0x40 PUSH1 0x0 KECCAK256 DUP6 PUSH1 0x0 MSTORE DUP3 MSTORE DUP1 PUSH1 0x40 PUSH1 0x0 KECCAK256 SSTORE PUSH1 0x40 MLOAD SWAP1 DUP2 MSTORE LOG3 JUMP JUMPDEST PUSH1 0x40 MLOAD PUSH3 0x461BCD PUSH1 0xE5 SHL DUP2 MSTORE PUSH1 0x20 PUSH1 0x4 DUP3 ADD MSTORE PUSH1 0x22 PUSH1 0x24 DUP3 ADD MSTORE PUSH32 0x45524332303A20617070726F766520746F20746865207A65726F206164647265 PUSH1 0x44 DUP3 ADD MSTORE PUSH2 0x7373 PUSH1 0xF0 SHL PUSH1 0x64 DUP3 ADD MSTORE PUSH1 0x84 SWAP1 REVERT JUMPDEST PUSH1 0x40 MLOAD PUSH3 0x461BCD PUSH1 0xE5 SHL DUP2 MSTORE PUSH1 0x20 PUSH1 0x4 DUP3 ADD MSTORE PUSH1 0x24 DUP1 DUP3 ADD MSTORE PUSH32 0x45524332303A20617070726F76652066726F6D20746865207A65726F20616464 PUSH1 0x44 DUP3 ADD MSTORE PUSH4 0x72657373 PUSH1 0xE0 SHL PUSH1 0x64 DUP3 ADD MSTORE PUSH1 0x84 SWAP1 REVERT JUMPDEST ISZERO PUSH2 0x16EB JUMPI JUMP JUMPDEST PUSH1 0x40 MLOAD PUSH3 0x461BCD PUSH1 0xE5 SHL DUP2 MSTORE PUSH1 0x20 PUSH1 0x4 DUP3 ADD MSTORE PUSH1 0x23 PUSH1 0x24 DUP3 ADD MSTORE PUSH32 0x536861726520616D6F756E74206D757374206265206772656174657220746861 PUSH1 0x44 DUP3 ADD MSTORE PUSH3 0x6E203 PUSH1 0xEC SHL PUSH1 0x64 DUP3 ADD MSTORE PUSH1 0x84 SWAP1 REVERT JUMPDEST DUP2 DUP2 MUL SWAP3 SWAP2 DUP2 ISZERO SWAP2 DUP5 DIV EQ OR ISZERO PUSH2 0x145E JUMPI JUMP JUMPDEST PUSH1 0x0 NOT DUP2 EQ PUSH2 0x145E JUMPI PUSH1 0x1 ADD SWAP1 JUMP JUMPDEST SWAP2 SWAP1 DUP3 SUB SWAP2 DUP3 GT PUSH2 0x145E JUMPI JUMP JUMPDEST SWAP1 PUSH1 0x1 DUP1 PUSH1 0xA0 SHL SUB DUP1 SWAP3 AND SWAP3 PUSH1 0x0 SWAP2 DUP5 DUP4 MSTORE PUSH1 0xD PUSH1 0x20 MSTORE PUSH1 0x40 DUP4 KECCAK256 PUSH2 0x1791 DUP4 DUP3 SLOAD PUSH2 0x175E JUMP JUMPDEST SWAP1 SSTORE DUP4 DUP2 AND SWAP1 DUP2 DUP5 MSTORE PUSH1 0xD PUSH1 0x20 MSTORE PUSH1 0x40 DUP5 KECCAK256 SLOAD ISZERO PUSH2 0x18BA JUMPI JUMPDEST POP DUP3 MSTORE PUSH1 0xD PUSH1 0x20 MSTORE PUSH2 0x17C1 PUSH1 0x40 DUP4 KECCAK256 SWAP2 DUP3 SLOAD PUSH2 0x1451 JUMP JUMPDEST SWAP1 SSTORE DUP3 DUP2 MSTORE PUSH1 0xD PUSH1 0x20 MSTORE PUSH1 0x40 DUP2 KECCAK256 SLOAD ISZERO PUSH2 0x17DA JUMPI POP POP POP JUMP JUMPDEST DUP1 JUMPDEST PUSH1 0xE DUP1 SLOAD SWAP1 DUP2 DUP4 LT ISZERO PUSH2 0x18B2 JUMPI DUP5 SWAP2 DUP7 PUSH2 0x17F5 DUP6 PUSH2 0x11EE JUMP JUMPDEST SWAP5 SWAP1 SLOAD PUSH1 0x3 SWAP6 DUP7 SHL SHR AND EQ PUSH2 0x1815 JUMPI POP POP POP PUSH2 0x1810 SWAP1 PUSH2 0x174F JUMP JUMPDEST PUSH2 0x17DC JUMP JUMPDEST SWAP2 SWAP6 POP SWAP4 SWAP3 PUSH1 0x0 NOT SWAP3 SWAP1 SWAP2 DUP4 DUP2 ADD SWAP1 DUP2 GT PUSH2 0x189E JUMPI SWAP1 PUSH2 0x1848 DUP6 PUSH2 0x183B PUSH2 0x1867 SWAP5 PUSH2 0x11EE JUMP JUMPDEST SWAP1 SLOAD SWAP1 DUP11 SHL SHR AND SWAP2 PUSH2 0x11EE JUMP JUMPDEST SWAP1 SWAP2 SWAP1 DUP3 SLOAD SWAP1 PUSH1 0x3 SHL SWAP2 PUSH1 0x1 DUP1 PUSH1 0xA0 SHL SUB DUP1 SWAP2 AND DUP4 SHL SWAP3 SHL NOT AND OR SWAP1 SSTORE JUMP JUMPDEST DUP4 SLOAD SWAP1 DUP2 ISZERO PUSH2 0x188A JUMPI POP ADD SWAP3 PUSH2 0x187C DUP5 PUSH2 0x11EE JUMP JUMPDEST DUP2 SWAP4 SWAP2 SLOAD SWAP3 SHL SHL NOT AND SWAP1 SSTORE SSTORE JUMP JUMPDEST PUSH4 0x4E487B71 PUSH1 0xE0 SHL DUP2 MSTORE PUSH1 0x31 PUSH1 0x4 MSTORE PUSH1 0x24 SWAP1 REVERT JUMPDEST PUSH4 0x4E487B71 PUSH1 0xE0 SHL DUP4 MSTORE PUSH1 0x11 PUSH1 0x4 MSTORE PUSH1 0x24 DUP4 REVERT JUMPDEST POP POP POP POP POP POP JUMP JUMPDEST PUSH1 0xE SLOAD PUSH9 0x10000000000000000 DUP2 LT ISZERO PUSH2 0x18E8 JUMPI SWAP1 PUSH2 0x1848 DUP3 PUSH1 0x1 PUSH2 0x18E2 SWAP5 ADD PUSH1 0xE SSTORE PUSH2 0x11EE JUMP JUMPDEST CODESIZE PUSH2 0x17AA JUMP JUMPDEST PUSH4 0x4E487B71 PUSH1 0xE0 SHL DUP6 MSTORE PUSH1 0x41 PUSH1 0x4 MSTORE PUSH1 0x24 DUP6 REVERT JUMPDEST PUSH1 0x5 SLOAD PUSH1 0x1 PUSH1 0x1 PUSH1 0xA0 SHL SUB SWAP1 DUP2 AND PUSH1 0x0 DUP1 JUMPDEST PUSH1 0xE SLOAD DUP2 LT ISZERO PUSH2 0x1964 JUMPI DUP4 PUSH2 0x1922 DUP3 PUSH2 0x11EE JUMP JUMPDEST SWAP1 SLOAD SWAP1 PUSH1 0x3 SHL SHR AND DUP4 DUP2 SUB PUSH2 0x1941 JUMPI JUMPDEST POP PUSH2 0x193C SWAP1 PUSH2 0x174F JUMP JUMPDEST PUSH2 0x190E JUMP JUMPDEST DUP1 DUP4 MSTORE PUSH1 0xD PUSH1 0x20 MSTORE PUSH1 0x40 DUP4 KECCAK256 SLOAD PUSH1 0xF SLOAD SUB PUSH2 0x1932 JUMPI SWAP3 POP POP POP PUSH2 0x12BF SWAP2 POP PUSH2 0x196A JUMP JUMPDEST POP POP POP POP JUMP JUMPDEST PUSH1 0x5 SLOAD SWAP1 PUSH1 0x0 PUSH2 0x1979 DUP3 PUSH2 0x1408 JUMP JUMPDEST PUSH1 0x7 SLOAD PUSH1 0x8 SLOAD SWAP4 PUSH1 0x1 PUSH1 0x1 PUSH1 0xA0 SHL SUB SWAP2 DUP3 AND DUP1 EXTCODESIZE ISZERO PUSH2 0x6FD JUMPI DUP3 SWAP2 DUP5 PUSH1 0x64 SWAP3 DUP2 SWAP6 PUSH1 0x40 MLOAD SWAP9 DUP10 SWAP7 DUP8 SWAP6 PUSH4 0x23B872DD PUSH1 0xE0 SHL DUP8 MSTORE AND PUSH1 0x4 DUP7 ADD MSTORE AND SWAP9 DUP10 PUSH1 0x24 DUP6 ADD MSTORE PUSH1 0x44 DUP5 ADD MSTORE GAS CALL SWAP2 DUP3 PUSH2 0x1A22 JUMPI JUMPDEST POP SWAP1 PUSH2 0x19FC JUMPI POP PUSH32 0xFC8F2D6996E2B706FA4CFB81CB10A53534B07F2010B2488488508F8751F55375 PUSH1 0x20 PUSH1 0x40 MLOAD PUSH1 0x64 DUP2 MSTORE LOG2 JUMP JUMPDEST DUP1 PUSH32 0x71500F809D5718CCB8DB09812C9CBD5FDB2C555BAC0FD93D9F80B1F9EAE45801 SWAP2 LOG2 JUMP JUMPDEST PUSH8 0xFFFFFFFFFFFFFFFF DUP2 GT PUSH2 0x1A3A JUMPI PUSH1 0x40 MSTORE CODESIZE PUSH2 0x19C8 JUMP JUMPDEST PUSH4 0x4E487B71 PUSH1 0xE0 SHL DUP3 MSTORE PUSH1 0x41 PUSH1 0x4 MSTORE PUSH1 0x24 DUP3 REVERT JUMPDEST PUSH8 0xFFFFFFFFFFFFFFFF DUP2 GT PUSH2 0x125D JUMPI PUSH1 0x5 SHL PUSH1 0x20 ADD SWAP1 JUMP JUMPDEST SWAP1 PUSH2 0x1A70 DUP3 PUSH2 0x1A4E JUMP JUMPDEST PUSH2 0x1A7D PUSH1 0x40 MLOAD SWAP2 DUP3 PUSH2 0x123B JUMP JUMPDEST DUP3 DUP2 MSTORE DUP1 SWAP3 PUSH2 0x1A8E PUSH1 0x1F NOT SWAP2 PUSH2 0x1A4E JUMP JUMPDEST ADD SWAP1 PUSH1 0x20 CALLDATASIZE SWAP2 ADD CALLDATACOPY JUMP JUMPDEST DUP1 MLOAD DUP3 LT ISZERO PUSH2 0x1225 JUMPI PUSH1 0x20 SWAP2 PUSH1 0x5 SHL ADD ADD SWAP1 JUMP JUMPDEST DUP2 ISZERO PUSH2 0x1AB6 JUMPI DIV SWAP1 JUMP JUMPDEST PUSH4 0x4E487B71 PUSH1 0xE0 SHL PUSH1 0x0 MSTORE PUSH1 0x12 PUSH1 0x4 MSTORE PUSH1 0x24 PUSH1 0x0 REVERT JUMPDEST PUSH1 0xF SLOAD SWAP1 DUP2 ISZERO PUSH2 0x1B0C JUMPI PUSH1 0x1 DUP1 PUSH1 0xA0 SHL SUB AND PUSH1 0x0 MSTORE PUSH1 0xD PUSH1 0x20 MSTORE PUSH1 0x40 PUSH1 0x0 KECCAK256 SLOAD SWAP1 PUSH1 0x64 DUP3 MUL SWAP2 DUP1 DUP4 DIV PUSH1 0x64 EQ SWAP1 ISZERO OR ISZERO PUSH2 0x145E JUMPI PUSH2 0x1B09 SWAP2 PUSH2 0x1AAC JUMP JUMPDEST SWAP1 JUMP JUMPDEST POP POP PUSH1 0x0 SWAP1 JUMP INVALID LOG2 PUSH5 0x6970667358 0x22 SLT KECCAK256 SDIV 0xEA DUP8 PUSH10 0xE155D628C4E53225BFA4 MULMOD BLOCKHASH PUSH25 0x977E482E07B8FE62FA34E82173632D64736F6C634300081400 CALLER LOG2 PUSH5 0x6970667358 0x22 SLT KECCAK256 0xED 0xF7 0x5E 0x4D CALL DUP16 0xD6 0xB1 0xA5 SGT 0xC4 DUP3 MLOAD PUSH20 0x900971B4CAF3E6E26D1B38A20EB036728FFC6473 PUSH16 0x6C634300081400330000000000000000 "},"gasEstimates":{"creation":{"codeDepositCost":"3500200","executionCost":"infinite","totalCost":"infinite"},"external":{"approve(address,uint256)":"infinite","balanceOf(address)":"2736","collectionMetadataURI()":"infinite","fractionalizeNFT(uint256,uint256,uint256,string,string)":"infinite","getAllNFTs()":"infinite","getApproved(uint256)":"4676","getCollectionStats()":"infinite","getFractionalizedNFTs()":"infinite","getNFT(uint256)":"infinite","getNFTCount()":"2434","isApprovedForAll(address,address)":"3097","mintNFT(string)":"infinite","name()":"infinite","nftCount()":"2346","nftFactory()":"2766","nfts(uint256)":"infinite","owner()":"2656","ownerOf(uint256)":"2734","renounceOwnership()":"28393","safeTransferFrom(address,address,uint256)":"infinite","safeTransferFrom(address,address,uint256,bytes)":"infinite","setApprovalForAll(address,bool)":"26847","supportsInterface(bytes4)":"380","symbol()":"infinite","tokenURI(uint256)":"infinite","transferFrom(address,address,uint256)":"infinite","transferOwnership(address)":"28714"}},"methodIdentifiers":{"approve(address,uint256)":"095ea7b3","balanceOf(address)":"70a08231","collectionMetadataURI()":"7400deab","fractionalizeNFT(uint256,uint256,uint256,string,string)":"5ba80965","getAllNFTs()":"e0391b09","getApproved(uint256)":"081812fc","getCollectionStats()":"5894bd51","getFractionalizedNFTs()":"6d6a18f1","getNFT(uint256)":"576f7ea7","getNFTCount()":"54279637","isApprovedForAll(address,address)":"e985e9c5","mintNFT(string)":"fb37e883","name()":"06fdde03","nftCount()":"0af2c6ca","nftFactory()":"d63843cd","nfts(uint256)":"265aa621","owner()":"8da5cb5b","ownerOf(uint256)":"6352211e","renounceOwnership()":"715018a6","safeTransferFrom(address,address,uint256)":"42842e0e","safeTransferFrom(address,address,uint256,bytes)":"b88d4fde","setApprovalForAll(address,bool)":"a22cb465","supportsInterface(bytes4)":"01ffc9a7","symbol()":"95d89b41","tokenURI(uint256)":"c87b56dd","transferFrom(address,address,uint256)":"23b872dd","transferOwnership(address)":"f2fde38b"}},"storageLayout":{"storage":[{"astId":921,"contract":"contracts/NFTCollection.sol:NFTCollection","label":"_name","offset":0,"slot":"0","type":"t_string_storage"},{"astId":923,"contract":"contracts/NFTCollection.sol:NFTCollection","label":"_symbol","offset":0,"slot":"1","type":"t_string_storage"},{"astId":927,"contract":"contracts/NFTCollection.sol:NFTCollection","label":"_owners","offset":0,"slot":"2","type":"t_mapping(t_uint256,t_address)"},{"astId":931,"contract":"contracts/NFTCollection.sol:NFTCollection","label":"_balances","offset":0,"slot":"3","type":"t_mapping(t_address,t_uint256)"},{"astId":935,"contract":"contracts/NFTCollection.sol:NFTCollection","label":"_tokenApprovals","offset":0,"slot":"4","type":"t_mapping(t_uint256,t_address)"},{"astId":941,"contract":"contracts/NFTCollection.sol:NFTCollection","label":"_operatorApprovals","offset":0,"slot":"5","type":"t_mapping(t_address,t_mapping(t_address,t_bool))"},{"astId":1972,"contract":"contracts/NFTCollection.sol:NFTCollection","label":"_tokenURIs","offset":0,"slot":"6","type":"t_mapping(t_uint256,t_string_storage)"},{"astId":7,"contract":"contracts/NFTCollection.sol:NFTCollection","label":"_owner","offset":0,"slot":"7","type":"t_address"},{"astId":151,"contract":"contracts/NFTCollection.sol:NFTCollection","label":"_status","offset":0,"slot":"8","type":"t_uint256"},{"astId":4671,"contract":"contracts/NFTCollection.sol:NFTCollection","label":"_tokenIdCounter","offset":0,"slot":"9","type":"t_struct(Counter)2505_storage"},{"astId":4673,"contract":"contracts/NFTCollection.sol:NFTCollection","label":"collectionMetadataURI","offset":0,"slot":"10","type":"t_string_storage"},{"astId":4675,"contract":"contracts/NFTCollection.sol:NFTCollection","label":"nftFactory","offset":0,"slot":"11","type":"t_address"},{"astId":4691,"contract":"contracts/NFTCollection.sol:NFTCollection","label":"nfts","offset":0,"slot":"12","type":"t_mapping(t_uint256,t_struct(NFTInfo)4686_storage)"},{"astId":4693,"contract":"contracts/NFTCollection.sol:NFTCollection","label":"nftCount","offset":0,"slot":"13","type":"t_uint256"}],"types":{"t_address":{"encoding":"inplace","label":"address","numberOfBytes":"20"},"t_bool":{"encoding":"inplace","label":"bool","numberOfBytes":"1"},"t_mapping(t_address,t_bool)":{"encoding":"mapping","key":"t_address","label":"mapping(address => bool)","numberOfBytes":"32","value":"t_bool"},"t_mapping(t_address,t_mapping(t_address,t_bool))":{"encoding":"mapping","key":"t_address","label":"mapping(address => mapping(address => bool))","numberOfBytes":"32","value":"t_mapping(t_address,t_bool)"},"t_mapping(t_address,t_uint256)":{"encoding":"mapping","key":"t_address","label":"mapping(address => uint256)","numberOfBytes":"32","value":"t_uint256"},"t_mapping(t_uint256,t_address)":{"encoding":"mapping","key":"t_uint256","label":"mapping(uint256 => address)","numberOfBytes":"32","value":"t_address"},"t_mapping(t_uint256,t_string_storage)":{"encoding":"mapping","key":"t_uint256","label":"mapping(uint256 => string)","numberOfBytes":"32","value":"t_string_storage"},"t_mapping(t_uint256,t_struct(NFTInfo)4686_storage)":{"encoding":"mapping","key":"t_uint256","label":"mapping(uint256 => struct NFTCollection.NFTInfo)","numberOfBytes":"32","value":"t_struct(NFTInfo)4686_storage"},"t_string_storage":{"encoding":"bytes","label":"string","numberOfBytes":"32"},"t_struct(Counter)2505_storage":{"encoding":"inplace","label":"struct Counters.Counter","members":[{"astId":2504,"contract":"contracts/NFTCollection.sol:NFTCollection","label":"_value","offset":0,"slot":"0","type":"t_uint256"}],"numberOfBytes":"32"},"t_struct(NFTInfo)4686_storage":{"encoding":"inplace","label":"struct NFTCollection.NFTInfo","members":[{"astId":4677,"contract":"contracts/NFTCollection.sol:NFTCollection","label":"tokenId","offset":0,"slot":"0","type":"t_uint256"},{"astId":4679,"contract":"contracts/NFTCollection.sol:NFTCollection","label":"metadataURI","offset":0,"slot":"1","type":"t_string_storage"},{"astId":4681,"contract":"contracts/NFTCollection.sol:NFTCollection","label":"creationTime","offset":0,"slot":"2","type":"t_uint256"},{"astId":4683,"contract":"contracts/NFTCollection.sol:NFTCollection","label":"fractionalContract","offset":0,"slot":"3","type":"t_address"},{"astId":4685,"contract":"contracts/NFTCollection.sol:NFTCollection","label":"isfractionalized","offset":20,"slot":"3","type":"t_bool"}],"numberOfBytes":"128"},"t_uint256":{"encoding":"inplace","label":"uint256","numberOfBytes":"32"}}},"userdoc":{"kind":"user","methods":{},"version":1}}}}