{"contracts/XnftyNFT.sol":{"XnftyNFT":{"abi":[{"inputs":[{"internalType":"string","name":"initialBaseURI","type":"string"},{"internalType":"string","name":"_collectionDescription","type":"string"}],"stateMutability":"nonpayable","type":"constructor"},{"anonymous":false,"inputs":[{"indexed":true,"internalType":"address","name":"owner","type":"address"},{"indexed":true,"internalType":"address","name":"approved","type":"address"},{"indexed":true,"internalType":"uint256","name":"tokenId","type":"uint256"}],"name":"Approval","type":"event"},{"anonymous":false,"inputs":[{"indexed":true,"internalType":"address","name":"owner","type":"address"},{"indexed":true,"internalType":"address","name":"operator","type":"address"},{"indexed":false,"internalType":"bool","name":"approved","type":"bool"}],"name":"ApprovalForAll","type":"event"},{"anonymous":false,"inputs":[{"indexed":false,"internalType":"uint256","name":"_fromTokenId","type":"uint256"},{"indexed":false,"internalType":"uint256","name":"_toTokenId","type":"uint256"}],"name":"BatchMetadataUpdate","type":"event"},{"anonymous":false,"inputs":[{"indexed":false,"internalType":"uint256","name":"_tokenId","type":"uint256"}],"name":"MetadataUpdate","type":"event"},{"anonymous":false,"inputs":[{"indexed":true,"internalType":"address","name":"from","type":"address"},{"indexed":true,"internalType":"address","name":"to","type":"address"},{"indexed":true,"internalType":"uint256","name":"tokenId","type":"uint256"}],"name":"Transfer","type":"event"},{"inputs":[],"name":"admin","outputs":[{"internalType":"address","name":"","type":"address"}],"stateMutability":"view","type":"function"},{"inputs":[{"internalType":"address","name":"to","type":"address"},{"internalType":"uint256","name":"tokenId","type":"uint256"}],"name":"approve","outputs":[],"stateMutability":"nonpayable","type":"function"},{"inputs":[{"internalType":"address","name":"owner","type":"address"}],"name":"balanceOf","outputs":[{"internalType":"uint256","name":"","type":"uint256"}],"stateMutability":"view","type":"function"},{"inputs":[],"name":"baseURI","outputs":[{"internalType":"string","name":"","type":"string"}],"stateMutability":"view","type":"function"},{"inputs":[],"name":"collectionDescription","outputs":[{"internalType":"string","name":"","type":"string"}],"stateMutability":"view","type":"function"},{"inputs":[{"internalType":"uint256","name":"tokenId","type":"uint256"}],"name":"getApproved","outputs":[{"internalType":"address","name":"","type":"address"}],"stateMutability":"view","type":"function"},{"inputs":[{"internalType":"address","name":"owner","type":"address"},{"internalType":"address","name":"operator","type":"address"}],"name":"isApprovedForAll","outputs":[{"internalType":"bool","name":"","type":"bool"}],"stateMutability":"view","type":"function"},{"inputs":[{"internalType":"address","name":"to","type":"address"}],"name":"mint","outputs":[],"stateMutability":"nonpayable","type":"function"},{"inputs":[],"name":"name","outputs":[{"internalType":"string","name":"","type":"string"}],"stateMutability":"view","type":"function"},{"inputs":[],"name":"nextTokenId","outputs":[{"internalType":"uint256","name":"","type":"uint256"}],"stateMutability":"view","type":"function"},{"inputs":[{"internalType":"uint256","name":"tokenId","type":"uint256"}],"name":"ownerOf","outputs":[{"internalType":"address","name":"","type":"address"}],"stateMutability":"view","type":"function"},{"inputs":[{"internalType":"address","name":"from","type":"address"},{"internalType":"address","name":"to","type":"address"},{"internalType":"uint256","name":"tokenId","type":"uint256"}],"name":"safeTransferFrom","outputs":[],"stateMutability":"nonpayable","type":"function"},{"inputs":[{"internalType":"address","name":"from","type":"address"},{"internalType":"address","name":"to","type":"address"},{"internalType":"uint256","name":"tokenId","type":"uint256"},{"internalType":"bytes","name":"data","type":"bytes"}],"name":"safeTransferFrom","outputs":[],"stateMutability":"nonpayable","type":"function"},{"inputs":[{"internalType":"address","name":"operator","type":"address"},{"internalType":"bool","name":"approved","type":"bool"}],"name":"setApprovalForAll","outputs":[],"stateMutability":"nonpayable","type":"function"},{"inputs":[{"internalType":"bytes4","name":"interfaceId","type":"bytes4"}],"name":"supportsInterface","outputs":[{"internalType":"bool","name":"","type":"bool"}],"stateMutability":"view","type":"function"},{"inputs":[],"name":"symbol","outputs":[{"internalType":"string","name":"","type":"string"}],"stateMutability":"view","type":"function"},{"inputs":[{"internalType":"uint256","name":"tokenId","type":"uint256"}],"name":"tokenURI","outputs":[{"internalType":"string","name":"","type":"string"}],"stateMutability":"view","type":"function"},{"inputs":[{"internalType":"address","name":"from","type":"address"},{"internalType":"address","name":"to","type":"address"},{"internalType":"uint256","name":"tokenId","type":"uint256"}],"name":"transferFrom","outputs":[],"stateMutability":"nonpayable","type":"function"}],"devdoc":{"events":{"Approval(address,address,uint256)":{"details":"Emitted when `owner` enables `approved` to manage the `tokenId` token."},"ApprovalForAll(address,address,bool)":{"details":"Emitted when `owner` enables or disables (`approved`) `operator` to manage all of its assets."},"BatchMetadataUpdate(uint256,uint256)":{"details":"This event emits when the metadata of a range of tokens is changed. So that the third-party platforms such as NFT market could timely update the images and related attributes of the NFTs."},"MetadataUpdate(uint256)":{"details":"This event emits when the metadata of a token is changed. So that the third-party platforms such as NFT market could timely update the images and related attributes of the NFT."},"Transfer(address,address,uint256)":{"details":"Emitted when `tokenId` token is transferred from `from` to `to`."}},"kind":"dev","methods":{"approve(address,uint256)":{"details":"See {IERC721-approve}."},"balanceOf(address)":{"details":"See {IERC721-balanceOf}."},"getApproved(uint256)":{"details":"See {IERC721-getApproved}."},"isApprovedForAll(address,address)":{"details":"See {IERC721-isApprovedForAll}."},"name()":{"details":"See {IERC721Metadata-name}."},"ownerOf(uint256)":{"details":"See {IERC721-ownerOf}."},"safeTransferFrom(address,address,uint256)":{"details":"See {IERC721-safeTransferFrom}."},"safeTransferFrom(address,address,uint256,bytes)":{"details":"See {IERC721-safeTransferFrom}."},"setApprovalForAll(address,bool)":{"details":"See {IERC721-setApprovalForAll}."},"supportsInterface(bytes4)":{"details":"See {IERC165-supportsInterface}"},"symbol()":{"details":"See {IERC721Metadata-symbol}."},"tokenURI(uint256)":{"details":"See {IERC721Metadata-tokenURI}."},"transferFrom(address,address,uint256)":{"details":"See {IERC721-transferFrom}."}},"version":1},"evm":{"bytecode":{"linkReferences":{},"object":"6080604052346200061a5762001d52803803806200001d8162000655565b9283398101906040818303126200061a5780516001600160401b0391908281116200061a5783620000509183016200067b565b90602093848201518481116200061a576200006c92016200067b565b90620000776200061f565b91601783527f586e6674792046757475726520436f6c6c656374696f6e00000000000000000085840152620000ab6200061f565b6004808252631613919560e21b8783015284519386851162000605576000928354956001978888811c98168015620005fa575b8b891014620005005781908b601f998a8111620005a4575b50508b908983116001146200053d57879262000531575b5050600019600383901b1c191690881b1784555b8051908882116200051e5787548881811c9116801562000513575b8b8210146200050057908188849311620004ad575b508a90888311600114620004485786926200043c575b5050600019600383901b1c191690871b1786555b600880546001600160a01b0319163317905580519087821162000429576009548781811c911680156200041e575b8a8210146200040b57908187849311620003b7575b5089908783116001146200035157859262000345575b5050600019600383901b1c191690861b176009555b82519586116200033257600a54908582811c9216801562000327575b88831014620003145750838111620002cb575b50859285116001146200026257939450849291908362000256575b50501b916000199060031b1c191617600a555b6040516116649081620006ee8239f35b01519250388062000233565b600a815285812093958591601f198316915b88838310620002b0575050501062000296575b505050811b01600a5562000246565b015160001960f88460031b161c1916905538808062000287565b85870151885590960195948501948793509081019062000274565b600a82528682208480880160051c8201928989106200030a575b0160051c019085905b828110620002fe57505062000218565b838155018590620002ee565b92508192620002e5565b634e487b7160e01b835260229052602482fd5b91607f169162000205565b634e487b7160e01b825260419052602490fd5b015190503880620001d4565b600986528a86208994509190601f198416875b8d828210620003a0575050841162000386575b505050811b01600955620001e9565b015160001960f88460031b161c1916905538808062000377565b8385015186558c9790950194938401930162000364565b909150600985528985208780850160051c8201928c861062000401575b918a91869594930160051c01915b828110620003f2575050620001be565b8781558594508a9101620003e2565b92508192620003d4565b634e487b7160e01b855260228452602485fd5b90607f1690620001a9565b634e487b7160e01b845260418352602484fd5b01519050388062000167565b8987528b87208a94509190601f198416888e5b8282106200049557505084116200047b575b505050811b0186556200017b565b015160001960f88460031b161c191690553880806200046d565b8385015186558d979095019493840193018e6200045b565b9091508886528a86208880850160051c8201928d8610620004f6575b918b91869594930160051c01915b828110620004e757505062000151565b8881558594508b9101620004d7565b92508192620004c9565b634e487b7160e01b865260228552602486fd5b90607f16906200013c565b634e487b7160e01b855260418452602485fd5b0151905038806200010d565b8780528c88208b94509190601f198416898f5b8282106200058a575050841162000570575b505050811b01845562000121565b015160001960f88460031b161c1916905538808062000562565b8484015186558e9790950194938401939081019062000550565b90919250878052898289209181860160051c8301938610620005f0575b918c91869594930160051c01915b828110620005e157508d9150620000f6565b8981558594508c9101620005cf565b92508192620005c1565b97607f1697620000de565b604182634e487b7160e01b6000525260246000fd5b600080fd5b60408051919082016001600160401b038111838210176200063f57604052565b634e487b7160e01b600052604160045260246000fd5b6040519190601f01601f191682016001600160401b038111838210176200063f57604052565b919080601f840112156200061a5782516001600160401b0381116200063f57602090620006b1601f8201601f1916830162000655565b928184528282870101116200061a5760005b818110620006d957508260009394955001015290565b8581018301518482018401528201620006c356fe608060408181526004918236101561001657600080fd5b600092833560e01c91826301ffc9a714610dec5750816306fdde0314610d44578163081812fc14610d24578163095ea7b314610bb657816323b872dd14610b9157816342842e0e14610b5d5781636352211e14610b2c5781636a627842146106e85781636c0360eb1461063e57816370a08231146105a857816375794a3c1461058957816395d89b41146104e1578163a22cb46514610411578163b88d4fde1461035a578163c87b56dd1461024b57508063e2c6875c14610163578063e985e9c5146101165763f851a440146100eb57600080fd5b3461011257816003193601126101125760085490516001600160a01b039091168152602090f35b5080fd5b503461011257806003193601126101125760ff81602093610135610eb9565b61013d610ed4565b6001600160a01b0391821683526005875283832091168252855220549151911615158152f35b503461011257816003193601126101125780519082600a5461018481610f1f565b8085529160019180831690811561022357506001146101c6575b5050506101b0826101c2940383610f8b565b51918291602083526020830190610e94565b0390f35b9450600a85527fc65a7bb8d6351c1cf70c95a316cc6a92839c986682d98bc35f958f4883f9d2a85b82861061020b575050506101b08260206101c2958201019461019e565b805460208787018101919091529095019481016101ee565b6101c29750869350602092506101b094915060ff191682840152151560051b8201019461019e565b9190503461035657602091826003193601126103525735600081815260026020526040902054610285906001600160a01b03161515610fc9565b8352600682528083209281518094829080546102a081610f1f565b9182855260019188838216918260001461032b5750506001146102ed575b5050506101c29392916102d2910386610f8b565b81516102dd81610f59565b5251928284938452830190610e94565b8552868520879350859291905b82841061031357505050820101816102d26101c26102be565b8054848b0186015289955088949093019281016102fa565b60ff19168782015293151560051b860190930193508492506102d291506101c290506102be565b8380fd5b8280fd5b9190503461035657608036600319011261035657610376610eb9565b9061037f610ed4565b604435906064359467ffffffffffffffff861161040d573660238701121561040d57850135936103ba6103b186610fad565b94519485610f8b565b84845286366024878901011161040a576020866104029760246104079a0183890137860101526103f26103ed8433611152565b611079565b6103fd83838361121a565b61144a565b61112e565b80f35b80fd5b8680fd5b9190503461035657806003193601126103565761042c610eb9565b90602435918215158093036104dd576001600160a01b03169233841461049b5750338452600560205280842083855260205280842060ff1981541660ff8416179055519081527f17307eab39ab6107e8899845ad3d59bd9653f200f220920489ca2b5937696c3160203392a380f35b6020606492519162461bcd60e51b8352820152601960248201527f4552433732313a20617070726f766520746f2063616c6c6572000000000000006044820152fd5b8480fd5b50503461011257816003193601126101125780519082600180549161050583610f1f565b80865292828116908115610223575060011461052d575050506101b0826101c2940383610f8b565b94508085527fb10e2d527612073b26eecdfd717e6a320cf44b4afac2b0732d9fcbe2b7fa0cf65b828610610571575050506101b08260206101c2958201019461019e565b80546020878701810191909152909501948101610554565b5050346101125781600319360112610112576020906007549051908152f35b83915034610112576020366003190112610112576001600160a01b036105cc610eb9565b169081156105e95760208480858581526003845220549051908152f35b608490602085519162461bcd60e51b8352820152602960248201527f4552433732313a2061646472657373207a65726f206973206e6f7420612076616044820152683634b21037bbb732b960b91b6064820152fd5b5050346101125781600319360112610112578051908260095461066081610f1f565b80855291600191808316908115610223575060011461068b575050506101b0826101c2940383610f8b565b9450600985527f6e1540171b6c0c960b71a7020d9f60077f6af931a8bbf590da0223dacf75c7af5b8286106106d0575050506101b08260206101c2958201019461019e565b805460208787018101919091529095019481016106b3565b838334610112576020908160031936011261035657610705610eb9565b6008546001600160a01b0392919083163303610af3576007549282519061072b82610f59565b8682528216918215610ab2576107eb91856104029261076861076283600052600260205260018060a01b0360406000205416151590565b156114f6565b60008281526002602052604090205461078b906001600160a01b03161515610762565b858a526003895281878b2096600197888154019055818c5260028b52888c20816bffffffffffffffffffffffff60a01b8254161790558b7fddf252ad1be2c89b69c2b068fc378daa952ba7f163c4a11628f55a4df523b3ef8180a4611330565b6107f483611542565b9082519182868860095461080781610f1f565b90868116908115610a975750600114610a3e575b509081610834856005959461084f975194859201610e71565b0164173539b7b760d91b815203601a19810185520183610f8b565b6000848152600260205260409020546001600160a01b0316156109e457838652600685528286209180519767ffffffffffffffff89116109d157506108948354610f1f565b601f811161098b575b508590601f891160011461090d579780928192899a7ff8e1a15aba9398e019f0b49df1a4fde98ee17ae345cb5f6b5e2c27f5033e8ce79a94610902575b50501b916000199060031b1c19161790555b51908152a16108fc6007546114d1565b60075580f35b015192508a806108da565b838852868820909891601f198316895b818110610976575099837ff8e1a15aba9398e019f0b49df1a4fde98ee17ae345cb5f6b5e2c27f5033e8ce79a9b1061095d575b505050811b0190556108ec565b015160001960f88460031b161c19169055888080610950565b8b83015184559285019291890191890161091d565b838852868820601f8a0160051c810191888b106109c7575b601f0160051c019083905b8281106109bc57505061089d565b8981550183906109ae565b90915081906109a3565b634e487b7160e01b885260419052602487fd5b825162461bcd60e51b8152808801869052602e60248201527f45524337323155524953746f726167653a2055524920736574206f66206e6f6e60448201526d32bc34b9ba32b73a103a37b5b2b760911b6064820152608490fd5b60098b52905089857f6e1540171b6c0c960b71a7020d9f60077f6af931a8bbf590da0223dacf75c7af5b838310610a7e575050508201810161084f61081b565b80548984018601528895508b9490920191879101610a68565b60ff191685850152508015150283018201905061084f61081b565b606488878087519262461bcd60e51b845283015260248201527f4552433732313a206d696e7420746f20746865207a65726f20616464726573736044820152fd5b815162461bcd60e51b815280870185905260136024820152721bdb9b1e4818591b5a5b8818d85b881b5a5b9d606a1b6044820152606490fd5b82843461040a57602036600319011261040a5750610b4c60209235611015565b90516001600160a01b039091168152f35b5050346101125761040261040791610b7436610eea565b91925192610b8184610f59565b8684526103f26103ed8433611152565b833461040a57610407610ba336610eea565b91610bb16103ed8433611152565b61121a565b905034610356578160031936011261035657610bd0610eb9565b6024359290916001600160a01b0391908280610beb87611015565b16941693808514610cd757803314908115610cb8575b5015610c5057848652602052842080546001600160a01b03191683179055610c2883611015565b167f8c5be1e5ebec7d5bd14f71427d1e84f3dd0314c0f7b2291e5b200ac8c7c3b9258480a480f35b6020608492519162461bcd60e51b8352820152603d60248201527f4552433732313a20617070726f76652063616c6c6572206973206e6f7420746f60448201527f6b656e206f776e6572206f7220617070726f76656420666f7220616c6c0000006064820152fd5b90508652600560205281862033875260205260ff828720541638610c01565b506020608492519162461bcd60e51b8352820152602160248201527f4552433732313a20617070726f76616c20746f2063757272656e74206f776e656044820152603960f91b6064820152fd5b82843461040a57602036600319011261040a5750610b4c6020923561103b565b505034610112578160031936011261011257805190828054610d6581610f1f565b808552916001918083169081156102235750600114610d90575050506101b0826101c2940383610f8b565b80809650527f290decd9548b62a8d60345a988386fc84ba6bc95484008f6362f93160ef3e5635b828610610dd4575050506101b08260206101c2958201019461019e565b80546020878701810191909152909501948101610db7565b849134610356576020366003190112610356573563ffffffff60e01b81168091036103565760209250632483248360e11b8114908115610e2e575b5015158152f35b6380ac58cd60e01b811491508115610e60575b8115610e4f575b5083610e27565b6301ffc9a760e01b14905083610e48565b635b5e139f60e01b81149150610e41565b60005b838110610e845750506000910152565b8181015183820152602001610e74565b90602091610ead81518092818552858086019101610e71565b601f01601f1916010190565b600435906001600160a01b0382168203610ecf57565b600080fd5b602435906001600160a01b0382168203610ecf57565b6060906003190112610ecf576001600160a01b03906004358281168103610ecf57916024359081168103610ecf579060443590565b90600182811c92168015610f4f575b6020831014610f3957565b634e487b7160e01b600052602260045260246000fd5b91607f1691610f2e565b6020810190811067ffffffffffffffff821117610f7557604052565b634e487b7160e01b600052604160045260246000fd5b90601f8019910116810190811067ffffffffffffffff821117610f7557604052565b67ffffffffffffffff8111610f7557601f01601f191660200190565b15610fd057565b60405162461bcd60e51b815260206004820152601860248201527f4552433732313a20696e76616c696420746f6b656e20494400000000000000006044820152606490fd5b6000908152600260205260409020546001600160a01b0316611038811515610fc9565b90565b60008181526002602052604090205461105e906001600160a01b03161515610fc9565b6000908152600460205260409020546001600160a01b031690565b1561108057565b60405162461bcd60e51b815260206004820152602d60248201527f4552433732313a2063616c6c6572206973206e6f7420746f6b656e206f776e6560448201526c1c881bdc88185c1c1c9bdd9959609a1b6064820152608490fd5b60809060208152603260208201527f4552433732313a207472616e7366657220746f206e6f6e20455243373231526560408201527131b2b4bb32b91034b6b83632b6b2b73a32b960711b60608201520190565b1561113557565b60405162461bcd60e51b81528061114e600482016110db565b0390fd5b906001600160a01b03808061116684611015565b16931691838314938415611199575b508315611183575b50505090565b61118f9192935061103b565b161438808061117d565b909350600052600560205260406000208260005260205260ff604060002054169238611175565b156111c757565b60405162461bcd60e51b815260206004820152602560248201527f4552433732313a207472616e736665722066726f6d20696e636f72726563742060448201526437bbb732b960d91b6064820152608490fd5b906112429161122884611015565b6001600160a01b03939184169284929091831684146111c0565b169182156112df578161125f9161125886611015565b16146111c0565b7fddf252ad1be2c89b69c2b068fc378daa952ba7f163c4a11628f55a4df523b3ef60008481526004602052604081206bffffffffffffffffffffffff60a01b9081815416905583825260036020526040822060001981540190558482526040822060018154019055858252600260205284604083209182541617905580a4565b60405162461bcd60e51b8152602060048201526024808201527f4552433732313a207472616e7366657220746f20746865207a65726f206164646044820152637265737360e01b6064820152608490fd5b91929091803b156114415761137d936040519081630a85bd0160e11b9384825233600483015260009687602484015260448301526080606483015281878160209a8b966084830190610e94565b03926001600160a01b03165af1849181611401575b506113f0575050503d6000146113e8573d6113ac81610fad565b906113ba6040519283610f8b565b81528091833d92013e5b805191826113e55760405162461bcd60e51b81528061114e600482016110db565b01fd5b5060606113c4565b6001600160e01b0319161492509050565b9091508581813d831161143a575b6114198183610f8b565b810103126104dd57516001600160e01b0319811681036104dd579038611392565b503d61140f565b50915050600190565b92939190803b156114c75761149c946040518092630a85bd0160e11b9485835233600484015260018060a01b03809816602484015260448301526080606483015281806020998a956084830190610e94565b03916000988991165af184918161140157506113f0575050503d6000146113e8573d6113ac81610fad565b5050915050600190565b60001981146114e05760010190565b634e487b7160e01b600052601160045260246000fd5b156114fd57565b60405162461bcd60e51b815260206004820152601c60248201527f4552433732313a20746f6b656e20616c7265616479206d696e746564000000006044820152606490fd5b80156115ff57600081805b6115eb575061155b81610fad565b906115696040519283610f8b565b808252601f1961157882610fad565b013660208401375b809280156115e45760001982019182116114e0578193600a9260309084840682018092116114e057855111156115ce5760f81b6001600160f81b03191660001a908401601f01530491611580565b634e487b7160e01b600052603260045260246000fd5b5050905090565b906115f7600a916114d1565b91048061154d565b506040516040810181811067ffffffffffffffff821117610f755760405260018152600360fc1b60208201529056fea2646970667358221220a44bfc8d8bc44007875b0aaf4dafb5c964ca430c21c0afff3e6da9e3d48b01ad64736f6c63430008140033","opcodes":"PUSH1 0x80 PUSH1 0x40 MSTORE CALLVALUE PUSH3 0x61A JUMPI PUSH3 0x1D52 DUP1 CODESIZE SUB DUP1 PUSH3 0x1D DUP2 PUSH3 0x655 JUMP JUMPDEST SWAP3 DUP4 CODECOPY DUP2 ADD SWAP1 PUSH1 0x40 DUP2 DUP4 SUB SLT PUSH3 0x61A JUMPI DUP1 MLOAD PUSH1 0x1 PUSH1 0x1 PUSH1 0x40 SHL SUB SWAP2 SWAP1 DUP3 DUP2 GT PUSH3 0x61A JUMPI DUP4 PUSH3 0x50 SWAP2 DUP4 ADD PUSH3 0x67B JUMP JUMPDEST SWAP1 PUSH1 0x20 SWAP4 DUP5 DUP3 ADD MLOAD DUP5 DUP2 GT PUSH3 0x61A JUMPI PUSH3 0x6C SWAP3 ADD PUSH3 0x67B JUMP JUMPDEST SWAP1 PUSH3 0x77 PUSH3 0x61F JUMP JUMPDEST SWAP2 PUSH1 0x17 DUP4 MSTORE PUSH32 0x586E6674792046757475726520436F6C6C656374696F6E000000000000000000 DUP6 DUP5 ADD MSTORE PUSH3 0xAB PUSH3 0x61F JUMP JUMPDEST PUSH1 0x4 DUP1 DUP3 MSTORE PUSH4 0x16139195 PUSH1 0xE2 SHL DUP8 DUP4 ADD MSTORE DUP5 MLOAD SWAP4 DUP7 DUP6 GT PUSH3 0x605 JUMPI PUSH1 0x0 SWAP3 DUP4 SLOAD SWAP6 PUSH1 0x1 SWAP8 DUP9 DUP9 DUP2 SHR SWAP9 AND DUP1 ISZERO PUSH3 0x5FA JUMPI JUMPDEST DUP12 DUP10 LT EQ PUSH3 0x500 JUMPI DUP2 SWAP1 DUP12 PUSH1 0x1F SWAP10 DUP11 DUP2 GT PUSH3 0x5A4 JUMPI JUMPDEST POP POP DUP12 SWAP1 DUP10 DUP4 GT PUSH1 0x1 EQ PUSH3 0x53D JUMPI DUP8 SWAP3 PUSH3 0x531 JUMPI JUMPDEST POP POP PUSH1 0x0 NOT PUSH1 0x3 DUP4 SWAP1 SHL SHR NOT AND SWAP1 DUP9 SHL OR DUP5 SSTORE JUMPDEST DUP1 MLOAD SWAP1 DUP9 DUP3 GT PUSH3 0x51E JUMPI DUP8 SLOAD DUP9 DUP2 DUP2 SHR SWAP2 AND DUP1 ISZERO PUSH3 0x513 JUMPI JUMPDEST DUP12 DUP3 LT EQ PUSH3 0x500 JUMPI SWAP1 DUP2 DUP9 DUP5 SWAP4 GT PUSH3 0x4AD JUMPI JUMPDEST POP DUP11 SWAP1 DUP9 DUP4 GT PUSH1 0x1 EQ PUSH3 0x448 JUMPI DUP7 SWAP3 PUSH3 0x43C JUMPI JUMPDEST POP POP PUSH1 0x0 NOT PUSH1 0x3 DUP4 SWAP1 SHL SHR NOT AND SWAP1 DUP8 SHL OR DUP7 SSTORE JUMPDEST PUSH1 0x8 DUP1 SLOAD PUSH1 0x1 PUSH1 0x1 PUSH1 0xA0 SHL SUB NOT AND CALLER OR SWAP1 SSTORE DUP1 MLOAD SWAP1 DUP8 DUP3 GT PUSH3 0x429 JUMPI PUSH1 0x9 SLOAD DUP8 DUP2 DUP2 SHR SWAP2 AND DUP1 ISZERO PUSH3 0x41E JUMPI JUMPDEST DUP11 DUP3 LT EQ PUSH3 0x40B JUMPI SWAP1 DUP2 DUP8 DUP5 SWAP4 GT PUSH3 0x3B7 JUMPI JUMPDEST POP DUP10 SWAP1 DUP8 DUP4 GT PUSH1 0x1 EQ PUSH3 0x351 JUMPI DUP6 SWAP3 PUSH3 0x345 JUMPI JUMPDEST POP POP PUSH1 0x0 NOT PUSH1 0x3 DUP4 SWAP1 SHL SHR NOT AND SWAP1 DUP7 SHL OR PUSH1 0x9 SSTORE JUMPDEST DUP3 MLOAD SWAP6 DUP7 GT PUSH3 0x332 JUMPI PUSH1 0xA SLOAD SWAP1 DUP6 DUP3 DUP2 SHR SWAP3 AND DUP1 ISZERO PUSH3 0x327 JUMPI JUMPDEST DUP9 DUP4 LT EQ PUSH3 0x314 JUMPI POP DUP4 DUP2 GT PUSH3 0x2CB JUMPI JUMPDEST POP DUP6 SWAP3 DUP6 GT PUSH1 0x1 EQ PUSH3 0x262 JUMPI SWAP4 SWAP5 POP DUP5 SWAP3 SWAP2 SWAP1 DUP4 PUSH3 0x256 JUMPI JUMPDEST POP POP SHL SWAP2 PUSH1 0x0 NOT SWAP1 PUSH1 0x3 SHL SHR NOT AND OR PUSH1 0xA SSTORE JUMPDEST PUSH1 0x40 MLOAD PUSH2 0x1664 SWAP1 DUP2 PUSH3 0x6EE DUP3 CODECOPY RETURN JUMPDEST ADD MLOAD SWAP3 POP CODESIZE DUP1 PUSH3 0x233 JUMP JUMPDEST PUSH1 0xA DUP2 MSTORE DUP6 DUP2 KECCAK256 SWAP4 SWAP6 DUP6 SWAP2 PUSH1 0x1F NOT DUP4 AND SWAP2 JUMPDEST DUP9 DUP4 DUP4 LT PUSH3 0x2B0 JUMPI POP POP POP LT PUSH3 0x296 JUMPI JUMPDEST POP POP POP DUP2 SHL ADD PUSH1 0xA SSTORE PUSH3 0x246 JUMP JUMPDEST ADD MLOAD PUSH1 0x0 NOT PUSH1 0xF8 DUP5 PUSH1 0x3 SHL AND SHR NOT AND SWAP1 SSTORE CODESIZE DUP1 DUP1 PUSH3 0x287 JUMP JUMPDEST DUP6 DUP8 ADD MLOAD DUP9 SSTORE SWAP1 SWAP7 ADD SWAP6 SWAP5 DUP6 ADD SWAP5 DUP8 SWAP4 POP SWAP1 DUP2 ADD SWAP1 PUSH3 0x274 JUMP JUMPDEST PUSH1 0xA DUP3 MSTORE DUP7 DUP3 KECCAK256 DUP5 DUP1 DUP9 ADD PUSH1 0x5 SHR DUP3 ADD SWAP3 DUP10 DUP10 LT PUSH3 0x30A JUMPI JUMPDEST ADD PUSH1 0x5 SHR ADD SWAP1 DUP6 SWAP1 JUMPDEST DUP3 DUP2 LT PUSH3 0x2FE JUMPI POP POP PUSH3 0x218 JUMP JUMPDEST DUP4 DUP2 SSTORE ADD DUP6 SWAP1 PUSH3 0x2EE JUMP JUMPDEST SWAP3 POP DUP2 SWAP3 PUSH3 0x2E5 JUMP JUMPDEST PUSH4 0x4E487B71 PUSH1 0xE0 SHL DUP4 MSTORE PUSH1 0x22 SWAP1 MSTORE PUSH1 0x24 DUP3 REVERT JUMPDEST SWAP2 PUSH1 0x7F AND SWAP2 PUSH3 0x205 JUMP JUMPDEST PUSH4 0x4E487B71 PUSH1 0xE0 SHL DUP3 MSTORE PUSH1 0x41 SWAP1 MSTORE PUSH1 0x24 SWAP1 REVERT JUMPDEST ADD MLOAD SWAP1 POP CODESIZE DUP1 PUSH3 0x1D4 JUMP JUMPDEST PUSH1 0x9 DUP7 MSTORE DUP11 DUP7 KECCAK256 DUP10 SWAP5 POP SWAP2 SWAP1 PUSH1 0x1F NOT DUP5 AND DUP8 JUMPDEST DUP14 DUP3 DUP3 LT PUSH3 0x3A0 JUMPI POP POP DUP5 GT PUSH3 0x386 JUMPI JUMPDEST POP POP POP DUP2 SHL ADD PUSH1 0x9 SSTORE PUSH3 0x1E9 JUMP JUMPDEST ADD MLOAD PUSH1 0x0 NOT PUSH1 0xF8 DUP5 PUSH1 0x3 SHL AND SHR NOT AND SWAP1 SSTORE CODESIZE DUP1 DUP1 PUSH3 0x377 JUMP JUMPDEST DUP4 DUP6 ADD MLOAD DUP7 SSTORE DUP13 SWAP8 SWAP1 SWAP6 ADD SWAP5 SWAP4 DUP5 ADD SWAP4 ADD PUSH3 0x364 JUMP JUMPDEST SWAP1 SWAP2 POP PUSH1 0x9 DUP6 MSTORE DUP10 DUP6 KECCAK256 DUP8 DUP1 DUP6 ADD PUSH1 0x5 SHR DUP3 ADD SWAP3 DUP13 DUP7 LT PUSH3 0x401 JUMPI JUMPDEST SWAP2 DUP11 SWAP2 DUP7 SWAP6 SWAP5 SWAP4 ADD PUSH1 0x5 SHR ADD SWAP2 JUMPDEST DUP3 DUP2 LT PUSH3 0x3F2 JUMPI POP POP PUSH3 0x1BE JUMP JUMPDEST DUP8 DUP2 SSTORE DUP6 SWAP5 POP DUP11 SWAP2 ADD PUSH3 0x3E2 JUMP JUMPDEST SWAP3 POP DUP2 SWAP3 PUSH3 0x3D4 JUMP JUMPDEST PUSH4 0x4E487B71 PUSH1 0xE0 SHL DUP6 MSTORE PUSH1 0x22 DUP5 MSTORE PUSH1 0x24 DUP6 REVERT JUMPDEST SWAP1 PUSH1 0x7F AND SWAP1 PUSH3 0x1A9 JUMP JUMPDEST PUSH4 0x4E487B71 PUSH1 0xE0 SHL DUP5 MSTORE PUSH1 0x41 DUP4 MSTORE PUSH1 0x24 DUP5 REVERT JUMPDEST ADD MLOAD SWAP1 POP CODESIZE DUP1 PUSH3 0x167 JUMP JUMPDEST DUP10 DUP8 MSTORE DUP12 DUP8 KECCAK256 DUP11 SWAP5 POP SWAP2 SWAP1 PUSH1 0x1F NOT DUP5 AND DUP9 DUP15 JUMPDEST DUP3 DUP3 LT PUSH3 0x495 JUMPI POP POP DUP5 GT PUSH3 0x47B JUMPI JUMPDEST POP POP POP DUP2 SHL ADD DUP7 SSTORE PUSH3 0x17B JUMP JUMPDEST ADD MLOAD PUSH1 0x0 NOT PUSH1 0xF8 DUP5 PUSH1 0x3 SHL AND SHR NOT AND SWAP1 SSTORE CODESIZE DUP1 DUP1 PUSH3 0x46D JUMP JUMPDEST DUP4 DUP6 ADD MLOAD DUP7 SSTORE DUP14 SWAP8 SWAP1 SWAP6 ADD SWAP5 SWAP4 DUP5 ADD SWAP4 ADD DUP15 PUSH3 0x45B JUMP JUMPDEST SWAP1 SWAP2 POP DUP9 DUP7 MSTORE DUP11 DUP7 KECCAK256 DUP9 DUP1 DUP6 ADD PUSH1 0x5 SHR DUP3 ADD SWAP3 DUP14 DUP7 LT PUSH3 0x4F6 JUMPI JUMPDEST SWAP2 DUP12 SWAP2 DUP7 SWAP6 SWAP5 SWAP4 ADD PUSH1 0x5 SHR ADD SWAP2 JUMPDEST DUP3 DUP2 LT PUSH3 0x4E7 JUMPI POP POP PUSH3 0x151 JUMP JUMPDEST DUP9 DUP2 SSTORE DUP6 SWAP5 POP DUP12 SWAP2 ADD PUSH3 0x4D7 JUMP JUMPDEST SWAP3 POP DUP2 SWAP3 PUSH3 0x4C9 JUMP JUMPDEST PUSH4 0x4E487B71 PUSH1 0xE0 SHL DUP7 MSTORE PUSH1 0x22 DUP6 MSTORE PUSH1 0x24 DUP7 REVERT JUMPDEST SWAP1 PUSH1 0x7F AND SWAP1 PUSH3 0x13C JUMP JUMPDEST PUSH4 0x4E487B71 PUSH1 0xE0 SHL DUP6 MSTORE PUSH1 0x41 DUP5 MSTORE PUSH1 0x24 DUP6 REVERT JUMPDEST ADD MLOAD SWAP1 POP CODESIZE DUP1 PUSH3 0x10D JUMP JUMPDEST DUP8 DUP1 MSTORE DUP13 DUP9 KECCAK256 DUP12 SWAP5 POP SWAP2 SWAP1 PUSH1 0x1F NOT DUP5 AND DUP10 DUP16 JUMPDEST DUP3 DUP3 LT PUSH3 0x58A JUMPI POP POP DUP5 GT PUSH3 0x570 JUMPI JUMPDEST POP POP POP DUP2 SHL ADD DUP5 SSTORE PUSH3 0x121 JUMP JUMPDEST ADD MLOAD PUSH1 0x0 NOT PUSH1 0xF8 DUP5 PUSH1 0x3 SHL AND SHR NOT AND SWAP1 SSTORE CODESIZE DUP1 DUP1 PUSH3 0x562 JUMP JUMPDEST DUP5 DUP5 ADD MLOAD DUP7 SSTORE DUP15 SWAP8 SWAP1 SWAP6 ADD SWAP5 SWAP4 DUP5 ADD SWAP4 SWAP1 DUP2 ADD SWAP1 PUSH3 0x550 JUMP JUMPDEST SWAP1 SWAP2 SWAP3 POP DUP8 DUP1 MSTORE DUP10 DUP3 DUP10 KECCAK256 SWAP2 DUP2 DUP7 ADD PUSH1 0x5 SHR DUP4 ADD SWAP4 DUP7 LT PUSH3 0x5F0 JUMPI JUMPDEST SWAP2 DUP13 SWAP2 DUP7 SWAP6 SWAP5 SWAP4 ADD PUSH1 0x5 SHR ADD SWAP2 JUMPDEST DUP3 DUP2 LT PUSH3 0x5E1 JUMPI POP DUP14 SWAP2 POP PUSH3 0xF6 JUMP JUMPDEST DUP10 DUP2 SSTORE DUP6 SWAP5 POP DUP13 SWAP2 ADD PUSH3 0x5CF JUMP JUMPDEST SWAP3 POP DUP2 SWAP3 PUSH3 0x5C1 JUMP JUMPDEST SWAP8 PUSH1 0x7F AND SWAP8 PUSH3 0xDE JUMP JUMPDEST PUSH1 0x41 DUP3 PUSH4 0x4E487B71 PUSH1 0xE0 SHL PUSH1 0x0 MSTORE MSTORE PUSH1 0x24 PUSH1 0x0 REVERT JUMPDEST PUSH1 0x0 DUP1 REVERT JUMPDEST PUSH1 0x40 DUP1 MLOAD SWAP2 SWAP1 DUP3 ADD PUSH1 0x1 PUSH1 0x1 PUSH1 0x40 SHL SUB DUP2 GT DUP4 DUP3 LT OR PUSH3 0x63F JUMPI PUSH1 0x40 MSTORE JUMP JUMPDEST PUSH4 0x4E487B71 PUSH1 0xE0 SHL PUSH1 0x0 MSTORE PUSH1 0x41 PUSH1 0x4 MSTORE PUSH1 0x24 PUSH1 0x0 REVERT JUMPDEST PUSH1 0x40 MLOAD SWAP2 SWAP1 PUSH1 0x1F ADD PUSH1 0x1F NOT AND DUP3 ADD PUSH1 0x1 PUSH1 0x1 PUSH1 0x40 SHL SUB DUP2 GT DUP4 DUP3 LT OR PUSH3 0x63F JUMPI PUSH1 0x40 MSTORE JUMP JUMPDEST SWAP2 SWAP1 DUP1 PUSH1 0x1F DUP5 ADD SLT ISZERO PUSH3 0x61A JUMPI DUP3 MLOAD PUSH1 0x1 PUSH1 0x1 PUSH1 0x40 SHL SUB DUP2 GT PUSH3 0x63F JUMPI PUSH1 0x20 SWAP1 PUSH3 0x6B1 PUSH1 0x1F DUP3 ADD PUSH1 0x1F NOT AND DUP4 ADD PUSH3 0x655 JUMP JUMPDEST SWAP3 DUP2 DUP5 MSTORE DUP3 DUP3 DUP8 ADD ADD GT PUSH3 0x61A JUMPI PUSH1 0x0 JUMPDEST DUP2 DUP2 LT PUSH3 0x6D9 JUMPI POP DUP3 PUSH1 0x0 SWAP4 SWAP5 SWAP6 POP ADD ADD MSTORE SWAP1 JUMP JUMPDEST DUP6 DUP2 ADD DUP4 ADD MLOAD DUP5 DUP3 ADD DUP5 ADD MSTORE DUP3 ADD PUSH3 0x6C3 JUMP INVALID PUSH1 0x80 PUSH1 0x40 DUP2 DUP2 MSTORE PUSH1 0x4 SWAP2 DUP3 CALLDATASIZE LT ISZERO PUSH2 0x16 JUMPI PUSH1 0x0 DUP1 REVERT JUMPDEST PUSH1 0x0 SWAP3 DUP4 CALLDATALOAD PUSH1 0xE0 SHR SWAP2 DUP3 PUSH4 0x1FFC9A7 EQ PUSH2 0xDEC JUMPI POP DUP2 PUSH4 0x6FDDE03 EQ PUSH2 0xD44 JUMPI DUP2 PUSH4 0x81812FC EQ PUSH2 0xD24 JUMPI DUP2 PUSH4 0x95EA7B3 EQ PUSH2 0xBB6 JUMPI DUP2 PUSH4 0x23B872DD EQ PUSH2 0xB91 JUMPI DUP2 PUSH4 0x42842E0E EQ PUSH2 0xB5D JUMPI DUP2 PUSH4 0x6352211E EQ PUSH2 0xB2C JUMPI DUP2 PUSH4 0x6A627842 EQ PUSH2 0x6E8 JUMPI DUP2 PUSH4 0x6C0360EB EQ PUSH2 0x63E JUMPI DUP2 PUSH4 0x70A08231 EQ PUSH2 0x5A8 JUMPI DUP2 PUSH4 0x75794A3C EQ PUSH2 0x589 JUMPI DUP2 PUSH4 0x95D89B41 EQ PUSH2 0x4E1 JUMPI DUP2 PUSH4 0xA22CB465 EQ PUSH2 0x411 JUMPI DUP2 PUSH4 0xB88D4FDE EQ PUSH2 0x35A JUMPI DUP2 PUSH4 0xC87B56DD EQ PUSH2 0x24B JUMPI POP DUP1 PUSH4 0xE2C6875C EQ PUSH2 0x163 JUMPI DUP1 PUSH4 0xE985E9C5 EQ PUSH2 0x116 JUMPI PUSH4 0xF851A440 EQ PUSH2 0xEB JUMPI PUSH1 0x0 DUP1 REVERT JUMPDEST CALLVALUE PUSH2 0x112 JUMPI DUP2 PUSH1 0x3 NOT CALLDATASIZE ADD SLT PUSH2 0x112 JUMPI PUSH1 0x8 SLOAD SWAP1 MLOAD PUSH1 0x1 PUSH1 0x1 PUSH1 0xA0 SHL SUB SWAP1 SWAP2 AND DUP2 MSTORE PUSH1 0x20 SWAP1 RETURN JUMPDEST POP DUP1 REVERT JUMPDEST POP CALLVALUE PUSH2 0x112 JUMPI DUP1 PUSH1 0x3 NOT CALLDATASIZE ADD SLT PUSH2 0x112 JUMPI PUSH1 0xFF DUP2 PUSH1 0x20 SWAP4 PUSH2 0x135 PUSH2 0xEB9 JUMP JUMPDEST PUSH2 0x13D PUSH2 0xED4 JUMP JUMPDEST PUSH1 0x1 PUSH1 0x1 PUSH1 0xA0 SHL SUB SWAP2 DUP3 AND DUP4 MSTORE PUSH1 0x5 DUP8 MSTORE DUP4 DUP4 KECCAK256 SWAP2 AND DUP3 MSTORE DUP6 MSTORE KECCAK256 SLOAD SWAP2 MLOAD SWAP2 AND ISZERO ISZERO DUP2 MSTORE RETURN JUMPDEST POP CALLVALUE PUSH2 0x112 JUMPI DUP2 PUSH1 0x3 NOT CALLDATASIZE ADD SLT PUSH2 0x112 JUMPI DUP1 MLOAD SWAP1 DUP3 PUSH1 0xA SLOAD PUSH2 0x184 DUP2 PUSH2 0xF1F JUMP JUMPDEST DUP1 DUP6 MSTORE SWAP2 PUSH1 0x1 SWAP2 DUP1 DUP4 AND SWAP1 DUP2 ISZERO PUSH2 0x223 JUMPI POP PUSH1 0x1 EQ PUSH2 0x1C6 JUMPI JUMPDEST POP POP POP PUSH2 0x1B0 DUP3 PUSH2 0x1C2 SWAP5 SUB DUP4 PUSH2 0xF8B JUMP JUMPDEST MLOAD SWAP2 DUP3 SWAP2 PUSH1 0x20 DUP4 MSTORE PUSH1 0x20 DUP4 ADD SWAP1 PUSH2 0xE94 JUMP JUMPDEST SUB SWAP1 RETURN JUMPDEST SWAP5 POP PUSH1 0xA DUP6 MSTORE PUSH32 0xC65A7BB8D6351C1CF70C95A316CC6A92839C986682D98BC35F958F4883F9D2A8 JUMPDEST DUP3 DUP7 LT PUSH2 0x20B JUMPI POP POP POP PUSH2 0x1B0 DUP3 PUSH1 0x20 PUSH2 0x1C2 SWAP6 DUP3 ADD ADD SWAP5 PUSH2 0x19E JUMP JUMPDEST DUP1 SLOAD PUSH1 0x20 DUP8 DUP8 ADD DUP2 ADD SWAP2 SWAP1 SWAP2 MSTORE SWAP1 SWAP6 ADD SWAP5 DUP2 ADD PUSH2 0x1EE JUMP JUMPDEST PUSH2 0x1C2 SWAP8 POP DUP7 SWAP4 POP PUSH1 0x20 SWAP3 POP PUSH2 0x1B0 SWAP5 SWAP2 POP PUSH1 0xFF NOT AND DUP3 DUP5 ADD MSTORE ISZERO ISZERO PUSH1 0x5 SHL DUP3 ADD ADD SWAP5 PUSH2 0x19E JUMP JUMPDEST SWAP2 SWAP1 POP CALLVALUE PUSH2 0x356 JUMPI PUSH1 0x20 SWAP2 DUP3 PUSH1 0x3 NOT CALLDATASIZE ADD SLT PUSH2 0x352 JUMPI CALLDATALOAD PUSH1 0x0 DUP2 DUP2 MSTORE PUSH1 0x2 PUSH1 0x20 MSTORE PUSH1 0x40 SWAP1 KECCAK256 SLOAD PUSH2 0x285 SWAP1 PUSH1 0x1 PUSH1 0x1 PUSH1 0xA0 SHL SUB AND ISZERO ISZERO PUSH2 0xFC9 JUMP JUMPDEST DUP4 MSTORE PUSH1 0x6 DUP3 MSTORE DUP1 DUP4 KECCAK256 SWAP3 DUP2 MLOAD DUP1 SWAP5 DUP3 SWAP1 DUP1 SLOAD PUSH2 0x2A0 DUP2 PUSH2 0xF1F JUMP JUMPDEST SWAP2 DUP3 DUP6 MSTORE PUSH1 0x1 SWAP2 DUP9 DUP4 DUP3 AND SWAP2 DUP3 PUSH1 0x0 EQ PUSH2 0x32B JUMPI POP POP PUSH1 0x1 EQ PUSH2 0x2ED JUMPI JUMPDEST POP POP POP PUSH2 0x1C2 SWAP4 SWAP3 SWAP2 PUSH2 0x2D2 SWAP2 SUB DUP7 PUSH2 0xF8B JUMP JUMPDEST DUP2 MLOAD PUSH2 0x2DD DUP2 PUSH2 0xF59 JUMP JUMPDEST MSTORE MLOAD SWAP3 DUP3 DUP5 SWAP4 DUP5 MSTORE DUP4 ADD SWAP1 PUSH2 0xE94 JUMP JUMPDEST DUP6 MSTORE DUP7 DUP6 KECCAK256 DUP8 SWAP4 POP DUP6 SWAP3 SWAP2 SWAP1 JUMPDEST DUP3 DUP5 LT PUSH2 0x313 JUMPI POP POP POP DUP3 ADD ADD DUP2 PUSH2 0x2D2 PUSH2 0x1C2 PUSH2 0x2BE JUMP JUMPDEST DUP1 SLOAD DUP5 DUP12 ADD DUP7 ADD MSTORE DUP10 SWAP6 POP DUP9 SWAP5 SWAP1 SWAP4 ADD SWAP3 DUP2 ADD PUSH2 0x2FA JUMP JUMPDEST PUSH1 0xFF NOT AND DUP8 DUP3 ADD MSTORE SWAP4 ISZERO ISZERO PUSH1 0x5 SHL DUP7 ADD SWAP1 SWAP4 ADD SWAP4 POP DUP5 SWAP3 POP PUSH2 0x2D2 SWAP2 POP PUSH2 0x1C2 SWAP1 POP PUSH2 0x2BE JUMP JUMPDEST DUP4 DUP1 REVERT JUMPDEST DUP3 DUP1 REVERT JUMPDEST SWAP2 SWAP1 POP CALLVALUE PUSH2 0x356 JUMPI PUSH1 0x80 CALLDATASIZE PUSH1 0x3 NOT ADD SLT PUSH2 0x356 JUMPI PUSH2 0x376 PUSH2 0xEB9 JUMP JUMPDEST SWAP1 PUSH2 0x37F PUSH2 0xED4 JUMP JUMPDEST PUSH1 0x44 CALLDATALOAD SWAP1 PUSH1 0x64 CALLDATALOAD SWAP5 PUSH8 0xFFFFFFFFFFFFFFFF DUP7 GT PUSH2 0x40D JUMPI CALLDATASIZE PUSH1 0x23 DUP8 ADD SLT ISZERO PUSH2 0x40D JUMPI DUP6 ADD CALLDATALOAD SWAP4 PUSH2 0x3BA PUSH2 0x3B1 DUP7 PUSH2 0xFAD JUMP JUMPDEST SWAP5 MLOAD SWAP5 DUP6 PUSH2 0xF8B JUMP JUMPDEST DUP5 DUP5 MSTORE DUP7 CALLDATASIZE PUSH1 0x24 DUP8 DUP10 ADD ADD GT PUSH2 0x40A JUMPI PUSH1 0x20 DUP7 PUSH2 0x402 SWAP8 PUSH1 0x24 PUSH2 0x407 SWAP11 ADD DUP4 DUP10 ADD CALLDATACOPY DUP7 ADD ADD MSTORE PUSH2 0x3F2 PUSH2 0x3ED DUP5 CALLER PUSH2 0x1152 JUMP JUMPDEST PUSH2 0x1079 JUMP JUMPDEST PUSH2 0x3FD DUP4 DUP4 DUP4 PUSH2 0x121A JUMP JUMPDEST PUSH2 0x144A JUMP JUMPDEST PUSH2 0x112E JUMP JUMPDEST DUP1 RETURN JUMPDEST DUP1 REVERT JUMPDEST DUP7 DUP1 REVERT JUMPDEST SWAP2 SWAP1 POP CALLVALUE PUSH2 0x356 JUMPI DUP1 PUSH1 0x3 NOT CALLDATASIZE ADD SLT PUSH2 0x356 JUMPI PUSH2 0x42C PUSH2 0xEB9 JUMP JUMPDEST SWAP1 PUSH1 0x24 CALLDATALOAD SWAP2 DUP3 ISZERO ISZERO DUP1 SWAP4 SUB PUSH2 0x4DD JUMPI PUSH1 0x1 PUSH1 0x1 PUSH1 0xA0 SHL SUB AND SWAP3 CALLER DUP5 EQ PUSH2 0x49B JUMPI POP CALLER DUP5 MSTORE PUSH1 0x5 PUSH1 0x20 MSTORE DUP1 DUP5 KECCAK256 DUP4 DUP6 MSTORE PUSH1 0x20 MSTORE DUP1 DUP5 KECCAK256 PUSH1 0xFF NOT DUP2 SLOAD AND PUSH1 0xFF DUP5 AND OR SWAP1 SSTORE MLOAD SWAP1 DUP2 MSTORE PUSH32 0x17307EAB39AB6107E8899845AD3D59BD9653F200F220920489CA2B5937696C31 PUSH1 0x20 CALLER SWAP3 LOG3 DUP1 RETURN JUMPDEST PUSH1 0x20 PUSH1 0x64 SWAP3 MLOAD SWAP2 PUSH3 0x461BCD PUSH1 0xE5 SHL DUP4 MSTORE DUP3 ADD MSTORE PUSH1 0x19 PUSH1 0x24 DUP3 ADD MSTORE PUSH32 0x4552433732313A20617070726F766520746F2063616C6C657200000000000000 PUSH1 0x44 DUP3 ADD MSTORE REVERT JUMPDEST DUP5 DUP1 REVERT JUMPDEST POP POP CALLVALUE PUSH2 0x112 JUMPI DUP2 PUSH1 0x3 NOT CALLDATASIZE ADD SLT PUSH2 0x112 JUMPI DUP1 MLOAD SWAP1 DUP3 PUSH1 0x1 DUP1 SLOAD SWAP2 PUSH2 0x505 DUP4 PUSH2 0xF1F JUMP JUMPDEST DUP1 DUP7 MSTORE SWAP3 DUP3 DUP2 AND SWAP1 DUP2 ISZERO PUSH2 0x223 JUMPI POP PUSH1 0x1 EQ PUSH2 0x52D JUMPI POP POP POP PUSH2 0x1B0 DUP3 PUSH2 0x1C2 SWAP5 SUB DUP4 PUSH2 0xF8B JUMP JUMPDEST SWAP5 POP DUP1 DUP6 MSTORE PUSH32 0xB10E2D527612073B26EECDFD717E6A320CF44B4AFAC2B0732D9FCBE2B7FA0CF6 JUMPDEST DUP3 DUP7 LT PUSH2 0x571 JUMPI POP POP POP PUSH2 0x1B0 DUP3 PUSH1 0x20 PUSH2 0x1C2 SWAP6 DUP3 ADD ADD SWAP5 PUSH2 0x19E JUMP JUMPDEST DUP1 SLOAD PUSH1 0x20 DUP8 DUP8 ADD DUP2 ADD SWAP2 SWAP1 SWAP2 MSTORE SWAP1 SWAP6 ADD SWAP5 DUP2 ADD PUSH2 0x554 JUMP JUMPDEST POP POP CALLVALUE PUSH2 0x112 JUMPI DUP2 PUSH1 0x3 NOT CALLDATASIZE ADD SLT PUSH2 0x112 JUMPI PUSH1 0x20 SWAP1 PUSH1 0x7 SLOAD SWAP1 MLOAD SWAP1 DUP2 MSTORE RETURN JUMPDEST DUP4 SWAP2 POP CALLVALUE PUSH2 0x112 JUMPI PUSH1 0x20 CALLDATASIZE PUSH1 0x3 NOT ADD SLT PUSH2 0x112 JUMPI PUSH1 0x1 PUSH1 0x1 PUSH1 0xA0 SHL SUB PUSH2 0x5CC PUSH2 0xEB9 JUMP JUMPDEST AND SWAP1 DUP2 ISZERO PUSH2 0x5E9 JUMPI PUSH1 0x20 DUP5 DUP1 DUP6 DUP6 DUP2 MSTORE PUSH1 0x3 DUP5 MSTORE KECCAK256 SLOAD SWAP1 MLOAD SWAP1 DUP2 MSTORE RETURN JUMPDEST PUSH1 0x84 SWAP1 PUSH1 0x20 DUP6 MLOAD SWAP2 PUSH3 0x461BCD PUSH1 0xE5 SHL DUP4 MSTORE DUP3 ADD MSTORE PUSH1 0x29 PUSH1 0x24 DUP3 ADD MSTORE PUSH32 0x4552433732313A2061646472657373207A65726F206973206E6F742061207661 PUSH1 0x44 DUP3 ADD MSTORE PUSH9 0x3634B21037BBB732B9 PUSH1 0xB9 SHL PUSH1 0x64 DUP3 ADD MSTORE REVERT JUMPDEST POP POP CALLVALUE PUSH2 0x112 JUMPI DUP2 PUSH1 0x3 NOT CALLDATASIZE ADD SLT PUSH2 0x112 JUMPI DUP1 MLOAD SWAP1 DUP3 PUSH1 0x9 SLOAD PUSH2 0x660 DUP2 PUSH2 0xF1F JUMP JUMPDEST DUP1 DUP6 MSTORE SWAP2 PUSH1 0x1 SWAP2 DUP1 DUP4 AND SWAP1 DUP2 ISZERO PUSH2 0x223 JUMPI POP PUSH1 0x1 EQ PUSH2 0x68B JUMPI POP POP POP PUSH2 0x1B0 DUP3 PUSH2 0x1C2 SWAP5 SUB DUP4 PUSH2 0xF8B JUMP JUMPDEST SWAP5 POP PUSH1 0x9 DUP6 MSTORE PUSH32 0x6E1540171B6C0C960B71A7020D9F60077F6AF931A8BBF590DA0223DACF75C7AF JUMPDEST DUP3 DUP7 LT PUSH2 0x6D0 JUMPI POP POP POP PUSH2 0x1B0 DUP3 PUSH1 0x20 PUSH2 0x1C2 SWAP6 DUP3 ADD ADD SWAP5 PUSH2 0x19E JUMP JUMPDEST DUP1 SLOAD PUSH1 0x20 DUP8 DUP8 ADD DUP2 ADD SWAP2 SWAP1 SWAP2 MSTORE SWAP1 SWAP6 ADD SWAP5 DUP2 ADD PUSH2 0x6B3 JUMP JUMPDEST DUP4 DUP4 CALLVALUE PUSH2 0x112 JUMPI PUSH1 0x20 SWAP1 DUP2 PUSH1 0x3 NOT CALLDATASIZE ADD SLT PUSH2 0x356 JUMPI PUSH2 0x705 PUSH2 0xEB9 JUMP JUMPDEST PUSH1 0x8 SLOAD PUSH1 0x1 PUSH1 0x1 PUSH1 0xA0 SHL SUB SWAP3 SWAP2 SWAP1 DUP4 AND CALLER SUB PUSH2 0xAF3 JUMPI PUSH1 0x7 SLOAD SWAP3 DUP3 MLOAD SWAP1 PUSH2 0x72B DUP3 PUSH2 0xF59 JUMP JUMPDEST DUP7 DUP3 MSTORE DUP3 AND SWAP2 DUP3 ISZERO PUSH2 0xAB2 JUMPI PUSH2 0x7EB SWAP2 DUP6 PUSH2 0x402 SWAP3 PUSH2 0x768 PUSH2 0x762 DUP4 PUSH1 0x0 MSTORE PUSH1 0x2 PUSH1 0x20 MSTORE PUSH1 0x1 DUP1 PUSH1 0xA0 SHL SUB PUSH1 0x40 PUSH1 0x0 KECCAK256 SLOAD AND ISZERO ISZERO SWAP1 JUMP JUMPDEST ISZERO PUSH2 0x14F6 JUMP JUMPDEST PUSH1 0x0 DUP3 DUP2 MSTORE PUSH1 0x2 PUSH1 0x20 MSTORE PUSH1 0x40 SWAP1 KECCAK256 SLOAD PUSH2 0x78B SWAP1 PUSH1 0x1 PUSH1 0x1 PUSH1 0xA0 SHL SUB AND ISZERO ISZERO PUSH2 0x762 JUMP JUMPDEST DUP6 DUP11 MSTORE PUSH1 0x3 DUP10 MSTORE DUP2 DUP8 DUP12 KECCAK256 SWAP7 PUSH1 0x1 SWAP8 DUP9 DUP2 SLOAD ADD SWAP1 SSTORE DUP2 DUP13 MSTORE PUSH1 0x2 DUP12 MSTORE DUP9 DUP13 KECCAK256 DUP2 PUSH12 0xFFFFFFFFFFFFFFFFFFFFFFFF PUSH1 0xA0 SHL DUP3 SLOAD AND OR SWAP1 SSTORE DUP12 PUSH32 0xDDF252AD1BE2C89B69C2B068FC378DAA952BA7F163C4A11628F55A4DF523B3EF DUP2 DUP1 LOG4 PUSH2 0x1330 JUMP JUMPDEST PUSH2 0x7F4 DUP4 PUSH2 0x1542 JUMP JUMPDEST SWAP1 DUP3 MLOAD SWAP2 DUP3 DUP7 DUP9 PUSH1 0x9 SLOAD PUSH2 0x807 DUP2 PUSH2 0xF1F JUMP JUMPDEST SWAP1 DUP7 DUP2 AND SWAP1 DUP2 ISZERO PUSH2 0xA97 JUMPI POP PUSH1 0x1 EQ PUSH2 0xA3E JUMPI JUMPDEST POP SWAP1 DUP2 PUSH2 0x834 DUP6 PUSH1 0x5 SWAP6 SWAP5 PUSH2 0x84F SWAP8 MLOAD SWAP5 DUP6 SWAP3 ADD PUSH2 0xE71 JUMP JUMPDEST ADD PUSH5 0x173539B7B7 PUSH1 0xD9 SHL DUP2 MSTORE SUB PUSH1 0x1A NOT DUP2 ADD DUP6 MSTORE ADD DUP4 PUSH2 0xF8B JUMP JUMPDEST PUSH1 0x0 DUP5 DUP2 MSTORE PUSH1 0x2 PUSH1 0x20 MSTORE PUSH1 0x40 SWAP1 KECCAK256 SLOAD PUSH1 0x1 PUSH1 0x1 PUSH1 0xA0 SHL SUB AND ISZERO PUSH2 0x9E4 JUMPI DUP4 DUP7 MSTORE PUSH1 0x6 DUP6 MSTORE DUP3 DUP7 KECCAK256 SWAP2 DUP1 MLOAD SWAP8 PUSH8 0xFFFFFFFFFFFFFFFF DUP10 GT PUSH2 0x9D1 JUMPI POP PUSH2 0x894 DUP4 SLOAD PUSH2 0xF1F JUMP JUMPDEST PUSH1 0x1F DUP2 GT PUSH2 0x98B JUMPI JUMPDEST POP DUP6 SWAP1 PUSH1 0x1F DUP10 GT PUSH1 0x1 EQ PUSH2 0x90D JUMPI SWAP8 DUP1 SWAP3 DUP2 SWAP3 DUP10 SWAP11 PUSH32 0xF8E1A15ABA9398E019F0B49DF1A4FDE98EE17AE345CB5F6B5E2C27F5033E8CE7 SWAP11 SWAP5 PUSH2 0x902 JUMPI JUMPDEST POP POP SHL SWAP2 PUSH1 0x0 NOT SWAP1 PUSH1 0x3 SHL SHR NOT AND OR SWAP1 SSTORE JUMPDEST MLOAD SWAP1 DUP2 MSTORE LOG1 PUSH2 0x8FC PUSH1 0x7 SLOAD PUSH2 0x14D1 JUMP JUMPDEST PUSH1 0x7 SSTORE DUP1 RETURN JUMPDEST ADD MLOAD SWAP3 POP DUP11 DUP1 PUSH2 0x8DA JUMP JUMPDEST DUP4 DUP9 MSTORE DUP7 DUP9 KECCAK256 SWAP1 SWAP9 SWAP2 PUSH1 0x1F NOT DUP4 AND DUP10 JUMPDEST DUP2 DUP2 LT PUSH2 0x976 JUMPI POP SWAP10 DUP4 PUSH32 0xF8E1A15ABA9398E019F0B49DF1A4FDE98EE17AE345CB5F6B5E2C27F5033E8CE7 SWAP11 SWAP12 LT PUSH2 0x95D JUMPI JUMPDEST POP POP POP DUP2 SHL ADD SWAP1 SSTORE PUSH2 0x8EC JUMP JUMPDEST ADD MLOAD PUSH1 0x0 NOT PUSH1 0xF8 DUP5 PUSH1 0x3 SHL AND SHR NOT AND SWAP1 SSTORE DUP9 DUP1 DUP1 PUSH2 0x950 JUMP JUMPDEST DUP12 DUP4 ADD MLOAD DUP5 SSTORE SWAP3 DUP6 ADD SWAP3 SWAP2 DUP10 ADD SWAP2 DUP10 ADD PUSH2 0x91D JUMP JUMPDEST DUP4 DUP9 MSTORE DUP7 DUP9 KECCAK256 PUSH1 0x1F DUP11 ADD PUSH1 0x5 SHR DUP2 ADD SWAP2 DUP9 DUP12 LT PUSH2 0x9C7 JUMPI JUMPDEST PUSH1 0x1F ADD PUSH1 0x5 SHR ADD SWAP1 DUP4 SWAP1 JUMPDEST DUP3 DUP2 LT PUSH2 0x9BC JUMPI POP POP PUSH2 0x89D JUMP JUMPDEST DUP10 DUP2 SSTORE ADD DUP4 SWAP1 PUSH2 0x9AE JUMP JUMPDEST SWAP1 SWAP2 POP DUP2 SWAP1 PUSH2 0x9A3 JUMP JUMPDEST PUSH4 0x4E487B71 PUSH1 0xE0 SHL DUP9 MSTORE PUSH1 0x41 SWAP1 MSTORE PUSH1 0x24 DUP8 REVERT JUMPDEST DUP3 MLOAD PUSH3 0x461BCD PUSH1 0xE5 SHL DUP2 MSTORE DUP1 DUP9 ADD DUP7 SWAP1 MSTORE PUSH1 0x2E PUSH1 0x24 DUP3 ADD MSTORE PUSH32 0x45524337323155524953746F726167653A2055524920736574206F66206E6F6E PUSH1 0x44 DUP3 ADD MSTORE PUSH14 0x32BC34B9BA32B73A103A37B5B2B7 PUSH1 0x91 SHL PUSH1 0x64 DUP3 ADD MSTORE PUSH1 0x84 SWAP1 REVERT JUMPDEST PUSH1 0x9 DUP12 MSTORE SWAP1 POP DUP10 DUP6 PUSH32 0x6E1540171B6C0C960B71A7020D9F60077F6AF931A8BBF590DA0223DACF75C7AF JUMPDEST DUP4 DUP4 LT PUSH2 0xA7E JUMPI POP POP POP DUP3 ADD DUP2 ADD PUSH2 0x84F PUSH2 0x81B JUMP JUMPDEST DUP1 SLOAD DUP10 DUP5 ADD DUP7 ADD MSTORE DUP9 SWAP6 POP DUP12 SWAP5 SWAP1 SWAP3 ADD SWAP2 DUP8 SWAP2 ADD PUSH2 0xA68 JUMP JUMPDEST PUSH1 0xFF NOT AND DUP6 DUP6 ADD MSTORE POP DUP1 ISZERO ISZERO MUL DUP4 ADD DUP3 ADD SWAP1 POP PUSH2 0x84F PUSH2 0x81B JUMP JUMPDEST PUSH1 0x64 DUP9 DUP8 DUP1 DUP8 MLOAD SWAP3 PUSH3 0x461BCD PUSH1 0xE5 SHL DUP5 MSTORE DUP4 ADD MSTORE PUSH1 0x24 DUP3 ADD MSTORE PUSH32 0x4552433732313A206D696E7420746F20746865207A65726F2061646472657373 PUSH1 0x44 DUP3 ADD MSTORE REVERT JUMPDEST DUP2 MLOAD PUSH3 0x461BCD PUSH1 0xE5 SHL DUP2 MSTORE DUP1 DUP8 ADD DUP6 SWAP1 MSTORE PUSH1 0x13 PUSH1 0x24 DUP3 ADD MSTORE PUSH19 0x1BDB9B1E4818591B5A5B8818D85B881B5A5B9D PUSH1 0x6A SHL PUSH1 0x44 DUP3 ADD MSTORE PUSH1 0x64 SWAP1 REVERT JUMPDEST DUP3 DUP5 CALLVALUE PUSH2 0x40A JUMPI PUSH1 0x20 CALLDATASIZE PUSH1 0x3 NOT ADD SLT PUSH2 0x40A JUMPI POP PUSH2 0xB4C PUSH1 0x20 SWAP3 CALLDATALOAD PUSH2 0x1015 JUMP JUMPDEST SWAP1 MLOAD PUSH1 0x1 PUSH1 0x1 PUSH1 0xA0 SHL SUB SWAP1 SWAP2 AND DUP2 MSTORE RETURN JUMPDEST POP POP CALLVALUE PUSH2 0x112 JUMPI PUSH2 0x402 PUSH2 0x407 SWAP2 PUSH2 0xB74 CALLDATASIZE PUSH2 0xEEA JUMP JUMPDEST SWAP2 SWAP3 MLOAD SWAP3 PUSH2 0xB81 DUP5 PUSH2 0xF59 JUMP JUMPDEST DUP7 DUP5 MSTORE PUSH2 0x3F2 PUSH2 0x3ED DUP5 CALLER PUSH2 0x1152 JUMP JUMPDEST DUP4 CALLVALUE PUSH2 0x40A JUMPI PUSH2 0x407 PUSH2 0xBA3 CALLDATASIZE PUSH2 0xEEA JUMP JUMPDEST SWAP2 PUSH2 0xBB1 PUSH2 0x3ED DUP5 CALLER PUSH2 0x1152 JUMP JUMPDEST PUSH2 0x121A JUMP JUMPDEST SWAP1 POP CALLVALUE PUSH2 0x356 JUMPI DUP2 PUSH1 0x3 NOT CALLDATASIZE ADD SLT PUSH2 0x356 JUMPI PUSH2 0xBD0 PUSH2 0xEB9 JUMP JUMPDEST PUSH1 0x24 CALLDATALOAD SWAP3 SWAP1 SWAP2 PUSH1 0x1 PUSH1 0x1 PUSH1 0xA0 SHL SUB SWAP2 SWAP1 DUP3 DUP1 PUSH2 0xBEB DUP8 PUSH2 0x1015 JUMP JUMPDEST AND SWAP5 AND SWAP4 DUP1 DUP6 EQ PUSH2 0xCD7 JUMPI DUP1 CALLER EQ SWAP1 DUP2 ISZERO PUSH2 0xCB8 JUMPI JUMPDEST POP ISZERO PUSH2 0xC50 JUMPI DUP5 DUP7 MSTORE PUSH1 0x20 MSTORE DUP5 KECCAK256 DUP1 SLOAD PUSH1 0x1 PUSH1 0x1 PUSH1 0xA0 SHL SUB NOT AND DUP4 OR SWAP1 SSTORE PUSH2 0xC28 DUP4 PUSH2 0x1015 JUMP JUMPDEST AND PUSH32 0x8C5BE1E5EBEC7D5BD14F71427D1E84F3DD0314C0F7B2291E5B200AC8C7C3B925 DUP5 DUP1 LOG4 DUP1 RETURN JUMPDEST PUSH1 0x20 PUSH1 0x84 SWAP3 MLOAD SWAP2 PUSH3 0x461BCD PUSH1 0xE5 SHL DUP4 MSTORE DUP3 ADD MSTORE PUSH1 0x3D PUSH1 0x24 DUP3 ADD MSTORE PUSH32 0x4552433732313A20617070726F76652063616C6C6572206973206E6F7420746F PUSH1 0x44 DUP3 ADD MSTORE PUSH32 0x6B656E206F776E6572206F7220617070726F76656420666F7220616C6C000000 PUSH1 0x64 DUP3 ADD MSTORE REVERT JUMPDEST SWAP1 POP DUP7 MSTORE PUSH1 0x5 PUSH1 0x20 MSTORE DUP2 DUP7 KECCAK256 CALLER DUP8 MSTORE PUSH1 0x20 MSTORE PUSH1 0xFF DUP3 DUP8 KECCAK256 SLOAD AND CODESIZE PUSH2 0xC01 JUMP JUMPDEST POP PUSH1 0x20 PUSH1 0x84 SWAP3 MLOAD SWAP2 PUSH3 0x461BCD PUSH1 0xE5 SHL DUP4 MSTORE DUP3 ADD MSTORE PUSH1 0x21 PUSH1 0x24 DUP3 ADD MSTORE PUSH32 0x4552433732313A20617070726F76616C20746F2063757272656E74206F776E65 PUSH1 0x44 DUP3 ADD MSTORE PUSH1 0x39 PUSH1 0xF9 SHL PUSH1 0x64 DUP3 ADD MSTORE REVERT JUMPDEST DUP3 DUP5 CALLVALUE PUSH2 0x40A JUMPI PUSH1 0x20 CALLDATASIZE PUSH1 0x3 NOT ADD SLT PUSH2 0x40A JUMPI POP PUSH2 0xB4C PUSH1 0x20 SWAP3 CALLDATALOAD PUSH2 0x103B JUMP JUMPDEST POP POP CALLVALUE PUSH2 0x112 JUMPI DUP2 PUSH1 0x3 NOT CALLDATASIZE ADD SLT PUSH2 0x112 JUMPI DUP1 MLOAD SWAP1 DUP3 DUP1 SLOAD PUSH2 0xD65 DUP2 PUSH2 0xF1F JUMP JUMPDEST DUP1 DUP6 MSTORE SWAP2 PUSH1 0x1 SWAP2 DUP1 DUP4 AND SWAP1 DUP2 ISZERO PUSH2 0x223 JUMPI POP PUSH1 0x1 EQ PUSH2 0xD90 JUMPI POP POP POP PUSH2 0x1B0 DUP3 PUSH2 0x1C2 SWAP5 SUB DUP4 PUSH2 0xF8B JUMP JUMPDEST DUP1 DUP1 SWAP7 POP MSTORE PUSH32 0x290DECD9548B62A8D60345A988386FC84BA6BC95484008F6362F93160EF3E563 JUMPDEST DUP3 DUP7 LT PUSH2 0xDD4 JUMPI POP POP POP PUSH2 0x1B0 DUP3 PUSH1 0x20 PUSH2 0x1C2 SWAP6 DUP3 ADD ADD SWAP5 PUSH2 0x19E JUMP JUMPDEST DUP1 SLOAD PUSH1 0x20 DUP8 DUP8 ADD DUP2 ADD SWAP2 SWAP1 SWAP2 MSTORE SWAP1 SWAP6 ADD SWAP5 DUP2 ADD PUSH2 0xDB7 JUMP JUMPDEST DUP5 SWAP2 CALLVALUE PUSH2 0x356 JUMPI PUSH1 0x20 CALLDATASIZE PUSH1 0x3 NOT ADD SLT PUSH2 0x356 JUMPI CALLDATALOAD PUSH4 0xFFFFFFFF PUSH1 0xE0 SHL DUP2 AND DUP1 SWAP2 SUB PUSH2 0x356 JUMPI PUSH1 0x20 SWAP3 POP PUSH4 0x24832483 PUSH1 0xE1 SHL DUP2 EQ SWAP1 DUP2 ISZERO PUSH2 0xE2E JUMPI JUMPDEST POP ISZERO ISZERO DUP2 MSTORE RETURN JUMPDEST PUSH4 0x80AC58CD PUSH1 0xE0 SHL DUP2 EQ SWAP2 POP DUP2 ISZERO PUSH2 0xE60 JUMPI JUMPDEST DUP2 ISZERO PUSH2 0xE4F JUMPI JUMPDEST POP DUP4 PUSH2 0xE27 JUMP JUMPDEST PUSH4 0x1FFC9A7 PUSH1 0xE0 SHL EQ SWAP1 POP DUP4 PUSH2 0xE48 JUMP JUMPDEST PUSH4 0x5B5E139F PUSH1 0xE0 SHL DUP2 EQ SWAP2 POP PUSH2 0xE41 JUMP JUMPDEST PUSH1 0x0 JUMPDEST DUP4 DUP2 LT PUSH2 0xE84 JUMPI POP POP PUSH1 0x0 SWAP2 ADD MSTORE JUMP JUMPDEST DUP2 DUP2 ADD MLOAD DUP4 DUP3 ADD MSTORE PUSH1 0x20 ADD PUSH2 0xE74 JUMP JUMPDEST SWAP1 PUSH1 0x20 SWAP2 PUSH2 0xEAD DUP2 MLOAD DUP1 SWAP3 DUP2 DUP6 MSTORE DUP6 DUP1 DUP7 ADD SWAP2 ADD PUSH2 0xE71 JUMP JUMPDEST PUSH1 0x1F ADD PUSH1 0x1F NOT AND ADD ADD SWAP1 JUMP JUMPDEST PUSH1 0x4 CALLDATALOAD SWAP1 PUSH1 0x1 PUSH1 0x1 PUSH1 0xA0 SHL SUB DUP3 AND DUP3 SUB PUSH2 0xECF JUMPI JUMP JUMPDEST PUSH1 0x0 DUP1 REVERT JUMPDEST PUSH1 0x24 CALLDATALOAD SWAP1 PUSH1 0x1 PUSH1 0x1 PUSH1 0xA0 SHL SUB DUP3 AND DUP3 SUB PUSH2 0xECF JUMPI JUMP JUMPDEST PUSH1 0x60 SWAP1 PUSH1 0x3 NOT ADD SLT PUSH2 0xECF JUMPI PUSH1 0x1 PUSH1 0x1 PUSH1 0xA0 SHL SUB SWAP1 PUSH1 0x4 CALLDATALOAD DUP3 DUP2 AND DUP2 SUB PUSH2 0xECF JUMPI SWAP2 PUSH1 0x24 CALLDATALOAD SWAP1 DUP2 AND DUP2 SUB PUSH2 0xECF JUMPI SWAP1 PUSH1 0x44 CALLDATALOAD SWAP1 JUMP JUMPDEST SWAP1 PUSH1 0x1 DUP3 DUP2 SHR SWAP3 AND DUP1 ISZERO PUSH2 0xF4F JUMPI JUMPDEST PUSH1 0x20 DUP4 LT EQ PUSH2 0xF39 JUMPI JUMP JUMPDEST PUSH4 0x4E487B71 PUSH1 0xE0 SHL PUSH1 0x0 MSTORE PUSH1 0x22 PUSH1 0x4 MSTORE PUSH1 0x24 PUSH1 0x0 REVERT JUMPDEST SWAP2 PUSH1 0x7F AND SWAP2 PUSH2 0xF2E JUMP JUMPDEST PUSH1 0x20 DUP2 ADD SWAP1 DUP2 LT PUSH8 0xFFFFFFFFFFFFFFFF DUP3 GT OR PUSH2 0xF75 JUMPI PUSH1 0x40 MSTORE JUMP JUMPDEST PUSH4 0x4E487B71 PUSH1 0xE0 SHL PUSH1 0x0 MSTORE PUSH1 0x41 PUSH1 0x4 MSTORE PUSH1 0x24 PUSH1 0x0 REVERT JUMPDEST SWAP1 PUSH1 0x1F DUP1 NOT SWAP2 ADD AND DUP2 ADD SWAP1 DUP2 LT PUSH8 0xFFFFFFFFFFFFFFFF DUP3 GT OR PUSH2 0xF75 JUMPI PUSH1 0x40 MSTORE JUMP JUMPDEST PUSH8 0xFFFFFFFFFFFFFFFF DUP2 GT PUSH2 0xF75 JUMPI PUSH1 0x1F ADD PUSH1 0x1F NOT AND PUSH1 0x20 ADD SWAP1 JUMP JUMPDEST ISZERO PUSH2 0xFD0 JUMPI JUMP JUMPDEST PUSH1 0x40 MLOAD PUSH3 0x461BCD PUSH1 0xE5 SHL DUP2 MSTORE PUSH1 0x20 PUSH1 0x4 DUP3 ADD MSTORE PUSH1 0x18 PUSH1 0x24 DUP3 ADD MSTORE PUSH32 0x4552433732313A20696E76616C696420746F6B656E2049440000000000000000 PUSH1 0x44 DUP3 ADD MSTORE PUSH1 0x64 SWAP1 REVERT JUMPDEST PUSH1 0x0 SWAP1 DUP2 MSTORE PUSH1 0x2 PUSH1 0x20 MSTORE PUSH1 0x40 SWAP1 KECCAK256 SLOAD PUSH1 0x1 PUSH1 0x1 PUSH1 0xA0 SHL SUB AND PUSH2 0x1038 DUP2 ISZERO ISZERO PUSH2 0xFC9 JUMP JUMPDEST SWAP1 JUMP JUMPDEST PUSH1 0x0 DUP2 DUP2 MSTORE PUSH1 0x2 PUSH1 0x20 MSTORE PUSH1 0x40 SWAP1 KECCAK256 SLOAD PUSH2 0x105E SWAP1 PUSH1 0x1 PUSH1 0x1 PUSH1 0xA0 SHL SUB AND ISZERO ISZERO PUSH2 0xFC9 JUMP JUMPDEST PUSH1 0x0 SWAP1 DUP2 MSTORE PUSH1 0x4 PUSH1 0x20 MSTORE PUSH1 0x40 SWAP1 KECCAK256 SLOAD PUSH1 0x1 PUSH1 0x1 PUSH1 0xA0 SHL SUB AND SWAP1 JUMP JUMPDEST ISZERO PUSH2 0x1080 JUMPI JUMP JUMPDEST PUSH1 0x40 MLOAD PUSH3 0x461BCD PUSH1 0xE5 SHL DUP2 MSTORE PUSH1 0x20 PUSH1 0x4 DUP3 ADD MSTORE PUSH1 0x2D PUSH1 0x24 DUP3 ADD MSTORE PUSH32 0x4552433732313A2063616C6C6572206973206E6F7420746F6B656E206F776E65 PUSH1 0x44 DUP3 ADD MSTORE PUSH13 0x1C881BDC88185C1C1C9BDD9959 PUSH1 0x9A SHL PUSH1 0x64 DUP3 ADD MSTORE PUSH1 0x84 SWAP1 REVERT JUMPDEST PUSH1 0x80 SWAP1 PUSH1 0x20 DUP2 MSTORE PUSH1 0x32 PUSH1 0x20 DUP3 ADD MSTORE PUSH32 0x4552433732313A207472616E7366657220746F206E6F6E204552433732315265 PUSH1 0x40 DUP3 ADD MSTORE PUSH18 0x31B2B4BB32B91034B6B83632B6B2B73A32B9 PUSH1 0x71 SHL PUSH1 0x60 DUP3 ADD MSTORE ADD SWAP1 JUMP JUMPDEST ISZERO PUSH2 0x1135 JUMPI JUMP JUMPDEST PUSH1 0x40 MLOAD PUSH3 0x461BCD PUSH1 0xE5 SHL DUP2 MSTORE DUP1 PUSH2 0x114E PUSH1 0x4 DUP3 ADD PUSH2 0x10DB JUMP JUMPDEST SUB SWAP1 REVERT JUMPDEST SWAP1 PUSH1 0x1 PUSH1 0x1 PUSH1 0xA0 SHL SUB DUP1 DUP1 PUSH2 0x1166 DUP5 PUSH2 0x1015 JUMP JUMPDEST AND SWAP4 AND SWAP2 DUP4 DUP4 EQ SWAP4 DUP5 ISZERO PUSH2 0x1199 JUMPI JUMPDEST POP DUP4 ISZERO PUSH2 0x1183 JUMPI JUMPDEST POP POP POP SWAP1 JUMP JUMPDEST PUSH2 0x118F SWAP2 SWAP3 SWAP4 POP PUSH2 0x103B JUMP JUMPDEST AND EQ CODESIZE DUP1 DUP1 PUSH2 0x117D JUMP JUMPDEST SWAP1 SWAP4 POP PUSH1 0x0 MSTORE PUSH1 0x5 PUSH1 0x20 MSTORE PUSH1 0x40 PUSH1 0x0 KECCAK256 DUP3 PUSH1 0x0 MSTORE PUSH1 0x20 MSTORE PUSH1 0xFF PUSH1 0x40 PUSH1 0x0 KECCAK256 SLOAD AND SWAP3 CODESIZE PUSH2 0x1175 JUMP JUMPDEST ISZERO PUSH2 0x11C7 JUMPI JUMP JUMPDEST PUSH1 0x40 MLOAD PUSH3 0x461BCD PUSH1 0xE5 SHL DUP2 MSTORE PUSH1 0x20 PUSH1 0x4 DUP3 ADD MSTORE PUSH1 0x25 PUSH1 0x24 DUP3 ADD MSTORE PUSH32 0x4552433732313A207472616E736665722066726F6D20696E636F727265637420 PUSH1 0x44 DUP3 ADD MSTORE PUSH5 0x37BBB732B9 PUSH1 0xD9 SHL PUSH1 0x64 DUP3 ADD MSTORE PUSH1 0x84 SWAP1 REVERT JUMPDEST SWAP1 PUSH2 0x1242 SWAP2 PUSH2 0x1228 DUP5 PUSH2 0x1015 JUMP JUMPDEST PUSH1 0x1 PUSH1 0x1 PUSH1 0xA0 SHL SUB SWAP4 SWAP2 DUP5 AND SWAP3 DUP5 SWAP3 SWAP1 SWAP2 DUP4 AND DUP5 EQ PUSH2 0x11C0 JUMP JUMPDEST AND SWAP2 DUP3 ISZERO PUSH2 0x12DF JUMPI DUP2 PUSH2 0x125F SWAP2 PUSH2 0x1258 DUP7 PUSH2 0x1015 JUMP JUMPDEST AND EQ PUSH2 0x11C0 JUMP JUMPDEST PUSH32 0xDDF252AD1BE2C89B69C2B068FC378DAA952BA7F163C4A11628F55A4DF523B3EF PUSH1 0x0 DUP5 DUP2 MSTORE PUSH1 0x4 PUSH1 0x20 MSTORE PUSH1 0x40 DUP2 KECCAK256 PUSH12 0xFFFFFFFFFFFFFFFFFFFFFFFF PUSH1 0xA0 SHL SWAP1 DUP2 DUP2 SLOAD AND SWAP1 SSTORE DUP4 DUP3 MSTORE PUSH1 0x3 PUSH1 0x20 MSTORE PUSH1 0x40 DUP3 KECCAK256 PUSH1 0x0 NOT DUP2 SLOAD ADD SWAP1 SSTORE DUP5 DUP3 MSTORE PUSH1 0x40 DUP3 KECCAK256 PUSH1 0x1 DUP2 SLOAD ADD SWAP1 SSTORE DUP6 DUP3 MSTORE PUSH1 0x2 PUSH1 0x20 MSTORE DUP5 PUSH1 0x40 DUP4 KECCAK256 SWAP2 DUP3 SLOAD AND OR SWAP1 SSTORE DUP1 LOG4 JUMP JUMPDEST PUSH1 0x40 MLOAD PUSH3 0x461BCD PUSH1 0xE5 SHL DUP2 MSTORE PUSH1 0x20 PUSH1 0x4 DUP3 ADD MSTORE PUSH1 0x24 DUP1 DUP3 ADD MSTORE PUSH32 0x4552433732313A207472616E7366657220746F20746865207A65726F20616464 PUSH1 0x44 DUP3 ADD MSTORE PUSH4 0x72657373 PUSH1 0xE0 SHL PUSH1 0x64 DUP3 ADD MSTORE PUSH1 0x84 SWAP1 REVERT JUMPDEST SWAP2 SWAP3 SWAP1 SWAP2 DUP1 EXTCODESIZE ISZERO PUSH2 0x1441 JUMPI PUSH2 0x137D SWAP4 PUSH1 0x40 MLOAD SWAP1 DUP2 PUSH4 0xA85BD01 PUSH1 0xE1 SHL SWAP4 DUP5 DUP3 MSTORE CALLER PUSH1 0x4 DUP4 ADD MSTORE PUSH1 0x0 SWAP7 DUP8 PUSH1 0x24 DUP5 ADD MSTORE PUSH1 0x44 DUP4 ADD MSTORE PUSH1 0x80 PUSH1 0x64 DUP4 ADD MSTORE DUP2 DUP8 DUP2 PUSH1 0x20 SWAP11 DUP12 SWAP7 PUSH1 0x84 DUP4 ADD SWAP1 PUSH2 0xE94 JUMP JUMPDEST SUB SWAP3 PUSH1 0x1 PUSH1 0x1 PUSH1 0xA0 SHL SUB AND GAS CALL DUP5 SWAP2 DUP2 PUSH2 0x1401 JUMPI JUMPDEST POP PUSH2 0x13F0 JUMPI POP POP POP RETURNDATASIZE PUSH1 0x0 EQ PUSH2 0x13E8 JUMPI RETURNDATASIZE PUSH2 0x13AC DUP2 PUSH2 0xFAD JUMP JUMPDEST SWAP1 PUSH2 0x13BA PUSH1 0x40 MLOAD SWAP3 DUP4 PUSH2 0xF8B JUMP JUMPDEST DUP2 MSTORE DUP1 SWAP2 DUP4 RETURNDATASIZE SWAP3 ADD RETURNDATACOPY JUMPDEST DUP1 MLOAD SWAP2 DUP3 PUSH2 0x13E5 JUMPI PUSH1 0x40 MLOAD PUSH3 0x461BCD PUSH1 0xE5 SHL DUP2 MSTORE DUP1 PUSH2 0x114E PUSH1 0x4 DUP3 ADD PUSH2 0x10DB JUMP JUMPDEST ADD REVERT JUMPDEST POP PUSH1 0x60 PUSH2 0x13C4 JUMP JUMPDEST PUSH1 0x1 PUSH1 0x1 PUSH1 0xE0 SHL SUB NOT AND EQ SWAP3 POP SWAP1 POP JUMP JUMPDEST SWAP1 SWAP2 POP DUP6 DUP2 DUP2 RETURNDATASIZE DUP4 GT PUSH2 0x143A JUMPI JUMPDEST PUSH2 0x1419 DUP2 DUP4 PUSH2 0xF8B JUMP JUMPDEST DUP2 ADD SUB SLT PUSH2 0x4DD JUMPI MLOAD PUSH1 0x1 PUSH1 0x1 PUSH1 0xE0 SHL SUB NOT DUP2 AND DUP2 SUB PUSH2 0x4DD JUMPI SWAP1 CODESIZE PUSH2 0x1392 JUMP JUMPDEST POP RETURNDATASIZE PUSH2 0x140F JUMP JUMPDEST POP SWAP2 POP POP PUSH1 0x1 SWAP1 JUMP JUMPDEST SWAP3 SWAP4 SWAP2 SWAP1 DUP1 EXTCODESIZE ISZERO PUSH2 0x14C7 JUMPI PUSH2 0x149C SWAP5 PUSH1 0x40 MLOAD DUP1 SWAP3 PUSH4 0xA85BD01 PUSH1 0xE1 SHL SWAP5 DUP6 DUP4 MSTORE CALLER PUSH1 0x4 DUP5 ADD MSTORE PUSH1 0x1 DUP1 PUSH1 0xA0 SHL SUB DUP1 SWAP9 AND PUSH1 0x24 DUP5 ADD MSTORE PUSH1 0x44 DUP4 ADD MSTORE PUSH1 0x80 PUSH1 0x64 DUP4 ADD MSTORE DUP2 DUP1 PUSH1 0x20 SWAP10 DUP11 SWAP6 PUSH1 0x84 DUP4 ADD SWAP1 PUSH2 0xE94 JUMP JUMPDEST SUB SWAP2 PUSH1 0x0 SWAP9 DUP10 SWAP2 AND GAS CALL DUP5 SWAP2 DUP2 PUSH2 0x1401 JUMPI POP PUSH2 0x13F0 JUMPI POP POP POP RETURNDATASIZE PUSH1 0x0 EQ PUSH2 0x13E8 JUMPI RETURNDATASIZE PUSH2 0x13AC DUP2 PUSH2 0xFAD JUMP JUMPDEST POP POP SWAP2 POP POP PUSH1 0x1 SWAP1 JUMP JUMPDEST PUSH1 0x0 NOT DUP2 EQ PUSH2 0x14E0 JUMPI PUSH1 0x1 ADD SWAP1 JUMP JUMPDEST PUSH4 0x4E487B71 PUSH1 0xE0 SHL PUSH1 0x0 MSTORE PUSH1 0x11 PUSH1 0x4 MSTORE PUSH1 0x24 PUSH1 0x0 REVERT JUMPDEST ISZERO PUSH2 0x14FD JUMPI JUMP JUMPDEST PUSH1 0x40 MLOAD PUSH3 0x461BCD PUSH1 0xE5 SHL DUP2 MSTORE PUSH1 0x20 PUSH1 0x4 DUP3 ADD MSTORE PUSH1 0x1C PUSH1 0x24 DUP3 ADD MSTORE PUSH32 0x4552433732313A20746F6B656E20616C7265616479206D696E74656400000000 PUSH1 0x44 DUP3 ADD MSTORE PUSH1 0x64 SWAP1 REVERT JUMPDEST DUP1 ISZERO PUSH2 0x15FF JUMPI PUSH1 0x0 DUP2 DUP1 JUMPDEST PUSH2 0x15EB JUMPI POP PUSH2 0x155B DUP2 PUSH2 0xFAD JUMP JUMPDEST SWAP1 PUSH2 0x1569 PUSH1 0x40 MLOAD SWAP3 DUP4 PUSH2 0xF8B JUMP JUMPDEST DUP1 DUP3 MSTORE PUSH1 0x1F NOT PUSH2 0x1578 DUP3 PUSH2 0xFAD JUMP JUMPDEST ADD CALLDATASIZE PUSH1 0x20 DUP5 ADD CALLDATACOPY JUMPDEST DUP1 SWAP3 DUP1 ISZERO PUSH2 0x15E4 JUMPI PUSH1 0x0 NOT DUP3 ADD SWAP2 DUP3 GT PUSH2 0x14E0 JUMPI DUP2 SWAP4 PUSH1 0xA SWAP3 PUSH1 0x30 SWAP1 DUP5 DUP5 MOD DUP3 ADD DUP1 SWAP3 GT PUSH2 0x14E0 JUMPI DUP6 MLOAD GT ISZERO PUSH2 0x15CE JUMPI PUSH1 0xF8 SHL PUSH1 0x1 PUSH1 0x1 PUSH1 0xF8 SHL SUB NOT AND PUSH1 0x0 BYTE SWAP1 DUP5 ADD PUSH1 0x1F ADD MSTORE8 DIV SWAP2 PUSH2 0x1580 JUMP JUMPDEST PUSH4 0x4E487B71 PUSH1 0xE0 SHL PUSH1 0x0 MSTORE PUSH1 0x32 PUSH1 0x4 MSTORE PUSH1 0x24 PUSH1 0x0 REVERT JUMPDEST POP POP SWAP1 POP SWAP1 JUMP JUMPDEST SWAP1 PUSH2 0x15F7 PUSH1 0xA SWAP2 PUSH2 0x14D1 JUMP JUMPDEST SWAP2 DIV DUP1 PUSH2 0x154D JUMP JUMPDEST POP PUSH1 0x40 MLOAD PUSH1 0x40 DUP2 ADD DUP2 DUP2 LT PUSH8 0xFFFFFFFFFFFFFFFF DUP3 GT OR PUSH2 0xF75 JUMPI PUSH1 0x40 MSTORE PUSH1 0x1 DUP2 MSTORE PUSH1 0x3 PUSH1 0xFC SHL PUSH1 0x20 DUP3 ADD MSTORE SWAP1 JUMP INVALID LOG2 PUSH5 0x6970667358 0x22 SLT KECCAK256 LOG4 0x4B 0xFC DUP14 DUP12 0xC4 BLOCKHASH SMOD DUP8 JUMPDEST EXP 0xAF 0x4D 0xAF 0xB5 0xC9 PUSH5 0xCA430C21C0 0xAF SELFDESTRUCT RETURNDATACOPY PUSH14 0xA9E3D48B01AD64736F6C63430008 EQ STOP CALLER "},"gasEstimates":{"creation":{"codeDepositCost":"1146400","executionCost":"infinite","totalCost":"infinite"},"external":{"admin()":"2670","approve(address,uint256)":"infinite","balanceOf(address)":"2658","baseURI()":"infinite","collectionDescription()":"infinite","getApproved(uint256)":"4699","isApprovedForAll(address,address)":"2937","mint(address)":"infinite","name()":"infinite","nextTokenId()":"2500","ownerOf(uint256)":"2625","safeTransferFrom(address,address,uint256)":"infinite","safeTransferFrom(address,address,uint256,bytes)":"infinite","setApprovalForAll(address,bool)":"26721","supportsInterface(bytes4)":"397","symbol()":"infinite","tokenURI(uint256)":"infinite","transferFrom(address,address,uint256)":"infinite"},"internal":{"_toString(uint256)":"infinite"}},"methodIdentifiers":{"admin()":"f851a440","approve(address,uint256)":"095ea7b3","balanceOf(address)":"70a08231","baseURI()":"6c0360eb","collectionDescription()":"e2c6875c","getApproved(uint256)":"081812fc","isApprovedForAll(address,address)":"e985e9c5","mint(address)":"6a627842","name()":"06fdde03","nextTokenId()":"75794a3c","ownerOf(uint256)":"6352211e","safeTransferFrom(address,address,uint256)":"42842e0e","safeTransferFrom(address,address,uint256,bytes)":"b88d4fde","setApprovalForAll(address,bool)":"a22cb465","supportsInterface(bytes4)":"01ffc9a7","symbol()":"95d89b41","tokenURI(uint256)":"c87b56dd","transferFrom(address,address,uint256)":"23b872dd"}},"storageLayout":{"storage":[{"astId":921,"contract":"contracts/XnftyNFT.sol:XnftyNFT","label":"_name","offset":0,"slot":"0","type":"t_string_storage"},{"astId":923,"contract":"contracts/XnftyNFT.sol:XnftyNFT","label":"_symbol","offset":0,"slot":"1","type":"t_string_storage"},{"astId":927,"contract":"contracts/XnftyNFT.sol:XnftyNFT","label":"_owners","offset":0,"slot":"2","type":"t_mapping(t_uint256,t_address)"},{"astId":931,"contract":"contracts/XnftyNFT.sol:XnftyNFT","label":"_balances","offset":0,"slot":"3","type":"t_mapping(t_address,t_uint256)"},{"astId":935,"contract":"contracts/XnftyNFT.sol:XnftyNFT","label":"_tokenApprovals","offset":0,"slot":"4","type":"t_mapping(t_uint256,t_address)"},{"astId":941,"contract":"contracts/XnftyNFT.sol:XnftyNFT","label":"_operatorApprovals","offset":0,"slot":"5","type":"t_mapping(t_address,t_mapping(t_address,t_bool))"},{"astId":1972,"contract":"contracts/XnftyNFT.sol:XnftyNFT","label":"_tokenURIs","offset":0,"slot":"6","type":"t_mapping(t_uint256,t_string_storage)"},{"astId":4727,"contract":"contracts/XnftyNFT.sol:XnftyNFT","label":"nextTokenId","offset":0,"slot":"7","type":"t_uint256"},{"astId":4729,"contract":"contracts/XnftyNFT.sol:XnftyNFT","label":"admin","offset":0,"slot":"8","type":"t_address"},{"astId":4731,"contract":"contracts/XnftyNFT.sol:XnftyNFT","label":"baseURI","offset":0,"slot":"9","type":"t_string_storage"},{"astId":4733,"contract":"contracts/XnftyNFT.sol:XnftyNFT","label":"collectionDescription","offset":0,"slot":"10","type":"t_string_storage"}],"types":{"t_address":{"encoding":"inplace","label":"address","numberOfBytes":"20"},"t_bool":{"encoding":"inplace","label":"bool","numberOfBytes":"1"},"t_mapping(t_address,t_bool)":{"encoding":"mapping","key":"t_address","label":"mapping(address => bool)","numberOfBytes":"32","value":"t_bool"},"t_mapping(t_address,t_mapping(t_address,t_bool))":{"encoding":"mapping","key":"t_address","label":"mapping(address => mapping(address => bool))","numberOfBytes":"32","value":"t_mapping(t_address,t_bool)"},"t_mapping(t_address,t_uint256)":{"encoding":"mapping","key":"t_address","label":"mapping(address => uint256)","numberOfBytes":"32","value":"t_uint256"},"t_mapping(t_uint256,t_address)":{"encoding":"mapping","key":"t_uint256","label":"mapping(uint256 => address)","numberOfBytes":"32","value":"t_address"},"t_mapping(t_uint256,t_string_storage)":{"encoding":"mapping","key":"t_uint256","label":"mapping(uint256 => string)","numberOfBytes":"32","value":"t_string_storage"},"t_string_storage":{"encoding":"bytes","label":"string","numberOfBytes":"32"},"t_uint256":{"encoding":"inplace","label":"uint256","numberOfBytes":"32"}}},"userdoc":{"kind":"user","methods":{},"version":1}}}}