{
  "_format": "hh-sol-artifact-1",
  "contractName": "NFTFactoryView",
  "sourceName": "contracts/NFTFactoryView.sol",
  "abi": [
    {
      "inputs": [
        {
          "internalType": "address",
          "name": "_factory",
          "type": "address"
        }
      ],
      "stateMutability": "nonpayable",
      "type": "constructor"
    },
    {
      "inputs": [],
      "name": "factory",
      "outputs": [
        {
          "internalType": "contract NFTFactory",
          "name": "",
          "type": "address"
        }
      ],
      "stateMutability": "view",
      "type": "function"
    },
    {
      "inputs": [],
      "name": "getAllFractionalizedNFTs",
      "outputs": [
        {
          "components": [
            {
              "internalType": "uint256",
              "name": "collectionId",
              "type": "uint256"
            },
            {
              "internalType": "address",
              "name": "collectionAddress",
              "type": "address"
            },
            {
              "internalType": "uint256",
              "name": "tokenId",
              "type": "uint256"
            },
            {
              "internalType": "address",
              "name": "fractionalContract",
              "type": "address"
            },
            {
              "internalType": "uint256",
              "name": "userShares",
              "type": "uint256"
            },
            {
              "internalType": "uint256",
              "name": "totalShares",
              "type": "uint256"
            },
            {
              "internalType": "uint256",
              "name": "sharePercentage",
              "type": "uint256"
            },
            {
              "internalType": "string",
              "name": "metadataURI",
              "type": "string"
            },
            {
              "internalType": "bool",
              "name": "isOwner",
              "type": "bool"
            }
          ],
          "internalType": "struct NFTFactoryView.UserNFTInfo[]",
          "name": "",
          "type": "tuple[]"
        }
      ],
      "stateMutability": "view",
      "type": "function"
    },
    {
      "inputs": [
        {
          "internalType": "address",
          "name": "collectionAddress",
          "type": "address"
        }
      ],
      "name": "getCollectionNFTs",
      "outputs": [
        {
          "components": [
            {
              "internalType": "uint256",
              "name": "tokenId",
              "type": "uint256"
            },
            {
              "internalType": "address",
              "name": "fractionalContract",
              "type": "address"
            },
            {
              "internalType": "string",
              "name": "metadataURI",
              "type": "string"
            },
            {
              "internalType": "uint256",
              "name": "totalShares",
              "type": "uint256"
            },
            {
              "internalType": "address",
              "name": "currentOwner",
              "type": "address"
            },
            {
              "internalType": "uint256",
              "name": "sharePrice",
              "type": "uint256"
            },
            {
              "internalType": "bool",
              "name": "isfractionalized",
              "type": "bool"
            },
            {
              "internalType": "uint256",
              "name": "creationTime",
              "type": "uint256"
            }
          ],
          "internalType": "struct NFTFactoryView.NFTInfo[]",
          "name": "",
          "type": "tuple[]"
        }
      ],
      "stateMutability": "view",
      "type": "function"
    },
    {
      "inputs": [],
      "name": "getCollectionsWithNFTInfo",
      "outputs": [
        {
          "components": [
            {
              "internalType": "uint256",
              "name": "collectionId",
              "type": "uint256"
            },
            {
              "internalType": "string",
              "name": "metadataURI",
              "type": "string"
            },
            {
              "internalType": "address",
              "name": "collectionAddress",
              "type": "address"
            },
            {
              "internalType": "address",
              "name": "owner",
              "type": "address"
            },
            {
              "internalType": "uint256",
              "name": "creationTime",
              "type": "uint256"
            },
            {
              "internalType": "uint256",
              "name": "nftCount",
              "type": "uint256"
            },
            {
              "internalType": "uint256",
              "name": "fractionalizedCount",
              "type": "uint256"
            }
          ],
          "internalType": "struct NFTFactoryView.CollectionNFTInfo[]",
          "name": "",
          "type": "tuple[]"
        }
      ],
      "stateMutability": "view",
      "type": "function"
    },
    {
      "inputs": [
        {
          "internalType": "address",
          "name": "user",
          "type": "address"
        }
      ],
      "name": "getCollectionsWithUserShares",
      "outputs": [
        {
          "components": [
            {
              "internalType": "uint256",
              "name": "collectionId",
              "type": "uint256"
            },
            {
              "internalType": "string",
              "name": "metadataURI",
              "type": "string"
            },
            {
              "internalType": "address",
              "name": "collectionAddress",
              "type": "address"
            },
            {
              "internalType": "address",
              "name": "owner",
              "type": "address"
            },
            {
              "internalType": "uint256",
              "name": "creationTime",
              "type": "uint256"
            }
          ],
          "internalType": "struct NFTFactory.CollectionInfo[]",
          "name": "",
          "type": "tuple[]"
        }
      ],
      "stateMutability": "view",
      "type": "function"
    },
    {
      "inputs": [
        {
          "internalType": "address",
          "name": "user",
          "type": "address"
        }
      ],
      "name": "getUserNFTShares",
      "outputs": [
        {
          "components": [
            {
              "internalType": "uint256",
              "name": "collectionId",
              "type": "uint256"
            },
            {
              "internalType": "address",
              "name": "collectionAddress",
              "type": "address"
            },
            {
              "internalType": "uint256",
              "name": "tokenId",
              "type": "uint256"
            },
            {
              "internalType": "address",
              "name": "fractionalContract",
              "type": "address"
            },
            {
              "internalType": "uint256",
              "name": "userShares",
              "type": "uint256"
            },
            {
              "internalType": "uint256",
              "name": "totalShares",
              "type": "uint256"
            },
            {
              "internalType": "uint256",
              "name": "sharePercentage",
              "type": "uint256"
            },
            {
              "internalType": "string",
              "name": "metadataURI",
              "type": "string"
            },
            {
              "internalType": "bool",
              "name": "isOwner",
              "type": "bool"
            }
          ],
          "internalType": "struct NFTFactoryView.UserNFTInfo[]",
          "name": "",
          "type": "tuple[]"
        }
      ],
      "stateMutability": "view",
      "type": "function"
    }
  ],
  "bytecode": "0x60a0346100a357601f611fb138819003918201601f19168301916001600160401b038311848410176100a8578084926020946040528339810103126100a357516001600160a01b038116908190036100a357608052604051611ef290816100bf823960805181818160870152818161020801528181610266015281816107040152818161076a01528181610c0e01528181610e1901528181610e76015261136a0152f35b600080fd5b634e487b7160e01b600052604160045260246000fdfe608080604052600436101561001357600080fd5b60003560e01c908163402cca751461133f575080634765f4ea14610bd55780635ffab08814610733578063c45a0155146106ee578063c5864c3c146106095763f447d2b11461006157600080fd5b346104ba5760003660031901126104ba5760405163380a49af60e11b81526000816004817f00000000000000000000000000000000000000000000000000000000000000006001600160a01b03165afa90811561057f576000916105e6575b506000805b82518110156101b757600460006001600160a01b036100e48487611a0c565b51166040519283809263e0391b0960e01b82525afa60009181610192575b50610117575b50610112906119fd565b6100c5565b91909260005b83518110156101855760806101328286611a0c565b510151151580610165575b610150575b61014b906119fd565b61011d565b9161015d61014b916119fd565b929050610142565b506001600160a01b03606061017a8387611a0c565b51015116151561013d565b5092909150610112610108565b6101b09192503d806000833e6101a88183611865565b810190611905565b9038610102565b50906101c282611d95565b91600080935b83518510806105dd575b156105c9576001600160a01b036101e98686611a0c565b511660009460005b604051631c10106f60e01b815260209081816004817f00000000000000000000000000000000000000000000000000000000000000006001600160a01b03165afa91821561057f5760009261059b575b505081101561058b57604051630b43e78560e31b8152600481018290526000816024817f00000000000000000000000000000000000000000000000000000000000000006001600160a01b03165afa90811561057f5760009161055c575b50604001516001600160a01b03908116906102ba8a85611a0c565b5116146102cf576102ca906119fd565b6101f1565b6004919650600090979397925b60405163e0391b0960e01b815292839182905afa6000918161053f575b50610310575b505061030a906119fd565b936101c8565b90919592939460005b8251811080610536575b156105235760806103348285611a0c565b510151151580610503575b610352575b61034d906119fd565b610319565b94600090600460206001600160a01b03606061036e8b89611a0c565b5101511660405192838092636a80179760e11b82525afa600091816104cf575b506104c7575b50600460206001600160a01b0360606103ad8b89611a0c565b5101511660405192838092638da5cb5b60e01b82525afa61047f575b5061034d9161047791906001600160a01b036103e58c87611a0c565b5116906103f28a88611a0c565b5151906001600160a01b0360606104098d8b611a0c565b5101511660206104198d8b611a0c565b510151926040519461042a86611812565b8b86526020860152604085015260608401526000608084015260a0830152600060c083015260e082015260006101008201526104668289611a0c565b526104718188611a0c565b506119fd565b959050610344565b906020823d6020116104bf575b8161049960209383611865565b810103126104ba5761034d926104b1610477936118f1565b509250906103c9565b600080fd5b3d915061048c565b915038610394565b9091506020813d6020116104fb575b816104eb60209383611865565b810103126104ba5751903861038e565b3d91506104de565b506001600160a01b0360606105188386611a0c565b51015116151561033f565b5094939295905061030a915090386102ff565b50868610610323565b6105559192503d806000833e6101a88183611865565b90386102f9565b61057991503d806000833e6105718183611865565b810190611e97565b3861029f565b6040513d6000823e3d90fd5b50949060006004919793976102dc565b90809250813d83116105c2575b6105b28183611865565b810103126104ba57513880610241565b503d6105a8565b6105d99060405191829182611716565b0390f35b508282106101d2565b61060391503d806000833e6105fb8183611865565b810190611d14565b386100c0565b346104ba576020806003193601126104ba576001600160a01b039060043582811681036104ba5761063990611a36565b60405191808301818452825180915260408401918060408360051b8701019401926000965b83881061066b5786860387f35b90919293948380600192603f198a8203018652885190815181528583830151168382015260e0806106ab60408501516101008060408701528501906116f1565b936060808201519085015260808981830151169085015260a0808201519085015260c080820151151590850152015191015297019301970196909392919361065e565b346104ba5760003660031901126104ba576040517f00000000000000000000000000000000000000000000000000000000000000006001600160a01b03168152602090f35b346104ba576020806003193601126104ba576001600160a01b03600435818116908190036104ba5760405163380a49af60e11b81527f00000000000000000000000000000000000000000000000000000000000000008316929091600083600481875afa92831561057f57600093610bb8575b506000918351936107d56107b986611886565b956107c76040519788611865565b808752601f19918291611886565b01368988013760005b82518110156109735760046000856107f68487611a0c565b51166040519283809263e0391b0960e01b82525afa60009181610956575b50610829575b50610824906119fd565b6107de565b98939260009891985b8a5181101561094757808686608061084b8f9586611a0c565b51015115158061092e575b61086c575b505061086791506119fd565b610832565b606061087b8460249596611a0c565b5101511660405192838092636f34d9d560e11b82528c60048301525afa600091816108ff575b506108b1575b508a90868661085b565b6108bb578b6108a7565b5092939850966108cb8188611a0c565b51156108dd575b610824905b9061081a565b946108f76108249160016108f1898b611a0c565b526119fd565b9590506108d2565b9091508781813d8311610927575b6109178183611865565b810103126104ba5751908d6108a1565b503d61090d565b5080606061093c8587611a0c565b510151161515610856565b509293985096610824906108d7565b61096c9192503d806000833e6101a88183611865565b908b610814565b50939590925061098286611886565b936109906040519586611865565b86855261099c87611886565b018760005b828110610b815750505060009460005b8451811080610b78575b15610ae0576109ca8183611a0c565b516109de575b6109d9906119fd565b6109b1565b9660005b604051631c10106f60e01b81528a81600481885afa90811561057f57600091610ab3575b50811015610aa857604051630b43e78560e31b815260048101829052600081602481885afa90811561057f57600091610a8d575b508560408201511686610a4d8c8a611a0c565b511614610a635750610a5e906119fd565b6109e2565b610a849150976109d9929998610a79828a611a0c565b526104718189611a0c565b965b90506109d0565b610aa291503d806000833e6105718183611865565b8b610a3a565b50966109d990610a86565b90508a81813d8311610ad9575b610aca8183611865565b810103126104ba57518b610a06565b503d610ac0565b83898760405191808301818452825180915260408401918060408360051b8701019401926000965b838810610b155786860387f35b90919293948380600192603f198a820301865288519081518152610b458383015160a080868501528301906116f1565b91866040820151166040830152606087818301511690830152608080910151910152970193019701969093929193610b08565b508787106109bb565b604051610b8d8161182e565b60008152600060608085840152816040840152820152600060808201528282890101520188906109a1565b610bce9193503d806000833e6105fb8183611865565b91856107a6565b346104ba5760203660031901126104ba576004356001600160a01b03811681036104ba5760405163380a49af60e11b81526000816004817f00000000000000000000000000000000000000000000000000000000000000006001600160a01b03165afa90811561057f57600091611324575b506000805b8251811015610dc957600460006001600160a01b03610c6b8487611a0c565b51166040519283809263e0391b0960e01b82525afa60009181610dac575b50610c9e575b50610c99906119fd565b610c4c565b909260005b8251811015610da0576080610cb88285611a0c565b510151151580610d80575b610cd6575b610cd1906119fd565b610ca3565b602460206001600160a01b036060610cee8588611a0c565b510151604051636f34d9d560e11b81526001600160a01b038b16600482015293849290918391165afa60009181610d4c575b50610d2c575b50610cc8565b610d37575b86610d26565b92610d44610cd1916119fd565b939050610d31565b9091506020813d602011610d78575b81610d6860209383611865565b810103126104ba57519088610d20565b3d9150610d5b565b506001600160a01b036060610d958386611a0c565b510151161515610cc3565b50929050610c99610c8f565b610dc29192503d806000833e6101a88183611865565b9086610c89565b50610dd381611d95565b6000906000945b845186108061131b575b1561130d576001600160a01b03610dfb8787611a0c565b51169060009560005b604051631c10106f60e01b81526020816004817f00000000000000000000000000000000000000000000000000000000000000006001600160a01b03165afa90811561057f576000916112db575b508110156112cc57604051630b43e78560e31b8152600481018290526000816024817f00000000000000000000000000000000000000000000000000000000000000006001600160a01b03165afa90811561057f576000916112b1575b50604001516001600160a01b0390811690610eca8b85611a0c565b511614610edf57610eda906119fd565b610e04565b9197909650916004906000905b60405163e0391b0960e01b815292839182905afa60009181611294575b50610f20575b5050610f1a906119fd565b94610dda565b909293949560009792975b825181108061128b575b1561127a576080610f468285611a0c565b51015115158061125a575b610f64575b610f5f906119fd565b610f2b565b88602460206001600160a01b036060610f7d8689611a0c565b510151604051636f34d9d560e11b81526001600160a01b038a16600482015293849290918391165afa60009181611223575b50610fbc575b5050610f56565b8015610fb55790828793999260008091886000956004602060018060a01b036060610fe78a87611a0c565b5101511660405192838092636a80179760e11b82525afa600091816111e5575b5061116a575b50600460206001600160a01b0360606110268a87611a0c565b5101511660405192838092638da5cb5b60e01b82525afa6000918161110c575b5091610f5f9a979593916110ec9a999795936110f6575b506001600160a01b0390611071908d611a0c565b51169460206110a46110838385611a0c565b5151926001600160a01b03606061109a8388611a0c565b5101511694611a0c565b51015195604051986110b58a611812565b8952602089015260408801526060870152608086015260a085015260c084015260e08301521515610100820152610a79828a611a0c565b969050888a610fb5565b6001600160a01b038f811691161496503861105d565b97509499505050509493916020843d602011611162575b8161113060209383611865565b810103126104ba57610f5f968f968a8f94986110ec998f98611151906118f1565b929496989b50909294969899611046565b3d9150611123565b945094505095505080898c83159485156000146111d85750505060649286848102048414871517156111c2576111ac5785888f938e958d9902045b933861100d565b634e487b7160e01b600052601260045260246000fd5b634e487b7160e01b600052601160045260246000fd5b93509350958860006111a5565b9a5096505050506020873d60201161121b575b8161120560209383611865565b810103126104ba57888f8e958d99519038611007565b3d91506111f8565b925090506020823d602011611252575b8161124060209383611865565b810103126104ba578a9151908c610faf565b3d9150611233565b506001600160a01b03606061126f8386611a0c565b510151161515610f51565b5095949392505094610f1a87610f0f565b50878710610f35565b6112aa9192503d806000833e6101a88183611865565b9089610f09565b6112c691503d806000833e6105718183611865565b8a610eaf565b50959096916000600491610eec565b90506020813d602011611305575b816112f660209383611865565b810103126104ba57518a610e52565b3d91506112e9565b604051806105d98482611716565b50838310610de4565b61133991503d806000833e6105fb8183611865565b82610c47565b346104ba5760003660031901126104ba57630d00952b60e31b81526001600160a01b036000826004817f000000000000000000000000000000000000000000000000000000000000000085165afa91821561057f57600092611621575b508151916113a983611886565b926113b76040519485611865565b8084526113c6601f1991611886565b0160005b8181106115da57505060005b815181101561152c57600080600460008660406113f38789611a0c565b510151166040519283809263e0391b0960e01b82525afa6000918161150f575b506114b7575b5090829161142a6114b29486611a0c565b5151916020848161143b828a611a0c565b510151818a604061144c838d611a0c565b510151168b8b61145f6060948592611a0c565b51015116928b6114726080968792611a0c565b51015195604051996114838b6117e1565b8a52890152604088015286015284015260a083015260c08201526114a78287611a0c565b526104718186611a0c565b6113d6565b809692509390935160005b87518110156115025760806114d7828a611a0c565b5101516114ed575b6114e8906119fd565b6114c2565b946114fa6114e8916119fd565b9590506114df565b50919550926114b2611419565b6115259192503d806000833e6101a88183611865565b9088611413565b8284604051906020808301818452825180915260408401918060408360051b8701019401926000965b8388106115625786860387f35b90919293948380600192603f198a8203018652885190815181526115938383015160e08584015260e08301906116f1565b918660408201511660408301526060878183015116908301526080808201519083015260a0808201519083015260c080910151910152970193019701969093929193611555565b6020906040516115e9816117e1565b60008152606060008491808385015281604085015283015260006080830152600060a0830152600060c08301528288010152016113ca565b9091503d806000833e6116348183611865565b810160209081838203126104ba5782516001600160401b03938482116104ba570181601f820112156104ba57805161166b81611886565b946116796040519687611865565b818652848087019260051b840101938085116104ba57858401925b8584106116a95750505050505050908261139c565b83518381116104ba5787916116c3848480948a0101611e25565b815201930192611694565b60005b8381106116e15750506000910152565b81810151838201526020016116d1565b9060209161170a815180928185528580860191016116ce565b601f01601f1916010190565b602080820190808352835180925260409283810182858560051b8401019601946000925b85841061174b575050505050505090565b909192939495968580600192603f198582030187528a519081518152848060a01b038084840151168483015287830151888301526060908184015116908201526080808301519082015260a0808301519082015260c080830151908201526117c360e0808401519061012080918501528301906116f1565b9161010080910151151591015299019401940192959493919061173a565b60e081019081106001600160401b038211176117fc57604052565b634e487b7160e01b600052604160045260246000fd5b61012081019081106001600160401b038211176117fc57604052565b60a081019081106001600160401b038211176117fc57604052565b61010081019081106001600160401b038211176117fc57604052565b90601f801991011681019081106001600160401b038211176117fc57604052565b6001600160401b0381116117fc5760051b60200190565b81601f820112156104ba5780516001600160401b0381116117fc57604051926118d0601f8301601f191660200185611865565b818452602082840101116104ba576118ee91602080850191016116ce565b90565b51906001600160a01b03821682036104ba57565b60209081818403126104ba5780516001600160401b03918282116104ba57019083601f830112156104ba57815161193b81611886565b9460409261194b84519788611865565b828752858088019360051b860101948286116104ba57868101935b86851061197857505050505050505090565b84518381116104ba57820160a09182601f1983880301126104ba5787519261199f8461182e565b8a8301518452888301518681116104ba57878c6119be9286010161189d565b8b850152606092838101518a8601526080936119db8583016118f1565b9086015201519283151584036104ba578a938493820152815201940193611966565b60001981146111c25760010190565b8051821015611a205760209160051b010190565b634e487b7160e01b600052603260045260246000fd5b604090815163e0391b0960e01b81526000916004918381848160018060a01b038096165afa849181611cf8575b50611a9e57505082519260208401918483106001600160401b03841117611a8b575052815290565b634e487b7160e01b845260419052602483fd5b9190929493825192611aaf84611886565b93611abc83519586611865565b808552611acb601f1991611886565b01875b818110611cb3575050865b8151811015611ca95780611aee879284611a0c565b516080908181019081511515808091611c9a575b15611c6c57508b60609384830194898b848a895116835192838092634d21e01960e01b82525afa998a869287908892611bf4575b50611b9d9c611ba25750509050849291508551975116956020968c8888015192511515970151978d5199611b698b611849565b8a528901528b8801528601528401528b60a084015260c083015260e0820152611b928288611a0c565b526104718187611a0c565b611ad9565b939850939196908095965081519951166020898184015193015199519a611bc88c611849565b8b528a01528c890152870152169084015260a0830152600160c083015260e0820152611b928288611a0c565b9450505050503d8085833e611c098183611865565b81019060e081830312611c6857611c1f816118f1565b508b8101516001600160401b038111611c64578f909a611c458e94611b9d9d850161189d565b5084830151611c5a60a08886015195016118f1565b909390919c611b36565b8580fd5b8480fd5b909150611b9d94508b8251938160608d8187015116956020968c88830151920151978d5199611b698b611849565b50856060830151161515611b02565b5092955050505050565b6020908451611cc181611849565b8a8152828b818301528b606080898501528301528b60808301528b60a08301528b60c08301528b60e0830152828901015201611ace565b611d0d9192503d8087833e6101a88183611865565b9038611a63565b60209081818403126104ba578051906001600160401b0382116104ba57019180601f840112156104ba578251611d4981611886565b93611d576040519586611865565b818552838086019260051b8201019283116104ba578301905b828210611d7e575050505090565b838091611d8a846118f1565b815201910190611d70565b90611d9f82611886565b604090611dae82519182611865565b8381528093611dbf601f1991611886565b019160005b838110611dd15750505050565b6020908251611ddf81611812565b6000815282600081830152600085830152606060008184015260006080840152600060a0840152600060c084015260e08301526000610100830152828601015201611dc4565b91909160a0818403126104ba5760405190611e3f8261182e565b8193815183526020820151916001600160401b0383116104ba57611e69608093928493830161189d565b6020850152611e7a604082016118f1565b6040850152611e8b606082016118f1565b60608501520151910152565b906020828203126104ba5781516001600160401b0381116104ba576118ee9201611e2556fea2646970667358221220fa9b3eb19607d1b86e58079ccd6518620ae637b87d818dfd7ecc3ec7946b8d8a64736f6c63430008140033",
  "linkReferences": {},
  "deployedLinkReferences": {}
}