{
  "_format": "hh-sol-artifact-1",
  "contractName": "NFTFactory",
  "sourceName": "contracts/NFTFactory.sol",
  "abi": [
    {
      "anonymous": false,
      "inputs": [
        {
          "indexed": true,
          "internalType": "uint256",
          "name": "collectionId",
          "type": "uint256"
        },
        {
          "indexed": true,
          "internalType": "address",
          "name": "collectionAddress",
          "type": "address"
        },
        {
          "indexed": false,
          "internalType": "address",
          "name": "owner",
          "type": "address"
        },
        {
          "indexed": false,
          "internalType": "string",
          "name": "metadataURI",
          "type": "string"
        }
      ],
      "name": "CollectionCreated",
      "type": "event"
    },
    {
      "inputs": [
        {
          "internalType": "uint256",
          "name": "",
          "type": "uint256"
        }
      ],
      "name": "collectionAddresses",
      "outputs": [
        {
          "internalType": "address",
          "name": "",
          "type": "address"
        }
      ],
      "stateMutability": "view",
      "type": "function"
    },
    {
      "inputs": [
        {
          "internalType": "uint256",
          "name": "",
          "type": "uint256"
        }
      ],
      "name": "collections",
      "outputs": [
        {
          "internalType": "uint256",
          "name": "collectionId",
          "type": "uint256"
        },
        {
          "internalType": "string",
          "name": "metadataURI",
          "type": "string"
        },
        {
          "internalType": "address",
          "name": "collectionAddress",
          "type": "address"
        },
        {
          "internalType": "address",
          "name": "owner",
          "type": "address"
        },
        {
          "internalType": "uint256",
          "name": "creationTime",
          "type": "uint256"
        }
      ],
      "stateMutability": "view",
      "type": "function"
    },
    {
      "inputs": [
        {
          "internalType": "string",
          "name": "name",
          "type": "string"
        },
        {
          "internalType": "string",
          "name": "symbol",
          "type": "string"
        },
        {
          "internalType": "string",
          "name": "metadataURI",
          "type": "string"
        }
      ],
      "name": "createCollection",
      "outputs": [
        {
          "internalType": "uint256",
          "name": "",
          "type": "uint256"
        }
      ],
      "stateMutability": "nonpayable",
      "type": "function"
    },
    {
      "inputs": [],
      "name": "getAllCollectionAddresses",
      "outputs": [
        {
          "internalType": "address[]",
          "name": "",
          "type": "address[]"
        }
      ],
      "stateMutability": "view",
      "type": "function"
    },
    {
      "inputs": [],
      "name": "getAllCollections",
      "outputs": [
        {
          "components": [
            {
              "internalType": "uint256",
              "name": "collectionId",
              "type": "uint256"
            },
            {
              "internalType": "string",
              "name": "metadataURI",
              "type": "string"
            },
            {
              "internalType": "address",
              "name": "collectionAddress",
              "type": "address"
            },
            {
              "internalType": "address",
              "name": "owner",
              "type": "address"
            },
            {
              "internalType": "uint256",
              "name": "creationTime",
              "type": "uint256"
            }
          ],
          "internalType": "struct NFTFactory.CollectionInfo[]",
          "name": "",
          "type": "tuple[]"
        }
      ],
      "stateMutability": "view",
      "type": "function"
    },
    {
      "inputs": [
        {
          "internalType": "uint256",
          "name": "collectionId",
          "type": "uint256"
        }
      ],
      "name": "getCollection",
      "outputs": [
        {
          "components": [
            {
              "internalType": "uint256",
              "name": "collectionId",
              "type": "uint256"
            },
            {
              "internalType": "string",
              "name": "metadataURI",
              "type": "string"
            },
            {
              "internalType": "address",
              "name": "collectionAddress",
              "type": "address"
            },
            {
              "internalType": "address",
              "name": "owner",
              "type": "address"
            },
            {
              "internalType": "uint256",
              "name": "creationTime",
              "type": "uint256"
            }
          ],
          "internalType": "struct NFTFactory.CollectionInfo",
          "name": "",
          "type": "tuple"
        }
      ],
      "stateMutability": "view",
      "type": "function"
    },
    {
      "inputs": [],
      "name": "getCollectionCount",
      "outputs": [
        {
          "internalType": "uint256",
          "name": "",
          "type": "uint256"
        }
      ],
      "stateMutability": "view",
      "type": "function"
    },
    {
      "inputs": [
        {
          "internalType": "address",
          "name": "user",
          "type": "address"
        }
      ],
      "name": "getUserCollections",
      "outputs": [
        {
          "internalType": "uint256[]",
          "name": "",
          "type": "uint256[]"
        }
      ],
      "stateMutability": "view",
      "type": "function"
    },
    {
      "inputs": [
        {
          "internalType": "address",
          "name": "user",
          "type": "address"
        }
      ],
      "name": "getUserOwnedCollections",
      "outputs": [
        {
          "components": [
            {
              "internalType": "uint256",
              "name": "collectionId",
              "type": "uint256"
            },
            {
              "internalType": "string",
              "name": "metadataURI",
              "type": "string"
            },
            {
              "internalType": "address",
              "name": "collectionAddress",
              "type": "address"
            },
            {
              "internalType": "address",
              "name": "owner",
              "type": "address"
            },
            {
              "internalType": "uint256",
              "name": "creationTime",
              "type": "uint256"
            }
          ],
          "internalType": "struct NFTFactory.CollectionInfo[]",
          "name": "",
          "type": "tuple[]"
        }
      ],
      "stateMutability": "view",
      "type": "function"
    },
    {
      "inputs": [
        {
          "internalType": "address",
          "name": "",
          "type": "address"
        },
        {
          "internalType": "uint256",
          "name": "",
          "type": "uint256"
        }
      ],
      "name": "userCollections",
      "outputs": [
        {
          "internalType": "uint256",
          "name": "",
          "type": "uint256"
        }
      ],
      "stateMutability": "view",
      "type": "function"
    }
  ],
  "bytecode": "0x6080806040523461001b57600160005561585290816100218239f35b600080fdfe60808060405260043610156200001457600080fd5b60003560e01c9081631c10106f146200098d57508063428a6171146200092d5780635a1f3c2814620008995780636804a95814620007da5780637014935e146200070a5780639aa5ad8c146200064c578063abae977f1462000605578063b124dbc414620004cc578063ece86c21146200011f5763fdbda0ec146200009857600080fd5b346200011a5760203660031901126200011a57600435600052600260205260406000208054620000cb6001830162000bf3565b9160018060a01b0390600482600283015416926003830154169101549062000106604051958695865260a0602087015260a086019062000a28565b926040850152606084015260808301520390f35b600080fd5b346200011a5760603660031901126200011a5767ffffffffffffffff6004358181116200011a576200015690369060040162000b5a565b6024358281116200011a576200017190369060040162000b5a565b906044358381116200011a576200018d90369060040162000b5a565b90600154926001840160015560405191614a9b8084019184831088841117620003da578493620001d5620001e492620001f39462000d82883960a0865260a086019062000a28565b90848203602086015262000a28565b82810360408401528562000a28565b9033606082015260803091015203906000f0928315620004c0576040516200021b8162000b1a565b838152602081019183835260018060a01b038616604083015233606083015242608083015284600052600260205260406000209282518455518051918211620003da576200026d600185015462000bb6565b601f811162000474575b50602090601f8311600114620003fc57918060049492608094600092620003f0575b50508160011b916000199060031b1c19161760018501555b6002840160018060a01b03604083015116906bffffffffffffffffffffffff60a01b9182825416179055600385019060018060a01b036060840151169082541617905501519101553360005260036020526040600020805490680100000000000000009182811015620003da576200032f9160018201815562000a0f565b81549060031b9085821b91600019901b191617905560045490811015620003da577f302eb65a1fbff180da0f4fa83befd29ff62c2bff6765fcc04e6a5c2ffade88cd620003cf6020956200038b846001889601600455620009c1565b81549060031b9060018060a01b038416821b9160018060a01b03901b191617905560405191829133835260408984015260018060a01b031695604083019062000a28565b0390a3604051908152f35b634e487b7160e01b600052604160045260246000fd5b01519050898062000299565b90601f198316916001860160005260206000209260005b8181106200045b5750926001928592608096600498961062000441575b505050811b016001850155620002b1565b015160001960f88460031b161c1916905589808062000430565b9293602060018192878601518155019501930162000413565b600185016000526020600020601f840160051c810160208510620004b8575b601f830160051c82018110620004ab57505062000277565b6000815560010162000493565b508062000493565b6040513d6000823e3d90fd5b346200011a576020806003193601126200011a576001600160a01b039081620004f4620009aa565b16600052600390818152604060002091604051808484829654938481520190600052846000209260005b86828210620005ee57505050620005389250038462000b37565b62000544835162000cec565b9360005b8451811015620005da578062000563620005d4928762000d6c565b516000526002808652600460406000208560405193620005838562000b1a565b82548552620005956001840162000bf3565b8a860152820154166040840152858782015416606084015201546080820152620005c0828962000d6c565b52620005cd818862000d6c565b5062000d46565b62000548565b60405180620005ea888262000ab4565b0390f35b85548452600195860195899550930192016200051e565b346200011a5760203660031901126200011a576004356004548110156200011a5762000633602091620009c1565b905460405160039290921b1c6001600160a01b03168152f35b346200011a576020806003193601126200011a576001600160a01b0362000672620009aa565b1660005260038152604060002060405190818382549182815201908192600052846000209060005b86828210620006f5578686620006b38288038362000b37565b604051928392818401908285525180915260408401929160005b828110620006dd57505050500390f35b835185528695509381019392810192600101620006cd565b8354855290930192600192830192016200069a565b346200011a5760003660031901126200011a57604051806004548083526020809301809160046000527f8a35acfbc15ff81a39ae7d344fd709f28e8600b4aa8c65c6b64bfe7fe36bd19b9060005b86828210620007bc578686620007718288038362000b37565b604051928392818401908285525180915260408401929160005b8281106200079b57505050500390f35b83516001600160a01b0316855286955093810193928101926001016200078b565b83546001600160a01b03168552909301926001928301920162000758565b346200011a5760003660031901126200011a5760018054620007fc8162000cec565b9160005b828110620008185760405180620005ea868262000ab4565b8062000893916000526002600460209180835260406000209060405193620008408562000b1a565b825485526200085188840162000bf3565b908501528101546001600160a01b03908116604085015260038201541660608401520154608082015262000886828762000d6c565b52620005cd818662000d6c565b62000800565b346200011a5760203660031901126200011a57620008b662000ca5565b506004356000526002602052620005ea6040600020600460405191620008dc8362000b1a565b80548352620008ee6001820162000bf3565b602084015260018060a01b0380600283015416604085015260038201541660608401520154608082015260405191829160208352602083019062000a6a565b346200011a5760403660031901126200011a576200094a620009aa565b6001600160a01b03166000908152600360205260409020805460243591908210156200011a576020916200097e9162000a0f565b90549060031b1c604051908152f35b346200011a5760003660031901126200011a576020906001548152f35b600435906001600160a01b03821682036200011a57565b600454811015620009f95760046000527f8a35acfbc15ff81a39ae7d344fd709f28e8600b4aa8c65c6b64bfe7fe36bd19b0190600090565b634e487b7160e01b600052603260045260246000fd5b8054821015620009f95760005260206000200190600090565b919082519283825260005b84811062000a55575050826000602080949584010152601f8019910116010190565b60208183018101518483018201520162000a33565b908151815260808062000a8d602085015160a0602086015260a085019062000a28565b9360018060a01b038060408301511660408601526060820151166060850152015191015290565b602080820190808352835180925260408301928160408460051b8301019501936000915b84831062000ae95750505050505090565b909192939495848062000b09600193603f198682030187528a5162000a6a565b980193019301919493929062000ad8565b60a0810190811067ffffffffffffffff821117620003da57604052565b90601f8019910116810190811067ffffffffffffffff821117620003da57604052565b81601f820112156200011a5780359067ffffffffffffffff8211620003da576040519262000b93601f8401601f19166020018562000b37565b828452602083830101116200011a57816000926020809301838601378301015290565b90600182811c9216801562000be8575b602083101462000bd257565b634e487b7160e01b600052602260045260246000fd5b91607f169162000bc6565b906040519182600082549262000c098462000bb6565b90818452600194858116908160001462000c80575060011462000c39575b505062000c379250038362000b37565b565b9093915060005260209081600020936000915b81831062000c6757505062000c379350820101388062000c27565b8554888401850152948501948794509183019162000c4c565b91505062000c3794506020925060ff191682840152151560051b820101388062000c27565b6040519062000cb48262000b1a565b6000608083828152606060208201528260408201528260608201520152565b67ffffffffffffffff8111620003da5760051b60200190565b9062000cf88262000cd3565b62000d07604051918262000b37565b828152809262000d1a601f199162000cd3565b019060005b82811062000d2c57505050565b60209062000d3962000ca5565b8282850101520162000d1f565b600019811462000d565760010190565b634e487b7160e01b600052601160045260246000fd5b8051821015620009f95760209160051b01019056fe608060405234620004de5762004a9b803803806200001d81620004e3565b92833981019060a081830312620004de5780516001600160401b039290838111620004de57816200005091840162000509565b92602080840151828111620004de57836200006d91860162000509565b92604085015190838211620004de576200008991860162000509565b620000a560806200009d606088016200057b565b96016200057b565b93865192848411620004c8576000918254946001998a87811c97168015620004bd575b84881014620003be578190601f978881116200046a575b508490888311600114620003fd578692620003f1575b5050600019600383901b1c1916908a1b1783555b805190868211620003dd5789548a81811c91168015620003d2575b84821014620003be579081878493116200036b575b50839087831160011462000307578592620002fb575b5050600019600383901b1c191690891b1788555b6200016e3362000590565b876008558251948511620002e757600a548881811c91168015620002dc575b82821014620002c8578481116200027f575b5080938511600114620002125750620001f696909284928362000206575b50501b916000199060031b1c191617600a555b600b80546001600160a01b0319166001600160a01b039290921691909117905562000590565b6040516144c19081620005da8239f35b015192503880620001bd565b9693929091601f19841697600a845280842093905b8982106200026757505083620001f698106200024d575b505050811b01600a55620001d0565b015160001960f88460031b161c191690553880806200023e565b80878596829496860151815501950193019062000227565b600a83528183208580880160051c820192848910620002be575b0160051c019089905b828110620002b25750506200019f565b848155018990620002a2565b9250819262000299565b634e487b7160e01b83526022600452602483fd5b90607f16906200018d565b634e487b7160e01b82526041600452602482fd5b0151905038806200014f565b8b86528486208c94509190601f198416875b878282106200035457505084116200033a575b505050811b01885562000163565b015160001960f88460031b161c191690553880806200032c565b8385015186558f9790950194938401930162000319565b9091508a85528385208780850160051c820192868610620003b4575b918d91869594930160051c01915b828110620003a557505062000139565b8781558594508d910162000395565b9250819262000387565b634e487b7160e01b85526022600452602485fd5b90607f169062000124565b634e487b7160e01b84526041600452602484fd5b015190503880620000f5565b8680528587208d94509190601f198416885b888282106200044a575050841162000430575b505050811b01835562000109565b015160001960f88460031b161c1916905538808062000422565b91929395968291958786015181550195019301908e95949392916200040f565b9091508580528486208880850160051c820192878610620004b3575b918e91869594930160051c01915b828110620004a4575050620000df565b8881558594508e910162000494565b9250819262000486565b96607f1696620000c8565b634e487b7160e01b600052604160045260246000fd5b600080fd5b6040519190601f01601f191682016001600160401b03811183821017620004c857604052565b919080601f84011215620004de5782516001600160401b038111620004c8576020906200053f601f8201601f19168301620004e3565b92818452828287010111620004de5760005b8181106200056757508260009394955001015290565b858101830151848201840152820162000551565b51906001600160a01b0382168203620004de57565b600780546001600160a01b039283166001600160a01b0319821681179092559091167f8be0079c531659141344cd1fd0a4f28419497f9722a3daafe3b4186f6b6457e0600080a356fe60808060405260043610156200001457600080fd5b60003560e01c90816301ffc9a714620017135750806306fdde031462001663578063081812fc1462001641578063095ea7b314620015045780630af2c6ca14620013ee57806323b872dd14620014d2578063265aa621146200143d57806342842e0e146200140e5780635427963714620013ee578063576f7ea7146200132b5780635894bd51146200129b5780635ba809651462000f2b5780636352211e1462000ef75780636d6a18f11462000dbb57806370a082311462000d1f578063715018a61462000cbe5780637400deab1462000c0b5780638da5cb5b1462000be057806395d89b411462000af1578063a22cb4651462000a19578063b88d4fde14620009ab578063c87b56dd146200091c578063d63843cd14620008f1578063e0391b0914620007d2578063e985e9c51462000776578063f2fde38b14620006ab5763fb37e883146200016457600080fd5b34620006a6576020366003190112620006a65760043567ffffffffffffffff8111620006a6576200019a90369060040162001a25565b620001a462001aac565b60098054600181019091556007546001600160a01b031680156200066257600082815260026020526040902054829190620001ec906001600160a01b031615155b1562002065565b60008281526002602052604090205462000211906001600160a01b03161515620001e5565b8060005260036020526040600020600181540190558160005260026020526040600020816001600160601b0360a01b82541617905560007fddf252ad1be2c89b69c2b068fc378daa952ba7f163c4a11628f55a4df523b3ef8180a46000818152600260205260409020546001600160a01b03161562000606578060005260066020526040600020825167ffffffffffffffff81116200052b57620002b6825462001849565b601f8111620005b9575b50806020601f82116001146200054d5760009162000541575b508160011b916000199060031b1c19161790555b7ff8e1a15aba9398e019f0b49df1a4fde98ee17ae345cb5f6b5e2c27f5033e8ce76020604051838152a160405191620003268362001924565b8183526020830192818452426040820152600060608201526000608082015282600052600c602052604060002093815185555193845167ffffffffffffffff81116200052b576200037b600183015462001849565b95601f8711620004df575b602096508690601f83116001146200046a576003939291600091836200045e575b505060001982851b1c1916600191821b17908201555b60408301516002820155019060018060a01b03606082015116825491608060ff60a01b910151151560a01b16916affffffffffffffffffffff60a81b16171790556200040b600d546200203f565b600d55817f411b345259a1495602cee098e5f501eb3412e0701c10b173ecd8ba7b585974a96200045360018060a01b03600754169360405191829188835288830190620017a1565b0390a3604051908152f35b015190503880620003a7565b9060018401600052876000209160005b601f1985168110620004c7575091839160019360039695601f19811610620004ae575b505050811b016001820155620003bd565b015160001983871b60f8161c191690553880806200049d565b9192896001819286850151815501940192016200047a565b600183016000526020600020601f830160051c81016020841062000523575b601f890160051c820181106200051657505062000386565b60008155600101620004fe565b5080620004fe565b634e487b7160e01b600052604160045260246000fd5b905084015138620002d9565b91508260005260206000206000925b601f1983168410620005a0576001935082601f1981161062000586575b5050811b019055620002ed565b86015160001960f88460031b161c19169055388062000579565b868101518255602093840193600190920191016200055c565b826000526020600020601f830160051c81019160208410620005fb575b601f0160051c01905b818110620005ee5750620002c0565b60008155600101620005df565b9091508190620005d6565b60405162461bcd60e51b815260206004820152602e60248201527f45524337323155524953746f726167653a2055524920736574206f66206e6f6e60448201526d32bc34b9ba32b73a103a37b5b2b760911b6064820152608490fd5b606460405162461bcd60e51b815260206004820152602060248201527f4552433732313a206d696e7420746f20746865207a65726f20616464726573736044820152fd5b600080fd5b34620006a6576020366003190112620006a657620006c8620017e3565b620006d262001aac565b6001600160a01b039081169081156200072257600754826001600160601b0360a01b821617600755167f8be0079c531659141344cd1fd0a4f28419497f9722a3daafe3b4186f6b6457e0600080a3005b60405162461bcd60e51b815260206004820152602660248201527f4f776e61626c653a206e6577206f776e657220697320746865207a65726f206160448201526564647265737360d01b6064820152608490fd5b34620006a6576040366003190112620006a65762000793620017e3565b6200079d620017fa565b9060018060a01b03809116600052600560205260406000209116600052602052602060ff604060002054166040519015158152f35b34620006a6576000366003190112620006a657620007f2600d546200213b565b6009546000805b82811062000815576040518062000811868262001a46565b0390f35b80600052600c602081815260019162000835836040600020015462001849565b6200084f575b50505062000849906200203f565b620007f9565b9160ff6003859693620008e79562000849976000528152620008966040600020916200089e60405196620008838862001924565b8454885260405193848092870162001886565b03836200195e565b8501526002810154604085015201546001600160a01b038116606084015260a01c1615156080820152620008d3828862002195565b52620008e0818762002195565b506200203f565b919085806200083b565b34620006a6576000366003190112620006a657600b546040516001600160a01b039091168152602090f35b34620006a6576020366003190112620006a65760043560008181526002602052604090205462000957906001600160a01b0316151562001b05565b6000526006602052620008116200097d6200098560406000206040519283809262001886565b03826200195e565b6000604051620009958162001941565b52604051918291602083526020830190620017a1565b34620006a6576080366003190112620006a657620009c8620017e3565b620009d2620017fa565b6064359167ffffffffffffffff8311620006a65736602384011215620006a65762000a0c62000a17933690602481600401359101620019e9565b916044359162001c1a565b005b34620006a6576040366003190112620006a65762000a36620017e3565b60243590811515809203620006a6576001600160a01b03169033821462000aac57336000526005602052604060002082600052602052604060002060ff1981541660ff83161790556040519081527f17307eab39ab6107e8899845ad3d59bd9653f200f220920489ca2b5937696c3160203392a3005b60405162461bcd60e51b815260206004820152601960248201527f4552433732313a20617070726f766520746f2063616c6c6572000000000000006044820152606490fd5b34620006a6576000366003190112620006a6576040516000600180549062000b198262001849565b8085529181811690811562000bb7575060011462000b5a575b620008118462000b45818603826200195e565b604051918291602083526020830190620017a1565b600081815292507fb10e2d527612073b26eecdfd717e6a320cf44b4afac2b0732d9fcbe2b7fa0cf65b82841062000b9e57505050810160200162000b458262000b32565b8054602085870181019190915290930192810162000b83565b60ff191660208087019190915292151560051b8501909201925062000b45915083905062000b32565b34620006a6576000366003190112620006a6576007546040516001600160a01b039091168152602090f35b34620006a6576000366003190112620006a6576040516000600a5462000c318162001849565b8084529060019081811690811562000bb7575060011462000c5f57620008118462000b45818603826200195e565b600a600090815292507fc65a7bb8d6351c1cf70c95a316cc6a92839c986682d98bc35f958f4883f9d2a85b82841062000ca557505050810160200162000b458262000b32565b8054602085870181019190915290930192810162000c8a565b34620006a6576000366003190112620006a65762000cdb62001aac565b600780546001600160a01b031981169091556000906001600160a01b03167f8be0079c531659141344cd1fd0a4f28419497f9722a3daafe3b4186f6b6457e08280a3005b34620006a6576020366003190112620006a6576001600160a01b0362000d44620017e3565b16801562000d645760005260036020526020604060002054604051908152f35b60405162461bcd60e51b815260206004820152602960248201527f4552433732313a2061646472657373207a65726f206973206e6f7420612076616044820152683634b21037bbb732b960b91b6064820152608490fd5b34620006a6576000366003190112620006a6576009546000805b82811062000eaf575062000de9906200213b565b906000805b82811062000e06576040518062000811868262001a46565b806000526020600c81526040600020600381015460ff8160a01c16918262000e3e575b5050505062000e38906200203f565b62000dee565b9162000ea49391600262000e389697946040519462000e5d8662001924565b815486526040519062000e798262000896816001870162001886565b860152015460408401526001600160a01b0316606083015215156080820152620008d3828862002195565b919085808062000e29565b80600052600c60205260ff60036040600020015460a01c1662000ede575b62000ed8906200203f565b62000dd5565b9062000eee62000ed8916200203f565b91905062000ecd565b34620006a6576020366003190112620006a657602062000f1960043562001b52565b6040516001600160a01b039091168152f35b34620006a65760a0366003190112620006a657604460248035908235906004359060649067ffffffffffffffff8235818111620006a65762000f7290369060040162001a25565b608435828111620006a65762000f8d90369060040162001a25565b6002600854146200125857600260085562000fc762000fc187600052600260205260018060a01b0360406000205416151590565b620020b2565b62000fd28662001b52565b6001600160a01b0395903390871603620012185786600052602099600c8b5260ff60036040600020015460a01c16620011d85789156200118b5788156200113f57505085600052600c8952600160406000200191604051946122cb9081870195878710908711176200112b57506200109b9262001066879695936200107493620021c18939610100808852870190620017a1565b908582038d870152620017a1565b908960408501528860608501523060808501528760a085015283820360c085015262001886565b9060e03391015203906000f080156200111f577ffe60b756980476874d2f8cdfca824f0d687e2cc6d4c7735f696cba055eee6d669160409116948594620010e3858762001eaa565b6000858152600c895283902060030180546001600160a81b0319168717600160a01b179055825191825281880152a36001600855604051908152f35b6040513d6000823e3d90fd5b634e487b7160e01b60009081526041600452fd5b61020360f41b6084927f5368617265207072696365206d7573742062652067726561746572207468616e8d9360228a6040519662461bcd60e51b88526004880152860152840152820152fd5b6206e20360ec1b6084927f546f74616c20736861726573206d7573742062652067726561746572207468618d9360238a6040519662461bcd60e51b88526004880152860152840152820152fd5b7f4e465420616c7265616479206672616374696f6e616c697a65640000000000008b91601a886040519462461bcd60e51b86526004860152840152820152fd5b60405162461bcd60e51b8152602060048201526019818701527f4e6f7420746865206f776e6572206f662074686973204e465400000000000000818c0152fd5b5050507f5265656e7472616e637947756172643a207265656e7472616e742063616c6c0086601f6040519362461bcd60e51b855260206004860152840152820152fd5b34620006a6576000366003190112620006a657600080600954905b818110620012e357606083600d549060018060a01b03600754169060405192835260208301526040820152f35b80600052600c60205260ff60036040600020015460a01c1662001312575b6200130c906200203f565b620012b6565b91620013226200130c916200203f565b92905062001301565b34620006a657602080600319360112620006a6576004356200134c6200210d565b5080600052600c8252620013746200136c60016040600020015462001849565b1515620020b2565b600052600c815260406000209060ff600360405193620013948562001924565b80548552604051620013af816200097d816001860162001886565b8486015260028101546040860152015460018060a01b038116606085015260a01c16151560808301526200081160405192828493845283019062001981565b34620006a6576000366003190112620006a6576020600d54604051908152f35b34620006a65762000a17620014233662001811565b9060405192620014338462001941565b6000845262001c1a565b34620006a6576020366003190112620006a657600435600052600c602052604060002080546040519162001482836200147a816001850162001886565b03846200195e565b60ff60036002830154920154620014ac604051958695865260a0602087015260a0860190620017a1565b60408501939093526001600160a01b038116606085015260a01c16151560808301520390f35b34620006a65762000a17620014e73662001811565b91620014fe620014f8843362001cbf565b62001bb7565b62001d90565b34620006a6576040366003190112620006a65762001521620017e3565b6024356001600160a01b0380620015388362001b52565b168091841614620015f257803314908115620015cc575b5015620015615762000a179162001eaa565b60405162461bcd60e51b815260206004820152603d60248201527f4552433732313a20617070726f76652063616c6c6572206973206e6f7420746f60448201527f6b656e206f776e6572206f7220617070726f76656420666f7220616c6c0000006064820152608490fd5b9050600052600560205260406000203360005260205260ff60406000205416836200154f565b60405162461bcd60e51b815260206004820152602160248201527f4552433732313a20617070726f76616c20746f2063757272656e74206f776e656044820152603960f91b6064820152608490fd5b34620006a6576020366003190112620006a657602062000f1960043562001b77565b34620006a6576000366003190112620006a65760405160008054620016888162001849565b8084529060019081811690811562000bb75750600114620016b657620008118462000b45818603826200195e565b600080805292507f290decd9548b62a8d60345a988386fc84ba6bc95484008f6362f93160ef3e5635b828410620016fa57505050810160200162000b458262000b32565b80546020858701810191909152909301928101620016df565b34620006a6576020366003190112620006a6576004359063ffffffff60e01b8216809203620006a657602091632483248360e11b811490811562001759575b5015158152f35b6380ac58cd60e01b8114915081156200178f575b81156200177d575b508362001752565b6301ffc9a760e01b1490508362001775565b635b5e139f60e01b811491506200176d565b919082519283825260005b848110620017ce575050826000602080949584010152601f8019910116010190565b602081830181015184830182015201620017ac565b600435906001600160a01b0382168203620006a657565b602435906001600160a01b0382168203620006a657565b6060906003190112620006a6576001600160a01b03906004358281168103620006a657916024359081168103620006a6579060443590565b90600182811c921680156200187b575b60208310146200186557565b634e487b7160e01b600052602260045260246000fd5b91607f169162001859565b9060009291805491620018998362001849565b918282526001938481169081600014620019005750600114620018bd575b50505050565b90919394506000526020928360002092846000945b838610620018eb575050505001019038808080620018b7565b805485870183015294019385908201620018d2565b9294505050602093945060ff191683830152151560051b01019038808080620018b7565b60a0810190811067ffffffffffffffff8211176200052b57604052565b6020810190811067ffffffffffffffff8211176200052b57604052565b90601f8019910116810190811067ffffffffffffffff8211176200052b57604052565b9081518152608080620019a4602085015160a0602086015260a0850190620017a1565b604080860151908501526060808601516001600160a01b031690850152930151151591015290565b67ffffffffffffffff81116200052b57601f01601f191660200190565b929192620019f782620019cc565b9162001a0760405193846200195e565b829481845281830111620006a6578281602093846000960137010152565b9080601f83011215620006a65781602062001a4393359101620019e9565b90565b602080820190808352835180925260408301928160408460051b8301019501936000915b84831062001a7b5750505050505090565b909192939495848062001a9b600193603f198682030187528a5162001981565b980193019301919493929062001a6a565b6007546001600160a01b0316330362001ac157565b606460405162461bcd60e51b815260206004820152602060248201527f4f776e61626c653a2063616c6c6572206973206e6f7420746865206f776e65726044820152fd5b1562001b0d57565b60405162461bcd60e51b815260206004820152601860248201527f4552433732313a20696e76616c696420746f6b656e20494400000000000000006044820152606490fd5b6000908152600260205260409020546001600160a01b031662001a4381151562001b05565b60008181526002602052604090205462001b9c906001600160a01b0316151562001b05565b6000908152600460205260409020546001600160a01b031690565b1562001bbf57565b60405162461bcd60e51b815260206004820152602d60248201527f4552433732313a2063616c6c6572206973206e6f7420746f6b656e206f776e6560448201526c1c881bdc88185c1c1c9bdd9959609a1b6064820152608490fd5b9062001c4593929162001c32620014f8843362001cbf565b62001c3f83838362001d90565b62001f09565b1562001c4d57565b60405162461bcd60e51b81528062001c686004820162001c6c565b0390fd5b60809060208152603260208201527f4552433732313a207472616e7366657220746f206e6f6e20455243373231526560408201527131b2b4bb32b91034b6b83632b6b2b73a32b960711b60608201520190565b906001600160a01b03808062001cd58462001b52565b1693169183831493841562001d0d575b50831562001cf4575b50505090565b62001d029192935062001b77565b161438808062001cee565b909350600052600560205260406000208260005260205260ff60406000205416923862001ce5565b1562001d3d57565b60405162461bcd60e51b815260206004820152602560248201527f4552433732313a207472616e736665722066726f6d20696e636f72726563742060448201526437bbb732b960d91b6064820152608490fd5b9062001dbc9162001da18462001b52565b6001600160a01b039391841692849290918316841462001d35565b1691821562001e59578162001dde9162001dd68662001b52565b161462001d35565b7fddf252ad1be2c89b69c2b068fc378daa952ba7f163c4a11628f55a4df523b3ef60008481526004602052604081206001600160601b0360a01b9081815416905583825260036020526040822060001981540190558482526040822060018154019055858252600260205284604083209182541617905580a4565b60405162461bcd60e51b8152602060048201526024808201527f4552433732313a207472616e7366657220746f20746865207a65726f206164646044820152637265737360e01b6064820152608490fd5b600082815260046020526040902080546001600160a01b0319166001600160a01b039283169081179091559062001ee18362001b52565b167f8c5be1e5ebec7d5bd14f71427d1e84f3dd0314c0f7b2291e5b200ac8c7c3b925600080a4565b92939190803b15620020355762001f5e946040518092630a85bd0160e11b9485835233600484015260018060a01b03809816602484015260448301526080606483015281806020998a956084830190620017a1565b03916000988991165af184918162001fea575b5062001fd9575050503d60001462001fd0573d62001f8f81620019cc565b9062001f9f60405192836200195e565b81528091833d92013e5b8051918262001fcd5760405162461bcd60e51b81528062001c686004820162001c6c565b01fd5b50606062001fa9565b6001600160e01b0319161492509050565b9091508581813d83116200202d575b6200200581836200195e565b810103126200202957516001600160e01b0319811681036200202957903862001f71565b8480fd5b503d62001ff9565b5050915050600190565b60001981146200204f5760010190565b634e487b7160e01b600052601160045260246000fd5b156200206d57565b60405162461bcd60e51b815260206004820152601c60248201527f4552433732313a20746f6b656e20616c7265616479206d696e746564000000006044820152606490fd5b15620020ba57565b60405162461bcd60e51b815260206004820152601260248201527113919508191bd95cc81b9bdd08195e1a5cdd60721b6044820152606490fd5b67ffffffffffffffff81116200052b5760051b60200190565b604051906200211c8262001924565b6000608083828152606060208201528260408201528260608201520152565b906200214782620020f4565b6200215660405191826200195e565b828152809262002169601f1991620020f4565b019060005b8281106200217b57505050565b602090620021886200210d565b828285010152016200216e565b8051821015620021aa5760209160051b010190565b634e487b7160e01b600052603260045260246000fdfe604060808152346200068657620022cb803803806200001e816200068b565b928339810161010082820312620006865781516001600160401b03929083811162000686578262000051918301620006b1565b90602092838201518581116200068657816200006f918401620006b1565b908683015190606084015190620000896080860162000723565b9760a08601519160c0870151908282116200068657620000b260e091620000ba938a01620006b1565b970162000723565b92875196828811620005705760039182549860019a8b8b811c9b1680156200067b575b8d8c101462000665578c9a8291601f9e8f9283811162000602575b50508c918311600114620005925760009262000586575b505060001982861b1c1916908b1b1783555b8751848111620005705760049889548c81811c9116801562000565575b8c821014620005505782918c8f92838111620004ed575b50508c9183116001146200047d5760009262000471575b505060001982861b1c1916908b1b1788555b620001893362000738565b8960065560018060a01b03948560018060a01b03199d168d600754161760075560085560095580519283116200045c57600a548981811c9116801562000451575b898210146200043c5790818b85949311620003e3575b5088908b841160011462000376576000936200036a575b505082891b92600019911b1c191617600a555b42600b558116958688600c541617600c5582600f55670de0b6b3a76400009081840291848304148415171562000314578715620003295750600254818101809111620003145760007fddf252ad1be2c89b69c2b068fc378daa952ba7f163c4a11628f55a4df523b3ef876200029a95948b946002558484528382528d84208181540190558d51908152a362000738565b84600052600d83528660002055600e549268010000000000000000841015620002ff57830180600e55831015620002ea5750600e600052600020019182541617905551611b499081620007828239f35b603290634e487b7160e01b6000525260246000fd5b604182634e487b7160e01b6000525260246000fd5b601185634e487b7160e01b6000525260246000fd5b84606491878c519262461bcd60e51b845283015260248201527f45524332303a206d696e7420746f20746865207a65726f2061646472657373006044820152fd5b015191503880620001f7565b91908a9450601f19841692600a6000528a6000209360005b8c828210620003cc5750508511620003b1575b50505050811b01600a556200020a565b01519060f884600019921b161c1916905538808080620003a1565b8385015187558e989096019593840193016200038e565b90919250600a600052886000208b80860160051c8201928b871062000432575b918c9187969594930160051c01915b82811062000422575050620001e0565b600081558695508c910162000412565b9250819262000403565b602288634e487b7160e01b6000525260246000fd5b90607f1690620001ca565b604187634e487b7160e01b6000525260246000fd5b0151905038806200016c565b60008c81528d81208f9550929190601f198516908f5b828210620004cc5750508411620004b3575b505050811b0188556200017e565b015160001983881b60f8161c19169055388080620004a5565b91929395968291958786015181550195019301908f95949392918f62000493565b919350918c600052826000209181860160051c830193861062000546575b8f9092828796949593950160051c01915b8281106200052e57508e915062000155565b600091939550809294505501918e918e85946200051c565b925081926200050b565b60228b634e487b7160e01b6000525260246000fd5b90607f16906200013e565b634e487b7160e01b600052604160045260246000fd5b0151905038806200010f565b60008781528d81208f9550929190601f198516908f5b828210620005e15750508411620005c8575b505050811b01835562000121565b015160001983881b60f8161c19169055388080620005ba565b91929395968291958786015181550195019301908f95949392918f620005a8565b9193509187600052826000209181860160051c83019386106200065b575b8f9092828796949593950160051c01915b8281106200064357508e9150620000f8565b600091939550809294505501918e918e859462000631565b9250819262000620565b634e487b7160e01b600052602260045260246000fd5b9a607f169a620000dd565b600080fd5b6040519190601f01601f191682016001600160401b038111838210176200057057604052565b919080601f84011215620006865782516001600160401b0381116200057057602090620006e7601f8201601f191683016200068b565b92818452828287010111620006865760005b8181106200070f57508260009394955001015290565b8581018301518482018401528201620006f9565b51906001600160a01b03821682036200068657565b600580546001600160a01b039283166001600160a01b0319821681179092559091167f8be0079c531659141344cd1fd0a4f28419497f9722a3daafe3b4186f6b6457e0600080a356fe6080604081815260048036101561001557600080fd5b600092833560e01c90816302d05d3f146111585750806306fdde0314611063578063095ea7b3146110395780630ee2cb101461101057806316b6024914610fc357806318160ddd14610fa457806323b872dd14610eda578063313ce56714610ebe57806338ea2fc714610e875780633950935114610e375780634d21e01914610dc2578063589f348114610d8f5780635ede788f14610d705780636588103b14610d4757806370a0823114610d10578063715018a614610cb35780637427a40c14610c7357806375cbf75d14610c465780637b85b13214610c155780637e83057414610bf6578063817bc0cb146102dc5780638477d9f314610a6d5780638726972914610a4e5780638da5cb5b14610a255780638fcb4e5b1461092e578063944e6c96146108f457806395d89b41146107d9578063a457c2d714610732578063a9059cbb14610701578063d1a93d18146102e1578063d5002f2e146102dc578063d8270dce146102bd578063dd62ed3e14610274578063de69b3aa146102385763f2fde38b146101a457600080fd5b34610234576020366003190112610234576101bd6111bd565b916101c66113b0565b6001600160a01b038316156101e257836101df84611408565b80f35b906020608492519162461bcd60e51b8352820152602660248201527f4f776e61626c653a206e6577206f776e657220697320746865207a65726f206160448201526564647265737360d01b6064820152fd5b8280fd5b5050346102705760203660031901126102705760209181906001600160a01b036102606111bd565b168152600d845220549051908152f35b5080fd5b505034610270578060031936011261027057806020926102926111bd565b61029a6111d8565b6001600160a01b0391821683526001865283832091168252845220549051908152f35b505034610270578160031936011261027057602090600b549051908152f35b61135e565b50906020806003193601126106fd578235926002600654146106bc57600260065560098054908115610683576103238680159361031e85156116e4565b61173c565b340361064957670de0b6b3a7640000808702928784048214171561063657600f54870361048f5750506005546001600160a01b0316808752600d845284872054600f549193910361044c5782875286845281858820541061040957508580809361038f82943383611474565b61039a88338361176b565b6103a33361196a565b819034156103ff575b3491f1156103f557907f630b54f21d1c5ae41c4633ad96e8c15ce15665365eded6a38476ffa71c8ace6c915b815193845234908401523392a26103ed6118fc565b600160065580f35b81513d85823e3d90fd5b6108fc91506103ac565b845162461bcd60e51b8152908101849052601d60248201527f4f776e65722068617320696e73756666696369656e74207368617265730000006044820152606490fd5b845162461bcd60e51b8152908101849052601d60248201527f4f776e657220646f65736e2774206861766520616c6c207368617265730000006044820152606490fd5b92969150929385928295835b600e5481108061062d575b156105b7576104b4816111ee565b905460039190911b1c6001600160a01b031633811415806105a4575b6104e4575b506104df9061174f565b61049b565b808652600d83528486205480881161059e575086905b811590811561050b575b50506104d5565b8583949b999302918483048714171561058b5787808086959481946105358f9961053f9a5461173c565b9889923383611474565b61054a88338361176b565b828215610582575bf115610578579161056961056f926104df9461175e565b97611451565b97903880610504565b85513d88823e3d90fd5b506108fc610552565b634e487b7160e01b885260118d52602488fd5b906104fa565b50808652600d83528486205415156104d0565b50945050935094906105ec5750907f630b54f21d1c5ae41c4633ad96e8c15ce15665365eded6a38476ffa71c8ace6c916103d8565b915162461bcd60e51b815291820152601b60248201527f4e6f7420656e6f7567682073686172657320617661696c61626c6500000000006044820152606490fd5b508515156104a6565b634e487b7160e01b885260118452602488fd5b845162461bcd60e51b81528084018590526014602482015273125b98dbdc9c9958dd0811551208185b5bdd5b9d60621b6044820152606490fd5b845162461bcd60e51b8152808401859052601360248201527214da185c99481c1c9a58d9481b9bdd081cd95d606a1b6044820152606490fd5b915162461bcd60e51b815291820152601f60248201527f5265656e7472616e637947756172643a207265656e7472616e742063616c6c006044820152606490fd5b8380fd5b50503461027057806003193601126102705760209061072b6107216111bd565b6024359033611474565b5160018152f35b5082346107d657826003193601126107d65761074c6111bd565b918360243592338152600160205281812060018060a01b03861682526020522054908282106107855760208561072b85850387336115e2565b608490602086519162461bcd60e51b8352820152602560248201527f45524332303a2064656372656173656420616c6c6f77616e63652062656c6f77604482015264207a65726f60d81b6064820152fd5b80fd5b5091346107d657806003193601126107d65781519181845492600184811c918186169586156108ea575b60209687851081146108d7579087899a92868b999a9b5291826000146108ad575050600114610852575b858861084e8961083f848a038561123b565b5192828493845283019061117d565b0390f35b815286935091907f8a35acfbc15ff81a39ae7d344fd709f28e8600b4aa8c65c6b64bfe7fe36bd19b5b828410610895575050508201018161083f61084e3861082d565b8054848a01860152889550879490930192810161087b565b60ff19168882015294151560051b8701909401945085935061083f925061084e915038905061082d565b634e487b7160e01b835260228a52602483fd5b92607f1692610803565b5050346102705760203660031901126102705760209181906001600160a01b0361091c6111bd565b168152600d8452205415159051908152f35b5090346102345780600319360112610234576109486111bd565b906024359283159061095a82156116e4565b338652600d6020528483872054106109ec57670de0b6b3a764000091828602928684041417156109d95750610990908333611474565b61099b83833361176b565b519182526001600160a01b03169033907f99c01cd4f8275976ef33d24514b1694c8a9d5730d92e26996834343e09778e9990602090a36101df6118fc565b634e487b7160e01b865260119052602485fd5b606490602084519162461bcd60e51b83528201526013602482015272496e73756666696369656e742073686172657360681b6044820152fd5b50503461027057816003193601126102705760055490516001600160a01b039091168152602090f35b5050346102705781600319360112610270576020906009549051908152f35b509190346102705781600319360112610270578290600e54610a8e81611a4e565b92610a9b8351948561123b565b818452610aa782611a4e565b6020858101969091601f1901368837610abf84611a66565b92610ac985611a66565b9482600f5490811515905b838110610b40575050505050845195606087019060608852518091526080870197915b818110610b235787890384890152878061084e8989610b168e8b61137c565b918483039085015261137c565b82516001600160a01b031689529783019791830191600101610af7565b610b4c819b969b6111ee565b90546001600160a01b039160039190821b1c8216610b6a848a611a98565b52610b74836111ee565b9054911b1c168b52600d8752898b2054610b8e828a611a98565b528115610bec57610b9f8189611a98565b51606490818102918183041490151715610bd95790610bc184610bd193611aac565b610bcb828c611a98565b5261174f565b999499610ad4565b634e487b7160e01b8c526011865260248cfd5b610bd1908b610bc1565b5050346102705781600319360112610270576020906008549051908152f35b50503461027057816003193601126102705761084e90610c33611273565b905191829160208352602083019061117d565b50503461027057602036600319011261027057602090610c6c610c676111bd565b611acc565b9051908152f35b5034610234576020366003190112610234573591600e548310156107d65750610c9d6020926111ee565b905491519160018060a01b039160031b1c168152f35b83346107d657806003193601126107d657610ccc6113b0565b600580546001600160a01b0319811690915581906001600160a01b03167f8be0079c531659141344cd1fd0a4f28419497f9722a3daafe3b4186f6b6457e08280a380f35b5050346102705760203660031901126102705760209181906001600160a01b03610d386111bd565b16815280845220549051908152f35b50503461027057816003193601126102705760075490516001600160a01b039091168152602090f35b505034610270578160031936011261027057602090600f549051908152f35b5050346102705781600319360112610270576005546001600160a01b03168252600d602090815291819020549051908152f35b8284346107d657806003193601126107d6575060018060a01b038060075416906008549260095491600f54906005541690610e1e600b549360e0610e04611273565b918051998a998a5260208a015288015260e087019061117d565b936060860152608085015260a084015260c08301520390f35b50503461027057806003193601126102705761072b602092610e80610e5a6111bd565b338352600186528483206001600160a01b03821684528652918490205460243590611451565b90336115e2565b5050346102705781600319360112610270576005546001600160a01b03168252600d60209081529181902054600f54915191148152f35b5050346102705781600319360112610270576020905160128152f35b5082903461027057606036600319011261027057610ef66111bd565b610efe6111d8565b91846044359460018060a01b038416815260016020528181203382526020522054906000198203610f38575b60208661072b878787611474565b848210610f615750918391610f566020969561072b950333836115e2565b919394819350610f2a565b606490602087519162461bcd60e51b8352820152601d60248201527f45524332303a20696e73756666696369656e7420616c6c6f77616e63650000006044820152fd5b5050346102705781600319360112610270576020906002549051908152f35b5034610234576020366003190112610234577fce44720b7462058f31ddecab3daa427921e5975d9acb555f043682dada8665699160209135906110046113b0565b8160095551908152a180f35b505034610270578160031936011261027057600c5490516001600160a01b039091168152602090f35b50503461027057806003193601126102705760209061072b6110596111bd565b60243590336115e2565b5091346107d657806003193601126107d6578151918160035492600184811c9181861695861561114e575b60209687851081146108d7578899509688969785829a5291826000146111275750506001146110cb575b50505061084e929161083f91038561123b565b9190869350600383527fc2575a0e9e593c00f959f8c92f12db2869c3395a3b0502d05e2516446f71f85b5b82841061110f575050508201018161083f61084e6110b8565b8054848a0186015288955087949093019281016110f6565b60ff19168782015293151560051b8601909301935084925061083f915061084e90506110b8565b92607f169261108e565b849034610270578160031936011261027057600c546001600160a01b03168152602090f35b919082519283825260005b8481106111a9575050826000602080949584010152601f8019910116010190565b602081830181015184830182015201611188565b600435906001600160a01b03821682036111d357565b600080fd5b602435906001600160a01b03821682036111d357565b600e5481101561122557600e6000527fbb7b4a454dc3493923482f07822329ed19e8244eff582cc204f8554c3620c3fd0190600090565b634e487b7160e01b600052603260045260246000fd5b90601f8019910116810190811067ffffffffffffffff82111761125d57604052565b634e487b7160e01b600052604160045260246000fd5b604051906000600a5490600182811c90808416938415611354575b6020948584108114611340578388528794939291811561132057506001146112c1575b50506112bf9250038361123b565b565b90939150600a6000527fc65a7bb8d6351c1cf70c95a316cc6a92839c986682d98bc35f958f4883f9d2a8936000915b8183106113085750506112bf935082010138806112b1565b855488840185015294850194879450918301916112f0565b9150506112bf94925060ff191682840152151560051b82010138806112b1565b634e487b7160e01b85526022600452602485fd5b91607f169161128e565b346111d35760003660031901126111d3576020600f54604051908152f35b90815180825260208080930193019160005b82811061139c575050505090565b83518552938101939281019260010161138e565b6005546001600160a01b031633036113c457565b606460405162461bcd60e51b815260206004820152602060248201527f4f776e61626c653a2063616c6c6572206973206e6f7420746865206f776e65726044820152fd5b600580546001600160a01b039283166001600160a01b0319821681179092559091167f8be0079c531659141344cd1fd0a4f28419497f9722a3daafe3b4186f6b6457e0600080a3565b9190820180921161145e57565b634e487b7160e01b600052601160045260246000fd5b6001600160a01b0390811691821561158f571691821561153e576000828152806020526040812054918083106114ea57604082827fddf252ad1be2c89b69c2b068fc378daa952ba7f163c4a11628f55a4df523b3ef958760209652828652038282205586815220818154019055604051908152a3565b60405162461bcd60e51b815260206004820152602660248201527f45524332303a207472616e7366657220616d6f756e7420657863656564732062604482015265616c616e636560d01b6064820152608490fd5b60405162461bcd60e51b815260206004820152602360248201527f45524332303a207472616e7366657220746f20746865207a65726f206164647260448201526265737360e81b6064820152608490fd5b60405162461bcd60e51b815260206004820152602560248201527f45524332303a207472616e736665722066726f6d20746865207a65726f206164604482015264647265737360d81b6064820152608490fd5b6001600160a01b0390811691821561169357169182156116435760207f8c5be1e5ebec7d5bd14f71427d1e84f3dd0314c0f7b2291e5b200ac8c7c3b925918360005260018252604060002085600052825280604060002055604051908152a3565b60405162461bcd60e51b815260206004820152602260248201527f45524332303a20617070726f766520746f20746865207a65726f206164647265604482015261737360f01b6064820152608490fd5b60405162461bcd60e51b8152602060048201526024808201527f45524332303a20617070726f76652066726f6d20746865207a65726f206164646044820152637265737360e01b6064820152608490fd5b156116eb57565b60405162461bcd60e51b815260206004820152602360248201527f536861726520616d6f756e74206d75737420626520677265617465722074686160448201526206e20360ec1b6064820152608490fd5b8181029291811591840414171561145e57565b600019811461145e5760010190565b9190820391821161145e57565b9060018060a01b0380921692600091848352600d6020526040832061179183825461175e565b905583811690818452600d6020526040842054156118ba575b508252600d6020526117c160408320918254611451565b9055828152600d6020526040812054156117da57505050565b805b600e805490818310156118b2578491866117f5856111ee565b949054600395861b1c1614611815575050506118109061174f565b6117dc565b919550939260001992909183810190811161189e57906118488561183b611867946111ee565b9054908a1b1c16916111ee565b90919082549060031b9160018060a01b03809116831b921b1916179055565b835490811561188a5750019261187c846111ee565b81939154921b1b1916905555565b634e487b7160e01b81526031600452602490fd5b634e487b7160e01b83526011600452602483fd5b505050505050565b600e54680100000000000000008110156118e857906118488260016118e29401600e556111ee565b386117aa565b634e487b7160e01b85526041600452602485fd5b6005546001600160a01b039081166000805b600e548110156119645783611922826111ee565b90549060031b1c16838103611941575b5061193c9061174f565b61190e565b808352600d6020526040832054600f540361193257925050506112bf915061196a565b50505050565b60055490600061197982611408565b600754600854936001600160a01b03918216803b156106fd57829184606492819560405198899687956323b872dd60e01b8752166004860152169889602485015260448401525af19182611a22575b50906119fc57507ffc8f2d6996e2b706fa4cfb81cb10a53534b07f2010b2488488508f8751f55375602060405160648152a2565b807f71500f809d5718ccb8db09812c9cbd5fdb2c555bac0fd93d9f80b1f9eae4580191a2565b67ffffffffffffffff8111611a3a57604052386119c8565b634e487b7160e01b82526041600452602482fd5b67ffffffffffffffff811161125d5760051b60200190565b90611a7082611a4e565b611a7d604051918261123b565b8281528092611a8e601f1991611a4e565b0190602036910137565b80518210156112255760209160051b010190565b8115611ab6570490565b634e487b7160e01b600052601260045260246000fd5b600f54908115611b0c5760018060a01b0316600052600d6020526040600020549060648202918083046064149015171561145e57611b0991611aac565b90565b505060009056fea264697066735822122005ea8769e155d628c4e53225bfa4094078977e482e07b8fe62fa34e82173632d64736f6c63430008140033a26469706673582212203e463b87463f90ef616f095062ff531b7aac8fab290bd00e1fa7acbed5c66c5c64736f6c63430008140033a26469706673582212200569aacdfe7647ea29a5da44240ee04efe930c2b21d1f102406db82c283d25d964736f6c63430008140033",
  "linkReferences": {},
  "deployedLinkReferences": {}
}